:020000040800F2
:100000001851002009030008AB350008B73100087B
:10001000A9350008B5050008694000080000000087
:10002000000000000000000000000000490200087D
:10003000870C000800000000A50200082537000812
:1000400023030008230300082303000823030008F8
:1000500023030008230300082303000823030008E8
:1000600023030008230300082303000823030008D8
:1000700023030008230300082303000823030008C8
:1000800023030008230300082303000823030008B8
:10009000F9050008230300082303000823030008D0
:1000A0002303000823030008230300082303000898
:1000B00023030008F5370008230300082303000882
:1000C0002303000823030008230300082303000878
:1000D00023030008593E00082303000823030008F7
:1000E0002303000823030008230300082303000858
:1000F0002303000823030008230300082303000848
:100100002303000823030008230300082303000837
:1001100023030008230300086138000823030008B4
:100120002303000823030008A10B00082303000891
:100130002303000823030008230300082303000807
:1001400049060008230300082303000823030008CE
:100150002303000823030008AD0B00082303000855
:1001600023030008230300082303000823030008D7
:1001700023030008230300082303000800000000F5
:10018000230300082303000800F002F800F04CF8F5
:100190000AA090E8000C82448344AAF10107DA45E2
:1001A00001D100F041F8AFF2090EBAE80F0013F0E8
:1001B000010F18BFFB1A43F001031847EC8500003C
:1001C0000C8600000A4410F8014B14F00F0508BF1C
:1001D00010F8015B240908BF10F8014B6D1E05D013
:1001E00010F8013B6D1E01F8013BF9D1641E03D0EC
:1001F000641E01F8015BFBD19142E4D3704700001B
:100200000023002400250026103A28BF78C1FBD81F
:10021000520728BF30C148BF0B6070471FB508F0B8
:1002200044FA1FBD10B510BD00F074F91146FFF778
:10023000F5FF04F0FBFA00F092F903B4FFF7F2FFC8
:1002400003BC00F095F900002C4B19680868B0E871
:10025000F04F80F30988BFF36F8F4FF0000080F3F9
:10026000118870470000000008480068006880F3AB
:1002700008884FF0000080F3148862B661B6BFF3BF
:100280004F8FBFF36F8F00DF00BF00BF08ED00E0AE
:10029000DFF80C00016841F470010160704700BF95
:1002A00088ED00E0EFF30980BFF36F8F134B1A68FE
:1002B0001EF0100F08BF20ED108A20E9F04F1060EB
:1002C00009B44FF0500080F31188BFF34F8FBFF394
:1002D0006F8F07F0E1FA4FF0000080F3118809BC3E
:1002E00019680868B0E8F04F1EF0100F08BFB0ECB6
:1002F000108A80F30988BFF36F8F7047F4070020DE
:10030000EFF305807047000009488047094800471F
:10031000FEE7FEE7FEE7FEE7FEE7FEE7FEE7FEE7B5
:10032000FEE7FEE704480549054A064B7047000012
:10033000E537000889010008184B002018510020FB
:10034000184D0020184D002053EA020C00F069807F
:100350002DE9F04B4FF00006002B1FBFB3FA83F5D9
:1003600003FA05F424FA05F65E4012BF1643B2FA0A
:1003700082F502FA05F4C5F120051EBF22FA05FC3C
:1003800044EA0C04203556EA044C4FEA144418BFE2
:10039000641C4FF000084FF00009904271EB030C11
:1003A00039D3002919BFB1FA81F701FA07F6B0FA7B
:1003B00080F700FA07F6C7F120071EBF20FA07FCF6
:1003C00046EA0C062037B6FBF4FCA7EB0507103F06
:1003D00007F01F0BCBF120060CFA0BFB2CFA06F6EC
:1003E00044BFB3460026202FA4BF5E464FF0000B4B
:1003F0005BEA060C08BF4FF0010B19EB0B09ABFBD6
:10040000027C48EB0608C01B06FB02CC0BFB03CCAE
:1004100071EB0C01C1E70B46024641464846BDE878
:10042000F08B13B54FF000004FF00001AFF30080E8
:10043000BDE81C40704710B5203AC0F00B80B1E811
:100440001850203AA0E81850B1E81850A0E8185009
:10045000BFF4F5AF5FEA027C24BFB1E81850A0E812
:10046000185044BF18C918C0BDE810405FEA827C2C
:1004700024BF51F8043B40F8043B08BF7047D20743
:1004800028BF31F8023B48BF11F8012B28BF20F8E4
:10049000023B48BF00F8012B70474FF0000200B547
:1004A000134694469646203922BFA0E80C50A0E897
:1004B0000C50B1F12001BFF4F7AF090728BFA0E845
:1004C0000C5048BF0CC05DF804EB890028BF40F811
:1004D000042B08BF704748BF20F8022B11F0804F53
:1004E00018BF00F8012B704770477047704710B570
:1004F00000F008F8006810BD10B5044600F002F8DE
:10050000046010BD00487047B84A0020004870479A
:10051000B84A00207546FFF7F9FFAE460500694668
:10052000534620F00700854618B020B5FFF7FAFEC5
:10053000BDE820404FF000064FF000074FF00008E4
:100540004FF0000B21F00701AC46ACE8C009ACE865
:10055000C009ACE8C009ACE8C0098D46704710B5C9
:100560000446AFF300802046BDE81040FFF765BEAB
:1005700001491820ABBEFEE7260002007047026862
:10058000426001608A1A8260416901EBD173B2EB6B
:10059000630F02DD511A816007E04B4203EBD37316
:1005A000B2EB630F01DA11448160D0E902211144FA
:1005B000C1607047FEE7000000B58BB000200690D8
:1005C00007900121089147F6FE7201920390029074
:1005D000049005900E200A90099101A9054800F0A9
:1005E00089FC044801F0A5FA0221024800F0FEFB54
:1005F0000BB000BDC80B0020014800F08DBD00000D
:10060000C80B002000B58BB00E200690002007908C
:100610000121089147F6FE72019203900290049026
:1006200005901C200A90099101A9064800F062FC7F
:10063000044801F07EFA0221024800F0D7FB0BB01B
:1006400000BD0000F00B0020014800F065BD000077
:10065000F00B00201CB588228DF8002000228DF8B8
:1006600001208DF802208DF80320019208236A46AC
:1006700000F050F81CBD07B582B0A1228DF8002013
:1006800000228DF801208DF802208DF803209DF8BE
:1006900010308DF804309DF811308DF805308DF84C
:1006A00006208DF8072008236A4600F033F805B0CD
:1006B00000BD000010B504460649204600F022FBAC
:1006C00021788031BDE810400823024A024800F03A
:1006D00021B8000029070020C80B00207CB5DDE907
:1006E0000645160A8DF800608DF801201A0A8DF86B
:1006F00002208DF80330220A8DF804208DF8054081
:100700002A0A8DF806208DF8075008236A4600F063
:1007100001F87CBD70B505461646104C21600021DD
:100720006160A160E16023610123324621462846D1
:1007300000F06EFB00280FD00223324621462846E7
:1007400000F066FB002807D0324621462846BDE867
:100750007040042300F05CBB70BD0000B00D0020B1
:1007600010B504462DED068B94ED000AD4ED060A73
:1007700070EE608AC4ED028AD4ED03AA94ED040AF7
:100780002AEE808A20EE08AAD4ED010A40EE208AE3
:1007900018EE900A07F018FF41EC100B03F01EFD55
:1007A000B0EE409AB2EE000AF0EE609A2AEE800AAD
:1007B00010EE100A07F008FF53EC192B07F01AFC93
:1007C00028EE080A41EC190B10EE100A07F0FCFEA7
:1007D00053EC192B07F01EFB41EC100B03F008FD46
:1007E00051EC100B07F0E4FA0AEE900A1AEE100A28
:1007F00007F0EAFE41EC190B18EE900A07F0E4FE50
:1008000041EC100B03F0EAFC53EC192B51EC100BEC
:1008100007F0EEFC0ED2B0EE680A02F06DFF7AEE41
:10082000C80AD4ED018A20EE200AF6EE000A40EE56
:10083000208A07E094ED040AC8EE800A94ED010ACC
:1008400070EE808A18EE100A07F0BEFE41EC190B1C
:1008500018EE900A07F0B8FE41EC100B03F0BEFC56
:1008600053EC192B51EC100B07F0C2FC0AD2B0EE7E
:10087000680A02F041FFD4ED030AF1EE600A20EEAF
:10088000200A07E094ED030AB1EE400A60EE280A60
:1008900080EE880AD4ED001A94ED051AD4ED010A11
:1008A00041EE201AC4ED001A41EE000AC4ED010A1F
:1008B000BDEC068B10BDB4EEE00AF1EE10FA02D2E8
:1008C000B0EE600A7047B4EEC10AF1EE10FAF9DD3D
:1008D000B0EE410A7047000010B52DED0C8BDFED36
:1008E000799AB0EE694ADFED788AF0EE683AB0EEB8
:1008F000683A9FED76AAF0EE4A2ADFED75AAB0EECF
:100900006A2A9FED748AF0EE481A9FED73BAB0EE32
:100910004B1ADFED72BAB2EE000A7148F0EE6B0AC4
:1009200002F0CAFE9FED6FCAB0EE4C4A9FED6E9A80
:10093000F0EE493AB0EE493ADFED6CCAB0EE682A03
:10094000F0EE481AF0EE6C2AB3EE091AF0EE480AFF
:100950009FED670A62484C3802F0AEFEB0EE694A7D
:10096000F0EE683AB0EE683AF0EE4A2AB0EE6A2A43
:10097000F0EE481A9FED5F1AF0EE6B0A9FED5E0AEB
:100980005E4802F099FEB0EE4C4AF0EE493AB0EE05
:10099000493AF0EE6C2AB0EE682AF0EE481AB3EE4F
:1009A0000A1AF0EE480A9FED560A54484C3802F0F5
:1009B00083FEB0EE694AF0EE683AB0EE683AF0EEC7
:1009C0004A2AB0EE6A2AF0EE481AB0EE4B1AF0EE60
:1009D0006B0AB2EE040A4B4802F06EFEB0EE4C4ACF
:1009E000F0EE493AB0EE493AF0EE6C2AB0EE682AE1
:1009F000F0EE481A9FED44DAF0EE480AB0EE4D1AD8
:100A0000DFED42DA3F48B0EE6D0A4C3802F054FE9A
:100A1000B0EE694AF0EE683AB0EE683AF0EE4A2A73
:100A2000B0EE6A2AF0EE481AB0EE4B1AF0EE6B0AFE
:100A3000B2EE040A364802F03FFE3548B0EE4C4AAA
:100A4000F0EE493AB0EE493AF0EE6C2AB0EE682A80
:100A5000F0EE481AB0EE4D1AF0EE480AB0EE6D0A0C
:100A60004C3802F029FEB0EE694AF0EE683AB0EE7A
:100A7000683AF0EE4A2AB0EE6A2AF0EE481AB0EE72
:100A80004B1AF0EE6B0AB2EE000A224802F014FE96
:100A90002048B0EE4C4AF0EE493AB0EE493AF0EE5A
:100AA0006C2AB0EE682AF0EE481AB3EE0E1AF0EE99
:100AB000480A9FED190A4C3802F0FEFDBDEC0C8B84
:100AC000012010BD00004843000048440000AF432F
:100AD0000000C84200000000CDCCCC3DCDCC4C3D48
:100AE000BC00002000007A450000FA4500007A446E
:100AF00000007A43AE47E13DCDCC0441D001002057
:100B000000007043E402002000000C420000AA43F1
:100B1000F80300200C0500200000964310B50446A1
:100B20002DED028BB0EE408A84ED358A04F1BC00D5
:100B3000FFF716FED4ED390A94ED2F0A04F16C008C
:100B400002F034FDD4ED3A0A94ED230A04F12000BA
:100B500002F02CFD94ED390A074930EE480AB0EE58
:100B6000C00A10EE100A884203DA0120BDEC028BA5
:100B700010BD0020FAE70000CDCC4C3F80ED3C0AD0
:100B8000D0ED390A30EEC00AB0EEC00A10EE100AFD
:100B9000B0F17F5F01DA012070470020704700004C
:100BA000014801F063B80000A80C0020014801F0E2
:100BB0005DB80000080D00200168CAB2103A182381
:100BC000B2FBF3F2064B9B5CC3656FF30901032A8A
:100BD00002D9091D816500E08165806D70470000C4
:100BE0003087000810B5014600208A6A8B694FF0F3
:100BF000C074002B0ED0B3F5005F1AD062B3012A87
:100C00002AD0022A28D0032A03D1C96AC90100D5F3
:100C1000012010BD1AB1012A06D0022AF9D1C96AF1
:100C2000C901F6D5012010BDC96AA142FBD101203E
:100C300010BD52B1012A0AD0022A06D0032AF7D1E8
:100C4000C96AA142F4D1012010BD012010BDC96ABA
:100C5000C901FBD5012010BD012010BD30B50468CD
:100C6000256825F480252560046863608368402B2F
:100C700004D0036899600068C26030BD03689A6060
:100C80000068C16030BD704710B504460B469FED4B
:100C90000F0A21780222B0EE402AF0EE401AB0EEA0
:100CA000401AF0EE400A184602F019FD08491846AD
:100CB00000F028F82178022000F078F80146BDE81D
:100CC00010400023024A0348FFF724BD0000000043
:100CD00029070020C80B002072B6FEE731EE601A2B
:100CE0000121814070EE600A491E00EE101AB8EE34
:100CF000C00A20EE800AC0EE010ABCEEE00A10EE47
:100D0000100A7047F0B503460A46DFED231A9FED3F
:100D1000232A93ED010A1020B0EE611AF0EE420A88
:100D2000FFF7DCFF044693ED020A0E20B0EE611AD5
:100D3000F0EE420AFFF7D2FF054693ED030A1020BA
:100D4000B0EE611AF0EE420AFFF7C8FF0646DFED8B
:100D5000151A93ED040A0A209FED111AF0EE610AAC
:100D6000FFF7BCFF074693ED050A08209FED0E1A1A
:100D7000F0EE610AFFF7B2FF1470210A517095700E
:100D8000C5F3052141EA8711D170B908117150717D
:100D90009671300AD071F0BD00002042000020C2E0
:100DA00000C07F440000000000004C4241EA4010B7
:100DB00070474A78097842EA012100EE101AB8EE2D
:100DC000400A80ED370A70478878C978020604D552
:100DD000054A42EA0020084301E041EA002000EE13
:100DE000100AB8EEC00A70470000FFFF90F82020FC
:100DF000012A07D0022A05D0416A41F480214162CC
:100E000001207047006842690A4342610020704730
:100E1000F0B590F820500468A468012D07D0022D89
:100E200005D0416A41F4802141620120F0BD04F007
:100E3000806504F00066354301D1E50053D5C4F365
:100E400001640125A5401D608B684FF4C0759BB1FE
:100E5000CE6805EB041733434E6843EAC6030668C1
:100E6000F3514FF4C273076803EB04130E69FE508D
:100E7000097D012909D00DE00E88CB6805EB041728
:100E800043EA46530668F351EBE70168CE5846F44F
:100E90008076CE501179D379567941EA03619379FE
:100EA0001B0443EA062319434FF4C676036806EB96
:100EB000041699511178D37841EA036193785278F6
:100EC0001B0443EA022211434FF4C473026803EB8C
:100ED0000413D150006805EB0411425842F001029E
:100EE00042500020F0BD416A41F4001141620120EE
:100EF000F0BD000010B590F82020012A07D0022A8A
:100F000005D0416A41F480214162012010BD3C4876
:100F100000F50070026842F001020260026822F4EB
:100F20007C52026002684B6A42EA032202600A7D38
:100F300002F01F0301229A40C3699343C361A0F5E5
:100F40000070CB69B3B9D0F80C329343C0F80C32BF
:100F50008C894B6864F31F434C6900EBC404C4F8EC
:100F600040320C890B6864F31F434C6900EBC404E6
:100F7000C4F84432CB69012B16D1D0F80C3213439C
:100F8000C0F80C320C884B6864F31F434C6900EBCB
:100F9000C404C4F840320C89CB6864F31F434C6925
:100FA00000EBC404C4F844328B697BB1D0F804323E
:100FB0001343C0F804320B6973B1D0F814321343F1
:100FC000C0F81432096A01290CD010E0D0F80432BC
:100FD0009343C0F80432EEE7D0F814329343C0F8DC
:100FE0001432EFE7D0F81C121143C0F81C12D0F8ED
:100FF000001221F00101C0F80012002010BD000015
:1010000000640040704770B590F82040012C07D074
:10101000022C05D0416A41F480214162012070BD5B
:1010200021B104682469A4072AD003E00468E468B5
:10103000A4071FD04FF4D874056804EB01142D5990
:1010400005F0040595600DB305682D59ED08556050
:1010500005682C5904F00204D4604FF4DA74056872
:1010600004EB01142E5906F00F06082E13D30825A1
:10107000156114E0416A41F400114162012070BD24
:10108000416A41F400114162012070BD05682D598B
:101090006D0D1560DCE72D5905F00F05156105682C
:1010A0002D59C5F30725956105682C59240C546109
:1010B0004FF4DC72046802EB0112A4581C7004683F
:1010C000A458240A5C700468A458240C9C7004681A
:1010D000A258120EDA704FF4DE72046802EB0112AD
:1010E000A4581C710468A458240A5C710468A458AC
:1010F000240C9C710468A258120EDA7131B1006898
:10110000016941F020010161002070BD0068C168E3
:1011100041F02001C160F7E72DE9F05F05460024AA
:1011200028684669D0F804908768D0F80CA0D0F8F9
:1011300010B0D0F81880F10748D0F90714D0012179
:101140008160B80703D5284600F020FD0CE0780741
:1011500002D54FF4006407E0380702D54FF48054FD
:1011600002E0284600F011FDF80516D529684FF475
:1011700080708860B80503D5284600F01AFD0CE0A1
:10118000780502D544F4005407E0380502D544F44C
:10119000804402E0284600F00BFDF80316D52968CC
:1011A0004FF480308860B80303D5284600F003FD73
:1011B0000CE0780302D544F4004407E0380302D57C
:1011C00044F4803402E0284600F0F4FC300707D5F0
:1011D0005FEACA6004D544F4007429681020C8602E
:1011E00070074FF0080707D55FEA0A7004D5286832
:1011F000C760284600F0BAF9B00706D52868C0686D
:10120000800702D0284600F0B3F9700607D55FEAE0
:10121000CB6004D544F48064296810200861B006CE
:1012200007D55FEA0B7004D528680761284600F0EF
:101230007DFCF00606D528680069800702D02846A4
:1012400000F075FCB00308D55FEAC96005D52968D0
:1012500010204860284600F06BFCF00307D55FEAD9
:10126000097004D528684760284600F0A5FC3004C2
:1012700046D55FEA497040D5F00504D55FEAC870ED
:1012800001D044F00104B00504D55FEA887001D5AF
:1012900044F00204700504D55FEA487001D544F0BB
:1012A0000404300529D518F0700F26D008F070001E
:1012B000402815D006DC102809D020280AD0302874
:1012C00016D10AE050280ED0602811D10EE044F06B
:1012D00008040DE044F010040AE044F0200407E0A4
:1012E00044F0400404E044F0800401E044F48074DD
:1012F0002868816921F070018161296804204860B3
:10130000002C05D0686A204368622846FFF77AFE01
:10131000BDE8F09F70B50446002C03D094F820007F
:1013200010B104E0012070BD204600F09DF8206857
:10133000016841F00101016000F012FF0546052639
:101340000CE000F00DFF401B0A2807D9606A40F44A
:101350000030606284F82060012070BD2068406821
:10136000C007EED02068016821F00201016000F0A2
:10137000F7FE05460CE000F0F3FE401B0A2807D9F3
:10138000606A40F40030606284F82060012070BD23
:10139000206840688007EED4207E01283FD0206876
:1013A000016821F080010160607E01283DD0206845
:1013B000016821F040010160A07E01283BD0206837
:1013C000016821F020010160E07E012839D0206809
:1013D000016841F010010160207F012837D02068AA
:1013E000016821F008010160607F012835D0206884
:1013F000016821F004010160D4E902010843D4E945
:101400000412114308436168491E08432168C861FA
:1014100000206062012084F82000002070BD206858
:10142000016841F080010160BEE72068016841F079
:1014300040010160C0E72068016841F020010160BF
:10144000C2E72068016821F010010160C4E720684C
:10145000016841F008010160C6E72068016841F0B9
:1014600004010160C8E700002DE9F04387B004469D
:10147000142102A8FFF711F8384D394BDFF8D89046
:10148000296822680126364C02273648491C103349
:101490004FF0030C4FF009084A4529D12960012972
:1014A00007D1196841F000711960196801F00071E5
:1014B0000191216841F002012160216801F00201DF
:1014C00001914FF44071029103970496CDF814C036
:1014D000CDF8188002A900F053FD00220521142048
:1014E00000F0DCFE142000F0CBFE07B0BDE8F08376
:1014F000DFF874904A45F8D11A6842F080621A60A9
:101500001A6802F0806201922960012907D11968E6
:1015100041F000711960196801F0007101912168B2
:1015200041F002012160216801F002010191602176
:10153000029103970496CDF814C0CDF8188002A943
:1015400000F01EFD00220521402000F0A7FE4020F3
:1015500000F096FEC9E70000006400406807002024
:10156000303802400004024000680040704700002C
:10157000F0B506462DED048B87B0F649F64CDFED4D
:10158000F79A3068884242D1F54B6A4600213046CE
:10159000FFF739FD0099912906D092290DD0A1F5C8
:1015A0008071413933D111E0ED4AEE49EE4801F046
:1015B00003FE2068401C206029E0E94AEB49EC4822
:1015C00001F0FAFD6068401C606020E0E949E448F1
:1015D00001F00AFEE74DE7488835E98FFEF7CFFFB7
:1015E00015ED1F0AB8EEC00ADFEDE30A20EE200A6F
:1015F00020EE290A85ED100AB5F93C0000EE100A2C
:10160000B8EEC00A85ED110A206A401C2062DB4951
:101610003068884277D1DA4B6A4600213046FFF7BE
:10162000F2FC009840F20322A0F20321DFEDD50A7C
:1016300001279FEDD59A9FEDD58BD64E90427CD059
:1016400032DC11287AD0A0F5007001385CD0012876
:1016500059D1CB49D048FFF7ACFBCF4D85ED370AC8
:10166000C7496846FFF7B0FB85ED380A95ED370AA4
:101670002846BCEEC00A10EE101AFEF780FF95ED6A
:10168000030AB8EEC00A20EE200A20EE290AC0EEB6
:10169000090A95ED400A30EEC00A85ED390A95F841
:1016A000FC00002878D0ABE0012976D002292AD1AD
:1016B000B349BA48FFF77DFBB84D85ED370AB0490D
:1016C0006846FFF781FB85ED380A95ED370A284615
:1016D000BCEEC00A10EE101AFEF751FF95ED030A9A
:1016E000B8EEC00A20EE200A20EE290AC0EE090A50
:1016F00095ED400A30EEC00A85ED390A95F8FC00F8
:10170000002878D0CBE172E09D49A548FFF751FB56
:10171000A34D85ED370A9A496846FFF755FB85EDDD
:10172000380A95ED370A2846BCEEC00A10EE101AAA
:10173000FEF725FF95ED030A01E0A3E0E7E1B8EE2F
:10174000C00A20EE200A20EE290AC0EE090A95ED13
:10175000400A30EEC00A85ED390A95F8FC0018B948
:1017600085ED400A85F8FC70D6ED000A30EE600A7F
:1017700010EE100A06F028FF41EC100B02F02EFDCF
:1017800053EC182B51EC100B06F0F8FB06D295ED3C
:10179000390A86ED000A05E02EE00DE196ED000A1B
:1017A00085ED390AD5ED380A80EE890A85ED3A0AC9
:1017B000D6ED050A30EE600A10EE100A06F004FFBE
:1017C00041EC100B02F00AFD53EC182B51EC100BFE
:1017D00006F0D4FB04D295ED3A0A86ED050A03E043
:1017E00096ED050A85ED3A0AA068401CA06007B096
:1017F000BDEC048BF0BD4EE185ED400A85F8FC7030
:10180000D6ED010A30EE600A10EE100A06F0DCFE9A
:1018100041EC100B02F0E2FC53EC182B51EC100BD6
:1018200006F0ACFB04D295ED390A86ED010A03E01F
:1018300096ED010A85ED390AD5ED380A80EE890A60
:1018400085ED3A0AD6ED060A30EE600A10EE100A6F
:1018500006F0BAFE41EC100B02F0C0FC53EC182B62
:1018600051EC100B06F08AFB04D295ED3A0A86ED96
:10187000060A03E096ED060A85ED3A0AE068401C88
:10188000E060B4E73E494748FFF793FA454D85EDE0
:10189000370A3B496846FFF797FA85ED380A95ED18
:1018A000370A2846BCEEC00A10EE101AFEF767FE93
:1018B00095ED030AB8EEC00A20EE200A20EE290AB0
:1018C000C0EE090A95ED400A30EEC00A85ED390AEE
:1018D00095F8FC0018B985ED400A85F8FC70D6ED46
:1018E000020A30EE600A10EE100A06F06DFE41ECBE
:1018F000100B02F073FC53EC182B51EC100B06F09C
:101900003DFB04D295ED390A86ED020A03E096ED1F
:10191000020A85ED390AD5ED380A80EE890A85ED8F
:101920003A0AD6ED070A30EE600A10EE100A06F009
:101930004BFE41EC100B02F051FC53EC182B51EC18
:10194000100B06F01BFB2FD295ED3A0A86ED070A25
:101950002EE0000000640040700800200000B44346
:10196000210700203C090020080000205809002021
:101970002C0000203C06002000008037006800405A
:101980003107002000000039000010420000000074
:10199000000024407C07002064010020A0040020F7
:1019A000500000207802002096ED070A85ED3A0AE3
:1019B0002069401C20611AE759495A48FFF7F9F994
:1019C000584D85ED370A56496846FFF7FDF985ED14
:1019D000380A95ED370A2846BCEEC00A10EE101AF8
:1019E000FEF7CDFD95ED030AB8EEC00A20EE200A01
:1019F00020EE290AC0EE090A95ED400A30EEC00A31
:101A000085ED390A95F8FC0018B985ED400A85F88E
:101A1000FC70D6ED030A30EE600A10EE100A06F0F4
:101A2000D3FD41EC100B02F0D9FB53EC182B51EC19
:101A3000100B06F0A3FA04D295ED390A86ED030ADD
:101A400003E096ED030A85ED390AD5ED380A80EEFC
:101A5000890A85ED3A0AD6ED080A30EE600A10EEE2
:101A6000100A06F0B1FD41EC100B02F0B7FB53EC8D
:101A7000182B51EC100B06F081FA04D295ED3A0ABE
:101A800086ED080A03E096ED080A85ED3A0A6069DA
:101A9000401C6061ABE685ED400A85F8FC70D6ED30
:101AA000040A30EE600A10EE100A06F08DFD41ECDB
:101AB000100B02F093FB53EC182B51EC100B06F0BB
:101AC0005DFA03D295ED390A86ED040AD5ED380AA0
:101AD00080EE890A85ED3A0AD6ED090A30EE600AF1
:101AE00010EE100A06F070FD41EC100B02F076FBD0
:101AF00053EC182B51EC100B06F040FA03D295ED85
:101B00003A0A86ED090AA069401CA0616FE6044903
:101B1000054802F039FDE069401CE06167E600001D
:101B2000310700208C030020E40500207047704737
:101B3000704770B5044694F82000012805D0606A0B
:101B400040F400206062012070BD022084F8200073
:101B50002068016821F00101016000F001FB0546E9
:101B60000DE000F0FDFA401B0A2808D9606A40F435
:101B700000306062052084F82000012070BD2068DC
:101B80004068C007EDD1606270BD704700680549CC
:101B9000884206D10123044A4FF440710348FEF7FE
:101BA000B9BD70470064004007000020C80B00204A
:101BB000704770477047704770472DE9F041044601
:101BC000A76D00F0CDFA054694F8350000260228EE
:101BD00006D08020606584F834600120BDE8F08183
:101BE0002068016821F0160101602068416921F038
:101BF00080014161206C08B9A06C20B120680168A7
:101C000021F0080101602068016821F001010160F4
:101C10000BE000F0A5FA401B052806D9202034343B
:101C20002062032060702670D8E720680068C00733
:101C3000EFD134343F2094F828108840B860012058
:101C4000607026700020C9E790F83510022903D093
:101C50008021416501207047052180F8351000681A
:101C6000016821F001010160002070472DE9F8436F
:101C700004464FF00009CDF800906F484FF416511C
:101C80000068B0FBF1F7A56D2E6894F85C0008229F
:101C900002FA00F1314210D02068016849070CD5E2
:101CA000016821F00401016094F85C0002FA00F17F
:101CB000A960606D40F00100606594F85C104FF021
:101CC000010808FA01F0304208D021684969090684
:101CD00004D5A860606D40F00200606594F85C1067
:101CE00004208840304208D021680968890704D55B
:101CF000A860606D40F00400606594F85C101020EE
:101D00008840304220D02168096809071CD5A860A6
:101D10002068016849030CD50068000304D4216CD5
:101D200091B1204688470FE0A16C69B120468847F1
:101D30000AE00168C90503D4016821F008010160C7
:101D4000216C09B12046884794F85C102020884017
:101D500030424CD021680968C90648D5A86094F87B
:101D6000350005280BD020680168490330D500688C
:101D7000000328D4616C51B32046884737E02068BF
:101D8000016821F0160101602068416921F080019D
:101D90004161206C08B9A06C20B12068016821F075
:101DA0000801016094F85C103F208840A86084F826
:101DB000358084F83490216D00293BD001B0204655
:101DC000BDE8F0430847E16B09B1204688470EE0C3
:101DD0000168C90507D4016821F01001016084F889
:101DE000358084F83490E16B09B120468847606DF6
:101DF00000281FD0606DC00714D0052084F835007E
:101E00002068016821F0010101600098401C0090E9
:101E1000B84203D820680068C007F6D184F835803E
:101E200084F83490E16C002904D001B02046BDE86C
:101E3000F0430847BDE8F883780700202DE9F0411A
:101E4000044600F08DF905465CB1022084F83500A7
:101E5000002684F834602068016821F001010160E7
:101E60000DE00120BDE8F08100F07AF9401B052863
:101E700005D920206065032084F83500F2E720684A
:101E80000068C007F0D121680A6820480240D4E900
:101E900001031843D4E903352B43184363691843FE
:101EA000A3691843E3691843236A18431043626A1D
:101EB000042A03D1D4E90B231A4310430860206895
:101EC000406920F00700656A294605430127042977
:101ED0000DD1A06A0543E06A48B12046FEF782FEB4
:101EE00028B14020606584F835700120BAE7206889
:101EF00045612046FEF760FE94F85C203F2191404A
:101F00008160666584F835700020ABE73F8010F093
:101F10002DE9F04104460025A66D94F8340001280F
:101F20000DD0012084F8340094F835700020012F82
:101F300007D084F8340002252846BDE8F08102204D
:101F4000FBE7022784F8357060652046FEF786FEC1
:101F500094F85C103F208840B0602068016841F030
:101F600016010160206C20B12068016841F0080171
:101F700001602068016841F001010160DCE70000B8
:101F80002DE9F84F0022DFF89C914FF0010803275C
:101F90004FF00F0C09F1040AA9F1040B08FA02F53D
:101FA0000B682B40AB426ED10C7904F00304012C7A
:101FB00001D0022C15D18668540007FA04FE26EAE7
:101FC0000E06D1F80CE00EFA04FE4EEA060EC0F83A
:101FD00008E04468AC430D79C5F3001595402543EE
:101FE00045600C79E443A40708D0C568540007FA9B
:101FF00004F6B5438E68A6402E43C6600C7904F003
:102000000304022C11D1D40800EB8406356A54076E
:10201000E40E0CFA04FE25EA0E05D1F810E00EFAE3
:1020200004FE4EEA050EC6F820E00568540007FAE3
:1020300004F6B5430E7906F00306A6402E4306606B
:102040004C6814F4403F67D0374C256845F4804510
:102050002560246804F480440094344C22F0030585
:102060002E19D6F8085894074FEA147E0CFA0EF48D
:10207000A5432F4CA04201D1002424E02D4CA042C6
:1020800002D101241FE047E02B4CA04201D10224E1
:1020900019E02A4CA04201D1032414E0284CA042AC
:1020A00001D104240FE0274CA04201D105240AE00D
:1020B000254CA04201D1062405E0244CA04201D1C8
:1020C000072400E0082404FA0EF42C43C6F808485C
:1020D000D9F800409C434D68ED0200D51C43C9F877
:1020E0000040DAF800409C434D68AD0200D51C4327
:1020F000CAF80040DBF800409C434D68AD0300D5B2
:102100001C43CBF80040074D083D2C689C434E68AB
:10211000F60300D51C432C60521C102AFFF43EAF7E
:10212000BDE8F88F083C01404438024000300140CF
:10213000000002400004024000080240000C02407F
:10214000001002400014024000180240001C02402F
:10215000002A01D081617047090481617047000045
:1021600001488068704700006C07002002488168C1
:1021700002781144816070476C07002010B50B484D
:10218000016841F400710160016841F480610160FF
:10219000016841F480710160032000F09FF80F2076
:1021A00000F006F800F050F8002010BD003C02409E
:1021B00030B587B0054600241E48016841F0100183
:1021C0000160006800F01000009001A902A800F072
:1021D0003DF90598A8B100F05DF940001649B0FB43
:1021E000F1F1491E1648154A026040F2E732C2601A
:1021F000416004618460846100F0CAFB04461CB144
:1022000015E000F047F9E9E70D4800F005FC044649
:102210006CB9362000F034F8102D07D20022294680
:10222000362000F03BF80748056000E0012407B0C5
:10223000204630BD4038024040420F0000100040B0
:10224000680D00207007002082B00C48016841F43E
:1022500080410160006800F4804001900748001F41
:10226000016841F080510160006800F080500190E9
:1022700000220F21901E02B000F010B84438024036
:10228000002809DB00F01F02012191404009800075
:1022900000F1E020C0F8001170470000F0B40D46D6
:1022A0000D4B1B68C3F30223C3F10704042C00D9B0
:1022B0000424191D072901D2002300E0DB1E01269A
:1022C00006FA04F1491E294099409E40761E1640A8
:1022D0003143F0BC01F0C9BE0CED00E000F0070195
:1022E000054A10684FF6FF03184040EA01200349F1
:1022F00008431060704700000CED00E00000FA0594
:102300002DE9F04704460D46002C13D0DFF8289144
:10231000D9F80000EFB200F00700A8420CD289F80B
:102320000070D9F8000000F00700A84204D0012096
:10233000BDE8F0870120FBE72068404E810712D5F9
:10234000400703D5306840F4E05030602078000743
:1023500003D5306840F4604030603068A16820F0F8
:10236000F000084330602078C00731D033496068FE
:102370000839012808D002280BD0032809D00968A1
:1023800089070BD40120D3E70968890306D401200B
:10239000CEE70968890101D40120C9E7316821F03D
:1023A000030101433160FFF7DBFE804641F2883ACA
:1023B00007E0FFF7D5FEA0EB0800504501D9032048
:1023C000B6E73068616800F00C00B0EB810FF0D127
:1023D000D9F8000000F00700A84209D989F8007078
:1023E000D9F8000000F00700A84201D001209FE7C3
:1023F0002078400705D53068E16820F4E0500843B4
:1024000030602078000706D53068216920F46040EC
:1024100040EAC100306000F05DF83168084AC1F35D
:102420000311515CC8400749086007480068FFF77E
:10243000BFFE00207CE70000003C0240083802405C
:102440003887000878070020700700200F220260FC
:102450000B4A136803F003034360136803F0F003AF
:102460008360136803F4E053C360126802F46042AF
:10247000D20802610348006800F007000860704756
:1024800008380240003C02400148006870470000E4
:102490007807002000B5FFF7F7FF04490968044AF0
:1024A000C1F38221515CC84000BD000008380240E1
:1024B0004887000800B5FFF7E7FF04490968044AA8
:1024C000C1F34231515CC84000BD000008380240F1
:1024D0004887000810B51748006810F00C0116482E
:1024E00016D04310042912D0082911D1114C241FF1
:1024F000216801F03F02216849020AD52068C0F333
:102500008810A0FB03010023FDF71EFF09E0184619
:1025100010BD21680023C1F38811A1FB0001FDF764
:1025200013FF2168C1F30141491C4900B0FBF1F0E0
:1025300010BD0000083802400024F4002DE9F84FD7
:102540000446002C13D02078DFF8A083C007A8F140
:10255000040556D008F104000168C1F38101012986
:102560000CD00068C0F38100022803D00DE00120E8
:10257000BDE8F88FD8F80000400206D5286880032F
:102580003FD5606870BB0120F2E76068B0F5803F1E
:1025900010D0B0F5A02F12D0286820F48030286029
:1025A000286820F4802028606068E0B1FFF7D8FD3B
:1025B000064614E0286840F480302860F4E7286874
:1025C00040F480202860286840F480302860EBE7E1
:1025D000FFF7C6FD801B642801D90320C8E72868DF
:1025E0008003F5D50DE0FFF7BBFD064606E0FFF7DB
:1025F000B7FD801B642801D90320B9E72868800350
:10260000F5D42078BA4F80074FF0000948D5B74875
:10261000001D016811F00C0F08D00068C0F38100A4
:10262000022813D1D8F8000040020FD42868800790
:1026300004D5E068012801D0012099E728682169C4
:1026400020F0F80040EAC100286029E0E068B8B155
:1026500001203860FFF784FD064606E0FFF780FDA5
:10266000801B022801D9032082E728688007F5D55E
:102670002868216920F0F80040EAC10028600FE0D6
:10268000C7F80090FFF76CFD064606E0FFF768FD0F
:10269000801B022801D903206AE728688007F5D447
:1026A0002078000729D5DFF844A2924861690AF131
:1026B000700A89B101210160FFF752FD064606E06C
:1026C000FFF74EFD801B022801D9032050E7DAF8FE
:1026D00000008007F4D510E0C0F80090FFF740FD3F
:1026E000064606E0FFF73CFD801B022801D90320C7
:1026F0003EE7DAF800008007F4D42078400778D568
:102700004FF0000A79483C300068C0000BD477488D
:102710003C30016841F080510160006800F0805059
:1027200000904FF0010ADFF8D0B1DBF80000C005DF
:1027300014D4DBF8000040F48070CBF80000FFF701
:102740000FFD064606E0FFF70BFD801B022801D9AE
:1027500003200DE7DBF80000C005F4D5634EA06848
:102760006C3601280FD0052812D0306820F0010007
:102770003060306820F004003060A068F8B1FFF7E6
:10278000EFFC834617E0306840F001003060F4E76A
:10279000306840F004003060306840F00100306084
:1027A000EBE7FFF7DDFCA0EB0B0141F28830814243
:1027B00001D90320DCE630688007F2D510E0FFF78E
:1027C000CFFC834609E0FFF7CBFCA0EB0B0141F205
:1027D0008830814201D90320CAE630688007F2D4EC
:1027E000BAF1010F05D141483C30016821F0805118
:1027F0000160A069C0B33D49091D09684FF0FF366B
:10280000C1F38101022946D0022805D0C7F86090A3
:10281000FFF7A6FC04463AE0C7F86090FFF7A0FC7B
:10282000814607E0FFF79CFCA0EB0900022801D9D4
:1028300003209DE628688001F4D4D4E90701084309
:10284000616AA26A890106EB520241EA0241084329
:1028500094F82C1040EA0160C8F8000001203866A6
:10286000FFF77EFC044607E03DE0FFF779FC001B24
:10287000022801D903207BE628688001F5D532E0E3
:10288000FFF76EFC001B022801D9032070E62868C0
:102890008001F5D427E0012823D0D8F80000E269B0
:1028A00000F4800191421AD1226A00F03F01914266
:1028B00015D147F6C071626A0140B1EB821F0ED19B
:1028C000A26A00F4403106EB5202B1EB024F06D18E
:1028D00094F82C1000F07060B0EB016F03D0012071
:1028E00046E6012044E6002042E6000004380240AB
:1028F00000004742800E474200700040704770471A
:1029000070B590F83C20012A31D0012680F83C6057
:10291000022280F83D2002685468936824F0700514
:102920000C682C435460134C0268A24214D0B2F1DC
:10293000804F11D0104CA2420ED0104CA2420BD0AE
:102940000F4CA24208D00F4CA24205D00E4CA2421E
:1029500002D00E4CA24204D123F0800349681943EF
:1029600091603C30467000210170002070BD022053
:1029700070BD00000000014000040040000800405D
:10298000000C0040000401400040014000180040DD
:1029900010B50446002C03D094F83D0010B107E0B8
:1029A000012010BD002084F83C00204600F016F8FD
:1029B000022084F83D00211D206800F057FF01200F
:1029C0003D3460726070A070E07020716071A07121
:1029D000E07120722070002010BD000008B5006872
:1029E0000B49884212D10B48016841F00201016095
:1029F000006800F002000090002205211D20FFF772
:102A00004DFCBDE808401D20FFF73ABC08BD0000A2
:102A1000000400404038024090F83D10012901D0E8
:102A200001207047022180F83D100168CA6842F019
:102A30000102CA6000681449884214D0B0F1804F86
:102A400011D0124988420ED0114988420BD0114949
:102A5000884208D01049884205D01049884202D0E7
:102A60000F49884209D1816801F00701062908D081
:102A7000016841F00101016003E0016841F00101DA
:102A80000160002070470000000001400004004089
:102A900000080040000C00400004014000400140DC
:102AA0000018004070B50446002594F83C00012849
:102AB00017D0012684F83C60022084F83D0020688D
:102AC000826822F0770222F47F42826008685028F0
:102AD00038D00DDC202853D005DC90B3102811D15C
:102AE0004EE0022070BD30284AD040280AD13DE097
:102AF000602831D070280CD0B0F5805F03D0B0F5DD
:102B0000005F12D001253C346670002020702846FA
:102B100070BDCB68D1E90121206800F011FF206869
:102B2000816841F077018160EDE7CB68D1E901214F
:102B3000206800F005FF2068816841F480418160D1
:102B4000E1E71DE0CA684968206800F00BFF5021EA
:102B5000206800F0FFFED6E7CA684968206800F0E8
:102B600012FF6021206800F0F5FECCE7CA684968D2
:102B7000206800F0F7FE4021206800F0EBFEC2E77D
:102B800022680146104600F0E5FEBCE770472DE9DB
:102B9000F04104462068C56806694FF00007B10798
:102BA00014D5A90712D5F91E0161012020772068EC
:102BB0008069800703D02046FFF7E8FF05E0204644
:102BC00000F081F8204600F07FF82777700717D5CE
:102BD000680715D521686FF004000861022020778E
:102BE0002068806910F4407F03D02046FFF7CEFFB5
:102BF00005E0204600F067F8204600F065F82777EA
:102C0000300716D5280714D521686FF00800086131
:102C1000042020772068C069800703D02046FFF792
:102C2000B5FF05E0204600F04EF8204600F04CF8D5
:102C30002777F00617D5E80615D521686FF0100044
:102C40000861082020772068C06910F4407F03D015
:102C50002046FFF79BFF05E0204600F034F82046B1
:102C600000F032F82777F00708D0E80706D021688F
:102C70006FF001000861204600F028F8300608D502
:102C8000280606D521686FF0800008612046FFF70E
:102C900035FE700608D5680606D521686FF040003D
:102CA0000861204600F01CF8B0060AD5A80608D531
:102CB00021686FF0200008612046BDE8F041FFF771
:102CC0001EBEBDE8F08170477047000000680349F0
:102CD000884201D1FFF74ABA704700000010004057
:102CE0007047704708B590F84110212909D1016853
:102CF000143151E8002F42F0800241E80023002BFC
:102D0000F5D190F84210222923D101680A68496858
:102D10000091016949B101680C3151E8002F42F47A
:102D2000807241E80023002BF5D10168143151E88D
:102D3000002F42F0010241E80023002BF5D1016889
:102D4000143151E8002F42F0400241E80023002BEB
:102D5000F5D1002008BD7047F8B504462268106818
:102D6000D168536900F00F06002E08D1850606D5FC
:102D70008D0604D52046BDE8F84000F0FCBE0025D5
:102D8000002E66D003F0010601F49077374360D03F
:102D9000C20705D0CA0503D5626C42F00102626425
:102DA000420705D5DA0703D0626C42F00202626482
:102DB000820705D5DA0703D0626C42F00402626430
:102DC000020707D501F02002324303D0626C42F0C3
:102DD00008026264626C002A31D0800604D588063D
:102DE00002D5204600F0C7FE20684069C0F380107D
:102DF000616C090700D438B3204600F07AFE2068E1
:102E0000406940061CD52068143050E8001F21F0AE
:102E1000400140E80012002AF5D1E06B60B15F4943
:102E20000165E06BFEF710FF002808D0E06B016D34
:102E300001B0BDE8F04008472046FFF78CFFF8BD21
:102E40002046FFF788FFF8BD2046FFF784FF656442
:102E5000F8BD236B012B7DD1C3067BD5CB0679D57D
:102E600010685068009050694FF0200340064FF002
:102E700002064FD5E26B1068406880B2DF00E8B30D
:102E8000A18D81423BD9E085D069B8422DD0206820
:102E90000C3050E8001F21F4807140E80012002A35
:102EA000F5D12068143050E8001F21F0010140E8FE
:102EB0000012002AF5D12068143050E8001F21F0DC
:102EC000400140E80012002AF5D184F84230256321
:102ED00020680C3050E8001F21F0100140E800127B
:102EE000002AF5D1E06BFEF768FE6663A08DE18DE8
:102EF000401A81B22046FFF7F4FEF8BDFFE7A18D2E
:102F00008142FAD1D069B842F7D166632046FFF713
:102F1000E8FEF2E7A08DE18D401A81B2E08D002835
:102F2000EBD00029E9D020680C3050E8002F22F4C3
:102F3000907240E80027002FF5D12068143050E847
:102F4000002F22F0010240E80027002FF5D184F87D
:102F5000423000E00FE0256320680C3050E8002F7D
:102F600022F0100240E80023002BF5D166632046D2
:102F7000FFF7B7FEC1E7020606D50A0604D52046CC
:102F8000BDE8F84000F038BF4006B6D54806B4D5D5
:102F90002046BDE8F84000F0D3BD0000AB39000882
:102FA00070B50446002C04D094F84100002510B1FF
:102FB00006E0012070BD84F84050204600F024F85F
:102FC000242084F841002068C16821F40051C160C8
:102FD000204600F035FE2068016921F4904101612E
:102FE0002068416921F02A0141612068C16841F4EB
:102FF0000051C1606564202084F8410084F84200DB
:103000006563002070BD00002DE9F04186B00546E3
:10301000142101A8FDF741FA3049286888425AD1A5
:1030200000262F48016841F010010160006800F09F
:10303000100000902A481438016841F00101016035
:10304000006800F0010000904FF4C0600190022081
:10305000029001200390032004900720059001A90D
:103060002048FEF78DFF214C1F4820604FF000687C
:10307000C4F80480A660E660071527616661A66152
:10308000E661266266622046FEF7D8FE08B1FDF7CB
:1030900023FEEC63A5631448144C78306034206040
:1030A000C4F804804020A060E66027616661A661E4
:1030B000E661266266622046FEF7C0FE08B1FDF7B3
:1030C0000BFEAC63A563002205212520FFF7E6F87F
:1030D0002520FFF7D5F806B0BDE8F08100100140CB
:1030E000443802400000024040640240A80C002026
:1030F00090F84230202B01D00220704721B11AB144
:103100000023036300F026BE01207047704770471C
:1031100037B5044694F84100202801D002203EBD76
:10312000019919B312B32162A284E2840020606481
:10313000212384F84130A56B154BEB63A56B154B30
:103140002B64A56B144BEB64A36B186520681346C6
:10315000001DA56B02462846FEF7DAFE40B110209E
:103160006064202084F8410001203EBD01203EBD66
:1031700021686FF0400008602068143050E8001F9C
:1031800041F0800140E80012002AF5D100203EBD48
:10319000A73A0008E93A0008B9390008006803496D
:1031A000884202D102490120087070470010014096
:1031B000000000207047FEE730B50C46054611467A
:1031C000204600F0DFFE94ED010A85ED010A94ED42
:1031D000020A85ED020A94ED030A85ED030A94EDD7
:1031E000050A85ED080A30BD427821F8C02F8278A3
:1031F000C37842EA03224A800279437942EA0322F1
:103200008A808279C07942EA0020C8807047000035
:1032100010B52DED028BF7EE000A9FED188ADFED59
:10322000198A9FED173AB0EE484AF0EE682AF0EEA0
:10323000433AB0EE682AF0EE481AB0EE481A9FED15
:10324000120A124800F038FAF0EE682AF0EE481A36
:10325000B0EE481AF0EE480A9FED0E3A0B489FED8B
:103260000C4AF0EE433ABDEC028B4C38BDE81040FE
:103270009FED092A9FED090A00F01EBA0000000028
:1032800000409C450000C8420000AF43A806002053
:103290000000FA430000FA4400007A443D0AD73E99
:1032A00010B504462DED028BB0EE408AD4ED320A03
:1032B000B0EE480A04F16C0000F078F9D4ED330A5E
:1032C00094ED230A04F1200000F070F994ED320A25
:1032D00030EE480AB0EEC00A10EE100AB0F17C5F82
:1032E00003DA0120BDEC028B10BD0020FAE780ED6F
:1032F000350AD0ED320A30EEC00AB0EEC00A10EE48
:10330000100AB0F17E5F01DA01207047002070479B
:1033100010B510480E490160032141600021816011
:10332000C1604FF4002202614FF440124261017605
:10333000012242768176C27601774177FDF7EAFF76
:10334000002803D0BDE81040FDF7C6BC10BD00004A
:1033500000640040C80B002010B510480E49016001
:103360000321416000218160C1604FF400220261AD
:103370004FF4401242610176012242768176C27694
:1033800001774177FDF7C6FF002803D0BDE8104064
:10339000FDF7A2BC10BD000000680040F00B00204B
:1033A00008B50D48016841F480010160006800F42F
:1033B00080000090002205213A20FEF76FFF3A209E
:1033C000FEF75EFF002205214620FEF767FFBDE8FD
:1033D00008404620FEF754BF3038024010B59CB07C
:1033E0001C22164915A8FDF726F8002115A801F0A2
:1033F000E4FA134CA0601C2210491C310EA8FDF702
:103400001AF800210EA801F0D8FAE0601C220B493E
:10341000383107A8FDF70FF8002107A801F0CDFA11
:1034200020611C22054954316846FDF704F800214B
:10343000684601F0C2FA60611CB010BDC086000889
:103440004C070020F0B587B0142102A8FDF725F83D
:103450002A48016841F004010160016801F004019B
:103460000191016841F080010160016801F0800173
:103470000191016841F001010160016801F0010161
:103480000191016841F008010160016801F0080143
:103490000191016841F002010160006800F0020042
:1034A0000190174F4FF48054002221463846FEF712
:1034B0004FFE144E002264213046FEF749FE02946E
:1034C0000124039404940325059502A93846FEF7C8
:1034D00057FD44200290039402200490059502A910
:1034E0003046FEF74DFD202002900394049405958C
:1034F00002A93046FEF744FD07B0F0BD3038024067
:1035000000080240000C024010B586B0002402946E
:1035100003940494059400940194144812490160A2
:1035200042F2CF014160846042F20F71C1600461D8
:103530008461FFF72DFA08B1FDF7CEFB4FF4805000
:10354000029002A90948FFF7ADFA08B1FDF7C4FBE4
:103550000094019469460548FFF7D2F9002801D08C
:10356000FDF7BAFB06B010BD00040040180C0020A7
:1035700010B50C480A4901604FF4612141600021F7
:103580008160C16001610C2242618161C161FFF70C
:1035900007FD002803D0BDE81040FDF79DBB10BD1E
:1035A00000100140600C0020FEE7FEE780ED000AFD
:1035B000C0ED010AAFF3008010B504462DED048B79
:1035C00094ED020A84ED030A94ED000AD4ED010A99
:1035D00030EE609A84ED029AA06C04F0F5FF41ECA5
:1035E000180B19EE100A04F0EFFF41EC100B00F07D
:1035F000F5FD53EC182B51EC100B04F0BFFC03D875
:103600009FED2C0A84ED020A94ED111A94ED020A42
:10361000F1EE410AFDF74FF984ED020AD4ED040AF8
:1036200030EE800A84ED040A94ED0F1AF1EE410A9F
:10363000FDF741F984ED040A94ED050AD4ED020A80
:1036400094ED0E1A20EE200AF1EE410AFDF733F94F
:1036500084ED090A94ED060AD4ED040A20EE200A4E
:1036600084ED0A0A94ED020AD4ED030A94ED101ACF
:1036700030EE600AD4ED070A20EE200AF1EE410A8E
:10368000FDF719F984ED0B0AD4ED090A94ED0A1A35
:1036900070EE810A30EE800A84ED080A94ED0D1A6E
:1036A000F1EE410AFDF707F984ED080ABDEC048B41
:1036B00010BD00000000000080ED050AC0ED060A04
:1036C00080ED071A80ED112AC0ED121AC0ED0F2A05
:1036D000C0ED0E3A80ED104A80ED0D3A7047017052
:1036E000427080ED010AC0ED020A80ED031AC0EDC0
:1036F000041A80ED052A7047B5EEC00AF1EE10FA03
:1037000001DD012000E00020B5EEC00AF1EE10FA64
:1037100001D2012100E00021401A00EE100AB8EEAB
:10372000C00A704710B5502080F31188BFF34F8F47
:10373000BFF36F8F04F06EFA18B104494FF0805058
:103740000860002080F3118810BD000004ED00E047
:1037500030B593B0302107A8FCF79FFE142102A8D2
:10376000FCF79BFE00251D48016841F08051016077
:10377000006800F0805001901948016841F48041D0
:103780000160006800F4804001900120079000046F
:10379000089002240D9480010E9004200F90A8211F
:1037A00010911194129007A8FEF7C8FE08B1FDF71A
:1037B00093FA0F200290039404954FF4A0500590C3
:1037C0004FF480500690052102A8FEF799FD0028CD
:1037D00001D0FDF781FA13B030BD0000403802403F
:1037E000007000400248016841F4700101607047B8
:1037F00088ED00E01848816A416600218162026814
:10380000C2630160826842648160C2688264C16090
:103810004268026441600269C264016142690265F2
:103820004161826942658161C2698265C161026AE2
:10383000C2650162426A02664162C26A8266C16210
:10384000026BC2660163426B02674163826B42672F
:1038500081630248FFF79BB970080020180C002014
:103860000148FFF794B90000680D00202DE9F041F0
:103870000268284D284E294FDFF8A4C0294B4FF08D
:103880008048A84209D0404507D0B04205D0B84290
:1038900003D0604501D0984203D122F070044A68F9
:1038A0002243A8421BD0404519D0B04217D0B8429D
:1038B00015D0604513D0984211D01B4CA0420ED0B9
:1038C0001A4CA0420BD01A4CA04208D0194CA0426E
:1038D00005D0194CA04202D0184CA04203D122F4CA
:1038E0004074CA6822434C6922F0800222438C68EB
:1038F000C4620C688462A84201D0984201D109696F
:103900000163016841F0040101600121416102602D
:10391000BDE8F081000001400004004000080040C4
:10392000000C004000040140004001400044014000
:103930000048014000180040001C004000200040EA
:1039400010B5846824F47F4442EA03220A432243E8
:10395000826010BD826822F070020A4342F00701C3
:103960008160704710B5036A046A24F001040462A0
:10397000846924F0F00444EA021423F00A020A43A2
:103980008461026210BD10B5036A046A24F0100459
:103990000462846924F4704444EA023223F0A003F0
:1039A00043EA01118261016210BD10B5806B0021F4
:1039B000C185FFF7D0F910BD70B5846B20684069F0
:1039C000C0F3C01094F841100025212904D118B18A
:1039D000E584204600F0C1F820684069C0F38010FB
:1039E00094F84210222904D118B1E585204600F050
:1039F00080F8606C40F0100060642046FFF7ABF97F
:103A000070BD10B50146886B096809684FF0000366
:103A1000C9052ED4C38501680C3151E8002F22F46A
:103A2000807241E80024002CF5D10168143151E87E
:103A3000002F22F0010241E80024002CF5D101689A
:103A4000143151E8002F22F0400241E80024002CFC
:103A5000F5D1202180F84210016B012909D10168BC
:103A60000C3151E8002F22F0100241E80024002C14
:103A7000F5D14363016B012902D0FFF747FB10BD6D
:103A8000818DFFF72EF910BD10B5806B01214163C8
:103A9000016B012902D0FFF73AFB10BD818D490867
:103AA000FFF71FF910BD10B50146886B096809685A
:103AB000C90516D40021C1840168143151E8002FD2
:103AC00022F0800241E80023002BF5D101680C317F
:103AD00051E8002F42F0400241E80023002BF5D1CD
:103AE00010BDFFF75BFB10BD10B5806BFFF762FBED
:103AF00010BD01680C3151E8002F22F4907241E8AA
:103B00000023002BF5D10168143151E8002F22F079
:103B1000010241E80023002BF5D1016B012909D1F5
:103B200001680C3151E8002F22F0100241E8002317
:103B3000002BF5D1202180F842100021016370474D
:103B400010B50168CA6822F04002CA60202180F8DE
:103B50004110FFF723FB002010BD01680C3151E834
:103B6000002F22F0C00241E80023002BF5D12021D4
:103B700080F84110704708B590F84210222901D012
:103B8000022008BD82684FF480539A4201D1016936
:103B900021B1816A9A421DD052B10BE0816A02685C
:103BA0005268C2F308020A80816A891C816209E0B6
:103BB00002697AB10268526802F07F020A70816A73
:103BC000491C8162C18D491E0904090CC18505D0BB
:103BD000002008BD026852680A70F0E70168CA68F0
:103BE00022F02002CA600168CA6822F48072CA60AA
:103BF00001684A6922F001024A61202180F84210DE
:103C000000214163026B012A03D0FFF77FFA0020F5
:103C100008BD016301680C3151E8002F22F0100249
:103C200041E80023002BF5D101680A68D20602D5CD
:103C30000A6849680091818DFFF753F8E7E70000B3
:103C40002DE9F041044620680169E26821F4405101
:103C500011430161A1682069E26901436069104371
:103C600001432068C26849F20C639A430A43C26068
:103C700020684169A26921F44071114341613349CF
:103C80002068884202D03249884202D1FEF712FCF5
:103C900001E0FEF7FFFBE1690023192764253226C6
:103CA000B1F5004F28D061688B0F8A00A0FB070197
:103CB000FCF74AFB0146B0FBF5F07A42504301EBBA
:103CC000800006EB0010B0FBF5F000F0F002B1FB55
:103CD000F5F002EB0012B1FBF5F07B42584301EB2B
:103CE000800006EB0010B0FBF5F0216800F00F003B
:103CF00010448860BDE8F08161684A18A0FB0701A4
:103D00005B41FCF721FB0146B0FBF5F00201B1FB82
:103D1000F5F06FF01803584301EB800006EBC0008C
:103D2000B0FBF5F000F0F80002EB4002B1FBF5F05B
:103D3000584301EB800006EBC000B0FBF5F02168B2
:103D400000F0070010448860D4E700000010014034
:103D50000014014037B582B004461346039AA262AC
:103D6000A38500206064222184F84210E56B1F497E
:103D7000E963E56B1E492964E56B1E49E964E16B63
:103D800008652168E06B091DFEF7C2F838B1102004
:103D90006064202084F84200012005B030BD206816
:103DA000016840680190206948B120680C3050E8F3
:103DB000001F41F4807140E80012002AF5D120680C
:103DC000143050E8001F41F0010140E80012002AC1
:103DD000F5D12068143050E8001F41F0400140E860
:103DE0000012002AF5D10020D7E70000033A0008AE
:103DF000893A0008B939000890F84110212901D00A
:103E0000022070478168B1F5805F01D1016961B11D
:103E1000016A4A1C0262026809785160C18C491E1D
:103E20000904090CC1840AD013E0016A02680988F8
:103E3000C1F308015160016A891C0162EEE7016863
:103E4000CA6822F08002CA600068C16841F040017F
:103E5000C160002070470000F8B539490868026861
:103E6000D243D20665D40026026840680090C86B31
:103E70000068026822F00102026008684168006878
:103E8000304D287888284CD1287C662849D169781B
:103E90002D4801B10670A978012301B10370E978BA
:103EA0000322022441B129490978142946D0032963
:103EB00044D01E2942D00470297901B102706F7973
:103EC000042107B10170AF79214807B1037095F85B
:103ED00007C0204FBCF1000F01D004703B702B7A5B
:103EE0000BB104703E706B7A0BB108230370AB7A90
:103EF00003B10270EA7A0AB1072202702A7B02B18A
:103F00000170697B09B106210170A97B09B1052106
:103F10000170E97B09B10B2101700F48416A491C0E
:103F20004162112207490648FFF7E2F80448FEF70C
:103F3000D9FEBDE8F8400248FEF70EBF0270BBE7AD
:103F4000600C0020E80800201C0700201F0700204C
:103F50001D0700201E0700207008002070EEC00A18
:103F600001EE100A01208840B8EEC11A401E21EE71
:103F7000201A00EE900AF8EEE01AC1EE210A30EEA7
:103F8000800A704770B585B002468B790879CC7984
:103F90004D791B0440EA046043EA05231843CB78BB
:103FA0001D0A28438D781B0643EA054340EA154065
:103FB0004D78097843EA052340EA15600B43C3F3C3
:103FC00013050095190D41EA0031C1F31301019168
:103FD000C0F30F210291C0F30060039060080490C9
:103FE0009FED1E2ADFED1E2A1421F0EE420AB0EEEC
:103FF000620A2846FFF7B2FF82ED010A1421F0EEB3
:10400000420AB0EE620A0198FFF7A8FF82ED020AA9
:104010001021F0EE420AB0EE620A0298FFF79EFF0E
:1040200082ED030A039800B101201074DFED0D0A40
:10403000012809D00721BBEE040A0498FFF78EFF80
:1040400082ED050A05B070BD0721BBEE040A049895
:10405000FFF784FF82ED050AF4E70000000020422C
:10406000000020C200004843FEE70907090E0028AF
:1040700004DB00F1E02080F80014704700F00F002E
:1040800000F1E02080F8141D7047000010EE101AB7
:1040900008B5444A6846B2EB410F28D94FF0E640D4
:1040A000B0EB410F94BF00204FF0FF30009000981C
:1040B000002861DB60EE000A10F0010F45D010F01F
:1040C000020FDFED391A9FED391A00EEE11ADFED2C
:1040D000381A40EE811A21EEA01AF0EE400A40EEA6
:1040E000010A08BFF1EE600AB0EE600A08BD314B6C
:1040F00021F0004293423CD911F0004FDFED2E0A2F
:1041000020EE201ADFED2D0A19BF31EE601A71EE94
:10411000200A31EE201A71EE600ABDEEE01A11EEAF
:10412000100A9FED271A00F0030000EEC10A9FED70
:10413000251A009000EEC10A9FED231A00EEC10A75
:104140009FED221A00EEC10AB1E79FED211A9FED03
:10415000210A10F0020F00EE810A9FED1F1A00EEF7
:10416000801AB7EE000A00EE810A18BFB1EE400ACD
:1041700008BD00F085F89AE710EE100A4000B0F193
:104180007F4F3CBFB7EE000A08BD07D14FF00100DA
:10419000FCF7B2F9BDE8084000F06AB8BDE8084095
:1041A00000F063B8B61F927E336D4C39DA82083C5A
:1041B000A0AA2ABE490E494683F9223F0000004BBF
:1041C0000000C93F00A0FD390020A2331A61342C41
:1041D000B93AB2BACA9F2A3DDDFFFFBE2DED020BF0
:1041E000019820F0004001909DED000B02B0704757
:1041F00000B52DED048BB0EE409AF0EE609A83B0DE
:1042000051EC190B04F02AF841EC180B18EE100AC7
:1042100018EE901A8DED008B002818BF012008437E
:1042200020F00040C0F17F6000F1E040C00F14D0EA
:1042300019EE101A19EE900A8DED009B002918BF97
:104240000121084320F00040C0F17F6000F1E04010
:10425000C00F04BF0120FCF74FF9B0EE480A03B0CD
:10426000F0EE680ABDEC048B00BD30EE000A70472A
:10427000DFED020A80EEA00A704700000000000097
:104280002DE9F0014FF07F42B2EB410F9FBF4FF09D
:10429000FF310160BDE8F00170474FF0004242EA93
:1042A0000123C1F3C752783A551112F01F0C434C49
:1042B000CCF120067C44C1F3C752A2F178024FEA48
:1042C000621204EB820254F8254008BFD2E901567D
:1042D00012D0556804FA0CF425FA06F73C439768A7
:1042E00005FA0CF527FA06F8D26807FA0CFCF2403A
:1042F00045EA08054CEA0206A4FB034CA5FB035261
:10430000A6FB03631D449D4234BF012600261319FA
:10431000334416B1934202D903E0934201D2012201
:1043200000E00022624402F1200C9206DC0C42EA1A
:10433000443200EE102A5B03DFED210AF8EEC01ACA
:1043400000EE103A4FEA9C1C11F0004FB8EE400A04
:10435000C0F800C020EE201A00EE105ADFED190A56
:10436000B8EE400A20EE200A71EE810A70EE800A53
:1043700010EE902A02F500626FF30B0200EE902A15
:1043800070EEE11A31EEC11ADFED101A30EE411A6B
:104390009FED0D0A20EE800A01EE210A9FED0C1A16
:1043A00000EE810A04BFBDE8F0017047CCF18051F6
:1043B0000160BDE8F001B1EE400A7047984400008A
:1043C000000000360000802C22AAFD29DB0FC92F37
:1043D0000000C92F024600200021535C8B40184486
:1043E000C0B2491CC9B20629F7D370472DED028B24
:1043F000FCF772FAFEF70CFF364801254571364E80
:104400000021B07800F0C2FC0121F07800F0BEFC81
:10441000DFF8C890324FB0EE008ADFF8C880DFF8CE
:10442000C8A0324CDFF8C8B000F07EF999F800005F
:1044300000F024F997ED020AD7ED000A386900EE82
:10444000880AFCF76BFB97ED020AD7ED000A786942
:1044500010EE880AFCF762FB98ED020AD8ED000A1C
:10446000D8F8100000EE880AFCF758FB98ED020A15
:10447000D8ED000AD8F8140010EE880AFCF74EFBBD
:104480009AED3C0A1848FCF749FB1A4890ED350AAA
:10449000FEF706FF0F48FFF79DFF174908703078B9
:1044A000012802D1A06D00B97570DBF800008069A9
:1044B000B061002131717171C0F30211B171C0F3AB
:1044C0008000F071606B401C6063012003F070F9A4
:1044D000AAE70000010000204C0700203907002057
:1044E000B4050020CC050020A004002070080020A6
:1044F000F00B00203C0600200700002010B5084803
:10450000FCF75AF80648FDF714FB02210448FCF7B3
:104510006DFCBDE8104001210148FCF767BC0000BC
:10452000C80B002010B50848FCF76CF80648FDF7EA
:1045300000FB02210448FCF759FCBDE810400121B2
:104540000148FCF753BC0000F00B002091F83C2020
:10455000012A0AD0022A0CD0032A0FD0042A12D131
:1045600009884FF4407200F05BB80988002200F01F
:1045700057B809884FF4807200F052B809884FF498
:10458000007200F04DB8704710B502460B4618781F
:1045900000F00F0050601878000990609878597802
:1045A00040EA0120D060D9781C79090141EA141150
:1045B00011611C79597904F00F0441EA0421516119
:1045C0001021F2EE090ABAEE090A03F013F882ED9F
:1045D000080A0C21DFED100A9FED100A106903F0A4
:1045E00009F882ED090A0C21F2EE080ABAEE080A6F
:1045F000506902F0FFFF82ED0A0A987900EE100A76
:10460000B8EE400A82ED0D0AD87900EE100AB8EE35
:10461000400A82ED0E0A10BD00003442000034C290
:104620001CB5114489B2FF228DF800208DF80120BD
:104630008DF802208DF803208DF804208DF80520D8
:104640008DF80620FC228DF8072008236A46FCF727
:1046500061F81CBD31EE601A0121814070EE600AE4
:10466000491E00EE101AB8EEC00A20EE800AC0EE15
:10467000010ABDEEE00A10EE100A70472DE9F04184
:104680002449254C254D264E264F91ED010A002840
:1046900021D001281DD1D4ED050A30EE200A84ED89
:1046A000040AFFF7F3FCD4ED080A20EE200A85ED9A
:1046B000000A96ED010AD4ED070A30EE200A84EDD7
:1046C000060AFFF7E3FCD4ED080A20EE200A87ED86
:1046D000000ABDE8F081D4ED000A30EE200A84ED36
:1046E000040AFFF7D3FCD4ED020A20EE200A85ED80
:1046F000000A96ED010AD4ED010A30EE200A84ED9D
:10470000060AFFF7C3FCD4ED030A20EE200A87ED6A
:10471000000ADEE708000020D00700203C07002048
:104720002C000020400700202DE9F041384A394C88
:104730009FED391AD2ED320A94ED000A3749334819
:1047400000EE810AD1ED080A94ED011A0078344D8B
:1047500070EE810A334F344E00282CD0012828D126
:1047600084ED080A30EE800A84ED090AFFF78EFC1A
:10477000D4ED020A20EE200A85ED000A94ED080A25
:10478000FFF784FCD7ED390A94ED061A70EE810A22
:1047900094ED051A60EE810A95ED001A20EE200ACC
:1047A000D4ED070A00EE810ABDEEC00A10EE100A31
:1047B0003080BDE8F08184ED080A30EEC00A84ED57
:1047C000090AFFF763FCD4ED0A0A20EE200A85ED02
:1047D000000A94ED080AFFF759FCD7ED390A94ED69
:1047E000041A70EE810A94ED031A60EE810A95EDC9
:1047F000001A20EE200AD4ED070A00EE810ABDEE71
:10480000C00A10EE100A3080D3E700003A070020FB
:104810003C060020A407002035FA8E3CE405002069
:1048200044070020A004002048070020FDF7A6FC54
:10483000FEF78EFFFEF706FEFEF7B2FDFEF768FDFF
:10484000FEF78AFDFEF794FEFEF75EFEFFF756FECA
:10485000FFF768FE1248FEF7DFF812480068C168EB
:1048600041F01001C16011220F490E48FEF740FCD3
:104870000E490F48FCF708FA0E490F48FCF704FAF6
:1048800040F241110D48FBF7E5FE0D490D48FFF7D9
:104890005DFEFCF721F8FEF7A1FD00F089F8FEE7C8
:1048A000180C0020600C0020E80800200C090020F3
:1048B00008000020240900202C000020C80B002044
:1048C000E4050020F00B002001460020842900D0E0
:1048D000C81C70472DE9FC4180461746B0EE603A8F
:1048E000F0EE412A1020B2EE091AFAEE090AFFF79B
:1048F000B1FE03460C209FED241ADFED240AB0EE32
:10490000430AFFF7A7FE04460C20B2EE081AFAEE9F
:10491000080AB0EE420AFFF79DFE06469FED1D2AEB
:104920000C209FED1B1AF0EE420AB0EE620AFFF770
:1049300091FE05460C20B1EE041AF0EE420AB0EEEC
:10494000610AFFF787FE190A8DF800108DF8013013
:1049500021098DF80210210141EA15218DF803107B
:104960008DF8045001098DF80510010141EA162067
:104970008DF806008DF8076008236A4639464046E0
:10498000FBF7C8FEBDE8FC8100003442000034C2E1
:104990000000FA4300000000044C00F0C7FBA06BCD
:1049A000401CA063012002F003FFF6E7700800201E
:1049B00010B502F025FF002010BD7FB504460D465E
:1049C0006169B4F90800002910D0A16971B1FFF73D
:1049D0007BFFD4E90521CDE901210090D4E9001045
:1049E0002B46226903F0E8F8039010E0FFF76CFF14
:1049F00003A9CDE90001208A2B4682B2D4E9001038
:104A000003F0A8F8012802D0002004B070BD03987C
:104A1000FBE700002DE9F04104460F46174EF5680C
:104A20003068001D02F0FAFD38B9306890F82C109B
:104A300001208840316981433161601C07D137B161
:104A40003168BDE8F041091D0D4802F02BBE2C4431
:104A500030684460AC4206D23168B06B091DBDE8D5
:104A6000F04102F007BE3168706B091D02F002FED2
:104A7000B06A844200D2B462BDE8F081F40700203D
:104A8000A40E002070B5044602F018FE1C4DA86864
:104A9000401CA860286810B1686938B10CE02C602F
:104AA000A868012808D100F0F3F805E02868E16A59
:104AB000C06A884200D82C60686A401C6862E06A5C
:104AC00001212A698140114329610E4900EB8000D0
:104AD00001EB8000211D02F0E5FD02F00FFE686988
:104AE00000280CD02868E16AC06A884207D20649CB
:104AF0004FF080500860BFF34F8FBFF36F8F70BDD2
:104B0000F4070020C80D002004ED00E070B50C4D46
:104B10000C4E11E002F0D2FDF068C468201D02F0D6
:104B20007DFDA868401EA8606868401E686002F0AD
:104B3000E5FD204600F008F868680028EAD170BD5D
:104B4000F4070020900E002010B5044694F85100A0
:104B500000280BD0012811D0022814D0502080F357
:104B60001188BFF34F8FBFF36F8FFEE7206B02F00A
:104B7000DBFD2046BDE8104002F0D6BD2046BDE872
:104B8000104002F0D1BD10BD4FF470510F484207E4
:104B900006D0C01D20F007000C49411AC1F5705124
:104BA0000B4A1060002353600144083921F00701CB
:104BB000183A11604B600B600B1A4360016040684B
:104BC000906050604FF0004050617047B80E002078
:104BD00048080020074E4FF08054074DFFF796FF1E
:104BE00030680128FAD92C60BFF34F8FBFF36F8F65
:104BF000F4E70000C80D002004ED00E02DE9F047C7
:104C00008246DDE908580A9C9946521E206B00EB4B
:104C1000820020F00706700707D0502080F311882B
:104C2000BFF34F8FBFF36F8FFEE7002761B1002006
:104C300023180A5C83F834200A5C12B1401C102847
:104C4000F6D384F8437001E084F83470072D00D364
:104C50000625E5626564A764201D02F008FD04F1E5
:104C6000180002F004FD2461C5F10700A061646230
:104C7000E76484F850704A465146304600F024F903
:104C80002060B8F1000F01D0C8F80040BDE8F087FF
:104C900070B50024124D04EB840005EB800002F097
:104CA000DBFC641C072CF6D30D488C3002F0D4FCDE
:104CB0000B48A03002F0D0FC0948B43002F0CCFC24
:104CC0000748C83002F0C8FC0548DC3002F0C4FCDC
:104CD000034904488C3141631431816370BD000085
:104CE000C80D0020F407002030B5134900E011463C
:104CF0000A688242FBD34B685C18844203D1406847
:104D00001844486008460D6844682318AB420DD12A
:104D1000094B183B1B689A4206D0526822444260F5
:104D20000A681268026002E0036000E002608142EB
:104D300000D0086030BD0000480800200748416BE3
:104D40000968002905D0416BC968C9684968816252
:104D500070474FF0FF31816270470000F407002078
:104D600009484068401C07D0502080F31188BFF3E9
:104D70004F8FBFF36F8FFEE7502080F31188BFF392
:104D80004F8FBFF36F8FFEE75008002000290BD034
:104D9000144B4FF4805100B301281AD0022820D1BF
:104DA00001221846FDF7D4B90F4B68B1012806D08F
:104DB000022816D1002220211846FDF7C9B9012288
:104DC00020211846FDF7C4B9002220211846FDF71E
:104DD000BFB901221846FDF7BBB900221846FDF7FE
:104DE000B7B9704700080240000C02402DE9F041BD
:104DF0000546002602F048FD324F386808B9FFF733
:104E0000C3FE786905424DD18DB1083568070ED0D3
:104E100005F00700C0F108000544680707D05020DE
:104E200080F31188BFF34F8FBFF36F8FFEE7CDB3D1
:104E30007868854236D8234918310846046801E06D
:104E4000214604466068A84202D220680028F7D1B3
:104E50003868844226D00E6808362068086060688A
:104E6000411B10290ED96019420707D0502080F34A
:104E70001188BFF34F8FBFF36F8FFEE7416065600E
:104E8000FFF732FF61687868401A7860BA6890422C
:104E900000D2B86078690143616000202060F86842
:104EA000401CF86002F01EFF700707D0502080F30E
:104EB0001188BFF34F8FBFF36F8FFEE73046BDE819
:104EC000F08100003008002024384FF08073036226
:104ED00021F00101C1610449816142606FF002016A
:104EE00040F8201970470000614D000801EE100ADB
:104EF00070EEC01AB8EE411A61EE811A01EE101A76
:104F0000B8EE412A81EE821A31EE001A002803D051
:104F1000884202D8B0EE410A7047B0EE600A70478E
:104F20001CB50024684DB1EE000A85ED050ADFEDE1
:104F3000670AC5ED040AF5EE000AC5ED010A012075
:104F40002870DFED630AC5ED030A624E86ED050A9F
:104F50009FED610A86ED040A9FED600A86ED010A65
:104F600002203070C6ED030ADFF874B14FF000097B
:104F7000ABF800909FED5B0ADFF86CA18AED350A73
:104F8000DFF86881B3EE0E0A88ED140A9FED580A27
:104F900088ED150A9FED570A88ED100A0427564838
:104FA00095ED052AD5ED041A01785448D5ED020A8D
:104FB00095ED010A90ED001A04224348FEF78FFB9D
:104FC0004F4896ED052AD6ED041A01784D48D6EDE6
:104FD000020A96ED010A90ED001A04223D48FEF700
:104FE0007EFB6F703848FBF765FB77703948FBF73D
:104FF00061FBBBF90000DAED100A00EE100A40F286
:105000004111B8EEC00A30EE800ABDEEC00A10EEC3
:10501000100A02B23C48FBF72EFB641CE4B2022CDF
:1050200049D13A483A4990ED100ABDEEC00A10EE57
:10503000100A91ED100A00B2BDEEC00A10EE101A6F
:1050400009B2CDE900103348210290ED100ABDEEFF
:10505000C00A10EE100A03B22F4890ED100ABDEE00
:10506000C00A10EE100A02B22C48FBF737FB2C489E
:10507000CDF80090CDF8049090ED100A002340F296
:10508000FF11BDEEC00A10EE100A02B22348FBF772
:1050900025FB2448D8ED151A98ED141A90ED002A36
:1050A000D8ED110A98ED100AB8F800200F491B48F6
:1050B000FFF710FC00241C48016B491C0163012010
:1050C00002F076FB6BE700000C0900200000C442F0
:1050D00000000000240900200000AC42CDCC4CBEF2
:1050E000480700200000ECC23C060020E405002038
:1050F0009A99993F8FC22540080000203C07002064
:105100002C00002040070020C80B00208C0300204A
:10511000780200206401002050000020F00B0020E5
:10512000A004002044070020700800202DE9F04F63
:105130002DED108B81B0FB48DFF8E893DFF8ECB37E
:1051400090F800C0A9F10809F748D9F80C200178B7
:10515000501CA2F2DC539FEDF69A0093F14BDFF85E
:10516000D4A3DFF8D4835B780127F44E002409F13F
:105170001005BCF1050F0CD2DFE80CF003FAF9F8CA
:10518000F700012B06D0012937D004297ED0E5484D
:10519000477042E1012925D0042928D009208AF846
:1051A000000034707470B47001210020FFF7EEFD30
:1051B000F7703771E248F0EE490AB0EE490A02F0A2
:1051C00011FCE048F0EE490AB0EE490A02F00AFC90
:1051D0009FEDDD0ADD4880ED010A9FEDDD0A8BEDD4
:1051E000010A1AE1CF4844708AF8007015E1CD48F1
:1051F000447004208AF800000FE1C9F80C003770F1
:105200007770B47001210020FFF7C0FDF77037718F
:10521000D9F80C004FF4C871A0F59670DFEDCD0AF7
:10522000B0EE490AFFF762FED9F80C00B0EE408AF2
:105230004FF4C871A0F59670DFEDC70AB0EE490AC9
:10524000FFF754FEBE48F0EE480A02F0CBFB287090
:10525000D9F80C004FF4C871A0F59670DFEDBF0AC5
:10526000B0EE490AFFF742FED9F80C00B0EE408AD2
:105270004FF4C871A0F59670DFEDB90AB0EE490A97
:10528000FFF734FEAF48F0EE480A00E029E002F0F4
:10529000A9FB68704FF47A71DFEDB20A9FEDAA0A9C
:1052A000D9F80C00FFF722FEA84880ED010A4FF460
:1052B0007A71DFEDAD0A9FEDA60AD9F80C00FFF771
:1052C00015FE8BED010AD9F80C00B0F57A7F88D372
:1052D0009448077047700A208AF80000C9F80C400B
:1052E0009BE0C9F80C0034707470B4700121002088
:1052F000FFF74CFDF77037714FF4FA71DFED9B0A41
:10530000B0EE490AD9F80C00FFF7F0FDB0EE408A84
:105310004FF4FA71DFED960AB0EE490AD9F80C00A5
:10532000FFF7E4FD8648F0EE480A02F05BFB4FF41D
:10533000FA71DFED900AB0EE490AD9F80C00FFF7D8
:10534000D5FDB0EE408A4FF4FA71DFED8B0AB0EE76
:10535000490AD9F80C00FFF7C9FD7A48F0EE480A6F
:1053600002F040FB4FF4FA7103E0FBE3FBE330E2B1
:1053700054E09FED828AF0EE480A9FED730AD9F857
:105380000C00FFF7B3FD714880ED010A4FF4FA718C
:10539000DFED7B9AF0EE690A9FED6D0AD9F80C00FB
:1053A000FFF7A4FD8BED010AD9F80C0040F226218D
:1053B000884295D9734890ED010A30EE480A10EE04
:1053C000100A03F001F941EC100BFEF707FF9FED07
:1053D0006E8B51EC100B53EC182B02F0CFFD1CD24E
:1053E0006B4890ED010A30EE690A10EE100A03F0E6
:1053F000EBF841EC100BFEF7F1FE53EC182B51ECDF
:10540000100B02F0BBFDEAD2464803210170477041
:1054100028208AF80000C9F80C400DE2012B06D0C4
:10542000022937D003297CD03E48477004E2022984
:1054300024D0032928D037707770B4700121002060
:10544000FFF7A4FCF77037713D48DFED420A9FED8E
:10545000420A02F0C7FA28703A48DFED400A9FED91
:10546000400A02F0BFFA687038489FED3E0A80EDAE
:10547000010A9FED3D0A8BED010ADDE102208AF869
:10548000000028484470D7E103208AF8000025482E
:105490004470D1E140F2DC50824233D237707770F1
:1054A000B47001210020FFF771FCD9F80C00B0F5B1
:1054B000FA7F01D2F77000E0F47037712048DFED19
:1054C000250A9FED250A02F08DFA28701D48DFEDB0
:1054D000230A9FED230A02F085FA68701B489FEDAE
:1054E000210A80ED010A9FED200A8BED010A9FED54
:1054F000290A2948FDF7FBFED9F80C00401CC9F821
:105500000C0099E100984FF4FA7BDFED240A58452E
:105510004CD2F4700A489FED100A02F063FA28702A
:105520003EE0A2E0640800201C07002024090020BF
:10553000000000001F0700202007002001000020BD
:10554000B4050020CC050020CDCC4C3E0C09002039
:10555000CDCC4CBE0000A0C20000B4420000A2426C
:105560000000B4C2B81EC53F52B8BEBF00007CC226
:10557000000034C3000070420000344368918D3F46
:105580004A0C82BF08000020000000E051B8AE3F86
:105590002C000020000096C23C060020000004C23F
:1055A000D9F80C00401CC9F80C0045E1B2F5FA6FBF
:1055B000A7D3F47040F69800824200D9347040F6C8
:1055C000FC00824208D9FE485FED0E0A1FED1C0A5E
:1055D00002F008FA687004E0F9481FED210A02F0B1
:1055E00001FAD9F80C0040F2EE21A0F5FA609FED27
:1055F000F58A1FED240AF0EE480AFFF777FCF2481F
:1056000080ED010AD9F80C005946A0F5FA60DFEDEB
:10561000EF0A1FED200AFFF769FCED48FDF767FE72
:10562000D9F80C00401CC9F80C0040F6B83188428B
:10563000BBD3E84890ED010A30EE480A10EE100A9C
:1056400002F0C2FF41EC100BFEF7C8FD1FED321B4C
:1056500051EC100B53EC112B02F090FCA5D2C9F8C1
:105660000C40DD4802210170EBE340F2DC50824245
:1056700033D234707770B47001210020FFF786FBBD
:10568000F770D9F80C00B0F5FA7F01D2377100E05D
:105690003471CB485FED4B0A1FED4B0A02F0A2F9C3
:1056A0002870CE485FED530A1FED530A02F09AF9B5
:1056B00068709FEDC40AC44880ED010A1FED560AC8
:1056C0008BED010A9FEDC10AC148FDF710FED9F824
:1056D0000C00401CC9F80C00B3E30098B0F5FA7F49
:1056E0000ED23471BD48F3EE0B0A1FED630A02F0CF
:1056F00079F96870D9F80C00401CC9F80C00A0E3D7
:10570000B2F5FA6FB0D33471347040F6980082422B
:1057100000D9747040F6C410824208D9AF48DFED5A
:10572000B00A1FED730A02F05DF9687006E0AB483D
:10573000F3EE0B0A1FED760A02F054F9D9F80C00CB
:105740004FF41671A0F5FA60DFEDA69AF0EE690A43
:105750001FED7B0AFFF7CAFB8BED010AD9F80C009D
:10576000401CC9F80C0040F6B8318842B4D39948BF
:1057700090ED010ADFED930A30EE600A10EE100A98
:1057800002F022FF41EC100BFEF728FD1FED828B8B
:1057900051EC100B53EC182B02F0F0FB9CD292480A
:1057A00090ED010A30EE690A10EE100A02F00CFFCB
:1057B00041EC100BFEF712FD53EC182B51EC100BC3
:1057C00002F0DCFB88D2C9F80C408348022101704A
:1057D00037E3012B09D081B302296ED003296DD0A4
:1057E00004296CD07C4847702BE339B302292BD0B5
:1057F000032951D004295AD034707470B470012137
:105800000020FFF7C3FAF47034716D48F0EE490AD6
:10581000B0EE490A02F0E6F87048F0EE490AB0EE40
:10582000490A02F0DFF81FEDB80A674880ED010A67
:105830001FEDB90A8BED010A03E341E0FFE78AF8A7
:10584000004065484470FCE234707770B470012108
:105850000020FFF79BFAF770377159485FEDBD0ADA
:105860001FEDBD0A02F0BEF828705C485FEDC50A66
:105870001FEDC50A02F0B6F868709FED520A524853
:1058800080ED010A1FEDC80A8BED010A9FED4F0A5A
:105890004F48FDF72CFDD4E203208AF800004E4863
:1058A00007709FED4A0A4A48FDF721FDC9E204202E
:1058B0008AF8000048484470C3E271E0F0E0C7E1B4
:1058C000C9F80C0037707770B47001210020FFF721
:1058D0005DFAF77037713A48F0EE490AB0EE490ABE
:1058E00002F080F828703D48F0EE490AB0EE490A0F
:1058F00002F078F8687064211FEDED8A9FED310A9F
:10590000D9F80C00F0EE480AFFF7F0FA2E4880EDC7
:10591000010A4FF4FA715FEDF29AF0EE690A1FED99
:10592000EE0AD9F80C00FFF7E1FA8BED010A2878AE
:10593000002888D06878002885D0264890ED010A94
:1059400030EE480A10EE100A02F03EFE41EC100B59
:10595000FEF744FC1FEDF48B51EC100B53EC182BAD
:1059600002F00CFB97D2204890ED010A30EE690A54
:1059700010EE100A02F028FE41EC100BFEF72EFC90
:1059800053EC182B51EC100B02F0F8FA8ED212489F
:1059900004704770C9F80C4009208AF8000050E2F2
:1059A00041F288318A4246D234707770B470012156
:1059B0000020FFF7EBF9F4703771014816E00000A2
:1059C000B40500204E62103E0C090020000007C301
:1059D0003C0600200800002064080020CC050020C0
:1059E00000008C420AD723BD2C000020DFEDFE0A08
:1059F0009FEDFE8AB0EE480A01F0F4FF2870FC48E3
:105A0000DFEDFC0AB0EE480A01F0ECFF6870FA48DE
:105A10001FED140A80ED010A9FEDF80A8BED010AD3
:105A20001FED160AF648FDF762FCD9F80C00401C81
:105A3000C9F80C0005E2A2F598518839B1F5FA7F52
:105A400003D2F770C9F80C00FBE1A2F5A8507C382E
:105A5000B0F5487F18D241F24460824207D9E94844
:105A6000DFEDE90A9FEDE90A01F0BCFF06E0E54839
:105A7000DFEDDD0A9FEDDD0A01F0B4FFD9F80C007F
:105A8000401CC9F80C00DCE141F69C00824286D340
:105A9000C9F80C40DE48477014208AF80000D0E1B5
:105AA000B2F57A7F2CD234707470B470012100206A
:105AB000FFF76CF9F7703471D248DFEDD30A9FED30
:105AC000D30A01F08FFF2870C9485FED3B0A9FEDB4
:105AD000D10A01F087FF68701FED460AC64880EDC5
