:020000040800F2
:1000000040670020290300083F5C0008875400086F
:100010002D5C00084107000845A900080000000009
:10002000000000000000000000000000690200085D
:100030001D27000800000000C50200081DA10008DF
:100040004303000843030008430300084303000878
:100050004303000843030008430300084303000868
:10006000430300084303000843030008E1110008AC
:1000700043030008ED11000843030008F9110008CC
:10008000051200081112000843030008430300088A
:1000900085070008430300084303000843030008E2
:1000A0004303000843030008430300084303000818
:1000B00043030008DDA10008E9A10008430300088C
:1000C00043030008430300084303000843030008F8
:1000D000430300085DA8000805A9000843030008C1
:1000E00043030008430300084303000843030008D8
:1000F0004303000843030008430300081D120008DF
:1001000043030008430300084303000843030008B7
:1001100035A3000841A30008430300084303000877
:1001200043030008291200083512000843030008A1
:100130004303000843030008430300084303000887
:10014000D5070008430300084303000843030008E1
:1001500043030008411200084D12000811A90008CD
:100160004303000843030008430300084303000857
:100170004303000843030008430300080000000095
:10018000430300084303000800F002F800F05CF8A5
:100190000AA090E8000C82448344AAF10107DA45E2
:1001A00001D100F051F8AFF2090EBAE80F0013F0D8
:1001B000010F18BFFB1A43F001031847140A01008E
:1001C000340A01000A444FF0000C10F8013B13F010
:1001D000070408BF10F8014B1D1108BF10F8015BA0
:1001E000641E05D010F8016B641E01F8016BF9D193
:1001F00013F0080F1EBF10F8014BAD1C0C1B09D1EA
:100200006D1E58BF01F801CBFAD505E014F8016B5B
:1002100001F8016B6D1EF9D59142D6D370470000ED
:100220000023002400250026103A28BF78C1FBD8FF
:10023000520728BF30C148BF0B6070471FB510F090
:100240001EFA1FBD10B510BD00F0E4F91146FFF70E
:10025000F5FF0DF0DFF900F002FA03B4FFF7F2FF4B
:1002600003BC00F005FA00002C4B19680868B0E8E0
:10027000F04F80F30988BFF36F8F4FF0000080F3D9
:10028000118870470000000008480068006880F38B
:1002900008884FF0000080F3148862B661B6BFF39F
:1002A0004F8FBFF36F8F00DF00BF00BF08ED00E08E
:1002B000DFF80C00016841F470010160704700BF75
:1002C00088ED00E0EFF30980BFF36F8F134B1A68DE
:1002D0001EF0100F08BF20ED108A20E9F04F1060CB
:1002E00009B44FF0500080F31188BFF34F8FBFF374
:1002F0006F8F0EF013FD4FF0000080F3118809BCE2
:1003000019680868B0E8F04F1EF0100F08BFB0EC95
:10031000108A80F30988BFF36F8F70472400002094
:10032000EFF30580704700000948804709480047FF
:10033000FEE7FEE7FEE7FEE7FEE7FEE7FEE7FEE795
:10034000FEE7FEE704480549054A064B70470000F2
:10035000CDA100088901000840610020406700200D
:10036000406300204063002053EA020C00F06980E3
:100370002DE9F04B4FF00006002B1FBFB3FA83F5B9
:1003800003FA05F424FA05F65E4012BF1643B2FAEA
:1003900082F502FA05F4C5F120051EBF22FA05FC1C
:1003A00044EA0C04203556EA044C4FEA144418BFC2
:1003B000641C4FF000084FF00009904271EB030CF1
:1003C00039D3002919BFB1FA81F701FA07F6B0FA5B
:1003D00080F700FA07F6C7F120071EBF20FA07FCD6
:1003E00046EA0C062037B6FBF4FCA7EB0507103FE6
:1003F00007F01F0BCBF120060CFA0BFB2CFA06F6CC
:1004000044BFB3460026202FA4BF5E464FF0000B2A
:100410005BEA060C08BF4FF0010B19EB0B09ABFBB5
:10042000027C48EB0608C01B06FB02CC0BFB03CC8E
:1004300071EB0C01C1E70B46024641464846BDE858
:10044000F08B13B54FF000004FF00001AFF30080C8
:10045000BDE81C407047032A40F2308010F0030CC6
:1004600000F0158011F8013BBCF1020F624498BF07
:1004700011F801CB00F8013B38BF11F8013BA2F1A4
:10048000040298BF00F801CB38BF00F8013B11F01F
:10049000030300F06280083AC0F0088051F8043B82
:1004A000083A51F804CBA0E80810F5E7121D5CBF2C
:1004B00051F8043B40F8043BAFF30080D20724BF5F
:1004C00011F8013B11F801CB48BF11F8012B24BFF3
:1004D00000F8013B00F801CB48BF00F8012B704742
:1004E00002F0FF0343EA032242EA024200F069B845
:1004F0004FF0000200B5134694469646203922BFBD
:10050000A0E80C50A0E80C50B1F12001BFF4F7AF07
:10051000090728BFA0E80C5048BF0CC05DF804EBE9
:10052000890028BF40F8042B08BF704748BF20F857
:10053000022B11F0804F18BF00F8012B7047704755
:100540007047704710B500F05DF8006810BD10B539
:10055000044600F057F8046010BD10B5203AC0F012
:100560000B80B1E81850203AA0E81850B1E81850B4
:10057000A0E81850BFF4F5AF5FEA027C24BFB1E8F1
:100580001850A0E8185044BF18C918C0BDE8104062
:100590005FEA827C24BF51F8043B40F8043B08BF6B
:1005A0007047D20728BF31F8023B48BF11F8012B32
:1005B00028BF20F8023B48BF00F8012B70474FF0DE
:1005C00000020429C0F0128010F0030C3FF492AF37
:1005D000CCF1040CBCF1020F18BF00F8012BA8BF2E
:1005E00020F8022BA1EB0C01FFF784BF5FEAC17C6E
:1005F00024BF00F8012B00F8012B48BF00F8012BA5
:100600007047000000487047E060002000487047D5
:10061000E06000207546FFF7F9FFAE460500694629
:10062000534620F00700854618B020B5FFF78AFE34
:10063000BDE820404FF000064FF000074FF00008E3
:100640004FF0000B21F00701AC46ACE8C009ACE864
:10065000C009ACE8C009ACE8C0098D46704710B5C8
:100660000446AFF300802046BDE81040FFF7F5BD1B
:1006700001491820ABBEFEE7260002007047026861
:100680004260BDEEC00A10EE101A0160891A816046
:100690004269534203EBD373B1EB630F02DA1144A7
:1006A000816006E002EBD273B1EB630F01DD891AC2
:1006B0008160D0E902211144C160017F012902D18A
:1006C0000021C1600177704710B504462DED028B03
:1006D000B0EE408A38EE600A10EE100A0FF05EFFAE
:1006E00041EC100B0AF06CFF51EC100B0FF072F89C
:1006F00000EE100AD4ED020AF4EEC00AF1EE10FA90
:1007000004D29FED0D0A84ED000A03E09FED0B0A71
:1007100084ED000AD4ED000A94ED010AB7EE001A48
:1007200020EE800A71EE600A00EE880A84ED010A6C
:10073000BDEC028B10BD00009A99993E6666663F3B
:10074000FEE7000000B58BB0002006900790012165
:10075000089147F6FE720192039002900490059072
:100760000E200A90099101A9054802F081FA044877
:1007700002F05BFF0221024802F0F6F90BB000BD67
:100780007C0E0020014802F085BB00007C0E00209A
:1007900000B58BB00E200690002007900121089133
:1007A00047F6FE72019203900290049005901C207F
:1007B0000A90099101A9064802F05AFA044802F089
:1007C00034FF0221024802F0CFF90BB000BD000057
:1007D000A40E0020014802F05DBB0000A40E002022
:1007E0007CB5DDE90645160A8DF800608DF801201C
:1007F0001A0A8DF802208DF80330220A8DF80420A1
:100800008DF805402A0A8DF806208DF80750082338
:100810006A4600F001F87CBD30B587B00446154645
:1008200001910021029103910491059301232A462D
:1008300001A9204602F0AAF900280DD002232A4679
:1008400001A9204602F0A2F9002805D004232A4677
:1008500001A9204602F09AF907B030BD10B5044650
:100860002DED068B94ED000AD4ED060A70EE608A39
:10087000C4ED028AD4ED03AA94ED040A2AEE808A1C
:1008800020EE08AAD4ED010A40EE208A18EE900A64
:100890000FF084FE41EC100B0AF092FEB0EE409A8D
:1008A000B2EE000AF0EE609A2AEE800A10EE100A0C
:1008B0000FF074FE53EC192B0FF0D2FA28EE080A51
:1008C00041EC190B10EE100A0FF068FE53EC192BD7
:1008D0000EF0B2FF41EC100B0BF0AAFE51EC100B26
:1008E0000EF078FF0AEE900A1AEE100A0FF056FE8C
:1008F00041EC190B18EE900A0FF050FE41EC100B72
:100900000AF05EFE53EC192B51EC100B0FF04EFC6D
:1009100012D2B0EE680A09F053FA00EE100A7AEE2D
:10092000C80AD4ED018AB8EEC00A20EE200AF6EE1D
:10093000000A40EE208A07E094ED040AC8EE800A1F
:1009400094ED010A70EE808A18EE100A0FF026FE70
:1009500041EC190B18EE900A0FF020FE41EC100B41
:100960000AF02EFE53EC192B51EC100B0FF01EFC6D
:100970000ED2B0EE680A09F023FA00EE100AD4EDA8
:10098000030AB8EEC00AF1EE600A20EE200A07E082
:1009900094ED030AB1EE400A60EE280A80EE880A60
:1009A000D4ED001AD4ED050A94ED011A40EE811A37
:1009B000C4ED001A00EE801A84ED011ABDEC068B1E
:1009C00010BD00002DE9F05F04462DED068B0D46AD
:1009D00016461F46DDF84080DDED11AADDF848908F
:1009E000DDED138ADFF814A29FED85AA0AF1140B3E
:1009F000608AA0F64C0000EE100AB8EEC08A3046BD
:100A00000FF0DEF941EC190B18EE100A0FF0C6FDDD
:100A100041EC100B0AF0D4FD53EC192B51EC100BE8
:100A20000FF0E2F902D28AED02AA2EE0B5EEC08AFA
:100A3000F1EE10FA12DD00EE106AB8EE400A78EE20
:100A4000400A00EE107AB8EEC00A20EE800ADFED10
:100A50006D0A80EE201A8AED021A16E0B5EEC08A01
:100A6000F1EE10FA11D200EE106AB8EE400A78EEFC
:100A7000000A00EE107AB8EEC00A20EE800ADFED20
:100A8000620A80EE201A8AED021AA08AA0F2F170A2
:100A900000EE100AB8EEC08A40460FF091F941EC22
:100AA000190B18EE100A0FF079FD41EC100B0AF04B
:100AB00087FD53EC192B51EC100B0FF095F902D276
:100AC0008BED02AA2AE0B5EEC08AF1EE10FA10DD35
:100AD00000EE108AF8EEEA0AB8EE400A38EE400A54
:100AE00020EE200ADFED490A80EE201A8BED021A73
:100AF00014E0B5EEC08AF1EE10FA0FD200EE108AC3
:100B0000F8EEEA0AB8EE400A38EE000A20EE200AB3
:100B1000DFED3F0A80EE201A8BED021AE08AA0F288
:100B2000DA7000EE100AB8EEC08A48460FF048F9B5
:100B300041EC190B18EE100A0FF030FD41EC100BD0
:100B40000AF03EFD53EC192B51EC100B0FF04CF951
:100B500004D22A48283080ED02AA2EE0B5EEC08AE1
:100B6000F1EE10FA12DD00EE109AF8EEE80A2348D2
:100B7000B8EE400A283038EE400A20EE200ADFEDB9
:100B8000250A80EE201A80ED021A16E0B5EEC08A22
:100B9000F1EE10FA11D200EE109AF8EEE80A1748BA
:100BA000B8EE400A283038EE000A20EE200ADFEDC9
:100BB0001A0A80EE201A80ED021A104804F084FD13
:100BC0000E48143004F080FD0C48283004F07CFD01
:100BD0009AED010A85ED4F0A9BED010AB1EE400A3C
:100BE00085ED500A0548283090ED010AB1EE400A23
:100BF00085ED510ABDEC068BBDE8F09FB80C0020D6
:100C0000000000000020F24400C003450080E644DC
:100C10000080F94400C0014500A0FA4410B52DED54
:100C2000068B82B09FED708B9FED719BB7EE00AA93
:100C3000DFED71AA714C04F5BA70D4ED480A94ED59
:100C4000490AFFF741FDD4ED180A94ED190A04F1A1
:100C5000B400FFF739FDD4ED300A94ED310A04F504
:100C60008A70FFF731FDD4ED000A94ED010A04F11A
:100C70005400FFF729FD04F5907008F065FE04F1BB
:100C8000600008F061FE04F1C00008F05DFE20463F
:100C900008F05AFED4F8E0000FF080FC41EC100B95
:100CA0000AF08EFC53EC182B51EC100B0FF09CF853
:100CB0000ED9D4F8C0000FF071FC41EC100B0AF013
:100CC0007FFC53EC192B51EC100B0FF08DF803D275
:100CD00084ED38AAC4ED30AA206A0FF05FFC41EC25
:100CE000100B0AF06DFC53EC182B51EC100B0FF0AD
:100CF0007BF80DD920680FF051FC41EC100B0AF085
:100D00005FFC53EC192B51EC100B0FF06DF803D274
:100D100084ED08AAC4ED00AAD4F880000FF03EFCD0
:100D200041EC100B0AF04CFC53EC182B51EC100B5F
:100D30000FF05AF80DD9206E0FF030FC41EC100B7B
:100D40000AF03EFC53EC192B51EC100B0FF04CF851
:100D500003D284ED20AAC4ED18AAD4F840010FF004
:100D60001DFC41EC100B0AF02BFC53EC182B51EC42
:100D7000100B0FF039F80ED9D4F820010FF00EFC4B
:100D800041EC100B0AF01CFC53EC192B51EC100B2E
:100D90000FF02AF803D284ED50AAC4ED48AA94EDCE
:100DA000500ABDEEC00A10EE100A00B2009094ED99
:100DB000200ABDEEC00A10EE100A94ED080A03B234
:100DC000BDEEC00A10EE100A94ED380A02B2BDEE74
:100DD000C00A10EE100A01B24FF400700CF096FC3D
:100DE00002B0BDEC068B10BD000000000000F03F1B
:100DF000000000000000084000000000B8000020D3
:100E0000B4EEE00AF1EE10FA02D2B0EE600A7047DA
:100E1000B4EEC10AF1EE10FAF9DDB0EE410A704706
:100E200070B505462DED048B0C46F0EE408A284641
:100E300000F07EF8204600F07BF8B0EE680A0AF079
:100E400017FBD5ED000A20EE208AB0EE680A0BF001
:100E500027FBD5ED010A00EE808A84ED008AB0EE12
:100E6000680A0AF005FBD5ED010A20EE208AB0EEF3
:100E7000680A0BF015FBD5ED000A00EEC08A84ED80
:100E8000018A20680FF08AFB9FED179B41EC100B45
:100E9000B0EE491AF0EE691A0AF076FCB0EE408A1C
:100EA000F0EE608A20680FF079FB41EC100BB0EE99
:100EB000491AF0EE691A0AF067FC53EC182B51EC52
:100EC000100B0EF0B9FC41EC100B0BF0B1FB51EC28
:100ED000100B0EF07FFCE06095ED020A84ED020A33
:100EE000BDEC048B70BD000000000000000000405D
:100EF000DFED0C0A0C480D4910EE102A824202DB8D
:100F000030EE600A05E010EE102A8A4201D930EE78
:100F1000200A10EE102A8242EEDA10EE102A8A42DF
:100F2000EAD87047DB0FC940DB0F4940DB0F49C0EF
:100F300010B504462DED028B207D01282ED000280F
:100F40009FED328B27D1D4ED010A94ED000A01F018
:100F50008FFD84ED030A60680FF020FB41EC100B5D
:100F60000AF02EFB53EC182B51EC100B0EF03CFF4B
:100F70002FD220680FF012FB41EC100B0AF020FB7F
:100F800053EC182B51EC100B0EF02EFF21D29FEDDD
:100F9000210A84ED040ABDEC028B10BD94ED040A15
:100FA0009FED1D8A20EE080A0AF062FAD4ED030ACA
:100FB00020EE200A84ED000A94ED040A20EE080ACF
:100FC0000BF06EFAD4ED030A20EE200A84ED010A3C
:100FD000E1E720680FF0E2FA41EC180B60680FF0CF
:100FE000DDFA41EC100BB0EE481AF0EE681A09F089
:100FF00083FF9FED0A1B51EC100B53EC112B0EF0ED
:10100000D7FC0EF0E7FB2061C5E70000F168E3883C
:10101000B5F8E43E0000000035FA8E3C000000A068
:1010200046DF913F70B53A4CDFED3A0A94ED0A0A7B
:10103000B5EEC00AF1EE10FA02DBC4ED0A0A08E0D0
:1010400010EE100A3449884203D39FED340A84ED30
:101050000A0A94ED0B0A324910EE100A884204DBAA
:101060009FED300A84ED0B0A06E0B5EEC00AF1EE02
:1010700010FA01D8C4ED0B0A2B4D94ED0A0A85ED48
:10108000060A2846FFF7EAFB284E94ED0B0A86ED88
:10109000060A3046FFF7E2FB254C95ED000A84ED89
:1010A000250A94ED2D0A84ED0D0A94ED0A0A84EDCB
:1010B000260A94ED0B0A84ED0E0A1E4D96ED000AE9
:1010C00085ED250A95ED2D0A85ED0D0A95ED0A0AA7
:1010D00085ED260A95ED0B0A85ED0E0A04F19400C4
:1010E00008F032FC04F1340008F02EFC05F1940005
:1010F00008F02AFC05F1340008F026FC94ED150AEE
:1011000084ED0C0A95ED150A85ED0C0A70BD000002
:101110004C0E002000000000004024C5004024C503
:101120000040244500402445380C0020540C002089
:10113000300A0020340B00201CB51F4C1F492078BA
:10114000002804D0012807D002280ED109E09FED25
:101150001C0A81ED000A08E09FED1A0A81ED000AE1
:1011600003E09FED190A81ED000A1848008804F099
:10117000C7FAFFF757FF207800281BD00020009007
:10118000019013484FF4007190ED0C0ABDEEC00AB7
:1011900010EE100A03B20F4890ED0C0ABDEEC00A23
:1011A00010EE100A02B20C48FFF71AFB0B49C88870
:1011B000401CC8801CBD0000700C0020740C002076
:1011C000000000000000C8C2004024C5780C0020C8
:1011D000340B0020300A00207C0E0020E85F002045
:1011E000014802F0AFBA000094110020014802F05B
:1011F000A9BA0000D4100020014802F0A3BA0000F0
:1012000034110020014802F09DBA000014130020A0
:10121000014802F097BA000074130020014802F060
:1012200091BA0000F4110020014802F08BBA0000CE
:10123000D4130020014802F085BA000054120020A7
:10124000014802F07FBA000034140020014802F087
:1012500079BA0000B41200200168CAB2103A18230B
:10126000B2FBF3F2064B9B5CC3656FF30901032AE3
:1012700002D9091D816500E08165806D704700001D
:101280000809010810B5014600208A6A8B694FF0F1
:10129000C074002B0ED0B3F5005F1AD062B3012AE0
:1012A0002AD0022A28D0032A03D1C96AC90100D54D
:1012B000012010BD1AB1012A06D0022AF9D1C96A4B
:1012C000C901F6D5012010BDC96AA142FBD1012098
:1012D00010BD52B1012A0AD0022A06D0032AF7D142
:1012E000C96AA142F4D1012010BD012010BDC96A14
:1012F000C901FBD5012010BD012010BD30B5046827
:10130000256825F480252560046863608368402B88
:1013100004D0036899600068C26030BD03689A60B9
:101320000068C16030BD00000021044A435C535492
:10133000491C89B20829F9D370470000A400002095
:101340002DE9F05F04462DED088BFD4800789FEDF8
:10135000FDABDFF8F893DFF8F8B3FE4FDFEDFE9A50
:10136000DFF8F8839FEDFEBA9FEDFE9AFE49DFF8A5
:101370000CA4FF4ED1ED001AFC499FEDFE8B9AEDB7
:10138000001A91ED000AFE49FE4D0728D1ED000A32
:101390007DD2DFE800F004FCFBFAF97CF80094ED64
:1013A000010A31EE400A10EE100A0FF0F7F841EC96
:1013B000100B0AF005F99FEDF41B51EC100B53ECE8
:1013C000112B0EF011FD12D8F148007801280ED132
:1013D000EA48D0ED000AB7F9000000EE100AB8EEB6
:1013E000C00A30EE800A30EE690A84ED010AE44852
:1013F000DFF878A390ED000ADAED000A30EE600A1B
:1014000010EE100A0FF0CAF841EC100B0AF0D8F8F1
:101410009FEDE01B51EC100B53EC112B0EF0C6FEB0
:1014200026D894ED000ADAED000A30EEC00A10EE7C
:10143000100A0FF0B3F841EC100B0AF0C1F853ECAE
:101440001A2B51EC100B0EF0CFFC10D8307801287D
:101450000DD1BBF90000DAED000A00EE100AB8EE7B
:10146000C00A30EE800A30EE490A84ED000AB5E089
:10147000C348DAED000A90ED000ABB4830EE200ABE
:10148000D0ED000A30EE200A9FEDC4BA00E0D8E0AB
:1014900030EE4B0A10EE100A0FF080F841EC100B02
:1014A0000AF08EF89FEDBE1B51EC100B53EC112B84
:1014B0000EF09AFC2ED8287801282BD130780128FC
:1014C00028D1B949D9F804000844B0F1807F21D867
:1014D000BBF90000DAED000A00EE100AA848B6EEEB
:1014E000001AB8EEC00A30EE800AD0ED000AB8F952
:1014F000000030EE0B0A70EE600A00EE100AB8EE43
:10150000C00A70EEC00AB0EE490A10EE810A84EDFE
:10151000000A63E09A4890ED000A93483BEE400AC7
:10152000D0ED000A30EE600AD4ED000A30EE600A19
:1015300010EE100A0FF032F841EC100B0AF040F8F0
:1015400053EC182B51EC100B0EF04EFC20D82878E1
:1015500001281DD19449D9F804000844B0F1807FD6
:1015600016D8874890ED000AB8F900007BEE400AD3
:1015700000EE100AB8EEC00A30EEC00A30EE490A9A
:1015800084ED000A2AE0EEE3EEE3DDE29FE15CE0B9
:1015900094ED000ADAED000A30EEC00A10EE100AEF
:1015A0000EF0FCFF41EC100B0AF00AF853EC1A2B7A
:1015B00051EC100B0EF018FC10D8307801280DD12A
:1015C000BBF90000DAED000A00EE100AB8EEC00A1E
:1015D00030EE800A30EE490A84ED000A28780128AE
:1015E0002FD16B48007801282BD170480078002853
:1015F00027D0634890ED000ADFED680AB8F90000D3
:1016000070EEC00A00EE100AB8EEC00A30EEC00A52
:1016100030EE490A84ED000A584890ED001AB7F9F7
:10162000000000EE900AF8EEE00A71EE200A70EE7B
:10163000E90AC4ED010A89ED000A94ED010A89ED79
:10164000010ABDEC088BBDE8F09FD4ED000A30EE36
:10165000600A10EE100A0EF0A1FF41EC100B09F029
:10166000AFFF53EC182B51EC100B0EF0BDFB11D853
:10167000307801280ED13D48D0ED000ABBF90000BA
:1016800000EE100AB8EEC00A30EE800A30EE490AC9
:1016900084ED000A464D95ED000A9FED46AADFF85D
:1016A00018813AEE400AD8ED000A30EE600ADAED11
:1016B000000A30EE600A10EE100A0EF06FFF41ECE7
:1016C000100B09F07DFF53EC182B51EC100B0EF0B2
:1016D0008BFB07D839480078012803D12C480078C3
:1016E00001287CD095ED000AD8ED000A3AEE400AB8
:1016F00030EE600AD4ED010A30EE600A10EE100AF6
:101700000EF04CFF41EC100B09F05AFF53EC182B74
:1017100051EC100B0EF068FB03D828480078012824
:101720007DD094ED010ADAED000A30EEC00A10EE29
:10173000100A0EF033FF41EC100B09F041FF40E0BE
:10174000310700200000000000005440785F0020B6
:10175000380800203A0800200080D94334080020CF
:10176000001C00460000D443280700201C0700206E
:101770002D07002000000000000059402007002035
:10178000180700202C0700200000000000C0624065
:101790002F07002000000000005094400000F94492
:1017A000000000000000344000006ABB3007002049
:1017B0001407002000C09544240700202E070020B5
:1017C0000DE09FEDFB1B51EC100B53EC112B0EF0B9
:1017D0000BFB48D8F8480078012836D043E0B7F929
:1017E0000000DAED000A00EE100AF448B6EE001A26
:1017F000B8EEC00AB0F9000030EE800AD5ED000A5C
:1018000030EE0A0A70EE600A00EE100AB8EEC00A66
:1018100070EEC00AB0EE690A10EE810A00E002E044
:1018200084ED010A1FE0E54895ED000AB0F90000DB
:101830007AEE400A00EE100AB8EEC00A30EEC00A96
:1018400030EE690A84ED010A0DE0B7F90000DAED27
:10185000000A00EE100AB8EEC00A30EE800A30EE40
:10186000690A84ED010A307801287FF4EAAED44891
:1018700000780128F9D1D348007800283FF4E1AE80
:10188000D148D0ED000ABBF9000000EE100AB8EE16
:10189000C00A30EE800A30EE490A84ED000AC748DB
:1018A000D5ED000AB0F900003AEE601A00EE900A99
:1018B000F8EEE00A71EE600A70EEE90AC4ED010A82
:1018C00089ED000A94ED010A89ED010AB9E63BEEC3
:1018D000600AD4ED000A30EE610A30EE600A10EEC4
:1018E000100A0EF05BFE41EC100B09F069FE53ECA0
:1018F0001A2B51EC100B0EF077FA02D82878012839
:101900001BD0B14894ED000AD0ED000A30EEC00AB9
:1019100010EE100A0EF042FE41EC100B09F050FEE2
:101920009FEDA31B51EC100B53EC112B0EF05CFA46
:1019300024D83078012812D020E0A44890ED000A85
:10194000B8F900007BEE400A00EE100AB8EEC00ABB
:1019500030EEC00A30EE490A84ED000A0EE09A48E3
:10196000D0ED000ABBF9000000EE100AB8EEC00A84
:1019700030EE800A30EE490A84ED000A944E96ED6E
:10198000000A1FED74AADFF84CB23AEE400ADBED14
:10199000000A30EE600ADAED000A30EE600A10EE5E
:1019A000100A0EF0FBFD41EC100B09F009FE53ECA0
:1019B000182B51EC100B0EF017FA07D8804800785E
:1019C000012803D17C48007801283ED09AED000A16
:1019D0009FED81AAD4ED010A30EE0A0A30EE600ACA
:1019E00010EE100A0EF0DAFD41EC100B09F0E8FDE4
:1019F00053EC182B51EC100B0EF0F6F903D86E488F
:101A00000078012847D096ED000A9FED74AADBED1F
:101A1000000A3AEE400A30EE600AD4ED010A30EED8
:101A2000600A10EE100A0EF0B9FD41EC100B09F03F
:101A3000C7FD53EC182B51EC100B0EF0D5F94CD818
:101A40005F480078012837D047E0B7F90000DAEDA9
:101A5000000A00EE100A5948B8EEC00AB0F90000BA
:101A600030EE800AD6ED000A30EE0A0A70EE600A07
:101A700000EE100AB8EEC00A70EEC00A9FED570AD9
:101A8000B6EE001A00EE810A30EE4A0A30EE690A1C
:101A900084ED010A21E09AED000AB7F9000070EE2A
:101AA0000A0A00EE100AB8EEC00A30EE800A30EEE4
:101AB000690A84ED010A10E0404896ED000AB0F989
:101AC00000007AEE400A00EE100AB8EEC00A30EECE
:101AD000C00A30EE690A84ED010A287801287FF4F3
:101AE000F5AE354800780128F9D13648007800284D
:101AF0003FF4ECAE354890ED000AB8F900007BEEFB
:101B0000400A00EE100AB8EEC00A30EEC00A30EE0D
:101B1000490A84ED000ADAED000A9FED2F1AB7F9A1
:101B2000000030EE811A00EE900AF8EEE00A71EE45
:101B3000200A70EEE90AC4ED010A89ED000A94ED6D
:101B4000010A89ED010A7CE52148DFED25AA9FED18
:101B500025AA90ED000AB4EEC10AF1EE10FA45DBB9
:101B600094ED010ADFF880A031EE400A10EE100A71
:101B70000EF014FD41EC100B09F022FD53EC182B74
:101B800051EC100B0EF030F963D80B4800780128A7
:101B90005FD1B7F90000DAED000A00EE100AB8EEE6
:101BA000C00A30EE800A30EE690A84ED010A50E086
:101BB00000000000000049402F07002036080020E8
:101BC0002E070020300700201C07002018070020E7
:101BD0001407002024070020000096450070BB4534
:101BE0000020B54400F0D245200700205FED05BA83
:101BF000DFF8FCA33BEEC00AFE48D0ED000A30EE51
:101C0000600AD4ED010A30EE600A10EE100A0EF000
:101C1000C5FC41EC100B09F0D3FC53EC182B51EC34
:101C2000100B0EF0E1F814D8F3480078012810D119
:101C3000F2489AED000AB0F900007BEEC00A00EE0F
:101C4000100AB8EEC00A30EEC00A30EE690A84ED20
:101C5000010ADFF8ACA3EB489AED000AD0ED000AC8
:101C6000E94830EE200AD0ED000A30EE200A30EECE
:101C70006A0A10EE100A0EF091FC41EC100B09F00C
:101C80009FFC9FEDE21B51EC100B53EC112B0EF05F
:101C9000ABF805D82878012802D1307801283CD04B
:101CA0009AED000AD8483BEE400AD0ED000A30EE2B
:101CB000600AD4ED000A30EE600A10EE100A0EF051
:101CC0006DFC41EC100B09F07BFC9FEDD21B51EC3D
:101CD000100B53EC112B0EF087F802D8287801284E
:101CE00043D0C848D4ED000A90ED000A30EE0A0A4D
:101CF00030EE600A10EE100A0EF050FC41EC100BB2
:101D000009F05EFC53EC182B51EC100B0EF06CF844
:101D10004DD83078012839D049E09AED000AB8F959
:101D20000000B6EE001A7BEE400A00EE100AB5483D
:101D3000B8EEC00A30EEC00AD0ED000ABBF90000D0
:101D400030EE0B0A30EE6A0A70EE200A00EE100A3E
:101D5000B8EEC00A70EE800AB0EE490A10EE810AB1
:101D600084ED000A23E0CFE193E09AED000AB8F990
:101D700000007BEE400A00EE100AB8EEC00A30EE1A
:101D8000C00A30EE490A84ED000A10E09D4890ED4B
:101D9000000ABBF9000070EE0A0A00EE100AB8EE65
:101DA000C00A30EE800A30EE490A84ED000A9048FD
:101DB0009A4990ED000AD1ED000AB4EEE00AF1EE86
:101DC00010FA31DB287801287FF480AD9448007840
:101DD0000128F9D19348007800283FF477AD9AEDB7
:101DE000000AB8F900007BEE400A00EE100AB8EED7
:101DF000C00A30EEC00A30EE490A84ED000AB7F995
:101E0000000091ED001A00EE900AF8EEE00A71EE83
:101E1000200A70EEE90AC4ED010A89ED000A94ED8A
:101E2000010A89ED010A0CE429780129FBD17249E4
:101E300009780129F7D17B4909780029F3D09AED77
:101E4000000AB8F900107BEE400A00EE101AB8EE56
:101E5000C00A30EEC00A30EE490A84ED000AD0ED27
:101E6000000A1FEDA21A654831EE601AB0F90000B1
:101E700000EE900AF8EEE00A71EE600A70EEE90AF0
:101E8000C4ED010A89ED000A94ED010A89ED010A09
:101E90001CE565484FF0010B80F800B0DFED639A58
:101EA0000021634839EEE11AB4EEE01AF1EE10FABF
:101EB00003D910EE902A824201DC297001E085F8F6
:101EC00000B09FED5CBBB4EEC01AF1EE10FA03D97E
:101ED00010EE102A824201DC317001E086F800B079
:101EE000564800680EF05AFB41EC100B09F068FBF5
:101EF00053EC1B2B51EC100B0EF058F90ED94F4838
:101F000040680EF04BFB41EC100B09F059FB53EC11
:101F10001B2B51EC100B0EF049F902D84848017800
:101F200021B147480078012803D023E080F800B0B1
:101F300020E0424800680EF031FB41EC100B09F044
:101F40003FFB53EC182B51EC100B0DF04DFF11D84B
:101F50003A4840680EF022FB41EC100B09F030FBD0
:101F600053EC182B51EC100B0DF03EFF02D8354806
:101F700080F800B0334A1078012802D0022823D11B
:101F800023E085F800B0304BDAF800002F49984282
:101F900002DC606081F800B019482D4B90ED000A1A
:101FA00010EE100A984205DCB1EE400A84ED000AFA
:101FB00081F801B04878012873D10878012870D1E0
:101FC0001F490220087010706BE00D48DFF838B030
:101FD00090ED000A0B48D0ED000A30EE200ADBED50
:101FE000000A30EE200A30EE690A10EE100A31E0E5
:101FF00014070020240700202E07002036080020A8
:10200000180700201C0700202807002000000000FF
:1020100000003440000000000080514020070020F4
:102020002F070020300700203507002000401C4506
:102030000000C8420000000000006940045F00206A
:10204000340700203307002000007A44A80C002049
:10205000000048440EF0A2FA41EC100B09F0B0FA6F
:1020600053EC1A2B51EC100B0DF0BEFE19D828784A
:10207000012816D13078012813D15548DBED000A2C
:1020800090ED000A534830EE290A30EE600AD0ED98
:10209000000A30EE600AFEEE000A20EE200A84ED0F
:1020A000000A287801287FF4F3AE4B480078012815
:1020B000F9D14A48007800283FF4EAAE4448D0ED10
:1020C000000AB8F9000000EE100AB8EEC00A30EEBF
:1020D000800ADFED430A30EEC00A84ED000AB7F94A
:1020E00000009AED001A00EE900AF8EEE00A71EE98
:1020F000200A70EEC90AC4ED010A89ED000A94EDC8
:10210000010A89ED010A1EE530EE800A1FED398AC9
:10211000DFF8BCB030EE210A30EE480A10EE100AAB
:102120000EF03CFA41EC100B09F04AFA53EC1A2B72
:1021300051EC100B0DF058FE19D82878012816D153
:102140003078012813D19BED000A264830EE080AAA
:10215000D0ED000A1F4830EE600AD0ED000A30EEE4
:10216000600AFEEE000A20EE200A84ED000A2878BC
:102170000128C8D1184800780128C4D11748007830
:102180000028C0D0B8F90000DBED000A00EE100A0C
:10219000B8EEC00A30EE800ADFED130A30EEC00A56
:1021A00084ED000AB7F900009AED001A00EE900ADB
:1021B000F8EEE00A71EE200A70EEE90AC4ED010AB9
:1021C00089ED000A94ED010A89ED010ABBE40000E3
:1021D000180700201C0700202F07002030070020D0
:1021E0000080D9C3280700200080CA432DE9F05F92
:1021F00000F044F96F487149714A90F800B06E4898
:10220000704BDFF8C4C19FED710A714CDFED710AAC
:10221000714D724FDFF8C89140F295164FF4D478A3
:1022200040F29F1ABBF1050F31D2DFE80BF0033209
:102230006190BE00B0F800B001EE10BAB8EE411ADD
:1022400081ED001A818801EE101AB8EE411A82ED74
:10225000001A418801EE101AB8EE411A83ED001AF7
:10226000C08801EE100AB8EE411A8CED001A00F099
:10227000BFF884ED000AC5ED000A3E80A9F8008091
:102280005848A0F800A0584940F2B3100880BDE8B3
:10229000F09FB0F806B001EE10BAB8EE411A81ED29
:1022A000001A418801EE101AB8EE411A82ED001AA8
:1022B000018801EE101AB8EE411A83ED001A8088E9
:1022C00001EE100AB8EE411A8CED001A00F090F8F9
:1022D000C4ED000A85ED000AA7F800A040F2B31093
:1022E000A9F800003F4806803F48A0F80080CEE7EC
:1022F000B0F804B001EE10BAB8EE411A81ED001A40
:10230000018801EE101AB8EE411A82ED001AC18858
:1023100001EE101AB8EE411A83ED001A408801EE62
:10232000100AB8EE411A8CED001A00F061F884ED45
:10233000000AC5ED000AA7F80080A9F80060294945
:1023400040F2B31008802848A0F800A09FE7B0F83A
:1023500002B001EE10BAB8EE411A81ED001AC18840
:1023600001EE101AB8EE411A82ED001A818801EED2
:10237000101AB8EE411A83ED001A008801EE100A17
:10238000B8EE411A8CED001A00F032F8C4ED000AE4
:1023900085ED000A40F2B3103880A9F800A011487A
:1023A000A0F800801048068071E7104900200870EE
:1023B0006DE70000320700202408002018070020E5
:1023C0001C070020140700202007002000404F4475
:1023D00028070020008054442407002034080020EF
:1023E00038080020360800203A0800201007002096
:1023F00070B51748174C184D0068184B0021012282
:10240000A04201DD984201DB297000E02A701448E7
:10241000144D0068A04202DD134EB04201DB29706A
:1024200000E02A701148124D0068A04201DD984278
:1024300001DB297000E02A700E480F4D0068A042B1
:1024400001DD984201DB297070BD2A7070BD00006B
:1024500018070020000020412C07002000C05A452A
:102460001C0700202D07002000C0C14514070020D4
:102470002E070020200700202F0700202DE9F05F05
:1024800005462DED048B4FF000084FF00409864EF1
:10249000864F9FED878BDFF820A2DFF820B2012462
:1024A00097ED020ADFED860A20EE200AFEF720FDF6
:1024B000B0EE409AB0EE490A08F0DAFF10EE100ACA
:1024C0000EF06CF841EC100B09F07AF851EC100B9F
:1024D0000DF080F909EE900AB7EE000A39EEC00A55
:1024E00010EE100A0EF05AF841EC100B09F068F8E3
:1024F0009FED741B51EC100B53EC112B0DF074FC81
:1025000017D8B0EE490A08F0B3FFB5EEC00AF1EEF5
:1025100010FA02DB86F800802DE0B0EE490A08F0E0
:10252000A7FFB5EEC00AF1EE10FA24D202203070F7
:1025300021E019EE900A0EF031F841EC100B09F091
:102540003FF89FED621B51EC100B53EC112B0DF07B
:102550004BFC0ED8B5EEC09AF1EE10FA01DB3470E8
:1025600009E0B5EEC09AF1EE10FA04D20320307003
:1025700001E086F8009038680EF010F841EC100B7E
:1025800009F01EF853EC182B51EC100B0DF00EFE59
:102590000DD978680EF002F841EC100B09F010F834
:1025A00053EC182B51EC100B0DF000FE04D84949E8
:1025B000DAF80800884204DC4749DAF80800884263
:1025C00003DD8BF800404548047045489BF8002027
:1025D00045490378434852EA030604D0012A55D0FE
:1025E000012B53D055E095ED000ADFED400A404B3A
:1025F00070EE200A10EE902A9A4203DC80F80080E8
:102600000C7046E010EE102A3A4B9A4212DB10EEA4
:10261000902A394B9A420DDC95ED011ADFED371AFD
:10262000374B31EE211A11EE102A9A4202DC047067
:102630000C702EE010EE102A324B9A420CDB10EE9A
:10264000902A314B9A4207DC304B6A689A4203DB8E
:10265000022202700C701CE010EE102A264B5B4226
:102660001A442B4B9A4203D8032202700C7010E0DC
:1026700010EE102A274B9A4203DB80F800900C7072
:1026800007E00522027081F8008002E080F80090E7
:102690000C70214A1278082A02D1062202700C70AE
:1026A000BDEC048BBDE8F09F32070020045F0020E2
:1026B0000000000000005940B05F002035070020F6
:1026C00088C3E43A613255302AA9433FCAC342ADB8
:1026D00069DEA13F00004843000096433407002014
:1026E00036070020310700201007002000404F442B
:1026F00000E0F5440020FC440028D245008054440A
:1027000000E098440080EC4400B8D34500C08F45F9
:1027100000482D000070FF4590080020704772B6F9
:10272000FEE700002DE9F04105462DED088B0C4633
:102730009FEDAE8BAF4EB048806830600DF02EFF3D
:1027400041EC100B08F03CFF53EC182B51EC100B34
:102750000DF02CFD03D296ED010A86ED000A3068DB
:102760000DF01CFF41EC100B08F02AFF53EC182B66
:1027700051EC100B0DF028FE41EC100B08F020FF7F
:102780009FED9E1B51EC100B53EC112B0DF00EFD29
:102790001AD296ED000AD6ED010A30EE600A10EE6C
:1027A000100A0DF0FBFE41EC100B08F009FF9FED45
:1027B000951B51EC100B53EC112B0DF0F7FC03D2D1
:1027C00096ED010A86ED000AD6ED000A96ED010AA3
:1027D0008E4A8F4830EEC00A10EE101A914203DD87
:1027E0000168491E016007E010EE101A894A914203
:1027F00002D90168491C016000684FF461614843D7
:1028000000EE100A8449B8EEC00A30EE800A81ED6D
:10281000000A00EE900AF8EEE00A30EE600A85ED5C
:10282000030ADFED7E0A20EE200AFEF761FBB0EE20
:10283000409A7B4890ED000ABDEEC00A10EE100AE7
:102840002060784991ED000ABDEEC00A84ED020ACD
:102850006168401A0AF096FF4FF47A77B84206DCB6
:10286000D4E90201401A0AF08DFFB84207DD206862
:102870006060A068E060BDEC088BBDE8F081D4E941
:10288000000188420FDB401A0DF083FA9FED660BC2
:1028900053EC102B0DF0E4FA0CF09CFF08EE100A3C
:1028A000DFED639A0EE0401A0DF073FA9FED611BA5
:1028B00053EC112B0DF0D4FA0CF08CFF08EE100A3B
:1028C000DFED5E9AD4E9020188420FDB401A0DF079
:1028D00060FA9FED5B0B53EC102B0DF0C1FA0CF07E
:1028E00079FF08EE900A9FED58AA0EE0401A0DF00D
:1028F00050FA9FED560B53EC102B0DF0B1FA0CF083
:1029000069FF08EE900A9FED53AA79EE890A9FEDC0
:10291000520A30EEC00AF0EE409A09F0C1FDF1EE25
:1029200040AA3AEE090AB0EE40AA09F0B9FDB1EEAC
:1029300040BAB0EE690A08F09BFDF0EE409AB0EEA6
:102940004A0A08F095FD6AEE880A94ED041A4BEEE7
:10295000280A70EE810AC4ED040A69EE880A40EE86
:10296000280A94ED050A30EE800A84ED050A9FEDF1
:102970003B8AB0EE480A09F093FDB0EE490A09F02F
:102980008FFD374894ED040AD0ED000A30EE200A9E
:1029900030EE480A85ED000AB0EE480A08F068FDFE
:1029A000B0EE490A08F064FD2E4894ED050AD0ED1A
:1029B000000A30EE200A38EE000A2B48D5ED000A56
:1029C00090ED001A70EE810AC5ED000A2748D0ED9F
:1029D000000A30EE200A85ED010A20686060A068D8
:1029E000E06096ED000A86ED010A44E70000000071
:1029F00000209C40A0060020045F00200000000092
:102A000000002E4000000000000059400000E1449A
:102A1000880C00200000E1C48C0C002088C3E43A3C
:102A20009406002098060020B9CBA01C11C9CCBF89
:102A3000B5DB43BF5F371D135EC5CCBF046E43BF1C
:102A40008051D885B963CCBF19C015C0B569EAF506
:102A50002262CCBFDDA215C0DB0F494000000000A0
:102A60005007002054070020080700200C07002012
:102A700010B52DED068BB0EE40AA10EE900A0DF0C9
:102A80008DFD9FED189B41EC100BB0EE491AF0EE56
:102A9000691A08F079FEB0EE408AF0EE608A1AEE0C
:102AA000100A0DF07BFD41EC100BB0EE491AF0EE70
:102AB000691A08F069FEB0EE401AF0EE601A53ECA5
:102AC000182B51EC110B0CF0B7FE41EC100B09F078
:102AD000AFFD51EC100B0CF07DFEBDEC068B00EE53
:102AE000100A10BD00000000000000404A7809787C
:102AF00042EA012100EE101AB8EE400A80ED080A01
:102B0000704710B52DED048BB0EE419AF0EE619A4E
:102B100006F0D6FEB0EE408AF0EE608AB0EE490ACA
:102B2000F0EE690A06F0CCFE53EC182B51EC100BBA
:102B30000DF04AFC41EC100BBDEC048BBDE81040DD
:102B400006F0BEBE8878C978020604D5054A42EA76
:102B50000020084301E041EA002000EE100AB8EE30
:102B6000C00A70470000FFFF90F82020012A07D01C
:102B7000022A05D0416A41F4802141620120704758
:102B8000006842690A43426100207047F0B590F83E
:102B900020500468A468012D07D0022D05D0416A99
:102BA00041F4802141620120F0BD04F0806504F011
:102BB0000066354301D1E50053D5C4F30164012516
:102BC000A5401D608B684FF4C0759BB1CE6805EBC6
:102BD000041733434E6843EAC6030668F3514FF4C3
:102BE000C273076803EB04130E69FE50097D0129C7
:102BF00009D00DE00E88CB6805EB041743EA465375
:102C00000668F351EBE70168CE5846F48076CE5063
:102C10001179D379567941EA036193791B0443EA28
:102C2000062319434FF4C676036806EB0416995140
:102C30001178D37841EA0361937852781B0443EA10
:102C4000022211434FF4C473026803EB0413D15002
:102C5000006805EB0411425842F001024250002086
:102C6000F0BD416A41F4001141620120F0BD000055
:102C700010B590F82020012A07D0022A05D0416A19
:102C800041F480214162012010BD3C4800F50070F4
:102C9000026842F001020260026822F47C52026083
:102CA00002684B6A42EA032202600A7D02F01F03B7
:102CB00001229A40C3699343C361A0F50070CB69B8
:102CC000B3B9D0F80C329343C0F80C328C894B68FE
:102CD00064F31F434C6900EBC404C4F840320C8910
:102CE0000B6864F31F434C6900EBC404C4F844321E
:102CF000CB69012B16D1D0F80C321343C0F80C323B
:102D00000C884B6864F31F434C6900EBC404C4F89F
:102D100040320C89CB6864F31F434C6900EBC40458
:102D2000C4F844328B697BB1D0F804321343C0F845
:102D300004320B6973B1D0F814321343C0F8143263
:102D4000096A01290CD010E0D0F804329343C0F88E
:102D50000432EEE7D0F814329343C0F81432EFE7B0
:102D6000D0F81C121143C0F81C12D0F8001221F048
:102D70000101C0F80012002010BD000000640040F6
:102D8000704770B590F82040012C07D0022C05D078
:102D9000416A41F480214162012070BD21B1046883
:102DA0002469A4072AD003E00468E468A4071FD0BC
:102DB0004FF4D874056804EB01142D5905F004058F
:102DC00095600DB305682D59ED08556005682C59BF
:102DD00004F00204D4604FF4DA74056804EB0114C3
:102DE0002E5906F00F06082E13D30825156114E09E
:102DF000416A41F400114162012070BD416A41F411
:102E000000114162012070BD05682D596D0D1560DE
:102E1000DCE72D5905F00F05156105682D59C5F33F
:102E20000725956105682C59240C54614FF4DC7218
:102E3000046802EB0112A4581C700468A458240A08
:102E40005C700468A458240C9C700468A258120E8C
:102E5000DA704FF4DE72046802EB0112A4581C71A0
:102E60000468A458240A5C710468A458240C9C715A
:102E70000468A258120EDA7131B10068016941F09C
:102E800020010161002070BD0068C16841F020018F
:102E9000C160F7E72DE9F05F054600242868466920
:102EA000D0F804908768D0F80CA0D0F810B0D0F813
:102EB0001880F10748D0F90714D001218160B807C4
:102EC00003D5284600F0DEFB0CE0780702D54FF46E
:102ED000006407E0380702D54FF4805402E028462A
:102EE00000F0CFFBF80516D529684FF48070886094
:102EF000B80503D5284600F0C7FB0CE0780502D5DD
:102F000044F4005407E0380502D544F4804402E05C
:102F1000284600F0B8FBF80316D529684FF4803036
:102F20008860B80303D5284600F0B0FB0CE07803B6
:102F300002D544F4004407E0380302D544F4803459
:102F400002E0284600F0A1FB300707D55FEACA601F
:102F500004D544F4007429681020C86070074FF04D
:102F6000080707D55FEA0A7004D52868C7602846B5
:102F700000F0BAF9B00706D52868C068800702D00B
:102F8000284600F0B3F9700607D55FEACB6004D598
:102F900044F48064296810200861B00607D55FEA10
:102FA0000B7004D528680761284600F03BFBF0064B
:102FB00006D528680069800702D0284600F033FB58
:102FC000B00308D55FEAC96005D5296810204860BC
:102FD000284600F029FBF00307D55FEA097004D505
:102FE00028684760284600F052FB300446D55FEA67
:102FF000497040D5F00504D55FEAC87001D044F0AF
:103000000104B00504D55FEA887001D544F00204DC
:10301000700504D55FEA487001D544F0040430051A
:1030200029D518F0700F26D008F07000402815D070
:1030300006DC102809D020280AD0302816D10AE052
:1030400050280ED0602811D10EE044F008040DE0A5
:1030500044F010040AE044F0200407E044F0400487
:1030600004E044F0800401E044F48074286881693D
:1030700021F070018161296804204860002C05D08E
:10308000686A204368622846FFF77AFEBDE8F09F31
:1030900070B50446002C03D094F8200010B104E071
:1030A000012070BD204600F09DF82068016841F0C5
:1030B0000101016000F0C0FD054605260CE000F0AE
:1030C000BBFD401B0A2807D9606A40F400306062EB
:1030D00084F82060012070BD20684068C007EED0F1
:1030E0002068016821F00201016000F0A5FD05469D
:1030F0000CE000F0A1FD401B0A2807D9606A40F4EB
:103100000030606284F82060012070BD2068406853
:103110008007EED4207E01283FD02068016821F08E
:1031200080010160607E01283DD02068016821F0A7
:1031300040010160A07E01283BD02068016821F099
:1031400020010160E07E012839D02068016841F04B
:1031500010010160207F012837D02068016821F02C
:1031600008010160607F012835D02068016821F0E6
:1031700004010160D4E902010843D4E904121143B7
:1031800008436168491E08432168C86100206062E5
:10319000012084F82000002070BD2068016841F003
:1031A00080010160BEE72068016841F040010160D4
:1031B000C0E72068016841F020010160C2E7206893
:1031C000016821F010010160C4E72068016841F046
:1031D00008010160C6E72068016841F00401016050
:1031E000C8E700002DE9F04387B00446142102A887
:1031F000FDF77EF9384D2268384C2968DFF8D49005
:10320000364B02273648491C103400264FF0030C79
:103210004FF009084A4529D12960012907D12168C1
:1032200041F000712160216801F00071019119687D
:1032300041F002011960196801F0020101914FF497
:103240004071029103970496CDF814C0CDF8188010
:1032500002A900F001FC00220521142000F08AFDE3
:10326000142000F079FD07B0BDE8F083DFF874901A
:103270004A45F8D1226842F080622260226802F05A
:10328000806201922960012907D1216841F0007113
:103290002160216801F000710191196841F002017B
:1032A0001960196801F002010191602102910397F0
:1032B0000496CDF814C0CDF8188002A900F0CCFB1C
:1032C00000220521402000F055FD402000F044FD83
:1032D000C9E70000006400401000002030380240C0
:1032E0000004024000680040704700002DE9F041F2
:1032F00088B00646A5493068A54D884248D1E8897E
:10330000401CE881A34B01AA00213046FFF739FD9C
:103310000199A14CA1F50071013920D001292BD0D0
:10332000022902D0032933D10CE09A499B4802F0CC
:103330007EFC9A4890ED3C0A84ED190AE88A401C0C
:10334000E88225E09349964802F071FC944890ED9C
:103350003C0A84ED490A688B401C688318E08D495B
:10336000904802F064FC8F4890ED3C0A84ED310AED
:10337000E88B401CE8830BE086498B4802F057FC41
:10338000894890ED3C0A84ED010A688A401C6882F5
:1033900086483168814227D1A889401CA8817D4B8D
:1033A00001AA083B00213046FFF7EBFC0198A0F58D
:1033B00000700138DFED7E1A9FED7E1AF3EE030AEE
:1033C00015D001283ED00F2867D0A0F58070553861
:1033D0000AD170487849083802680A60774940681D
:1033E0000860E88C401CE88408B0BDE8F0816949B9
:1033F00073480839FFF77AFB714C84ED080A654978
:1034000001A80839FFF79EFB84ED090A94ED080A2C
:103410002046FDF734F994ED030AB8EEC00A20EE19
:10342000210A20EE010A80EE201A84ED0A1A94ED9A
:10343000090A80EE201A84ED0B1A35F8440F401C5F
:103440002880D1E753495F480839FFF74FFB5D4CAF
:1034500084ED080A4F4901A80839FFF773FB84ED92
:10346000090A94ED080A2046FDF709F994ED030ACC
:10347000B8EEC00A20EE210A20EE010A80EE201AE2
:1034800084ED0A1A94ED090A80EE201A84ED0B1AD5
:1034900035F8460F401C2880A6E73E480838FDF75F
:1034A00043FF49480178427841EA0221474A1180A6
:1034B0008478C37844EA032454800379467943EA44
:1034C000062696808379C07943EA0027D78008468C
:1034D0000CF076FC9FED3E1B53EC112B0CF0C0FC66
:1034E0009FED3D1B53EC112B0CF06EFF0CF024FCF8
:1034F000DFF8EC80A8F8000020460CF061FC9FED9E
:10350000391B53EC112B0CF0ABFC9FED381B53EC2B
:10351000112B0CF091F90CF00FFCA8F802003046CA
:103520000CF04EFC9FED331B53EC112B0CF098FC70
:103530009FED321B53EC112B0CF046FF9FED311B1E
:1035400053EC112B0CF040FF0CF0F6FBA8F8040034
:1035500038460CF035FC9FED2D1B53EC112B0CF075
:103560007FFC9FED2C1B53EC112B0CF02DFF9FEDDE
:103570002B1B53EC112B0CF027FF0CF0DDFBA8F8F4
:10358000060035F84A0F401C28802DE700680040EF
:10359000E85F0020FC0C0020B8000020640400203C
:1035A00078050020500300203C0200200064004009
:1035B000000000390000B443940600209806002063
:1035C000300A0020340B0020A40000202C0800202A
:1035D000AE47E17A14AEE73F5C8FC2F528BC3740B6
:1035E00024080020931804560E2DE63F355EBA4994
:1035F0000CD24340355EBA490C02F03FB81E85EB51
:1036000051886040000000000000334067D5E76A41
:103610002BF6EF3F295C8FC2F5D060400000000020
:103620000000344070477047704770B5044694F806
:103630002000012805D0606A40F40020606201206B
:1036400070BD022084F820002068016821F001018B
:10365000016000F0F1FA05460DE000F0EDFA401BC4
:103660000A2808D9606A40F400306062052084F8B6
:103670002000012070BD20684068C007EDD1606265
:1036800070BD70477047704770477047704770470C
:103690002DE9F0410446A76D00F0CEFA054694F8F6
:1036A00035000026022806D08020606584F834604A
:1036B0000120BDE8F0812068016821F01601016059
:1036C0002068416921F080014161206C08B9A06C3B
:1036D00020B12068016821F00801016020680168BC
:1036E00021F0010101600BE000F0A6FA401B052863
:1036F00006D9202034342062032060702670D8E779
:1037000020680068C007EFD134343F2094F82810B7
:103710008840B8600120607026700020C9E790F8EA
:103720003510022903D08021416501207047052111
:1037300080F835100068016821F001010160002067
:10374000704700002DE9F84304464FF00009CDF81A
:1037500000906F484FF416510068B0FBF1F7A56D6B
:103760002E6894F85C00082202FA00F1314210D071
:103770002068016849070CD5016821F00401016047
:1037800094F85C0002FA00F1A960606D40F001005D
:10379000606594F85C104FF0010808FA01F03042BF
:1037A00008D021684969090604D5A860606D40F019
:1037B0000200606594F85C1004208840304208D014
:1037C00021680968890704D5A860606D40F004008D
:1037D000606594F85C1010208840304220D0216849
:1037E000096809071CD5A8602068016849030CD541
:1037F0000068000304D4216C91B1204688470FE093
:10380000A16C69B1204688470AE00168C90503D464
:10381000016821F008010160216C09B12046884748
:1038200094F85C102020884030424CD02168096810
:10383000C90648D5A86094F8350005280BD0206843
:103840000168490330D50068000328D4616C51B386
:103850002046884737E02068016821F016010160A2
:103860002068416921F080014161206C08B9A06C99
:1038700020B12068016821F00801016094F85C1013
:103880003F208840A86084F8358084F83490216D0A
:1038900000293BD001B02046BDE8F0430847E16B6A
:1038A00009B1204688470EE00168C90507D40168C0
:1038B00021F01001016084F8358084F83490E16BC8
:1038C00009B120468847606D00281FD0606DC00791
:1038D00014D0052084F835002068016821F001012A
:1038E00001600098401C0090B84203D8206800682E
:1038F000C007F6D184F8358084F83490E16C002953
:1039000004D001B02046BDE8F0430847BDE8F88385
:10391000200000202DE9F041044600F08DF9054615
:103920005CB1022084F83500002684F834602068F9
:10393000016821F0010101600DE00120BDE8F08186
:1039400000F07AF9401B052805D920206065032086
:1039500084F83500F2E720680068C007F0D12168DC
:103960000A6820480240D4E901031843D4E903352A
:103970002B43184363691843A3691843E369184349
:10398000236A18431043626A042A03D1D4E90B2343
:103990001A43104308602068406920F00700656AF8
:1039A00029460543012704290DD1A06A0543E06A91
:1039B00048B12046FDF766FC28B14020606584F8D8
:1039C00035700120BAE7206845612046FDF744FCC8
:1039D00094F85C203F2191408160666584F83570E1
:1039E0000020ABE73F8010F02DE9F04104460025B0
:1039F000A66D94F8340001280DD0012084F834001D
:103A000094F835700020012F07D084F83400022587
:103A10002846BDE8F0810220FBE7022784F83570D4
:103A200060652046FDF76AFC94F85C103F208840F2
:103A3000B0602068016841F016010160206C20B17F
:103A40002068016841F0080101602068016841F0C8
:103A500001010160DCE700002DE9F84F0022DFF8EA
:103A60009C914FF0010803274FF00F0C09F1040A55
:103A7000A9F1040B08FA02F50B682B40AB426ED19A
:103A80000C7904F00304012C01D0022C15D18668B6
:103A9000540007FA04FE26EA0E06D1F80CE00EFAEE
:103AA00004FE4EEA060EC0F808E04468AC430D7907
:103AB000C5F300159540254345600C79E443A40700
:103AC00008D0C568540007FA04F6B5438E68A640CE
:103AD0002E43C6600C7904F00304022C11D1D408E3
:103AE00000EB8406356A5407E40E0CFA04FE25EA5E
:103AF0000E05D1F810E00EFA04FE4EEA050EC6F8E7
:103B000020E00568540007FA04F6B5430E7906F084
:103B10000306A6402E4306604C6814F4403F67D06D
:103B2000374C256845F480452560246804F48044BA
:103B30000094344C22F003052E19D6F80858940747
:103B40004FEA147E0CFA0EF4A5432F4CA04201D18B
:103B5000002424E02D4CA04202D101241FE047E0C4
:103B60002B4CA04201D1022419E02A4CA04201D1E1
:103B7000032414E0284CA04201D104240FE0274C78
:103B8000A04201D105240AE0254CA04201D106241F
:103B900005E0244CA04201D1072400E0082404FAE7
:103BA0000EF42C43C6F80848D9F800409C434D68F1
:103BB000ED0200D51C43C9F80040DAF800409C43F0
:103BC0004D68AD0200D51C43CAF80040DBF8004048
:103BD0009C434D68AD0300D51C43CBF80040074D16
:103BE000083D2C689C434E68F60300D51C432C60AE
:103BF000521C102AFFF43EAFBDE8F88F083C01408C
:103C000044380240003001400000024000040240FD
:103C100000080240000C0240001002400014024064
:103C200000180240001C0240002A01D08161704748
:103C300009048161704700000148806870470000F6
:103C400014000020024881680278114481607047A6
:103C50001400002010B50B48016841F400710160A8
:103C6000016841F480610160016841F48071016084
:103C7000032000F09FF80F2000F006F800F050F845
:103C8000002010BD003C024030B587B0054600243E
:103C90001E48016841F004010160006800F0040062
:103CA000009001A902A800F03DF90598A8B100F024
:103CB0005DF940001649B0FBF1F1491E1648154A5E
:103CC000026040F2E732C260416004618460846156
:103CD00000F060FC04461CB115E000F047F9E9E78C
:103CE0000D4800F09BFC04466CB91E2000F034F82F
:103CF000102D07D2002229461E2000F03BF807486D
:103D0000056000E0012407B0204630BD4038024085
:103D100040420F00000800409414002018000020CA
:103D200082B00C48016841F480410160006800F4F1
:103D3000804001900748001F016841F080510160F8
:103D4000006800F08050019000220F21901E02B008
:103D500000F010B844380240002809DB00F01F02D0
:103D6000012191404009800000F1E020C0F80011DD
:103D700070470000F0B40D460D4B1B68C3F30223DF
:103D8000C3F10704042C00D90424191D072901D20A
:103D9000002300E0DB1E012606FA04F1491E29403B
:103DA00099409E40761E16403143F0BC06F027BF76
:103DB0000CED00E000F00701054A10684FF6FF0324
:103DC000184040EA01200349084310607047000092
:103DD0000CED00E00000FA052DE9F04704460D4621
:103DE000002C13D0DFF82891D9F80000EFB200F0D2
:103DF0000700A8420CD289F80070D9F8000000F042
:103E00000700A84204D00120BDE8F0870120FBE7AD
:103E10002068404E810712D5400703D5306840F432
:103E2000E05030602078000703D5306840F46040EF
:103E300030603068A16820F0F000084330602078DE
:103E4000C00731D0334960680839012808D00228FA
:103E50000BD0032809D0096889070BD40120D3E7C8
:103E60000968890306D40120CEE70968890101D4D5
:103E70000120C9E7316821F0030101433160FFF7F8
:103E8000DBFE804641F2883A07E0FFF7D5FEA0EB63
:103E90000800504501D90320B6E73068616800F09A
:103EA0000C00B0EB810FF0D1D9F8000000F0070052
:103EB000A84209D989F80070D9F8000000F007007D
:103EC000A84201D001209FE72078400705D530683F
:103ED000E16820F4E050084330602078000706D500
:103EE0003068216920F4604040EAC100306000F091
:103EF0005DF83168084AC1F30311515CC8400749B5
:103F0000086007480068FFF7BFFE00207CE700005C
:103F1000003C02400838024010090108200000203F
:103F2000180000200F2202600B4A136803F00303FD
:103F30004360136803F0F0038360136803F4E053F5
:103F4000C360126802F46042D2080261034800684C
:103F500000F007000860704708380240003C02404B
:103F600001480068704700002000002000B5FFF7FE
:103F7000F7FF04490968044AC1F38221515CC84033
:103F800000BD0000083802402009010800B5FFF715
:103F9000E7FF04490968044AC1F34231515CC84053
:103FA00000BD0000083802402009010810B517487C
:103FB000006810F00C01164816D04310042912D0E6
:103FC000082911D1114C241F216801F03F022168FA
:103FD00049020AD52068C0F38810A0FB0301002322
:103FE000FCF7C2F909E0184610BD21680023C1F3AF
:103FF0008811A1FB0001FCF7B7F92168C1F3014169
:10400000491C4900B0FBF1F010BD00000838024027
:104010000024F4002DE9F84F0446002C13D020783A
:10402000DFF8A083C007A8F1040556D008F104000A
:104030000168C1F3810101290CD00068C0F381003F
:10404000022803D00DE00120BDE8F88FD8F8000069
:10405000400206D5286880033FD5606870BB012008
:10406000F2E76068B0F5803F10D0B0F5A02F12D015
:10407000286820F480302860286820F48020286098
:104080006068E0B1FFF7D8FD064614E0286840F408
:1040900080302860F4E7286840F480202860286891
:1040A00040F480302860EBE7FFF7C6FD801B6428F2
:1040B00001D90320C8E728688003F5D50DE0FFF794
:1040C000BBFD064606E0FFF7B7FD801B642801D95B
:1040D0000320B9E728688003F5D42078BA4F800719
:1040E0004FF0000948D5B748001D016811F00C0FCA
:1040F00008D00068C0F38100022813D1D8F800006E
:1041000040020FD42868800704D5E068012801D058
:10411000012099E72868216920F0F80040EAC100F1
:10412000286029E0E068B8B101203860FFF784FD1D
:10413000064606E0FFF780FD801B022801D9032018
:1041400082E728688007F5D52868216920F0F80003
:1041500040EAC10028600FE0C7F80090FFF76CFD4F
:10416000064606E0FFF768FD801B022801D9032000
:104170006AE728688007F5D42078000729D5DFF89A
:1041800044A2924861690AF1700A89B10121016073
:10419000FFF752FD064606E0FFF74EFD801B0228A2
:1041A00001D9032050E7DAF800008007F4D510E0C9
:1041B000C0F80090FFF740FD064606E0FFF73CFD23
:1041C000801B022801D903203EE7DAF800008007AF
:1041D000F4D42078400778D54FF0000A79483C3075
:1041E0000068C0000BD477483C30016841F0805132
:1041F0000160006800F0805000904FF0010ADFF885
:10420000D0B1DBF80000C00514D4DBF8000040F4A6
:104210008070CBF80000FFF70FFD064606E0FFF7C1
:104220000BFD801B022801D903200DE7DBF80000FD
:10423000C005F4D5634EA0686C3601280FD0052860
:1042400012D0306820F001003060306820F00400A7
:104250003060A068F8B1FFF7EFFC834617E03068E4
:1042600040F001003060F4E7306840F00400306056
:10427000306840F001003060EBE7FFF7DDFCA0EBB9
:104280000B0141F28830814201D90320DCE630681D
:104290008007F2D510E0FFF7CFFC834609E0FFF777
:1042A000CBFCA0EB0B0141F28830814201D9032005
:1042B000CAE630688007F2D4BAF1010F05D141484F
:1042C0003C30016821F080510160A069C0B33D49D4
:1042D000091D09684FF0FF36C1F38101022946D05C
:1042E000022805D0C7F86090FFF7A6FC04463AE024
:1042F000C7F86090FFF7A0FC814607E0FFF79CFC41
:10430000A0EB0900022801D903209DE6286880015E
:10431000F4D4D4E907010843616AA26A890106EB73
:10432000520241EA0241084394F82C1040EA01602D
:10433000C8F8000001203866FFF77EFC044607E05D
:104340003DE0FFF779FC001B022801D903207BE642
:1043500028688001F5D532E0FFF76EFC001B0228CB
:1043600001D9032070E628688001F5D427E00128F0
:1043700023D0D8F80000E26900F4800191421AD1FC
:10438000226A00F03F01914215D147F6C071626A7E
:104390000140B1EB821F0ED1A26A00F4403106EB5E
:1043A0005202B1EB024F06D194F82C1000F070606D
:1043B000B0EB016F03D0012046E6012044E6002067
:1043C00042E600000438024000004742800E4742A7
:1043D0000070004070B50446002C09D0606A0025CA
:1043E00040B125616561A56294F8510040B10CE0CF
:1043F000012070BD6068B0F5827FF4D0E561F2E71E
:1044000084F85050204600F045F8022084F851000E
:104410002068016821F040010160A088218900F432
:10442000827001F404410843A18901F4006108434A
:10443000217C01F002010843217D01F001010843C4
:10444000218B01F400710843217F01F038010843FA
:1044500094F8201001F080010843218D01F40051EF
:10446000084321680860A069042101EA104094F81B
:10447000241001F010010843216848602068C169D8
:1044800021F40061C1616565012084F851000020BC
:1044900070BD000010B586B00446142101A8FCF7D9
:1044A00027F814492068884221D100211248026867
:1044B00042F480420260006800F4804000900E48A0
:1044C0001038026842F002020260006800F0020048
:1044D00000904FF46040019002200290039103206D
:1044E00004900520059001A90448FFF7B5FA06B02D
:1044F00010BD000000380040403802400004024077
:104500007047704770B590F83C20012A31D00126E1
:1045100080F83C60022280F83D200268546893686D
:1045200024F070050C682C435460134C0268A242BE
:1045300014D0B2F1804F11D0104CA2420ED0104CCA
:10454000A2420BD00F4CA24208D00F4CA24205D081
:104550000E4CA24202D00E4CA24204D123F08003A2
:104560004968194391603C30467000210170002079
:1045700070BD022070BD000000000140000400403A
:1045800000080040000C00400004014000400140D1
:104590000018004010B50446002C03D094F83D00EC
:1045A00010B107E0012010BD002084F83C00204637
:1045B00000F016F8022084F83D00211D206805F067
:1045C00019FE01203D3460726070A070E0702071AF
:1045D0006071A071E07120722070002010BD000099
:1045E00008B500680B49884212D10B48016841F0B8
:1045F00002010160006800F0020000900022052125
:104600001D20FFF7B7FBBDE808401D20FFF7A4BB46
:1046100008BD0000000400404038024090F83D1002
:10462000012901D001207047022180F83D10016866
:10463000CA6842F00102CA6000681449884214D076
:10464000B0F1804F11D0124988420ED011498842F2
:104650000BD01149884208D01049884205D0104932
:10466000884202D00F49884209D1816801F00701D0
:10467000062908D0016841F00101016003E00168EA
:1046800041F001010160002070470000000001407E
:104690000004004000080040000C004000040140FD
:1046A000004001400018004070B50446002594F811
:1046B0003C00012817D0012684F83C60022084F8D1
:1046C0003D002068826822F0770222F47F428260F7
:1046D0000868502838D00DDC202853D005DC90B372
:1046E000102811D14EE0022070BD30284AD0402859
:1046F0000AD13DE0602831D070280CD0B0F5805F41
:1047000003D0B0F5005F12D001253C346670002064
:104710002070284670BDCB68D1E90121206805F0E2
:10472000D3FD2068816841F077018160EDE7CB68B7
:10473000D1E90121206805F0C7FD2068816841F4B6
:1047400080418160E1E71DE0CA684968206805F0A2
:10475000CDFD5021206805F0C1FDD6E7CA68496843
:10476000206805F0D4FD6021206805F0B7FDCCE796
:10477000CA684968206805F0B9FD4021206805F045
:10478000ADFDC2E722680146104605F0A7FDBCE773
:1047900070472DE9F04104462068C56806694FF06E
:1047A0000007B10714D5A90712D5F91E0161012030
:1047B000207720688069800703D02046FFF7E8FF54
:1047C00005E0204600F081F8204600F07FF82777CA
:1047D000700717D5680715D521686FF004000861C8
:1047E000022020772068806910F4407F03D02046A3
:1047F000FFF7CEFF05E0204600F067F8204600F006
:1048000065F82777300716D5280714D521686FF08B
:1048100008000861042020772068C069800703D061
:104820002046FFF7B5FF05E0204600F04EF8204691
:1048300000F04CF82777F00617D5E80615D5216863
:104840006FF010000861082020772068C06910F41C
:10485000407F03D02046FFF79BFF05E0204600F095
:1048600034F8204600F032F82777F00708D0E80740
:1048700006D021686FF001000861204600F028F89A
:10488000300608D5280606D521686FF0800008613B
:104890002046FFF735FE700608D5680606D5216864
:1048A0006FF040000861204600F0B6F8B0060AD567
:1048B000A80608D521686FF0200008612046BDE8F1
:1048C000F041FFF71EBEBDE8F08170477047000061
:1048D000F0B4474A016891427DD1464A11780529D2
:1048E00007D0062905D0072903D0082901D00929B6
:1048F00004D1D2F84811491CC2F848113E4E756DDA
:104900006D1C75653D4A1178491C11703C4A11882F
:10491000491C11803B4FF7EE000A97ED000A30EE7C
:10492000200A87ED000A10EE101A374A002491423F
:104930004CD13649CA8C8A84CC844A880A804C80FF
:10494000CA888A80CC80002201EB4203B3F80CC0F5
:10495000A3F808C09C81521C022AF5DB4A8A0A820D
:104960004C82CA8A8A82CC824A8B0A834C83CA8B45
:104970008A83CC834A8C0A844C844A8D0A854C8570
:10498000CA8D8A85CC854A8E0A864C868A8ECA86CE
:104990008C86002201EB4203B3F844C0A3F840C068
:1049A000A3F84440521C022AF4DB38314A880A80BA
:1049B0004C80CA888A80CC804A8A0A824C82CA8A01
:1049C0008A82CC829FED120A87ED000A192D05DB41
:1049D0007465012100E001E086F8581000680D4977
:1049E000884202D1F0BCFFF72DB9F0BC704700003F
:1049F0000004004090080020AC060020B000002019
:104A0000A8060020AC00002000007A44E85F0020E7
:104A10000000000000080040704738B5044694F8D4
:104A20004200202801D0022038BD71B16AB10120B6
:104A3000206300206063204605F08EFE0346206B55
:104A4000012804D00123184638BD012038BD206854
:104A500001684068009020680C3050E8001F41F069
:104A6000100140E80012002AF5D1ECE7F0B5044649
:104A70002DED028B81B021680868486800900868B5
:104A8000486800900868486800903F483F4D814260
:104A900013D1688C401C68843D4E306840683D49A5
:104AA000C0F11400088009223B493C48FFF7B5FFDC
:104AB0003068016821F008010160394920688842A6
:104AC00040D1688D401C68851121364805F024FDD1
:104AD000354FB2EE048A354EB86800EE100A20EE6B
:104AE000080A86ED020A32490978092911D100EE37
:104AF000100ADFED300ADFED308A40EE080A30EEB2
:104B0000A80ADFED2E0A06F0E7FD30EE680A86ED12
:104B1000020A786800EE100A20EE080A86ED000A04
:104B2000386800EE100A20EE080A86ED010A11220C
:104B30001C492348FFF771FF22480068016821F0F3
:104B40000801016020492068884219D11F48017876
:104B500066290AD190F82500992806D11C4805F04D
:104B60001BFF35F84E0F401C288026221749194894
:104B7000FFF753FF18480068016821F00801016041
:104B800001B0BDEC028BF0BD004C0040E85F00209E
:104B9000D4100020B2000020C85E00206C0F00205E
:104BA0000044004074600020D4600020045F0020B6
:104BB00090080020000061440000E14400006145CD
:104BC000441000201413002000500040105F00200B
:104BD000385F0020B40F00209411002010B5044667
:104BE00020684069C0F3C01094F84110212911D108
:104BF00080B12068143050E8001F21F0800140E8A7
:104C00000012002AF5D1A06B08B1FEF741FD204645
:104C100005F074FC20684069C0F3801094F84210DD
:104C2000222911D180B12068143050E8001F21F0F2
:104C3000400140E80012002AF5D1E06B08B1FEF710
:104C400027FD204605F026FC002010BD10B50446C7
:104C50001B49206888420AD109221A491A48FFF7DD
:104C6000DCFE1A480068016821F00801016018495B
:104C7000206888420AD1262216491748FFF7CDFE40
:104C800016480068016821F0080101601449206895
:104C9000884204D103221349134800F08FFB1349C3
:104CA000206888420AD1112211491248FFF7B5FE47
:104CB00011480068016821F00801016010BD000082
:104CC000004C0040C85E00206C0F0020D410002073
:104CD00000500040105F0020B40F0020941100200D
:104CE000001001408C060020FC0F00200044004012
:104CF000746000204410002014130020F8B504460E
:104D000022681068D168536900F00F06002E08D1A0
:104D1000850606D58D0604D52046BDE8F84005F089
:104D20002DBC0025002E66D003F0010601F490771B
:104D3000374360D0C20705D0CA0503D5626C42F084
:104D400001026264420705D5DA0703D0626C42F0C3
:104D500002026264820705D5DA0703D0626C42F072
:104D600004026264020707D501F02002324303D037
:104D7000626C42F008026264626C002A31D08006E4
:104D800004D5880602D5204605F0F8FB2068406966
:104D9000C0F38010616C090700D438B3204605F0D9
:104DA00079FB2068406940061CD52068143050E823
:104DB000001F21F0400140E80012002AF5D1E06B0D
:104DC00060B15F490165E06BFEF7A9FC002808D0DF
:104DD000E06B016D01B0BDE8F04008472046FFF7E9
:104DE00035FFF8BD2046FFF731FFF8BD2046FFF73D
:104DF0002DFF6564F8BD236B012B7DD1C3067BD5E8
:104E0000CB0679D510685068009050694FF02003A8
:104E100040064FF002064FD5E26B1068406880B242
:104E2000DF00E8B3A18D81423BD9E085D069B8426B
:104E30002DD020680C3050E8001F21F4807140E82C
:104E40000012002AF5D12068143050E8001F21F02C
:104E5000010140E80012002AF5D12068143050E822
:104E6000001F21F0400140E80012002AF5D184F82B
:104E70004230256320680C3050E8001F21F01001FB
:104E800040E80012002AF5D1E06BFEF701FC6663F2
:104E9000A08DE18D401A81B22046FFF7E7FDF8BDF5
:104EA000FFE7A18D8142FAD1D069B842F7D166639C
:104EB0002046FFF7DBFDF2E7A08DE18D401A81B2BD
:104EC000E08D0028EBD00029E9D020680C3050E8B4
:104ED000002F22F4907240E80027002FF5D12068BF
:104EE000143050E8002F22F0010240E80027002F84
:104EF000F5D184F8423000E00FE0256320680C30E3
:104F000050E8002F22F0100240E80023002BF5D1DA
:104F100066632046FFF7AAFDC1E7020606D50A062A
:104F200004D52046BDE8F84005F068BC4006B6D57B
:104F30004806B4D52046BDE8F84005F0D2BA0000D6
:104F40004DA3000870B50446002C04D094F841002D
:104F5000002510B106E0012070BD84F840502046C5
:104F600000F024F8242084F841002068C16821F46E
:104F70000051C160204605F065FB2068016921F4FD
:104F8000904101612068416921F02A014161206856
:104F9000C16841F40051C1606564202084F841007B
:104FA00084F842006563002070BD00002DE9F04FD9
:104FB00087B00446142102A8FBF79AFAF149F24897
:104FC000DFF8BCE3D4F800C0EE4A10390123032710
:104FD000002506154FF0020B4FF0080A4FF040086D
:104FE0004FF00069F44554D1D2F800C04CF4002CC5
:104FF000C2F800C0126802F4002201920A6842F06E
:1050000004020A60096801F004010191B9020291E9
:10501000CDF80CB004930597CDF818A002A9FEF7BF
:105020001BFDDB4FD9483860C7F80490BD60FD60B8
:105030003E617D61BD61FD613D627D623846FEF786
:1050400069FC08B1FDF76BFBE763BC63CF48D04F49
:10505000303060373860C7F80490C7F80880FD60CA
:105060003E617D61BD61FD613D627D623846FEF756
:1050700051FC08B1FDF753FBA763BC630022052177
:105080003420FEF777FE3420FEF766FE07B0BDE859
:10509000F08FDFF800E3F4456AD1D2F800C04CF499
:1050A000801CC2F800C0126802F4801201920A68E3
:1050B00042F004020A600A6802F0040201920A68DF
:1050C00042F008020A60096801F0080101914FF4FA
:1050D00080510291CDF80CB0012104910597CDF8D3
:1050E00018A002A9FEF7B8FC04200290CDF80CB07D
:1050F000012004900597CDF818A002A9A648FEF754
:10510000ABFCA248A24F3038C0373860C7F80490D3
:10511000BD60FD603E617D61BD61FD613D627D629E
:105120003846FEF7F7FB08B1FDF7F9FAE763BC6311
:1051300096489A4F78303860C7F80490C7F80880CE
:10514000FD603E617D61BD61FD613D627D6238460D
:10515000FEF7E0FB08B1FDF7E2FAA763BC630022AB
:1051600005213520FEF706FE3520FEF7F5FD8DE71B
:10517000844BDFF82CE21B1DF44553D1186840F036
:1051800010001860186800F010000190086840F0E6
:1051900001000860086800F0010001904FF4C06051
:1051A0000290CDF80CB0049505970720069002A94F
:1051B0007C48FEF751FC794F7B4860373860C7F870
:1051C0000490BD60FD603E617D61BD61FD613D6239
:1051D0007D623846FEF79EFB08B1FDF7A0FAE76353
:1051E000BC6371486D4F7830C0373860C7F80490A1
:1051F000C7F80880FD603E617D61BD61FD613D6273
:105200007D623846FEF786FB08B1FDF788FAA76392
:10521000BC63002205212520FEF7ACFD2520FEF70A
:105220009BFD33E7DFF884E1F44552D1106840F488
:1052300000301060106800F400300190086840F001
:1052400008000860086800F00800019060200290E3
:10525000CDF80CB0049505970720069002A94E489A
:10526000FEF7FAFB4948524F48303860C7F80490BF
:10527000BD60FD603E617D61BD61FD613D627D623D
:105280003846FEF747FB08B1FDF749FAE763BC6310
:105290003E48474F603060373860C7F80490C7F821
:1052A0000880FD603E617D61BD61FD613D627D62A2
:1052B0003846FEF72FFB08B1FDF731FAA763BC6350
:1052C000002205212620FEF755FD2620FEF744FD8D
:1052D000DCE6384A9445A4D11A6842F020021A60EC
:1052E0001A6802F0200201920A6842F004020A6081
:1052F000096801F004010191C0210291CDF80CB0C0
:1053000004950597CDF818A002A9FEF7A5FB26483D
:10531000274F1838C03738604FF02069C7F804901D
:10532000BD60FD603E617D61BD61FD613D627D628C
:105330003846FEF7EFFA08B1FDF7F1F9E763BC6311
:1053400019481D4F60303860C7F80490C7F80880CE
:10535000FD603E617D61BD61FD613D627D623846FB
:10536000FEF7D8FA08B1FDF7DAF9A763BC630022AB
:1053700005214720FEF7FEFC4720FEF7EDFC85E601
:10538000004C0040403802400008024040600240AB
:10539000D410002000500040000C0240F411002006
:1053A0000010014000000240406402400044004000
:1053B00014130020001401403414002090F84230EF
:1053C000202B01D00220704721B11AB100230363C2
:1053D00005F0C2B9012070477047704737B50446E1
:1053E00094F84100202801D002203EBD019919B354
:1053F00012B32162A284E28400206064212384F835
:105400004130A56B154BEB63A56B154B2B64A56B5E
:10541000144BEB64A36B186520681346001DA56B45
:1054200002462846FEF7E0FA40B1102060642020D2
:1054300084F8410001203EBD01203EBD21686FF08F
:10544000400008602068143050E8001F41F08001DF
:1054500040E80012002AF5D100203EBD49A4000812
:105460008BA400085BA3000800680449884203D1AC
:105470000348418F491C41877047000000100140DC
:10548000E85F00207047FEE790ED011AD0ED021AA8
:1054900071EE211AC0ED011A90ED041A30EE602A67
:1054A000F0EEC22A90ED052AF4EEC22AF1EE10FACF
:1054B00003DD90ED062A22EE011A90ED032A31EE6B
:1054C000822AC1EE822A90ED002A30EE420A02EED4
:1054D000802AB7EE003A33EE620A61EE801A31EEAE
:1054E000810A81EE801A70EEC20AB0EE420A01EE25
:1054F000200A80ED000A73EE410A61EEA00AC0EDB9
:10550000010A70474FF440744FF4806501220D4941
:105510000D48FFF763FF01230C4A21460C4804F0B5
:10552000A3FB01230B4A2946094804F09DFBFBF726
:1055300075FBFBF701FE05F05DFA012009F030FB79
:10554000E4E700009C060020441000207A0C0020B4
:105550007C0E00207D0C0020074C07F0C9FD074998
:10556000074805F0DBF904F0DFFAE08D401CE08528
:10557000012009F015FBF0E7E85F0020785F0020CC
:10558000900800204748484BD0ED000AC3ED000AC0
:1055900090ED011A83ED051AD0ED021AC3ED0A1A37
:1055A00090ED032A83ED0F2A0420411E03EB8101B5
:1055B00093ED143A91ED000A03EB800270EEC02ADD
:1055C00003EE220A82ED000A91ED050A93ED143AEA
:1055D00071EE402A03EE220A82ED050A91ED0A0AD5
:1055E00093ED143A71EEC02A03EE220A82ED0A0A04
:1055F00091ED0F0A93ED143A72EE402A03EE220A5F
:1056000082ED0F0A401E0028CFDC9FED280AF0EE45
:10561000400AB0EE401AF0EE401A002003EB800181
:1056200091ED002A32EE000A91ED052A72EE200A71
:1056300091ED0A2A32EE011A91ED0F2A72EE211A2B
:10564000401C0528EADBB1EE042A1948C0EE022A04
:10565000B3EE0F0A32EE800A80ED000A80EE820A75
:10566000DFED140A30EE200AF0EE080A30EE200AD0
:1056700080ED010AC1EE020A9FED0F0A30EEC00A6A
:1056800080ED020AC1EE820A9FED0C1A60EE810ADB
:105690009FED0B1AC0EE811AC0ED031A094880ED88
:1056A000020A7047385F0020AC06002000000000AE
:1056B000B05F002000D085450080C5430000E14474
:1056C000DB0F4940785F0020F7EE000A90ED030AF7
:1056D000D0ED041AB0EE601A00EE211A80EE810AB5
:1056E00090ED021A70EEC00A60EE810A90ED001A89
:1056F00040EE010AC0ED010AC0ED000A704700004B
:10570000F0B5374A374C0025D2ED080A94ED000A6F
:1057100000EB40010127F4EE400AC1EBC010F1EEAE
:1057200010FA4FF6FF71304E01EAC00308D0158021
:105730009380D6ED0A0AC2ED040A82ED060A97812B
:10574000908990B19088D2ED061A00EE100A108868
:10575000D2ED040AB8EE401A00EE100AB8EE400A84
:1057600007F0C0FE82ED0A0A03E092ED060A82ED20
:105770000A0A94ED000A82ED080AD2ED090AB1EE98
:10578000400AF4EE400AF1EE10FA08D05580D380BA
:10579000D6ED0A0AC2ED050A82ED070AD781D08943
:1057A00090B1D088D2ED071A00EE100A5088D2EDE1
:1057B000050AB8EE401A00EE100AB8EE400A07F0EB
:1057C000DDFE82ED0B0A03E092ED070A82ED0B0A83
:1057D00094ED000AB1EE400A82ED090AF0BD000026
:1057E0004C0E0020740C0020300A002010B5104828
:1057F0000E4901600321416000218160C1604FF4C6
:10580000002202614FF44012426101760122427689
:105810008276C27601774177FDF73AFC002803D003
:10582000BDE81040FCF77BBF10BD000000640040E5
:105830007C0E002010B510480E4901600321416024
:1058400000218160C1604FF4002202614FF44012D8
:1058500042610176012242768276C27601774177F3
:10586000FDF716FC002803D0BDE81040FCF757BF39
:1058700010BD000000680040A40E002008B53148AB
:10588000016841F480010160016801F48001009128
:10589000016841F400110160006800F400100090FC
:1058A000002205210B20FEF765FA0B20FEF754FAC3
:1058B000002205210D20FEF75DFA0D20FEF74CFABF
:1058C000002205210F20FEF755FA0F20FEF744FABB
:1058D000002205211020FEF74DFA1020FEF73CFAB9
:1058E000002205211120FEF745FA1120FEF734FAB7
:1058F000002205212F20FEF73DFA2F20FEF72CFA7B
:10590000002205213920FEF735FA3920FEF724FA66
:10591000002205213A20FEF72DFA3A20FEF71CFA64
:10592000002205214520FEF725FA4520FEF714FA4E
:10593000002205214620FEF71DFABDE8084046205A
:10594000FEF70ABA3038024010B50E4A00210E4860
:1059500008F0D4F80D4C20600A4A002124320C488B
:1059600008F0CCF86060074A00214832094808F086
:10597000C5F8A060034A00216C32074808F0BEF861
:10598000E06010BD78080108AD9C00080000002010
:10599000A998000859550008055500082DE9F0435D
:1059A00087B0142102A8FAF7A3FD00272B4801684D
:1059B00041F080010160016801F0800101910168FE
:1059C00041F002010160016801F0020101910168EA
:1059D00041F008010160016801F0080101910168CE
:1059E00041F004010160016801F0040101910168C6
:1059F00041F001010160006800F001000190DFF852
:105A000060804FF48054002221464046FEF70CF996
:105A1000DFF850902611002231464846FEF704F97F
:105A200002940124039404940325059502A9404699
:105A3000FEF712F8029603940494059502A94846CD
:105A4000FEF70AF8600202900397049402A9484600
:105A5000FEF702F807B0BDE8F083000030380240DE
:105A600000040240000C024010B50F480D490160CF
:105A70004FF48271416000218160C1600161416128
:105A80004FF400728261C1610162416281620A2148
:105A9000C162FEF79FFC002803D0BDE81040FCF770
:105AA0003EBE10BD00380040CC0E002010B586B0C0
:105AB00000240294039404940594009401941448DF
:105AC0001249016040F28F61416084603121C16000
:105AD00004618461FEF75EFD08B1FCF720FE4FF41F
