:020000040800F2
:10000000300A002079020008793900080F3500080D
:1000100075390008E7050008B3400008000000003B
:10002000000000000000000000000000A13C0008EB
:10003000F7060008000000007D390008813E000836
:10004000930200089302000893020008930200083C
:10005000930200089302000893020008930200082C
:10006000930200089302000893020008930200081C
:10007000930200089302000893020008930200080C
:1000800093020008930200089302000893020008FC
:100090009302000801070008930200089302000879
:1000A00093020008930200089302000893020008DC
:1000B000053F0008153F0008253F0008930200088F
:1000C00093020008930200089302000893020008BC
:1000D00093020008930200089302000893020008AC
:1000E000930200089302000893020008930200089C
:1000F000930200089302000893020008930200088C
:100100009302000893020008353F0008930200089C
:10011000930200089302000893020008930200086B
:10012000930200089302000893020008930200085B
:10013000930200089302000893020008930200084B
:10014000930200089302000893020008930200083B
:10015000930200089302000893020008930200082B
:10016000930200089302000893020008930200081B
:10017000930200089302000893020008930200080B
:1001800093020008930200089302000893020008FB
:100190009302000800000000110700089302000805
:1001A00093020008930200089302000893020008DB
:1001B00093020008930200089302000893020008CB
:1001C00093020008930200089302000893020008BB
:1001D000930200089302000800F002F800F03CF8D7
:1001E0000AA090E8000C82448344AAF10107DA4592
:1001F00001D100F031F8AFF2090EBAE80F0013F0A8
:10020000010F18BFFB1A43F001031847604A0000B2
:10021000804A0000103A24BF78C878C1FAD8520743
:1002200024BF30C830C144BF04680C607047000070
:100230000023002400250026103A28BF78C1FBD8EF
:10024000520728BF30C148BF0B6070471FB504F08C
:10025000F3FC1FBD10B510BD00F058F81146FFF7B4
:10026000F5FF04F047F800F076F803B4FFF7F2FF6B
:1002700003BC00F07DF800000948804709480047AA
:10028000FEE7FEE7FEE7FEE7FEE7FEE7FEE7FEE746
:10029000FEE7FEE704480549054A064B70470000A3
:1002A000F13E0008D901000830040020300A002087
:1002B00030060020300600204FF0000200B5134643
:1002C00094469646203922BFA0E80C50A0E80C5076
:1002D000B1F12001BFF4F7AF090728BFA0E80C5027
:1002E00048BF0CC05DF804EB890028BF40F8042B20
:1002F00008BF704748BF20F8022B11F0804F18BF8D
:1003000000F8012B7047704770477047754600F042
:100310002BF8AE4605006946534620F00700854697
:1003200018B020B5FFF7B6FFBDE820404FF000063B
:100330004FF000074FF000084FF0000B21F00701CD
:10034000AC46ACE8C009ACE8C009ACE8C009ACE810
:10035000C0098D46704710B50446AFF300802046B3
:10036000BDE81040FFF781BF00487047D003002070
:1003700001491820ABBEFEE72600020070470000CE
:100380001FB50024002210214FF0904001F066F9C3
:1003900000BF0221214801F04FF90128F9D0FC20CB
:1003A000039000200290431E012203A91C4802F082
:1003B00073FA4FF0FF33012202A9194802F06CFAD8
:1003C00000BF0221154801F037F90128F9D00120BA
:1003D0000190831E012201A9114802F05DFA01205B
:1003E00003F066FF00200090431E032269460C487C
:1003F00002F076F99DF8000000049DF8011040EA33
:1004000001209DF8021040EA0104012210214FF062
:10041000904001F023F9204604B010BD00080048C8
:10042000E001002013B582B00446002210214FF0F5
:10043000904001F013F900BF0221134801F0FCF8CD
:100440000028F9D104F00F0040F0500001904FF067
:10045000FF33012201A90D4802F01EFA002000908E
:10046000431E01226946094802F016FA4FF0FF3395
:10047000012203A9054802F00FFA012210214FF0D2
:10048000904001F0EBF81FBD00080048E00100209B
:1004900000B589B001220421444801F0DFF80022B0
:1004A00010214FF0904001F0D9F8002204213F487C
:1004B00001F0D4F8642000F001FB012204213B4844
:1004C00001F0CCF80A2000F0F9FA00BF0221374809
:1004D00001F0B2F80128F9D035A0006808904FF07B
:1004E000FF33012208A9334802F0D6F90020079013
:1004F000431E012207A92F4802F0CEF900BF0221B6
:100500002A4801F099F80128F9D02BA0006805903D
:100510004FF0FF33032205A9264802F0BDF927A0BA
:10052000006804904FF0FF33032204A9214802F031
:10053000B3F923A0006803904FF0FF33032203A90F
:100540001C4802F0A9F91FA0006802904FF0FF3389
:10055000032202A9174802F09FF91BA0006801902E
:100560004FF0FF33022201A9124802F095F96420EE
:1005700000F0A4FA00BF02210C4801F05DF8012848
:10058000F9D012A0006806904FF0FF33012206A9AF
:10059000084802F081F9012210214FF0904001F04B
:1005A0005DF801200A49087009B000BD0008004844
:1005B000FC000000E001002050000600510008008F
:1005C000520000005300E00054000000F000000062
:1005D0000100002010B5044621460120FFF722FF4C
:1005E000FFF7CEFE10BD00BFFEE7000010B52648A5
:1005F00000782649087024480088000A487024487A
:100600000078887022480088000AC8702148007865
:10061000087120480088000A48711F4800788871D6
:100620001D480088000AC87101231C4A4FF4087154
:100630001B4800F043F80823144A4FF4047118488B
:1006400000F03CF817480078082807D003F092FB28
:1006500014480078401C1349087002E0002011493A
:10066000087011480088B0F5C87F07DB4FF40051CF
:100670000E4800F0E9FF00200B4908800A48008876
:10068000401C0949088010BD4800002008010020D6
:100690004A0000204C0000204E0000206100002095
:1006A00018010020600000205800002000080048C9
:1006B00010B503F095FD03F0C7FD10BDF0B589B08E
:1006C00006460C4617461D460094002001900290F5
:1006D00003950490059006900790089000BF30465F
:1006E00000F0C0FB0028FAD03A466946304600F0D8
:1006F0008AFA09B0F0BD704772B600BFFEE700008D
:1007000010B5024800F0B6FB10BD00001801002033
:1007100010B5024800F0AEFB10BD00007C010020C7
:1007200010B51D4A1D4C0368A34201D102F5547255
:100730001B4C0368A34201D102F5D4620264036832
:10074000D3F8803023F4F814838E44EA034304681A
:10075000C4F8803002F1700343640368D3F880303A
:1007600023F0706490F8383044EA03630468C4F8F6
:10077000803002F1B0038364D833C364D833036597
:1007800018334365114602E000230B60091D02F592
:1007900054739942F8D310BD00A400400068004093
:1007A000006C00402DE9F041054614461E46D1F884
:1007B00004C0BCF1000F0AD1D1F810C0D1F80880F4
:1007C0004CEA080CB1F800804CEA88430BE0D1F801
:1007D00010C04CF0804CD1F808804CEA080CD1F8DD
:1007E00000804CEA080391F82080D1F81CC04CEA44
:1007F000086CD1F818804CEA080CD1F814804CEA47
:10080000080CB1F80C804CEA084706EBC608D5F88E
:1008100054C00CEBC8021360121D1760121D00209B
:1008200019E000F1030C14F80CC04FEA0C6800F159
:10083000020C14F80CC048EA0C4800F1010C14F842
:100840000CC048EA0C2C14F800804CEA080CC2F8E2
:1008500000C0121D001DDFF81480D1F80CC018F87C
:100860000CC08445DDD8BDE8F0810000424C000892
:1008700010B52DED048B002000F070F8B0EE409A1A
:10088000F0EE609A9FED2B0B53EC102B51EC190BF3
:1008900003F0EAFF294A41EC180B03C203F08CFF76
:1008A00027490880012000F059F8B0EE409AF0EE98
:1008B000609A9FED200B53EC102B51EC190B03F0B9
:1008C000D3FF204A41EC180B03C203F075FF1E4909
:1008D0000880022000F042F8B0EE409AF0EE609AF4
:1008E0009FED140B53EC102B51EC190B03F0BCFFD4
:1008F000164A41EC180B03C203F05EFF144908804E
:10090000032000F02BF8B0EE409AF0EE609A9FEDD5
:10091000090B53EC102B51EC190B03F0A5FF0D4AFA
:1009200041EC180B03C203F047FF0B490880BDECF4
:10093000048B10BD0000000000408F400800002024
:1009400048000020100000204A000020180000206D
:100950004C000020200000204E0000202DE9F04136
:100960002DED048B0446002600270CB900251AE063
:10097000012C01D1102516E0022C01D1202512E016
:10098000032C01D130250EE0042C01D140250AE0D2
:10099000052C01D1502506E0062C01D1602502E08E
:1009A000072C00D17025002637E045F00800FFF73E
:1009B00011FE394908600846006800F4000080B163
:1009C00008460068C043086008460068C0F3160087
:1009D000086008460068401C0860084600684042FD
:1009E00008602D48006803F014FF41EC190B9FEDDF
:1009F0002B0B53EC102B03F037FF41EC180B29485D
:100A000090ED000B53EC102B51EC180B03F02CFF66
:100A1000254A02EBC60203C2761C244800788642AF
:100A2000C3DB002714E0204800EBC70090ED001B5B
:100A3000B0EE410AF0EE610A53EC102B1C4890ED29
:100A4000001B51EC110B03F0B7FC194A03C27F1CC9
:100A5000164800788742E6DB1448007803F0F0FE81
:100A600041EC180B9FED130B53EC102B104890ED3D
:100A7000000B51EC100B03F0F7FE41EC190B53EC9B
:100A8000182B03F041FD0A4A03C2094890ED000B00
:100A9000BDEC048BBDE8F081C00000200000000028
:100AA000D012E33FB800002078030020C4000020EB
:100AB000C80000208DEDB5A0F7C6B03E70B5044665
:100AC00000F0D2FD06462546681C10B104480068B7
:100AD000054400BF00F0C8FD801BA842FAD370BDDA
:100AE0009C00002070B50346144693F85C5001F456
:100AF000C07000B100BF012D01D0022D7DD118685A
:100B0000826D01F0070010B102F0010018B301F08E
:100B1000380010B102F00200E8B101F4E07010B149
:100B200002F00400B8B101F4F05010B102F0080076
:100B300088B101F4604010B102F0100058B101F426
:100B4000403010B102F0200028B101F47C0040B127
:100B500002F0400028B91868C06D40F001001E681E
:100B6000F06501F0070010B102F0010018BB01F0C0
:100B7000380010B102F00200E8B901F4E07010B1E1
:100B800002F00400B8B901F4F05010B102F008000E
:100B900088B901F4604010B102F0100058B901F4B6
:100BA000403010B102F0200028B901F47C0040B1BF
:100BB00002F0400028B11868C06D40F002001E68C5
:100BC000F06501F0800030B11868D0F8DC002043F7
:100BD0001E68C6F8DC0001F4807030B11868D0F8E7
:100BE000E00020431E68C6F8E0001868406D084326
:100BF0001E687065002070BDFFE7186E40F00200AF
:100C000018660120F7E72DE9F04104460E46174625
:100C1000706800B900E000BF94F85C00022821D1A0
:100C20002068D0F8C40000F4001030B1206E40F409
:100C3000007020660120BDE8F0812068D0F8C40073
:100C4000C0F301452B463A4631462046FFF7AAFD40
:100C50000120A8402168C1F8CC000120A840A0656F
:100C60000020E8E7206E40F0080020660120E2E75F
:100C7000F0B5024692F85C60012E01D0022E23D11D
:100C8000086880B9087A80070F7B40EAC7600F8A3E
:100C900040EA07404F6940EA0704176C486807EBD1
:100CA00080031C600EE00F7B086940EA47740F7AEE
:100CB000486940EA8775576C486807EBC0031C60B9
:100CC0001B1D1D600020F0BD106E40F0020010667C
:100CD0000120F8E770B50446049D94F85C000128F3
:100CE00010D1080140EA820040EA43002843266808
:100CF000D6F8806026F03F0630432668C6F88000AC
:100D0000002070BD206E40F0040020660120F8E74E
:100D1000704770472DE9F04304460E469C46002379
:100D200094F85C80B8F1020F7DD1402E25D1206867
:100D3000D0F8900000F00F0030B9206E40F48070C1
:100D400020660120BDE8F0832068D0F89000C0F351
:100D5000006030B12068D0F88000C0F3402000B1BE
:100D600001232068D0F89000C0F30120034403EB76
:100D7000C309A06C00EBC90123E02068D0F89800FB
:100D800000F00F0028B9206E40F48070206601202A
:100D9000D8E72068D0F89800C0F3006030B1206830
:100DA000D0F88000C0F3002000B101232068D0F803
:100DB0009800C0F30120034403EBC309E06C00EB8F
:100DC000C901086800F080405060506820B9086888
:100DD000C0F38A40106003E0086820F060401060B3
:100DE000086800F000509060086800F00040106152
:100DF000091D088880B2D0610868C0F30340D06044
:100E0000086800F480105061086800F400109061D8
:100E10000868C0F3066010620868C00F5062091DC0
:100E20000F46002504E015E0785D0CF805006D1C08
:100E3000DFF82C90D06819F80000A842F4D8402EB2
:100E400003D12068C0F8943002E02068C0F89C30DC
:100E5000002077E7206E40F008002066012071E74F
:100E6000424C000801460A68D2F8C42002F007008C
:100E7000704770472DE9FC5F04462068006D00F460
:100E8000E0572068406D07402068006D00F00708BB
:100E90002068406D00EA08082068006D00F03809FD
:100EA0002068406D00EA09092068006D00F4710AAD
:100EB0002068406D00EA0A0A2068006D00F4602B8B
:100EC0002068406D00EA0B0B2068456D2068066DB8
:100ED000C6F3801040B1C5F3801028B140202168CE
:100EE00008652046FFF7C5FFC6F30020A0B1C5F393
:100EF000002088B12068D0F8D80000902068D0F891
:100F0000E0000099084000904FF480702168086567
:100F10002046009900F0A5FA2FB1206807653946F0
:100F2000204600F0A0FAB8F1000F06D02068C0F803
:100F300050804146204600F029FAB9F1000F06D052
:100F40002068C0F850904946204600F057FAC6F392
:100F5000402048B1C5F3402030B14FF40070216803
:100F60000865204600F080FAC6F3C01098B1C5F3BA
:100F7000C01080B12068D0F8D40001902068D0F86B
:100F8000DC00019908400190802021680865204616
:100F9000019900F067FAC6F3403048B1C5F340301C
:100FA00030B14FF4005021680865204600F058FA2F
:100FB000C6F3C03048B1C5F3C03030B14FF4004083
:100FC00021680865204600F04AFAC6F3803050B127
:100FD000C5F3803038B14FF4804021680865206E39
:100FE00040F080002066BBF1000F06D02068C0F8FA
:100FF00050B059462046FFF78CFEBAF1000F06D0DC
:101000002068C0F850A0206E40EA0A002066206EDA
:1010100010B12046FFF77CFEBDE8FC9F70B504468A
:101020000CB9012070BD81492068884200D100BF01
:10103000A068B0F5407F00D100BF94F85C0028B9EB
:10104000002084F85D00204600F0F4F820688069F4
:1010500020F010002168886100F006FB05460DE0D5
:1010600000F002FB401B0A2808D9206E40F0010066
:101070002066032084F85C000120D3E720688069A3
:1010800000F008000828EBD02068806940F00100DB
:101090002168886100F0E8FA05460DE000F0E4FA06
:1010A000401B0A2808D9206E40F00100206603206A
:1010B00084F85C000120B5E72068806900F0010039
:1010C0000028EBD02068806940F002002168886128
:1010D00056492068884202D1554960680860207CE2
:1010E000012806D12068806920F0400021688861CD
:1010F00005E02068806940F0400021688861607CDC
:10110000012806D12068806940F480402168886108
:1011100005E02068806920F4804021688861A07C17
:10112000012806D12068806920F4805021688861F8
:1011300005E02068806940F480502168886120685B
:10114000806920F44070A1680843216888612068A4
:10115000806920F0A400216888612068006920F07F
:10116000100021680861E068012806D120688069C4
:1011700040F004002168886120E0E068F0B1E06898
:10118000022815D02068806940F0800021688861BD
:101190002068006940F0100021680861E0680328B9
:1011A0000CD12068806940F020002168886105E04A
:1011B0002068806940F0200021688861207E401E00
:1011C0004106E069401E41EA0020216A491E0843A9
:1011D000A18A491E40EA01402168C861A068B0F5B3
:1011E000407F0FD1A06A401EE16A491E40EA0121FA
:1011F000206B401E41EA0011A08C401E41EA0040D5
:101200002168C8602068D0F8C000E16B08432168FD
:10121000C1F8C0002046FFF783FA0020A0652066D1
:10122000012084F85C000020FCE60000006400401F
:101230000065004010B59CB00446142117A8FFF7C4
:101240003BF8542102A8FFF737F84B492068884241
:1012500045D1801402904003109002A800F070FB6A
:1012600008B1FFF749FA45480068401C4349086047
:101270000846006801280DD100BF4148806D40F04C
:1012800000703F4988650846806D00F0007001904D
:1012900000BF00BF00BF3A48C06C40F001003849B1
:1012A000C8640846C06C00F00100019000BF00BF98
:1012B0004FF4C050179002201890002019901A90F7
:1012C00009201B9017A9C00600F0D0F80022114693
:1012D000152000F04DFA152000F036FA49E02949B2
:1012E0002068884245D1801402904003109002A8E3
:1012F00000F026FB08B1FFF7FFF920480068401C0A
:101300001E4908600846006801280DD100BF1C482E
:10131000806D40F000701A4988650846806D00F0C5
:101320000070019000BF00BF00BF1548C06C40F0C6
:1013300002001349C8640846C06C00F00200019026
:1013400000BF00BF4FF440501790022018900120BA
:10135000199003201A9009201B9017A90A4800F041
:1013600085F800221146562000F002FA562000F0BF
:10137000EBF91CB010BD000000640040900000209C
:1013800000100240006800400004004830B58DB0F5
:1013900005460C4604F0010028B301AB03AA402126
:1013A0001248FFF7B7FC0398B0F5407F13D1002037
:1013B00004E001A9095C0E4A1154401C06998142BF
:1013C000F7D80B4800780B4908800B480088401C70
:1013D0000949088000E000BF00BF00220121284623
:1013E000FFF780FB00BF0DB030BD000018010020EA
:1013F000A40000205A0000207000002030B58DB0FD
:1014000005460C4604F0080070B101AB03AA412167
:101410000648FFF77FFC00BF00BF00BF0022082185
:101420002846FFF75FFB00BF0DB030BD7C010020F8
:10143000014691F85C0001280BD1022081F85C0084
:101440000868806920F001000A6890610020086641
:101450007047086E40F0040008660120F8E7704706
:1014600070477047704770477047000078B5024674
:101470000B460021CAE001268E401D6805EA0604DD
:10148000002C73D01D7905F00305012D04D01D79C2
:1014900005F00305022D13D190684E000325B540D9
:1014A000A8434E00DD68B540284390605068012590
:1014B0008D40A8431D79C5F300158D402843506029
:1014C0001D7905F00305032D09D0D0684E000325D2
:1014D000B540A8434E009D68B5402843D0601D79B3
:1014E00005F00305022D13D1CE0802F1200555F8B1
:1014F00026004D07EE0E0F25B540A8434E07F60E09
:101500001D69B5402843CE0802F1200545F82600A4
:1015100010684E000325B540A8431D7905F003056A
:101520004E00B540284310605D6805F44035002D3D
:101530006BD000BF384D2D6E45F00105364E356637
:1015400035462D6E05F00105009500BF00BF4FEA3E
:10155000B6358E0855F826008D072E0F0F25B5409D
:10156000A843B2F1904F02D100251AE04DE02B4D77
:10157000AA4201D1012514E0294DAA4201D1022538
:101580000FE0284DAA4201D103250AE0264DAA42C8
:1015900001D1042505E0254DAA4201D1052500E031
:1015A00006258E07360FB5402843214D8E0845F895
:1015B0002600204D2868A0435D6805F4801505B11C
:1015C00020431C4D28602D1D2868A0435D6805F44C
:1015D000001505B12043174D2D1D2860154D2D1FF9
:1015E0002868A0435D6805F4003505B12043114D1E
:1015F0002D1F28602D1F2868A0435D6805F48035E5
:1016000005B120430B4D083D2860491C1D68CD40A5
:10161000002D7FF430AF78BD001002400004004878
:1016200000080048000C0048001000480014004862
:101630000800014008040140024613690B400BB149
:10164000012000E00020704710B5426921EA020342
:1016500002EA010443EA0443836110BD0AB18161D7
:1016600000E0816270470000014800687047000098
:1016700094000020034800680349096808440149B0
:1016800008607047940000209C00002010B50024E2
:10169000032000F0ABF80F2000F008F808B1012497
:1016A00001E000F02FF8204610BD000070B50446A0
:1016B000002511480068D8B10F4800684FF47A71CE
:1016C000B1FBF0F00D490968B1FBF0F6304601F0CE
:1016D0004DFB58B9102C07D200222146501E00F0B5
:1016E00047F80748046004E0012502E0012500E016
:1016F0000125284670BD00009C000020A0000020AD
:101700009800002008B500BF0E48006E40F00100B0
:101710000C4908660846006E00F00100009000BF0A
:1017200000BF00BF0846806D40F0805088650846C5
:10173000806D00F08050009000BF00BF00F0F6F810
:1017400008BD0000001002400146084600280DDBDD
:1017500000BF00BF00F01F0301229A4043099B0015
:1017600003F1E023C3F8002100BF00BF00BF7047B2
:101770002DE9F05F80460D46164602F015FD07463E
:1017800039462A46334601F00700C0F1070ABAF18C
:10179000040F02D94FF0040A01E0C0F1070AD14654
:1017A00000F1040ABAF1070F02D24FF0000A01E07B
:1017B000A0F1030AD4464FF0010A0AFA09FAAAF185
:1017C000010A0AEA020A0AFA0CFA4FF0010B0BFAB4
:1017D0000CFBABF1010B0BEA030B4AEA0B042146AD
:1017E000404602F0E9FCBDE8F09F000000BF00F0B9
:1017F0000702064B19684FF6FF031940044B0B43D1
:1018000043EA0221014B196000BF70470CED00E074
:101810000000FA0502468ABB4148006800F4C06037
:10182000B0F5806F2BD13E488030006820F4807086
:101830003B4BC3F880001846006820F4C06040F4B9
:10184000007018603748006832235843364BB0FBAD
:10185000F3F0411C00E0491E3148406900F480600B
:10186000B0F5806F01D10029F5D12D48406900F411
:101870008060B0F5806F51D10320704708E02848A0
:101880008030006820F48070254BC3F8800045E06C
:10189000B2F5007F3AD12248006800F4C060B0F58C
:1018A000806F2AD11E488030006840F480701C4B45
:1018B000C3F880001846006820F4C06040F400704F
:1018C00018601848006832235843174BB0FBF3F0F8
:1018D000411C00E0491E1248406900F48060B0F5E8
:1018E000806F01D10029F5D10D48406900F4806076
:1018F000B0F5806F12D10320BFE70948803000683F
:1019000040F48070064BC3F8800007E0044800688C
:1019100020F4C06040F48060014B18600020ACE708
:1019200000700040A000002040420F000348806883
:1019300040F480400149886070470000007000401A
:101940002DE9F84304460027B846206800F400203B
:10195000B0F5002F73D1B946FD48806D00F080507E
:1019600078B900BFFA48806D40F08050F84988652A
:101970000846806D00F08050009000BF00BF4FF01F
:101980000109F448006840F48070F2490860FFF7EC
:101990006BFE064606E0FFF767FE801B022801D9B2
:1019A000032705E0EB48006800F480700028F2D0BF
:1019B00000BF002F46D1E6489030006800F4407523
:1019C000CDB1206DA84216D0E1489030006820F4D7
:1019D0004075DF48D0F8900040F48030DC49C1F811
:1019E00090000846D0F8900020F48030C1F89000B4
:1019F0000846C0F8905005F00100A0B1FFF734FE92
:101A0000064608E0FFF730FE801B41F2883188422D
:101A100001D9032706E0CE489030006800F00200AC
:101A20000028EFD000BF5FB9C9489030006820F4AB
:101A30004070216D0843C649C1F8900003E00CE0F6
:101A4000B84600E0B846B9F1010F05D1C048806D35
:101A500020F08050BE49886500BF207800F001006A
:101A600048B1BB488830006820F003006168084333
:101A7000B749C1F88800207800F00200022809D197
:101A8000B3488830006820F00C00A1680843B049D2
:101A9000C1F88800207800F00400042809D1AC487F
:101AA0008830006820F03000E1680843A849C1F898
:101AB0008800207800F00800082809D1A448883060
:101AC000006820F0C00021690843A149C1F88800DE
:101AD000207800F01000102809D19D488830006857
:101AE00020F44070616908439949C1F88800207862
:101AF00000F02000202809D195488830006820F4A3
:101B00004060A16908439249C1F88800207800F03C
:101B10004000402809D18E488830006820F44050A9
:101B2000E16908438A49C1F88800207800F0800004
:101B3000802809D186488830006820F44040216A16
:101B400008438349C1F88800208800F48070B0F50C
:101B5000807F09D17E488830006820F44030616A77
:101B600008437B49C1F88800206800F40030B0F5D4
:101B7000003F09D176489C30006820F00300A16A3C
:101B800008437349C1F89C00208800F40070B0F548
:101B9000007F09D16E488830006820F44020E16A57
:101BA00008436B49C1F88800208800F48060B0F5D4
:101BB000806F13D166488830006820F44010216B94
:101BC0000843634988310860206BB0F5801F05D158
:101BD0005F48C06840F480105D49C860208800F408
:101BE0000060B0F5006F13D159488830006820F4C8
:101BF0004000616B0843564988310860606BB0F55E
:101C0000800F05D15248C06840F480105049C86028
:101C1000208800F48050B0F5805F13D14C488830A4
:101C2000006820F04070A16B084349498831086082
:101C3000A06BB0F1807F05D14548C06840F48010AA
:101C40004349C860208800F40050B0F5005F13D10C
:101C50003F488830006820F04060E16B08433C4911
:101C600088310860E06BB0F1006F05D13848C0687A
:101C700040F480103649C860208800F48040B0F5F8
:101C8000804F13D132488830006820F04060216CCA
:101C900008432F4988310860206CB0F1006F05D1EE
:101CA0002B48C06840F480102949C860208800F49F
:101CB0000040B0F5004F13D125488830006820F06F
:101CC0004050616C0843224988310860606CB0F173
:101CD000805F05D11E48C06840F480301C49C86050
:101CE000206800F48030B0F5803F13D11848883068
:101CF000006820F04040A16C084315498831086015
:101D0000A06CB0F1804F05D11148C06840F480301C
:101D10000F49C860206800F48020B0F5802F13D1EF
:101D20000B489C30006820F44010E16C08430849DF
:101D30009C310860E06CB0F5001F05D10448C06814
:101D400040F480100249C8604046BDE8F8830000B6
:101D500000100240007000402DE9F04104460D469D
:101D60004FF0000814B90120BDE8F0817D480068FB
:101D700000F00F00A8420ED27A48006820F00F0051
:101D80002843784908600846006800F00F00A84220
:101D900001D00120E8E7207800F00100002864D09D
:101DA0006068032823D17048006800F0007008B90B
:101DB0000120D9E701F0E4FD06466C48864237D998
:101DC0006948806800F0F00030B1207800F002002F
:101DD00002282DD1A06858BB6348806820F0F0002D
:101DE00040F08000604988604FF0800820E0606823
:101DF000022806D15C48006800F4003040B9012098
:101E0000B2E75948006800F4806008B90120ABE7E8
:101E100000F0B4F806465548864209D95248806811
:101E200020F0F00040F080004F4988604FF08008BB
:101E30004D48806820F00300616808434A49886083
:101E4000FFF712FC074608E0FFF70EFCC01B41F24B
:101E50008831884201D9032086E74348806800F032
:101E60000C006168B0EB810FEED1207800F0020029
:101E7000022820D1207800F00400042805D13A4837
:101E8000806840F4E06038498860207800F00800FD
:101E9000082807D13448806820F4605040F4E0609E
:101EA000314988603048806820F0F000A16808431C
:101EB0002D49886008E0B8F1800F05D12A48806874
:101EC00020F0F000284988602648006800F00F00E4
:101ED000A84219D92348006820F00F00284321495F
:101EE0000860FFF7C1FB074608E0FFF7BDFBC01B1A
:101EF00041F28831884201D9032035E7194800684A
:101F000000F00F00A842F0D1207800F0040004286F
:101F100007D11548806820F4E060E1680843124961
:101F20008860207800F00800082808D10E488068F2
:101F300020F46050216940EAC1000B49886000F03C
:101F40001DF809498968C1F30311094A515C01F080
:101F50001F01C8400749086007480068FFF7A6FB53
:101F600002E70000002002400010024000B4C40458
:101F7000524C0008A00000209800002070B5224DAF
:101F8000AD6805F00C05042D01D120483AE01E4D46
:101F9000AD6805F00C05082D01D11D4832E01A4D41
:101FA000AD6805F00C050C2D2BD1174DED6805F033
:101FB0000304154DED68C5F303156A1C022C0CD003
:101FC000032C09D1124DB5FBF2F50F4EF668C6F39E
:101FD000062605FB06F10AE000BF0C4DB5FBF2F545
:101FE000094EF668C6F3062605FB06F100BF00BFE2
:101FF000054DED68C5F341656D1C6B00B1FBF3F059
:1020000000E0002070BD0000001002400024F40039
:1020100000127A002DE9F843044614B90120BDE806
:10202000F883207800F00100002865D0FC48806823
:1020300000F00C07FA48C06800F003060C2F01D12D
:10204000032E01D0082F0AD1F548006800F40030B3
:10205000002851D0606800284ED10120DFE700BF82
:102060006068B0F5803F06D1ED48006840F48030EC
:10207000EB4908601AE06068B0F5A02F0BD1E84882
:10208000006840F48020E64908600846006840F493
:10209000803008600AE0E248006820F48030E049BF
:1020A00008600846006820F48020086000BF60686F
:1020B00088B1FFF7D9FA054606E0FFF7D5FA401BCD
:1020C000642801D90320AAE7D548006800F400304D
:1020D0000028F2D010E0FFF7C7FA054606E0FFF748
:1020E000C3FA401B642801D9032098E7CC48006854
:1020F00000F400300028F2D1207800F0020002281D
:1021000060D1C748806800F00C07C548C06800F07F
:1021100003060C2F01D1022E01D0042F18D1C04884
:10212000006800F4806018B1E06808B9012076E723
:10213000BB48406820F0FE40217C40EA0160B8497D
:102140004860B8480068FFF7B1FA18B3012066E7A5
:10215000E06800B3B248006840F48070B04908609D
:10216000FFF782FA054606E0FFF77EFA401B0228D9
:1021700001D9032053E7AA48006800F480600028D2
:10218000F2D0A748406820F0FE40217C40EA016080
:10219000A349486016E0A248006820F48070A04976
:1021A0000860FFF761FA054606E0FFF75DFA401B9D
:1021B000022801D9032032E79948006800F48060C2
:1021C0000028F2D1207800F00800082836D1606994
:1021D000D0B193489430006840F001009049C1F8B4
:1021E0009400FFF741FA054606E0FFF73DFA401B71
:1021F000022801D9032012E789489430006800F0D2
:1022000002000028F1D019E085489430006820F0E1
:1022100001008349C1F89400FFF726FA054606E05D
:10222000FFF722FA401B022801D90320F7E67C4879
:102230009430006800F002000028F1D1207800F00E
:102240000400042872D14FF000087548806D012108
:1022500021EA107078B100BF7148806D40F0805065
:102260006F4988650846806D00F08050009000BF7F
:1022700000BF4FF001086C48006800F48070B0B9EE
:102280006948006840F4807067490860FFF7ECF91E
:10229000054606E0FFF7E8F9401B022801D90320B4
:1022A000BDE66148006800F480700028F2D000BFED
:1022B000A068012808D15A489030006840F0010019
:1022C0005749C1F8900021E0A06805280FD1544873
:1022D0009030006840F004005149C1F89000084671
:1022E000D0F8900040F00100C1F890000EE04C489A
:1022F0009030006820F001004949C1F8900008467C
:10230000D0F8900020F00400C1F8900000BFA06851
:10231000A8B1FFF7A9F9054609E0FFF7A5F9401BA9
:1023200041F28831884202D9032078E625E03C4812
:102330009030006800F002000028EED013E0FFF7B4
:1023400093F9054608E0FFF78FF9401B41F2883109
:10235000884201D9032062E631489030006800F0DD
:1023600002000028EFD1B8F1010F05D12C48806D93
:1023700020F080502A49886500BF207800F02000B6
:10238000202836D1A069D0B125489830006840F0A7
:1023900001002349C1F89800FFF766F9054606E0F9
:1023A000FFF762F9401B022801D9032037E61C48D9
:1023B0009830006800F002000028F1D019E01848B9
:1023C0009830006820F001001549C1F89800FFF727
:1023D0004BF9054606E0FFF747F9401B022801D9F3
:1023E00003201CE60E489830006800F00200002828
:1023F000F1D1E069002860D00948806800F00C0045
:102400000C287AD0E069022858D10548006820F0ED
:10241000807003490860FFF727F905460DE00000CA
:10242000001002409800002000700040FFF71CF9E7
:10243000401B022801D90320F1E54A48006800F05A
:1024400000700028F2D1D4E90810401E41EA0011C2
:10245000A06A41EA0021208E0122C2EB500041EA2D
:1024600040513420005DC2EB500041EA40612C2015
:10247000005D41EAC0603B49C9683B4A11400843DE
:102480003849C8600846006840F080700860084617
:10249000C06840F08070C860FFF7E6F8054606E0C7
:1024A000FFF7E2F8401B022801D90320B7E52D48C9
:1024B000006800F000700028F2D051E02948006860
:1024C00020F0807027490860FFF7CEF8054606E047
:1024D000FFF7CAF8401B022801D903209FE52148D5
:1024E000006800F000700028F2D11E48C0681F4943
:1024F00008401C49C86033E0FFE7E069012800D1CB
:102500008DE51848C66806F00301206A814225D18E
:1025100006F0F001606A401EB1EB001F1ED106F408
:10252000FE41A06AB1EB002F18D106F078412C20B3
:10253000005DB1EBC06F11D106F4C001208E012205
:10254000C2EB5000B1EB405F08D106F0C06134200F
:10255000005DC2EB5000B1EB406F01D001205EE5A1
:1025600000205CE5001002400C809F01FCFFEEFEA5
:1025700070B504460CB9012070BD606A38B9606856
:10258000B0F5827F00D105E00021E16102E0002189
:10259000216161610021A16294F85D0028B90020E9
:1025A00084F85C00204600F061F8022084F85D00A9
:1025B0002068006820F0400021680860E068B0F5FD
:1025C000E06F01D9002501E04FF48055E068B0F5D7
:1025D000706F05D0E068B0F5E06F01D00021A16216
:1025E000A08800F48270218901F404410843217C11
:1025F00001F002010843217D01F001010843218B14
:1026000001F400710843217F01F0380108432021C3
:10261000095D01F080010843218D01F40051084358
:10262000216808600421A06901EA104094F8241090
:1026300001F01001084394F8341001F00801084338
:10264000A18901F47061084305F4805108432168B1
:1026500048602068C06920F400602168C8610020DB
:102660002066012084F85D00002085E710B586B063
:102670000446142101A8FDF71FFE1749206888426F
:1026800028D100BF1548006E40F4805013490866F9
:102690000846006E00F48050009000BF00BF00BFED
:1026A0000846C06C40F00100C8640846C06C00F0E9
:1026B0000100009000BF00BFE020019002200290C6
:1026C0000020039004900520059001A94FF0904050
:1026D000FEF7CCFE06B010BD0030014000100240F5
:1026E0002DE9F8430446884616461D4694F85D00D9
:1026F000012802D00220BDE8F883B8F1000F00D015
:102700000EB90120F7E76068B0F5827F0CD1A068B0
:1027100050B9042084F85D003346424641462046C5
:10272000009500F0B6F9E6E7FEF79EFF074600BF0A
:1027300094F85C00012801D10220DCE7012084F834
:102740005C0000BF042084F85D0000202066C4F80F
:102750004080A4F84460A4F84660A063A087E087A6
:10276000E0642065E068B0F5E06F06D92068406855
:1027700020F480502168486005E02068406840F4FB
:10278000805021684860A068B0F5004F0BD12068E8
:10279000006820F04000216808602068006820F48C
:1027A0008040216808602068006800F040004028F0
:1027B00005D02068006840F0400021680860E068AB
:1027C000B0F5E06F29D823E02068806800F00100B0
:1027D00060B12068007B216C0870206C401C206474
:1027E000B4F84600401EA4F8460011E0FEF73CFF96
:1027F000C01BA84201D3681C00B94DB9012084F860
:102800005D0000BF002084F85C0000BF032072E779
:10281000B4F846000028D7D128E023E0206880687B
:1028200000F0010060B12068C068216C0880206C55
:10283000801C2064B4F84600401EA4F8460011E055
:10284000FEF712FFC01BA84201D3681C00B94DB9A6
:10285000012084F85D0000BF002084F85C0000BF08
:10286000032048E7B4F846000028D7D13A46294665
:10287000204601F0B9F808B120202066012084F834
:102880005D0000BF002084F85C0000BF206E08B12E
:10289000012030E700202EE72DE9F84304460F46DB
:1028A00016461D46FEF7E0FE8046B14694F85D00F0
:1028B000012802D00220BDE8F88307B10EB901203B
:1028C000F9E700BF94F85C00012801D10220F2E78B
:1028D000012084F85C0000BF032084F85D00002024
:1028E0002066A763A687E6872064A4F84400A4F8BE
:1028F00046002065E064A068B0F5004F0BD1206869
:10290000006820F04000216808602068006840F4FA
:102910008040216808602068006800F0400040287E
:1029200005D02068006840F0400021680860E06839
:10293000B0F5E06F37D9606810B1B9F1010F09D176
:10294000A06B00882168C860A06B801CA063E08F2A
:10295000401EE08723E02068806800F00200022823
:102960000AD1A06B00882168C860A06B801CA0639E
:10297000E08F401EE08712E0FEF776FEA0EB080035
:10298000A84201D3681C00B94DB9012084F85D004C
:1029900000BF002084F85C0000BF03208BE7E08FBD
:1029A0000028D8D152E0606810B1B9F1010F17D1F9
:1029B000E08F01280AD9A06B00882168C860A06B4D
:1029C000801CA063E08F801EE08709E0A06B007888
:1029D00021680873A06B401CA063E08F401EE08755
:1029E00031E02068806800F00200022818D1E08FF2
:1029F00001280AD9A06B00882168C860A06B801CE0
:102A0000A063E08F801EE0871DE0A06B0078216846
:102A10000873A06B401CA063E08F401EE08712E0AB
:102A2000FEF722FEA0EB0800A84201D3681C00B903
:102A30004DB9012084F85D0000BF002084F85C00DF
:102A400000BF032037E7E08F0028CAD1424629465D
:102A5000204601F00AF808B120202066A06850B98D
:102A600000BF002000902068C06800902068806847
:102A7000009000BF00BF012084F85D0000BF00206F
:102A800084F85C0000BF206E08B1012013E700202D
:102A900011E72DE9FE4F04460F4690461D460C9E59
:102AA00001200090FEF7E0FD824694F85DB060687A
:102AB0000190A9460295BBF1010F0BD00198B0F52A
:102AC000827F04D1A06810B9BBF1040F02D00220AC
:102AD000BDE8FE8F1FB1B8F1000F00D00DB9012085
:102AE000F6E700BF94F85C00012801D10220EFE76F
:102AF000012084F85C0000BF94F85D00042802D037
:102B0000052084F85D0000202066C4F84080A4F809
:102B10004650A4F84450A763E587A587E064206584
:102B2000E068B0F5E06F02D80298012806D9206865
:102B3000406820F480502168486005E020684068C3
:102B400040F48050216848602068006800F0400030
:102B5000402805D02068006840F0400021680860E7
:102B6000E068B0F5E06F56D9606810B1B9F1010FB7
:102B700009D1A06B00882168C860A06B801CA0638D
:102B8000E08F401EE0873EE02068806800F0020091
:102B9000022810D1E08F70B1009801280BD1A06BF2
:102BA00000882168C860A06B801CA063E08F401E75
:102BB000E087002000902068806800F0010080B16C
:102BC000B4F8460068B12068C068216C0880206CA9
:102BD000801C2064B4F84600401EA4F84600012082
:102BE0000090FEF741FDA0EB0A00B0420BD3701C31
:102BF00048B1012084F85D0000BF002084F85C002B
:102C000000BF032064E7E08F0028BDD1B4F8460080
:102C10000028B9D18DE0606810B1B9F1010F17D16A
:102C2000E08F01280AD9A06B00882168C860A06BDA
:102C3000801CA063E08F801EE08709E0A06B007815
:102C400021680873A06B401CA063E08F401EE087E2
:102C500068E02068806800F0020002281ED1E08F42
:102C6000E0B10098012819D1E08F01280AD9A06BA2
:102C700000882168C860A06B801CA063E08F801E64
:102C8000E08709E0A06B007821680873A06B401C06
:102C9000A063E08F401EE0870020009020688068DD
:102CA00000F0010058B3B4F8460040B3B4F8460051
:102CB000012816D92068C068216C0880206C801C0F
:102CC0002064B4F84600801EA4F84600B4F846001C
:102CD000012812D82068406840F48050216848607C
:102CE0000BE02068007B216C0870206C401C206485
:102CF000B4F84600401EA4F8460001200090FEF7FC
:102D0000B3FCA0EB0A00B04201D3701C00B94EB96D
:102D1000012084F85D0000BF002084F85C0000BF43
:102D20000320D5E6E08F002893D1B4F846000028B0
:102D30008FD152463146204600F097FE40B1202008
:102D4000206600BF002084F85C0000BF0120BFE6C1
:102D5000012084F85D0000BF002084F85C0000BF03
:102D6000206E08B10120B3E60020B1E670B504463C
:102D70002546681EB0F1807F01D301200FE0681E58
:102D80004FF0E02148610F214FF0FF3001F014FABD
:102D900000204FF0E021886107200861002070BD0D
:102DA00070477047704770477047704730B50246AC
:102DB0000B4600BF92F83C00012801D1022030BD33
:102DC000012082F83C0000BF022082F83D0010681C
:102DD000416810688468234D1068A84207D0224DCE
:102DE0001068A84203D0214D1068A84203D121F4F5
:102DF0007001586801431E4801401868014310687B
:102E00004160184D1068A8421BD01068B0F1804F87
:102E100017D0184D1068A84213D0174D1068A8425B
:102E20000FD0164D1068A8420BD00F4D1068A84265
:102E300007D0134D1068A84203D00C4D1068A8426B
:102E400005D124F080049868044310688460012050
:102E500082F83D0000BF002082F83C0000BF00BFA8
:102E6000ADE70000002C014000340140005001405B
:102E70008FFFFFFD0004004000080040000C0040F0
:102E800000400140704710B504460CB9012010BD48
:102E900094F83D0028B9002084F83C00204600F05A
:102EA00029F8022084F83D00211D206801F04AF82D
:102EB000012084F8480000BF84F83E0001213F2033
:102EC0000155402001554120015542200155432024
:102ED000015500BF00BF012084F844004520015582
:102EE000462001554720015500BF012084F83D00D0
:102EF0000020CCE738B504462068B0F1804F16D1E9
:102F000000BF3348806D40F00100314988650846B4
:102F1000806D00F00100009000BF00BF002211464C
:102F20001C20FEF725FC1C20FEF70EFC4FE0294973
:102F30002068884216D100BF2548806D40F002000D
:102F4000234988650846806D00F00200009000BFAC
:102F500000BF002211461D20FEF70AFC1D20FEF7CF
:102F6000F3FB34E01C492068884216D100BF1848A2
:102F7000806D40F00400164988650846806D00F0B9
:102F80000400009000BF00BF002211461E20FEF783
:102F9000EFFB1E20FEF7D8FB19E01049206888429D
:102FA00015D100BF0A48806D40F0080008498865C7
:102FB0000846806D00F00800009000BF00BF0022AE
:102FC00011463220FEF7D4FB3220FEF7BDFB38BDA0
:102FD000001002400004004000080040000C0040C7
:102FE000014691F83D00012801D0012070470220E0
:102FF00081F83D000868C06840F001000B68D860A7
:103000001C4B086898421BD00868B0F1804F17D05D
:10301000194B0868984213D0184B086898420FD093
:10302000174B086898420BD0164B0868984207D097
:10303000154B0868984203D0144B0868984210D189
:1030400008688068124B00EA0302062A0FD0B2F526
:10305000803F0CD00868006840F001000B681860E1
:1030600005E00868006840F001000B681860002067
:10307000BCE70000002C01400004004000080040B4
:10308000000C00400034014000400140005001406D
:10309000070001002DE9F04104460D46002700BF5E
:1030A00094F83C00012802D10220BDE8F081012003
:1030B00084F83C0000BF022084F83D002068866848
:1030C0004248064026F47F46206886602868B0F5AE
:1030D000005F33D015DC402851D008DC002858D0E0
:1030E000102857D0202856D0302862D154E05028DC
:1030F00031D0602839D0702813D0B0F5805F58D116
:103100000EE000F00F01002953D10011A0F580302E
:1031100008284ED2DFE800F0414243444546474884
:1031200049E0D5E902136A68206800F083FF20684F
:10313000866846F07706206886603CE0D5E9021391
:103140006A68206800F076FF2068806840F480405C
:10315000216888602FE0EA686968206800F082FFD3
:103160005021206800F072FF25E0EA686968206855
:1031700000F08BFF6021206800F068FF1BE0EA6828
:103180006968206800F06EFF4021206800F05EFF53
:1031900011E000BF00BF00BF00BF00BF00BF00BF05
:1031A00000BF00BF00BF00BF2968206800F04EFFCD
:1031B00001E0012700BF00BF012084F83D0000BFEF
:1031C000002084F83C0000BF38466EE788FFCEFF41
:1031D000704770B504462068C6682068056905F028
:1031E0000200022819D106F00200022815D1401F62
:1031F00021680861012020772068806900F00300C1
:1032000018B12046FFF7E4FF05E0204600F0F1F892
:10321000204600F0EFF80020207705F00400042895
:1032200019D106F00400042815D1C04321680861B3
:10323000022020772068806900F4407018B1204691
:10324000FFF7C6FF05E0204600F0D3F8204600F067
:10325000D1F80020207705F00800082819D106F0E1
:103260000800082815D1C043216808610420207790
:103270002068C06900F0030018B12046FFF7A8FFDE
:1032800005E0204600F0B5F8204600F0B3F8002035
:10329000207705F01000102819D106F01000102832
:1032A00015D1C04321680861082020772068C069D3
:1032B00000F4407018B12046FFF78AFF05E0204671
:1032C00000F097F8204600F095F80020207705F0F0
:1032D000010048B106F0010030B16FF00100216833
:1032E0000861204600F088F805F08000802804D0AE
:1032F00005F40050B0F5005F0AD106F08000802888
:1033000006D16FF40250216808612046FFF749FD9D
:1033100005F48070B0F5807F0AD106F08000802827
:1033200006D16FF48070216808612046FFF738FDF0
:1033300005F04000402809D106F04000402805D1A2
:10334000C04321680861204600F0E0F805F0200045
:10335000202809D106F02000202805D1C04321688B
:1033600008612046FFF71EFD05F48010B0F5801FB0
:103370000BD106F48010B0F5801F06D16FF48010D9
:10338000216808612046FFF70FFD05F40010B0F535
:10339000001F0BD106F40010B0F5001F06D16FF42A
:1033A0000010216808612046FFF7FDFC05F480004D
:1033B000B0F5800F0BD106F48000B0F5800F06D178
:1033C0006FF48000216808612046FFF7EEFC05F4E9
:1033D0000000B0F5000F0BD106F40000B0F5000FAF
:1033E00006D16FF40000216808612046FFF74AFD0E
:1033F00070BD7047704700000168B1F1804F0ED179
:1034000030490988491C2F4A118011460988012931
:1034100005DB01212C4A117000212A4A11802B4A18
:103420000168914227D12A490988491C284A1180FC
:1034300011460988B1F57A7F1DDB26490988264A9D
:1034400011800021234A118024490988244A1180CF
:103450000021224A118023490988234A1180002132
:10346000204A118021490988214A118000211F4AE0
:103470001180174A11801F4A016891420ED11E49DE
:103480000988491C1C4A118011460988012905DB5D
:1034900001211A4A11700021174A1180184A016847
:1034A00091420ED117490988491C164A11801146CC
:1034B0000988012905DB0121134A11700021114AF5
:1034C0001180704788000020840000200004004024
:1034D0006A0000206C0000206E00002074000020B4
:1034E00076000020780000207A0000207000002084
:1034F00072000020000800408C00002086000020A0
:10350000000C00408A00002085000020704700BFAA
:10351000FEE7000010B51448144908600020486018
:10352000002112488160C1600121017400214174B1
:10353000817405214161092181611821C16109213D
:10354000016205214162092181621821C1620921BC
:1035500001630121416300218163C163FDF75EFDC9
:1035600008B1FDF7C9F810BD006400401801002043
:1035700010B5144814490860002048600021124822
:103580008160C160012101740021417481740521B1
:103590004161092181611821C1610921016205216F
:1035A0004162092181621821C1620921016301215F
:1035B000416300218163C163FDF730FD08B1FDF770
:1035C0009BF810BD006800407C01002000B587B06A
:1035D000142102A8FCF770FE00BF5F48C06C40F0E9
:1035E00004005D49C8640846C06C00F00400019006
:1035F00000BF00BF00BF0846C06C40F02000C86498
:103600000846C06C00F02000019000BF00BF00BF62
:103610000846C06C40F00100C8640846C06C00F069
:103620000100019000BF00BF00BF0846C06C40F021
:103630000200C8640846C06C00F00200019000BFA0
:1036400000BF00BF0846C06C40F00800C8640846D0
:10365000C06C00F00800019000BF00BF002242F2E1
:10366000C4313E48FDF7FAFF012210214FF090408F
:10367000FDF7F4FF00224FF440714FF09040FDF74A
:10368000EDFF4FF4005002900120039002200490BF
:103690000020059002A93148FDF7E8FE02200290C3
:1036A000002003900120049002A92C48FDF7DEFEC3
:1036B0000420029001200390002004900320059034
:1036C00002A92648FDF7D2FE1020029001200390A7
:1036D00004900320059002A94FF09040FDF7C6FE2C
:1036E0004FF4707002900120039002200490032098
:1036F000059002A91948FDF7B9FE4FF440700290F9
:1037000001200390022004900320059002A94FF0AD
:103710009040FDF7ABFE4FF4E05002900020039084
:103720000220049002A90D48FDF7A0FE042002909B
:10373000002003900220049002A90948FDF796FE9C
:1037400078200290002003900220049002A90548EE
:10375000FDF78CFE07B000BD0010024000080048D5
:10376000000C00480004004810B5114811490860D9
:103770004FF48270486000210E4881604FF4E06190
:10378000C160002101610121416149028161302153
:10379000C16100210162416281620721C162002191
:1037A00001634163FEF7E4FE08B1FCF7A5FF10BD1D
:1037B00000300140E001002000B587B000200390F8
:1037C0000490059006900090019002904FF0804088
:1037D00013490860A720486000211148816040F229
:1037E000E141C160002101618161FFF74CFB08B13B
:1037F000FCF782FF4FF48050039003A90848FFF7BD
:1038000049FC08B1FCF778FF00200090029069465F
:103810000348FFF7CBFA08B1FCF76EFF07B000BD15
:103820004402002000B587B000200390049005906A
:103830000690009001900290144815490860A72056
:10384000486000211248816040F2E731C1600021E8
:1038500001618161FFF717FB08B1FCF74DFF4FF4E1
:103860008050039003A90A48FFF714FC08B1FCF745
:1038700043FF00200090029069460548FFF796FA42
:1038800008B1FCF739FF07B000BD0000000400409C
:103890009002002000B587B00020039004900590AE
:1038A0000690009001900290144815490860A720E6
:1038B000486000211248816040F2E141C16000216E
:1038C00001618161FFF7DFFA08B1FCF715FF4FF4E2
:1038D0008050039003A90A48FFF7DCFB08B1FCF70E
:1038E0000BFF00200090029069460548FFF75EFA42
:1038F00008B1FCF701FF07B000BD00000008004060
:10390000DC02002000B587B00020039004900590F1
:103910000690009001900290144815490860A72075
:10392000486000211248816040F2E141C1600021FD
:1039300001618161FFF7A7FA08B1FCF7DDFE4FF4E2
:103940008050039003A90A48FFF7A4FB08B1FCF7D5
:10395000D3FE00200090029069460548FFF726FA42
:1039600008B1FCF7C9FE07B000BD0000000C004024
:103970002803002000BFFEE700BFFEE770470000FD
:1039800070B5164DED6805F00304144DED68C5F3F0
:1039900003156B1C022C0CD0032C09D1104DB5FB68
:1039A000F3F50E4EF668C6F3062605FB06F10AE0AF
:1039B00000BF0C4DB5FBF3F5084EF668C6F30626BE
:1039C00005FB06F100BF00BF044DED68C5F341657E
:1039D0006D1C6A00B1FBF2F070BD000000100240E7
:1039E00000127A000024F400F8B504460E4615468D
:1039F0006068B0F5827F0DD1A068B0F5004F03D0AC
:103A0000A068B0F5806F05D12068006820F0400004
:103A1000216808603346002280212046009500F08E
:103A2000D3F828B1206E40F0200020660320F8BDB6
:103A30006068B0F5827F16D1A068B0F5004F03D062
:103A4000A068B0F5806F0ED1334600224FF4C061FC
:103A50002046009500F03CF828B1206E40F0200090
:103A600020660320E3E70020E1E7F8B504460E46B0
:103A70001546334600224FF4C0512046009500F011
:103A800027F828B1206E40F0200020660320F8BD02
:103A90003346002280212046009500F095F828B199
:103AA000206E40F0200020660320F0E7334600221D
:103AB0004FF4C0612046009500F00AF828B1206E4E
:103AC00040F0200020660320E1E70020DFE700004F
:103AD0002DE9FC5F04460D4616461F46DDF8309082
:103AE00000200090FDF7C0FDA0EB0900A7EB000847
:103AF000FDF7BAFD8246206800F10C0B31480068E2
:103B0000C0EBC00000EB8000000D00FB08F001904E
:103B100050E0B5F5C06F05D126B99BF800000090C4
:103B20009DF80000781C002844D0FDF79DFDA0EB17
:103B30000A00404502D2B8F1000F34D12068406835
:103B400020F0E000216848606068B0F5827F0DD108
:103B5000A068B0F5004F03D0A068B0F5806F05D124
:103B60002068006820F0400021680860A06AB0F575
:103B7000005F0DD100BF2068006820F4005021686C
:103B800008602068006840F400502168086000BFA9
:103B9000012084F85D0000BF002084F85C0000BFB5
:103BA0000320BDE8FC9F019808B94FF00008019878
:103BB000401E0190206880682840B042A9D10020B2
:103BC000EFE70000A00000202DE9F84F04460D4665
:103BD00090461E46DDF82890FDF746FDA0EB090053
:103BE000371AFDF741FD82462C480068C0F3CB3000
:103BF0007843009045E0701C002842D0FDF734FD6A
:103C0000A0EB0A00B84200D2A7BB2068406820F0B1
:103C1000E000216848606068B0F5827F0DD1A0683F
:103C2000B0F5004F03D0A068B0F5806F05D12068D3
:103C3000006820F0400021680860A06AB0F5005FCD
:103C40000DD100BF2068006820F400502168086092
:103C50002068006840F400502168086000BF01201F
:103C600084F85D0000BF002084F85C0000BF0320E2
:103C7000BDE8F88FFFE7009800B900270098401EC4
:103C80000090206880682840A84201D1012000E00F
:103C900000204045AFD10020EAE70000A00000204E
:103CA0007047000070B50446082C58D2DFE804F0D5
:103CB000040E18222C36414C40212B48FDF7BCFC49
:103CC000012800D100E00020054649E020212648D7
:103CD000FDF7B2FC012800D100E0002005463FE0DE
:103CE00010212148FDF7A8FC012800D100E00020A8
:103CF000054635E008211C48FDF79EFC012800D14F
:103D000000E0002005462BE004211848FDF794FC54
:103D1000012800D100E00020054621E04FF4805149
:103D20001348FDF789FC012800D100E0002005467A
:103D300016E04FF400610E48FDF77EFC012800D12B
:103D400000E0002005460BE04FF480610848FDF7D5
:103D500073FC012800D100E00020054600E000BF10
:103D600000BF284670BD000000040048000C004859
:103D70000008004810B53A483A490978405C78BBD9
:103D8000394838490978405C01281EDB35480078FD
:103D9000FFF788FF35490988324A1278114101F04E
:103DA000010188420CD02F480078FFF77BFF304993
:103DB0002C4A12788854012029492A4A12788854BA
:103DC00000212948274A1278815427482549097833
:103DD000405C401CC1B22448224A1278815431E030
:103DE000FFE724481F490978405C052820DB1D486F
:103DF0000078FFF757FF1E491A4A1278895C8842FB
:103E00000CD1184801780120884018490988484099
:103E100016490880084600781749087000201049A4
:103E2000104A12788854002112480E4A12788154A0
:103E300010480C490978405C401CC1B20D48094A41
:103E400012788154002008E008490988014101F0F6
:103E500001010A4A1154411CC8B20828F4DB10BD04
:103E6000F000002060000020D80000205E0000204C
:103E7000FC000020E4000020610000207C00002005
:103E800010B5FDF7F7FB10BD00B593B0382105A8BC
:103E9000FCF712FA14216846FCF70EFA0020FDF731
:103EA000B9FC012005900004069002200C9003212B
:103EB0000D9102210E9155210F9102211091119126
:103EC000129105A8FEF7A6F808B1FCF715FC0F2023
:103ED00000900320019000200290039004900421A0
:103EE0006846FDF739FF08B1FCF706FC13B000BDCA
:103EF0000348006840F47000014908607047000002
:103F000088ED00E010B50248FFF763F910BD00002E
:103F10004402002010B50248FFF75BF910BD000015
:103F20009002002010B50248FFF753F910BD0000C1
:103F3000DC02002010B50248FFF74BF910BD00006D
:103F40002803002010B50268314B984211D0B0F11F
:103F5000804F0ED02F4B98420BD02F4B984208D059
:103F60002E4B984205D02E4B984202D02D4B9842B2
:103F700003D122F070024B681A43254B98421AD0A5
:103F8000B0F1804F17D0234B984214D0224B984267
:103F900011D0224B98420ED0214B98420BD0224B8D
:103FA000984208D0214B984205D0214B984202D02C
:103FB0001C4B984203D122F44072CB681A4322F082
:103FC00080034C6943EA040202608B68C3620B6899
:103FD00083620F4B98420ED0114B98420BD0124B7C
:103FE000984208D0114B984205D0114B984202D00C
:103FF0000C4B984201D10B690363012343610369B0
:1040000003F001031BB1036923F00103036110BD39
:10401000002C01400004004000080040000C00405B
:104020000034014000500140004001400044014084
:104030000048014030B50C46816821F47F4142EAD6
:10404000032525432943816030BD00000A4681686D
:10405000034B194042F00703194381607047000089
:104060008FFFCFFF30B50B461446026A056A25F074
:1040700001050562816921F0F00141EA041122F095
:104080000A021A438161026230BD30B50B46144604
:10409000026A056A25F010050562816921F4704104
:1040A00041EA043122F0A00242EA03128161026275
:1040B00030BD00BFFEE710B500F002F810BD0000F3
:1040C00010B53748007800F0010030B1012211022C
:1040D0004FF09040FDF7C2FA06E000224FF48071E5
:1040E0004FF09040FDF7BAFA2D48007800F002003A
:1040F000022806D1012201024FF09040FDF7AEFAEE
:1041000006E000224FF400714FF09040FDF7A6FA50
:104110002348007800F00400042805D10122C101E1
:104120002048FDF79BFA05E000224FF400711D487E
:10413000FDF794FA1A48007800F00800082805D125
:10414000012241011748FDF789FA05E000224FF4EA
:1041500080711448FDF782FA1148007800F01000D1
:10416000102805D1012280210E48FDF777FA04E0DE
:10417000002280210B48FDF771FA0948007800F011
:104180002000202805D1012240210648FDF766FACB
:1041900004E0002240210348FDF760FA10BD000052
:1041A0005A0000200008004802480068C0F30220BE
:1041B000704700000CED00E010B5002804DB0A0792
:1041C000130E054A135406E00A07140E034A00F0C2
:1041D0000F031B1FD45410BD00E400E018ED00E0F5
:1041E00000B587B0182101A8FCF766F800200190FF
:1041F0000290022003900120049000200590069078
:1042000001A91048FCF734FD08B1FCF775FA00204D
:1042100003460222114600900A48FCF75BFD08B1F4
:10422000FCF76AFA0748FDF703F908B1FCF764FAEE
:10423000002201210348FCF755FC08B1FCF75CFAA9
:1042400007B000BD1801002000B587B0182101A8F3
:10425000FCF732F8002001900290022003900490B5
:1042600000200590069001A91048FCF701FD08B157
:10427000FCF742FA002003460222114600900B4848
:10428000FCF728FD08B1FCF737FA0848FDF7D0F82D
:1042900008B1FCF731FA002208210448FCF722FC9F
:1042A00008B1FCF729FA07B000BD00007C0100202E
:1042B00070B5034600224FF0E0267569AA2603FB7D
:1042C00006F44FF0E026B16910E04FF0E026B06947
:1042D00088420BD0884202D20E1A324402E02E1AD3
:1042E0000E4432440146A24200D300E0EDE700BF95
:1042F00070BD0000FDF7CAF9FFF7C6FDFFF766F9CC
:10430000FFF708F9FFF734F9FFF72EFAFFF754FA31
:10431000FFF788FAFFF7BEFAFFF7F4FA1C48FEF73A
:104320005FFE1C48FEF75CFE1B48FEF759FE1B486B
:10433000FEF756FEFCF7BCF9FCF7AAF826E0184891
:10434000007848B1002016490870FFF7B4FE154800
:104350000088401C134908801348007848B10020A9
:1043600011490870FCF742F910480088401C0F49B9
:1043700008800F48007848B100200D490870FCF70C
:1043800077FA0C480088401C0A490880D7E70000EB
:104390004402002090020020DC02002028030020BC
:1043A0008600002078000020840000206C0000209F
:1043B000850000207400002010B591EA030F48BF6B
:1043C00083F0004300F15683841A71EB030C05D28D
:1043D000121943EB0C03001B61EB0C01DFF824E125
:1043E0004FEA1154A4EB135C1EEA430F18BF9EEA78
:1043F000445F73D023EA0E03DCF1200E21EA04515E
:1044000043F4801332D322FA0CFE10EB0E0023FA91
:104410000CFE41EB0E01CCF1200E03FA0EFE10EB68
:104420000E0051F10001B1F5801FCCF1200E32D207
:1044300001EB045112FA0EF2BDE8104058BF70476C
:10444000401C38BF5FEA420218BF7047002814BF03
:1044500020F0010041F100014FEA410313F5001F74
:1044600038BF7047A1F1C04100F0F6BA012A43EB12
:104470000302ACF1200CDCF11F0E32BF4FF0000E36
:1044800023FA0CF310EB030041EB0451B4EB115F82
:10449000D0D0A1EB045101F5801149085FEA30004A
:1044A00001EB04510ED350F1000038BF12FA0EFE9A
:1044B00008D1BDE81040C9E7401C38BF5FEA42029E
:1044C000CAD1C3E7BDE810404FEA410313F5001F0E
:1044D00038BF7047A1F1C04100F0BEBA9EEA445F08
:1044E00008D011EA5E0FBDE8104004BF01F00041A2
:1044F00000207047BDE8104070B500F05FFA00BFC3
:1045000064FBBE3E0000E0FF2DE9C04130B4DFF89F
:10451000A0C23CEA111418BF3CEA131400F0EC806E
:1045200081EA03051CEA111444EAD57418BF1CEA99
:10453000131500F0C780A4EB05044FF0004545EAD1
:10454000C12145EAC32341EA505143EA525304F1E1
:104550007F74994204F500344FEAC0204FEAC2222A
:1045600008BF904200F09C804FEA13650FF240169E
:10457000765D4FEA134506FB05F7C7F1807706FB2A
:1045800007F74FEAD737A7FB03687642C8F58038AC
:10459000A7FB06CE38BFA8F1010807FB08E64FF0DD
:1045A000000EA6FB028CE6FB03CEDCF1000CCEF184
:1045B000004E38BFAEF1010EA6FB0C584FF00007BD
:1045C0004FF00005E6FB0E87A1FB08C6A0FB07CE57
:1045D00016EB0E0645F10005E1FB076515F1E04E0F
:1045E0007EBFA4F580345FEA46066D4116F1800770
:1045F00045F100054FEA17274FEA066647EA0567C7
:10460000A6F1DE46B6F1805F4FEA15251FD9384680
:1046100024F0010C05EBC471BCF1FE6F01EB0C1131
:1046200002D8F0BCBDE8008124425CBF01F5801EC9
:104630009EEAC47F02D4F0BCBDE80081244238D495
:10464000F0BCA1F1C041BDE8004100F005BA4FEA5D
:10465000D22242EA43524FEAD323A7FB02864FEA13
:10466000D02040EA415007FB03661EEA0E0F4FEAD6
:10467000D12105FB026658BFA6EB0056B6EB0056EB
:104680004FEA520E4EEAC37E18EB0E0E56EB530E57
:10469000BDD518EB02085E417F1C55F10005B6E759
:1046A0004FF480154FF000074FF000064FF0000860
:1046B000ADE7F0BC4FF0000001F1C04101F0004156
:1046C000BDE8008111EA0C1F0CEA131500D00CE0C4
:1046D00013EA0C1F00F025804FF00000F0BC81EAC7
:1046E000030101F00041BDE80081F0BCBDE80041DC
:1046F00081EA030100F0B0B9F0BCBDE8004170B53B
:1047000000F05CF9097EFC3E00F007B881EA030185
:104710004FF0000001F00041704781EA030100F012
:104720009BB9F0BCBDE800414FF000002149704743
:10473000FFFDFBF9F7F5F4F2F0EEEDEBE9E8E6E466
:10474000E3E1E0DEDDDBDAD8D7D5D4D3D1D0CFCDED
:10475000CCCBCAC8C7C6C5C4C2C1C0BFBEBDBCBB26
:10476000BAB9B8B7B6B5B4B3B2B1B0AFAEADACAB21
:10477000AAA9A8A8A7A6A5A4A3A3A2A1A09F9F9EFB
:104780009D9C9C9B9A9999989797969595949393AD
:10479000929191908F8F8E8E8D8C8C8B8B8A898944
:1047A00088888787868585848483838282818180C7
:1047B0000000FF070000F87F4FEA1153A3F5806364
:1047C000D3F11E03A8BFD3F1200C08DB4FF0004249
:1047D00042EAC12252EA505232FA03F070470942CB
:1047E0000BD4102BC4BF0020704703F5787CBCF1BC
:1047F000FF3F05D04FF0FF3070474FF0000070478B
:1048000070B500F0DBF800BF4992248000207047AB
:10481000F0E710F0004248BF4042B0FA80F310FACF
:1048200003F10AD0C3F11D0303F580634FEA415041
:1048300002EB035202EBD12170474FF000007047AA
:10484000B0FA80F310FA03F10AD0C3F11D0303F5A7
:1048500080634FEA41504FEA035202EBD121704787
:104860004FF0000070470000DFF848C170B51CEA47
:10487000111E1EBF1CEA13159EEA0C0F95EA0C0FC1
:1048800000F06F8081EA030423EA4C134EEAD47EE1
:1048900021EA4C1141F4801143F48013AE44A1FB92
:1048A000024CA0FB0365AEF17F7E361955EB0C057B
:1048B000A1FB034C4CF10003A0FB021C16EB0C0601
:1048C000654153F10003094218BF46F0010613F495
:1048D000007F0BD14FEA03314FEA0530340341EA40
:1048E000155140EA16506FF003020AE04FEAC32167
:1048F0004FEAC520F40241EA555140EA56506FF0A4
:10490000020202EB2E4201EB025585EACE710AD07B
:104910005FEA440C18BF24F0004450F1000041F15C
:10492000000120EAD47040F2FE7C624500D270BDE6
:10493000A84214BF4FF080444FF04044002E08BFFF
:104940000024BEF1806FA8BFA1F1C041BDE8704056
:1049500080F282804FF0000001F1C04101F000417F
:1049600070479EEA0C0F0CEA131518BF95EA0C0F5E
:1049700006D04FF0000081EA030E0EF0004170BD3A
:1049800000F01CF88900013E00F007B800F009B8FB
:104990004FEA430C5FEA5C5C08D081EA030100F057
:1049A0005BB84FEA410C5FEA5C5CF6D14FF0000067
:1049B000014970470000FF070000F87F0EF1020E6A
:1049C0002EF0030E5EF8046B364205D4012A43EB49
:1049D000030515F5001F12D8012841EB010C1CF549
:1049E000001F0CD80ED14FEAD17C15F5001F0CEB3F
:1049F0004C0C0CF1020C08BF4CEBD37C04E04FF0E4
:104A0000080C01E04FEAD37C0CEB4C0526FA05F6C6
:104A100006F00706B6F1040C06D20EEB860CBDE8D4
:104A200070404CF0010C6047DFE80CF0090B02020B
:104A30004FF000414FF00000A1F5002170BD194674
:104A40001046012851EB010418BFD4F5001484BFAF
:104A5000002001F0004170BD0808A0F500114FEAE8
:104A60003101704710B591EA030F48BF83F000434E
:104A70003FF5AAAC841A71EB030C07D212198CF023
:104A8000004C43EB0C03001B61EB0C01DFF8A4E1CD
:104A90004FEA1154A4EB135C1EEA430F18BF9EEAC1
:104AA000445F00F0B08023EA6E03524221EA0451D1
:104AB000C3EB6E0338BF5B1EDCF1200E25D322FA58
:104AC0000CFE10EB0E0043FA0CFE41EB0E01CCF194
:104AD000200E03FA0EFE10EB0E0051F10001CCF196
:104AE000200E29D412FA0EF201EB0451BDE8104059
:104AF00058BF7047401C1CBFB2F1004F70470028E0
:104B00000CBF491C20F00100704712EB020E43EB72
:104B1000030218BF4FF0010E4EEA4202ACF1200C26
:104B2000DCF11E0E54D943FA0CFE10EB0E0051F1CD
:104B3000FF31CCF11E0ED5D50EF1010E12FA0EFE8C
:104B4000404141EB010101EB445C5FEA5C5C10D940
:104B500010EBDE7001EB045138BFBEF1004FBDE831
:104B6000104018BF704700280CBF491C20F00100FE
:104B7000704730D24FEAD42C11F5001124F40064B0
:104B80001BD0B1FA81F20B3AA41AA41ED2F1200371
:104B9000914030FA03F31943904001EBCC71002CA3
:104BA00001EB0451BDE81040A8BF704701F1C041BE
:104BB0004FF0000001F000417047B0FA80F310FAA6
:104BC00003F100D110BDE41A173C4805C90AE4E717
:104BD00001EB045110BD491001EB0451BDE8104038
:104BE0004FEA300002E04FF0000170474A0008BF72
:104BF0000042F8D0B2F5001F28BF704701F0004115
:104C00004FF0000070479EEA445F07D011EA5E0F44
:104C1000BDE8104004BF002100207047BDE81040EF
:104C200070B5FFF7CBFE00BF40DFF63E83F00041DA
:104C3000104670470000E0FF4FF04070E1EE100AB0
:104C400070470001020304050607080C1014182021
:104C500030400000000000000000010203040607CD
:104C60000809000000000102030400008C4C000849
:104C700000000020D800000014020008644D000865
:104C8000D800002058090000300200080000000091
:104C90000000000000000000000000000000000014
:104CA0000000000000000000000000000000000004
:104CB00000000000000000000000000000000000F4
:104CC00000000000000000000000000000000000E4
:104CD00000000000000000000000000000000000D4
:104CE00000000000000000000000000000000000C4
:104CF000100220001102000000000000000000006F
:104D000000000000000000000000000000000000A3
:104D10000000000000000000000000000000000093
:104D20000000000010000000010000000024F4005A
:104D30000000000000000000000000000000000073
:104D40000000000000000000000010400000000013
:104D50000100000000000000000000000000000052
:044D6000CDCCCC3DAD
:04000005080001D915
:00000001FF
