:020000040800F2
:10000000B0850124A1030008FB3E0008A93A0008BE
:10001000F93E0008B7050008574C00080000000032
:10002000000000000000000000000000E1020008E5
:10003000B9050008000000003D0300080142000867
:10004000BF030008BF030008BF030008BF03000888
:10005000BF030008BF030008BF030008BF03000878
:10006000BF030008BF030008BF030008BF03000868
:10007000BF030008BF030008BF030008BF03000858
:10008000BF030008BF030008BF030008BF03000848
:10009000BF030008BF030008BF030008BF03000838
:1000A000BF030008BF030008BF030008BF03000828
:1000B000BF030008BF030008BF030008BF03000818
:1000C000BF030008BF030008BF030008BF03000808
:1000D000BF030008BF030008BF030008BF030008F8
:1000E000BF030008BF03000800000000BF030008B2
:1000F000BF030008BF030008BF030008BF030008D8
:10010000BF030008BF030008BF030008BF030008C7
:10011000BF030008BF03000899430008BF0300089D
:10012000BF030008BF030008BF030008BF030008A7
:10013000BF03000861060008BF030008BF030008F2
:1001400000000000000000000000000000000000AF
:10015000BF030008BF030008BF030008BF03000877
:10016000BF030008BF030008BF030008BF03000867
:10017000BF030008BF030008BF0300080000000021
:10018000BF030008BF030008BF030008BF03000847
:10019000BF030008BF030008BF030008BF03000837
:1001A000BF030008BF030008BF03000800000000F1
:1001B000BF030008BF030008BF030008BF03000817
:1001C000BF030008BF03000800000000000000009B
:1001D0000000000000000000BF0300080000000055
:1001E000000000000000000000000000000000000F
:1001F0000000000000000000BF030008BF0300086B
:10020000BF030008BF03000800000000BF03000890
:10021000BF030008BF030008BF030008BF030008B6
:10022000BF03000800000000BF030008000000003A
:10023000BF030008BF03000800000000BF03000860
:10024000BF030008BF030008BF030008BF03000886
:10025000BF030008BF030008BF030008BF03000876
:10026000BF030008BF030008BF030008BF03000866
:10027000BF030008BF030008BF0300080000000020
:10028000BF030008BF030008BF030008BF03000846
:1002900000000000BF030008BF03000800000000CA
:1002A00000000000BF030008BF030008BF030008F0
:1002B000BF030008BF030008BF030008BF03000816
:1002C000BF030008BF030008BF030008DFF80CD01D
:1002D00000F034F900480047AD750008B0850124EE
:1002E0002C4B19680868B0E8F04F80F30988BFF319
:1002F0006F8F4FF0000080F31188704700000000FE
:1003000008480068006880F308884FF0000080F318
:10031000148862B661B6BFF34F8FBFF36F8F00DFF3
:1003200000BF00BF08ED00E0DFF80C00016841F4F9
:1003300070010160704700BF88ED00E0EFF30980B5
:10034000BFF36F8F134B1A681EF0100F08BF20ED1C
:10035000108A20E9F04F106009B44FF0500080F38C
:100360001188BFF34F8FBFF36F8F10F0C3FA4FF0B8
:10037000000080F3118809BC19680868B0E8F04FE4
:100380001EF0100F08BFB0EC108A80F30988BFF38D
:100390006F8F704738670024EFF3058070470000C7
:1003A000074880470748804707480047FEE7FEE7C1
:1003B000FEE7FEE7FEE7FEE7FEE7FEE7FEE7FEE715
:1003C000D10D0008C1420008CD0200082DE9F05F00
:1003D0000546002092469B468846064681464024B4
:1003E0001BE0284641464746224600F097F8534610
:1003F0005A46C01A914110D311461846224600F0C1
:100400007EF82D1A67EB01084F4622460120002195
:1004100000F075F817EB00094E41201EA4F101040D
:10042000DFDC484631462A464346BDE8F09F0000DF
:100430000649074A0868504343F2390210440860ED
:10044000400870470149086070470000A067002419
:100450006D4EC64110B5431A934209D283188818CD
:1004600003E010F8011D03F8011D521EF9D210BD62
:1004700040EA01039B0703D009E008C9121F08C026
:10048000042AFAD203E011F8013B00F8013B521EA6
:10049000F9D210BDD2B201E000F8012B491EFBD207
:1004A00070470022F6E710B513460A46044619467F
:1004B000FFF7F0FF204610BD30B50446002003468C
:1004C00000E05B1C934203D2E05CCD5C401BF8D0A3
:1004D00030BD30B50B46014600202022012409E042
:1004E00021FA02F59D4205D303FA02F5491B04FAED
:1004F00002F52844151EA2F10102F1DC30BD202ACC
:1005000004DB203A00FA02F1002070479140C2F16A
:10051000200320FA03F3194390407047202A04DB9C
:10052000203A21FA02F00021704721FA02F3D0406C
:10053000C2F120029140084319467047064C074D0E
:1005400006E0E06840F0010394E8070098471034A3
:10055000AC42F6D3FFF7BEFE041A0108241A0108C4
:1005600070B58C1810F8015B15F0070301D110F875
:10057000013B2A1106D110F8012B03E010F8016BA2
:1005800001F8016B5B1EF9D12B0705D40023521E25
:100590000DD401F8013BFAE710F8013BCB1A921C8D
:1005A00003E013F8015B01F8015B521EF9D5A1428B
:1005B000D8D3002070BDFEE7704710B5002200239D
:1005C000016902EB420401EBC4010B604B608B60DC
:1005D000CB600B614B6100EB8204A164521C042AC6
:1005E000EED3C36503668366C36683650322016831
:1005F00001F58051C1F830210168026901F580518F
:10060000C1F81C2101690068483100F58050C0F82C
:10061000281110BD10B500220023C16802EB42046E
:1006200001EBC4010B604B608B60CB6000EB82047C
:10063000A161521C042AF0D383620322016801F5F0
:100640008051C1F82C210168C26801F58051C1F8C0
:100650001421C168006800F58050C0F8201110BD59
:10066000014800F0EDBC0000DC6A002470B5A2B0C7
:10067000064601258DF83350002412948DF8414030
:100680008DF843408DF828508DF856508DF8325033
:100690008DF84C408DF8845068030F908DF85C40C5
:1006A00018948DF885408DF886404FF4C3601690FD
:1006B0008DF830400B948DF835508DF836408DF81C
:1006C00040401D941B9414948DF864408DF87A403A
:1006D0008DF84250202020908DF844508DF85540E0
:1006E0004FF040500990A8030E908DF83140022041
:1006F0001F908DF878408DF879408DF854408DF832
:1007000034501A948DF8705009A9304600F04CFA14
:100710008DF80450029500948DF81C408DF80D4022
:100720008DF80C40690506918DF8144004918DF800
:100730001D404FF4067008906946304600F0E4F919
:1007400022B070BD0020704701F0CAB910B5024850
:1007500000F07CFF002010BDDC6A002410B51346B9
:100760000A460146044800F09EFE10B14FF0FF30EB
:1007700010BD002010BD0000DC6A002410B5134637
:100780000A460146044801F067F810B14FF0FF3007
:1007900010BD002010BD0000DC6A00242DE9F04FE0
:1007A00000F11806346927464FF0000C56F8243043
:1007B0008D68E046D3F80C90B9F1000F06DB06EB2C
:1007C0008409D9F81490B9F1000F02D00220BDE8D5
:1007D000F08F91F800905FEA497943D5D3F80C90F7
:1007E000D1F824A06FF30F0949EA0A09C3F80C9065
:1007F000D3F80C9049F48039C3F80C90D0F80090ED
:10080000D9F860A04AF4801AC9F860A091F8009065
:100810005FEA097926D5B1F82CA0D3F808906AF3DD
:100820001F49C3F80890D3F80C9049F40039C3F875
:100830000C90D3F80C90D1F830A029F4402949EA63
:100840000A09C3F80C90D0F80090D9F864A04AF4D3
:10085000801AC9F864A00068D0F8509049F0806907
:10086000C0F850900878C0060BD59868D1F8189059
:100870006FF30D0040EA09009860D86840F080608E
:10088000D860087810F0140F1ED0D86840F080406F
:10089000D860BFF35F8FD86840F00040D860641C18
:1008A000042C00D3241F56F824304FF0010CD868D4
:1008B000002809DA56F82700BFF35F8FC16821F0DE
:1008C0000041C160022082E70CF1010C2868186029
:1008D0009868D5F804906FF30D0040EA090098601D
:1008E000DFF820924FF0000AA86858B10546286842
:1008F0005860D3F808B0A8880BEA090B4BEA00400F
:10090000986005E0C3F804A0986800EA09009860C0
:100910000878C00614D5D868B1F820B020F4F000EB
:1009200040EACB40D860D868D1F81CB06FF3110012
:1009300040EA0B00D860D86840F48020D8601DE001
:10094000D868D1F804B06FF30E0040EA0B00D8600D
:100950000878C00707D0D868D1F814B020F4403028
:1009600040EA0B00D8600878800607D5D868D1F82F
:1009700010B020F0406040EA0B00D86008784007D3
:1009800007D59868D1F828B020F4404040EA0B0021
:100990009860D86840F00050D860D86820F0804057
:1009A000D860BFF35F8FD86840F00040D860087807
:1009B000800707D5D868D1F80CB020F0607040EA05
:1009C0000B00D86079E0D86820F08050D860641CB3
:1009D000042C00D3241F56F82430D86820F000508F
:1009E000D860D868002803DB06EB84004069A0B11A
:1009F00056F8271000200CE0BFF35F8FCA6822F082
:100A00000042CA607F1C042F00D33F1F56F82710F6
:100A1000401C6045F0D30220D9E60CF1010CAD6812
:100A2000286818609868D5F804B06FF30D0040EAA4
:100A30000B009860A86858B1054628685860D3F83C
:100A400008B0A8880BEA090B4BEA0040986005E063
:100A5000C3F804A0986800EA090098600878C00606
:100A60000CD5D868D1F81CB06FF3110040EA0B0028
:100A7000D860D86840F48020D86012E0D868D1F8F7
:100A800004B06FF30E0040EA0B00D8600878C0078E
:100A900007D0D868D1F814B020F4403040EA0B00F9
:100AA000D86008F10108BFF35F8FD86840F00040BC
:100AB000D860D86820F08040D860A868002882D12B
:100AC00022B1986840F00040986003E0986820F0F8
:100AD00000409860D86840F08050D86006EB8401F0
:100AE000706A48613461EFF31080012181F310884E
:100AF000B16A08F101084144B16280F31088002016
:100B000065E60000FFFF00C030B5026802F58052C4
:100B1000136847F60204A3430C68234313600A7961
:100B20000B7B120342EAC3338A681343026802F55F
:100B3000805254684DF20105AC431C4354604B7B1A
:100B40000A6A42EA0343026802F58052D2F8004181
:100B5000124D2C401C43C2F800410A7D4B7F12010C
:100B600042EA03330A691343026802F58052D2F85D
:100B700004410B4D2C401C43C2F804418A69097F93
:100B800042EAC171006800F58050D0F80821054B99
:100B90001A400A43C0F8082130BD000000C0FEFF23
:100BA000EFEFC0FFFFFFC07F30B50B688A680C7B9A
:100BB0001A430B79DB0643EAC4531A434B7B42EAE0
:100BC00083528B7B42EA4352CB7B42EA03530A7C3B
:100BD000002A7CD0002243EAC2434A7C002A77D014
:100BE000002243EA42428B7C42EA03424B691A43A9
:100BF0008B691A430B7F42EA03324B7F42EAC323DD
:100C00008A7F002A65D0002243EA8222CB7F42EA13
:100C1000432391F82020002A7CD0002243EA0222BC
:100C200051F8243F1A430B7942EA03138A681343AD
:100C3000026814683F4D2C401C4314600A7E0B7DF3
:100C4000520642EA03620B7B42EA83424B7B42EA52
:100C500043438A7B2439002A65D0002243EA0243B9
:100C60004A6B134302685468334D2C401C43546054
:100C700091F840304A6C42EA03230268D46840F29B
:100C80000F15AC431C43D46091F854300A6D42EA0E
:100C9000430391F84C20E2B3002231F8484FD201CF
:100CA00042EA044213430268146F4FF60D752C405C
:100CB0001C4314674B7B8A7B42EA4303026852F869
:100CC000904F24F003041C431460026802E022E009
:100CD00023E024E0D2F8003D0C6923F072032343A3
:100CE000C2F8003D0A7E4B69483902B3002243EA4C
:100CF000821211F8613F49781B0143EAC1010A439E
:100D00000068D0F8301D21F07B011143C0F8301D80
:100D100030BD0AE005E001225DE7012261E7012222
:100D200072E701227AE7012298E70122B5E7012262
:100D3000DDE70000838004000080F8C02DE9F8435F
:100D40000646002000904FF00108B46E06EB8400C8
:100D5000856CF76E1FE0286930B9684600F010FC1A
:100D6000009850B128612860B8F1000F13D0B06D21
:100D700030B14FF04140E86005E04FF00008F3E784
:100D80004FF00140E860641C042C00D3241F06EBE4
:100D90008400856C7F1E17B1B8F1000FDBD1F06EB7
:100DA000B84210D0E01C00F00300BFF35F8F316940
:100DB00000EB400001EBC001306800F58050C0F846
:100DC0002811B466F766BDE8F88372B6FEE7000046
:100DD0000548016841F002010160034808380168D4
:100DE0008904FCD5704700000C480258094E0025C4
:100DF000094F4FF47A79094CDFF824803088388025
:100E000035802088A8F80000258048460FF084FC33
:100E1000F4E7000004620024066200240862002453
:100E20000A62002470B5044600F05AFE0546601CB4
:100E300002D004480078044400F052FE401BA04257
:100E4000FAD370BD506200247047000010B500F066
:100E50000BF8000605D503484068BDE8104007F0D0
:100E600011BE10BD14620024D0F88C007047D0F879
:100E70008800704700297DD00268126802F00C02D9
:100E8000CA6202681268C2F3001281F82820026860
:100E9000126802F060024A620268126842F300229D
:100EA000521C81F8202002681268C2F34022CA77DF
:100EB0000268126842F38022521C8A770268126824
:100EC000C2F3C0224A7702681268C2F300320A777E
:100ED0000268126802F400528A610268126802F421
:100EE00080424A6102681268C2F300428A74026852
:100EF000126842F34042521C4A740268126842F37C
:100F0000C042521C0A7402681268C2F30052CA73CB
:100F100002681268C2F340528A7302681268C2F310
:100F200080524A7302681268C2F3C0520A730268A0
:100F3000126802F0E0628A6002681268C2F3C0625E
:100F40000A710268126802F0E0420A6002685268A0
:100F5000C2F30D024A630268526842F30042521C17
:100F600081F8322002685268C2F3404281F8312091
:100F7000026800E062E05268C2F3804281F83020EB
:100F800002685268C2F3006281F838200268526831
:100F9000C2F34462CA630268D268C2F3002281F8D5
:100FA00040200268D26802F00F024A640268126FA1
:100FB000C2F3400281F854200268126F42F3C0125B
:100FC000521C81F84C200268126F02F070020A6510
:100FD0000268126F120C8A640268D2F89020C2F381
:100FE000000281F856200268D2F89020C2F3400235
:100FF00081F855200268D2F8002D02F072028A654D
:101000000268D2F8302D02F02302CA650268D2F8D5
:10101000302DC2F3C00281F862200268D2F8302D70
:10102000C2F3001281F861200068D0F8300D40F35F
:101030008010401C81F8600000207047012070473C
:101040002DE9F04704462068D0F8B06000F58050E4
:10105000D0F86051D0F834714FF0B049D9F8A88079
:10106000690608D5790606D548F24001C0F8601136
:10107000204600F0A9FA05EA0700C00709D0206859
:1010800048F2010100F58050C0F86011204600F0E0
:10109000D9FB68044FF0E00A2BD5780429D5D4F8A1
:1010A000880040F00800C4F88800E80411D52068E2
:1010B00000F5805000F59A70C16A41F202121140A9
:1010C000C4F88C10016821F440410160C4F884A088
:1010D0000CE0206800F58050D0F8601101F4CD419B
:1010E000C4F88C104FF4CD41C0F860112046FFF7D2
:1010F000ADFE70044FF0000501D4B00411D5D4F852
:10110000880040F01000C4F888002068D0F8B800CB
:10111000C4F89000C4F884A02046FFF797FEC4F8F6
:101120009050F0060BD52068D0F8C00000F06000A9
:10113000C4F89400204600F041F9C4F89450B00679
:101140000BD52068D0F8D00000F00F00C4F898004C
:101150002046FFF779FEC4F898505FEA482006D58C
:101160004FF48000C9F8A800204600F073FBBDE8EA
:10117000F0870000F8B50446002C03D0D4F88400B2
:1011800010B107E00120F8BD2020C4F884002046FB
:1011900000F09EF84948016841F0020101600068D2
:1011A00000F002000090207A98B14FF4000002F0A5
:1011B000F7F943480068206800F58050016841F065
:1011C0000101016000F08CFC0546E0264FF4FA773F
:1011D0000EE0002002F0E4F9EBE700F081FC401B98
:1011E000B84205D904208434606026600120F8BD2F
:1011F000206800F580500068C007EED1204600F05E
:1012000025FA01F0C1FD2F49B0FBF1F02168401E25
:10121000C1F8DC002046FFF729FA206800F580506D
:10122000D0F8001121F4E01141F40021C0F80011C0
:101230006169880704D00120843460602660F8BDAD
:10124000206800F58050D0F8082147F6FE739A43D5
:1012500042EA4101C0F808112046FFF7DBF92046B9
:10126000FFF7ABF960680179407941EA0020216815
:10127000C1F800036068C278017841EA02618278AF
:101280004078120442EA002001432068C0F80413A9
:101290002068D0F80C170C4A1143C0F80C172068CE
:1012A000D0F81017094A1143C0F810170020C4F8ED
:1012B00088001020C4F884000020F8BDF4440258CF
:1012C0000404005840420F006000020C00C0200CD3
:1012D000F0B587B00446142102A8FFF7E2F83249BE
:1012E000206888425DD13148016841F400410160C5
:1012F000016801F400410191016841F4803101600D
:10130000016801F480310191016841F4003101600C
:10131000006800F40030019024480830016841F072
:1013200004010160016801F004010191016841F0CC
:1013300001010160016801F001010191016841F0C2
:1013400002010160006800F002000190322002906A
:101350000224039400250495032605960B2706977F
:10136000134802A900F0AAFA86200290039404957B
:101370000596069702A90F4800F0A0FA4FF46050B6
:101380000290039404950596069702A90A4800F076
:1013900095FA002205213D2000F090FC3D2000F050
:1013A0007FFC07B0F0BD000000800240D844025826
:1013B00000080258000002580004025870472DE946
:1013C000F35F04460027B8460198002806D0D4F8F9
:1013D0008400402809D00120BDE8FC9F54F8880F04
:1013E00040F0010020600120F6E7E66D04EB860086
:1013F000856CE06EC0F1040B4FF0000A37E0E8683E
:10140000400003D56868A06728686067E8688000C6
:1014100001D4E06F18B3E868800003D5C4F860A079
:10142000C4F864A0E868616EC0F30E00A0EB010987
:10143000E868C00003D5E86820674FF0010804F1B0
:1014400080012A691FFA89F3081F00F0C3F8206E93
:10145000401C2066606E48446066C5F810A0761C8B
:10146000042E00D3361F04EB8600856C7F1CE868D1
:10147000002804DB5F4502D2B8F1000FBFD0E06E58
:101480003844E06610B12046FFF758FCE665B8F135
:10149000010F01D001209FE70198E16F0160C4F8BE
:1014A0007CA0002098E72DE9F04104461F46206803
:1014B000D0F80032DB0702D00120BDE8F081D0F87F
:1014C000003223F0787343EA415121F4F81141EAE4
:1014D000024141F00C0141F00101C0F8001200F09E
:1014E000FFFA05464FF47A7606E000F0F9FA401B61
:1014F000B04201D90120E0E72068D0F80002C0071F
:10150000F3D12068D0F8040280B238600020D4E71C
:101510002DE9F047814609F11805AE6AEC6A4FF0F3
:10152000010825E00121761E05EB8400406920B901
:10153000641C042C00D3241F0021C9B104EB440116
:10154000D9F80C000C2202EBC101405800280DDB39
:1015500005EB8407786900F07BF900207861641C52
:10156000042C00D3241FAE62EC6201E04FF00008AF
:1015700016B1B8F1000FD5D10020BDE8F08700000A
:101580001CB504460D4806F071FD03467BB103F11E
:10159000200020600A4818614FF4C0612068412291
:1015A000CDE900010021084607F0DAFC1CBD054921
:1015B00001200870002020601CBD0000E816010812
:1015C00001960008146200240148406807F05ABAE6
:1015D0001462002430B5A2F1200400252560258185
:1015E00063810568002D04D00D682C600C600068D4
:1015F00005E00460FAE701891944018100680028C8
:10160000F9D1002B0EDD02F01F001844BFF34F8FFD
:1016100005490A60203220380028FADCBFF34F8FDA
:10162000BFF36F8F30BD00005CEF00E010B5002904
:1016300005D0D0F88420102A03D0012010BD01204D
:1016400010BDFFF7B1FA002010BD000070B50546CF
:101650002868D0F8000220F4706401F095FB10496E
:10166000884202D244F4007416E00E49884202D245
:1016700044F4407410E00C4988420DD30B49884271
:1016800002D244F4807407E00949884202D244F44B
:10169000806401E044F4A0642868C0F8004270BD92
:1016A000C00E16020087930300E1F50580D1F00813
:1016B00080B2E60E10B50446D4F88400102801D09C
:1016C000012010BD2020C4F884000120A065042062
:1016D000E0662046FFF732FB206800F58050D0F826
:1016E000041141F00101C0F80411206800F5805098
:1016F000D0F8081141F00101C0F80811206800F588
:101700008050D0F8601141F48171C0F860112068F8
:10171000D0F8001D41F00101C0F8001D20680168EB
:1017200041F0020101602068016841F0010101609F
:10173000206800F58050D0F834114DF2C1021143F9
:10174000C0F834114020C4F88400002010BDD0F847
:101750008410402901D0012070472021C0F8841056
:10176000016801F58051D1F834214DF2C1039A434B
:10177000C1F83421016801F58051D1F8042122F02B
:101780000102C1F80421016801F58051D1F8082156
:1017900022F00102C1F8082101680A6822F0010262
:1017A0000A600168D1F8002D42F00102C1F8002D55
:1017B00001680A6822F002020A60002100EB81023F
:1017C000926CD36823F08043D360491C0429F5D37D
:1017D000002181651021C0F884100020704710B5E9
:1017E0000446002905D0D4F88400402808D0012000
:1017F00010BD54F8880F40F001002060012010BD9A
:10180000486BE06301222046FEF7C8FF30B154F870
:10181000880F40F002002060012010BDBFF34F8F01
:10182000A06A401CA062042801D3001FA062A06A25
:1018300004EB80008169206800F58050C0F8201119
:10184000002010BD0148806807F01CB91462002414
:1018500007F028BE7047000070B505462868D0F82C
:101860000042E40701D0012070BDD0F8000220F052
:10187000787040EA415020F4F81040EA024020F02D
:101880000C00001D40F001000B499AB24A6008604C
:1018900000F026F904464FF47A7606E000F020F9CD
:1018A000001BB04201D9012070BD2868D0F80002A9
:1018B000C007F3D170BD0000008202402DE9F84F4F
:1018C0000022784D03264FF001080F274FF0B04C4F
:1018D000E1E008FA02F31C409A46002C7ED00B7916
:1018E00003F00303012B01D0022B1BD1D0F8089089
:1018F000530006FA03FB29EA0B09D1F80CB00BFAE6
:1019000003FB4BEA090BC0F808B0436823EA0A035B
:1019100091F80490C9F3001909FA02F949EA030998
:10192000C0F804900B79DB439B070ED0D0F80C90E5
:10193000530006FA03FA29EA0A09D1F808A00AFABC
:1019400003FA4AEA090AC0F80CA00B7903F0030372
:10195000022B14D1D30800EB8303D3F820A04FEA65
:1019600042794FEAD96907FA09FB2AEA0B0AD1F84A
:1019700010B00BFA09FB4BEA0A0BC3F820B0D0F801
:101980000090530006FA03FA29EA0A0991F804A024
:101990000AF0030A0AFA03FA4AEA090AC0F800A0A0
:1019A0004B6813F4403F75D03F4BD3F8009049F09B
:1019B0000209C3F800901B6803F00203009322F0B1
:1019C000030909F1B049D9F808B493074FEA137A2B
:1019D00007FA0AF32BEA030B344B00E05AE0984273
:1019E00001D1002328E0324B984201D1012323E0AA
:1019F000304B984201D102231EE02F4B984201D177
:101A0000032319E02D4B984201D1042314E02C4B01
:101A1000984201D105230FE02A4B984201D10623B9
:101A20000AE0294B984201D1072305E0274B984251
:101A300001D1092300E00A2303FA0AF343EA0B0366
:101A4000C9F80834DCF80030A343D1F804905FEA09
:101A5000C92900D52343CCF80030DCF80430A34377
:101A6000D1F804905FEA892900D52343CCF80430EB
:101A70006B68A343D1F804905FEA893900D523430A
:101A80006B602B68A343D1F804905FEAC93900D595
:101A900023432B60521C0C6834FA02F37FF419AF15
:101AA000BDE8F88F80000058F44402580000025846
:101AB0000004025800080258000C02580010025896
:101AC0000014025800180258001C02580024025842
:101AD000002A01D0816170470904816170470000CC
:101AE0000148806870470000506200240248816805
:101AF00002781144816070475062002410B50320C1
:101B000000F0FCF801F086F90F490A68C2F30323DC
:101B10000E4AD35C03F01F03D840096801F00F019F
:101B2000515C0B4A01F01F0120FA01F111600949D3
:101B300008600F2000F010F808B1012010BD00F07F
:101B40009DF8002010BD00001844025854170108E9
:101B5000606200245C62002410B58AB00446102C38
:101B60002FD200222146362000F0A8F8362000F0BF
:101B700097F8184804601848016841F010010160A6
:101B8000006800F01000009001A902A801F0CCF854
:101B90000798C0B101F01AF940001049B0FBF1F10B
:101BA000491E10480E4A026040F2E732C2604160AE
:101BB00000210161816001F000FD38B101200AB00F
:101BC00010BD0120FBE701F001F9E6E7054801F04F
:101BD0001DFDF4E754620024E844025840420F001F
:101BE00000100040906A0024134A417811601249A5
:101BF00008310A6822F001020A600B1F42681A606D
:101C0000027BC37A120742EA0362837A42EAC34242
:101C1000437B42EA8342837B42EA4342C37B42EAFC
:101C20000342437A42EA0322037A007842EA4302FB
:101C300002430A607047000098ED00E0BFF35F8F39
:101C40000448016821F480310160024900207031AC
:101C50000860704724ED00E0074940F0010008608B
:101C600005487038016841F480310160BFF34F8F3F
:101C7000BFF36F8F7047000094ED00E082B007481B
:101C8000016841F002010160006800F0020001906B
:101C900000220F21901E02B000F010B8F444025848
:101CA000002809DB012100F01F029140400980005B
:101CB00000F1E020C0F8001170470000F0B40D46BC
:101CC0000D4B1B68C3F30223C3F10704042C00D996
:101CD0000424191D072901D2002300E0DB1E012680
:101CE00006FA04F1491E294099409E40761E16408E
:101CF0003143F0BC02F0C0BF0CED00E000F0070182
:101D0000054A10684FF6FF03184040EA01200349D6
:101D100008431060704700000CED00E00000FA0579
:101D200070B514490A68D243520708D5096801F012
:101D30000701814201D0012070BD002070BD0A68FA
:101D400022F0070202430A60FFF7CAFE0446094D6B
:101D50004FF47A76083D06E0FFF7C2FE001BB04262
:101D600001D9012070BD2868C0438004F4D400204C
:101D700070BD00000C48025810B501F005F8054987
:101D80000968054AC1F30211515C01F01F01C84006
:101D900010BD0000204402585417010810B56949CD
:101DA0000A6802F003020968C1F30531654B1B1D87
:101DB0001B68C3F30013634C14342468C4F3CC04CD
:101DC00014FB03F300EE103AB8EE400A002971D07C
:101DD0009FED5D1A5B4BF7EE000A1033F2B39FEDF7
:101DE0005B2A012A7FD0022A7CD001EE901A196862
:101DF000F8EE611AC2EE212AC1F3080101EE901A31
:101E0000F8EE611A40EE011A31EEA00A22EE800AC5
:101E10001968C1F3462101EE101AB8EE411A31EEED
:101E2000201AC0EE011ABCEEE11A80ED001A196802
:101E3000C1F3064101EE101AB8EE411A31EE201A34
:101E4000C0EE011ABCEEE11A80ED011A1968C1F367
:101E5000066101EE101AB8EE411A00E008E071EEDA
:101E6000200A80EE201ABCEEC10A80ED020A10BDE5
:101E7000344A283A1468A4061ED51268C2F3C10475
:101E8000334AE24001EE902AF8EE612A01EE901A00
:101E90001968F8EE611A82EEA12AC1F3080101EE79
:101EA000901AF8EE611A40EE011A31EEA00A22EE05
:101EB000000AADE741E016E001EE901ADFED252AB9
:101EC0001968F8EE611A82EEA12AC1F3080101EE49
:101ED000901AF8EE611A40EE011A31EEA00A22EED5
:101EE000000A95E713E001EE901A1968F8EE611AFE
:101EF000C2EE212AC1F3080101EE901AF8EE611A30
:101F000040EE011A31EEA00A22EE800A80E701EECF
:101F1000901ADFED112A1968F8EE611A82EEA12AF3
:101F2000C1F3080101EE901AF8EE611A40EE011AB1
:101F300031EEA00A22EE000A6AE70021016041604A
:101F4000816010BD28440258000000390024744A02
:101F50000090D0030024744C20BCBE4B10B56949DE
:101F60000A6802F003020968C1F30551654B1B1DA5
:101F70001B68C3F30023634C1C342468C4F3CC04F3
:101F800014FB03F300EE103AB8EE400A002971D0BA
:101F90009FED5D1A5B4BF7EE000A1833F2B39FED2D
:101FA0005B2A012A7FD0022A7CD001EE901A1968A0
:101FB000F8EE611AC2EE212AC1F3080101EE901A6F
:101FC000F8EE611A40EE011A31EEA00A22EE800A04
:101FD0001968C1F3462101EE101AB8EE411A31EE2C
:101FE000201AC0EE011ABCEEE11A80ED001A196841
:101FF000C1F3064101EE101AB8EE411A31EE201A73
:10200000C0EE011ABCEEE11A80ED011A1968C1F3A5
:10201000066101EE101AB8EE411A00E008E071EE18
:10202000200A80EE201ABCEEC10A80ED020A10BD23
:10203000344A283A1468A4061ED51268C2F3C104B3
:10204000334AE24001EE902AF8EE612A01EE901A3E
:102050001968F8EE611A82EEA12AC1F3080101EEB7
:10206000901AF8EE611A40EE011A31EEA00A22EE43
:10207000000AADE741E016E001EE901ADFED252AF7
:102080001968F8EE611A82EEA12AC1F3080101EE87
:10209000901AF8EE611A40EE011A31EEA00A22EE13
:1020A000000A95E713E001EE901A1968F8EE611A3C
:1020B000C2EE212AC1F3080101EE901AF8EE611A6E
:1020C00040EE011A31EEA00A22EE800A80E701EE0E
:1020D000901ADFED112A1968F8EE611A82EEA12A32
:1020E000C1F3080101EE901AF8EE611A40EE011AF0
:1020F00031EEA00A22EE000A6AE700210160416089
:10210000816010BD28440258000000390024744A40
:102110000090D0030024744C20BCBE4B2DE9FC5F22
:10212000044600250026F94F2068DFF8E493C043F9
:10213000010104F10800019004F1280000900DD481
:10214000606EB8B1B0F5801F19D0B0F5001F1CD07B
:10215000B0F5401F00D00125EDB12E462088C043C8
:10216000C00535D4A06D05282FD2DFE800F01D2270
:10217000282F2F00386840F400303860ECE70198D1
:10218000022101F0BBFE0546E6E70098022101F0BE
:1021900047FF0546E0E7D9F80000616E20F44010E3
:1021A0000843C9F80000D9E7386840F400303860C7
:1021B0000CE00198002101F0A1FE054606E0009820
:1021C000002101F02DFF054600E00125A5B12E46B6
:1021D0002088DFF84083C04340051FD4D4F8A40012
:1021E000B0F5C00F18D010DC50B3B0F5001F2CD0E4
:1021F000B0F5800F0FD12EE0D9F80000A16D20F0CE
:1022000007000843C9F80000E2E7B0F5000F03D06B
:10221000B0F5200F00D001251DB32E462088C04305
:10222000000531D4D4F8A800B0F1407F2AD022DCD8
:10223000F0B3B0F1807F4BD0B0F1007F21D14DE001
:10224000386840F400303860E6E70198002101F07A
:1022500055FE0546E0E70098002101F0E1FE054645
:10226000DAE7D8F80000D4F8A41020F4600008439E
:10227000C8F80000D2E7B0F1806F03D0B0F1A06FD2
:1022800000D0012585B32E462068C04380010AD4C2
:10229000E06C30B1102832D0202836D0302800D061
:1022A00001258DB32E462088C043C00446D400E0EB
:1022B00009E0E06DB0F5005F5CD036DCA0B3B0F5AE
:1022C000805F38D150E0386840F400303860D9E79A
:1022D0000198002101F012FE0546D3E70098002185
:1022E00001F09EFE0546CDE7FFE7D8F80000D4F8E0
:1022F000A81020F0E0600843C8F80000C4E7386880
:1023000040F400303860CCE705E00198022101F08C
:10231000F5FD0546C5E77E48001F0168E26C21F027
:10232000300111430160BEE719E0B0F5405F03D012
:10233000B0F5804F00D0012515B32E462088C0434C
:1023400080042FD4206EB0F5403F29D021DC38B373
:10235000B0F5803F38D0B0F5003F20D13AE0386882
:1023600040F400303860E7E70198002101F0C6FD35
:102370000546E1E70098002101F052FE0546DBE743
:10238000D9F80000E16D20F4E0400843C9F80000EE
:10239000D4E7B0F5802F03D0B0F5A02F00D00125F1
:1023A000F5B12E462088C04340042BD4D4F8AC00AD
:1023B000B0F1405F24D01CDC10B3B0F1805F4FD08F
:1023C000B0F1005F1BD152E00198012101F096FDB0
:1023D0000546E5E70098012101F022FE0546DFE70A
:1023E000D9F80000216E20F4E0200843C9F800006D
:1023F000D8E7B0F1804F03D0B0F1A04F00D0012555
:10240000A5B32E462088C04300040AD4E06E30B144
:10241000B0F1805F3DD0B0F1005F3FD00125B5B392
:102420002E462068C043C0010AD4A06C30B10128F8
:1024300043D0022846D0032800D0012545B32E46BC
:102440002068C04340025AD4DFF8CCB0DBF800006B
:1024500040F48070CBF80000FFF742FB824648E072
:102460000198012101F04AFD0546C9E705E0009801
:10247000012101F0D5FD0546C2E7D8F80000D4F8E7
:10248000AC1020F0E0400843C8F80000BAE70BE0C9
:102490001EE0386840F400303860C0E70198012140
:1024A00001F02CFD0546BAE7D9F80000E16E20F0F6
:1024B00040500843C9F80000B3E7386840F40030E2
:1024C0003860BBE70198022101F018FD0546B5E729
:1024D0000F48001F0168A26C21F003011143016045
:1024E000AEE7FFF7FDFAA0EB0A00642801D9032547
:1024F00003E0DBF80000C005F3D58DB12E4620784F
:10250000DFF818A0C043C00763D073E02C44025822
:102510005044025858440258004802585444025843
:10252000DFF850B4DBF80000B4F8B01000F44070ED
:1025300001F44071884211D0DBF8000020F44070B3
:10254000DBF8001041F48031CBF80010DBF800100C
:1025500021F48031CBF80010CBF80000D4F8B000A3
:10256000B0F5807F11D1FFF7BBFA824609E0FFF793
:10257000B7FAA0EB0A0141F28830814201D9032564
:1025800003E0DBF800008007F1D50DB12E46B6E779
:10259000D4F8B000C0F3012103290FD0F54860380A
:1025A000016821F47C510160DBF80000B4F8B01040
:1025B000C1F30B010843CBF80000A0E7ED496039F7
:1025C0000A68ED4B22F47C52184042EA1010086071
:1025D000EAE7A06F18280BD005DC48B1082815D011
:1025E000102804D118E0202802D0282800D0012586
:1025F000C5B12E462078C04380072BD4606F0628D3
:1026000025D2DFE800F025181E2525250198012197
:1026100001F074FC0546EBE70098012101F000FD94
:102620000546E5E7DAF80000A16F20F0380008431E
:10263000CAF80000DEE70198012101F05FFC0546C1
:1026400006E00098012101F0EBFC054600E00125C1
:102650006DB12E462078C043400720D4D4F89000B6
:10266000062819D2DFE800F0190C12191919DAF846
:102670000000616F20F007000843CAF80000E9E796
:102680000198012101F03AFC054606E0009801217D
:1026900001F0C6FC054600E0012595B12E462078E4
:1026A000C043800620D4D4F88C00B0F1405F19D02C
:1026B00011DCB8B1B0F1805F28D0B0F1005F10D16B
:1026C0002AE0D8F80000D4F8901020F00700084362
:1026D000C8F80000E3E7B0F1804F03D0B0F1A04F9D
:1026E00000D00125F5B12E462078C04340062CD4F9
:1026F000D4F89800B0F5406F25D01DDC18B3B0F5C4
:10270000806F34D0B0F5006F1CD136E00198002105
:1027100001F0F4FB0546E5E70098022101F080FC9A
:102720000546DFE7DAF80000D4F88C1020F0E0402E
:102730000843CAF80000D7E7B0F5805F03D0B0F5D2
:10274000A05F00D00125F5B12E462078C0430006D9
:102750002CD4D4F89C00B0F5C04F25D01DDC18B3A4
:10276000B0F5005F2CD0B0F5804F1CD12EE0019861
:10277000002101F0C3FB0546E5E70098022101F0C6
:102780004FFC0546DFE7D8F80000D4F8981020F495
:10279000E0500843C8F80000D7E7B0F5004F03D079
:1027A000B0F5204F00D00125B5B12E462078C043AA
:1027B00000072AD4D4F88000B0F5805F16D01BE063
:1027C0000198002101F09AFB0546EDE700980221EF
:1027D00001F026FC0546E7E7D8F80000D4F89C1085
:1027E00020F460400843C8F80000DFE700980221A9
:1027F00001F016FC00B10126DAF80000D4F88010D0
:1028000020F440500843CAF800002078C043C006B6
:1028100013D4D4F89400B0F5807F05D1009802213C
:1028200001F0FEFB00B10126D8F80000D4F89410A6
:1028300020F440700843C8F800002068C04300033B
:102840000BD4D4F8A000E8B3B0F5803F7DD0B0F54C
:10285000003F00D00125B5B32E462068C043400399
:102860000DD4D4F88400B0F5801F70D0B0F5001FEF
:102870006ED0B0F5401F00D001252DB32E46206844
:10288000C043C00307D4206DF0B3B0F5803F75D0CE
:102890000125D5B32E462068C043800005D400989A
:1028A000022101F0BDFB00B101262068C043800376
:1028B00011D4E06F68B1B0F5807F76D0B0F5007FBD
:1028C00007D002E05BE066E07BE0B0F5407F00D03F
:1028D0000125DDB32E462068C043C00207D4D9F8D5
:1028E0000000216F20F000400843C9F80000206874
:1028F000C043800207D4D9F80000A16E20F0807098
:102900000843C9F8000001E065E06FE02068C043BB
:1029100040000AD417486038016821F40041016082
:102920000168D4F8B420114301602068C04307D483
:10293000104824380168626D21F040511143016054
:102940002068C04300020DD403E01EE05BE02DE0F0
:1029500031E0DAF80000D4F8881020F44000084391
:10296000CAF8000020790025C04300F00100284388
:1029700052D057E070440258FFFCFF0F30E001983E
:10298000002101F0BBFA054665E70098022101F03D
:1029900047FB05465FE7D8F80000D4F8A01020F404
:1029A00040300843C8F8000057E727E0386840F493
:1029B0000030386061E70098012101F031FB0546E5
:1029C0005BE7DAF80000D4F8841020F440100843E4
:1029D000CAF8000053E7386840F40030386058E720
:1029E0000198022101F08AFA054652E72E48016853
:1029F000226D21F48031114301604CE7386840F4C6
:102A00000030386065E7DAF80000E16F20F44070CC
:102A10000843CAF800005EE70198002101F06EFA51
:102A200000B106462079C04300F00200284305D1DA
:102A30000198012101F062FA00B106462079C043F5
:102A400000F00400284305D10198022101F056FA54
:102A500000B106462079C04300F00800284305D1A4
:102A60000098002101F0DCFA00B106462079C0434D
:102A700000F01000284305D10098012101F0D0FAA0
:102A800000B106462079C04300F02000054305D17F
:102A90000098022101F0C4FA00B1064616B10120E7
:102AA000BDE8FC9F0020FBE74C4402582DE9F05F95
:102AB00004460D46002C17D0DFF84C82D8F80000F1
:102AC00000F00F00A84211D2D8F8000020F00F004B
:102AD0002843C8F80000D8F8000000F00F00A84212
:102AE00004D00120BDE8F09F0120FBE72078874E4D
:102AF00040070AD52069316801F07001884204D985
:102B0000316821F07001014331602078804F000767
:102B10000AD56069396801F07001884204D93968C2
:102B200021F07001014339602078C0060AD5A06900
:102B3000396801F4E061884204D9396821F4E06120
:102B4000014339602078DFF8CC9180060DD5E0692B
:102B5000D9F8001001F07001884206D9D9F80010A8
:102B600021F070010143C9F80010207880070AD5D0
:102B7000E068316801F00F01884204D9316821F022
:102B80000F01014331602078C00743D03068A1684D
:102B900020F47060084330605C496068183902288E
:102BA00008D003280BD001280ED00968490710D49B
:102BB000012097E7096889030BD4012092E709688F
:102BC000890106D401208DE70968C90501D40120D7
:102BD00088E7DFF838A1AAF1080ADAF8001021F036
:102BE00007010143CAF80010FEF77AFF834609E0A7
:102BF000FEF776FFA0EB0B0141F28830814201D94C
:102C000003206FE7DAF80000616800F03800B0EBED
:102C1000C10FEDD1207880070AD5E068316801F056
:102C20000F01884204D2316821F00F010143316065
:102C3000D8F8000000F00F00A8420ED9D8F8000024
:102C400020F00F002843C8F80000D8F8000000F07A
:102C50000F00A84201D0012044E7207840070AD5A0
:102C60002069316801F07001884204D2316821F096
:102C7000700101433160207800070AD56069396826
:102C800001F07001884204D2396821F070010143DB
:102C900039602078C0060AD5A069396801F4E0617E
:102CA000884204D2396821F4E06101433960207818
:102CB00080060DD5E069D9F8001001F07001884256
:102CC00006D2D9F8001021F070010143C9F80010B4
:102CD00000F0A0F83168C1F303220F498A5C02F0CA
:102CE0001F02D040326802F00F02895C0B4A01F0EB
:102CF0001F0120FA01F111600949086009480068C4
:102D0000BDE8F05FFEF728BF0020005218440258CB
:102D10001C440258204402585417010860620024E1
:102D20005C620024546200243F220260144A12684C
:102D300002F007024260124A0832136803F470631B
:102D40008360136803F00F03C360126802F070021F
:102D500002610B4A0C32136803F07003436112687E
:102D600002F4E0628261064A1032126802F07002D8
:102D7000C2610448006800F00F000860704700005E
:102D8000104402580020005200B500F043F80B49EF
:102D90000A68C2F303230A4AD35C03F01F03D84036
:102DA000096801F00F01515C064A01F01F0120FA89
:102DB00001F11160044A1060084600BD1844025831
:102DC00054170108606200245C62002400B5FFF71C
:102DD000DBFF05490968054AC1F30211515C01F0A6
:102DE0001F01C84000BD00001C44025854170108D0
:102DF00000B5FFF7C9FF05490968054AC1F302217B
:102E0000515C01F01F01C84000BD00001C44025885
:102E10005417010830B564480068654C10F038015B
:102E2000624808D0021108290DD010290DD01829A8
:102E30000DD0104630BD21688906FBD52168C1F34D
:102E4000C101C84030BD104630BD5A4830BD56495A
:102E500018310A6802F003020968C1F30511524BE8
:102E60001C331B6803F001034F4D24352D68C5F357
:102E7000CC0515FB03F300EE103AB8EE400A00292A
:102E800077D0DFED4D0A484BB7EE001A20333AB346
:102E90009FED4A2A012A58D0022A6CD001EE901ADE
:102EA0001868F8EE611AC2EE212AC0F3080001EE9C
:102EB000900AF8EE611A40EE201A31EE810A22EEF5
:102EC000800A1868C0F34620401C00EE900AF8EE15
:102ED000600A80EE201ABCEEC10A10EE100A30BD66
:102EE000226892061BD52268C2F3C102D04001EECF
:102EF000900A1868F8EE612A01EE901AF8EE611A4D
:102F000082EEA12AC0F3080001EE900AF8EE611AE1
:102F100040EE201A31EE810A22EE000AD1E701EEDE
:102F2000901ADFED272A1868F8EE611A82EEA12ABE
:102F3000C0F3080001EE900AF8EE611A40EE201A84
:102F400031EE810A22EE000ABBE701EE901A186802
:102F5000F8EE611AC2EE212AC0F3080001EE900AD1
:102F6000F8EE611A40EE201A31EE810A22EE800A54
:102F7000A7E716E0FFE701EE901ADFED122A1868C6
:102F8000F8EE611A82EEA12AC0F3080001EE900A61
:102F9000F8EE611A40EE201A31EE810A22EE000AA4
:102FA0008FE7002030BD0000104402580090D0038D
:102FB0000044025840787D01000000390024744A22
:102FC0000024744C20BCBE4B2DE9F05F0446002C5D
:102FD00010D02078DFF8F883FE4EFF4DC0075DD09B
:102FE000D8F8000000F03800316810281FD01828E9
:102FF00003D006E00120BDE8F09F01F003000228A5
:1030000015D06068B0F5803F18D0E0B1B0F5A02FC2
:1030100022D0286820F480302860286820F480209E
:103020002860606860B3FEF75BFD074624E028680F
:10303000800333D5606810BB0120DCE7286840F4CA
:1030400080302860EDE7286820F480302860286808
:1030500020F480202860E4E7286840F4802028607D
:10306000286840F480302860DBE7FEF739FDC01B9C
:10307000C82801D90320BEE728688003F5D50DE0F4
:10308000FEF72EFD074606E0FEF72AFDC01BC82806
:1030900001D90320AFE728688003F5D420788007A2
:1030A00064D5D8F8000000F038003168DFF82893C4
:1030B00009F1040970B1182801D188070AD0E06825
:1030C000A0B3296821F0190101432960FEF708FD2A
:1030D00007462CE02868400701D5E06848B1286819
:1030E000E16820F0190008432860FEF7F9FC074664
:1030F00008E001207FE7FEF7F3FCC01B022801D99E
:10310000032078E728684007F5D5D9F80000217C2E
:1031100020F0FE4040EA0160C9F8000026E0FEF71A
:10312000DFFCC01B022802D9032064E70CE02868FA
:103130004007F4D5D9F80000217C20F0FE4040EA99
:103140000160C9F8000011E0286820F00100286043
:10315000FEF7C6FC074606E0FEF7C2FCC01B0228CD
:1031600001D9032047E728684007F5D42078C00636
:1031700055D5D8F8000000F038003168DFF85092DB
:103180000828A9F104090FD0182803D101F0030081
:10319000012809D0E06978B3286840F080002860F1
:1031A000FEF79EFC074619E02868C00504D5E069D3
:1031B000802801D001201EE7D9F8000094F82010E3
:1031C00020F07C5040EA0160C9F8000027E0FEF7DB
:1031D00087FCC01B022801D903200CE72868C00522
:1031E000F5D5D9F8000094F8201020F07C5040EA82
:1031F0000160C9F8000012E0FFE7286820F08000B5
:103200002860FEF76DFC074606E0FEF769FCC01B70
:10321000022801D90320EEE62868C005F5D42078FD
:10322000000730D5DFF8AC91606909F14C09A8B10D
:10323000D9F8000040F00100C9F80000FEF750FC8A
:10324000074606E0FEF74CFCC01B022801D903200C
:10325000D1E6D9F800008007F4D514E0D9F80000D1
:1032600020F00100C9F80000FEF73AFC074606E02E
:10327000FEF736FCC01B022801D90320BBE6D9F8B3
:1032800000008007F4D42078800626D5A06990B18C
:10329000286840F480502860FEF722FC074606E0CC
:1032A000FEF71EFCC01B022801D90320A3E62868F4
:1032B0008004F5D511E0286820F480502860FEF7DE
:1032C0000FFC074606E0FEF70BFCC01B022801D9E5
:1032D000032090E628688004F5D4207840075DD567
:1032E0003E4F386840F480703860FEF7F9FB814645
:1032F00007E0FEF7F5FBA0EB0900642801D90320E5
:1033000079E63868C005F4D5324FA06848370128FF
:1033100012D0B0B105281DD0386820F00100386007
:10332000386820F004003860A06841F2883930B372
:10333000FEF7D6FB82461EE0386840F00100386098
:10334000F2E7386820F001003860386820F00400A7
:103350003860E9E7386840F004003860386840F0C9
:1033600001003860E0E7FEF7BBFBA0EB0A00484530
:1033700001D903203FE638688007F4D50EE0FEF758
:10338000AFFB824607E0FEF7ABFBA0EB0A00484527
:1033900001D903202FE638688007F4D4616AB1B1FF
:1033A000D8F800004FF6F87BDFF828A00AF1080AE9
:1033B000C0F3C20003280AF10409AAF104087CD072
:1033C000022911D0286820F08070286008E0E5E02C
:1033D0001044025828440258004402580048025839
:1033E000FEF77EFB044689E0286820F080702860A4
:1033F000FEF776FB074606E0FEF772FBC01B0228CD
:1034000001D90320F7E528688001F5D4306840F23F
:10341000F3318843E16A40EA0110A16A0843306051
:10342000208E4FF6FF72616B401E491EC0F30800EC
:1034300002EA41210843218F4FF4FE02491E02EAAD
:103440000141084394F83C10491E120202EA01614E
:103450000843CAF80000D8F8000020F00100C8F8BE
:103460000000D9F80000A16C20EA0B0040EAC1007E
:10347000C9F80000D8F80000216C20F00C000843C7
:10348000C8F80000D8F80000616C20F00200084382
:10349000C8F80000D8F8000040F48030C8F80000F8
:1034A000D8F8000040F40030C8F80000D8F8000058
:1034B00040F48020C8F8000000E023E0D8F80000C5
:1034C00040F00100C8F80000286840F080702860D3
:1034D000FEF706FB044606E0FEF702FB001B02288F
:1034E00001D9032087E528688001F5D556E0FEF76D
:1034F000F7FA001B022801D903207CE52868800127
:10350000F5D44BE03268DAF80000012921D0A36A33
:1035100002F0030199421CD1E16AC2F30512914203
:1035200017D1216BC0F30802491E8A4211D1616B89
:10353000C0F34622491E91420BD1A16BC0F3064253
:10354000491E914205D1E16BC0F30660491E8142DC
:1035500001D001204FE5D9F80000C0F3CC00A16CE8
:1035600081421BD0D8F8000020F00100C8F800000C
:10357000FEF7B6FA0546FEF7B3FAA842FBD0D9F833
:103580000000A16C20EA0B0040EAC100C9F800006D
:10359000D8F8000040F00100C8F8000000202AE53B
:1035A00003490A6822F4600202430A60704700007F
:1035B0000404005870477047704710B50446002C4B
:1035C00003D094F83D0010B107E0012010BD0020A9
:1035D00084F83C00204600F017F8022084F83D00F3
:1035E0002068211D00F0DEFE01203D34E072607095
:1035F000A070E07020716071A071E0712072607243
:10360000A0722070002010BD7047000090F83D109F
:10361000012901D001207047022180F83D10016886
:10362000CA6842F00102CA600068184988421AD08C
:10363000B0F1804F17D01649884214D015498842FE
:1036400011D0154988420ED0144988420BD0144934
:10365000884208D01349884205D01349884202D0D5
:10366000124988420CD18168114A114006290BD0B9
:10367000B1F5803F08D0016841F00101016003E02D
:10368000016841F001010160002070470000014025
:103690000004004000080040000C0040000401400D
:1036A000001800400040014000E0004000E40040FD
:1036B0000700010070472DE9F04104462068C66804
:1036C00005694FF00007A90714D5B10712D5F91EF7
:1036D00001610120207720688069800703D020469F
:1036E000FFF7E8FF05E0204600F08EF8204600F0E6
:1036F0008CF82777680717D5700715D521686FF004
:1037000004000861022020772068806910F4407F5F
:1037100003D02046FFF7CEFF05E0204600F074F806
:10372000204600F072F82777280716D5300714D501
:1037300021686FF008000861042020772068C069C4
:10374000800703D02046FFF7B5FF05E0204600F0D4
:103750005BF8204600F059F82777E80617D5F00601
:1037600015D521686FF010000861082020772068C7
:10377000C06910F4407F03D02046FFF79BFF05E0AF
:10378000204600F041F8204600F03FF82777E80790
:1037900008D0F00706D021686FF0010008612046CC
:1037A00000F034F8280601D4A80408D5300606D560
:1037B00021686FF4025008612046FFF7FCFEE8051F
:1037C00008D5300606D521686FF480700861204660
:1037D000FFF7F0FE680608D5700606D521686FF081
:1037E00040000861204600F01BF8A8060AD5B00684
:1037F00008D521686FF0200008612046BDE8F0413F
:10380000FFF7DABEBDE8F0817047704700680349F2
:10381000884201D1FEF76AB97047000000100040ED
:10382000704790F88410012918D0012180F8841085
:103830002421C0F8881001680A680B6823F001038E
:103840000B6022F0005100224266036819602021BB
:10385000C0F8881080F8842000207047022070474C
:1038600070B5044694F8840001281DD0012084F826
:1038700084002420C4F8880020680568026822F0CB
:10388000010202602068826822F060620A4382605E
:10389000204600F0F5FD206805602020C4F888006F
:1038A000002084F8840070BD022070BD70B504460D
:1038B00094F8840001281DD0012084F8840024207D
:1038C000C4F8880020680568026822F001020260DE
:1038D0002068826822F060420A438260204600F03D
:1038E000CFFD206805602020C4F88800002084F8FF
:1038F000840070BD022070BD10B50446002C03D0BA
:10390000D4F8880010B107E0012010BD002084F831
:103910008400204600F028F82420C4F8880020689D
:10392000016821F001010160A06A10B1204600F099
:10393000CBFD204600F0ACFE012813D02068416882
:1039400021F4904141602068816821F02A01816062
:103950002068016841F0010101602046BDE8104087
:1039600000F016BE012010BD10B5B6B004461421FB
:1039700030A8FCF796FDB82102A8FCF792FD194982
:10398000206888422BD101210020CDE902100024BB
:10399000209402A8FEF7C2FB08B1FDF716FA124800
:1039A000016841F010010160006800F01000019012
:1039B0000D481038016841F001010160006800F015
:1039C000010001904FF4C060309002203190329499
:1039D00033940720349030A90448FDF76FFF36B0C8
:1039E00010BD000000100140F044025800000258D1
:1039F0002DE9F84304460E4615461F46D4F88800C4
:103A0000202802D00220BDE8F8838EB185B10020C5
:103A10001834A06721202067FEF762F88146A58749
:103A2000E58754F8100C183CB0F5805F02D003E035
:103A30000120E8E7206920B1354600264FF0200834
:103A400017E00025FAE700224B4680212046009728
:103A500001F0B5F818B1C4F888800320D3E7C5B1E8
:103A6000216815F8010B8862B4F85600401EA4F8CE
:103A70005600B4F856000028E5D100224B464021FC
:103A80002046009701F09BF850B1C4F888800320CD
:103A9000B9E7216836F8020BC0F308008862E3E753
:103AA000C4F888800020AEE7FEE738B50446002061
:103AB0000090012163696A462068984700286FF0EA
:103AC000040501DA284638BD6369012120686A4689
:103AD0009847002801DA284638BD0098400701D4ED
:103AE000012038BD6369002120686A469847002894
:103AF00001DA284638BD0098C1040FD44FF40451B0
:103B0000814303D0810403D5032038BD022038BD92
:103B1000C00501D5042038BD052038BD63691F21CB
:103B200020686A469847002801DA284638BD009880
:103B3000C10401D4062038BDC0F38200062805D098
:103B4000022805D0052805D0052038BD022038BD43
:103B5000032038BD042038BDF8B50546002000908C
:103B6000002400266868002822D1A86800B1804798
:103B7000202028606FF004076B6912216A462046F6
:103B80009847002801DA3E4607E0009800F01F0041
:103B9000A04202D12C60002602E0641C1F2CEBD94D
:103BA00028681F2801D96FF002060EB9012068604D
:103BB0003046F8BD002811D0CA687AB18A686AB167
:103BC0000A695AB10A6882604A68C260CA6842617A
:103BD0008A68026109698161002070474FF0FF30F7
:103BE000704700007FB50024009401940294039470
:103BF000FEF724F801258DF800508DF801404FF0B4
:103C00004050019007208DF808008DF809408DF88C
:103C10000A4003208DF80B008DF80C408DF80D4004
:103C20008DF80E408DF80F506846FDF7DDFF8DF8DA
:103C300001500A4801900D208DF808008DF80940C8
:103C40008DF80A508DF80D508DF80F406846FDF73D
:103C5000CBFF0620FEF700F87FBD000000400030DB
:103C600010B58EB01C220B4907A8FCF7F3FB00210E
:103C700007A804F063FF084C20601C2205491C3192
:103C80006846FCF7E7FB0021684604F057FF6060D8
:103C90000EB010BDB01601080C6200242DE9F041F1
:103CA00086B0142101A8FCF7FCFB2748016841F00D
:103CB00080010160016801F080010091016841F01C
:103CC00004010160016801F004010091016841F004
:103CD00001010160016801F001010091016841F0FA
:103CE00010010160016801F010010091016841F0CC
:103CF00002010160006800F002000090DFF84C80D3
:103D00004FF40044002221464046FDF7E1FE012227
:103D10000F4F160238463146FDF7DAFE01940125B1
:103D2000029500240394049401A94046FDF7C6FDC2
:103D3000019602950394049401A93846FDF7BEFD4F
:103D400006B0BDE8F0810000E044025800100258BF
:103D500000000258F0B58BB0474EC0213170A82248
:103D600072700A20B0700220F070FF20341D2070A5
:103D70006070A0700027E770251D29706A70AF7011
:103D80000120E870002108460BF0D8FB72783178EA
:103D9000B378F0784FEA024C40EA01604CEA03261F
:103DA00030430606090641EA024141EA032292B283
:103DB00001F47F0146EA022242EA112141EA106041
:103DC000A4F11001086061782278A378E0780E04ED
:103DD00040EA026046EA032420430406120642EA4F
:103DE000014141EA032292B201F47F0144EA022236
:103DF00042EA112141EA1060A5F1100108606A78D9
:103E00002978AB78E878140440EA016044EA032496
:103E100020430406090641EA024141EA032292B224
:103E200001F47F0144EA022242EA112141EA1060D2
:103E3000A5F10C010860A5F10C0311491A1F0F48E8
:103E400002901048CDE90071111F04F059F90D4896
:103E500004F07EFB0B4804F091FC0B49094804F088
:103E6000D1FB1C22094904A8FCF7F4FA054904A86F
:103E700004F064FE0BB0F0BD4462002411F70008AA
:103E8000C55D0008E46B0024195C000810170108E8
:103E900010B51848164901604FF4E1314160002126
:103EA0008160C16001610C2242618161C161016276
:103EB00041628162FFF720FD08B1FCF786FF0D48E3
:103EC0000021FFF7F3FC08B1FCF77FFF0948002150
:103ED000FFF7C6FC08B1FCF778FF0648FFF7A1FC26
:103EE000002803D0BDE81040FCF76FBF10BD0000F4
:103EF00000100140FC690024FEE7FEE72DE9F047D1
:103F0000044688460027DFF81491D9F80000C04322
:103F1000800709D0414D283D286820F08060286046
:103F2000FDF7DEFD064609E00120BDE8F087FDF75C
:103F3000D7FD801B022801D90320F6E7286800017D
:103F4000F5D4D9F80000216820F47C3040EA013033
:103F5000C9F80000A0884FF6FF72A168401E491EF4
:103F6000C0F3080002EA41210843A1894FF4FE0290
:103F7000491E02EA01410843217C1202491E02EA5D
:103F8000016108432549103108602448001D01687B
:103F9000626921F0C001114301600168A26921F04A
:103FA000200111430160016821F0100101601B49EB
:103FB00014310A684FF6F8739A43E36942EAC30280
:103FC0000A60016841F010010160B8F1000F0ED0E5
:103FD000B8F1010F10D0016841F4001101602868A8
:103FE00040F080602860FDF77BFD044610E001682A
:103FF00041F400210160F2E7016841F480110160A1
:10400000EDE7FDF76DFD001B022801D903208CE7C9
:1040100028680001F5D5384687E700002844025893
:104020002DE9F047044688460027DFF81491D9F8B7
:104030000000C043800709D0414D283D286820F08A
:1040400080502860FDF74CFD064609E00120BDE8E0
:10405000F087FDF745FD801B022801D90320F6E714
:1040600028688000F5D4D9F80000218820F07C7001
:1040700040EA0150C9F80000A0884FF6FF72A1681D
:10408000401E491EC0F3080002EA41210843A189ED
:104090004FF4FE02491E02EA01410843217C12024C
:1040A000491E02EA01610843254918310860244885
:1040B000001D0168626921F44061114301600168DB
:1040C000A26921F4007111430160016821F480713B
:1040D00001601B491C310A684FF6F8739A43E36983
:1040E00042EAC3020A60016841F480710160B8F1DC
:1040F000000F0ED0B8F1010F10D0016841F08071AF
:104100000160286840F080502860FDF7E9FC044613
:1041100010E0016841F480010160F2E7016841F4B8
:1041200000010160EDE7FDF7DBFC001B022801D96F
:1041300003208CE728688000F5D5384687E7000023
:10414000284402582DE9F0411546002D38D01D496C
:104150000888401C08801C4900200860BFF34F8F6E
:10416000081F0068C0F34E32184B43F6FF77C0F3C8
:10417000C906314607EA421444EA81701860491EB4
:10418000481CF9D1521E501CF3D1BFF34F8FBFF31F
:104190006F8F4FF480640E482146FCF782F928891E
:1041A000A04201D9214600E00146284600230A46E4
:1041B000074905F0E5F82846BDE8F04105F072B979
:1041C000BDE8F0810462002484ED00E074EF00E0BB
:1041D000BCD80024FFF7BEFD0CF088F9064C4FF464
:1041E0008065064829460BF0CBFE2088401C2080C5
:1041F000012004F015FBF4E708620024306300247A
:1042000010B5502080F31188BFF34F8FBFF36F8F2D
:104210000DF0AEF818B104494FF08050086000204E
:1042200080F3118810BD000004ED00E010B59CB0D3
:104230004C2109A8FCF735F9202101A8FCF731F938
:104240000220FDF76DFD00241C48016821F4404167
:104250000160016801F44041009101688904FCD5C6
:104260000121099108040A900220129013901490E1
:104270002C2215921691179018900C2019901A94D0
:104280001B9409A8FEF7A0FE08B1FCF79EFD3F2095
:104290000190032002900394082004904020059090
:1042A0000690010107910890032101A8FEF7FEFB8B
:1042B000002801D0FCF789FD1CB010BD1848025839
:1042C00010B52D48016841F4700101602B4A106857
:1042D00000F00F00072804D2106820F00F00C01D66
:1042E00010602749086840F001000860244B002056
:1042F000103318600B68234C23400B60136803F0E5
:104300000F03072B04D9136823F00F03DB1D136081
:104310001B4A18321060121D1060121D1060184BDD
:10432000194A28331A601B1D184A1A601B1D184AA7
:104330001A601B1D18601B1D1A601B1D18601B1DB9
:104340001A601A1D10600A6822F480220A600C4963
:10435000603108600A48D4300168C9040BD4016890
:1043600041F4805101600B4A43F2D20111600168AF
:1043700021F48051016010BD88ED00E00020005262
:10438000004402587FEDF6EA000202020000FF013D
:1043900080020101004000520148FFF78CB9000083
:1043A000906A00242DE9F04F02684FF0804A2A4DB0
:1043B0002A4E2B4FA842DFF8ACC02B4B09D05045FA
:1043C00007D0B04205D0B84203D0604501D0984232
:1043D00003D122F070044A682243DFF89080DFF8AE
:1043E0009090A842DFF88CB015D0504513D0B04261
:1043F00011D0B8420FD060450DD098420BD0404547
:1044000009D0484507D0584505D01B4CA04202D0E2
:104410001A4CA04203D122F44074CA6822434C696A
:1044200022F0800222438C68C4620C688462A84235
:1044300007D0984205D0404503D0484501D05845A3
:1044400001D109690163016841F0040101600121A2
:1044500041610260BDE8F08F0000014000040040AF
:1044600000080040000C00400004014000400140F2
:10447000004401400048014000E0004000E40040EA
:1044800030B5416E002917D002689168C1F34261CE
:104490009268520F0B4B9C5C250103F10804A25C4F
:1044A000B5FBF2F2A0F86A205A5C615C1201B2FB23
:1044B000F1F1A0F8681030BD012168304180018021
:1044C00030BD00004417010890F82810090706D5F0
:1044D00001684A68836B22F400421A434A6090F8EC
:1044E0002810C90706D001684A68C36A22F400325E
:1044F0001A434A6090F82810890706D501684A686F
:10450000036B22F480321A434A6090F8281049075E
:1045100006D501684A68436B22F480221A434A6038
:1045200090F82810C90606D501688A68C36B22F482
:1045300080521A438A6090F82810890606D50168CF
:104540008A68036C22F400521A438A6090F828109B
:10455000490611D501684A68436C22F480121A4357
:104560004A60416CB1F5801F06D101684A68836CCE
:1045700022F4C0021A434A6090F82810090606D5B2
:1045800001684A68C06C22F4002202434A60704706
:104590002DE9F84304460025C4F89050FDF7A0FA31
:1045A0008046206800686FF07E474FF020060007C5
:1045B00016D50022434631042046009700F0FFFA4A
:1045C00070B1206850E8001F21F0800140E800121F
:1045D000002AF6D18434666025700320BDE8F88394
:1045E00020680068400720D5002243464FF4800130
:1045F0002046009700F0E3FAB8B1206850E8001FA9
:1046000021F4907140E80012002AF6D120680830A9
:1046100050E8001F21F0010140E80012002AF5D106
:104620008434A66025700320D8E76C34E6612662E6
:104630002560656025760020D0E7000010B5016890
:1046400051E8002F22F4907241E80023002BF6D1AC
:104650000E4B0168083151E8002F1A4041E8002450
:10466000002CF6D1C16E012908D1016851E8002F54
:1046700022F0100241E80023002BF6D12021C0F8DF
:104680008C100021C166416710BD0000FEFFFFEFE6
:104690002DE9F04387B004460026DFF8FC9320683C
:1046A0002269A168E369114362691A4311430268F0
:1046B000FA4B1A400A43026020684168E26821F41C
:1046C000405111434160A0692168494501D0226AE7
:1046D00010438A68F24B1A4002438A602068C16A1C
:1046E000626A21F00F011143C162EE4A2068EE496F
:1046F00090421DD1096801F03801182912D005DC5B
:1047000051B108290AD0102904D109E020290BD081
:1047100028290BD080212DE101212BE1042129E161
:10472000082127E1102125E1202123E1402121E179
:10473000DE4A904217D1096801F00701062910D21C
:10474000DFE801F0030507090B0D002112E1042148
:1047500010E108210EE110210CE120210AE14021A5
:1047600008E1802106E1D24A904217D1096801F0A0
:104770000701062910D2DFE801F0030507090B0D38
:104780000021F7E00421F5E00821F3E01021F1E039
:104790002021EFE04021EDE08021EBE0C54A90428E
:1047A00017D1096801F00701062910D2DFE801F0EE
:1047B000030507090B0D0021DCE00421DAE00821E4
:1047C000D8E01021D6E02021D4E04021D2E08021A1
:1047D000D0E0B94A904217D1096801F007010629D3
:1047E00010D2DFE801F0030507090B0D0021C1E03D
:1047F0000421BFE00821BDE01021BBE02021B9E089
:104800004021B7E08021B5E0AC4A90421DD1096853
:1048100001F03801182912D005DC51B108290AD05D
:10482000102904D109E020290BD028290BD08021A0
:10483000A0E001219EE004219CE008219AE01021E3
:1048400098E0202196E0402194E09D4A904217D1C3
:10485000096801F00701062910D2DFE801F003051D
:1048600007090B0D002185E0042183E0082181E088
:1048700010217FE020217DE040217BE0802179E054
:10488000904A904217D1096801F00701062910D219
:10489000DFE801F0030507090B0D00216AE00421A0
:1048A00068E0082166E0102164E0202162E04021F8
:1048B00060E080215EE0844A90421DD1096801F0E9
:1048C0003801182912D005DC51B108290AD0102965
:1048D00004D109E020290BD028290BD0802149E000
:1048E000012147E0042145E0082143E0102141E097
:1048F00020213FE040213DE0744A90421DD10968EB
:1049000001F03801182912D005DC51B108290AD06C
:10491000102904D109E020290BD028290BD08021AF
:1049200028E0012126E0042124E0082122E01021D2
:1049300020E020211EE040211CE0484519D15A49C1
:10494000091D096801F00701062910D2DFE801F00E
:10495000030507090B0D02210CE004210AE00821E0
:1049600008E0102106E0202104E0402102E080213F
:1049700000E08021564D4C4A4FF4004C554F4FF00B
:1049800000082B11543A484556D110292BD006DC8B
:1049900002291AD004291CD0082904D11EE020299C
:1049A00029D0402929D000250126EDB3606A37F8C7
:1049B0001020B5FBF2F0676807EB4701814202D88F
:1049C000B0EB073F1BD90126EDE0FDF7D5F9054611
:1049D000EBE704A8FDF7E2F9059DE6E701A8FDF77E
:1049E000BDFA029DE1E710688006DED51068C0F3CD
:1049F000C100C540D9E71D46D7E76546D5E7002386
:104A000028461946FBF7E2FC0902020241EA10615E
:104A1000780810183A46002341EB0801FBF7D6FC52
:104A20002D4AA0F5407100E058E0914202D821687B
:104A3000C860B8E00126B6E0E0694FF6EF7960455E
:104A40006DD1082958D005DC29B301294BD00429A0
:104A500006D14CE0102954D020295AD040295AD0F0
:104A600000250126D5B3606A37F81000B5FBF0F0D9
:104A70004100606801EB5001B1FBF0F0A0F11001C2
:104A800049454AD84FF6F0710140C0F34200014356
:104A90002068C16087E022E0000C0058F369FFCF76
:104AA000FFF4FF110010014054440258004400403C
:104AB00000480040004C00400050004000140140FD
:104AC00000780040007C004000180140001C0140BC
:104AD0000090D0032C170108FFFC0F0061E0FEF7E7
:104AE00075F90546BEE7FEF783F90546BAE704A85F
:104AF000FDF754F9059DB5E701A8FDF72FFA029DD2
:104B0000B0E710688006ADD51068C0F3C100C5409D
:104B1000A8E71D46A6E76546A4E7012643E0082965
:104B20002ED005DCF9B1012921D0042906D122E0DB
:104B300010292AD0202930D0402930D00025012644
:104B40007DB3606A37F81000B5FBF0F1606801EBE7
:104B50005001B1FBF0F0A0F11001494522D82168C5
:104B600080B2C8601FE0FEF731F90546E8E7FEF7BE
:104B70003FF90546E4E704A8FDF710F9059DDFE7D6
:104B800001A8FDF7EBF9029DDAE710688006D7D59A
:104B90001068C0F3C100C540D2E71D46D0E76546A6
:104BA000CEE700E001260120683460802080C4F850
:104BB0000C80C4F8108007B03046BDE8F0832DE9C2
:104BC000F04704460D4617469846089E4FF00009E8
:104BD00035E0701C33D0FCF783FFA0EB0800B04237
:104BE00019D8C6B120680168490728D5802D26D07C
:104BF000402D24D0C169C94309070ED42068082577
:104C000005622046FFF71AFDC4F8905084F884909E
:104C10000120BDE8F0870320FBE7C069C043000521
:104C20000DD421684FF4006008622046FFF706FDAE
:104C30002020C4F8900084F884900320E9E72068DD
:104C4000C06935EA000004D00020B842C1D000207D
:104C5000DFE70120F9E7FEE70FB4054B10B503A924
:104C6000044A029800F028F810BC5DF814FB00001C
:104C70008D5E0008A46700240907090E002804DBE4
:104C800000F1E02080F80014704700F00F0000F100
:104C9000E02080F8141D704702E008C8121F08C108
:104CA000002AFAD170477047002001E001C1121FAD
:104CB000002AFBD1704700002DE9FF4F8BB09A46C8
:104CC0000F460546002606E025280BD052460D99D2
:104CD00090476D1C761C28780028F5D10FB030461F
:104CE000BDE8F08F0024A0460122604900E00443A3
:104CF00015F8013F203B02FA03F00842F7D128786B
:104D00002E2817D115F8010F44F004042A280ED0DC
:104D10006FF02F022878A0F1300109290AD808EB9A
:104D2000880102EB410100EB01086D1CF2E757F826
:104D3000048B6D1C287869283ED006DC0028CDD075
:104D400063280BD0642804D136E0732810D075286E
:104D50004BD052460D999047761C85E017F8040B0E
:104D60008DF8000000208DF80100E946012003E0E5
:104D700057F8049B4FF0FF3061074FF0000401D457
:104D80000AE0641C44450DDA8442FADB19F8041089
:104D90000029F6D106E0641C8442FCDB19F80410FB
:104DA0000029F8D1264404E019F8010B52460D9968
:104DB0009047641EF8D257E001CF4FF00A0B00284D
:104DC00002DA40422D2102E0210504D52B218DF885
:104DD0002410012103E0E10705D02021F7E70DF1C0
:104DE000200908910CE00021F9E701CF4FF00A0BF0
:104DF000F9E75946FBF76DFB01F1300209F8012D87
:104E00000028F6D1ADEB090000F1200B600701D4BA
:104E10004FF00108D84502DDA8EB0B0000E00020B0
:104E20008046002406E009A85246005D0D9990478F
:104E3000641C761C08988442F5DB04E0302052465E
:104E40000D999047761CB8F10001A8F10108F5DC36
:104E500005E019F8010B52460D999047761CBBF1FD
:104E60000001ABF1010BF4DC6D1C34E709280100F3
:104E700070B505460C46A00706D006A34FF4B672DF
:104E800010A118A0FFF7E8FEA86800682060A868D5
:104E9000046070BD2E2E2F4D6964646C657761725D
:104EA00065732F54686972645F50617274792F4C16
:104EB0007749502F7372632F636F72652F6D656D25
:104EC000702E63006D656D705F667265653A206D6A
:104ED000656D2070726F7065726C7920616C6967A6
:104EE0006E656400417373657274696F6E2022256C
:104EF0007322206661696C6564206174206C696E40
:104F00006520256420696E2025730A0010B580682D
:104F10000468002C0CD021680160A00706D005A30E
:104F20004FF48C720FA118A0FFF796FE204610BD1B
:104F3000002010BD2E2E2F4D6964646C6577617260
:104F400065732F54686972645F50617274792F4C75
:104F50007749502F7372632F636F72652F6D656D84
:104F6000702E63006D656D705F6D616C6C6F633A80
:104F7000206D656D702070726F7065726C79206144
:104F80006C69676E65640000417373657274696F64
:104F90006E2022257322206661696C65642061742D
:104FA000206C696E6520256420696E2025730A00D7
:104FB00070B505460024084E04EB440006EBC00023
:104FC000017D29B18068A84202D1204600F03CF959
:104FD000641C0A2CF0DB70BDCCD700242DE9F74F00
:104FE00084B080464FF00A0AD1460A270024BB4607
:104FF000002002900190009004EB4400534903907C
:1050000001EBC006357D0A2F01D1002D1ED0002DE9
:1050100028D0012D08D0022D06D24DA340F2231234
:1050200059A169A0FFF718FEB8F1000F10D0D8F809
:105030000000716888420BD1069818B1B1680698D3
:10504000814205D1204607B0BDE8F08F274609E030
:10505000012D13D0022D05D3708A0099884201D307
:10506000A1460090641C24B20A2CC5DB05984FF0C1
:10507000FF3180071CD40A2F13D015E03348039961
:1050800050F8310030B1708A02998842EAD3A346C1
:105090000290E7E7708A01998842E3D3A246019023
:1050A000E0E70598C00703D00A2F03DA3C4628E062
:1050B0000846C8E7B9F10A0F0EDA4C46234804EB5C
:1050C000440150F8310080B121A340F26D1248A193
:1050D0003DA0FFF7C1FD08E0BAF10A0F01DA54461E
:1050E00003E0BBF10A0F2FDA5C460A2C06DB18A39B
:1050F00040F27F1244A134A0FFF7AEFD204600F03D
:10510000A3F80A2C06DB12A340F283123EA12EA0C4
:10511000FFF7A2FD0D4804EB440100EBC105287D1B
:1051200030B10BA34FF4C2723CA127A0FFF794FD4E
:10513000B8F1000F02D0D8F8000068600020688243
:105140000698A86020467EE708467CE7CCD7002476
:105150002E2E2F4D6964646C6577617265732F54D0
:10516000686972645F50617274792F4C7749502F6F
:105170007372632F636F72652F697076342F657455
:10518000686172702E6300007374617465203D3D28
:10519000204554484152505F53544154455F504557
:1051A0004E44494E47207C7C207374617465203ED8
:1051B0003D204554484152505F53544154455F533C
:1051C0005441424C45000000417373657274696F2D
:1051D0006E2022257322206661696C6564206174EB
:1051E000206C696E6520256420696E2025730A0095
:1051F0006172705F7461626C655B695D2E71203DE8
:105200003D204E554C4C000069203C204152505FDF
:105210005441424C455F53495A4500006172705FEA
:105220007461626C655B695D2E7374617465203DA9
:105230003D204554484152505F53544154455F45C9
:105240004D5054590000000070B5084D00EB40046B
:10525000002655F83400002803D004F023F945F85F
:10526000346005EBC400067570BD0000CCD7002487
:105270002DE9F04387B007460D46002D09D07C6824
:105280004FF480782088404513D12079062810D12A
:1052900009E021A340F28A222DA131A0FFF7DCFC16
:1052A00007B0BDE8F0836079042802D1608808283F
:1052B00003D0384604F0F6F8F2E7D4F80E00069072
:1052C000A0690590696819B1884203D1012602E0FE
:1052D000002600E000260EB1012300E0022328464C
:1052E00004F1080206A9914600F0B4FBE0884045AD
:1052F0000ED16EB106AA0221281DCDE9019205F159
:1053000026034A46039119460090284600F0A2FA67
:10531000384604F0C7F8C3E72E2E2F4D6964646C3D
:105320006577617265732F54686972645F5061724A
:1053300074792F4C7749502F7372632F636F7265A6
:105340002F697076342F6574686172702E63000067
:105350006E6574696620213D204E554C4C0000005E
:10536000417373657274696F6E2022257322206603
:1053700061696C6564206174206C696E65202564C8
:1053800020696E2025730A00FEB504460E461546B8
:10539000002C06D145A340F21E3252A155A0FFF7C2
:1053A0005BFC36B941A340F21F325CA151A0FFF76C
:1053B00053FC280006D13DA34FF448725AA14DA0DA
:1053C000FFF74AFC2868214600F04FFF08B15A4B0E
:1053D0003FE02868C0F303110E2925D0A168636857
:1053E00000EA01020B409A4208D080B2A0F57E414B
:1053F000A93903D0E068B0B304F10C054F4B504914
:105400001A7802EB420001EBC000077D022F2ED379
:105410008768A7422BD12F684068874227D1314641
:10542000204600F08FF8FEBD01208DF8040000201A
:105430008DF805005E208DF80600687800F07F008A
:105440008DF80700A8788DF80800E8788DF8090035
:1054500001AB4FF40060314604F126020090204673
:1054600000F036FCFEBDFFE76FF00300FAE7002214
:1054700002EB420001EBC000077D022F0CD38768CE
:10548000A74209D12F684068874205D11A7031467A
:10549000204600F057F8E5E7521CD2B20A2AE7D3BB
:1054A00032462946204600F0D9F8DBE72E2E2F4D54
:1054B0006964646C6577617265732F54686972649E
:1054C0005F50617274792F4C7749502F7372632F3C
:1054D000636F72652F697076342F657468617270BE
:1054E0002E6300006E6574696620213D204E554C88
:1054F0004C000000417373657274696F6E20222541
:105500007322206661696C6564206174206C696E29
:105510006520256420696E2025730A007120213DD5
:10552000204E554C4C00000069706164647220216B
:105530003D204E554C4C00006417010820630024A8
:10554000CCD700242DE9F84306460F4615461E48E1
:1055500005EB450100EBC104207D022806D21BA308
:1055600040F2EE2227A133A0FFF776FB164A05EBA7
:105570004501207D02EBC1050C35022818D1618A56
:105580004FF00308B1F58E7F07D9211D304600F09A
:105590001BFA68B984F814800AE0B1F5877F07D355
:1055A000211D2A46304600F015FA08B984F8148007
:1055B0004FF4006006F126022B4639460090304633
:1055C00000F086FBBDE8F883CCD700242E2E2F4DAB
:1055D0006964646C6577617265732F54686972647D
:1055E0005F50617274792F4C7749502F7372632F1B
:1055F000636F72652F697076342F6574686172709D
:105600002E6300006172705F7461626C655B617231
:10561000705F6964785D2E7374617465203E3D200F
:105620004554484152505F53544154455F5354418F
:10563000424C4500417373657274696F6E20222578
:105640007322206661696C6564206174206C696EE8
:105650006520256420696E2025730A002DE9FC5F12
:1056600082460F4616460AF1260001904FF0FF349D
:105670004FF000083868514600F0F7FD88B93868E7
:10568000C0F303110E290CD05FB150B10121524675
:105690003846FFF7A3FC0546002D05DA68B2BDE8E1
:1056A000FC9F6FF00F00FAE77F2D06D33AA340F27C
:1056B000C13247A14AA0FFF7CFFA05F0FF0B5248CD
:1056C0000BEB4B0900EBC905297D29B94FF0010807
:1056D00001212975C5F808A0287D012808D00228D5
:1056E00006D22DA340F2CD3248A13DA0FFF7B4FA77
:1056F000B8F1000F00D12EB93946504600F064F9D8
:10570000044696B1287D404F022810D3494880F8BE
:1057100000B04FF40060019A05F10C03314600908F
:10572000504600F0D5FA044634E02046B7E7012899
:1057300030D10025344640F2F13811E060892189EA
:10574000884207D1206828B113A342463AA124A079
:10575000FFF782FA207B400601D5012502E024688C
:10576000002CEBD13DB10E2032464FF4207103F0F6
:10577000C1FC064602E0304604F032F846B157F864
:10578000390008B103F08EFE47F83960002401E0CB
:105790004FF0FF34204682E72E2E2F4D6964646C53
:1057A0006577617265732F54686972645F506172C6
:1057B00074792F4C7749502F7372632F636F726522
:1057C0002F697076342F6574686172702E630000E3
:1057D00074797065206F766572666C6F7700000073
:1057E000417373657274696F6E202225732220667F
:1057F00061696C6564206174206C696E6520256444
:1058000020696E2025730A00CCD700246172705F76
:105810007461626C655B695D2E7374617465203DB3
:105820003D2050454E44494E47206F72205354410D
:10583000424C4500206300246E6F207061636B65ED
:10584000742071756575657320616C6C6F77656424
:10585000210000002DE9FF4F81B006461F46DDE91B
:105860000FABDDF838904FF00008002E06D12CA3C6
:1058700040F2574238A13CA0FFF7EEF91C210E2060
:105880004FF4207203F0F2F90546280044D06889ED
:105890001C2806D222A340F262423DA132A0FFF7AB
:1058A000DBF96C68119801F03FFEE08096F82C005F
:1058B000062806D043491AA32BA040F26942FFF7FD
:1058C000CBF93868A060B888A081DAF80000C4F885
:1058D0001200BAF80400E082D9F80000C4F80E0003
:1058E000DBF80000A0614FF4807020800820608009
:1058F000062020710420607140F60600DDE90223D5
:1059000029460090304600F0E3F9284603F0CAFD2E
:10591000404605B0BDE8F08F4FF0FF30F9E70000DA
:105920002E2E2F4D6964646C6577617265732F54F8
:10593000686972645F50617274792F4C7749502F97
:105940007372632F636F72652F697076342F65747D
:10595000686172702E6300006E6574696620213D77
:10596000204E554C4C000000417373657274696F92
:105970006E2022257322206661696C656420617443
:10598000206C696E6520256420696E2025730A00ED
:10599000636865636B2074686174206669727374F0
:1059A00020706275662063616E20686F6C6420737E
:1059B0007472756374206574686172705F68647274
:1059C00000000000C0190108014A00F003B80000FF
:1059D000641701087FB5064D0124031DCDE90214AB
:1059E000CDE9003522331946FFF734FF04B070BD0E
:1059F0006A17010870B50024154D04EB440005EB4F
:105A0000C002117DF9B1508A401C80B25082B0F5BD
:105A1000967F03D2012905D1052803D32046FFF73D
:105A200013FC10E0032904D0042905D0012906D075
:105A300009E00420107506E00220107503E090686C
:105A4000111DFFF7C1FF641C0A2CD6DB70BD0000DE
:105A5000CCD70024F8B504460D4616461F4694F8E8
:105A60002C00062806D020A340F2A9122CA135A0B4
:105A7000FFF7F2F89DB1286888B1214600F0F5FBE8
:105A800068B92878C0F303100E2808D0224639469A
:105A90002846FFF7A3FA002804DA40B2F8BD6FF0F9
:105AA0000F00F8BD314A00EB4001022302EBC100B8
:105AB000037584603368C360B38803820023438224
:105AC00052F8315075B142F831304FF4006033462E
:105AD00004F1260229460090204600F0F9F82846F5
