:020000040800F2
:10000000D80101205D02000869610008595A000802
:10001000216000084D1200085D9B000800000000F0
:100020000000000000000000000000009D0100082A
:100030008B22000800000000F9010008A9880008D0
:1000400077020008770200087702000877020008AC
:10005000770200087702000877020008770200089C
:10006000770200087702000877020008770200088C
:10007000012100087702000811210008770200081A
:1000800021210008312100087702000877020008CA
:10009000991200087702000877020008770200082A
:1000A000770200087702000877020008770200084C
:1000B0007702000877020008D18B00087702000859
:1000C000770200087702000877020008770200082C
:1000D000D5860008E5950008359600088996000841
:1000E000770200087702000877020008770200080C
:1000F00077020008770200087702000877020008FC
:1001000077020008770200087702000877020008EB
:100110007702000877020008E18B000877020008E8
:1001200077020008412100085121000877020008E9
:1001300077020008AD220008770200087702000865
:10014000F112000877020008770200087702000821
:10015000770200086121000871210008C996000893
:10016000770200087702000877020008770200088B
:1001700077020008770200087702000800000000FC
:100180007702000877020008DFF80CD000F036FC98
:1001900000480047AFCF0008D80101202C4B196858
:1001A0000868B0E8F04F80F30988BFF36F8F4FF015
:1001B000000080F3118870470000000008480068C4
:1001C000006880F308884FF0000080F3148862B65E
:1001D00061B6BFF34F8FBFF36F8F00DF00BF00BF6B
:1001E00008ED00E0DFF80C00016841F470010160E7
:1001F000704700BF88ED00E0EFF30980BFF36F8F19
:10020000134B1A681EF0100F08BF20ED108A20E96A
:10021000F04F106009B44FF0500080F31188BFF325
:100220004F8FBFF36F8F0FF02FFC4FF0000080F364
:10023000118809BC19680868B0E8F04F1EF0100F6B
:1002400008BFB0EC108A80F30988BFF36F8F704746
:1002500078000010EFF305807047000006488047E3
:1002600006480047FEE7FEE7FEE7FEE7FEE7FEE79B
:10027000FEE7FEE7FEE7FEE7758900088901000852
:100280002DE9F05F0546002092469B4688460646CB
:10029000814640241BE0284641464746224600F05E
:1002A00066FA53465A46C01A914110D31146184671
:1002B000224600F04DFA2D1A67EB01084F46224600
:1002C0000120002100F044FA17EB00094E41201EE6
:1002D000A4F10104DFDC484631462A464346BDE826
:1002E000F09F10B5431A934209D28318881803E08F
:1002F00010F8011D03F8011D521EF9D210BD40EA8D
:1003000001039B0703D009E008C9121F08C0042A93
:10031000FAD203E011F8013B00F8013B521EF9D27A
:1003200010BDD2B201E000F8012B491EFBD270478C
:100330000022F6E710B513460A4604461946FFF7B1
:10034000F0FF204610BD2DE9FE4F804681EA0300F4
:10035000C00F0C46009021F0004123F00045B8EB9F
:100360000200A94105D24046214690461C460B4654
:10037000024623F00040104347D0270DC7F30A0080
:10038000C3F30A510290401A019040286BDAC3F37C
:10039000130040F4801B0098924620B10023D2EB5A
:1003A000030A63EB0B0B01985946C0F1400250461B
:1003B00000F0CEF906460D4650465946019A00F027
:1003C000E6F910EB08006141002487EA115284EA43
:1003D000E7731A4340D0009A62B3019A012A4FEAA8
:1003E000075215DC001B61EB02014FF0004202EAEC
:1003F0000752CDE90042001C41F5801132462B46E0
:1004000000F046FA03B0BDE8F08F40462146F9E718
:10041000001B61EB0201001C41F5801300185B41D9
:100420002018A2F5001747EB030140EAD570B61972
:100430006D4111E06D084FEA360645EAC0754FEA96
:100440000752001B61EB0201001C41F580114908B5
:100450004FEA30000019514132462B4603B0BDE847
:10046000F04F00F006BA0098012240000023D0EBC4
:10047000020263EBE073009821464FEAE074B8EBA8
:10048000000061EB0401E9E783F000435BE781F0E2
:10049000004158E72DE9FE4F81EA030404F00044CF
:1004A00021F0004100944FF0000B23F0004350EA8C
:1004B00001045ED052EA03045BD0C3F30A54C1F3D3
:1004C0000A552C44A4F2F3340194A0FB0254C1F366
:1004D000130141F48011C3F3130343F4801301FBB0
:1004E000024400FB034E840A970A44EA815447EA17
:1004F0008357A4FB076802958D0A05FB07854FEA21
:10050000932C04FB0C542705029D4FEA065847EA3A
:100510001637B5EB08056EEB070C870E920E47EA0F
:10052000811742EA8312A7FB0201B6EB0B0164EBD1
:1005300000042B0D43EA0C335E1844EB1C50DA46E2
:100540005146E7FB0201C5F313044FEA0B3343EABC
:1005500014534FEA0432019C43EA0603A4F10C044D
:100560000294009CCDE900B400F092F903B0BDE81C
:10057000F08F00200146F9E72DE9F04D81EA0304F0
:1005800004F0004B21F0004514464FF0000A23F020
:10059000004150EA050220D054EA01021DD0C5F303
:1005A0000A570246C5F31303C1F31300C1F30A56F9
:1005B00040F4801543F48013A7EB0608101BD646C1
:1005C00008F2FD3873EB050002D308F1010801E0E1
:1005D00092185B41B8F1000F03DA00200146BDE834
:1005E000F08D00204FF48011064684460EE0171B64
:1005F00073EB050705D3121B63EB050306434CEAB7
:10060000010C49084FEA300092185B4150EA01079B
:10061000EDD152EA030012D082EA040083EA050118
:10062000084305D0101BAB4106D20122002306E08F
:1006300000224FF0004302E06FF0010253101AEB6A
:1006400006004CEB085110EB0A0041EB0B01BDE832
:10065000F04D00F00EB90EB5C10F80EAE07008440D
:10066000CA07002140F233438DE80E000A460B46CC
:1006700000F00EF903B000BD0EB540F23341029117
:100680000021CDE900110A460B4600F001F903B044
:1006900000BD00F0004230F000400AD0C10D01F56D
:1006A0006071C0F3160042EA0151C20840071143CD
:1006B000704700200146704730B5041E71F10004F8
:1006C00004DB4FF00044404264EB0101141E73F15F
:1006D000000405DB1C464FF00043524263EB040369
:1006E0008B4208BF824230BD30B5041E71F1000458
:1006F00004DB4FF00044404264EB0101141E73F12F
:10070000000405DB1C464FF00043524263EB040338
:10071000994208BF904230BD01F0004330B421F04F
:10072000004150EA010206D00A0DA2F56072C1F341
:100730001301002A02DC30BC00207047440F44EA59
:10074000C104C100E01830BC00EBC25000F031B869
:10075000202A04DB203A00FA02F100207047914081
:10076000C2F1200320FA03F3194390407047202A76
:1007700004DB203A21FA02F00021704721FA02F34B
:10078000D040C2F120029140084319467047202A08
:1007900006DBCB17203A41FA02F043EAE07306E0A9
:1007A00041FA02F3D040C2F12002914008431946B9
:1007B00070470029A8BF7047401C490008BF20F0BF
:1007C0000100704710B4B0FA80FC00FA0CF050EA57
:1007D000010404BF10BC704749B1CCF1200421FAD8
:1007E00004F411FA0CF118BF012121430843A3EBD3
:1007F0000C01CB1D4FEA00614FEA102042BF0020E0
:1008000010BC704700EBC35010440029A4BF10BCBB
:100810007047401C490008BF20F0010010BC704721
:10082000F0B400F0004221F0004120F00040CE0D75
:10083000C30DC1F3160141F40001C0F316004C4290
:10084000154640F40000761E09E010EB440002D586
:1008500082F0004240428842F7D840005B1EB3421B
:10086000F9DA18B1F0BC0021FFF7ACBF2846F0BCA4
:10087000704710B5141E73F1000408DA401C41F1F2
:10088000000192185B411A4301D120F0010010BD14
:100890002DE9F04D92469B4611B1B1FA81F202E08A
:1008A000B0FA80F220329046FFF752FF04460F461E
:1008B00040EA0A0041EA0B0153465A46084313D066
:1008C000114653EA010019D0C8F140025046FFF723
:1008D0004EFF05460E46504659464246FFF738FF42
:1008E000084305D0012004E020463946BDE8F08DDC
:1008F0000020054346EAE0762C4337430A98630517
:10090000E40AA0EB08000022FD0A44EA47540A303A
:1009100002D500200146E9E7010510196941DDE92A
:10092000084500196941BDE8F04DA2E770B521F016
:10093000004303430CD0C1F30A550024D5EB040552
:1009400064EB0403D617AD1AB34102DB0020014665
:1009500070BD201841EB025170BD2DE9F04D002310
:100960001A461B1A8A4103DB00200146BDE8F08DC0
:10097000C1F30A52C1F3130141F480154FF0000B8B
:10098000D10702D100186D41521E0027044640F2E3
:10099000FF11384601EB620A3E46804602460020BF
:1009A0004FF48011FFF7E3FEC2197141BB1846EB0B
:1009B0000100B4EB030C75EB000C04D3E41A65EBF7
:1009C000000517460E46241908F101006D418046C6
:1009D0003428E3DDF91946EB0600091BA84103D2D0
:1009E0004FF0FF32134601E0002213461BEB0700D5
:1009F00046EB0A51BDE8F04DFFF73BBF064C074DF3
:100A000006E0E06840F0010394E8070098471034DE
:100A1000AC42F6D3FFF7BCFB680D0108A80D010836
:100A200070B5C1F30A5201F000450024C1F313016F
:100A300040F2FF3341F480119A4201DA002070BD88
:100A400040F233439A42A2F2334203DC5242FFF7B0
:100A50008EFE00E090402C43F1D0404270BD70B556
:100A60008C1810F8015B15F0070301D110F8013B59
:100A70002A1106D110F8012B03E010F8016B01F8E0
:100A8000016B5B1EF9D12B0705D40023521E0DD438
:100A900001F8013BFAE710F8013BCB1A921C03E086
:100AA00013F8015B01F8015B521EF9D5A142D8D3BE
:100AB000002070BD08B50BF09BF80BF0A7F821489B
:100AC0000068C06840F010001E490968C8601E48F0
:100AD0000068C06840F010001B490968C8601B48E6
:100AE0000068C06820F4005018490968C8601748B9
:100AF0000068406800BF002000901448006800684B
:100B00000090124800684068009000BF00BF4FF49A
:100B100000720F490D4804F00FFF0C480068C068D0
:100B200040F0100009490968C86008480068C068BA
:100B300040F4005005490968C860064804F004F90B
:100B400008BD00001821002060210020F0210020B5
:100B5000F51A00204020002010B51E48007830B162
:100B6000012805D0022817D0032830D11BE02FE040
:100B700064200CF08DFF092017490870C8200CF084
:100B800087FF00201449087014480078012802D11A
:100B90000220104908701BE01048007810B90320AB
:100BA0000C49087014E064200CF072FF03200A491D
:100BB0000870C8200CF06CFF002007490870084836
:100BC0000078012802D100200249087000E000BF2F
:100BD00000BF10BD42000020340000208A0A00201F
:100BE000850A002010B51D48007830B1012805D0D5
:100BF00002281DD003282DD121E02CE00120184926
:100C000008700B201749087064200CF041FF072082
:100C100015490870C8200CF03BFF002012490870ED
:100C200012480078012802D102200C49087012E015
:100C30000E48007810B90320084908700BE0012025
:100C40000B4908700B480078012802D100200349A5
:100C5000087000E000BF00BF10BD00004000002091
:100C6000AD0900205C00002034000020830A002031
:100C700043000020860A002010B52148007830B1DA
:100C8000012805D0022815D0032835D126E034E00C
:100C90001C480078022806D108201B490870012052
:100CA0001A49087002E00020174908700220144910
:100CB000087022E064200CF0EBFE05201449087057
:100CC00064200CF0E5FE00201149087011480078FE
:100CD000012802D103200A4908700EE00D4800786F
:100CE00048B908480078022802D00B20064908704D
:100CF00000200349087000E000BF00BF10BD0000E5
:100D000041000020AD0900205C00002024000020EC
:100D100034000020870A002010B56E4800780128B2
:100D20007ED16D480078662804D16B4890F8250084
:100D3000992800D010BD69486749D1F80D100160AD
:100D40006549D1F8111041606349D1F8151001616E
:100D50006149D1F8191041615F49D1F81D10416214
:100D60005D49D1F82110C161D0ED000AB0EE600AF2
:100D700007F0F0FA5A48D0ED000A30EE200A594840
:100D800080ED000A554890ED010ADFED570A20EE8C
:100D9000200A544880ED010A5448007880B94F4831
:100DA00090ED040A4F4880ED020A4C4890ED050A88
:100DB0004F48D0ED000A20EE200A4A4880ED030A91
:100DC0004A48007801280FD19FED4A0A454880ED36
:100DD000020A424890ED070A4548D0ED000A20EE8D
:100DE000200A404880ED030A4048007802280FD1CD
:100DF0009FED410A3B4880ED020A384890ED090A10
:100E00003B48D0ED000A20EE200A364880ED030A68
:100E10003448D0ED000AB0EE600A9FED381A00E0C9
:100E200015E0DFED370A01F023F9364880ED020ABC
:100E300004F014FE334890ED010A2A4880ED000AC0
:100E40003148008D401C81B22F4801853FE0214888
:100E5000007803282AD100F063F82C48D0ED340A3A
:100E6000B0EE600A2A48D0ED000A00F097FB29484E
:100E7000D0ED000A30EE200A224880ED020A04F08C
:100E8000EDFD204890ED010A164880ED000A9FED27
:100E9000220A80ED030A9FED200A80ED020A1F4816
:100EA00090ED000A0F4880ED010A10E09FED1A0A4C
:100EB0000C4880ED000A9FED180A80ED030A9FEDB3
:100EC000160A80ED020A9FED140A80ED010A00BFA8
:100ED00030E70000AD090020F81E002000190020B6
:100EE000480000202819002000007A44BE09002094
:100EF0004C0000200060D14500C00F460000B44205
:100F00000000B4C250030020040C00205C0000204C
:100F1000600B0020780B002000000000640B002014
:100F200010B52DED048B3A4890ED020A394880ED5A
:100F3000000A374890ED1B0A374880ED000A354813
:100F400090ED000ADFED350A30EEC00A344880ED3E
:100F5000000A314890ED000ADFED320A30EEC00A97
:100F6000314880ED000A2E48D0ED000A2E4890ED61
:100F7000000A08F06FFEDFED2D0A80EE201A9FEDCB
:100F80002C0A31EE400A2B4880ED000A2648D0EDAD
:100F9000000A234890ED000A01F052FB264880ED3C
:100FA000000A19E0234890ED000AB5EEC00AF1EE00
:100FB00010FA08DB90ED000ADFED200A30EE600A3F
:100FC00080ED000A08E01B4890ED000ADFED1B0AE7
:100FD00030EE200A80ED000A16480068FFF759FB42
:100FE00041EC190BB0EE490AF0EE690A09F068F815
:100FF000B0EE408AF0EE608A9FED110B53EC102B9F
:1010000051EC180BFFF770FBCCD9BDEC048B10BD75
:101010005C000020700B0020740B002000C078459D
:10102000680B0020000070446C0B002035FA8E3CE9
:101030000000B442600B0020640B00200000B443A9
:1010400000000000008066400948007810B10128C7
:101050000BD100E009E0042006490870064800783A
:1010600010B100200249087000BF00BF70470000A7
:1010700043000020340000204100002010B5194832
:101080000078012814D1184890ED000ADFED170A06
:1010900030EE200A80ED000A15480078401C40B26E
:1010A00013490870C8200CF0F3FC00200D490870AB
:1010B0000C480078022814D10B4890ED000ADFEDAF
:1010C0000B0A30EE600A80ED000A09480078401EE5
:1010D00040B207490870C8200CF0DAFC0020014932
:1010E000087010BD530000204C0000206F12833A9E
:1010F0005000002010B519480078012814D1184874
:1011000090ED000ADFED170A30EE200A80ED000AAC
:1011100015480078401C40B213490870C8200CF0F4
:10112000B7FC00200D4908700C480078022814D143
:101130000B4890ED000ADFED0B0A30EE600A80EDFF
:10114000000A09480078401E40B207490870C820CC
:101150000CF09EFC00200149087010BD52000020D8
:1011600048000020CDCCCC3D51000020314A1278FF
:10117000002A5DD0304A12788A423ADA2E4A127832
:1011800002EB820200EB820292ED010A2B4A82ED11
:10119000330A294A127802EB820200EB820292EDB6
:1011A000030A264A82ED4C0A234A127802EB820295
:1011B00000EB820292ED040A204A82ED4D0A1E4A9B
:1011C000127802EB820200EB820292ED020A1C4AC4
:1011D000D2ED000AB4EEE00AF1EE10FA28D89FED45
:1011E000190A82ED000A144A1278521C124B1A7026
:1011F0001EE09FED140A114A82ED4C0A9FED110A80
:1012000082ED4D0A0E4A92ED000ADFED0F0AB4EEB0
:10121000E00AF1EE10FA0BDD9FED0A0A82ED000AFA
:101220000022054B1A70034B1A700322034B1A70ED
:1012300070470000C4090020480B00205C0000201B
:10124000C0090020000000000000FA4300BFFEE7D4
:1012500010B58AB004460020059006900120079042
:1012600047F6FE70009000200290019003900490D9
:101270000E200990012008906946064801F03AFBCB
:10128000044802F084F80221024801F079FA0AB019
:1012900010BD0000F01F002010B5024801F087FCCF
:1012A00010BD0000F01F002010B58AB004460E20CB
:1012B0000590002006900120079047F6FE700090F0
:1012C000002002900190039004901C2009900120BE
:1012D00008906946054801F00DFB044802F057F8F4
:1012E0000221024801F04CFA0AB010BD182000207B
:1012F00010B5024801F05BFC10BD00001820002072
:101300002DE9FC4781460E4614461D46DDE90A7864
:10131000200A8DF80000E0B28DF80100280A8DF84F
:101320000200E8B28DF80300380A8DF80400F8B224
:101330008DF805004FEA18208DF8060008F0FF0030
:101340008DF80700B1B208236A46484600F002F85B
:10135000BDE8FC872DE9F04106460C4617461D46C0
:101360000E48046000200D4948608860C860084647
:10137000056101233A46304601F017FA60B10223B5
:101380003A460649304601F010FA28B104233A469D
:101390000249304601F009FABDE8F081EC0B00206B
:1013A00030B52DED108B83B004469FED7B0AB0EE77
:1013B00040FA94ED000AD4ED060A30EE600A84ED9E
:1013C000020A94ED030AD4ED040A20EE200AB0EEDE
:1013D000408A94ED040A20EE080A10EE105A94EDAB
:1013E000020AD4ED040A94ED011A00EE810AF0EE2F
:1013F000408A18EE900AFFF74CF941EC1E0BB0EE54
:101400004E0AF0EE6E0A08F05BFEB0EE40DAF0EE47
:1014100060DA94ED030AF2EE000A20EE200A10EEE4
:10142000101A0846FFF735F953EC1D2BCDE90001E2
:101430009DED000B51EC100BFFF72CF841EC1B0B52
:1014400028EE080A10EE101A0846FFF722F941ECC0
:101450001C0B53EC1B2BFEF776FF41EC1A0BB0EE86
:101460004A0AF0EE6A0A09F0E3FDB0EE409AF0EEA7
:10147000609A51EC190BFFF74FF902902846FFF7DD
:1014800008F941EC190B18EE900AFFF702F941EC4C
:101490001B0BB0EE4B0AF0EE6B0A08F011FEB0EE3B
:1014A00040AAF0EE60AA53EC192B51EC1A0BFFF78F
:1014B0001BF918D2B0EE680A07F0E0F900EE100A46
:1014C000F8EEC00A9DED020A30EE480A60EE800A8E
:1014D000B0EE001A80EE810AD4ED010A30EE200A47
:1014E000B0EE40FA09E0D4ED040A88EEA00AD4ED8B
:1014F000010A30EE200AB0EE40FA18EE100AFFF7AB
:10150000C8F841EC190B1FEE100AFFF7C2F841ECC6
:101510001B0BB0EE4B0AF0EE6B0A08F0D1FDB0EEFB
:1015200040AAF0EE60AA53EC192B51EC1A0BFFF70E
:10153000DBF810D2B0EE4F0A07F0A0F900EE100A67
:10154000B8EEC00AD4ED030ABFEE001A60EE810ABD
:1015500060EE20FA09E094ED030AFFEE000A20EEA7
:10156000200A20EE0F0AC0EE08FA94ED000AD4ED2E
:10157000050A94ED011A00EE810A84ED000A94ED4B
:10158000010AD4ED050A00EEAF0A84ED010A03B0AA
:10159000BDEC108B30BD000000000000B0EE401A22
:1015A00070EEC11AB0EE610ADFED0D1AB4EEE10A79
:1015B000F1EE10FA06DBDFED0B1A70EE611AB0EEF9
:1015C000610A0CE0DFED081AB4EEE10AF1EE10FA60
:1015D00005D2DFED041A70EE211AB0EE610A7047F1
:1015E000000034430000B443000034C3B0EE401A9E
:1015F00070EEC11AB0EE610ADFED0D1AB4EEE10A29
:10160000F1EE10FA06DBDFED0B1A70EE611AB0EEA8
:10161000610A0CE0DFED081AB4EEE10AF1EE10FA0F
:1016200005D2DFED041A70EE211AB0EE610A7047A0
:101630000000E144000061450000E1C410B5C2486B
:10164000D0ED000A9FEDC11A60EE810AB0EE600A8B
:101650009FEDBF1ADFEDBF0A00F00AFDBE4880ED26
:10166000000AB948D0ED320A9FEDB81A60EE810A3F
:10167000B0EE600A9FEDB91ADFEDB90A00F0F8FC90
:10168000B84880ED000AB048D0ED190A9FEDAF1AB6
:1016900060EE810AB0EE600A9FEDB31ADFEDB30A87
:1016A00000F0E6FCB24880ED000AA748D0ED4B0AF6
:1016B0009FEDA61A60EE810AB0EE600A9FEDAD1AAA
:1016C000DFEDAD0A00F0D4FCAC4880ED000A9E4886
:1016D00090ED000AAA48D0ED000A30EE600ADFED76
:1016E000A90A20EE200A9C4880ED020A964890ED57
:1016F000320AA548D0ED000A30EE600ADFEDA10AFB
:1017000020EE200A974880ED020A8F4890ED190AD2
:101710009E48D0ED000A30EE600ADFED9A0A20EE16
:10172000200A934880ED020A874890ED4B0A9848BA
:10173000D0ED000A30EE600ADFED920A20EE200ABA
:101740008E4880ED020A804890ED000A8C4880EDBA
:10175000000A7D4890ED190A8C4880ED000A7A480D
:1017600090ED320A884880ED000A774890ED4B0AE8
:10177000874880ED000A874890ED0B1AF0EE410A89
:10178000854890ED0B1AB0EE410A00F059FF8348EE
:1017900080ED000A704890ED000AD0ED020A30EEAC
:1017A000200A7F48D0ED000A7C4890ED001A00EE38
:1017B000810A694880ED030A6D4890ED000AD0ED7A
:1017C000020A30EE200A7648D0ED000A734890ED08
:1017D000001A00EE810A664880ED030A614890ED28
:1017E000000AD0ED020A30EE200A6D48D0ED000A62
:1017F0006A4890ED001A00EE810A5A4880ED030A0B
:101800005E4890ED000AD0ED020A30EE200A6448EE
:10181000D0ED000A614890ED001A00EE810A5748A9
:1018200080ED030A4848D0ED640A9FED5E1A60EE31
:10183000810AB0EE600A9FED5B1ADFED5B0A00F0F3
:1018400017FC5A4880ED000A3F48D0EDCA0A9FEDC8
:10185000551A60EE810AB0EE600A9FED521ADFED74
:10186000520A00F005FC524880ED000A3648D0EDDF
:10187000970A9FED4C1A60EE810AB0EE600A9FED68
:10188000491ADFED490A00F0F3FB4A4880ED000AEF
:101890002D48D0EDFD0A9FED431A60EE810AB0EEAF
:1018A000600A9FED401ADFED400A00F0E1FB42487C
:1018B00080ED000A3D48D0ED000A90ED021A70EE6E
:1018C000810AB0EE600A9FED2F1ADFED3C0A00F0AE
:1018D000CFFB364880ED030A3648D0ED000A90ED84
:1018E000021A70EE810AB0EE600A9FED261ADFED53
:1018F000330A00F0BDFB2F4880ED030A2C48D0EDE1
:10190000000A90ED021A70EE810AB0EE600A9FEDB7
:101910001D1ADFED2A0A00F0ABFB254880ED030A13
:101920002548D0ED000A90ED021A70EE810AB0EE63
:10193000600A9FED141ADFED210A00F099FB1E48A2
:1019400080ED030A10BD0000640300200000C842BF
:101950000000C8430000C8C3EC000010000016449B
:10196000000016C40C01001000803B4400803BC402
:10197000FC00001000002F4400002FC41C010010C8
:101980005C00001000409C466400001060000010E5
:10199000680000102C020020C80100207000001018
:1019A0006C0000100000FA430000FAC3800D002014
:1019B000A00D0020900D0020B00D002000409CC61E
:1019C0002DE9F0472DED0C8B8046894614461D46C7
:1019D000149EDDED159A169F9DED17AAB3EE0E0A23
:1019E000F0EE40AAB8F81200A0F6110000EE100ABE
:1019F000B8EEC00AB0EE409A2046FEF73DFE41EC3C
:101A00001B0B19EE100AFEF744FE41EC1D0BB0EE65
:101A10004D0AF0EE6D0A08F053FBB0EE40CAF0EE4E
:101A200060CA53EC1B2B51EC1C0BFEF745FE05D294
:101A30009FED820A824880ED020A30E0B5EEC09A3E
:101A4000F1EE10FA13DD00EE104AB8EE400A79EE1E
:101A5000400A00EE105AB8EEC00A20EE800ADFED10
:101A6000790A80EE201A764880ED021A17E0B5EE6A
:101A7000C09AF1EE10FA12D200EE104AB8EE400A07
:101A800079EE000A00EE105AB8EEC00A20EE800A85
:101A9000DFED6D0A80EE201A694880ED021AB8F871
:101AA0001400A0F2EE7000EE100AB8EEC08A3046C4
:101AB000FEF7E2FD41EC1B0B18EE100AFEF7E9FD04
:101AC00041EC1D0BB0EE4D0AF0EE6D0A08F0F8FA8D
:101AD000B0EE40CAF0EE60CA53EC1B2B51EC1C0B6D
:101AE000FEF7EAFD05D29FED550A584880ED020A3F
:101AF0002CE0B5EEC08AF1EE10FA11DD00EE106AAE
:101B0000B8EE400A38EE400AF8EEE90A20EE200A64
:101B1000DFED4F0A80EE201A4C4880ED021A15E0E6
:101B2000B5EEC08AF1EE10FA10D200EE106AB8EEEF
:101B3000400A38EE000AF8EEE90A20EE200ADFED4E
:101B4000450A80EE201A414880ED021AB8F81600C6
:101B5000A0F62A0000EE100AF8EEC08A3846FEF71A
:101B60008BFD41EC1B0B18EE900AFEF792FD41EC49
:101B70001D0BB0EE4D0AF0EE6D0A08F0A1FAB0EEC2
:101B800040CAF0EE60CA53EC1B2B51EC1C0BFEF765
:101B900093FD05D29FED290A2F4880ED020A2CE023
:101BA000F5EEC08AF1EE10FA11DD00EE107AB8EE13
:101BB000400A38EEC00AF8EECA0A20EE200ADFED2D
:101BC000270A80EE201A244880ED021A15E0F5EE6F
:101BD000C08AF1EE10FA10D200EE107AB8EE400A88
:101BE00038EE800AF8EECA0A20EE200ADFED1C0A61
:101BF00080EE201A184880ED021A114803F02EFFDB
:101C0000124803F02BFF144803F028FF0C4890ED16
:101C1000010AB1EE400A89ED4C0A0C4890ED010A28
:101C200089ED4D0A0C4890ED010AB1EE400A89EDAC
:101C3000550ABDEC0C8BBDE8F087000000000000E9
:101C4000980A002000E0F1440040FB44AC0A002068
:101C50000040F64400E0F644C00A00200000FA44C8
:101C600000C0F844F0B52DED0C8B8DB006460C4647
:101C7000302101A8FEF75CFB04F5C0600390103032
:101C800006901030099010300C900025BFE005EB55
:101C9000450001A901EB800087689FED890AB0EE3D
:101CA000408A96ED560AD6ED580A97ED001A00EED6
:101CB000C10AF0EE409A96ED570AD6ED580A97ED14
:101CC000011A00EEC10AB0EE40AAF0EE4A0AB0EEE8
:101CD000690A00F0B5FCF0EE408A7A4800780928DD
:101CE00003D0784800780A2805D19FED770A774815
:101CF00080ED000A04E0B2EE040A744880ED000AA8
:101D000072480068FEF7C5FC41EC1B0B18EE900A08
:101D1000FEF7BFFC41EC1D0BB0EE4D0AF0EE6D0A74
:101D200008F0CEF9B0EE40CAF0EE60CA53EC1B2BBF
:101D300051EC1C0BFEF7D8FC12D2F0EE690AB0EEA3
:101D40004A0A07F087FFB0EE40BA06F003FBB0EE98
:101D5000408AB0EE480A0BF049FEB0EE408A03E03C
:101D600097ED030AB0EE408A97ED030A38EE400A79
:101D7000B0EE409A9FED560A69EE00AAB0EE6A0AEC
:101D800008F0F6F8B0EE40BAB0EE6A0A09F088F84A
:101D9000F0EE40BAF0EE4B0A07F05CFFDFED4D0AC3
:101DA00020EE200AB0EE409AB0EE490A0BF01EFE7B
:101DB000B0EE409AB0EEC90ADFED470AB4EEE00A91
:101DC000F1EE10FA0DDDDFED450A78EE200AB0EEF7
:101DD000600A0BF00BFEB0EE408AB1EE680AF0EE3E
:101DE000408A05EB450001A901EB8000C0ED008AA7
:101DF00005EB450001EB800080ED018A05EB450015
:101E000001EB800090ED010A87ED030A6D1C042DA3
:101E1000FFF63DAFDDED010A9FED311A80EE810A3C
:101E2000DFED300A20EE200A84ED000A9DED020A63
:101E3000F2EE040A20EE200A84ED7D0ADDED040AAC
:101E40009FED271A80EE810ADFED260A20EE200A98
:101E500084ED190A9DED050AF2EE040A20EE200A2F
:101E600084EDB00ADDED070A9FED1D1A80EE810AB0
:101E7000DFED1C0A20EE200A84ED320A9DED080AEF
:101E8000F2EE040A20EE200A84EDE30A9DED0A0A30
:101E90009FED131AC0EE010A9FED120A20EE800A90
:101EA00084ED4B0A9DED0B0AF2EE040A20EE200AA7
:101EB00004F57D7080ED190A0DB0BDEC0C8BF0BD02
:101EC000000000005C0000200000484358000010A3
:101ED00035FA8E3CE02E65420000B44200003443E7
:101EE000000038429A99A94091F8642A574B1B7810
:101EF0009A4220DD01F6C412544B1B7802EB830298
:101F000092ED000A524AD2ED000AB4EEE00AF1EE78
:101F100010FA10D84D4A1278521C4C4B1A709FED93
:101F20004D0A80ED4F0A9FED4B0A80ED060A9FEDAA
:101F3000490A80ED1F0A91F8642A444B1B789A42A3
:101F400067D1454A12784AB1434A1278012A7BD1B7
:101F500091F8652A414B1B789A4275D13C4A92ED23
:101F6000000ADFED3F0AB4EEE00AF1EE10FA51D2BA
:101F7000364A1278521E02EB420201EBC20292ED87
:101F8000010A324A1278521E02EB420301F5F07246
:101F900002EBC302D2ED010A30EE200A80ED010A05
:101FA0002A4A1278521E02EB420201EBC20292ED63
:101FB000020A264A1278521E02EB420301F5F07221
:101FC00002EBC302D2ED020A30EE200A80ED1A0ABB
:101FD000224A1278521E01F5F06303EB820292ED61
:101FE000000A1E4A1278521E503303EB8202D2EDD1
:101FF000000A30EE200A80ED330A9FED160A80EDCC
:102000004C0A9FED140A80ED4D0A9FED120A80EDF7
:102010004E0A19E000220D4B1A70104B1A709FEDFA
:102020000D0A80ED4F0A9FED0B0A80ED510A9FEDDE
:10203000090A80ED500A01220A4B1A7003220A4B4A
:102040001A700122094B1A70704700001E0B002005
:10205000F00A0020000000001C0B00201F0B0020D5
:10206000CDCCCC3DB80900205C0000201E00002033
:10207000F0EE401AF4EEE01AF1EE10FA02D2B0EEF1
:10208000600A7047F4EEC11AF1EE10FA02DDB0EE0C
:10209000410AF6E7B0EE610AF3E7000000BFDFEDAA
:1020A000150AB4EEE00AF1EE10FA06DBDFED120AD3
:1020B00070EE600AB0EE600A0CE0DFED100AB4EEDC
:1020C000E00AF1EE10FA05D2DFED0B0A70EE200AFD
:1020D000B0EE600ADFED070AB4EEE00AF1EE10FAA6
:1020E000DDDADFED060AB4EEE00AF1EE10FAD6D33F
:1020F00070470000DB0F4940DB0FC940DB0F49C0D0
:1021000010B5024801F0E4F910BD0000B82300202A
:1021100010B5024801F0DCF910BD000018240020C1
:1021200010B5024801F0D4F910BD0000F8220020DB
:1021300010B5024801F0CCF910BD00005823002072
:1021400010B5024801F0C4F910BD00007824002049
:1021500010B5024801F0BCF910BD00003822002083
:1021600010B5024801F0B4F910BD0000D8240020D9
:1021700010B5024801F0ACF910BD00009822002013
:102180000146087810381823B0FBF3F20848805C49
:10219000C865032A05D908686FF30900001D886522
:1021A00003E008686FF309008865886D70470000D8
:1021B000E40A0108014600208A6A8B69CBB932B172
:1021C000012A0DD0022A03D0032A10D10EE000BF4D
:1021D000CB6A03F08073B3F1807F00D1012007E068
:1021E000CB6AB3F1C07F00D1012001E000E000BF65
:1021F00034E08B69B3F5005F1AD132B1012A07D000
:10220000022A03D0032A11D10AE000BF01200EE008
:10221000CB6A03F08073B3F1807F00D1012006E028
:10222000CB6AB3F1C07F00D1012000E000BF15E010
:1022300032B1012A05D0022A04D0032A0CD103E0CE
:1022400000BF00BF012008E0CB6A03F08073B3F148
:10225000807F00D1012000E000BF00BF704730B593
:102260000468246824F4802405682C600468636092
:102270008468402C04D10468A2600468E16003E033
:102280000468A1600468E26030BD7047F0EE400A67
:102290009FED040A20EE801ADFED031A81EE210A79
:1022A00070470000DB0F49400000344310B502487E
:1022B00001F002FB10BD0000D0FC002000207047A0
:1022C00010B501F029FD10BD10B5024801F0B8FBB2
:1022D000002010BDD0FC002070B504460D46164607
:1022E00033462A462146044801F06BFB10B14FF0FB
:1022F000FF3070BD0020FCE7D0FC002070B5044624
:102300000D46164633462A462146044801F0CFFBC7
:1023100010B14FF0FF3070BD0020FCE7D0FC002072
:1023200072B600BFFEE7000030B52DED0A8B85B018
:1023300005460C46D5ED020A9FEDA71A60EE810A0C
:10234000B0EE600AFFF7AAFEB0EE409AA34890ED07
:10235000000ABDEEC00A84ED030AA14890ED000A10
:10236000BDEEC00A84ED050AD4E90323D11A002981
:1023700001DB0A4600E04A42642A09DCD4E905236D
:10238000D01A002801DB024600E04242642A07DD41
:10239000E06820616069A06105B0BDEC0A8B30BDCA
:1023A000D4E90301884215DBD4E90312881AFEF749
:1023B00052F941EC1C0B9FED8B0B53EC102BFEF7ED
:1023C00069F841EC1B0BFEF7A7F908EE100A9FED28
:1023D00087AA14E0D4E90312881AFEF73CF941EC0D
:1023E0001C0B9FED830B53EC102BFEF753F841ECC5
:1023F0001B0BFEF791F908EE100A9FED7FAAD4E9B6
:102400000501884215DBD4E90512881AFEF723F985
:1024100041EC1C0B9FED790B53EC102BFEF73AF8B7
:1024200041EC1B0BFEF778F908EE900ADFED759A88
:1024300014E0D4E90512881AFEF70DF941EC1C0BE3
:102440009FED710B53EC102BFEF724F841EC1B0BA6
:10245000FEF762F908EE900ADFED6D9A6D4880EDA7
:10246000008A6D48C0ED008AB0EE4A0A08F018FDF7
:102470006A4880ED000AB0EE690A08F011FD68486C
:1024800080ED000AB0EE4A0A07F072FD654880ED63
:10249000000AB0EE690A07F06BFD634880ED000AA0
:1024A0007AEE090A9FED611A70EEC10AB0EE600A79
:1024B00008F0F6FCB1EE400A8DED010A79EE890ACA
:1024C000B0EE600A08F0ECFCB1EE400A8DED020AB5
:1024D0007AEE090A9FED551A70EEC10AB0EE600A55
:1024E00007F046FD8DED030A79EE890AB0EE600A29
:1024F00007F03EFD8DED040A9DED010A20EE080A6D
:10250000DDED020A00EEA80AD4ED010A30EE200A41
:1025100084ED010A9DED030A20EE080ADDED040AB0
:1025200000EEA80AD4ED000A30EE200A84ED000A7D
:102530009DED030A20EE080ADDED040A00EEA80A6C
:1025400084ED090A9DED010A20EE080ADDED020A7C
:1025500000EEA80A84ED0A0ADFED350A79EE200ABA
:10256000B0EE600A08F09CFCF0EE40AA9FED300A45
:1025700008F096FC7AEE800A94ED000A2D4890ED62
:10258000001A30EE010A9FED2C1A00EE810A85ED4B
:10259000000ADFED270A79EE200AB0EE600A07F0A4
:1025A000E7FCF0EE40AA9FED220A07F0E1FC7AEE8C
:1025B000C00A94ED010A214890ED001A30EE010A9C
:1025C0009FED1D1A00EE810A85ED010AE068206189
:1025D0006069A06100BFDFE635FA8E3C0000002094
:1025E0000400002047C1735C58A5CCBF3F7C17C0D6
:1025F00015B0EC358399CCBFD42F17C038820DCEDF
:10260000A98FCCBFDD7044BFFB473D1E6686CCBFA3
:10261000DBF044BF24000010280000102C00001044
:10262000300000103400001038000010DB0F49406B
:1026300000000000080000200000A0430C00002063
:1026400010B52DED0C8BB0EE408AF0EE608A18EEDE
:10265000900AFEF71EF841EC1D0B9FED1C1BB0EE1F
:102660004D0AF0EE6D0A07F08FFDB0EE40BAF0EEC5
:1026700060BA18EE100AFEF70CF841EC1D0B9FED46
:10268000131BB0EE4D0AF0EE6D0A07F07DFDB0EEC3
:1026900040CAF0EE60CA53EC1B2B51EC1C0BFDF74B
:1026A00052FE41EC1A0BB0EE4A0AF0EE6A0A08F04C
:1026B000BFFCB0EE409AF0EE609A51EC190BFEF7B9
:1026C0002BF800EE100ABDEC0C8B10BD00000000D2
:1026D0000000004010B52DED028B0446254800781F
:1026E00006280FD0234800780F280BD02148007807
:1026F0000D2807D01F4800780E2803D01D48007809
:10270000112802D19FED1C8A08E01C48D0ED020A76
:10271000B0EE600AFFF7BAFDB1EE408AB0EE480AAB
:1027200007F026FCD4ED530A60EE208AB0EE480A8A
:1027300008F0B6FBD4ED540A40EEC08AC4ED568AC8
:10274000B0EE480A08F0ACFBD4ED530A60EE208AE4
:10275000B0EE480A07F00CFCD4ED540A40EE808A33
:10276000C4ED578A94ED550A84ED580ABDEC028BEE
:1027700010BD00005C00002000000000840C002060
:1027800010B5024692F82030012B01D0022B06D161
:1027900010684069084314686061002010BD506AE9
:1027A00040F4802050620120F8E7F0B504460D4661
:1027B0001E4694F8207020688368A86800B900E07D
:1027C00000BF012F01D0022F7DD103F0806030B90E
:1027D00003F0006018B903F0805000287ED0C3F3E6
:1027E0000161012088403060A86860B9B5F800C078
:1027F000E86840EA4C5C206800F5C07000EB01100E
:10280000C0F800C00FE0D5E901C040EACC00D5F81F
:102810000CC040EA0C00D4F800C00CF5C07C0CEBF6
:10282000011CCCF80000D5F810C0206800F5C0707D
:1028300000EB0110C0F804C0287D01280ED12068EB
:1028400000F5C07000EB0110406840F4807C206807
:1028500000F5C07000EB0110C0F804C0D07900068C
:1028600092F806C040EA0C4092F805C040EA0C20FD
:1028700092F804C040EA0C00D4F800C00CF5C07C0B
:102880000CEB011CCCF80C00D078000692F802C0CA
:1028900040EA0C4092F801C040EA0C2092F800C0D7
:1028A00040EA0C00D4F800C00CF5C07C0CEB011C15
:1028B000CCF80800206800F5C07000EB011000683B
:1028C00040F0010C01E00FE008E0206800F5C07066
:1028D00000EB0110C0F800C00020F0BD606A40F4B9
:1028E000001060620120F8E7606A40F480206062B6
:1028F0000120F2E7F0B504460A46216894F820501A
:10290000012D01D0022D7ED1424901F500710868E8
:1029100040F001000860086820F47C5008600868F6
:10292000566A40EA06200860107D00F01F0601206C
:1029300000FA06F3C8699843C861A1F50071D0692F
:10294000C8B9D1F80C029843C1F80C02908880B243
:10295000968940EA064601F51070576940F83760DD
:10296000108880B2168940EA064601F51070576952
:1029700000EBC7004660D069012819D1D1F80C02DC
:102980001843C1F80C02908880B2168840EA0646C7
:1029900001F51070576940F83760908980B2168948
:1029A00040EA064601F51070576900EBC700466023
:1029B000906928B9D1F804029843C1F8040204E0F0
:1029C000D1F804021843C1F80402106928B9D1F8FB
:1029D00014029843C1F8140204E0D1F81402184319
:1029E000C1F81402106A012804D1D1F81C0218435E
:1029F000C1F81C02D1F8000220F00100C1F8000269
:102A00000020F0BDFFE7606A40F480206062012092
:102A1000F7E7000000640040704770B5044694F882
:102A20002050012D01D0022D7DD151B92068C06800
:102A300000F0030080B9606A40F400106062012079
:102A400070BD2068006900F0030028B9606A40F496
:102A5000001060620120F3E7206800F5D87000EBF9
:102A60000110006800F004009060906840B9206890
:102A700000F5D87000EB01100068400D106007E011
:102A8000206800F5D87000EB01100068C0085060A5
:102A9000206800F5D87000EB0110006800F002001B
:102AA000D060206800F5D87000EB0110406800F09D
:102AB0000F00082802D30820106108E0206800F504
:102AC000D87000EB0110406800F00F001061206822
:102AD00000F5D87000EB0110406800F47F40000A58
:102AE0009061206800F5D87000EB01104068000C80
:102AF0005061206800F5D87000EB011080681870F4
:102B0000206800F5D87000EB0110806800F47F4069
:102B1000000A5870206800F5D87000EB011080683A
:102B200000F47F0000E03CE0000C9870206800F5A5
:102B3000D87000EB01108068000ED870206800F596
:102B4000D87000EB0110C0681871206800F5D870CB
:102B500000EB0110C06800F47F40000A5871206843
:102B600000F5D87000EB0110C06800F47F00000C85
:102B70009871206800F5D87000EB0110C068000E55
:102B8000D87131B92068C06840F020002668F06034
:102B900005E02068006940F02000266830610020D0
:102BA0004EE7606A40F480206062012048E72DE92A
:102BB000F05F04460025206846692068D0F804903C
:102BC000206887682068D0F80CA02068D0F810B082
:102BD0002068D0F8188006F00100002855D007F0D2
:102BE0000100C0B101202168886007F0020018B11F
:102BF000204600F0FCFB0EE007F0040010B145F4A5
:102C0000006508E007F0080010B145F4805502E0C7
:102C1000204600F0EBFB07F48070C8B14FF48070E1
:102C20002168886007F4007018B1204600F0E1FBCD
:102C30000EE007F4806010B145F4005508E007F499
:102C4000006010B145F4804502E0204600F0D0FB62
:102C500007F48030C8B14FF480302168886007F4F1
:102C6000003018B1204600F0C6FB0EE007F48020CB
:102C700010B145F4004508E007F4002010B145F418
:102C8000803502E0204600F0B5FB06F0080038B1C0
:102C90000AF0100020B145F4007510202168C860CA
:102CA00006F0040040B10AF0080028B108202168AD
:102CB000C860204600F00CFA06F0020038B1206827
:102CC000C06800F0030010B1204600F003FA06F0DF
:102CD000400038B10BF0100020B145F480651020A1
:102CE0002168086106F0200040B10BF0080028B10F
:102CF000082021680861204600F046FB06F010001D
:102D000038B12068006900F0030010B1204600F0DF
:102D10003CFB06F4003040B109F0100028B110204F
:102D200021684860204600F031FB06F4803040B155
:102D300009F0080028B1082021684860204600F00A
:102D40005BFB06F4004088B309F0040078B306F496
:102D5000807020B108F0010008B145F0010506F4CB
:102D6000007020B108F0020008B145F0020506F439
:102D7000806020B108F0040008B145F0040506F4B5
:102D80000060A0B108F0700088B108F07000402821
:102D900017D006DC10280BD020280CD0302819D1F1
:102DA0000CE0502810D0602814D110E01DE019E08C
:102DB00045F008050FE045F010050CE045F0200552
:102DC00009E045F0400506E045F0800503E045F4E4
:102DD000807500E000BF00BF2068806920F07000AF
:102DE000216888610420216848602DB1606A284309
:102DF00060622046FFF710FEBDE8F09F70B5044604
:102E00000CB9012070BD94F8200010B9204600F0E4
:102E1000AFF82068006840F001002168086000F009
:102E20007BFF05460DE000F077FF401B0A2808D91C
:102E3000606A40F400306062052084F820000120C0
:102E4000E0E72068406800F001000028EBD020682F
:102E5000006820F002002168086000F05DFF054670
:102E60000DE000F059FF401B0A2808D9606A40F4C1
:102E700000306062052084F820000120C2E720684D
:102E8000406800F002000028EBD1207E012806D126
:102E90002068006840F080002168086005E0206834
:102EA000006820F0800021680860607E012806D15B
:102EB0002068006840F040002168086005E0206854
:102EC000006820F0400021680860A07E012806D13B
:102ED0002068006840F020002168086005E0206854
:102EE000006820F0200021680860E07E012806D1FB
:102EF0002068006820F010002168086005E0206864
:102F0000006840F0100021680860207F012806D189
:102F10002068006840F008002168086005E020682B
:102F2000006820F0080021680860607F012806D151
:102F30002068006840F004002168086005E020680F
:102F4000006820F0040021680860D4E90201084309
:102F500021690843616908436168491E0843216883
:102F6000C86100206062012084F82000002049E749
:102F700010B586B00446142101A8FDF7D9F94F49D0
:102F80002068884242D14E480068401C4C49086085
:102F90000846006801280FD100BF00200090494872
:102FA000006840F00070474908600846006800F07B
:102FB0000070009000BF00BF00BF0020009041489B
:102FC0001038006840F002003E4910390860084699
:102FD000006800F00200009000BF00BF4FF4407096
:102FE0000190022002900120039003200490092008
:102FF000059001A9344800F08FFD0022052114201E
:1030000000F052FF142000F03BFF54E02F492068ED
:10301000884250D100BF002000902A48006840F04C
:103020008060284908600846006800F080600090D1
:1030300000BF00BF22480068401C214908600846C4
:10304000006801280FD100BF002000901D480068D3
:1030500040F000701B4908600846006800F00070EE
:10306000009000BF00BF00BF00200090154810383E
:10307000006840F0020013491039086008460068F3
:1030800000F00200009000BF00BF6020019002200D
:10309000029001200390032004900920059001A9CB
:1030A000094800F039FD00220521402000F0FCFE17
:1030B000402000F0E5FE06B010BD000000640040B6
:1030C00074000010403802400004024000680040D4
:1030D0007047000010B588B00446A14920688842B6
:1030E0007ED1A04B01AA00212046FFF796FC40F2BA
:1030F00003220198811A90423AD005DCA0F2012007
:1031000048B101286DD11CE0012952D0A1F2531120
:103110000029F7D172E0944892490968C0F8C414B4
:1031200090494968C0F8C01400F5806090ED300AFD
:103130008D4880ED010A8D488088401C8B4988802D
:103140006CE0894887490968C0F8EC1485494968EA
:10315000C0F8E81400F5806090ED3A0A824880EDEE
:103160001A0A8248C088401C81B28048C18055E05C
:103170007D487C490968C0F864157A494968C0F8F7
:10318000601500F5806090ED580A774880ED650A7B
:1031900000F5AC6005F010FE754890ED060A724827
:1031A00080ED7E0A71488089401C81B26F48818120
:1031B00034E06D486B490968C0F88C156949496865
:1031C000C0F8881500F5806090ED620A664880EDD1
:1031D000980A00F5B16005F0EFFD6548283001E080
:1031E0001EE01AE090ED060A5F4880EDB10A5F48E4
:1031F000C089401C81B25D48C1810FE05D485949DA
:10320000096801605C485749496801605748808AED
:10321000401C81B25548818200E000BF00BF9DE0A4
:10322000564920688842FAD1554B01AA0021204610
:10323000FFF7F3FB40F203220198811A904239D044
:1032400005DCA0F2012038B1012878D11BE001296A
:1032500052D0FD297FD173E0434849490968C0F83D
:10326000141547494968C0F8101500F5806090EDC5
:10327000440A3D4880ED330A3C480089401C81B235
:103280003A48018168E038483D490968C0F83C1572
:103290003B494968C0F8381500F5806090ED4E0A4A
:1032A000314880ED4C0A31484089401C81B22F489A
:1032B000418151E02C4832490968C0F8B4153049C1
:1032C0004968C0F8B01500F5806090ED6C0A26489A
:1032D00080EDCB0A00F5B66005F06EFD2448503055
:1032E00090ED060A204880EDE40A2048008A401C40
:1032F00081B21E4801822FE01B4821490968C0F8AD
:10330000DC151F494968C0F8D81500F5806090EDBC
:10331000760A154880EDFE0A00F5BB6005F04CFD0D
:103320001348783090ED060AA0F5F27080ED1A0A85
:103330000E48408A401C81B20C4841820CE00AE0F1
:1033400010480F49098801800848808C401C81B2D0
:103350000648818400E000BF00BF00BF08B010BD78
:10336000006400400000001064030020040C0020F2
:10337000C408002000000020040000200068004075
:1033800008000010BA09002070477047704770B5F8
:10339000044694F82000012822D1022084F820005D
:1033A0002068006820F001002168086000F0B4FC8B
:1033B00005460DE000F0B0FC401B0A2808D9606A01
:1033C00040F400306062052084F82000012070BDC8
:1033D0002068406800F001000028EBD16062F6E749
:1033E000606A40F4002060620120F0E77047704797
:1033F0007047704770477047704770B50446A56DB9
:1034000000F08AFC064694F83500022808D0802097
:10341000606500BF002084F8340000BF012070BD4B
:103420002068006820F01600216808602068406964
:1034300020F0800021684861206C08B9A06C28B198
:103440002068006820F00800216808602068006893
:1034500020F001002168086010E000F05DFC801B96
:1034600005280BD920206065032084F8350000BFB3
:10347000002084F8340000BF0320D0E720680068F3
:1034800000F001000028E8D194F85C103F2088404B
:10349000A860012084F8350000BF002084F83400C3
:1034A00000BF00BFBBE7014691F83500022803D0FA
:1034B0008020486501207047052081F835000868A4
:1034C000006820F001000A6810600020F3E70000A7
:1034D000F8B50446002000908C4800684FF416515F
:1034E000B0FBF1F7A56D2E6894F85C1008208840B9
:1034F000304098B12068006800F0040070B1206886
:10350000006820F004002168086094F85C1008202E
:103510008840A860606D40F00100606594F85C1020
:1035200001208840304068B12068406900F0800088
:1035300040B194F85C1001208840A860606D40F0B4
:103540000200606594F85C1004208840304068B147
:103550002068006800F0020040B194F85C1004207C
:103560008840A860606D40F00400606594F85C10CD
:1035700010208840304078B32068006800F00800D0
:1035800050B394F85C1010208840A8602068006850
:1035900000F4802080B12068006800F4002028B981
:1035A000206CC8B12046216C884715E0A06C98B10A
:1035B0002046A16C88470FE02068006800F4807006
:1035C00028B92068006820F0080021680860206C95
:1035D00010B12046216C884794F85C102020884068
:1035E0003040002865D02068006800F010000028F6
:1035F0005FD094F85C1020208840A86094F83500D3
:10360000052828D12068006820F01600216808608D
:103610002068406920F0800021684861206C08B96A
:10362000A06C28B12068006820F0080021680860BC
:1036300094F85C103F208840A860012084F8350091
:1036400000BF002084F8340000BF206D10B1204678
:10365000216D8847F8BD2068006800F4802080B1A3
:103660002068006800F4002028B9606C10B1204682
:10367000616C88471DE0E06BD8B12046E16B88475C
:1036800017E02068006800F4807068B9206800685E
:1036900020F0100021680860012084F8350000BF88
:1036A000002084F8340000BFE06B10B12046E16BCD
:1036B0008847606D38B3606D00F00100F0B10520FF
:1036C00084F835002068006820F001002168086057
:1036D00000BF0098401C0090B84200D905E0206867
:1036E000006800F001000028F3D100BF012084F839
:1036F000350000BF002084F8340000BFE06C10B13A
:103700002046E16C884700BFA4E70000B40B00200E
:103710002DE9F0410446002500F0FEFA074614B9F1
:103720000120BDE8F081606A00B100BF022084F88A
:10373000350000BF002084F8340000BF2068006816
:1037400020F00100216808600AE000F0E5FAC01BE3
:10375000052805D920206065032084F83500E0E7BE
:103760002068006800F001000028EED1206805689C
:1037700021480540D4E901010843E1680843216973
:10378000084361690843A1690843E1690843216A64
:1037900008430543606A042803D1D4E90B010843B8
:1037A0000543206805602068456925F00705606AC3
:1037B0000543606A04280DD1A06A0543E06A48B158
:1037C0002046FEF7F7FC28B140206065012084F810
:1037D0003500A6E7206845612046FEF7D1FC064685
:1037E00094F85C103F208840B060002060650120A4
:1037F00084F83500002094E73F8010F02DE9F04771
:1038000004460D4616461F464FF00008D4F858905F
:1038100000BF94F83400012802D10220BDE8F087EF
:10382000012084F8340000BF94F83500012825D128
:10383000022084F83500002060653B463246294668
:103840002046FEF70CFD94F85C103F208840C9F834
:1038500008002068006840F0160021680860206CAD
:1038600028B12068006840F00800216808602068DE
:10387000006840F001002168086006E000BF0020F9
:1038800084F8340000BF4FF002084046C6E700004D
:1038900010B50446204600F00BF800F080008028A8
:1038A00003D1024800680AF049F910BDCC0B002092
:1038B0000146D1F88C0070472DE9F041044620689C
:1038C000876B206800F580504569206800F58050BE
:1038D000C6693848D0F8008005F0400050B106F0C5
:1038E000400038B13449206800F5805041612046DD
:1038F00000F09CF805F0010058B106F0010040B15D
:103900004FF00111206800F580504161204600F021
:10391000C3F805F4004088B306F4004070B3D4F84F
:10392000880040F00800C4F8880005F40050A8B1F1
:10393000206800F58050406920490840C4F88C0098
:10394000206800F58050C06920F4C031206800F57F
:103950008050C161E020C4F884000CE0206800F5CC
:103960008050406948F280610840C4F88C002068AB
:1039700000F5805041612046FFF78AFF07F00800FC
:1039800058B12068C06A00F06000C4F89400204676
:1039900000F016F80020C4F8940008F4002030B1BC
:1039A0004FF4002003490860204600F07FF8BDE88E
:1039B000F0810000143C01404000010000207E0026
:1039C00070472DE9F04705460E4617469846286889
:1039D000046904F01C044FF4784000EAC620044354
:1039E0004FF4F86000EA8710044324F0020444F026
:1039F00001042868046100F08FF981460BE000F0B3
:103A00008BF9A0EB0900B0F5803F02D30120BDE89F
:103A1000F0872868046904F001000028EFD12868C5
:103A2000406980B2C8F800000020F0E710B50446F5
:103A3000024800680AF082F810BD0000CC0B00209C
:103A400070B506463068046924F01C0400F062FB7F
:103A500005460D48854202D244F0080411E00B48A7
:103A6000854202D244F00C040BE00948854200D2A2
:103A700007E00848854202D244F0040401E044F023
:103A800010043068046170BDC00E160200879303F5
:103A900000E1F50580D1F00810B504460248006841
:103AA0000AF04CF810BD0000D00B002070472DE943
:103AB000F04705460E46174698462868046904F004
:103AC0001C044FF4784000EAC62004434FF4F86029
:103AD00000EA8710044344F0020444F001041FFA92
:103AE00088F0296848612868046100F015F981466A
:103AF0000BE000F011F9A0EB0900B0F5803F02D314
:103B00000120BDE8F0872868046904F0010000285E
:103B1000EFD100BFF5E70000F8B502460B460025DF
:103B2000002400200021D6E0012606FA01F51E68D7
:103B300006EA0504AC4274D11E7906F00306012E94
:103B400004D01E7906F00306022E13D190684F00B0
:103B50000326BE40B0434F00DE68BE403043906055
:103B6000506801268E40B0431E79C6F300168E4081
:103B7000304350601E7906F00306032E09D0D0684A
:103B80004F000326BE40B0434F009E68BE40304306
:103B9000D0601E7906F00306022E13D1CF0802F181
:103BA000200656F827004E07F70E0F26BE40B043FA
:103BB0004F07FF0E1E69BE403043CF0802F12006BA
:103BC00046F8270010684F000326BE40B0431E7918
:103BD00006F003064F00BE40304310605E6806F4F6
:103BE0004036002E76D000BF002600963C4E366848
:103BF00046F480463A4F3E603E46366806F48046BC
:103C0000009600BF00BF374E8F0856F827008E077A
:103C1000370F0F26BE40B043334EB24202D10026CA
:103C200024E057E0314EB24201D101261EE0304E71
:103C3000B24201D1022619E02E4EB24201D1032632
:103C400014E02D4EB24201D104260FE02B4EB242B9
:103C500001D105260AE02A4EB24201D1062605E02E
:103C6000284EB24201D1072600E008268F073F0FF9
:103C7000BE4030431B4E8F0846F82700224E306866
:103C8000A0435E6806F4801606B120431E4E3060E5
:103C9000361D3068A0435E6806F4001606B1204366
:103CA000194E361D3060184E361F3068A0435E68CE
:103CB00006F4003606B12043134E361F3060361F1F
:103CC0003068A0435E6806F4803606B120430E4E8D
:103CD000083E3060491C1029FFF426AFF8BD0000F3
:103CE000443802400838014000000240000402400D
:103CF00000080240000C0240001002400014024084
:103D000000180240001C0240083C01400AB18161D9
:103D100001E00B04836170470148006870470000B0
:103D2000A80B0020034800680349097808440149AA
:103D300008607047A80B0020B00B002010B50D489C
:103D4000006840F400700B4908600846006840F4C1
:103D5000806008600846006840F4807008600320B6
:103D600000F0E0F80F2000F007F800F05FF8002006
:103D700010BD0000003C02402DE9F04188B004462F
:103D80000027B84600BF002001902348006840F09B
:103D90000400214908600846006800F00400019012
:103DA00000BF00BF02A903A800F092F9069F1FB947
:103DB00000F0B6F9054602E000F0B2F945001748F8
:103DC000B5FBF0F0A0F1010815481649086040F273
:103DD000E7311448C160C0F80480002101618160AE
:103DE000816100F043FF064696B90E4800F0ACFF33
:103DF00006466EB91E2000F043F8102C07D20022B0
:103E000021461E2000F050F80748046000E001261B
:103E1000304608B0BDE8F0814038024040420F0013
:103E20000008004084010010AC0B002008B500BF62
:103E3000002000901148006840F480400F4908605D
:103E40000846006800F48040009000BF00BF00BF3B
:103E500000200090081F006840F08050091F086093
:103E60000846006800F08050009000BF00BF0022AC
:103E70000F21901E00F018F808BD000044380240E1
:103E80000146084600280DDB00BF00BF00F01F03FD
:103E900001229A4043099B0003F1E023C3F800216B
:103EA00000BF00BF00BF70472DE9F05F80460D46A0
:103EB0001646002705F0AEFE074639462A46334629
:103EC00001F00700C0F1070ABAF1040F02D94FF060
:103ED000040A01E0C0F1070AD14600F1040ABAF170
:103EE000070F02D24FF0000A01E0A0F1030AD44606
:103EF0004FF0010A0AFA09FAAAF1010A0AEA020ACB
:103F00000AFA0CFA4FF0010B0BFA0CFBABF1010BA8
:103F10000BEA030B4AEA0B042146404605F082FEF9
:103F2000BDE8F09F00BF00F00702064B19684FF68E
:103F3000FF031940044B0B4343EA0221014B196074
:103F400000BF70470CED00E00000FA0570B50446B4
:103F50000D460CB9012070BD5848006800F00700FC
:103F6000A84209D255490D700846006800F00700C4
:103F7000A84201D00120EEE7207800F002000228DC
:103F80001DD1207800F00400042805D14C480068B9
:103F900040F4E0504A490860207800F00800082802
:103FA00005D14748006840F46040454908604448EE
:103FB000006820F0F000A1680843414908602078BB
:103FC00000F00100A8B36068012807D13C48083818
:103FD0000068C0F34040B8B90120BCE7606802281F
:103FE00002D06068032807D1354808380068C0F35C
:103FF000406048B90120AEE7314808380068C0F396
:10400000400008B90120A6E72D48006820F0030011
:10401000616808432A490860FFF77EFE064609E00A
:10402000FFF77AFE801B41F28831884202D90320D3
:1040300091E707E02248006800F00C006168B0EBEF
:10404000810FEDD11D48006800F00700A84209D992
:104050001A490D700846006800F00700A84201D018
:10406000012078E7207800F00400042807D11448E4
:10407000006820F4E050E1680843114908602078A6
:1040800000F00800082808D10D48006820F46040BE
:10409000216940EAC1000A49086000F061F8084956
:1040A0000968C1F30311074A515CC840064908601A
:1040B00006480068FFF760FE00204CE7003C024025
:1040C00008380240EC0A0108B40B0020AC0B0020B9
:1040D0000F2202600D4A126802F0030242600B4A8E
:1040E000126802F0F0028260084A126802F4E0529C
:1040F000C260064A126802F46042D2080261044AB1
:10410000126802F007020A60704700000838024097
:10411000003C02400148006870470000B40B0020DA
:1041200000B5FFF7F7FF04490968C1F38221034A8C
:10413000515CC84000BD000008380240FC0A01087C
:1041400000B5FFF7E7FF04490968C1F34231034AAC
:10415000515CC84000BD000008380240FC0A01085C
:104160002DE9F047002400250026A14625480068D7
:1041700000F00C0020B1042805D008283AD105E051
:10418000DFF8849039E0DFF8849036E01D48001FA6
:10419000006800F03F041B48001F006800F4800026
:1041A00078B11A481749091F0968C1F38811A0FBA3
:1041B00001700146224600233846FCF761F80546A7
:1041C0000EE011480F49091F0968C1F38811A0FBCF
:1041D00001700146224600233846FCF751F8054697
:1041E0000848001F0068C0F30140401C4600B5FBB2
:1041F000F6F902E0DFF8109000BF00BF4846BDE8C6
:10420000F0870000083802400024F40000127A0011
:10421000F8B504460CB90120F8BD207800F0010083
:10422000002874D0F948006800F00C0004280DD074
:10423000F648006800F00C00082813D1F348001F6E
:10424000006800F48000B0F5800F0BD1EF4808380B
:104250000068C0F34040002859D06068002856D15B
:104260000120D9E700BF6068B0F5803F08D1E7487A
:104270000838006840F48030E449083908601EE0DE
:104280006068B0F5A02F0DD1E0480838006840F410
:104290008020DE49083908600846006840F4803014
:1042A00008600CE0D9480838006820F48030D7490D
:1042B000083908600846006820F48020086000BFC4
:1042C000606890B1FFF728FD054606E0FFF724FD82
:1042D000401B642801D903209EE7CC4808380068B9
:1042E000C0F340400028F1D011E0FFF715FD05466E
:1042F00006E0FFF711FD401B642801D903208BE77E
:10430000C24808380068C0F340400028F1D1207846
:1043100000F0020002285FD1BC48006800F00C00E9
:1043200058B1BA48006800F00C0008281CD1B74802
:10433000001F006800F48000B0B9B4480838006875
:10434000C0F3400020B1E068012801D0012063E7FC
:10435000AE480838006820F0F800216940EAC10042
:10436000AA490839086037E0E06800B30120A8498D
:104370000860FFF7D1FC054606E0FFF7CDFC401BC7
:10438000022801D9032047E7A04808380068C0F395
:1043900040000028F1D09D480838006820F0F8005F
:1043A000216940EAC10099490839086014E00020F9
:1043B00097490860FFF7B0FC054606E0FFF7ACFC44
:1043C000401B022801D9032026E7904808380068DE
:1043D000C0F340000028F1D1207800F00800082840
:1043E0002CD16069A8B101208A490860FFF794FCCC
:1043F000054606E0FFF790FC401B022801D9032088
:104400000AE782486C300068C0F340000028F1D011
:1044100014E000207F490860FFF77EFC054606E0B7
:10442000FFF77AFC401B022801D90320F4E6774805
:104430006C300068C0F340000028F1D1207800F013
:104440000400042870D1002770483830006800F05C
:10445000805090B900BF002000906C483830006850
:1044600040F080506949383108600846006800F023
:104470008050009000BF00BF01276748006800F42B
:104480008070B0B96448006840F480706249086088
:10449000FFF742FC054606E0FFF73EFC401B022802
:1044A00001D90320B8E65C48006800F48070002859
:1044B000F2D000BFA068012808D1544868300068D5
:1044C00040F001005149683108601DE0A0680528EE
:1044D0000DD14E486830006840F004004B49683107
:1044E00008600846006840F0010008600CE047489A
:1044F0006830006820F001004449683108600846CF
:10450000006820F00400086000BFA068A8B1FFF7B1
:1045100003FC054609E0FFF7FFFB401B41F2883131
:10452000884202D9032077E626E0384868300068E0
:10453000C0F340000028EED013E0FFF7EDFB054686
:1045400008E0FFF7E9FB401B41F28831884201D9BE
:10455000032061E62D4868300068C0F34000002861
:10456000EFD1012F07D129483830006820F0805062
:1045700026493831086000BFA069002845D023488B
:10458000006800F00C0008285DD0A069022845D121
:1045900000201F490866FFF7BFFB054606E0FFF74E
:1045A000BBFB401B022801D9032035E61748083819
:1045B0000068C0F340600028F1D1D4E90701084346
:1045C000616A40EA81110122A06AC2EB500041EA0F
:1045D00000412C20005D41EA00600C49091F086081
:1045E00001200B490866FFF797FB054606E0FFF739
:1045F00093FB401B022801D903200DE6034808382D
:104600000068C0F340600028F1D049E0083802405B
:1046100000004742800E47420070004000202149C0
:104620000866FFF779FB054606E0FFF775FB401BC0
:10463000022801D90320EFE51B480068C0F3406061
:104640000028F2D12CE0A069012800D1E4E5164849
:10465000001D0668A069012820D006F48001E069E9
:1046600081421BD106F03F01206A814216D147F6F4
:10467000C0703040616AB0EB811F0FD106F4403149
:104680000122A06AC2EB5000B1EB004F06D106F048
:1046900070612C20005DB1EB006F01D00120BBE503
:1046A0000020B9E500004742003802407047000092
:1046B000F8B504462068466820688568C5F3801010
:1046C00048B905F0010030B1C6F3801018B120469A
:1046D000216C8847F8BDC5F3400030B1C6F3C01067
:1046E00018B12046616C8847F4E7C5F3401030B933
:1046F000C5F3801018B9C5F3002000287CD0C6F39C
:10470000401000287DD0C5F38010F0B194F851001E
:1047100003280ED0606D40F00400606500BF0020EB
:1047200000902068C068009020688068009000BFFA
:104730000BE000BF002000902068C0680090206857
:104740008068009000BF00BFC4E7C5F3401088B187
:10475000606D40F00100606500BF0020009020689F
:10476000806800902068006820F0400021680860A0
:1047700000BF00BFC5F3002058B1606D40F00800D5
:10478000606500BF0020009020688068009000BF36
:1047900000BF606D78B32068406820F0E0002168B9
:1047A0004860012084F8510006F00200022802D07F
:1047B00006F0010008B32068406820F0030021687B
:1047C0004860E06C50B11048E16C0865E06CFEF7A1
:1047D0006AFE18B1606D40F040006065A06C50B199
:1047E0000948A16C0865A06CFEF75DFE18B1606D0C
:1047F00040F04000606503E003E02046FFF756FF0D
:1048000068E700BF66E70000E586000810B50446CB
:104810000CB9012010BD606A38B96068B0F5827FBC
:1048200000D105E00021E16102E000212161616128
:104830000021A16294F8510028B9002084F85000AA
:10484000204600F047F8022084F8510020680068F4
:1048500020F0400021680860A08800F4827021895F
:1048600001F404410843A18901F400610843217C5B
:1048700001F002010843217D01F001010843218B71
:1048800001F400710843217F01F038010843202121
:10489000095D01F080010843218D01F400510843B6
:1048A000216808600421A06901EA104094F82410EE
:1048B00001F010010843216848602068C06920F4B5
:1048C00000602168C86100206065012084F8510003
:1048D00000209FE710B586B00446142101A8FBF71D
:1048E00027FD1F492068884238D100BF0020009072
:1048F0001C48006840F480401A4908600846006877
:1049000000F48040009000BF00BF00BF0020009076
:1049100014481038006840F002001249103908604D
:104920000846006800F00200009000BF00BF4FF48E
:104930006040019002200290002003900320049028
:104940000520059001A90848FFF7E6F80022052197
:104950002420FFF7A9FA2420FFF792FA06B010BD31
:104960000038004040380240000402402DE9FE4F6C
:1049700004460F4690461D460C9E01200190FFF70D
:10498000CBF9814694F851B060680290AA46BBF119
:10499000010F0BD00298B0F5827F04D1A06810B946
:1049A000BBF1040F02D00220BDE8FE8F1FB1B8F1A9
:1049B000000F00D00DB90120F6E700BF94F85000B9
:1049C000012801D10220EFE7012084F8500000BF48
:1049D00094F85100042802D0052084F851000020EA
:1049E0006065C4F83880E587A5872763E586A586D6
:1049F000206460642068006800F04000402805D012
:104A00002068006840F0400021680860E068B0F568
:104A1000006F52D1606810B1BAF1010F09D1206B5B
:104A200000882168C860206B801C2063E08E401ED7
:104A3000E0863BE02068806800F00200022810D188
:104A4000E08E70B1019801280BD1206B008821689D
:104A5000C860206B801C2063E08E401EE086002032
:104A600001902068806800F0010068B1E08F58B1C3
:104A70002068C068A16B0880A06B801CA063E08FD9
:104A8000401EE08701200190FFF746F9A0EB0900E6
:104A9000B0420BD3701C48B1012084F8510000BF14
:104AA000002084F8500000BF03207DE7E08E00283E
:104AB000C0D1E08F0028BDD152E0606810B1BAF1DA
:104AC000010F09D1206B007821680873206B401C0E
:104AD0002063E08E401EE0863CE02068806800F0A5
:104AE0000200022810D1E08E70B1019801280BD18C
:104AF000206B007821680873206B401C2063E08ED7
:104B0000401EE086002001902068806800F00100CF
:104B100068B1E08F58B12068C068A16B0870A06BC5
:104B2000401CA063E08F401EE08701200190FFF74A
:104B3000F3F8A0EB0900B04201D3701C00B94EB9E4
:104B4000012084F8510000BF002084F8500000BF0D
:104B5000032029E7E08E0028BFD1E08F0028BCD1D8
:104B60004A463146204603F0C7FD40B1202060652B
:104B700000BF002084F8500000BF012014E7A068A7
:104B800050B900BF002000902068C06800902068E5
:104B90008068009000BF00BF012084F8510000BF72
:104BA000002084F8500000BF606D08B10120FBE6D2
:104BB0000020F9E67047704730B502460B4600BF4B
:104BC00092F83C00012801D1022030BD012082F87A
:104BD0003C0000BF022082F83D0010684468106865
:104BE000816824F070041868044310684460184D0C
:104BF0001068A8421BD01068B0F1804F17D0154D37
:104C00001068A84213D0144D1068A8420FD0134D5D
:104C10001068A8420BD0124D1068A84207D0114D61
:104C20001068A84203D0104D1068A84205D121F0A9
:104C300080015868014310688160012082F83D00BE
:104C400000BF002082F83C0000BF00BFBDE70000AD
:104C5000000001400004004000080040000C00403B
:104C600000040140004001400018004010B5044617
:104C70000CB9012010BD94F83D0028B9002084F83B
:104C80003C00204600F026F8022084F83D00211D5B
:104C9000206804F00FF8012084F8460000BF84F873
:104CA0003E0001213F200155402001554120015582
:104CB00000BF00BF012084F842004320015544207A
:104CC00001554520015500BF012084F83D0000201A
:104CD000D0E7000038B5044618492068884218D14A
:104CE00000BF002000901648006840F010001449F2
:104CF00008600846006800F01000009000BF00BF88
:104D0000002205213620FFF7CFF83620FFF7B8F84C
:104D100013E00C49206888420FD100BF00200090AA
:104D20000748006840F02000054908600846006810
:104D300000F02000009000BF00BF38BD0010004010
:104D40004038024000140040014691F83D0001281F
:104D500001D001207047022081F83D000868C0683A
:104D600040F001000B68D8601A4B086898421BD0CD
:104D70000868B0F1804F17D0174B0868984213D0DD
:104D8000164B086898420FD0154B086898420BD014
:104D9000144B0868984207D0134B0868984203D018
:104DA000124B086898420CD10868806800F007022E
:104DB000062A0CD00868006840F001000B681860F3
:104DC00005E00868006840F001000B6818600020EA
:104DD000C0E700000000014000040040000800405F
:104DE000000C004000040140004001400018004059
:104DF000704770B504462068C5682068066906F0EB
:104E00000200022819D105F00200022815D1401F26
:104E100021680861012020772068806900F0030084
:104E200018B12046FFF7E4FF05E0204600F097F8B0
:104E3000204600F095F80020207706F004000428B2
:104E400019D105F00400042815D1C0432168086178
:104E5000022020772068806900F4407018B1204655
:104E6000FFF7C6FF05E0204600F079F8204600F085
:104E700077F80020207706F00800082819D105F0FF
:104E80000800082815D1C043216808610420207754
:104E90002068C06900F0030018B12046FFF7A8FFA2
:104EA00005E0204600F05BF8204600F059F80020AD
:104EB000207706F01000102819D105F010001028F6
:104EC00015D1C04321680861082020772068C06997
:104ED00000F4407018B12046FFF78AFF05E0204635
:104EE00000F03DF8204600F03BF80020207706F067
:104EF000010048B105F0010030B16FF001002168F8
:104F00000861204600F02EF806F08000802809D1C4
:104F100005F08000802805D1C04321680861204643
:104F2000FFF748FE06F04000402809D105F0400098
:104F3000402805D1C04321680861204600F01EF8D2
:104F400006F02000202809D105F02000202805D1F6
:104F5000C043216808612046FFF72DFE70BD7047F1
:104F60007047000010B5044603492068884201D10B
:104F7000FEF7D8FE10BD00000008004070477047E3
:104F800008B5014691F8410021280ED100BF00BFAD
:104F90000A68143252E8002F42F080000A68143286
:104FA00042E80003002BF3D100BF91F84200222811
:104FB00039D100BF002000900868006800900868A0
:104FC0004068009000BF00BF086970B100BF00BF1B
:104FD0000A680C3252E8002F42F480700A680C32E2
:104FE00042E80003002BF3D100BF00BF00BF0A68F6
:104FF000143252E8002F42F001000A68143242E8ED
:105000000003002BF3D100BF00BF00BF0A681432B9
:1050100052E8002F42F040000A68143242E80003D0
:10502000002BF3D100BF002008BD70B50446002559
:1050300020684069C0F3C01594F84100212817D1B9
:10504000B5B100BF00BF2168143151E8001F21F045
:1050500080002168143141E80002002AF3D100BF2A
:10506000A06B10B1A06BFEF7C8F9204604F05FF802
:1050700020684069C0F3801594F84200222817D1B7
:10508000B5B100BF00BF2168143151E8001F21F005
:1050900040002168143141E80002002AF3D100BF2A
:1050A000E06B10B1E06BFEF7A8F9204603F0F9FFC2
:1050B000002070BD704700002DE9F84F04462068BD
:1050C00005682068C668206847694FF00009CA462D
:1050D00005F00F09B9F1000F0AD105F0200038B131
:1050E00006F0200020B1204604F034F8BDE8F88F27
:1050F000B9F1000F7CD007F0010018B906F49070E8
:10510000002875D005F0010030B106F4807018B1A8
:10511000606C40F00100606405F0040030B107F0FD
:10512000010018B1606C40F00200606405F00200FC
:1051300030B107F0010018B1606C40F00400606409
:1051400005F0080048B106F0200010B907F0010092
:1051500018B1606C40F008006064606C002846D0B4
:1051600005F0200028B106F0200010B1204603F021
:10517000F1FF20684069C0F3801A606C00F00800FD
:1051800010B9BAF1000F2DD0204603F08AFF206835
:10519000406900F04000402820D100BF00BF2168D6
:1051A000143151E8001F21F040002168143141E81A
:1051B0000002002AF3D100BFE06B50B17748E16BE9
:1051C0000865E06BFEF76FF988B1E06B016D884709
:1051D0000DE02046FFF76EFF09E009E02046FFF7EB
:1051E00069FF04E02046FFF765FF002060647DE76B
:1051F000206B012878D105F01000002874D006F04B
:1052000010000028FAD000BF00200090206800683D
:10521000009020684068009000BF00BF206840698F
:1052200000F04000402860D1E06B006840681FFA41
:1052300080F8B8F1000F56D0A08D404553DDA4F89A
:105240002E80E06BC069B0F5807F43D000BF00BF07
:1052500021680C3151E8001F21F4807021680C3165
:1052600041E80002002AF3D100BF00BF00BF21685F
:10527000143151E8001F21F001002168143141E888
:105280000002002AF3D100BF00BF00BF2168143123
:1052900051E8001F21F040002168143141E800026C
:1052A000002AF3D100BF202084F8420000202063B0
:1052B00000BF00BF21680C3151E8001F21F0100031
:1052C00021680C3141E80002002AF3D100BFE06BF5
:1052D000FEF793F802206063A08DE28D801A81B200
:1052E0002046FFF74CFE01E742E0A08DE18D401A19
:1052F0001FFA80F8E08DD0B3B8F1000F37D000BFAF
:1053000000BF21680C3151E8001F21F49070216822
:105310000C3141E80002002AF3D100BF00BF00BFFA
:105320002168143151E8001F21F001002168143177
:1053300041E80002002AF3D100BF202084F8420097
:105340000020206300BF00BF21680C3151E8001F1E
:1053500021F0100021680C3141E80002002AF3D14D
:1053600000BF0220606341462046FFF708FEBDE60D
:1053700005F0800030B106F0800018B1204604F03E
:1053800001F9B3E605F0400030B106F0400018B175
:10539000204603F0BCFEA9E600BFA7E6018F000887
:1053A00010B504460CB9012010BDA06900B100E0A1
:1053B00000BF94F8410028B9002084F8400020463E
:1053C00000F02AF8242084F841002068C06820F406
:1053D00000502168C860204603F03AFF2068006949
:1053E00020F49040216808612068406920F02A007C
:1053F000216848612068C06840F400502168C86096
:1054000000206064202084F8410084F842000020DD
:10541000606300BFC8E7000010B586B004461421E1
:1054200001A8FAF785FFFE49206888424ED100BFE7
:1054300000200090FB48006840F40020F949086013
:105440000846006800F40020009000BF00BF00BFC5
:1054500000200090F3481038006840F00100F14946
:10546000103908600846006800F00100009000BF95
:1054700000BF00BF002000900846006840F0040014
:1054800008600846006800F00400009000BF00BFFC
:10549000012001900220029000200390032004903C
:1054A0000820059001A9E048FEF736FB4FF40060A4
:1054B0000190022002900020039003200490082015
:1054C000059001A9D948FEF727FB2BE2D8492068AF
:1054D00088427DD100BF00200090D248001D0068A6
:1054E00040F01000CF49091D08600846006800F030
:1054F0001000009000BF00BF00BF00200090C9480E
:105500001038006840F00100C649103908600846AC
:10551000006800F00100009000BF00BF4815019036
:1055200002200290012003900320049007200590A0
:1055300001A9BD48FEF7F0FA4FF480600190022007
:1055400002900390032004900720059001A9B6481B
:10555000FEF7E2FAB748B84908604FF000604860CB
:105560000021B5488160C1604FF480610161002174
:1055700041618161C16101624162FEF7C9F808B110
:10558000FCF7CEFE00BFAC48E063846300BFA948CF
:105590007830AA4908604FF0006048604021A74871
:1055A00081600021C1604FF480610161002141618F
:1055B0008161C16101624162FEF7AAF808B1FCF79E
:1055C000AFFE00BF9D48A063846300BF002200E0DF
:1055D00007E005212520FEF767FC2520FEF750FC9B
:1055E000A0E197492068884275D100BF0020009053
:1055F0008C48006840F400308A490860084600681A
:1056000000F40030009000BF00BF00BF00200090F9
:1056100084481038006840F008008249103908605A
:105620000846006800F00800009000BF00BF60203E
:105630000190022002900120039003200490072093
:10564000059001A97F48FEF767FA7F487F49086007
:105650004FF00060486000217C488160C1604FF4D9
:1056600080610161002141618161C161016241622A
:10567000FEF74EF808B1FCF753FE00BF7348E06335
:10568000846300BF70481830714908604FF00060B3
:10569000486040216E4881600021C1604FF4806104
:1056A0000161002141618161C16101624162FEF7D6
:1056B0002FF808B1FCF734FE00BF6548A06384638F
:1056C00000BF002205212620FEF7EEFB2620FEF774
:1056D000D7FB27E1FFE75F492068884277D100BF09
:1056E000002000904F48006840F480204D49086039
:1056F0000846006800F48020009000BF00BF00BF93
:105700000020009047481038006840F002004549EA
:10571000103908600846006800F00200009000BFE1
:1057200000BF4FF4406001900220029001200390DE
:10573000032004900720059001A94748FEF7ECF9E3
:1057400041486038454908604FF0006048600021DA
:1057500042488160C1604FF4806101610021416174
:105760008161C16101624162FDF7D2FF08B1FCF7BE
:10577000D7FD00BF3948E063846300BF324830384A
:10578000374908604FF0006048604021344881602C
:105790000021C1604FF4806101610021416181619C
:1057A000C16101624162FDF7B3FF08B1FCF7B8FDCA
:1057B00000BF2B48A063846300BF0022052127207F
:1057C000FEF772FB2720FEF75BFBABE0FFE7254906
:1057D00020688842F9D100BF002000901148001DC8
:1057E000006840F020000F49091D08600846006865
:1057F00000F02000009000BF00BF00BF002000901C
:1058000008481038006840F0040006491039086064
:105810000846006800F00400009000BF00BF23E0CD
:10582000004C0040403802400000024000080240A6
:1058300000100140406402403822002098220020DD
:1058400000440040000C024088600240F822002022
:10585000582300200048004000040240B8230020E4
:1058600018240020001401404020019002200290E2
:1058700001200390032004900820059001A92A48E4
:10588000FEF74AF980200190022002900390032045
:1058900004900820059001A92348FEF73DF923480C
:1058A0002349086080054860002121488160C1606B
:1058B0004FF480610161002141618161C161016238
:1058C0004162FDF725FF08B1FCF72AFD00BF18482B
:1058D000E063846300BF15487830164908604FF0D4
:1058E000206048604021134881600021C1604FF46E
:1058F00080610161002141618161C1610162416298
:10590000FDF706FF08B1FCF70BFD00BF0948A063D7
:10591000846300BF002205214720FEF7C5FA472017
:10592000FEF7AEFA06B010BD00080240286402403F
:1059300078240020D824002070B504460D46164671
:1059400094F8420020280BD105B10EB9012070BD9A
:105950000020206332462946204603F08FFDF6E7FB
:105960000220F4E770B504460D46164694F842004E
:1059700020280BD105B10EB9012070BD0020206395
:1059800032462946204603F0DDFDF6E70220F4E723
:1059900010B50446084884420CD1084800786628AF
:1059A00004D1064890F82D00992800D010BD044875
:1059B00004F0D6F800BFF9E760210020F81E0020AF
:1059C000A418002070470000F7B50446154694F867
:1059D0004100202836D1019800B10DB90120FEBD4B
:1059E00001982062A584E58400206064212084F869
:1059F00041001548A16BC8631448A16B08641448A2
:105A0000A16BC8640020A16B086501AE23681A1D54
:105A100031682B46A06BFDF7F1FE6FF04000216866
:105A2000086000BF00BF2168143151E8001F41F039
:105A300080002168143141E80002002AF3D100BF40
:105A40000020CCE70220CAE73D90000895900008AE
:105A5000158F00087047704700BFFEE790ED031AEE
:105A6000D0ED041AF7EE000A41EE210AB7EE001A53
:105A7000C1EE201AB0EE610AF7EE000A70EEC00A1D
:105A800090ED021A60EE810A90ED001A40EE010AD4
:105A9000C0ED010AD0ED010AC0ED000A7047000018
:105AA00010B50E480E4908600320486000210C48DC
:105AB0008160C1604FF4002101614FF440114161E8
:105AC0000021017641768176C17601774177FDF735
:105AD00095F908B1FCF724FC10BD000000640040FB
