:020000040800F2
:10000000B8560020290300089B300008FF2C000888
:10001000993000085F060008FD3800080000000065
:10002000000000000000000000000000690200085D
:10003000310B000800000000C5020008C1310008B3
:100040004303000843030008430300084303000878
:100050004303000843030008430300084303000868
:100060004303000843030008430300084303000858
:100070004303000843030008430300084303000848
:100080005D0A0008690A00084303000843030008EA
:10009000A1060008430300084303000843030008C7
:1000A0004303000843030008430300084303000818
:1000B00029330008430300084303000843030008F2
:1000C00043030008430300084303000843030008F8
:1000D000793100084303000855380008430300083D
:1000E00043030008430300084303000843030008D8
:1000F00043030008430300084303000843030008C8
:1001000043030008430300084303000843030008B7
:100110004303000843030008430300083533000885
:1001200043030008750A000843030008430300085E
:100130004303000843030008430300084303000887
:10014000F1060008430300084303000843030008C6
:1001500043030008810A00084303000861380008CF
:100160004303000843030008430300084303000857
:100170004303000843030008430300080000000095
:10018000430300084303000800F002F800F05CF8A5
:100190000AA090E8000C82448344AAF10107DA45E2
:1001A00001D100F051F8AFF2090EBAE80F0013F0D8
:1001B000010F18BFFB1A43F0010318473C4C000025
:1001C0005C4C00000A444FF0000C10F8013B13F0A7
:1001D000070408BF10F8014B1D1108BF10F8015BA0
:1001E000641E05D010F8016B641E01F8016BF9D193
:1001F00013F0080F1EBF10F8014BAD1C0C1B09D1EA
:100200006D1E58BF01F801CBFAD505E014F8016B5B
:1002100001F8016B6D1EF9D59142D6D370470000ED
:100220000023002400250026103A28BF78C1FBD8FF
:10023000520728BF30C148BF0B6070471FB504F09C
:1002400066FD1FBD10B510BD00F0BAF91146FFF7ED
:10025000F5FF03F0C1FB00F0D8F903B4FFF7F2FF9C
:1002600003BC00F0DBF900002C4B19680868B0E80B
:10027000F04F80F30988BFF36F8F4FF0000080F3D9
:10028000118870470000000008480068006880F38B
:1002900008884FF0000080F3148862B661B6BFF39F
:1002A0004F8FBFF36F8F00DF00BF00BF08ED00E08E
:1002B000DFF80C00016841F470010160704700BF75
:1002C00088ED00E0EFF30980BFF36F8F134B1A68DE
:1002D0001EF0100F08BF20ED108A20E9F04F1060CB
:1002E00009B44FF0500080F31188BFF34F8FBFF374
:1002F0006F8F03F043FF4FF0000080F3118809BCBB
:1003000019680868B0E8F04F1EF0100F08BFB0EC95
:10031000108A80F30988BFF36F8F70472C0000208C
:10032000EFF30580704700000948804709480047FF
:10033000FEE7FEE7FEE7FEE7FEE7FEE7FEE7FEE795
:10034000FEE7FEE704480549054A064B70470000F2
:100350008132000889010008B8500020B8560020FA
:10036000B8520020B852002053EA020C00F0698015
:100370002DE9F04B4FF00006002B1FBFB3FA83F5B9
:1003800003FA05F424FA05F65E4012BF1643B2FAEA
:1003900082F502FA05F4C5F120051EBF22FA05FC1C
:1003A00044EA0C04203556EA044C4FEA144418BFC2
:1003B000641C4FF000084FF00009904271EB030CF1
:1003C00039D3002919BFB1FA81F701FA07F6B0FA5B
:1003D00080F700FA07F6C7F120071EBF20FA07FCD6
:1003E00046EA0C062037B6FBF4FCA7EB0507103FE6
:1003F00007F01F0BCBF120060CFA0BFB2CFA06F6CC
:1004000044BFB3460026202FA4BF5E464FF0000B2A
:100410005BEA060C08BF4FF0010B19EB0B09ABFBB5
:10042000027C48EB0608C01B06FB02CC0BFB03CC8E
:1004300071EB0C01C1E70B46024641464846BDE858
:10044000F08B13B54FF000004FF00001AFF30080C8
:10045000BDE81C407047032A40F2308010F0030CC6
:1004600000F0158011F8013BBCF1020F624498BF07
:1004700011F801CB00F8013B38BF11F8013BA2F1A4
:10048000040298BF00F801CB38BF00F8013B11F01F
:10049000030300F02580083AC0F0088051F8043BBF
:1004A000083A51F804CBA0E80810F5E7121D5CBF2C
:1004B00051F8043B40F8043BAFF30080D20724BF5F
:1004C00011F8013B11F801CB48BF11F8012B24BFF3
:1004D00000F8013B00F801CB48BF00F8012B704742
:1004E00010B5203AC0F00B80B1E81850203AA0E8CF
:1004F0001850B1E81850A0E81850BFF4F5AF5FEA03
:10050000027C24BFB1E81850A0E8185044BF18C9B5
:1005100018C0BDE810405FEA827C24BF51F8043B5C
:1005200040F8043B08BF7047D20728BF31F8023BB0
:1005300048BF11F8012B28BF20F8023B48BF00F844
:10054000012B70474FF0000200B5134694469646C3
:10055000203922BFA0E80C50A0E80C50B1F12001D6
:10056000BFF4F7AF090728BFA0E80C5048BF0CC084
:100570005DF804EB890028BF40F8042B08BF7047E2
:1005800048BF20F8022B11F0804F18BF00F8012B54
:10059000704770477047704710B500F009F8006861
:1005A00010BD10B5044600F003F8046010BD000053
:1005B00000487047545000200048704754500020B5
:1005C0007546FFF7F9FFAE4605006946534620F031
:1005D0000700854618B020B5FFF7B4FEBDE82040FF
:1005E0004FF000064FF000074FF000084FF0000BEF
:1005F00021F00701AC46ACE8C009ACE8C009ACE8A2
:10060000C009ACE8C0098D46704710B50446AFF389
:1006100000802046BDE81040FFF71FBE01491820AA
:10062000ABBEFEE72600020070470268C0E9001278
:100630008A1A8260416901EBD173B2EB630F01DD6D
:10064000511A06E04B4203EBD373B2EB630F01DAAE
:1006500011448160D0E902211144C1607047FEE776
:1006600000B58BB000200121CDE9060147F6FE72EE
:100670000590CDE900200290039004900E20CDE972
:1006800008106946054800F0EBFA044800F06BFFDB
:100690000221024800F06AFA0BB000BDCC0D002028
:1006A000014800F0DEBB0000CC0D002000B58BB08F
:1006B0000E20059000200121CDE9060147F6FE72CB
:1006C000CDE900200290039004901C20CDE9081091
:1006D0006946064800F0C4FA044800F044FF0221CD
:1006E000024800F043FA0BB000BD0000F40D0020FA
:1006F000014800F0B6BB0000F40D00207CB5160ADE
:100700008DF800608DF801201A0ADDE906548DF895
:1007100002202A0A8DF804208DF80550220A8DF84F
:1007200006208DF803308DF8074089B208236A4609
:1007300000F02AF87CBD00007CB546F2A814A24265
:1007400001D9224605E046F2A814E24201DA49F650
:10075000586200EE102ADFED0B0A6C46B8EE400A34
:1007600004EB430389B220EE200ABCEEC00A10EE6F
:10077000102A150A03F8025D5A7008236A4600F031
:1007800003F87CBD9A99993E70B5104C064600203E
:100790002160A060C4E903031546012321463046C9
:1007A00000F0F6F900280FD002232A4621463046F1
:1007B00000F0EEF9002807D02A4621463046BDE871
:1007C0007040042300F0E4B970BD00003C4E0020EE
:1007D00010B504462DED088B90ED000AD0ED070A08
:1007E00070EE608AC0ED038A90ED050AD0ED010A33
:1007F00090ED04BA40EE208A2BEE008A60EE08AA43
:10080000B0EEE8AA1AEE100A04F010FAB2EE000AEE
:1008100041EC190B2BEE000A10EE100A04F006FA58
:1008200053EC192B03F04EFF28EE080A41EC190B8C
:1008300010EE100A04F0FAF953EC192B03F09AFEAB
:1008400041EC100B03F06BF851EC100B03F060FE61
:1008500000EE900AB4EEEAAAF1EE10FA0EDDB0EE68
:10086000680A02F097FC70EEC80AB6EE001A60EE55
:10087000200A94ED010A00EE810A07E094ED050AD2
:10088000C8EE800A94ED010A30EE800AF0EEC00A4C
:10089000F4EEC80AF1EE10FA08DD02F07BFCD4EDAC
:1008A000040AF1EE600A20EE200A05E0D4ED040A05
:1008B00060EEC00A80EE880AD4ED001A94ED061AA4
:1008C000D4ED010A41EE201AC4ED001A41EE000AEF
:1008D000C4ED010ABDEC088B10BDB4EEE00AF1EEE8
:1008E00010FA02D2B0EE600A7047B4EEC10AF1EE1F
:1008F00010FAF9DDB0EE410A704700007CB5D0ED8A
:100900000B0A0446C0ED3D0A90ED0A1A04F13406C4
:1009100080ED3C1A90F8040130B104F17C05012807
:1009200005D002280ED12AE094ED400A40E094ED73
:10093000400AF0EE410A284602F0B0FB94ED2A0A84
:1009400084ED0C0A94F8FC00C0B301285CD1D4F803
:10095000F8304102012B05D0022B03D0032B01D02C
:10096000042B51D194ED0C0A02B0BCEEC00ABDE8D4
:10097000704010EE100A82B23648FFF7DDBE94EDEB
:10098000400A04F1C40084ED380AFFF721FFD4EDDA
:100990003C0A94ED310A284602F080FB94ED2A0AC5
:1009A000D4ED320A9FED2C1A00EE810AD4ED3D0AF7
:1009B000304602F073FB94ED180AC1E7FFE7D4F864
:1009C000F820002040F2FF11072A1DD2DFE802F0D4
:1009D0001C040F1D281C34000090019094ED0C0A9B
:1009E0000023BDEEC00A10EE100A02B209E000902A
:1009F000019094ED0C0ABDEEC00A10EE100A03B28D
:100A000018E01448FFF77AFE7CBD94ED0C0A002331
:100A1000BDEEC00A10EE102A12B2CDE9002009E0A6
:100A200094ED0C0A0023BDEEC00A10EE102A12B29B
:100A3000CDE900020022E4E70090019094ED0C0A59
:100A4000002240F2FF21BDEEC00A10EE100A03B2F0
:100A5000D7E70000CC0D00209A99993E014800F09C
:100A60000FBE00004C0F0020014800F009BE00003E
:100A7000AC0F0020014800F003BE00000C10002065
:100A8000014800F0FDBD00006C1000200168182333
:100A9000CAB2103AB2FBF3F2054B6FF30901032A15
:100AA0009B5CC36500D9091D81650846704700003D
:100AB000B04D000810B5014600208B698A6A4FF0DE
:100AC000C07453B1B3F5005F15D072B1012A0CD0D8
:100AD000022A0AD0032A09D104E01AB1012A06D059
:100AE000022A03D1C96AC90100D5012010BDC96A13
:100AF000A142FAD010BD002AF7D0012AF2D0022A72
:100B0000F3D0032AF3D010BD30B50468256825F46E
:100B100080252560046863608368402B036803D0E8
:100B200099600068C26030BD9A600068C16030BDE5
:100B3000704772B6FEE7098849BA00EE101AB8EE9F
:100B4000400A80ED080A70478878020605D5064AF3
:100B5000C97842EA0020084301E0488840BA00EE24
:100B6000100AB8EEC00A70470000FFFF90F820207E
:100B7000012A07D0022A05D0416A41F4802141624E
:100B800001207047006842690A43426100207047B3
:100B9000F0B590F820500468A468012D05D0022D0E
:100BA00003D0416A41F4802157E014F0406F01D135
:100BB000E5004FD5C4F301640125A5401D608B6895
:100BC0004FF4C0759BB1CE6833434E6843EAC60309
:100BD000066805EB0417F3514FF4C273076803EB83
:100BE00004130E69FE50097D012905D009E00E8825
:100BF000CB6843EA4653EBE70168CE5846F480766B
:100C0000CE501179D379567941EA036193791B0467
:100C100043EA062319434FF4C676036806EB04162D
:100C200099511178D37841EA0361937852781B0483
:100C300043EA022211434FF4C473026803EB041326
:100C4000D150006805EB0411425842F001024250B5
:100C50000020F0BD416A41F4001141620120F0BD65
:100C600010B590F82020012A07D0022A05D0416A49
:100C700041F480214162012010BD3B48D0F80022A0
:100C800042F00102C0F80022D0F8002222F47C5287
:100C9000C0F80022D0F800224B6A42EA0322C0F8D2
:100CA00000220A7D02F01F0301229A40D0F81C3274
:100CB0009343C0F81C32CB69B3B9D0F80C329343DC
:100CC000C0F80C328C894B6864F31F434C6900EB0D
:100CD000C404C4F840320C890B6864F31F434C69A8
:100CE00000EBC404C4F84432CB69012B16D1D0F810
:100CF0000C321343C0F80C320C884B6864F31F436A
:100D00004C6900EBC404C4F840320C89CB6864F32E
:100D10001F434C6900EBC404C4F844328B69002BB8
:100D2000D0F804320ED01343C0F804320B69002B04
:100D3000D0F8143208D01343C0F81432096A0129DC
:100D400004D008E09343EFE79343F5E7D0F81C1293
:100D50001143C0F81C12D0F8001221F00101C0F8B4
:100D60000012002010BD000000640040704770B504
:100D700090F82040012C05D0022C03D0416A41F4A8
:100D8000802128E0046809B32469A40720D04FF427
:100D9000D874056804EB01142D5915F0040595600D
:100DA00005682D591AD0ED08556005682C5904F0D6
:100DB0000204D4604FF4DA74056804EB01142E5970
:100DC00006F00F06082E0CD308250DE0E468DCE7DA
:100DD000416A41F400114162012070BD6D0D156042
:100DE000E3E72D5905F00F05156105682D59C5F389
:100DF0000725956105682C59240C54614FF4DC7269
:100E0000046802EB0112A4581C700468A458240A58
:100E10005C700468A458240C9C700468A258120EDC
:100E2000DA704FF4DE72046802EB0112A4581C71F0
:100E30000468A458240A5C710468A458240C9C71AA
:100E40000468A258120EDA71006829B1016941F0F4
:100E500020010161002070BDC16841F02001C16026
:100E6000F8E72DE9F05F0546006800244669D0F8F0
:100E700004908768D0F80CB0D0F810A0D0F8188093
:100E8000F10748D0F90714D001218160B80703D5D4
:100E9000284600F094FB0CE0780702D54FF400647C
:100EA00007E0380702D54FF4805402E0284600F0EE
:100EB00085FBF80516D529684FF480708860B80561
:100EC00003D5284600F07DFB0CE0780502D544F4FC
:100ED000005407E0380502D544F4804402E0284677
:100EE00000F06EFBF80316D529684FF48030886057
:100EF000B80303D5284600F066FB0CE0780302D562
:100F000044F4004407E0380302D544F4803402E09E
:100F1000284600F057FB300707D55FEACB6004D5C1
:100F20002968102044F40074C86070074FF0080767
:100F300007D55FEA0B7004D52868C760284600F023
:100F40009BF9B00706D52868C068800702D02846FC
:100F500000F094F9700607D55FEACA6004D52968E5
:100F6000102044F480640861B00607D55FEA0A7077
:100F700004D528680761284600F0F2FAF00606D585
:100F800028680069800702D0284600F0EAFAB0031A
:100F900008D55FEAC96005D5296810204860284651
:100FA00000F0E0FAF00307D55FEA097004D528687D
:100FB0004760284600F008FB300446D55FEA4970D8
:100FC00040D5F00504D55FEAC87001D044F00104B3
:100FD000B00504D55FEA887001D544F002047005BD
:100FE00004D55FEA487001D544F00404300529D5E2
:100FF00018F0700F26D008F07000402815D006DCDD
:10100000102809D020280AD0302816D10AE050280C
:101010000ED0602811D10EE044F008040DE044F039
:1010200010040AE044F0200407E044F0400404E027
:1010300044F0800401E044F480742868816921F060
:1010400070018161296804204860002C05D0686A1D
:10105000204368622846FFF789FEBDE8F09F70B51F
:10106000040003D094F8200010B104E0012070BD0A
:10107000204600F081F82068016841F0010101601C
:1010800000F05EFD0546052604E000F059FD401B1A
:101090000A2811D820684068C007F6D02068016887
:1010A00021F00201016000F04BFD05460BE000F06D
:1010B00047FD401B0A2806D9606A40F40030606290
:1010C00084F82060D2E7206840688007EFD4207E53
:1010D0000128206801683DD021F080010160607E18
:1010E00001282068016838D021F040010160A07E0D
:1010F00001282068016833D021F020010160E07EE2
:101100000128206801682ED041F010010160207F85
:1011100001282068016829D021F008010160607F62
:1011200001282068016824D021F004010160D4E97D
:1011300002010843D4E90412114308436168491EBF
:1011400008432168C86100206062012084F8200003
:10115000002070BD41F08001C0E741F04001C5E7CB
:1011600041F02001CAE721F01001CFE741F008016A
:10117000D4E741F00401D9E72DE9F04387B00446F4
:1011800014216846FFF7DEF93749384ADFF8D48082
:101190000868D4F800C0354B022403250926DFF87F
:1011A000D09010320027401CC44523D1086001288C
:1011B00007D1106840F000701060106800F00070F7
:1011C0000590186840F0020018601868694600F041
:1011D000020005904FF440708DE89100CDE9035670
:1011E000484600F0BFFB00220521142000F046FD18
:1011F000142031E0DFF87C80C4452FD1D2F800C044
:101200004CF0806CC2F800C0D2F800C001280CF08D
:10121000806CCDF814C0086007D1106840F00070F1
:101220001060106800F000700590186840F002002F
:1012300018601868694600F00200059060208DE88B
:101240009100CDE90356484600F08CFB00220521B1
:10125000402000F013FD402000F002FD07B0BDE883
:10126000F083000000640040180000203038024085
:101270000004024000680040704700002DE9F04182
:1012800006460068A049A14D88B0884230D105F1DA
:1012900008036A4600213046FFF769FDDFF87082D7
:1012A0009C4C05F10800DFED9C0A9FED9C1A00990B
:1012B0009B4FA1F201210A291AD2DFE801F0051A99
:1012C00030465CDBDBDBDB9C0168964F00EE101ADE
:1012D00087ED0A0A406800EE100A8D4888ED020A80
:1012E00001F00EFD98ED010A87ED0B0A84ED010A6D
:1012F000C0E001688C4F00EE101A87ED0A0A4068C2
:1013000000EE100A824888ED070A143001F0F8FC5C
:1013100098ED060A87ED0B0A84ED130AAAE001682E
:10132000824F00EE101A87ED0A0A406800EE100A9C
:10133000774888ED0C0A283001F0E2FC98ED0B0AA2
:1013400087ED0B0A84ED370A94E00168784F00EED0
:10135000101A87ED0A0A406800EE100A6C4888ED02
:10136000110A3C3001F0CCFC98ED100A87ED0B0A15
:1013700084ED250A7EE06868401C68606D48A968B5
:10138000C0F80511E968C0F8091100F205110A4614
:10139000FFF7D1FB674C1146684684ED080AFFF75A
:1013A000D3FB84ED090A94ED080A2046BCEEC00A7E
:1013B00010EE101AFFF739F994ED030A94F8FD00C6
:1013C000B8EEC00A20EE200A60EE010A00EE100A14
:1013D000B8EE401A80EE810A00EE900AF8EE601A2C
:1013E00084ED0A0A94ED091AC1EE210AC4ED0B0A34
:1013F00087ED9D0A3EE02868401C28604E48A96899
:10140000C0F80511E968C0F8091100F205110A4693
:10141000FFF791FB484C1146684684ED080AFFF738
:1014200093FB84ED090A94ED080A2046BCEEC00A3D
:1014300010EE101AFFF7F9F894ED030A94F8FD0086
:10144000B8EEC00A20EE200A60EE010A00EE100A93
:10145000B8EE401A80EE810A00EE900AF8EE600ABB
:1014600084ED0A0A94ED091AC1EE201AC4ED0B1A94
:1014700087ED6F0A31493068884214D1234B6A46A0
:10148000103300213046FFF772FC0098B0F5047F5E
:101490000CD0A0F54070563805D129482969016063
:1014A00028486969016008B0BDE8F0811749102239
:1014B00010312548FEF7CFFF234B2449244A1888D2
:1014C0000880598811809A88224C00EE102A2280C8
:1014D000214CB8EE400A214ADB88238082ED000AC5
:1014E00000EE101AB8EE400A82ED010A00EE100A72
:1014F000B8EE400A82ED020A00EE103AB8EE400A59
:1015000082ED030ACFE70000006400405C0B00207E
:10151000F40600204C070020000000390000B4430E
:101520007008002094000020B4020020C4030020B2
:10153000A4010020E4050020D4040020006800403D
:101540004407002048070020044E0020560B0020CE
:10155000580B0020540B00205A0B0020104E002086
:1015600070477047704770B5044690F82000012816
:1015700004D0606A40F40020606217E0022084F822
:1015800020002068016821F00101016000F0D8FA14
:1015900005460DE000F0D4FA401B0A2808D9606A1D
:1015A00040F400306062052084F82000012070BD06
:1015B00020684068C007EDD1606270BD7047704719
:1015C000704770477047704770472DE9F0410446F7
:1015D000876D00F0B5FA054694F83500002602281C
:1015E00006D08020606584F834600120BDE8F08179
:1015F0002068016821F0160101602068416921F02E
:1016000080014161206C08B9A06C20B1206801689C
:1016100021F0080101602068016821F001010160EA
:101620000CE000F08DFA401B052807D920206065EA
:10163000032084F8350084F83460D7E72068006818
:10164000C007EED194F85C103F208840B8600120BC
:1016500084F8350084F834600020C7E790F835102E
:10166000022903D08021416501207047052180F8BF
:1016700035100068016821F0010101600020704709
:101680002DE9F84304464FF00009CDF80090634877
:101690004FF41651A56D0068B0FBF1F72E6894F871
:1016A0005C20082101FA02F030420FD02068026865
:1016B00052070BD5026822F00402026094F85C0025
:1016C0008140A960606D40F00100606594F85C1095
:1016D0004FF0010808FA01F0304208D0216849694A
:1016E000090604D5A860606D40F00200606594F8BA
:1016F0005C1004208840304208D0216809688907BE
:1017000004D5A860606D40F00400606594F85C103A
:1017100010208840304218D021680968090714D584
:10172000A86020680168490304D50068000308D553
:10173000A16C07E00168C90503D4016821F0080124
:101740000160216C09B12046884794F85C10202084
:101750008840304231D021680968C9062DD5A8607B
:1017600094F8350005282068016806D0490347D55C
:10177000006800031DD4616C1CE021F016010160BB
:101780002068416921F080014161206C08B9A06C9A
:1017900020B12068016821F00801016094F85C1014
:1017A0003F208840A86084F8358084F83490216D0B
:1017B0001FE0E16B09B120468847606D00282BD0FF
:1017C000606DC00714D0052084F8350020680168DA
:1017D00021F0010101600098401C0090B84203D83C
:1017E00020680068C007F6D184F8358084F834900A
:1017F000E16C002910D001B02046BDE8F043084755
:101800000168C905D5D4016821F01001016084F890
:10181000358084F83490CCE7BDE8F88328000020B8
:101820002DE9F041044600F08BF905465CB1022039
:1018300084F83500002684F834602068016821F0BF
:10184000010101600DE00120BDE8F08100F078F9B0
:10185000401B052805D920206065032084F8350049
:10186000F2E720680068C007F0D121680A682048C4
:101870000240D4E901031843D4E903352B4318434C
:1018800063691843A3691843E3691843236A18433B
:101890001043626A042A03D1D4E90B231A4310438C
:1018A000086020684069656A20F0070128460D43FA
:1018B000012704280CD1A06A0543E06A40B1204604
:1018C000FFF7F8F820B14020606584F83570BAE77A
:1018D000206845612046FFF7D9F894F85C203F2145
:1018E00091408160666584F835700020ACE70000A7
:1018F0003F8010F02DE9F0410446866D90F83400E9
:10190000002501280DD0012084F8340094F83570AA
:101910000020012F07D084F8340002252846BDE8B6
:10192000F0810220FBE7022784F8357060652046CD
:10193000FFF7EAF894F85C103F208840B060206818
:10194000016841F016010160206C20B12068016837
:1019500041F0080101602068016841F00101016067
:10196000DCE700002DE9F84FDFF89C910022A9F197
:10197000040B03274FF00F0C09F1040AABF1040E1E
:1019800001250B6895402B40AB426ED10C7904F0D9
:101990000304012C01D0022C15D18668540007FAEB
:1019A00004F826EA0806D1F80C8008FA04F848EA98
:1019B0000608C0F808804468AC430D79C5F30015EB
:1019C0009540254345600C79E443A40708D0C568D9
:1019D000540007FA04F6B5438E68A6402E43C6604D
:1019E0000C7904F00304022C11D1D40800EB840616
:1019F000356A5407E40E0CFA04F825EA0805D1F814
:101A0000108008FA04F848EA0508C6F8208005683E
:101A1000540007FA04F6B5430E7906F00306A64013
:101A20002E4306604C6814F4403F66D0374C25685E
:101A300045F480452560246822F0030504F48044C1
:101A40000094334C05EB0408D8F808589407260F87
:101A50000CFA06F4A5432F4CA04201D1002424E047
:101A60002D4CA04202D101241FE046E02B4CA042A5
:101A700001D1022419E02A4CA04201D1032414E030
:101A8000284CA04201D104240FE0274CA04201D1F0
:101A900005240AE0254CA04201D1062405E0244C8F
:101AA000A04201D1072400E00824B4402C43C8F828
:101AB0000848D9F800404D464E689C43F60200D5D0
:101AC0001C432C60DAF8004055464E689C43B60231
:101AD00000D51C432C60DBF800405D464E689C43FB
:101AE000B60300D51C432C60DEF8004075464E68F6
:101AF0009C43F60300D51C432C60521C102AFFF4B3
:101B00003FAFBDE8F88F0000083C01404438024078
:101B10000030014000000240000402400008024082
:101B2000000C024000100240001402400018024065
:101B3000001C02400AB1816170470904FBE7000004
:101B400001488068704700001C000020024881683E
:101B500002781144816070471C0000200B4810B5CA
:101B6000016841F400710160016841F48061016025
:101B7000016841F480710160032000F09FF80F209C
:101B800000F006F800F050F8002010BD003C0240C4
:101B900030B505461F4887B00024016841F0200198
:101BA0000160006806A900F020000590684600F07A
:101BB00031F90398A8B100F04DF940001649174AD1
:101BC000B0FBF1F11648491E026040F2E732C0E96D
:101BD0000324C0E90114846100F09EFC040003D0DA
:101BE00015E000F037F9E9E70D4800F0DFFC0400EC
:101BF0000DD1372000F034F8102D07D200222946ED
:101C0000372000F03BF80748056000E0012407B0EA
:101C1000204630BD4038024040420F0000140040D2
:101C2000CC100020200000200C4882B0016841F454
:101C300080410160006800F4804000900748001F68
:101C4000016841F0805101600068002200F080507E
:101C500000900F21901E02B000F010B844380240EE
:101C6000002809DB00F01F0201219140400980009B
:101C700000F1E020C0F8001170470000F0B40E4BF6
:101C80001B68C3F30223C3F10704042C00D9042406
:101C90001D1D072D01D2002300E0DB1E012606FAE0
:101CA00004F56D1E0D409D409E40761E164045EA8F
:101CB0000601F0BC01F023BE0CED00E0064A00F086
:101CC000070110684FF6FF03184040EA012003495E
:101CD00008431060704700000CED00E00000FA05BA
:101CE0002DE9F0470D46040065D0DFF81491D9F8CE
:101CF0000000EFB200F00700A84207D289F8007098
:101D0000D9F8000000F00700A84254D120683D4EE9
:101D1000810712D5400703D5306840F4E0503060A9
:101D20002078000703D5306840F4604030603068A8
:101D3000A16820F0F000084330602078C0072DD063
:101D4000304960680839012812D0022813D00328CE
:101D500011D00968890700292DDA316821F00301C3
:101D600001433160FFF7ECFE804641F2883A0EE015
:101D700009688903EFE709688901ECE7FFF7E0FEEE
:101D8000A0EB0801514502D90320BDE8F087306877
:101D9000616800F00C00B0EB810FEFD1D9F80010B2
:101DA000484601F00701A94207D90770006800F012
:101DB0000700A84201D00120E7E72078400705D5B9
:101DC0003068E16820F4E050084330602078000774
:101DD00006D53068216920F4604040EAC1003060D7
:101DE00000F058F83168084AC1F30311515CC8404B
:101DF0000649086006480068FFF7CAFE0020C4E7ED
:101E0000003C024008380240B84D0008280000207D
:101E1000200000200F2202600C4A136803F0030325
:101E20004360136803F0F0038360136803F4E05326
:101E3000C36012684FF4E05303EAD202026104481F
:101E4000006800F007000860704700000838024092
:101E5000003C02400448054900680968044AC1F38F
:101E60008221515CC8407047280000200838024099
:101E7000C84D00080448054900680968044AC1F3D0
:101E80004231515CC84070472800002008380240A9
:101E9000C84D0008154810B5006810F00C01144832
:101EA00013D0431004290FD008290ED10F4C241F42
:101EB000216801F03F022168490207D52068C0F37C
:101EC0008810A0FB030106E0184610BD2168C1F38D
:101ED0008811A1FB00010023FEF746FA2168C1F337
:101EE0000141491C4900B0FBF1F010BD0838024027
:101EF0000024F4002DE9F84F040075D02078DFF8B5
:101F000038A3C007AAF1040548D00AF1040001680B
:101F1000C1F38101012908D00068C0F381000228C3
:101F20000AD1DAF80000400206D52868800335D5CA
:101F300060680028E1D031E06068B0F5803F10D0E3
:101F4000B0F5A02F286810D020F4803028602868D1
:101F500020F4802028606068A0B1FFF7F1FD0646FC
:101F60000CE0286840F48030F4E740F480202860DA
:101F7000F7E7FFF7E5FD801B642871D82868800328
:101F8000F7D50BE0FFF7DCFD064604E0FFF7D8FDD0
:101F9000801B6428F1D828688003F7D42078DFF804
:101FA0009C9280074FF0000B3DD5A348001D0168AF
:101FB00011F00C0F08D00068C0F3810002280AD18C
:101FC000DAF80000400206D42868800715D5E068DA
:101FD000012809D111E0E068B8B10120C9F800007A
:101FE000FFF7AEFD064605E022E1FFF7A9FD801BE5
:101FF0000228C2D828688007F7D52868216920F010
:10200000F80040EAC10028600DE0C9F800B0FFF711
:1020100097FD064604E0FFF793FD801B02281FD8BA
:1020200028688007F7D42078000722D5824F84489B
:102030006169703771B101210160FFF781FD0646CA
:1020400004E0FFF77DFD801B022809D8386880076F
:10205000F7D50EE0C0F800B0FFF772FD064605E0C8
:1020600082E0FFF76DFD801B02287DD8386880076D
:10207000F7D42078400765D56F484FF000083C3012
:102080000068C0000BD46C483C30016841F08051BE
:10209000016000684FF0010800F080500090694F27
:1020A0003868C0050FD4386840F480703860FFF796
:1020B00047FD064604E0FFF743FD801B022853D886
:1020C0003868C005F7D55C4FA0686C3701280FD081
:1020D0000528386810D020F001003860386820F0FA
:1020E00004003860A068B0B1FFF72AFD06460EE094
:1020F000386840F00100F4E740F004003860F7E78A
:10210000FFF71EFD811B41F28830814263D8386899
:102110008007F5D50DE0FFF713FD064606E0FFF753
:102120000FFD811B41F28830814254D83868800706
:10213000F5D4B8F1000F05D03F483C30016821F0DC
:1021400080510160A069B8B33B49091D0968C1F31A
:102150008101022946D00228584606D0C9F86000FD
:10216000FFF7EEFC044639E035E04F46C9F8600061
:10217000FFF7E6FC064604E0FFF7E2FC801B0228BE
:1021800029D828688001F7D4D4E907010843A16A57
:102190002D4A490802EB0141626A41EA8211084373
:1021A00094F82C1040EA0161CAF80010012038664A
:1021B000FFF7C6FC044605E03CE0FFF7C1FC001B4E
:1021C000022808D828688001F7D533E0FFF7B8FC6B
:1021D000001B022802D90320BDE8F88F286880017F
:1021E000F4D427E00128F7D0DAF80000E26900F41F
:1021F000800191421CD1226A00F03F01914217D127
:1022000047F6C071626A0140B1EB821F10D1A26A29
:102210004FF0FF3300F4403103EB5202B1EB024FB9
:1022200006D194F82C1000F07060B0EB016F01D073
:102230000120D1E70020CFE70438024000004742E8
:10224000800E4742007000400000FFFF7047000012
:1022500038B5016804464A688868C043430606D515
:10226000C30704D1D3435B0601D4216C05E0830787
:1022700008D4D3431B0605D4616C01B02046BDE8E9
:1022800030400847830603D5430601D5C30551D422
:10229000D3439B064ED443060AD494F85130032B03
:1022A00049D0636D43F004036365CB688B6800938A
:1022B000830609D4636D43F0010363658B68009363
:1022C0000B6823F040030B60C00506D4606D40F03E
:1022D00008006065206880680090606D002829D043
:1022E0002068416821F0E0014160012084F851003C
:1022F000900701D4D00722D02068416821F0030163
:102300004160114DE06C40B10565E06CFFF7A6F946
:1023100018B1606D40F040006065A06C002809D0E5
:102320000565A06CFFF79AF9002803D0606D40F0B6
:102330004000606538BDC8688868009038BD204698
:10234000FFF784FF38BD00008531000870B5040038
:1023500009D0606A002540B125616561A56294F8E5
:10236000510040B10CE0012070BD6068B0F5827F83
:10237000F4D0E561F2E784F85050204600F044F8CC
:10238000022084F851002068016821F040010160BA
:10239000A088218900F4827001F404410843A189D6
:1023A00001F400610843217C01F002010843217D12
:1023B00001F001010843218B01F400710843217FE2
:1023C00001F03801084394F8201001F0800108431F
:1023D000218D01F40051084321680860A06904219F
:1023E00001EA104094F8241001F01001084321681C
:1023F00048602068C16921F40061C1616565012000
:1024000084F85100002070BD10B586B00446142138
:102410006846FEF797F818492068884229D117487E
:102420000021026842F480420260006800F48040AB
:10243000059012481038026842F0020202600068FB
:1024400000F0020005904FF4604000900220CDE9BA
:102450000101032003900520049069460848FFF716
:1024600081FA002205212420FFF708FC2420FFF731
:10247000F7FB06B010BD00000038004040380240B5
:10248000000402407047704770B590F83C20012A64
:1024900032D0012580F83C50022280F83D200268AD
:1024A0005368946823F070060B6833435360134BF2
:1024B00002689A4214D0B2F1804F11D0104B9A4268
:1024C0000ED0104B9A420BD00F4B9A4208D00F4BB4
:1024D0009A4205D00E4B9A4202D00E4B9A4204D13A
:1024E000496824F080031943916080F83D50002131
:1024F00080F83C10084670BD022070BD000001400D
:102500000004004000080040000C004000040140AE
:10251000004001400018004010B5040003D094F8BA
:102520003D0010B107E0012010BD002084F83C0000
:10253000204600F01FF8022084F83D00211D20688D
:1025400000F0FEFE012084F8460084F83E0084F886
:102550003F0084F8400084F8410084F8420084F889
:10256000430084F8440084F8450084F83D000020CE
:1025700010BD000008B50068B0F1804F12D10A48C4
:10258000016841F0010101600068002200F00100D3
:10259000009005211C20FFF771FBBDE808401C20BE
:1025A000FFF75EBB08BD00004038024090F83D10C8
:1025B000012901D001207047022180F83D100168F7
:1025C000CA6842F00102CA6000681149884214D00A
:1025D000B0F1804F11D00F4988420ED00E49884289
:1025E0000BD00E49884208D00D49884205D00D49CC
:1025F000884202D00C49884204D1816801F0070169
:10260000062903D0016841F00101016000207047F4
:10261000000001400004004000080040000C0040A1
:1026200000040140004001400018004070B504461D
:1026300090F83C000025012817D0012684F83C6062
:10264000022084F83D002068826822F0770222F49C
:102650007F4282600868502838D00DDC20284FD097
:1026600005DC90B3102811D14AE0022070BD30285B
:1026700046D040280AD13BE060282FD070280DD0EA
:10268000B0F5805F03D0B0F5005F12D0012584F86B
:102690003D60002084F83C00284670BDCB68D1E93D
:1026A0000121206800F0B4FE2068816841F07701C4
:1026B00009E0CB68D1E90121206800F0A9FE20687B
:1026C000816841F480418160E1E719E0CA684968A6
:1026D000206800F0AFFE5021206806E0CA68496813
:1026E000206800F0B8FE6021206800F09BFECEE775
:1026F000CA684968206800F09DFE40212068F4E720
:10270000226801461046F0E770472DE9F041044683
:102710000068C66805694FF00007A90713D5B1071F
:1027200011D5F91E0161012020772068806980079A
:10273000204602D0FFF7E8FF04E000F07EF82046D4
:1027400000F07CF82777680716D5700714D5216844
:102750006FF004000861022020772068806910F47F
:10276000407F204602D0FFF7CFFF04E000F065F87D
:10277000204600F063F82777280715D5300713D5D2
:1027800021686FF008000861042020772068C06984
:102790008007204602D0FFF7B7FF04E000F04DF8B5
:1027A000204600F04BF82777E80616D5F00614D53A
:1027B00021686FF010000861082020772068C06948
:1027C00010F4407F204602D0FFF79EFF04E000F0A7
:1027D00034F8204600F032F82777E80708D0F007F1
:1027E00006D021686FF001000861204600F028F84B
:1027F000280608D5300606D521686FF080000861EC
:102800002046FFF73FFE680608D5700606D521680A
:102810006FF040000861204600F01CF8A8060AD5B9
:10282000B00608D521686FF0200008612046BDE899
:10283000F041FFF728BEBDE8F08170477047000007
:1028400000680349884201D1FFF780B97047000052
:10285000001400407047704770470000F8B50168E9
:1028600004460868CA684B6910F00F0F4FF0000566
:1028700059D003F0010602F49077374365D0C107C1
:1028800005D0D10503D5616C41F0010161644107B8
:1028900005D5D90703D0616C41F00201616481075D
:1028A00005D5D90703D0616C41F0040161640107CB
:1028B00007D502F02001314303D0616C41F00801DB
:1028C0006164616C00293AD0800604D5900602D577
:1028D000204600F085FE20684069616CC0F38010DE
:1028E000090700D460B3204600F045FE2068406927
:1028F000400621D52068143050E8001F21F0400127
:1029000040E80012002AF5D1E06BA8B172490165D8
:10291000E06BFEF7A3FE002811D0E06B016D01B063
:10292000BDE8F040084783060FD593060DD5204635
:10293000BDE8F84000F054BE2046FFF78DFFF8BD1B
:102940002046FFF789FF6564F8BD266B2023012E22
:102950007ED1C6067CD5D6067AD508684868009030
:1029600048694FF0020640064DD5E26B106840689A
:102970004FF480770004000C3AD0A18D814237D902
:10298000E085D069B8422DD020680C3050E8001F97
:1029900021F4807140E80012002AF5D1206814303B
:1029A00050E8001F21F0010140E80012002AF5D193
:1029B0002068143050E8001F21F0400140E8001268
:1029C000002AF5D184F84230256320680C3050E8A5
:1029D000001F21F0100140E80012002AF5D1E06B41
:1029E000FEF7F3FD6663A08DE18D401A81B206E02B
:1029F000A18D8142A8D1D069B842A5D16663204695
:102A0000FFF729FFF8BDA08DE18D401A81B2E08D5E
:102A10000028F7D00029F5D020680C3050E8002FAE
:102A200022F4907240E80027002FF5D1206814307E
:102A300050E8002F22F0010240E80027002FF5D1D6
:102A400084F84230256320680C3050E8002F00E005
:102A500006E022F0100240E80023002BF3D1CDE77E
:102A600005062BD5150629D594F841002128C9D192
:102A7000A068B0F5805F01D12069B0B1206A411C27
:102A80002162216800784860E08C401E0004000C40
:102A9000E084B7D12068C16821F08001C16020685E
:102AA000C16841F04001C160F8BD206A0088C0F3F0
:102AB00008004860206A801C2062E5E74006F3D5E4
:102AC0005006F1D5CA68204622F04002CA6084F858
:102AD000413000F013F9F8BD7B34000870B50400F4
:102AE00004D094F84100002510B106E0012070BD2B
:102AF00084F84050204600F023F8242084F8410058
:102B00002068C16821F40051C160204600F0CAFD70
:102B10002068016921F4904101612068416921F038
:102B20002A0141612068C16841F40051C1606564B7
:102B3000202084F8410084F842006563002070BDC5
:102B40002DE9F04F87B0044614216846FDF7FAFCE2
:102B50005A49594E20680222032300250F154FF0D1
:102B6000400B4FF4807AB0424ED154481030066882
:102B700046F400360660006800F4003005900868EE
:102B800040F0080008600868694600F008000590F9
:102B900060208DE825000720CDE903304848FEF786
:102BA000E1FE494E47484FF000693060C6E90195A3
:102BB000C6E903577561C6E9065A3562D046304604
:102BC0007562FEF72DFE08B1FDF7B3FFE663B4634F
:102BD0003D4E3C4860361830C6E903577561C6E97A
:102BE00006583562756286E8010A3046FEF718FE1F
:102BF00008B1FDF79EFFA663002205212620B463DD
:102C0000FFF73CF8262051E0304EB04250D12B481F
:102C10001430066846F020060660006800F02000C8
:102C20000590086840F0040008600868694600F0F4
:102C300004000590C0208DE825000820CDE9033070
:102C40002348FEF78FFE204E2248C0364FF0206901
:102C50003060C6E90195C6E903577561C6E9065AB1
:102C6000B8463562574630467562FEF7D9FD08B161
:102C7000FDF75FFFE663B463174E1648C6E90358D5
:102C80007561C6E9065735627830756286E8010AD3
:102C90003046FEF7C5FD08B1FDF74BFFA6630022E5
:102CA00005214720B463FEF7E9FF4720FEF7D8FF70
:102CB00007B0BDE8F08F000000440040303802400B
:102CC000000C0240886002404C0F002000140140BC
:102CD00000080240286402406C10002090F8423046
:102CE000202B01D00220704721B11AB100230363C9
:102CF00000F05EBD01207047704770477047FEE7E7
:102D0000F7EE000A90ED030AD0ED041AB0EE601A57
:102D100000EE211A80EE810A90ED021A70EEC00AD0
:102D200060EE810A90ED001A40EE010AC0ED010A42
:102D3000C0ED000A70470000104810B50E49016050
:102D40000321416000214FF400228160C0E9031299
:102D50004FF4401242610176012242768276C276B9
:102D600001774277FEF77BF9002803D0BDE81040D9
:102D7000FDF7DFBE10BD000000640040CC0D002058
:102D8000104810B50E4901600321416000214FF445
:102D900000228160C0E903124FF4401242610176C3
:102DA000012242768276C27601774277FEF757F9A2
:102DB000002803D0BDE81040FDF7BBBE10BD0000E9
:102DC00000680040F40D0020194808B5016841F47E
:102DD00000110160016801F400110091016841F4E3
:102DE000800101600068002200F48000009005214D
:102DF0001020FEF743FF1020FEF732FF00220521CE
:102E00001120FEF73BFF1120FEF72AFF00220521CB
:102E10003920FEF733FF3920FEF722FF002205217B
:102E20004520FEF72BFFBDE808404520FEF718BF00
:102E30003038024010B5A4B01C221C496846FDF78A
:102E40004FFB0021684600F01BFE194C17491C225D
:102E500060601C3107A8FDF743FB002107A800F0C4
:102E60000FFE1249A0601C2238310EA8FDF738FB76
:102E700000210EA800F004FE0C49E0601C22543131
:102E800015A8FDF72DFB002115A800F0F9FD074955
:102E900020611C2270311CA8FDF722FB00211CA818
:102EA00000F0EEFD606124B010BD0000244D00086C
:102EB000000000202DE9F04387B014216846FDF79B
:102EC00041FB2B480024016841F0040101600168C6
:102ED00001F004010591016841F080010160016881
:102EE00001F080010591016841F002010160016873
:102EF00001F002010591016841F0080101600168DB
:102F000001F008010591016841F0010101600068CC
:102F1000012200F00100DFF85C80150305902946CE
:102F20004046FEF707FEDFF850902E110022314692
:102F30004846FEF7FFFD0095032701250397CDE9DD
:102F4000015469464046FEF70DFD03970096CDE912
:102F5000015469464846FEF705FD68028DE83100D8
:102F600069464846FEF7FEFC07B0BDE8F083000066
:102F70003038024000040240000C02400F4810B5F7
:102F80000D4901604FF48271416000218160C16090
:102F90004FF400720161C0E90512C1610162416232
:102FA00081620A21C162FFF7D1F9002803D0BDE890
:102FB0001040FDF7BEBD10BD003800401C0E0020C3
:102FC00010B586B00024174800940194029403942D
:102FD00004944FF08041059401605321C0E901142D
:102FE00040F2E731C0E9031480218161FFF794FAD0
:102FF00008B1FDF79EFD4FF48050009069460948E6
:10300000FFF714FB08B1FDF794FD049404A90548EB
:103010000594FFF739FA002801D0FDF78AFD06B0C4
:1030200010BD0000740E00200C4810B50A49016064
:103030004FF461214160002181600C22C160C0E930
:1030400004128161C161FFF749FD002803D0BDE88A
:103050001040FDF76EBD10BD00440040BC0E0020C6
:103060000C4810B50A4901604FF46121416000210C
:1030700081600C22C160C0E904128161C161FFF767
:103080002DFD002803D0BDE81040FDF752BD10BD56
:1030900000140140040F0020FEE7FEE700B580ECBD
:1030A000020A30EE600A80ED050AD0ED060AB0EEA5
:1030B000C00AB4EEE00AF1EE10FA03D29FED2D0A39
:1030C00080ED050A90ED071A90ED050AF1EE410A30
:1030D000FDF703FC80ED050A80ED080AD0ED090A32
:1030E00030EE800A80ED090A90ED0A1AF1EE410AED
:1030F000FDF7F3FB80ED090A90ED050AD0ED020A19
:1031000020EE200A80ED0F0A90ED0D1AF1EE410A33
:10311000FDF7E3FB80ED0F0A90ED080AD0ED050AFC
:1031200030EE600AD0ED040A20EE200A80ED110A8C
:1031300090ED0E1AF1EE410AFDF7CFFB80ED110A7A
:10314000D0ED090A90ED031A60EE810AC0ED100A75
:1031500090ED0F1A31EE000A30EE200A80ED0B0AD6
:1031600090ED0C1AF1EE410AFDF7B7FB80ED0B0A6A
:1031700000BD0000000000000148FFF769B8000032
:103180001C0E002010B5806B0021C187C186FFF79F
:103190005DF810BDB5EEC00AF1EE10FA01DD0120B8
:1031A00000E00020B5EEC00AF1EE10FA01D20121D4
:1031B00000E00021401A00EE100AB8EEC00A704785
:1031C00010B5502080F31188BFF34F8FBFF36F8F7E
:1031D00001F0D6F818B104494FF080500860002083
:1031E00080F3118810BD000004ED00E030B593B00D
:1031F00030216846FDF7A6F914210CA8FDF7A2F9C5
:103200001D480025016841F080510160006800F010
:10321000805011901948016841F4804101600068B4
:10322000022400F4804011900120009000040190DD
:103230008001CDE9064008AA0420A82182E81300F5
:103240000B906846FEF756FE08B172B6FEE70CA971
:103250000F2081E831004FF4A0500F904FF48050C0
:10326000109005210CA8FEF73BFD002801D072B696
:10327000FEE713B030BD000040380240007000404F
:103280000248016841F470010160704788ED00E078
:10329000012000F0E9FBFBE72DED048B41F28837BC
:1032A00040F6B8389FED138ADFED138A134E144CA5
:1032B000144D9FED159ADFED159A3068401C306073
:1032C000B84204DA84ED408AC5ED408A08E0A0F5F2
:1032D00098508838404503D884ED409AC5ED409A0F
:1032E0000748FDF70BFB0748FDF708FB012000F03E
:1032F000BBFBE2E78070074380D808C300000020D2
:10330000D4040020E405002040B8F74380275F4341
:10331000012000F0A9FBFBE7012000F0A5FBFBE783
:10332000012000F0A1FBFBE70148FFF7EEB9000028
:10333000740E00200148FFF7E8B90000CC1000200F
:10334000F0B50268274D284E284FDFF8A4C0294B5E
:103350004FF0804EA84209D0704507D0B04205D04A
:10336000B84203D0604501D0984203D122F07004E6
:103370004A682243A8421BD0704519D0B04217D0EA
:10338000B84215D0604513D0984211D01A4CA042D3
:103390000ED01A4CA0420BD0194CA04208D0194CA8
:1033A000A04205D0184CA04202D0184CA04203D134
:1033B00022F44074CA6822434C6922F080022243FE
:1033C0008C68C4620C688462A84201D0984201D122
:1033D00009690163016841F0040101600121416153
:1033E0000260F0BD00000140000400400008004001
:1033F000000C004000040140004001400044014036
:103400000048014000180040001C0040002000401F
:1034100010B5846842EA032224F47F440A4322431D
:10342000826010BD826822F070020A4342F00701F8
:103430008160704710B5046A036A23F001030362D8
:10344000836923F0F00343EA021324F00A020A43DB
:103450008361026210BD10B5036A046A24F010048F
:103460000462846923F0A00324F4704444EA023225
:1034700043EA01118261016210BD10B5806B002129
:10348000C185FFF7E9F910BD70B5846B206840690C
:1034900094F84110C0F3C0100025212904D118B1BF
:1034A000E584204600F08EF82068406994F84210C8
:1034B000C0F38010222904D118B1E585204600F020
:1034C0005AF8606C40F0100060642046FFF7C4F9C1
:1034D00070BD10B50146806B096809684FF00003A4
:1034E000C9052ED4C38501680C3151E8002F22F4A0
:1034F000807241E80024002CF5D10168143151E8B4
:10350000002F22F0010241E80024002CF5D10168CF
:10351000143151E8002F22F0400241E80024002C31
:10352000F5D1202180F84210016B012909D10168F1
:103530000C3151E8002F22F0100241E80024002C49
:10354000F5D14363016B012902D0FFF7D5FB10BD14
:10355000818DFFF780F910BD10B5806B01214163AB
:10356000016B012902D0FFF7C8FB10BD818D49080E
:10357000FFF771F910BD01680C3151E8002F22F4FA
:10358000907241E80023002BF5D10168143151E815
:10359000002F22F0010241E80023002BF5D1016B3E
:1035A000012909D101680C3151E8002F22F01002E5
:1035B00041E80023002BF5D1202180F842100021A2
:1035C0000163704701680C3151E8002F22F0C002FE
:1035D00041E80023002BF5D1202180F841107047ED
:1035E00008B590F84210222901D0022008BD816858
:1035F0004FF48053994201D1026922B1826A994203
:103600001BD049B10AE00268816A5268C2F308021D
:103610000A80816A891C08E0016971B10168496802
:1036200001F07F011170816A491C8162C18D491EC0
:103630000904090CC18503D01BE001684968F1E762
:103640000168CA6822F02002CA600168CA6822F4D0
:103650008072CA6001684A6922F001024A61202131
:1036600080F8421000214163026B012A03D0FFF76A
:1036700043FB002008BD016301680C3151E8002FB5
:1036800022F0100241E80023002BF5D101680A68FE
:10369000D20602D50A6849680091818DFFF7DBF8F0
:1036A000E7E7000070B5044600680169E26821F4AC
:1036B000405111430161A1682069E26901436069D9
:1036C000104301432068C26849F20C639A430A43DD
:1036D000C26020684169A26921F4407111434161CF
:1036E00031492068884202D03049884202D1FEF731
:1036F000C1FB01E0FEF7AEFBE2690023192164255E
:103700003226B2F5004F626828D0A0FB0101930F6A
:103710009200FCF729FE0146B0FBF5F06FF01802AD
:10372000504301EB800006EB0010B0FBF5F000F019
:10373000F002B1FBF5F002EB0012B1FBF5F06FF017
:103740001803584301EB800006EB0010B0FBF5F0C6
:1037500000F00F0021681044886070BDA0FB0101DB
:1037600092185B41FCF700FE0146B0FBF5F0020148
:10377000B1FBF5F06FF01803584301EB800006EB46
:10378000C000B0FBF5F000F0F80002EB4002B1FB26
:10379000F5F0584301EB800006EBC000B0FBF5F0FC
:1037A00000F00700D6E700000010014000140140BF
:1037B00037B582B01346039A82620446838500209F
:1037C0006064222184F84210E56B1F49E963E56BD0
:1037D0001E492964E56B1E49E964E16B08652168AF
:1037E000E06B091DFEF786F838B1102060642020D8
:1037F00084F84200012005B030BD206801684068AF
:103800000090206948B120680C3050E8001F41F456
:10381000807140E80012002AF5D12068143050E889
:10382000001F41F0010140E80012002AF5D1206894
:10383000143050E8001F41F0400140E80012002A17
:10384000F5D10020D7E70000D3340008593500082F
:10385000893400080148FFF701B80000BC0E0020C1
:1038600078B4214B18680168C90639D5016800226F
:1038700040680090D86B0068016821F00101016088
:10388000186841680068D86B01684968174CC1F531
:10389000007189B22180164C6254164C01684FF4B5
:1038A0006062A14202D913494C3904E0124CA14292
:1038B00003D9104950390A6008E00F4D0E4C603DA5
:1038C000B83CA94201D9E26000E0A26000684FF470
:1038D00000714160D86B0068016841F0010101602E
:1038E00078BC0148FEF7BABF040F0020740B00201B
:1038F000544E002058640240B8600240FEE70907B9
:10390000090E002804DB00F1E02080F80014704765
:1039100000F00F0000F1E02080F8141D704700B5A2
:103920002DED048BB0EE409AF0EE609A83B051EC2E
:10393000190B00F0C5FF41EC180B18EE100A18EE39
:10394000901A8DED008B002818BF0120084320F04D
:103950000040C0F17F6000F1E040C00F14D019EECC
:10396000101A19EE900A8DED009B002918BF012155
:10397000084320F00040C0F17F6000F1E040C00F3C
:1039800004BF0120FCF70DFEB0EE480A03B0F0EED4
:10399000680ABDEC048B00BD10B50648FCF760FE5C
:1039A0000448FDF7E0FDBDE8104002210148FDF7A5
:1039B000DDB80000CC0D002010B50648FCF776FEFF
:1039C0000448FDF7D0FDBDE8104002210148FDF795
:1039D000CDB80000F40D002008B5FEF7BFF8FFF7E2
:1039E00005FCFFF767FAFFF7EFF9FFF7A5F9FFF717
:1039F000C7F9FFF7C3FAFFF717FBFFF731FBFFF734
:103A0000DFFA134C2068C16821F40051C1602068BE
:103A100041680168406800904FF400720D492046EB
:103A2000FFF75CF92068C16841F01001C1602068AF
:103A3000C16841F40051C1600748FEF7B7FDFFF7C8
:103A4000ABFFFFF7B9FFFFF7F5F900F014F8FEE759
:103A5000040F0020544E0020740E00200146002068
:103A6000842900D0C81C704710B500B9012000F0AF
:103A700021FB002010BD10B500F042FB002010BD5E
:103A80007FB50D4604464169B0F9080081B1A169CE
:103A900071B1FFF7E3FFD4E905128DE80700D4E91F
:103AA00000102B46226900F03EFC039004B070BD6C
:103AB000FFF7D4FF03A9CDE90001208A2B4682B28B
:103AC000D4E9001000F002FC012801D00020EDE74D
:103AD0000398EBE72DE9F041184E0F460446F568D0
:103AE0003068001D00F01EFA38B9306890F82C10CC
:103AF00001208840316981433161601C07D137B1B1
:103B00003168BDE8F0410E48091D00F04FBA306839
:103B10002C44AC424460316805D2B06BBDE8F04142
:103B2000091D00F02BBA706B091D00F027FAB06A6E
:103B3000844200D2B462BDE8F08100002C00002075
:103B4000F01100202DE9F041054600F03BFA2E4E21
:103B5000B068401CB06030682C4F10B1706940B341
:103B60002DE03560B068012829D1002404EB8400E1
:103B700007EB800000F0F4F9641C072CF6D323480F
:103B80008C3000F0EDF92148A03000F0E9F91F4831
:103B9000B43000F0E5F91D48C83000F0E1F91B48E9
:103BA000DC3000F0DDF919488C3070631430B063FC
:103BB00005E03068E96AC06A884200D83560706AFA
:103BC0000121401C7062E86A326981401143316111
:103BD00000EB800007EB8000291D00F0E7F900F002
:103BE00011FA706900280CD03068E96AC06A88420E
:103BF00007D207494FF080500860BFF34F8FBFF3E3
:103C00006F8FBDE8F08100002C000020141100200F
:103C100004ED00E010B5044690F8510058B10128B9
:103C20000CD002280FD0502080F31188BFF34F8FA3
:103C3000BFF36F8FFEE7206B00F0F8F92046BDE878
:103C4000104000F0F3B910BD10484FF47051420716
:103C500006D0C01D0D4920F00700411AC1F5705172
:103C60000B4A00230144C2E900030839183A21F045
:103C7000070111604B600B600B1AC0E900139360E1
:103C80004FF0004053605061704700000412002064
:103C900080000020134E144DA6F1C8074FF0805845
:103CA000DFF8489011E000F08DF9F068C468201D3D
:103CB00000F038F9A868401EA8606868401E686077
:103CC00000F0A0F92046FFF7A5FF68680028EAD1B8
:103CD00038680128F9D9C9F80080BFF34F8FBFF3C6
:103CE0006F8FF2E7DC1100202C00002004ED00E0D3
:103CF0002DE9F0479A46DDE9098481466FF0030318
:103D0000206B03EB82021044089D20F00706700729
:103D100007D0502080F31188BFF34F8FBFF36F8F10
:103D2000FEE7002761B1002023180A5C83F83420E5
:103D30000A5C12B1401C1028F6D384F8437001E0ED
:103D400084F83470072D00D30625E562C4E91157C5
:103D5000201D00F010F904F1180000F00CF92461A6
:103D6000C5F107006462A061E76484F850705246B0
:103D70004946304600F0C0F82060B8F1000F01D08D
:103D8000C8F80040BDE8F08730B5114900E01146A1
:103D90000A688242FBD34B685C18844203D14068B6
:103DA00018444860084643681C18944209D1084CDE
:103DB000183C2468A24209D052681A4442600A683A
:103DC00012680260814200D0086030BD0460F9E7EB
:103DD000800000200648416B096829B1416BC96821
:103DE000C9684968816270474FF0FF31FAE7000007
:103DF0002C00002008484068401C4FF0500080F321
:103E0000118804D0BFF34F8FBFF36F8FFEE7BFF36E
:103E10004F8FBFF36F8FFEE7880000202DE9F04140
:103E20000546002600F0A2F9324F386808B9FFF7BE
:103E30000BFF786905424ED1C5B3083568070ED02F
:103E400005F00700C0F108000544680707D05020BE
:103E500080F31188BFF34F8FBFF36F8FFEE72DB351
:103E60007868854237D8234918310846046801E04C
:103E7000214604466068A84202D220680028F7D193
:103E80003868844227D00E68206808606068083669
:103E9000411B10290FD96019420708D0502080F328
:103EA0001188BFF34F8FBFF36F8FFEE713E04160C0
:103EB0006560FFF769FF61687868401A7860BA68E2
:103EC000904200D2B860786901430020C4E9000143
:103ED000F868401CF86000F0B9FA700707D050206D
:103EE00080F31188BFF34F8FBFF36F8FFEE730462B
:103EF000BDE8F0816800002010B5031F4FF080740A
:103F00001C601B1F21F001011960191F044B0B607D
:103F100014390A60091F6FF0020244380A6010BDAC
:103F2000F53D0008D0E9013201699A60D0E901232A
:103F30005A604A68824201D182684A600022026166
:103F40000868401E0860086870470000034B036063
:103F500003F154000860802010607047780B002047
:103F600000F108014FF0FF32C0E90112C1600161A8
:103F700000210160704700210161704730B50C6875
:103F8000621C02D000F1080202E0026904E01A4655
:103F900053681D68A542FAD953684B6099608A60DE
:103FA000516008610168491C016030BD42684A6087
:103FB00093688B6093685960916008610168491C3F
:103FC00001607047502080F31188BFF34F8FBFF31B
:103FD0006F8F0A494868401C486001280CD1084886
:103FE000006810F0FF0F07D0502080F31188BFF356
:103FF0004F8FBFF36F8FFEE77047000088000020EF
:1040000004ED00E00849486828B1401E486001D12D
:1040100080F311887047502080F31188BFF34F8FD1
:10402000BFF36F8FFEE700008800002070B5002806
:104030002AD0164DA0F1080460686969084207D1CA
:10404000502080F31188BFF34F8FBFF36F8FFEE7CF
:1040500022683AB1502080F31188BFF34F8FBFF32D
:104060006F8FFEE78843606000F080F860686968E1
:10407000084468602046FFF787FE2869401C2861D5
:10408000BDE8704000F0E2B970BD0000680000209B
:104090004FF0E02000210161816105494FF47A72FF
:1040A0000968B1FBF2F1491E4161072101617047C6
:1040B0002800002010B5020014D00F48006B38B162
:1040C000502080F31188BFF34F8FBFF36F8FFEE74F
:1040D00000F04CF800211046FFF7FCFC00F0B6F9A8
:1040E000002807D105494FF080500860BFF34F8F7B
:1040F000BFF36F8F10BD00002C00002004ED00E026
:1041000010B586B00024039405AA04A903A804945A
:10411000FFF71CFFDDE903010094CDE90110002346
:104120000EA11048059A00F0FEF80F490028C86259
:1041300011D0502080F31188BFF34F8FBFF36F8FE2
:104140004FF0FF30886201204861CC6006B0BDE8C6
:10415000104000F041B806B010BD000049444C4585
:1041600000000000953C00082C0000200248016B74
:10417000491C0163704700002C000020144A106B9A
:1041800010B10120D06170470020D0611069114941
:10419000B0FA80F0C0F11F0000EB800051F8203031
:1041A0006BB101EB800000F1080341684968416090
:1041B000994201D149684160C86810607047502039
:1041C00080F31188BFF34F8FBFF36F8FFEE70000BE
:1041D0002C000020141100201CB537480168374A14
:1041E000914207D1502080F31188BFF34F8FBFF366
:1041F0006F8FFEE700683149491E884207D1502081
:1042000080F31188BFF34F8FBFF36F8FFEE72C4908
:1042100008780190FF20087008788DF800009DF85C
:1042200000009DF8002000F0F000904207D05020E0
:1042300080F31188BFF34F8FBFF36F8FFEE79DF8B8
:104240000000204C00F0500020700720A06006E025
:10425000401EA0609DF8000040008DF800009DF811
:1042600000000006A068F3D4032807D0502080F394
:104270001188BFF34F8FBFF36F8FFEE74FF440708D
:10428000A060019808700C482030016841F470016A
:104290000160016841F070410160FFF7F9FE002004
:1042A0006060FCF705F80848016841F04041016092
:1042B000FBF7EAFF00201CBD00ED00E071C20F41DA
:1042C00000E400E08800002034EF00E02DE9FF5F0B
:1042D0008346DDE90E87994616468A469000FFF729
:1042E0009DFD05001CD05420FFF798FD040014D05C
:1042F0000020256384F85100CDE90240CDE9008714
:104300004B46324651465846FFF7F2FC2046FFF72F
:1043100019FC012004B0BDE8F09F2846FFF786FE97
:104320004FF0FF30F6E7F0B585B00546DDE90B0448
:104330000A9EA8B1E4B1542700972063022084F8B4
:1043400051000020CDE9024004AF2846CDE90067C6
:10435000FFF7CEFC2046FFF7F5FB049805B0F0BD53
:10436000502080F31188BFF34F8FBFF36F8FFEE7AC
:10437000502080F31188BFF34F8FBFF36F8FFEE79C
:104380002DE9F0412F4F0026386B28B1B869401C49
:10439000B8613046BDE8F081FD686D1CFD6013D149
:1043A000786B006838B1502080F31188BFF34F8FCD
:1043B000BFF36F8FFEE7786BB96B7963B863386AC8
:1043C000401C3862FFF706FDB86ADFF87C80854242
:1043D00009D3786B0068A0B1786BC068C468606866
:1043E000854211D2B8623868C06A00EB800158F883
:1043F0002100012800D90126F8690028C9D001262A
:10440000C7E74FF0FF30EDE7201DFFF78BFDA06AF7
:1044100018B104F11800FFF785FDE06A01213A693F
:1044200081401143396100EB800108EB8100211DBF
:10443000FFF7BCFDE06A3968C96A8842C9D3012622
:10444000C7E700002C000020141100202DE9F047E0
:104450002C4D00242746286B38B1FFF7B3FD286B9D
:10446000401E2863286B40B146E0502080F311883D
:10447000BFF34F8FBFF36F8FFEE7A8682249012675
:10448000D0B3A1F1B4098846D8F80010E9B1D8F842
:104490000C00C46804F11800FFF744FD201DFFF76D
:1044A00041FDE06A2A6906FA00F11143296100EB37
:1044B000800109EB8100211DFFF778FDE06A296882
:1044C000C96A8842E0D3EE61DEE70CB1FFF782FCF7
:1044D000AC693CB1FFF754FF00B1EE61641EF9D145
:1044E0000020A861E86938B1084901273807086049
:1044F000BFF34F8FBFF36F8FFFF784FD3846BDE8E2
:10450000F08700002C000020C811002004ED00E01E
:1045100021F00042A2F16052B2F5801F01F0004389
:1045200028BFD2F17F6C0BD95FEA001C43EAC202BC
:1045300042EB507018BF704728BF20F00100704751
:10454000B2F5801FBCBF184670474FEA410C1CF5FE
:10455000001F02D2084600F0DFBB70B500F05CF926
:1045600000000089FFF7F6BF4FF00040A0F5800083
:104570007047000010B591EA030F48BF83F0004375
:1045800000F17282841A71EB030C05D2121943EB0D
:104590000C03001B61EB0C01DFF824E14FEA11541E
:1045A000A4EB135C1EEA430F18BF9EEA445F73D06E
:1045B00023EA0E03DCF1200E21EA045143F48013B8
:1045C00032D322FA0CFE10EB0E0023FA0CFE41EB64
:1045D0000E01CCF1200E03FA0EFE10EB0E0051F18D
:1045E0000001B1F5801FCCF1200E32D201EB045155
:1045F00012FA0EF2BDE8104058BF7047401C38BF99
:104600005FEA420218BF7047002814BF20F0010083
:1046100041F100014FEA410313F5001F38BF704715
:10462000A1F1C04100F046B9012A43EB0302ACF10D
:10463000200CDCF11F0E32BF4FF0000E23FA0CF3FA
:1046400010EB030041EB0451B4EB115FD0D0A1EBB0
:10465000045101F5801149085FEA300001EB045173
:104660000ED350F1000038BF12FA0EFE08D1BDE89B
:104670001040C9E7401C38BF5FEA4202CAD1C3E715
:10468000BDE810404FEA410313F5001F38BF7047E3
:10469000A1F1C04100F00EB99EEA445F08D011EAD2
:1046A0005E0FBDE8104004BF01F0004100207047DC
:1046B000BDE8104070B500F0AFF800BF64FBBE3E2F
:1046C0000000E0FFDFF848C170B51CEA111E1EBFF4
:1046D0001CEA13159EEA0C0F95EA0C0F00F06F8090
:1046E00081EA030423EA4C134EEAD47E21EA4C11FA
:1046F00041F4801143F48013AE44A1FB024CA0FBB3
:104700000365AEF17F7E361955EB0C05A1FB034C1A
:104710004CF10003A0FB021C16EB0C06654153F1A3
:104720000003094218BF46F0010613F4007F0BD1C5
:104730004FEA03314FEA0530340341EA155140EAAC
:1047400016506FF003020AE04FEAC3214FEAC5207A
:10475000F40241EA555140EA56506FF0020202EB72
:104760002E4201EB025585EACE710AD05FEA440C75
:1047700018BF24F0004450F1000041F1000120EA8C
:10478000D47040F2FE7C624500D270BDA84214BFD6
:104790004FF080444FF04044002E08BF0024BEF18B
:1047A000806FA8BFA1F1C041BDE8704080F2828057
:1047B0004FF0000001F1C04101F0004170479EEA56
:1047C0000C0F0CEA131518BF95EA0C0F06D04FF02A
:1047D000000081EA030E0EF0004170BD00F01CF8ED
:1047E0008900013E00F007B800F009B84FEA430C19
:1047F0005FEA5C5C08D081EA030100F05BB84FEA35
:10480000410C5FEA5C5CF6D14FF000000149704753
:104810000000FF070000F87F0EF1020E2EF0030EDD
:104820005EF8046B364205D4012A43EB030515F507
:10483000001F12D8012841EB010C1CF5001F0CD8F9
:104840000ED14FEAD17C15F5001F0CEB4C0C0CF18E
:10485000020C08BF4CEBD37C04E04FF0080C01E0E5
:104860004FEAD37C0CEB4C0526FA05F606F007065A
:10487000B6F1040C06D20EEB860CBDE870404CF08D
:10488000010C6047DFE80CF0090B02024FF0004119
:104890004FF00000A1F5002170BD19461046012817
:1048A00051EB010418BFD4F5001484BF002001F0BF
:1048B000004170BD0808A0F500114FEA31017047B2
:1048C0002DE9F04101F5801CBCF5001FC0F2A98064
:1048D0004FEA115C21EA0C510CF1FD0C41F48011FE
:1048E0005FEA5C0C0CF5C07C01D34000494130A468
:1048F000890241EA905187028E0E0A0CA45D04FBE6
:1049000004F602FB06F6C6F14046A4FB0662F60D6D
:1049100046EA422606FB06F4A4FB01235242C3F1F9
:10492000404338BF5B1EA6FB02420024E6FB032483
:10493000D20B42EA4446A6FB0623A1FB02E2A3FBFC
:1049400007E4E3FB61426442C2F1404E38BFAEF17E
:10495000010EA6FB04234FF00002E6FB0E32A2FB81
:1049600003463400E2FB6264A1FB06E6A4FB07E811
:10497000E4FB61687642C8F1405838BFA8F10108ED
:10498000A2FB06E4A3FB08E5E2FB6854A1FB05E6F5
:10499000A7FB04E8E1FB648618F1200556F1000648
:1049A000A809A8F11B08B10908F03F08B8F10A0FDF
:1049B00040EA86601CD901EB0C51BDE8F08100BFD4
:1049C000FCF5EEE8E2DDD8D3CFCBC7C3C0BDB9B6A6
:1049D000B4B1AEACA9A7A5A3A19F9D9B9A989695AB
:1049E0009392908F8D8C8B89888786858483828132
:1049F000A0FB006800FB01F208EB4208B8EB872837
:104A000007D5341858EB0104D5D5401C51F10001ED
:104A1000D1E7341A78EB0104CDD4401E71F10001C6
:104A2000C9E75FEA4C0C5FEA9C5C0DD105D34FF0FF
:104A3000000001F00041BDE8F081BDE8F04170B533
:104A4000FFF7EAFE6DDBFFBEBDE8F0414FF000006E
:104A5000004970470000F87F10B591EA030F48BF86
:104A600083F000433FF58EAD841A71EB030C07D23F
:104A700012198CF0004C43EB0C03001B61EB0C0192
:104A8000DFF8A4E14FEA1154A4EB135C1EEA430FD4
:104A900018BF9EEA445F00F0B08023EA6E035242E2
:104AA00021EA0451C3EB6E0338BF5B1EDCF1200E1C
:104AB00025D322FA0CFE10EB0E0043FA0CFE41EB5C
:104AC0000E01CCF1200E03FA0EFE10EB0E0051F198
:104AD0000001CCF1200E29D412FA0EF201EB0451A0
:104AE000BDE8104058BF7047401C1CBFB2F1004FDA
:104AF000704700280CBF491C20F00100704712EBE2
:104B0000020E43EB030218BF4FF0010E4EEA4202C1
:104B1000ACF1200CDCF11E0E54D943FA0CFE10EB64
:104B20000E0051F1FF31CCF11E0ED5D50EF1010E64
:104B300012FA0EFE404141EB010101EB445C5FEAD9
:104B40005C5C10D910EBDE7001EB045138BFBEF194
:104B5000004FBDE8104018BF704700280CBF491C2B
:104B600020F00100704730D24FEAD42C11F500112B
:104B700024F400641BD0B1FA81F20B3AA41AA41EEB
:104B8000D2F12003914030FA03F31943904001EB36
:104B9000CC71002C01EB0451BDE81040A8BF704758
:104BA00001F1C0414FF0000001F000417047B0FA40
:104BB00080F310FA03F100D110BDE41A173C480548
:104BC000C90AE4E701EB045110BD491001EB04519F
:104BD000BDE810404FEA300002E04FF0000170479E
:104BE0004A0008BF0042F8D0B2F5001F28BF704746
:104BF00001F000414FF0000070479EEA445F07D08B
:104C000011EA5E0FBDE8104004BF0021002070478C
:104C1000BDE8104070B5FFF7FFFD00BF40DFF63E76
:104C200083F00041104670470000E0FF43004FEA68
:104C3000D30C4FEA3C0C43401FBF40070CF16051BE
:104C400013F0FE4F70471CF0006F03D100200CF0F2
:104C5000004170470CF0004343EA507010B540EA41
:104C6000CC0000F00EF800BF000000924FEA0001F7
:104C7000FFF720BE4FF000414FF00000A1F50021EA
:104C800070470EF1020E2EF0030E5EF8044B244224
:104C900004D44FEA4102B2F17F4F11D84FEA4003EA
:104CA000B3F17F4F0CD80ED14FEAD07CB2F17F4FD9
:104CB0000CEB4C0C0CF1020C08BF4CEBD17C04E06B
:104CC0004FF0080C01E04FEAD17C0CEB4C0324FAC6
:104CD00003F404F00704B4F1040C06D20EEB840CC8
:104CE000BDE810404CF0010C6047DFE80CF007080D
:104CF00002024FF00040A0F5800010BD08464200BF
:104D000018BFD2F1807288BF00F0004010BD4FF094
:104D10004070E1EE100A7047FF2141EAD050C00513
:104D200070470000D04D00089132000800000000DC
:104D300000000000800000000000000000000000F3
:104D4000D84D000899320008000000000000000063
:104D5000800000000000000000000000E04D00089E
:104D60001133000801000000000000008000000076
:104D70000000000000000000E84D000819330008A2
:104D800000000000000000008000000000000000A3
:104D900000000000F04D0008213300080000000072
:104DA0000000000080000000000000000000000083
:104DB000000610160006101600000000000000009B
:104DC00001020304060708090000000001020304B1
:104DD0005461736B310000005461736B320000004A
:104DE0005461736B330000005461736B3400000036
:104DF0005461736B35000000184E0008000000205D
:104E0000780B0000C4010008B44F0008780B0020A4
:104E1000404B000020020008011C32018210036197
:104E200024F41AAA01011902282023FA434BA040B6
:104E300004414B803F1479204A441723BB451A7A1A
:104E40000C290401865A0104012502282029FC4B63
:104E5000A0400439F94A3F1479204A441723BB453E
:104E60001A7A0C290401863202022801022820291C
:104E7000FC4BA0400439F94A3F1479204A441723D7
:104E8000BB451A7A0C290401863203022801022844
:104E90002029FC4BA0400439F94A3F1479204A44A8
:104EA0001723BB451A7A0C29040186320402280113
:104EB0000228202796439A991940632A4323803F6A
:104EC0005AFA0C317C409C4608690401156348423B
:104ED0005A8C08E9485A1C388BFA4404011B000C10
:104EE00018B88847CDCC4C3D6F12833A4206620118
:104EF00002200202282027B443CDCC2C405A70BC9B
:104F0000E9C84A9CC8290869040115638C425ABE45
:104F100008E9485A1C388BFA4404011B000C18B8E5
:104F20008847CDCC4C3D6F12833A7A010521021996
:104F3000020B10484244093A1441277A433333B3F1
:104F40003E3A20EC25CDCCCC3D8A96EC1153FA4567
:104F50004C304046F80916EC1BAF43E419480B3CB3
:104F6000A040480E41C3436666E6905A48900A3D09
:104F70004848411A024C29401139DC310A133F4C90
:104F80000B1D803B4C1B20419419481A80406948F6
:104F90008A3E484B803B48395C1A16043AC8BC012B
:104FA00019196C2D6F12833A0409FDB809FDB8096F
:044FB0003EB8011EE8
:040000050800018965
:00000001FF
