:020000040800F2
:1000000078900124A1030008B76F0008B3660008C8
:10001000B56F0008B7050008317E00080000000039
:10002000000000000000000000000000E1020008E5
:10003000B1080008000000003D03000895720008A8
:10004000BF030008BF030008BF030008BF03000888
:10005000BF030008BF030008BF030008BF03000878
:10006000BF030008BF030008BF030008CD05000858
:10007000D9050008E5050008F1050008FD050008A0
:100080000906000815060008BF030008E51000086F
:10009000F1100008BF030008BF030008BF030008F9
:1000A000BF030008BF030008BF030008BF03000828
:1000B0002D740008BF030008BF030008BF03000839
:1000C000BF030008BF030008BF030008BF03000808
:1000D000BF030008017E00080D7E0008197E00089D
:1000E000BF030008BF03000800000000BF030008B2
:1000F000BF030008BF030008BF0300082106000873
:10010000BF030008BF030008BF030008BF030008C7
:10011000DD750008BF03000885740008BF030008F0
:100120002D0600083906000845060008510600089B
:10013000BF03000859090008BF030008BF030008F7
:1001400000000000000000000000000000000000AF
:10015000BF030008BF030008BF030008257E000896
:10016000BF030008BF030008BF030008BF03000867
:10017000BF030008BF030008BF0300080000000021
:10018000BF030008BF030008E9750008BF030008AB
:10019000BF030008BF030008BF030008BF03000837
:1001A000BF030008BF030008BF03000800000000F1
:1001B000BF030008BF030008BF030008BF03000817
:1001C000BF030008BF03000800000000000000009B
:1001D0000000000000000000BF0300080000000055
:1001E000000000000000000000000000000000000F
:1001F0000000000000000000BF030008BF0300086B
:10020000BF030008BF03000800000000BF03000890
:10021000BF030008BF030008BF030008BF030008B6
:10022000BF03000800000000BF030008000000003A
:10023000BF030008BF03000800000000BF03000860
:10024000BF030008BF030008BF030008BF03000886
:10025000BF030008BF030008BF030008BF03000876
:10026000BF030008BF030008BF030008BF03000866
:10027000BF030008BF030008BF0300080000000020
:10028000BF030008BF030008BF030008BF03000846
:1002900000000000BF030008BF03000800000000CA
:1002A00000000000BF030008BF030008BF030008F0
:1002B000BF030008BF030008BF030008FD100008CB
:1002C000BF030008BF030008BF030008DFF80CD01D
:1002D00000F034F900480047C1A8000878900124D4
:1002E0002C4B19680868B0E8F04F80F30988BFF319
:1002F0006F8F4FF0000080F31188704700000000FE
:1003000008480068006880F308884FF0000080F318
:10031000148862B661B6BFF34F8FBFF36F8F00DFF3
:1003200000BF00BF08ED00E0DFF80C00016841F4F9
:1003300070010160704700BF88ED00E0EFF30980B5
:10034000BFF36F8F134B1A681EF0100F08BF20ED1C
:10035000108A20E9F04F106009B44FF0500080F38C
:100360001188BFF34F8FBFF36F8F13F09FFC4FF0D7
:10037000000080F3118809BC19680868B0E8F04FE4
:100380001EF0100F08BFB0EC108A80F30988BFF38D
:100390006F8F704738630024EFF3058070470000CB
:1003A000074880470748804707480047FEE7FEE7C1
:1003B000FEE7FEE7FEE7FEE7FEE7FEE7FEE7FEE715
:1003C000C910000855730008CD0200082DE9F05F40
:1003D0000546002092469B468846064681464024B4
:1003E0001BE0284641464746224600F097F8534610
:1003F0005A46C01A914110D311461846224600F0C1
:100400007EF82D1A67EB01084F4622460120002195
:1004100000F075F817EB00094E41201EA4F101040D
:10042000DFDC484631462A464346BDE8F09F0000DF
:100430000649074A0868504343F2390210440860ED
:10044000400870470149086070470000A06300241D
:100450006D4EC64110B5431A934209D283188818CD
:1004600003E010F8011D03F8011D521EF9D210BD62
:1004700040EA01039B0703D009E008C9121F08C026
:10048000042AFAD203E011F8013B00F8013B521EA6
:10049000F9D210BDD2B201E000F8012B491EFBD207
:1004A00070470022F6E710B513460A46044619467F
:1004B000FFF7F0FF204610BD30B50446002003468C
:1004C00000E05B1C934203D2E05CCD5C401BF8D0A3
:1004D00030BD30B50B46014600202022012409E042
:1004E00021FA02F59D4205D303FA02F5491B04FAED
:1004F00002F52844151EA2F10102F1DC30BD202ACC
:1005000004DB203A00FA02F1002070479140C2F16A
:10051000200320FA03F3194390407047202A04DB9C
:10052000203A21FA02F00021704721FA02F3D0406C
:10053000C2F120029140084319467047064C074D0E
:1005400006E0E06840F0010394E8070098471034A3
:10055000AC42F6D3FFF7BEFE3C4E01085C4E0108EC
:1005600070B58C1810F8015B15F0070301D110F875
:10057000013B2A1106D110F8012B03E010F8016BA2
:1005800001F8016B5B1EF9D12B0705D40023521E25
:100590000DD401F8013BFAE710F8013BCB1A921C8D
:1005A00003E013F8015B01F8015B521EF9D5A1428B
:1005B000D8D3002070BDFEE710B507F047FD07F067
:1005C00079FDBDE8104007F0A9BD0000014801F029
:1005D00089B90000806D0024014801F083B9000052
:1005E000F86D0024014801F07DB90000706E002410
:1005F000014801F077B90000E86E0024014801F0DD
:1006000071B90000606F0024014801F06BB900006F
:10061000D86F0024014801F065B900005070002433
:10062000014801F05FB90000C8700024014801F0E2
:1006300059B90000A06B0024014801F053B9000033
:10064000186C0024014801F04DB90000906C0024A2
:10065000014801F047B90000086D002410B52C4A8C
:10066000016891423AD02A4A1832914236D0284A3B
:100670003032914232D0264A483291422ED0244A1A
:10068000603291422AD0224A7832914226D0204AC2
:100690009032914222D01E4AA83291421ED01D4A69
:1006A00091421BD01B4A1832914217D0194A30325E
:1006B000914213D0174A483291420FD0154A603206
:1006C00091420BD0134A7832914207D0114A9032AE
:1006D000914203D00F4AA832914214D1CAB2103AC3
:1006E0001823B2FBF3F20C4C02F00703E35CC36582
:1006F000032A04D96FF30901091D816506E06FF330
:100700000901816502E021F0FF018165806D10BD66
:100710001000024010040240004B010810B50168AF
:100720000123224CCAB2A1421BD0204C1434A14256
:1007300017D01E4C2834A14213D01C4C3C34A1428B
:100740000FD01A4C5034A1420BD0184C6434A14243
:1007500007D0164C7834A14203D0144C8C34A142FB
:100760000FD1083A1421B2FBF1F1114A02EB8102D8
:1007700002660F4A8032426601F01F018B40836699
:1007800010BD103A1824B2FBF4F20A4C2144A829F7
:1007900000D80832084901EB820101660649803120
:1007A000416602F01F018B40836610BD0854025859
:1007B00000580258F0FBFDBF000802400279521EAB
:1007C000072A31D8194B016899421BD0174B1433B3
:1007D000994217D0154B2833994213D0134B3C3311
:1007E00099420FD0114B503399420BD00F4B6433C9
:1007F000994207D00D4B7833994203D00B4B8C3381
:10080000994207D10A4901EB8201C166084940318A
:10081000016706E0074901EB8201C16605494031E5
:100820000167012191404167704700000854025858
:100830000059025800090240014610B500208B699A
:100840004FF0C0748A6A002B0ED0B3F5005F1AD047
:1008500062B3012A2AD0022A28D0032A03D1C96A06
:10086000C90100D5012010BD1AB1012A06D0022A03
:10087000F9D1C96AC901F6D5012010BDC96AA142E2
:10088000FBD1012010BD52B1012A0AD0022A06D0A4
:10089000032AF7D1C96AA142F4D1012010BD012079
:1008A00010BDC96AC901FBD5012010BD012010BDD2
:1008B000704710B500220023016902EB420401EBEE
:1008C000C4010B604B608B60CB600B614B6100EB34
:1008D0008204A164521C042AEED3C36503668366B6
:1008E000C36683650322016801F58051C1F8302198
:1008F0000168026901F58051C1F81C210169006895
:10090000483100F58050C0F8281110BD10B5002204
:100910000023C16802EB420401EBC4010B604B6091
:100920008B60CB6000EB8204A161521C042AF0D3DF
:1009300083620322016801F58051C1F82C2101680E
:10094000C26801F58051C1F81421C168006800F542
:100950008050C0F8201110BD014801F09DBE00007C
:100960008C71002470B5A2B0064601258DF8335075
:10097000002412948DF841408DF843408DF82850A2
:100980008DF856508DF832508DF84C408DF88450CB
:1009900068030F908DF85C4018948DF885408DF8B1
:1009A00086404FF4C36016908DF830400B948DF85C
:1009B00035508DF836408DF840401D941B941494AA
:1009C0008DF864408DF87A408DF8425020202090B8
:1009D0008DF844508DF855404FF040500990A803D1
:1009E0000E908DF8314002201F908DF878408DF8E0
:1009F00079408DF854408DF834501A948DF8705029
:100A000009A9304600F04CFA8DF804500295009484
:100A10008DF81C408DF80D408DF80C40690506914D
:100A20008DF8144004918DF81D404FF40670089025
:100A30006946304600F0E4F922B070BD00207047EE
:100A400003F0B6B810B5024802F02CF9002010BD32
:100A50008C71002410B513460A460146044802F082
:100A60004EF810B14FF0FF3010BD002010BD000057
:100A70008C71002410B513460A460146044802F062
:100A800017FA10B14FF0FF3010BD002010BD00006C
:100A90008C7100242DE9F04F00F1180634692746C7
:100AA0004FF0000C56F824308D68E046D3F80C90D7
:100AB000B9F1000F06DB06EB8409D9F81490B9F1FF
:100AC000000F02D00220BDE8F08F91F800905FEA9D
:100AD000497943D5D3F80C90D1F824A06FF30F09CE
:100AE00049EA0A09C3F80C90D3F80C9049F480390C
:100AF000C3F80C90D0F80090D9F860A04AF4801A9E
:100B0000C9F860A091F800905FEA097926D5B1F89C
:100B10002CA0D3F808906AF31F49C3F80890D3F8C3
:100B20000C9049F40039C3F80C90D3F80C90D1F82C
:100B300030A029F4402949EA0A09C3F80C90D0F8FA
:100B40000090D9F864A04AF4801AC9F864A000683B
:100B5000D0F8509049F08069C0F850900878C006ED
:100B60000BD59868D1F818906FF30D0040EA090092
:100B70009860D86840F08060D860087810F0140F52
:100B80001ED0D86840F08040D860BFF35F8FD8682F
:100B900040F00040D860641C042C00D3241F56F899
:100BA00024304FF0010CD868002809DA56F82700E5
:100BB000BFF35F8FC16821F00041C160022082E76E
:100BC0000CF1010C286818609868D5F804906FF350
:100BD0000D0040EA09009860DFF820924FF0000A0B
:100BE000A86858B1054628685860D3F808B0A888A6
:100BF0000BEA090B4BEA0040986005E0C3F804A03B
:100C0000986800EA090098600878C00614D5D8688A
:100C1000B1F820B020F4F00040EACB40D860D868AA
:100C2000D1F81CB06FF3110040EA0B00D860D8680F
:100C300040F48020D8601DE0D868D1F804B06FF38C
:100C40000E0040EA0B00D8600878C00707D0D868CB
:100C5000D1F814B020F4403040EA0B00D860087896
:100C6000800607D5D868D1F810B020F0406040EA7F
:100C70000B00D8600878400707D59868D1F828B0ED
:100C800020F4404040EA0B009860D86840F00050E3
:100C9000D860D86820F08040D860BFF35F8FD868F4
:100CA00040F00040D8600878800707D5D868D1F8B0
:100CB0000CB020F0607040EA0B00D86079E0D86892
:100CC00020F08050D860641C042C00D3241F56F8F8
:100CD0002430D86820F00050D860D868002803DBA2
:100CE00006EB84004069A0B156F8271000200CE004
:100CF000BFF35F8FCA6822F00042CA607F1C042FD6
:100D000000D33F1F56F82710401C6045F0D3022047
:100D1000D9E60CF1010CAD68286818609868D5F820
:100D200004B06FF30D0040EA0B009860A86858B15A
:100D3000054628685860D3F808B0A8880BEA090B64
:100D40004BEA0040986005E0C3F804A0986800EA08
:100D5000090098600878C0060CD5D868D1F81CB096
:100D60006FF3110040EA0B00D860D86840F480208F
:100D7000D86012E0D868D1F804B06FF30E0040EAF2
:100D80000B00D8600878C00707D0D868D1F814B035
:100D900020F4403040EA0B00D86008F10108BFF3AE
:100DA0005F8FD86840F00040D860D86820F080405D
:100DB000D860A868002882D122B1986840F000402D
:100DC000986003E0986820F000409860D86840F090
:100DD0008050D86006EB8401706A48613461EFF39B
:100DE0001080012181F31088B16A08F101084144A3
:100DF000B16280F31088002065E60000FFFF00C0AC
:100E000030B5026802F58052136847F60204A34326
:100E10000C68234313600A790B7B120342EAC33345
:100E20008A681343026802F5805254684DF2010546
:100E3000AC431C4354604B7B0A6A42EA034302689A
:100E400002F58052D2F80041124D2C401C43C2F8EA
:100E500000410A7D4B7F120142EA03330A691343C2
:100E6000026802F58052D2F804410B4D2C401C431D
:100E7000C2F804418A69097F42EAC171006800F53D
:100E80008050D0F80821054B1A400A43C0F80821C9
:100E900030BD000000C0FEFFEFEFC0FFFFFFC07FCE
:100EA00030B50B688A680C7B1A430B79DB0643EA82
:100EB000C4531A434B7B42EA83528B7B42EA435230
:100EC000CB7B42EA03530A7C002A7CD0002243EA0F
:100ED000C2434A7C002A77D0002243EA42428B7CFC
:100EE00042EA03424B691A438B691A430B7F42EA79
:100EF00003324B7F42EAC3238A7F002A65D0002257
:100F000043EA8222CB7F42EA432391F82020002A41
:100F10007CD0002243EA022251F8243F1A430B7985
:100F200042EA03138A681343026814683F4D2C4059
:100F30001C4314600A7E0B7D520642EA03620B7B5F
:100F400042EA83424B7B42EA43438A7B2439002AAC
:100F500065D0002243EA02434A6B13430268546897
:100F6000334D2C401C43546091F840304A6C42EAA7
:100F700003230268D46840F20F15AC431C43D460CD
:100F800091F854300A6D42EA430391F84C20E2B3E1
:100F9000002231F8484FD20142EA0442134302686A
:100FA000146F4FF60D752C401C4314674B7B8A7BE6
:100FB00042EA4303026852F8904F24F003041C43B2
:100FC0001460026802E022E023E024E0D2F8003D51
:100FD0000C6923F072032343C2F8003D0A7E4B697B
:100FE000483902B3002243EA821211F8613F49787E
:100FF0001B0143EAC1010A430068D0F8301D21F00B
:101000007B011143C0F8301D30BD0AE005E001222C
:101010005DE7012261E7012272E701227AE70122FE
:1010200098E70122B5E70122DDE700008380040094
:101030000080F8C02DE9F8430646002000904FF0EC
:101040000108B46E06EB8400856CF76E1FE028691A
:1010500030B9684601F0C0FD009850B128612860A1
:10106000B8F1000F13D0B06D30B14FF04140E860DF
:1010700005E04FF00008F3E74FF00140E860641C22
:10108000042C00D3241F06EB8400856C7F1E17B14F
:10109000B8F1000FDBD1F06EB84210D0E01C00F0C8
:1010A0000300BFF35F8F316900EB400001EBC0012B
:1010B000306800F58050C0F82811B466F766BDE8C6
:1010C000F88372B6FEE700000548016841F00201AE
:1010D00001600348083801688904FCD570470000A6
:1010E0000C480258014802F08DB80000FC6500244D
:1010F000014802F087B800009C660024014802F015
:1011000081B800003C67002430B5426B036853F897
:10111000844F4FF6FC718C4344EA82041C600368E0
:1011200053F8844F058F24F47F0444EA05441C607F
:10113000836B1A44036853F8884F8C4344EA820453
:101140001C60036853F8884F858F24F4FE0444EA3A
:1011500005441C60C36B02EB4302036853F8A04FC5
:101160008C4344EA82041C60036853F8A04FB0F833
:10117000405024F4FE0444EA05441C60D0E91034D5
:1011800003FB0422036853F8B04F8C4344EA820403
:101190001C60036853F8B04FB0F8485024F4FE04C4
:1011A00044EA05441C60D0E9123403FB04220368BE
:1011B00053F8AC4F8C4344EA82041C60D0E91434E9
:1011C00003FB0422036853F8F04F8C4344EA820483
:1011D0001C60036853F8F04FB0F8585024F47C14A6
:1011E00044EA05441C60836D02EB4303026852F835
:1011F000C04F8C4344EA83011160016851F8C02F4D
:10120000B0F85C3022F47C1242EA03420A600168C2
:1012100051F8C02F90F8603022F07C5242EA03620D
:101220000A60416B224A02EB8101C166826B01EBCD
:1012300082020267C36B02EBC3024267D0E910343B
:10124000634302EB83028267D0E91234634302EB0B
:101250008302C267D0E91434634302EB8302C0F80F
:101260008020836D02EBC302C0F88420C46D836EBE
:101270005C4302EB8402C0F88820046E5C4302EBFE
:101280008402C0F890200B4B9A4208D998304168EC
:1012900041F02001416003210170012030BD002296
:1012A00000E004C1D0F890308B42FAD8002030BD65
:1012B00000AC0040FCD300402DE9F84F044602F09A
:1012C00077FC00905CB194F83500022809D08020AA
:1012D0006065002084F834000120BDE8F88F01200B
:1012E000FBE7D14ED04FD0491836DFF83C8330377A
:1012F000DFF83493DFF830A308F14808DFF828B3AB
:1013000009F1600920680AF1780A0BF1900B884214
:101310002ED0B0422CD0B8422AD0404528D04845E3
:1013200026D0504524D0584522D0BF4AA8329042FA
:101330001ED0BE4A90421BD0BC4A1832904217D0F1
:10134000BA4A3032904213D0B84A483290420FD055
:10135000B64A603290420BD0B44A7832904207D0FD
:10136000B24A9032904203D0B04AA83290420AD199
:10137000026822F01E0202602068426922F08002A8
:101380004261256804E0026822F00E0202602568CE
:10139000206888424DD0B0424BD0B84249D0404539
:1013A00047D0484545D0504543D0584541D09E4A46
:1013B000A83290423DD09D4A90423AD09B4A183282
:1013C000904236D0994A3032904232D0974A4832D1
:1013D00090422ED0954A603290422AD0934A783279
:1013E000904226D0914A9032904222D08F4AA83221
:1013F00090421ED08E4A90421BD08D4A14329042A9
:1014000017D08B4A2832904213D0894A3C329042FE
:101410000FD0874A503290420BD0854A64329042B6
:1014200007D0834A7832904203D0814A8C3290426E
:1014300004D1206E026822F4807202607A4920682A
:1014400088422ED0B0422CD0B8422AD0404528D075
:10145000484526D0504524D0584522D07249A8315D
:1014600088421ED0714988421BD070491831884289
:1014700017D06E493031884213D06C4948318842C8
:101480000FD06A49603188420BD068497831884270
:1014900007D066499031884203D06449A831884218
:1014A00004D1016821F00101016013E0016821F01D
:1014B000010101600EE002F07BFB0099401A052853
:1014C00008D920203434206203206070002020706E
:1014D000012002E72868C007EDD1534A01212068A6
:1014E00090422ED0B0422CD0B8422AD0404528D0CD
:1014F000484526D0504524D0584522D04A4BA833E1
:1015000098421ED0494B98421BD0484B1833984202
:1015100017D0464B3033984213D0444B483398424F
:101520000FD0424B603398420BD0404B78339842F7
:1015300007D03E4B9033984203D03C4BA83398429F
:1015400008D1A06D94F85C3003F01F053F23AB4039
:10155000836007E0A06D94F85C3003F01F0301FA8C
:1015600003F34360206890424DD0B0424BD0B84264
:1015700049D0404547D0484545D0504543D05845CF
:1015800041D0294AA83290423DD0284A90423AD0D0
:10159000264A1832904236D0244A3032904232D015
:1015A000224A483290422ED0204A603290422AD0BD
:1015B0001E4A7832904226D01C4A9032904222D065
:1015C0001A4AA83290421ED0194A90421BD0184A9B
:1015D0001432904217D0164A2832904213D0144A3F
:1015E0003C3290420FD0124A503290420BD0104AF7
:1015F0006432904207D00E4A7832904203D00C4AAF
:101600008C3290420BD1D4E919205060E06E30B199
:10161000026822F480720260D4E91C2050603434E5
:1016200061700020207058E6100002401004024053
:10163000085402582DE9F05F002808D090F83510C2
:10164000022906D0802141650120BDE8F09F0120DC
:10165000FBE7A14AA04BA04C18329F4D30339E4E61
:101660004834DFF874B26035DFF870C27836DFF8DE
:101670006C82DFF868920CF1300CDFF860A208F1A0
:101680006008016809F17809944F0AF1900A5945F8
:1016900031D091422FD099422DD0A1422BD0A942D6
:1016A00029D0B14227D0DFF830E20EF1900E71451B
:1016B00021D0DFF824E20EF1A80E71451BD0DFF82F
:1016C0001CE2AEF1180E714515D0B94213D0DFF807
:1016D0000CE20EF1180E71450DD061450BD0DFF80C
:1016E000FCE10EF1480E714505D0414503D0494556
:1016F00001D0514537D14FF0040E80F835E05945FF
:1017000027D0914225D0994223D0A14221D0A9428D
:101710001FD0B1421DD070489030814219D06E4820
:10172000A830814215D06D481838814211D0B94295
:101730000FD06A48183081420BD0614509D0674804
:101740004830814205D0414503D0494501D051453B
:1017500004D1086820F001000860BAE0086820F0B1
:1017600001000860B5E0D1F800E02EF00E0EC1F8DF
:1017700000E00168DE46594531D091422FD09942B0
:101780002DD0A1422BD0A94229D0B14227D0DFF8D9
:1017900048B10BF1900B594521D0DFF83CB10BF16A
:1017A000A80B59451BD0DFF834B1ABF1180B5945E4
:1017B00015D0B94213D0DFF824B10BF1180B5945FD
:1017C0000DD061450BD0DFF814B10BF1480B594532
:1017D00005D0414503D0494501D0514506D1D1F846
:1017E00000B02BF0010BC1F800B005E0D1F800B05B
:1017F0002BF0010BC1F800B001684FF0010B7145EF
:1018000046D0914244D0994242D0A14240D0A94210
:101810003ED0B1423CD0304A9032914238D02E4A2C
:10182000A832914234D02D4A183A914230D0B94270
:101830002ED02A4A183291422AD0614528D0274A10
:101840004832914224D0414522D0494520D05145CB
:101850001ED0234A91421BD0214A1432914217D004
:101860001F4A2832914213D01D4A3C3291420FD078
:101870001B4A503291420BD0194A6432914207D030
:10188000174A7832914203D0154A8C32914218D1CE
:10189000016E0A6822F480720A60816D90F85C2003
:1018A00002F01F020BFA02F24A60D0E919215160DE
:1018B000C16E31B10A6822F480720A60D0E91C213D
:1018C000516080F835B0002180F83410016D01B10D
:1018D00088470020B9E600001000024028040240BA
:1018E000085402582DE9FF5F0446002001904FF490
:1018F0001651FD480068B0FBF1F00090A56D2E6810
:101900002968FA4FDFF8E4B3DFF8E083DFF8DC930F
:101910000BF1180BDFF8D4A308F13008206809F1A7
:1019200048090AF1600AB8423BD05A46904238D082
:10193000404536D0484534D0504532D0EB4A783215
:1019400090422ED0E94A903290422AD0E74AA832FB
:10195000904226D0E64A904223D0E54A183290427F
:101960001FD0E34B303398421BD0E14B48339842B1
:1019700017D0DFF87CC30CF1600C604511D0DFF8A4
:1019800070C30CF1780C60450BD0DFF864C30CF128
:10199000900C604505D0DFF858E30EF1A80E7045B5
:1019A0007ED194F85C10082301F01F0103FA01F2C4
:1019B00032424BD0B84232D0584530D040452ED07C
:1019C00048452CD050452AD0C8497831884226D085
:1019D000C6499031884222D0C449A83188421ED0DD
:1019E000C34988421BD0C2491831884217D0C04928
:1019F0003031884213D0BE49483188420FD0BC49AB
:101A0000603188420BD0BA497831884207D0B84952
:101A10009031884203D0B649A831884203D1016889
:101A200001F0040102E0016801F0080171B10168F0
:101A300021F00401016094F85C0000F01F0003FA3B
:101A400000F2AA60606D40F00100606594F85C00EF
:101A5000012100F01F008140314240D02068B8428F
:101A600034D0584532D0404530D048452ED050452E
:101A70002CD09E4A7832904228D09C4A9032904294
:101A800024D09A4AA832904220D0994A90421DD040
:101A9000974A1832904219D0954A3032904200E06D
:101AA000D2E113D0924A483290420FD0904A60322D
:101AB00090420BD08E4A7832904207D08C4A9032B6
:101AC000904203D08A4AA83290427DD1406910F0FA
:101AD000800F04D0A960606D40F00200606594F84A
:101AE0005C00042100F01F00814031423ED020689C
:101AF000B84232D0584530D040452ED048452CD041
:101B000050452AD0794A7832904226D0774A90328E
:101B1000904222D0754AA83290421ED0744A904218
:101B20001BD0734A1832904217D0714A303290421B
:101B300013D06F4A483290420FD06D4A60329042C3
:101B40000BD06B4A7832904207D0694A903290426B
:101B500003D0674AA83290424ED1006810F0020FBD
:101B600004D0A960606D40F00400606594F85C00EA
:101B7000102100F01F008140314260D02068B8423F
:101B800034D0584532D0404530D048452ED050450D
:101B90002CD0564A7832904228D0544A9032904203
:101BA00024D0524AA832904220D0514A90421DD0AF
:101BB0004F4A1832904219D04D4A3032904215D0D7
:101BC0004B4A4832904200E014E00FD0484A60325D
:101BD00090420BD0464A7832904207D0444A903225
:101BE000904203D0424AA832904207D1006800F0E8
:101BF000080006E0006872E70068B7E7006800F0D8
:101C0000040058B1A9602068016849030CD5006838
:101C1000000304D4216C09B1204688470FE0A16C71
:101C200069B1204688470AE00168C90503D4016804
:101C300021F008010160216C09B12046884794F821
:101C40005C00202100F01F00814031427BD02068E1
:101C5000B84232D0584530D040452ED048452CD0DF
:101C600050452AD0214A7832904226D01F4A9032DD
:101C7000904222D01D4AA83290421ED01C4A904267
:101C80001BD01B4A1832904217D0194A303290426A
:101C900013D0174A483290420FD0154A6032904212
:101CA0000BD0134A7832904207D0114A90329042BA
:101CB00003D00F4AA832904203D1006800F0100010
:101CC00002E0006800F00200E8B3A96094F8350073
:101CD000042812D02068016849033DD5006800033C
:101CE00035D4616C79B305E05C62002410000240D9
:101CF00010040240204688473FE02068016821F038
:101D0000160101602068416921F080014161206C69
:101D100008B9A06C20B12068016821F008010160B9
:101D200094F85C0000F01F013F208840A86001206B
:101D300084F83500002084F83400216D002974D027
:101D400004B0204600E018E0BDE8F05F0847E16B12
:101D500099B12046884710E00168C90509D4016897
:101D600021F010010160012084F83500002084F882
:101D70003400E16B09B120468847606D002854D0DB
:101D8000606DC00758D0042084F835002068B84240
:101D900031D058452FD040452DD048452BD0504507
:101DA00029D0B749884226D0B5491831884222D077
:101DB000B349303188421ED0B24988421BD0B14964
:101DC0001831884217D0AF493031884213D0AD491D
:101DD000483188420FD0AB49603188420BD0A949C5
:101DE0007831884207D0A7499031884203D0A5496D
:101DF000A831884204D1016821F00101016003E0AB
:101E0000016821F00101016021680198009A401CDD
:101E10000190904202D80868C007F6D10868C00750
:101E200004D0032084F8350003E087E0012084F823
:101E30003500002084F83400E16C00297ED004B025
:101E40002046BDE8F05F08478F4EB0421BD08E4E53
:101E50001436B04217D08C4E2836B04213D08A4E7A
:101E60003C36B0420FD0884E5036B0420BD0864E32
:101E70006436B04207D0844E7836B04203D0824EEA
:101E80008C36B0425AD106684FF0040E94F85CB01C
:101E90000BF01F0B0EFA0BFE1EEA010FCDF80CE043
:101EA0005ED05FEA467E5BD503986860300411D54A
:101EB000F00307D4A16C002940D004B02046BDE84F
:101EC000F05F0847216C002938D004B02046BDE8F7
:101ED000F05F0847B0063BD42068B8422DD068496F
:101EE0006039884229D0404527D0484525D0504503
:101EF00023D06349884220D06149183188421CD0E0
:101F00005F493031884218D05E49884215D09042EE
:101F100013D05C49303188420FD098420DD05949D6
:101F20006031884209D057497831884205D06045F0
:101F300003D05449A831884206D100E07CE0016812
:101F400021F00801016003E0016821F00401016053
:101F5000216C002970D004B02046BDE8F05F08472E
:101F60004FF0020E0EFA0BFE1EEA010FCDF808E04C
:101F700063D05FEA867E60D502986860300411D530
:101F8000F00307D4616C002978D004B02046BDE886
:101F9000F05F0847E16B002970D004B02046BDE82F
:101FA000F05F0847B0063FD42068B8422DD03449CE
:101FB0006039884229D0404527D0484525D0504532
:101FC00023D02F49884220D02D49183188421CD077
:101FD0002B493031884218D02A49884215D0904286
:101FE00013D02849303188420FD098420DD025496E
:101FF0006031884209D023497831884205D0604554
:1020000003D02049A831884204D1016821F014018D
:10201000016003E0016821F00A010160012084F8F9
:102020003500002084F83400E16B002926D004B08C
:102030002046BDE8F05F084720E0082202FA0BF2D4
:102040000A421BD0310719D5016821F00E01016049
:1020500094F85C0000F01F01012000FA01F16960B2
:10206000606584F83500002084F83400E16C0029B4
:1020700004D004B02046BDE8F05F0847BDE8FF9FEC
:102080008800024010040240085402582DE9F05F15
:10209000044601F08DFD0646002C7DD0F24F022251
:1020A000DFF8C4830025DFF8C093DFF8BCA308F194
:1020B0003008DFF8B4B309F1480920680AF1600A72
:1020C0000BF1780BB84232D0E749183188422ED054
:1020D00040452CD048452AD0504528D0584526D0D8
:1020E000E1499031884222D0DF49A83188421ED090
:1020F000DE4988421BD0DD491831884217D0DB49C0
:102100003031884213D0D949483188420FD0D7495D
:10211000603188420BD0D5497831884207D0D34905
:102120009031884203D0D149A83188427ED184F8C9
:10213000352084F83450B84234D0CB491831884225
:1021400030D040452ED048452CD050452AD0584557
:1021500028D0C5499031884224D0C349A83188424B
:1021600020D0C24988421DD0C0491831884219D0B8
:10217000BE493031884215D0BC494831884211D01F
:10218000BA49603188420DD0B8497831884209D0C7
:10219000B6499031884200E009E003D0B349A83144
:1021A000884207D1016821F00101016013E001209C
:1021B000BDE8F09F016821F0010101600BE001F032
:1021C000F7FC801B052806D920206065032084F8D1
:1021D00035000120ECE720680068C007EFD12268D5
:1021E0001168A3480140D4E902031843D4E9043636
:1021F00033431843A3691843E3691843236A184318
:102200000843616A042903D1D4E90B131943084335
:102210006168A1F12903052B0DD9163B032B0AD9BF
:10222000083B012B07D9083B032B00E02AE002D929
:102230007439032901D840F4801010602068406987
:1022400020F00701606A40EA010604280DD1A06A67
:102250000643E06A48B12046FEF7EEFA28B1402076
:102260006065012084F83500A2E7206846612046B9
:10227000FEF7F4F994F85C1001F01F023F21914041
:10228000816066E07B4988421BD07A4B14339842C8
:1022900017D0784B2833984213D0764B3C33984272
:1022A0000FD0744B503398420BD0724B643398422A
:1022B00007D0704B7833984203D06E4B8C339842E2
:1022C0007ED1884211D06B49143188420DD06949C2
:1022D0002831884209D067493C31884205D0654998
:1022E0005031884201D06349643184F8352084F844
:1022F0003450026860490A40A16840297ED0802994
:102300007DD00021E36841EAD301236941EAD3018A
:10231000636941EAD301A36941EAD301E36941EA70
:10232000D301236A41EA1311114301605149206826
:10233000494208441421B0FBF1F08000E0652046DA
:10234000FEF78CF994F85C1001F01F020121914016
:1023500041602068B84256D043491831884252D073
:10236000404550D048454ED050454CD058454AD0B5
:102370003D499031884246D03B49A831884242D0FD
:102380003A4988423FD03949183188423BD03749D1
:102390003031884237D035494831884233D03349CB
:1023A000603188422FD03149783188422BD02F4973
:1023B0009031884227D02D49A831884223D000E0AF
:1023C0002DE02C4988421ED02A49143188421AD067
:1023D00028492831884216D026493C31884212D0FB
:1023E0002449503188420ED02249643188420AD0B3
:1023F00020497831884206D01E4901E00AE00BE00E
:102400008C31884229D12046FEF788F9A0688028BF
:102410000CD00CE0102175E74FF4804172E74020AA
:102420006065032084F835000120C1E66560216EF7
:1024300020790860D4E9191048606068401E0728B8
:1024400008D82046FEF7BAF9E06E0560D4E91C1002
:10245000486002E0E566256765676565012084F8E8
:1024600035000020A4E600001000024010040240E5
:102470003F8010FE085402580F00FEFF70B504465E
:1024800001F096FB0546601C02D004480078044425
:1024900001F08EFB401BA042FAD370BD50620024B5
:1024A0007047000010B500F00BF8000605D5034892
:1024B0004068BDE8104009F07BBC10BD14620024E8
:1024C000D0F88C007047D0F88800704700297DD084
:1024D0000268126802F00C02CA6202681268C2F353
:1024E000001281F828200268126802F060024A6235
:1024F0000268126842F30022521C81F82020026810
:102500001268C2F34022CA770268126842F380223E
:10251000521C8A7702681268C2F3C0224A770268A6
:102520001268C2F300320A770268126802F400529D
:102530008A610268126802F480424A610268126885
:10254000C2F300428A740268126842F34042521C8D
:102550004A740268126842F3C042521C0A7402684C
:102560001268C2F30052CA7302681268C2F3405282
:102570008A7302681268C2F380524A730268126852
:10258000C2F3C0520A730268126802F0E0628A6005
:1025900002681268C2F3C0620A710268126802F02F
:1025A000E0420A6002685268C2F30D024A630268A0
:1025B000526842F30042521C81F83220026852688D
:1025C000C2F3404281F83120026800E062E05268C4
:1025D000C2F3804281F8302002685268C2F3006280
:1025E00081F8382002685268C2F34462CA63026804
:1025F000D268C2F3002281F840200268D26802F05B
:102600000F024A640268126FC2F3400281F854203C
:102610000268126F42F3C012521C81F84C2002680B
:10262000126F02F070020A650268126F120C8A645F
:102630000268D2F89020C2F3000281F856200268A6
:10264000D2F89020C2F3400281F855200268D2F8F7
:10265000002D02F072028A650268D2F8302D02F075
:102660002302CA650268D2F8302DC2F3C00281F895
:1026700062200268D2F8302DC2F3001281F8612086
:102680000068D0F8300D40F38010401C81F86000E5
:1026900000207047012070472DE9F047044620686C
:1026A000D0F8B06000F58050D0F86051D0F83471A7
:1026B0004FF0B049D9F8A880690608D5790606D543
:1026C00048F24001C0F86011204600F0A9FA05EA7E
:1026D0000700C00709D0206848F2010100F58050CA
:1026E000C0F86011204600F0D9FB68044FF0E00A02
:1026F0002BD5780429D5D4F8880040F00800C4F818
:102700008800E80411D5206800F5805000F59A7023
:10271000C16A41F202121140C4F88C10016821F420
:1027200040410160C4F884A00CE0206800F58050AE
:10273000D0F8601101F4CD41C4F88C104FF4CD41B4
:10274000C0F860112046FFF7ADFE70044FF00005A1
:1027500001D4B00411D5D4F8880040F01000C4F8BA
:1027600088002068D0F8B800C4F89000C4F884A0AD
:102770002046FFF797FEC4F89050F0060BD520686E
:10278000D0F8C00000F06000C4F89400204600F0CB
:1027900041F9C4F89450B0060BD52068D0F8D000A9
:1027A00000F00F00C4F898002046FFF779FEC4F847
:1027B00098505FEA482006D54FF48000C9F8A80079
:1027C000204600F073FBBDE8F0870000F8B5044632
:1027D000002C03D0D4F8840010B107E00120F8BD2C
:1027E0002020C4F88400204600F09EF84948016883
:1027F00041F002010160006800F002000090207AC0
:1028000098B14FF4000002F033FF4348006820689D
:1028100000F58050016841F00101016001F0C8F944
:102820000546E0264FF4FA770EE0002002F020FF84
:10283000EBE701F0BDF9401BB84205D90420843410
:10284000606026600120F8BD206800F580500068B7
:10285000C007EED1204600F025FA02F0FDFA2F491C
:10286000B0FBF1F02168401EC1F8DC002046FEF705
:1028700079F8206800F58050D0F8001121F4E011BB
:1028800041F40021C0F800116169880704D00120DB
:10289000843460602660F8BD206800F58050D0F870
:1028A000082147F6FE739A4342EA4101C0F8081135
:1028B0002046FEF72BF82046FDF7FBFF6068017904
:1028C000407941EA00202168C1F800036068C278BD
:1028D000017841EA026182784078120442EA0020DD
:1028E00001432068C0F804132068D0F80C170C4A84
:1028F0001143C0F80C172068D0F81017094A11438B
:10290000C0F810170020C4F888001020C4F8840014
:102910000020F8BDF44402580404005840420F005F
:102920006000020C00C0200CF0B587B004461421F2
:1029300002A8FDF7B6FD3249206888425DD13148D2
:10294000016841F400410160016801F40041019116
:10295000016841F480310160016801F48031019126
:10296000016841F400310160006800F4003001901A
:1029700024480830016841F004010160016801F059
:1029800004010191016841F001010160016801F059
:1029900001010191016841F002010160006800F04D
:1029A0000200019032200290022403940025049535
:1029B000032605960B270697134802A900F0E6FFA9
:1029C00086200290039404950596069702A90F4865
:1029D00000F0DCFF4FF460500290039404950596DC
:1029E000069702A90A4800F0D1FF002205213D20E8
:1029F00001F0CCF93D2001F0BBF907B0F0BD0000BB
:102A000000800240D84402580008025800000258D2
:102A10000004025870472DE9F35F04460027B846CA
:102A20000198002806D0D4F88400402809D001205D
:102A3000BDE8FC9F54F8880F40F0010020600120A1
:102A4000F6E7E66D04EB8600856CE06EC0F1040BE2
:102A50004FF0000A37E0E868400003D56868A067D7
:102A600028686067E868800001D4E06F18B3E86800
:102A7000800003D5C4F860A0C4F864A0E868616E63
:102A8000C0F30E00A0EB0109E868C00003D5E868B8
:102A900020674FF0010804F180012A691FFA89F3C9
:102AA000081F00F0C3F8206E401C2066606E48448A
:102AB0006066C5F810A0761C042E00D3361F04EB08
:102AC0008600856C7F1CE868002804DB5F4502D225
:102AD000B8F1000FBFD0E06E3844E06610B1204678
:102AE000FEF7A8FAE665B8F1010F01D001209FE7D3
:102AF0000198E16F0160C4F87CA0002098E72DE9FF
:102B0000F04104461F462068D0F80032DB0702D0AF
:102B10000120BDE8F081D0F8003223F0787343EA59
:102B2000415121F4F81141EA024141F00C0141F018
:102B30000101C0F8001201F03BF805464FF47A7627
:102B400006E001F035F8401BB04201D90120E0E772
:102B50002068D0F80002C007F3D12068D0F8040242
:102B600080B238600020D4E72DE9F047814609F1B2
:102B70001805AE6AEC6A4FF0010825E00121761EC7
:102B800005EB8400406920B9641C042C00D3241F89
:102B90000021C9B104EB4401D9F80C000C2202EB6E
:102BA000C101405800280DDB05EB8407786900F06F
:102BB0007BF900207861641C042C00D3241FAE62D2
:102BC000EC6201E04FF0000816B1B8F1000FD5D16A
:102BD0000020BDE8F08700001CB504460D4808F051
:102BE000DBFB03467BB103F1200020600A4818613B
:102BF0004FF4C06120684122CDE900010021084660
:102C000009F044FB1CBD054901200870002020602C
:102C10001CBD0000BC4A01082DC900081462002434
:102C20000148406809F0C4B81462002430B5A2F12C
:102C3000200400252560258163810568002D04D0CE
:102C40000D682C600C60006805E00460FAE70189FB
:102C50001944018100680028F9D1002B0EDD02F033
:102C60001F001844BFF34F8F05490A6020322038F7
:102C70000028FADCBFF34F8FBFF36F8F30BD000029
:102C80005CEF00E010B5002905D0D0F88420102AB0
:102C900003D0012010BD012010BDFEF701F9002076
:102CA00010BD000070B505462868D0F8000220F479
:102CB000706402F0D1F81049884202D244F40074E2
:102CC00016E00E49884202D244F4407410E00C49E8
:102CD00088420DD30B49884202D244F4807407E045
:102CE0000949884202D244F4806401E044F4A064BB
:102CF0002868C0F8004270BDC00E1602008793031A
:102D000000E1F50580D1F00880B2E60E10B504466A
:102D1000D4F88400102801D0012010BD2020C4F870
:102D200084000120A0650420E0662046FEF782F9B9
:102D3000206800F58050D0F8041141F00101C0F87E
:102D40000411206800F58050D0F8081141F001010D
:102D5000C0F80811206800F58050D0F8601141F4E7
:102D60008171C0F860112068D0F8001D41F00101A8
:102D7000C0F8001D2068016841F002010160206870
:102D8000016841F001010160206800F58050D0F831
:102D900034114DF2C1021143C0F834114020C4F87F
:102DA0008400002010BDD0F88410402901D00120FB
:102DB00070472021C0F88410016801F58051D1F8D6
:102DC00034214DF2C1039A43C1F83421016801F561
:102DD0008051D1F8042122F00102C1F804210168D8
:102DE00001F58051D1F8082122F00102C1F8082133
:102DF00001680A6822F001020A600168D1F8002D1A
:102E000042F00102C1F8002D01680A6822F00202B6
:102E10000A60002100EB8102926CD36823F08043AA
:102E2000D360491C0429F5D3002181651021C0F825
:102E300084100020704710B50446002905D0D4F84E
:102E40008400402808D0012010BD54F8880F40F0BD
:102E500001002060012010BD486BE0630122204684
:102E6000FDF718FE30B154F8880F40F002002060E2
:102E7000012010BDBFF34F8FA06A401CA062042840
:102E800001D3001FA062A06A04EB80008169206862
:102E900000F58050C0F82011002010BD0148806866
:102EA00008F086BF1462002409F092BC704700004D
:102EB00070B505462868D0F80042E40701D001202B
:102EC00070BDD0F8000220F0787040EA415020F444
:102ED000F81040EA024020F00C00001D40F0010014
:102EE0000B499AB24A60086000F062FE04464FF453
:102EF0007A7606E000F05CFE001BB04201D90120AA
:102F000070BD2868D0F80002C007F3D170BD000082
:102F10000082024010B590F89830012B08D0022BA7
:102F200006D050F89C1F41F002010160012010BD45
:102F300003689C6D0C4204D1DC6D44F00104DC6537
:102F400005E09C6D31EA04041CD00324DC658B058C
:102F500004D5036853F8E04F14431C604B0504D5B7
:102F6000036853F8E44F14431C600068426D084B3B
:102F70000B401A4342650748026842EA91710160BA
:102F8000002010BDDC6D44F00204DC65DFE70000CA
:102F9000FFFFCF3F14A80040704710B590F898206D
:102FA000012A08D0022A06D050F89C1F41F00201E5
:102FB0000160012010BDCA680B688BB1072A0B693C
:102FC00043EA42732BD00C7A4A6942EA8472496818
:102FD000006F00EBC100036042604FF0000010BDC5
:102FE000072A10D00C7A4FEAC2624B6943EA847315
:102FF0000C8A42EA044243EA02034968C06E00EBCD
:1030000081000360E9E70B8A4FF060548A6942EA65
:103010000343CA6944EA022243EA0203EDE78A69EC
:10302000D5E730B5039C90F89850012D06D050F8A4
:103030009C1F41F004010160012030BD00680901BE
:1030400041EA820141EA43012143C0F88010002097
:1030500030BD704770470000F0B5002490F89850DC
:10306000022D06D050F89C1F41F00801016001209C
:10307000F0BD40290BD0412936D0056D8D4260D876
:1030800050F89C1F41F0200101600120F0BD05684F
:10309000D5F8A06016F4FE0F18D0D5F8A460760617
:1030A0001BD0D5F8A460F60105D5D5F8A06016F0C0
:1030B000004F00D50124D5F8A450C5F305252C44B4
:1030C000456C466F654306EB85063FE050F89C1F54
:1030D00041F0200101600120F0BD50F89C1F41F437
:1030E000807101600120F0BD0568D5F8B06016F46C
:1030F000FE0F18D0D5F8B46076061BD0D5F8B460B2
:10310000F60105D5D5F8B06016F0004F00D50124C2
:10311000D5F8B450C5F305252C44C56C866F6543BE
:1031200006EB850612E050F89C1F41F0200101607B
:103130000120F0BD50F89C1F41F480710160012016
:10314000F0BD456DC66F4D4306EB8506356805F04D
:10315000804555602DB3356825F0604515603568AC
:1031600005F000559560356805F000451561B58896
:10317000ADB2D5617568C5F30345D560756805F4D2
:1031800080155561756805F4001595617568C5F37E
:103190000665156275680836ED0F55620025174FF4
:1031A00009E03568C5F38A451560D8E716F805C00B
:1031B00003F805C06D1CD2F80CC017F80CC0AC4564
:1031C000F4D8402909D041290BD0012220290CD262
:1031D00000688A40C0F898200DE00068C0F8A84058
:1031E00009E00068C0F8B84005E0006801F01F0180
:1031F0008A40C0F89C200020F0BD0000084B010868
:10320000704700002DE9FE4F0446B64F386880072E
:10321000391D096800EA817002902068016D01F48F
:103220007041D0F854A00AEA010A016D01F00F01C3
:10323000D0F854B00BEA010B016D01F0F001426DC2
:103240000A400192016D01F07151D0F8548008EAF2
:103250000108016D01F06071426D0A400092416DFC
:10326000056D4FF00009CE43F10509D4E943C905C6
:1032700006D4B9150165C7F800902046FFF7C0FFD6
:10328000700510D4E84340050DD42068D0F8DC2048
:10329000D0F8E41011404FF480620265C7F8009046
:1032A000204600F06EFB029858B18F490298084002
:1032B000216808650298800F386002992046FFF760
:1032C0006BFEBAF1000F0BD0216887480AEA0000B4
:1032D00008654FEA9A7038605146204600F053FB6B
:1032E000BBF1000F0BD021687F480BEA0000086596
:1032F0004FEA9B7038605946204600F00BFB01985E
:1033000058B1794901980840216808650198800FF3
:1033100038600199204600F015FB30050BD4E843D6
:10332000000508D421684FF400600865C7F80090D4
:10333000204600F029FBB00510D4E84380050DD4E9
:103340002068D0F8D820D0F8E01011404FF4007277
:103350000265C7F80090204600F014FB30030BD440
:10336000E843000308D421684FF400200865C7F83B
:103370000090204600F0CCFAF0030BD4E843C003E1
:1033800008D421684FF480300865C7F800902046C3
:1033900000F0F6FA70030BD4E843400308D4216828
:1033A0004FF480200865C7F80090204600F0E7FA47
:1033B000B0030ED4E84380030BD421684FF40030EF
:1033C0000865C7F80090D4F89C0040F08000C4F86D
:1033D0009C00009858B1444900980840216808654D
:1033E0000098800F386000992046FFF733FEB8F14F
:1033F000000F0DD021683C4808EA000008654FEA3C
:1034000098703860D4F89C0040EA0800C4F89C002A
:103410003649206888425BD160688168890757D047
:10342000016A01F00F02416A1140026A02F03002A3
:10343000476A1740026A02F4C072D0F8248008EA92
:103440000208026A02F4FC42456A1540026A02F46C
:10345000F022466A1640D0F82490D0F820A019B186
:103460000162204600F088FA2FB160680762394691
:10347000204600F083FA6FEA090040060ED46FEA96
:103480000A0040060AD46068C16B090CC26B02F0E6
:103490003F0240230362204600F06FFAB8F1000FAC
:1034A00006D06068C0F820804146204600F063FAEC
:1034B00035B160680562D4F89C002843C4F89C00CC
:1034C00036B160680662D4F89C003043C4F89C00B2
:1034D000D4F89C00002802D02046FFF7BAFDBDE8D2
:1034E000FE8F000010A80040FFFFCF3F00A000406B
:1034F0002DE9F04393B004464C2295496846FCF709
:10350000A9FF6CB1934F2068B84202D100F58070DA
:1035100060604FF4407994F89800002620B108E0EC
:10352000012013B0BDE8F08384F89960204600F0D4
:1035300013F92068816921F01001816100F038FBE6
:1035400005464FF003080DE000F032FB401B0A284F
:1035500008D954F89C0F40F00100206004F8048C56
:103560000120DEE7206880690007EDD420688169CA
:1035700041F00101816100F01BFB05460DE000F008
:1035800017FB401B0A2808D954F89C0F40F0010093
:10359000206004F8048C0120C3E720688069C0071C
:1035A000EDD02068816941F002018161207C012811
:1035B00039D02068816941F040018161607C012837
:1035C00037D02068816921F480418161A07C012885
:1035D00035D02068816941F480518161206881691A
:1035E000A26821F44071114381612068816921F052
:1035F000A40181612068016921F010010161E06886
:10360000012822D030B302282BD02068816941F0F4
:10361000800181612068016941F010010161E06869
:10362000032818D022E02068816921F040018161DF
:10363000C4E72068816941F480418161C6E7206860
:10364000816921F480518161C8E72068816941F076
:10365000040181610AE02068816941F020018161F3
:1036600004E02068816941F020018161207E401ED4
:103670004106E069401E41EA0020216A491E0843D4
:10368000A18A491E40EA01402168C861A0684845F6
:103690000FD1E16AA06A491E401E40EA0121206B59
:1036A000401E41EA0011A08C401E41EA0040216802
:1036B000C860206E28B1206850F8C01F626E1143A8
:1036C0000160D4E91701C842694609D0206850F862
:1036D000C82FA36E22F0070251F823301A4302606C
:1036E000206C48B1206850F8BC2F636C22F00702B0
:1036F00051F823301A430260A06C50B1206850F892
:10370000BC2FE36C22F0700251F8233042EA03121E
:103710000260206D50B1206850F8BC2F636D22F418
:10372000E06251F8231042EA012101602068B842AA
:1037300004D16068816821F00301816044F8946FCE
:10374000A66001202071943C2046FDF7DDFCE8E6F0
:10375000184B010800A000402DE9F047B6B0044620
:10376000142130A8FCF79DFEB82102A8FCF799FEB1
:10377000614D02275E494FF0030820680C3D5D4E05
:103780004FF0090A5C4C88424FF0000939D1B90367
:103790000020CDE90210CDF8749002A800F026FDBB
:1037A00008B1FDF78EFC3068401C3060012807D15D
:1037B000206840F480702060206800F480700190E0
:1037C000286840F001002860286800F0010001909E
:1037D0004FF4C05030903197CDF8C890CDF8CC80E0
:1037E000CDF8D0A030A9454800F0D0F8002205213E
:1037F000132000F0CBFA132000F0BAFA36B0BDE87F
:10380000F0873F49884237D100204FF40041CDE98D
:103810000210CDF8749002A800F0E8FC08B1FDF7A2
:1038200050FC3068401C3060012807D1206840F40B
:1038300080702060206800F480700190286840F05B
:1038400002002860286800F002000190602030909B
:103850003197CDF8C890CDF8CC80CDF8D0A030A964
:10386000284800F093F800220521142000F08EFA79
:10387000142000F07DFAC1E723498842BED1002020
:103880004FF40041CDE90210CDF8749002A800F089
:10389000ADFC08B1FDF715FC3068401C3060012814
:1038A00007D1206840F480702060206800F48070A8
:1038B0000190286840F008002860286800F008009F
:1038C00001904FF4405030903197CDF8C890CDF82A
:1038D000CC800520349030A90C4800F057F8002225
:1038E00005219F2000F052FA9F2000F041FA85E761
:1038F00000A0004010620024EC440258000002586E
:1039000000A400400004025800D40040000C0258FB
:103910007047000010B58CB00446C8070CD0402199
:103920006B4602AA2046FFF797FB002804D1034903
:103930002068884200D002490CB010BD00A00040B1
:1039400000A40040704790F89810012906D050F864
:103950009C1F41F00401016001207047022180F8A2
:10396000981001688A6922F001028A610021C0F87A
:103970009C10002070477047704770477047704731
:103980007047704770477047704700002DE9F84F47
:103990000022784D03264FF001080F274FF0B04C5E
:1039A000E1E008FA02F31C409A46002C7ED00B7925
:1039B00003F00303012B01D0022B1BD1D0F8089098
:1039C000530006FA03FB29EA0B09D1F80CB00BFAF5
:1039D00003FB4BEA090BC0F808B0436823EA0A036B
:1039E00091F80490C9F3001909FA02F949EA0309A8
:1039F000C0F804900B79DB439B070ED0D0F80C90F5
:103A0000530006FA03FA29EA0A09D1F808A00AFACB
:103A100003FA4AEA090AC0F80CA00B7903F0030381
:103A2000022B14D1D30800EB8303D3F820A04FEA74
:103A300042794FEAD96907FA09FB2AEA0B0AD1F859
:103A400010B00BFA09FB4BEA0A0BC3F820B0D0F810
:103A50000090530006FA03FA29EA0A0991F804A033
:103A60000AF0030A0AFA03FA4AEA090AC0F800A0AF
:103A70004B6813F4403F75D03F4BD3F8009049F0AA
:103A80000209C3F800901B6803F00203009322F0C0
:103A9000030909F1B049D9F808B493074FEA137A3A
:103AA00007FA0AF32BEA030B344B00E05AE0984282
:103AB00001D1002328E0324B984201D1012323E0B9
:103AC000304B984201D102231EE02F4B984201D186
:103AD000032319E02D4B984201D1042314E02C4B11
:103AE000984201D105230FE02A4B984201D10623C9
:103AF0000AE0294B984201D1072305E0274B984261
:103B000001D1092300E00A2303FA0AF343EA0B0375
:103B1000C9F80834DCF80030A343D1F804905FEA18
:103B2000C92900D52343CCF80030DCF80430A34386
:103B3000D1F804905FEA892900D52343CCF80430FA
:103B40006B68A343D1F804905FEA893900D5234319
:103B50006B602B68A343D1F804905FEAC93900D5A4
:103B600023432B60521C0C6834FA02F37FF419AF24
:103B7000BDE8F88F80000058F44402580000025855
:103B80000004025800080258000C025800100258A5
:103B90000014025800180258001C02580024025851
:103BA000002A01D0816170470904816170470000DB
:103BB0000148806870470000506200240248816814
:103BC00002781144816070475062002410B50320D0
:103BD00000F0FCF801F086F90F490A68C2F30323EC
:103BE0000E4AD35C03F01F03D840096801F00F01AF
:103BF000515C0B4A01F01F0120FA01F111600949E3
:103C000008600F2000F010F808B1012010BD00F08E
:103C10009DF8002010BD0000184402588C4B01088C
:103C2000606200245C62002410B58AB00446102C47
:103C30002FD200222146362000F0A8F8362000F0CE
:103C400097F8184804601848016841F010010160B5
:103C5000006800F01000009001A902A801F0CCF863
:103C60000798C0B101F01AF940001049B0FBF1F11A
:103C7000491E10480E4A026040F2E732C2604160BD
:103C800000210161816001F05BFD38B101200AB0C3
:103C900010BD0120FBE701F001F9E6E7054801F05E
:103CA00093FDF4E754620024E844025840420F00B8
:103CB0000010004040710024134A417811601249FD
:103CC00008310A6822F001020A600B1F42681A607C
:103CD000027BC37A120742EA0362837A42EAC34252
:103CE000437B42EA8342837B42EA4342C37B42EA0C
:103CF0000342437A42EA0322037A007842EA43020B
:103D000002430A607047000098ED00E0BFF35F8F48
:103D10000448016821F480310160024900207031BB
:103D20000860704724ED00E0074940F0010008609A
:103D300005487038016841F480310160BFF34F8F4E
:103D4000BFF36F8F7047000094ED00E082B007482A
:103D5000016841F002010160006800F0020001907A
:103D600000220F21901E02B000F010B8F444025857
:103D7000002809DB012100F01F029140400980006A
:103D800000F1E020C0F8001170470000F0B40D46CB
:103D90000D4B1B68C3F30223C3F10704042C00D9A5
:103DA0000424191D072901D2002300E0DB1E01268F
:103DB00006FA04F1491E294099409E40761E16409D
:103DC0003143F0BC04F046B80CED00E000F0070110
:103DD000054A10684FF6FF03184040EA01200349E6
:103DE00008431060704700000CED00E00000FA0589
:103DF00070B514490A68D243520708D5096801F022
:103E00000701814201D0012070BD002070BD0A6809
:103E100022F0070202430A60FFF7CAFE0446094D7A
:103E20004FF47A76083D06E0FFF7C2FE001BB04271
:103E300001D9012070BD2868C0438004F4D400205B
:103E400070BD00000C48025810B501F005F8054996
:103E50000968054AC1F30211515C01F01F01C84015
:103E600010BD0000204402588C4B010810B5694970
:103E70000A6802F003020968C1F30531654B1B1D96
:103E80001B68C3F30013634C14342468C4F3CC04DC
:103E900014FB03F300EE103AB8EE400A002971D08B
:103EA0009FED5D1A5B4BF7EE000A1033F2B39FED06
:103EB0005B2A012A7FD0022A7CD001EE901A196871
:103EC000F8EE611AC2EE212AC1F3080101EE901A40
:103ED000F8EE611A40EE011A31EEA00A22EE800AD5
:103EE0001968C1F3462101EE101AB8EE411A31EEFD
:103EF000201AC0EE011ABCEEE11A80ED001A196812
:103F0000C1F3064101EE101AB8EE411A31EE201A43
:103F1000C0EE011ABCEEE11A80ED011A1968C1F376
:103F2000066101EE101AB8EE411A00E008E071EEE9
:103F3000200A80EE201ABCEEC10A80ED020A10BDF4
:103F4000344A283A1468A4061ED51268C2F3C10484
:103F5000334AE24001EE902AF8EE612A01EE901A0F
:103F60001968F8EE611A82EEA12AC1F3080101EE88
:103F7000901AF8EE611A40EE011A31EEA00A22EE14
:103F8000000AADE741E016E001EE901ADFED252AC8
:103F90001968F8EE611A82EEA12AC1F3080101EE58
:103FA000901AF8EE611A40EE011A31EEA00A22EEE4
:103FB000000A95E713E001EE901A1968F8EE611A0D
:103FC000C2EE212AC1F3080101EE901AF8EE611A3F
:103FD00040EE011A31EEA00A22EE800A80E701EEDF
:103FE000901ADFED112A1968F8EE611A82EEA12A03
:103FF000C1F3080101EE901AF8EE611A40EE011AC1
:1040000031EEA00A22EE000A6AE700210160416059
:10401000816010BD28440258000000390024744A11
:104020000090D0030024744C20BCBE4B10B56949ED
:104030000A6802F003020968C1F30551654B1B1DB4
:104040001B68C3F30023634C1C342468C4F3CC0402
:1040500014FB03F300EE103AB8EE400A002971D0C9
:104060009FED5D1A5B4BF7EE000A1833F2B39FED3C
:104070005B2A012A7FD0022A7CD001EE901A1968AF
:10408000F8EE611AC2EE212AC1F3080101EE901A7E
:10409000F8EE611A40EE011A31EEA00A22EE800A13
:1040A0001968C1F3462101EE101AB8EE411A31EE3B
:1040B000201AC0EE011ABCEEE11A80ED001A196850
:1040C000C1F3064101EE101AB8EE411A31EE201A82
:1040D000C0EE011ABCEEE11A80ED011A1968C1F3B5
:1040E000066101EE101AB8EE411A00E008E071EE28
:1040F000200A80EE201ABCEEC10A80ED020A10BD33
:10410000344A283A1468A4061ED51268C2F3C104C2
:10411000334AE24001EE902AF8EE612A01EE901A4D
:104120001968F8EE611A82EEA12AC1F3080101EEC6
:10413000901AF8EE611A40EE011A31EEA00A22EE52
:10414000000AADE741E016E001EE901ADFED252A06
:104150001968F8EE611A82EEA12AC1F3080101EE96
:10416000901AF8EE611A40EE011A31EEA00A22EE22
:10417000000A95E713E001EE901A1968F8EE611A4B
:10418000C2EE212AC1F3080101EE901AF8EE611A7D
:1041900040EE011A31EEA00A22EE800A80E701EE1D
:1041A000901ADFED112A1968F8EE611A82EEA12A41
:1041B000C1F3080101EE901AF8EE611A40EE011AFF
:1041C00031EEA00A22EE000A6AE700210160416098
:1041D000816010BD28440258000000390024744A50
:1041E0000090D0030024744C20BCBE4B2DE9FC5F32
:1041F000044600250026F94F2068DFF8E493C04309
:10420000010104F10800019004F1280000900DD490
:10421000606EB8B1B0F5801F19D0B0F5001F1CD08A
:10422000B0F5401F00D00125EDB12E462088C043D7
:10423000C00535D4A06D05282FD2DFE800F01D227F
:10424000282F2F00386840F400303860ECE70198E0
:10425000022102F0B1FE0546E6E70098022102F0D5
:104260003DFF0546E0E7D9F80000616E20F44010FC
:104270000843C9F80000D9E7386840F400303860D6
:104280000CE00198002102F097FE054606E0009838
:10429000002102F023FF054600E00125A5B12E46CE
:1042A0002088DFF84083C04340051FD4D4F8A40021
:1042B000B0F5C00F18D010DC50B3B0F5001F2CD0F3
:1042C000B0F5800F0FD12EE0D9F80000A16D20F0DD
:1042D00007000843C9F80000E2E7B0F5000F03D07B
:1042E000B0F5200F00D001251DB32E462088C04315
:1042F000000531D4D4F8A800B0F1407F2AD022DCE8
:10430000F0B3B0F1807F4BD0B0F1007F21D14DE010
:10431000386840F400303860E6E70198002102F088
:104320004BFE0546E0E70098002102F0D7FE054667
:10433000DAE7D8F80000D4F8A41020F460000843AD
:10434000C8F80000D2E7B0F1806F03D0B0F1A06FE1
:1043500000D0012585B32E462068C04380010AD4D1
:10436000E06C30B1102832D0202836D0302800D070
:1043700001258DB32E462088C043C00446D400E0FA
:1043800009E0E06DB0F5005F5CD036DCA0B3B0F5BD
:10439000805F38D150E0386840F400303860D9E7A9
:1043A0000198002102F008FE0546D3E7009800219D
:1043B00002F094FE0546CDE7FFE7D8F80000D4F8F8
:1043C000A81020F0E0600843C8F80000C4E738688F
:1043D00040F400303860CCE705E00198022102F09B
:1043E000EBFD0546C5E77E48001F0168E26C21F041
:1043F000300111430160BEE719E0B0F5405F03D022
:10440000B0F5804F00D0012515B32E462088C0435B
:1044100080042FD4206EB0F5403F29D021DC38B382
:10442000B0F5803F38D0B0F5003F20D13AE0386891
:1044300040F400303860E7E70198002102F0BCFD4D
:104440000546E1E70098002102F048FE0546DBE75B
:10445000D9F80000E16D20F4E0400843C9F80000FD
:10446000D4E7B0F5802F03D0B0F5A02F00D0012500
:10447000F5B12E462088C04340042BD4D4F8AC00BC
:10448000B0F1405F24D01CDC10B3B0F1805F4FD09E
:10449000B0F1005F1BD152E00198012102F08CFDC8
:1044A0000546E5E70098012102F018FE0546DFE722
:1044B000D9F80000216E20F4E0200843C9F800007C
:1044C000D8E7B0F1804F03D0B0F1A04F00D0012564
:1044D000A5B32E462088C04300040AD4E06E30B154
:1044E000B0F1805F3DD0B0F1005F3FD00125B5B3A2
:1044F0002E462068C043C0010AD4A06C30B1012808
:1045000043D0022846D0032800D0012545B32E46CB
:104510002068C04340025AD4DFF8CCB0DBF800007A
:1045200040F48070CBF80000FFF742FB824648E081
:104530000198012102F040FD0546C9E705E0009819
:10454000012102F0CBFD0546C2E7D8F80000D4F8FF
:10455000AC1020F0E0400843C8F80000BAE70BE0D8
:104560001EE0386840F400303860C0E7019801214F
:1045700002F022FD0546BAE7D9F80000E16E20F00E
:1045800040500843C9F80000B3E7386840F40030F1
:104590003860BBE70198022102F00EFD0546B5E741
:1045A0000F48001F0168A26C21F003011143016054
:1045B000AEE7FFF7FDFAA0EB0A00642801D9032556
:1045C00003E0DBF80000C005F3D58DB12E4620785E
:1045D000DFF818A0C043C00763D073E02C44025832
:1045E0005044025858440258004802585444025853
:1045F000DFF850B4DBF80000B4F8B01000F44070FD
:1046000001F44071884211D0DBF8000020F44070C2
:10461000DBF8001041F48031CBF80010DBF800101B
:1046200021F48031CBF80010CBF80000D4F8B000B2
:10463000B0F5807F11D1FFF7BBFA824609E0FFF7A2
:10464000B7FAA0EB0A0141F28830814201D9032573
:1046500003E0DBF800008007F1D50DB12E46B6E788
:10466000D4F8B000C0F3012103290FD0F548603819
:10467000016821F47C510160DBF80000B4F8B0104F
:10468000C1F30B010843CBF80000A0E7ED49603906
:104690000A68ED4B22F47C52184042EA1010086080
:1046A000EAE7A06F18280BD005DC48B1082815D020
:1046B000102804D118E0202802D0282800D0012595
:1046C000C5B12E462078C04380072BD4606F0628E2
:1046D00025D2DFE800F025181E25252501980121A7
:1046E00002F06AFC0546EBE70098012102F0F6FCB7
:1046F0000546E5E7DAF80000A16F20F0380008432E
:10470000CAF80000DEE70198012102F055FC0546D9
:1047100006E00098012102F0E1FC054600E00125D9
:104720006DB12E462078C043400720D4D4F89000C5
:10473000062819D2DFE800F0190C12191919DAF855
:104740000000616F20F007000843CAF80000E9E7A5
:104750000198012102F030FC054606E00098012195
:1047600002F0BCFC054600E0012595B12E462078FC
:10477000C043800620D4D4F88C00B0F1405F19D03B
:1047800011DCB8B1B0F1805F28D0B0F1005F10D17A
:104790002AE0D8F80000D4F8901020F00700084371
:1047A000C8F80000E3E7B0F1804F03D0B0F1A04FAC
:1047B00000D00125F5B12E462078C04340062CD408
:1047C000D4F89800B0F5406F25D01DDC18B3B0F5D3
:1047D000806F34D0B0F5006F1CD136E00198002115
:1047E00002F0EAFB0546E5E70098022102F076FCBC
:1047F0000546DFE7DAF80000D4F88C1020F0E0403E
:104800000843CAF80000D7E7B0F5805F03D0B0F5E1
:10481000A05F00D00125F5B12E462078C0430006E8
:104820002CD4D4F89C00B0F5C04F25D01DDC18B3B3
:10483000B0F5005F2CD0B0F5804F1CD12EE0019870
:10484000002102F0B9FB0546E5E70098022102F0DD
:1048500045FC0546DFE7D8F80000D4F8981020F4AE
:10486000E0500843C8F80000D7E7B0F5004F03D088
:10487000B0F5204F00D00125B5B12E462078C043B9
:1048800000072AD4D4F88000B0F5805F16D01BE072
:104890000198002102F090FB0546EDE70098022107
:1048A00002F01CFC0546E7E7D8F80000D4F89C109D
:1048B00020F460400843C8F80000DFE700980221B8
:1048C00002F00CFC00B10126DAF80000D4F88010E8
:1048D00020F440500843CAF800002078C043C006C6
:1048E00013D4D4F89400B0F5807F05D1009802214C
:1048F00002F0F4FB00B10126D8F80000D4F89410BF
:1049000020F440700843C8F800002068C04300034A
:104910000BD4D4F8A000E8B3B0F5803F7DD0B0F55B
:10492000003F00D00125B5B32E462068C0434003A8
:104930000DD4D4F88400B0F5801F70D0B0F5001FFE
:104940006ED0B0F5401F00D001252DB32E46206853
:10495000C043C00307D4206DF0B3B0F5803F75D0DD
:104960000125D5B32E462068C043800005D40098A9
:10497000022102F0B3FB00B101262068C04380038E
:1049800011D4E06F68B1B0F5807F76D0B0F5007FCC
:1049900007D002E05BE066E07BE0B0F5407F00D04E
:1049A0000125DDB32E462068C043C00207D4D9F8E4
:1049B0000000216F20F000400843C9F80000206883
:1049C000C043800207D4D9F80000A16E20F08070A7
:1049D0000843C9F8000001E065E06FE02068C043CB
:1049E00040000AD417486038016821F40041016092
:1049F0000168D4F8B420114301602068C04307D493
:104A0000104824380168626D21F040511143016063
:104A10002068C04300020DD403E01EE05BE02DE0FF
:104A200031E0DAF80000D4F8881020F440000843A0
:104A3000CAF8000020790025C04300F00100284397
:104A400052D057E070440258FFFCFF0F30E001984D
:104A5000002102F0B1FA054665E70098022102F054
:104A60003DFB05465FE7D8F80000D4F8A01020F41D
:104A700040300843C8F8000057E727E0386840F4A2
:104A80000030386061E70098012102F027FB0546FD
:104A90005BE7DAF80000D4F8841020F440100843F3
:104AA000CAF8000053E7386840F40030386058E72F
:104AB0000198022102F080FA054652E72E4801686B
:104AC000226D21F48031114301604CE7386840F4D5
:104AD0000030386065E7DAF80000E16F20F44070DC
:104AE0000843CAF800005EE70198002102F064FA6A
:104AF00000B106462079C04300F00200284305D1EA
:104B00000198012102F058FA00B106462079C0430D
:104B100000F00400284305D10198022102F04CFA6C
:104B200000B106462079C04300F00800284305D1B3
:104B30000098002102F0D2FA00B106462079C04365
:104B400000F01000284305D10098012102F0C6FAB8
:104B500000B106462079C04300F02000054305D18E
:104B60000098022102F0BAFA00B1064616B10120FF
:104B7000BDE8FC9F0020FBE74C4402582DE9F05FA4
:104B800004460D46002C17D0DFF84C82D8F8000000
:104B900000F00F00A84211D2D8F8000020F00F005A
:104BA0002843C8F80000D8F8000000F00F00A84221
:104BB00004D00120BDE8F09F0120FBE72078874E5C
:104BC00040070AD52069316801F07001884204D994
:104BD000316821F07001014331602078804F000777
:104BE0000AD56069396801F07001884204D93968D2
:104BF00021F07001014339602078C0060AD5A06910
:104C0000396801F4E061884204D9396821F4E0612F
:104C1000014339602078DFF8CC9180060DD5E0693A
:104C2000D9F8001001F07001884206D9D9F80010B7
:104C300021F070010143C9F80010207880070AD5DF
:104C4000E068316801F00F01884204D9316821F031
:104C50000F01014331602078C00743D03068A1685C
:104C600020F47060084330605C496068183902289D
:104C700008D003280BD001280ED00968490710D4AA
:104C8000012097E7096889030BD4012092E709689E
:104C9000890106D401208DE70968C90501D40120E6
:104CA00088E7DFF838A1AAF1080ADAF8001021F045
:104CB00007010143CAF80010FEF77AFF834609E0B6
:104CC000FEF776FFA0EB0B0141F28830814201D95B
:104CD00003206FE7DAF80000616800F03800B0EBFD
:104CE000C10FEDD1207880070AD5E068316801F066
:104CF0000F01884204D2316821F00F010143316075
:104D0000D8F8000000F00F00A8420ED9D8F8000033
:104D100020F00F002843C8F80000D8F8000000F089
:104D20000F00A84201D0012044E7207840070AD5AF
:104D30002069316801F07001884204D2316821F0A5
:104D4000700101433160207800070AD56069396835
:104D500001F07001884204D2396821F070010143EA
:104D600039602078C0060AD5A069396801F4E0618D
:104D7000884204D2396821F4E06101433960207827
:104D800080060DD5E069D9F8001001F07001884265
:104D900006D2D9F8001021F070010143C9F80010C3
:104DA00000F0A0F83168C1F303220F498A5C02F0D9
:104DB0001F02D040326802F00F02895C0B4A01F0FA
:104DC0001F0120FA01F111600949086009480068D3
:104DD000BDE8F05FFEF728BF0020005218440258DB
:104DE0001C440258204402588C4B01086062002485
:104DF0005C620024546200243F220260144A12685C
:104E000002F007024260124A0832136803F470632A
:104E10008360136803F00F03C360126802F070022E
:104E200002610B4A0C32136803F07003436112688D
:104E300002F4E0628261064A1032126802F07002E7
:104E4000C2610448006800F00F000860704700006D
:104E5000104402580020005200B500F043F80B49FE
:104E60000A68C2F303230A4AD35C03F01F03D84045
:104E7000096801F00F01515C064A01F01F0120FA98
:104E800001F11160044A1060084600BD1844025840
:104E90008C4B0108606200245C62002400B5FFF7BF
:104EA000DBFF05490968054AC1F30211515C01F0B5
:104EB0001F01C84000BD00001C4402588C4B010873
:104EC00000B5FFF7C9FF05490968054AC1F302218A
:104ED000515C01F01F01C84000BD00001C44025895
:104EE0008C4B010830B564480068654C10F03801FF
:104EF000624808D0021108290DD010290DD01829B8
:104F00000DD0104630BD21688906FBD52168C1F35C
:104F1000C101C84030BD104630BD5A4830BD564969
:104F200018310A6802F003020968C1F30511524BF7
:104F30001C331B6803F001034F4D24352D68C5F366
:104F4000CC0515FB03F300EE103AB8EE400A002939
:104F500077D0DFED4D0A484BB7EE001A20333AB355
:104F60009FED4A2A012A58D0022A6CD001EE901AED
:104F70001868F8EE611AC2EE212AC0F3080001EEAB
:104F8000900AF8EE611A40EE201A31EE810A22EE04
:104F9000800A1868C0F34620401C00EE900AF8EE24
:104FA000600A80EE201ABCEEC10A10EE100A30BD75
:104FB000226892061BD52268C2F3C102D04001EEDE
:104FC000900A1868F8EE612A01EE901AF8EE611A5C
:104FD00082EEA12AC0F3080001EE900AF8EE611AF1
:104FE00040EE201A31EE810A22EE000AD1E701EEEE
:104FF000901ADFED272A1868F8EE611A82EEA12ACE
:10500000C0F3080001EE900AF8EE611A40EE201A93
:1050100031EE810A22EE000ABBE701EE901A186811
:10502000F8EE611AC2EE212AC0F3080001EE900AE0
:10503000F8EE611A40EE201A31EE810A22EE800A63
:10504000A7E716E0FFE701EE901ADFED122A1868D5
:10505000F8EE611A82EEA12AC0F3080001EE900A70
:10506000F8EE611A40EE201A31EE810A22EE000AB3
:105070008FE7002030BD0000104402580090D0039C
:105080000044025840787D01000000390024744A31
:105090000024744C20BCBE4B2DE9F05F0446002C6C
:1050A00010D02078DFF8F883FE4EFF4DC0075DD0AA
:1050B000D8F8000000F03800316810281FD01828F8
:1050C00003D006E00120BDE8F09F01F003000228B4
:1050D00015D06068B0F5803F18D0E0B1B0F5A02FD2
:1050E00022D0286820F480302860286820F48020AE
:1050F0002860606860B3FEF75BFD074624E028681F
:10510000800333D5606810BB0120DCE7286840F4D9
:1051100080302860EDE7286820F480302860286817
:1051200020F480202860E4E7286840F4802028608C
:10513000286840F480302860DBE7FEF739FDC01BAB
:10514000C82801D90320BEE728688003F5D50DE003
:10515000FEF72EFD074606E0FEF72AFDC01BC82815
:1051600001D90320AFE728688003F5D420788007B1
:1051700064D5D8F8000000F038003168DFF82893D3
:1051800009F1040970B1182801D188070AD0E06834
:10519000A0B3296821F0190101432960FEF708FD39
:1051A00007462CE02868400701D5E06848B1286828
:1051B000E16820F0190008432860FEF7F9FC074673
:1051C00008E001207FE7FEF7F3FCC01B022801D9AD
:1051D000032078E728684007F5D5D9F80000217C3E
:1051E00020F0FE4040EA0160C9F8000026E0FEF72A
:1051F000DFFCC01B022802D9032064E70CE028680A
:105200004007F4D5D9F80000217C20F0FE4040EAA8
:105210000160C9F8000011E0286820F00100286052
:10522000FEF7C6FC074606E0FEF7C2FCC01B0228DC
:1052300001D9032047E728684007F5D42078C00645
:1052400055D5D8F8000000F038003168DFF85092EA
:105250000828A9F104090FD0182803D101F0030090
:10526000012809D0E06978B3286840F08000286000
:10527000FEF79EFC074619E02868C00504D5E069E2
:10528000802801D001201EE7D9F8000094F82010F2
:1052900020F07C5040EA0160C9F8000027E0FEF7EA
:1052A00087FCC01B022801D903200CE72868C00531
:1052B000F5D5D9F8000094F8201020F07C5040EA91
:1052C0000160C9F8000012E0FFE7286820F08000C4
:1052D0002860FEF76DFC074606E0FEF769FCC01B80
:1052E000022801D90320EEE62868C005F5D420780D
:1052F000000730D5DFF8AC91606909F14C09A8B11D
:10530000D9F8000040F00100C9F80000FEF750FC99
:10531000074606E0FEF74CFCC01B022801D903201B
:10532000D1E6D9F800008007F4D514E0D9F80000E0
:1053300020F00100C9F80000FEF73AFC074606E03D
:10534000FEF736FCC01B022801D90320BBE6D9F8C2
:1053500000008007F4D42078800626D5A06990B19B
:10536000286840F480502860FEF722FC074606E0DB
:10537000FEF71EFCC01B022801D90320A3E6286803
:105380008004F5D511E0286820F480502860FEF7ED
:105390000FFC074606E0FEF70BFCC01B022801D9F4
:1053A000032090E628688004F5D4207840075DD576
:1053B0003E4F386840F480703860FEF7F9FB814654
:1053C00007E0FEF7F5FBA0EB0900642801D90320F4
:1053D00079E63868C005F4D5324FA068483701280F
:1053E00012D0B0B105281DD0386820F00100386017
:1053F000386820F004003860A06841F2883930B382
:10540000FEF7D6FB82461EE0386840F001003860A7
:10541000F2E7386820F001003860386820F00400B6
:105420003860E9E7386840F004003860386840F0D8
:1054300001003860E0E7FEF7BBFBA0EB0A0048453F
:1054400001D903203FE638688007F4D50EE0FEF767
:10545000AFFB824607E0FEF7ABFBA0EB0A00484536
:1054600001D903202FE638688007F4D4616AB1B10E
:10547000D8F800004FF6F87BDFF828A00AF1080AF8
:10548000C0F3C20003280AF10409AAF104087CD081
:10549000022911D0286820F08070286008E0E5E03B
:1054A0001044025828440258004402580048025848
:1054B000FEF77EFB044689E0286820F080702860B3
:1054C000FEF776FB074606E0FEF772FBC01B0228DC
:1054D00001D90320F7E528688001F5D4306840F24F
:1054E000F3318843E16A40EA0110A16A0843306061
:1054F000208E4FF6FF72616B401E491EC0F30800FC
:1055000002EA41210843218F4FF4FE02491E02EABC
:105510000141084394F83C10491E120202EA01615D
:105520000843CAF80000D8F8000020F00100C8F8CD
:105530000000D9F80000A16C20EA0B0040EAC1008D
:10554000C9F80000D8F80000216C20F00C000843D6
:10555000C8F80000D8F80000616C20F00200084391
:10556000C8F80000D8F8000040F48030C8F8000007
:10557000D8F8000040F40030C8F80000D8F8000067
:1055800040F48020C8F8000000E023E0D8F80000D4
:1055900040F00100C8F80000286840F080702860E2
:1055A000FEF706FB044606E0FEF702FB001B02289E
:1055B00001D9032087E528688001F5D556E0FEF77C
:1055C000F7FA001B022801D903207CE52868800136
:1055D000F5D44BE03268DAF80000012921D0A36A43
:1055E00002F0030199421CD1E16AC2F30512914213
:1055F00017D1216BC0F30802491E8A4211D1616B99
:10560000C0F34622491E91420BD1A16BC0F3064262
:10561000491E914205D1E16BC0F30660491E8142EB
:1056200001D001204FE5D9F80000C0F3CC00A16CF7
:1056300081421BD0D8F8000020F00100C8F800001B
:10564000FEF7B6FA0546FEF7B3FAA842FBD0D9F842
:105650000000A16C20EA0B0040EAC100C9F800007C
:10566000D8F8000040F00100C8F8000000202AE54A
:1056700003490A6822F4600202430A60704700008E
:10568000040400587047704770470000F0B590F868
:105690003C20012A40D0012680F83C60022280F89C
:1056A0003D2003685A689C681C4FDFF874C0BB42F9
:1056B00001D0634503D122F470054A682A4322F0E1
:1056C00070050A682A435A600268BA4219D0B2F1DA
:1056D000804F16D0134B9A4213D0134B9A4210D0DE
:1056E000124B9A420DD062450BD0114B9A4208D012
:1056F000104B9A4205D0104B9A4202D00F4B9A425F
:1057000004D124F080038968194391603C304670CD
:10571000002101700020F0BD0220F0BD000001401A
:10572000000401400004004000080040000C00405C
:10573000001800400040014000E0004000E400404C
:1057400010B50446002C03D094F83D0010B107E0DA
:10575000012010BD002084F83C00204600F018F81D
:10576000022084F83D002068211D01F091FE0120F7
:105770003D34E0726070A070E07020716071A071C3
:10578000E07120726072A0722070002010BD0000D5
:1057900008B50068B0F1804F12D10A48016841F0A5
:1057A00001010160006800F0010000900022052165
:1057B0001C20FEF7EBFABDE808401C20FEF7D8BA23
:1057C00008BD0000E844025890F83D10012901D0BE
:1057D00001207047022180F83D100168CA6842F03C
:1057E0000102CA600068184988421AD0B0F1804F9F
:1057F00017D01649884214D01549884211D015494E
:1058000088420ED0144988420BD01449884208D0EF
:105810001349884205D01349884202D01249884270
:105820000CD18168114A114006290BD0B1F5803F97
:1058300008D0016841F00101016003E0016841F016
:105840000101016000207047000001400004004099
:1058500000080040000C0040000401400018004017
:105860000040014000E0004000E40040070001006B
:1058700070B50446002594F83C00012815D0012697
:1058800084F83C60022084F83D0020688268394B2F
:105890001A4022F47F4282600868702802462ED0A7
:1058A00010DC10F00F0F03D022E04FF0020070BDAB
:1058B0004FEA201007281BD2DFE800F05757575750
:1058C0004D394300B0F1101F4FD009DCB0F5805FB7
:1058D0000FD0B0F5005F1ED0B0F5801F08D144E0B6
:1058E000A0F58010203840D010283ED020283CD091
:1058F00001253C34667000202070284670BDCB68BE
:105900002068D1E9012101F031FE2068816841F071
:1059100077018160EDE7CB682068D1E9012101F0D2
:1059200025FE2068816841F480418160E1E7CA6812
:105930004968206801F02EFE2068502101F020FE09
:10594000D7E7CA684968206801F035FE2068602101
:1059500001F016FECDE7CA684968206801F01AFE1A
:105960002068402101F00CFEC3E72068114601F0D9
:1059700007FEBEE788FFCEFF70472DE9F0410446E1
:105980002068C66805694FF00007A90714D5B1075C
:1059900012D5F91E016101202077206880698007F7
:1059A00003D02046FFF7E8FF05E0204600F08EF820
:1059B000204600F08CF82777680717D5700715D5B3
:1059C00021686FF004000861022020772068806958
:1059D00010F4407F03D02046FFF7CEFF05E02046BD
:1059E00000F074F8204600F072F82777280716D5E3
:1059F000300714D521686FF0080008610420207773
:105A00002068C069800703D02046FFF7B5FF05E096
:105A1000204600F05BF8204600F059F82777E806AA
:105A200017D5F00615D521686FF010000861082021
:105A300020772068C06910F4407F03D02046FFF72C
:105A40009BFF05E0204600F041F8204600F03FF8BB
:105A50002777E80708D0F00706D021686FF001002B
:105A60000861204600F034F8280601D4A80408D5BF
:105A7000300606D521686FF4025008612046FFF712
:105A800002FEE80508D5300606D521686FF480705F
:105A900008612046FFF7F6FD680608D5700606D5B2
:105AA00021686FF040000861204600F01BF8A8064E
:105AB0000AD5B00608D521686FF02000086120469D
:105AC000BDE8F041FFF7E0BDBDE8F08170477047E9
:105AD00000680349884201D1FEF770B870470000A2
