:020000040800F2
:10000000F865002029030008AB580008B751000824
:10001000A9580008C70600086D7500080000000018
:10002000000000000000000000000000690200085D
:10003000E910000800000000C50200082D68000853
:100040004303000843030008430300084303000878
:100050004303000843030008430300084303000868
:10006000430300084303000843030008690F000826
:1000700043030008750F000843030008810F0008C0
:100080004303000843030008430300084303000838
:10009000090700084303000843030008430300085E
:1000A0004303000843030008430300084303000818
:1000B000456B00084303000843030008430300089E
:1000C00043030008430300084303000843030008F8
:1000D000296300083975000843030008430300083A
:1000E00043030008430300084303000843030008D8
:1000F0004303000843030008430300088D0F000872
:1001000043030008430300084303000843030008B7
:100110008D6F0008996F0008056D00084303000803
:100120004303000843030008990F00084303000835
:100130004303000843030008430300084303000887
:10014000590700084303000843030008430300085D
:100150004303000843030008A50F000843030008F9
:100160004303000843030008430300084303000857
:100170004303000843030008430300080000000095
:10018000430300084303000800F002F800F05CF8A5
:100190000AA090E8000C82448344AAF10107DA45E2
:1001A00001D100F051F8AFF2090EBAE80F0013F0D8
:1001B000010F18BFFB1A43F0010318479CCB000046
:1001C000BCCB00000A444FF0000C10F8013B13F0C8
:1001D000070408BF10F8014B1D1108BF10F8015BA0
:1001E000641E05D010F8016B641E01F8016BF9D193
:1001F00013F0080F1EBF10F8014BAD1C0C1B09D1EA
:100200006D1E58BF01F801CBFAD505E014F8016B5B
:1002100001F8016B6D1EF9D59142D6D370470000ED
:100220000023002400250026103A28BF78C1FBD8FF
:10023000520728BF30C148BF0B6070471FB50CF094
:10024000B0F91FBD10B510BD00F0E4F91146FFF77D
:10025000F5FF09F019FC00F002FA03B4FFF7F2FF12
:1002600003BC00F005FA00002C4B19680868B0E8E0
:10027000F04F80F30988BFF36F8F4FF0000080F3D9
:10028000118870470000000008480068006880F38B
:1002900008884FF0000080F3148862B661B6BFF39F
:1002A0004F8FBFF36F8F00DF00BF00BF08ED00E08E
:1002B000DFF80C00016841F470010160704700BF75
:1002C00088ED00E0EFF30980BFF36F8F134B1A68DE
:1002D0001EF0100F08BF20ED108A20E9F04F1060CB
:1002E00009B44FF0500080F31188BFF34F8FBFF374
:1002F0006F8F0AF0CFFD4FF0000080F3118809BC2A
:1003000019680868B0E8F04F1EF0100F08BFB0EC95
:10031000108A80F30988BFF36F8F70472C0000208C
:10032000EFF30580704700000948804709480047FF
:10033000FEE7FEE7FEE7FEE7FEE7FEE7FEE7FEE795
:10034000FEE7FEE704480549054A064B70470000F2
:10035000DD68000889010008F85F0020F8650020CA
:10036000F8610020F861002053EA020C00F0698077
:100370002DE9F04B4FF00006002B1FBFB3FA83F5B9
:1003800003FA05F424FA05F65E4012BF1643B2FAEA
:1003900082F502FA05F4C5F120051EBF22FA05FC1C
:1003A00044EA0C04203556EA044C4FEA144418BFC2
:1003B000641C4FF000084FF00009904271EB030CF1
:1003C00039D3002919BFB1FA81F701FA07F6B0FA5B
:1003D00080F700FA07F6C7F120071EBF20FA07FCD6
:1003E00046EA0C062037B6FBF4FCA7EB0507103FE6
:1003F00007F01F0BCBF120060CFA0BFB2CFA06F6CC
:1004000044BFB3460026202FA4BF5E464FF0000B2A
:100410005BEA060C08BF4FF0010B19EB0B09ABFBB5
:10042000027C48EB0608C01B06FB02CC0BFB03CC8E
:1004300071EB0C01C1E70B46024641464846BDE858
:10044000F08B13B54FF000004FF00001AFF30080C8
:10045000BDE81C407047032A40F2308010F0030CC6
:1004600000F0158011F8013BBCF1020F624498BF07
:1004700011F801CB00F8013B38BF11F8013BA2F1A4
:10048000040298BF00F801CB38BF00F8013B11F01F
:10049000030300F02580083AC0F0088051F8043BBF
:1004A000083A51F804CBA0E80810F5E7121D5CBF2C
:1004B00051F8043B40F8043BAFF30080D20724BF5F
:1004C00011F8013B11F801CB48BF11F8012B24BFF3
:1004D00000F8013B00F801CB48BF00F8012B704742
:1004E00010B5203AC0F00B80B1E81850203AA0E8CF
:1004F0001850B1E81850A0E81850BFF4F5AF5FEA03
:10050000027C24BFB1E81850A0E8185044BF18C9B5
:1005100018C0BDE810405FEA827C24BF51F8043B5C
:1005200040F8043B08BF7047D20728BF31F8023BB0
:1005300048BF11F8012B28BF20F8023B48BF00F844
:10054000012B704702F0FF0343EA032242EA024212
:1005500000F037B84FF0000200B5134694469646B7
:10056000203922BFA0E80C50A0E80C50B1F12001C6
:10057000BFF4F7AF090728BFA0E80C5048BF0CC074
:100580005DF804EB890028BF40F8042B08BF7047D2
:1005900048BF20F8022B11F0804F18BF00F8012B44
:1005A000704770477047704710B500F02BF800682F
:1005B00010BD10B5044600F025F8046010BD4FF0E2
:1005C00000020429C0F0128010F0030C3FF4C4AF05
:1005D000CCF1040CBCF1020F18BF00F8012BA8BF2E
:1005E00020F8022BA1EB0C01FFF7B6BF5FEAC17C3C
:1005F00024BF00F8012B00F8012B48BF00F8012BA5
:100600007047000000487047985F0020004870471E
:10061000985F00207546FFF7F9FFAE460500694672
:10062000534620F00700854618B020B5FFF78AFE34
:10063000BDE820404FF000064FF000074FF00008E3
:100640004FF0000B21F00701AC46ACE8C009ACE864
:10065000C009ACE8C009ACE8C0098D46704710B5C8
:100660000446AFF300802046BDE81040FFF7F5BD1B
:1006700001491820ABBEFEE7260002007047027F4A
:1006800062B10268C0E900128A1A8260416901EB16
:10069000D173B2EB630F09DD511A0EE041600160C6
:1006A00000218160C1600121017770474B4203EB5B
:1006B000D373B2EB630F01DA11448160D0E90221F8
:1006C0001144C1607047FEE700B58BB000200121E6
:1006D000CDE9060147F6FE720590CDE900200290B3
:1006E000039004900E20CDE908106946054802F0F9
:1006F0001DFA044802F0B1FE0221024802F09CF902
:100700000BB000BDC80F0020014802F010BB000074
:10071000C80F002000B58BB00E20059000200121ED
:10072000CDE9060147F6FE72CDE900200290039064
:1007300004901C20CDE908106946064802F0F6F93D
:10074000044802F08AFE0221024802F075F90BB05B
:1007500000BD0000F00F0020014802F0E8BA0000E0
:10076000F00F00207CB5160A8DF800608DF801208E
:100770001A0ADDE906548DF802202A0A8DF80420B1
:100780008DF80550220A8DF806208DF803308DF87B
:10079000074089B208236A4600F0A4F87CBD000037
:1007A0002DE9F0470C462DED028B814609786078E3
:1007B00004F002FD44490022C1E900028A60CA60D7
:1007C0006078012867D0022865D0042878D10820F5
:1007D0009FED3E8ADFED3E8A086194ED0B0A102002
:1007E000B0EE481AF0EE680A09F0F8F8074694ED02
:1007F0000C0A0E20B0EE481AF0EE680A09F0EEF886
:10080000804694ED0D0A1020B0EE481AF0EE680A0A
:1008100009F0E4F89FED308A064694ED0E0A0A20AE
:100820009FED2C1AF0EE480A09F0D8F8054694ED31
:100830000F0A08209FED291AF0EE480A09F0CEF8B9
:1008400027493A0A01230F704A70C8F3052281F83C
:10085000028042EA8512CA70AA080A7148718E7134
:10086000300AC8710A461849484602F0F7F80028CD
:1008700026D002231A4A1449484602F0EFF800280D
:100880001ED0174A0423BDEC028B4846BDE8F04752
:100890000D4902F0E3B80A61012300220A494846E3
:1008A00002F0DCF800280BD002230022064948465B
:1008B00002F0D4F8002803D004230022E3E7FFE786
:1008C000BDEC028BBDE8F087045D002000002042F3
:1008D000000020C200C07F440000000000004C4225
:1008E000290F002070B5104C064600202160A06042
:1008F000C4E90303154601232146304602F0AEF851
:1009000000280FD002232A462146304602F0A6F8DE
:10091000002807D02A4621463046BDE8704004230F
:1009200002F09CB870BD0000EC5C002010B50446DD
:100930002DED088B90ED000AD0ED070A70EE608A6D
:10094000C0ED038A90ED050AD0ED010A90ED04BADE
:1009500040EE208A2BEE008A60EE08AAB0EEE8AAEC
:100960001AEE100A0BF0ACFDB2EE000A41EC190BC6
:100970002BEE000A10EE100A0BF0A2FD53EC192B1F
:100980000BF0A8FA28EE080A41EC190B10EE100A39
:100990000BF096FD53EC192B0AF0E6FF41EC100B1F
:1009A00008F044FD51EC100B0AF0ACFF00EE900A89
:1009B000B4EEEAAAF1EE10FA0EDDB0EE680A05F028
:1009C00065FD70EEC80AB6EE001A60EE200A94EDDE
:1009D000010A00EE810A07E094ED050AC8EE800ADC
:1009E00094ED010A30EE800AF0EEC00AF4EEC80A77
:1009F000F1EE10FA08DD05F049FDD4ED040AF1EE40
:100A0000600A20EE200A05E0D4ED040A60EEC00A78
:100A100080EE880AD4ED001A94ED061AD4ED010A8E
:100A200041EE201AC4ED001A41EE000AC4ED010A9D
:100A3000BDEC088B10BD00002DE9F05FDFF8F8A1D8
:100A400099462DED068B16460C460546DDED138ABC
:100A5000129FDDED11AA9FED79AA40880AF1140BCF
:100A6000A0F6280000EE100A1046DDF84080B8EE2F
:100A7000C08A0BF0E0F941EC190BB0EEC80A10EE99
:100A8000100A0BF01DFD53EC192B0BF0E7F902D205
:100A90008AED02AA2AE0B5EEC08AF1EE10FA0EDD68
:100AA00000EE106AB8EE400A78EE400A00EE109AA6
:100AB000B8EEC00A20EE800ADFED610A12E0B5EE62
:100AC000C08AF1EE10FA11D200EE106AB8EE400AB8
:100AD00078EE000A00EE109AB8EEC00A20EE800A06
:100AE000DFED580A80EE201A8AED021AA888A0F5D8
:100AF000EA6000EE100A4046B8EEC08A0BF09BF99F
:100B000041EC190BB0EEC80A10EE100A0BF0D8FC3D
:100B100053EC192B0BF0A2F902D28BED02AA26E0BE
:100B2000B5EEC08AF1EE10FA0CDD00EE108AF8EE98
:100B3000EA0AB8EE400A38EE400A20EE200ADFED5D
:100B4000420A10E0B5EEC08AF1EE10FA0FD200EEC4
:100B5000108AF8EEEA0AB8EE400A38EE000A20EEF3
:100B6000200ADFED3A0A80EE201A8BED021AE8889F
:100B7000A0F69E0000EE100A3846B8EEC08A0BF0D0
:100B80005AF941EC190BB0EEC80A10EE100A0BF03E
:100B900097FC53EC192B0BF061F904D2264828304E
:100BA00080ED02AA28E0B5EEC08AF1EE10FA0CDD65
:100BB00000EE107AF8EEE80AB8EE400A38EE400A85
:100BC00020EE200ADFED220A10E0B5EEC08AF1EE39
:100BD00010FA11D200EE107AF8EEE80AB8EE400AE8
:100BE00038EE000A20EE200ADFED1A0A124880EEE5
:100BF000201A283080ED021A0F4804F00FFC0E482E
:100C0000143004F00BFC0C48283004F007FC9AED7B
:100C1000010A094884ED730A9BED010A2830B1EE00
:100C2000400A84ED740A90ED010A84ED750ABDEC6A
:100C3000068BBDE8F09F0000640F0020000000005C
:100C4000005002C500C0F9C40080E9C400700AC5A4
:100C50000040EB440090094510B504462DED028B91
:100C6000B0EE608A80ED310AA830FFF75FFE94EDA8
:100C70002A0AF0EE480A04F1540005F0BBF894ED9E
:100C8000200ADFED0B0A9FED0B1A204620EE200A0A
:100C9000D4ED2B0A00EE810AD4ED010A05F0AAF882
:100CA00094ED0B0A84ED340ABDEC028B10BD0000FC
:100CB0003333333F9A99993EB4EEE00AF1EE10FADD
:100CC00002D2B0EE600A7047B4EEC10AF1EE10FA3B
:100CD000F9DDB0EE410A7047DFED0C0A0C480D4A11
:100CE00010EE101A814202DB30EE600A05E010EED1
:100CF000101A914201D930EE200A10EE101A8142EA
:100D0000EEDA10EE101A9142EAD87047DB0FC940B4
:100D1000DB0F4940DB0F49C070B50C462DED048B4D
:100D2000B0EE408A054600F067F8204600F064F80F
:100D30009FED2E0A38EE008AB0EE480A08F0AEFAAF
:100D4000D5ED010A60EE208AB0EE480A07F04AF8B5
:100D5000D5ED000A40EEC08AB0EE480AC4ED008A24
:100D600008F09CFAD5ED000AF1EE600A60EE208AE8
:100D7000B0EE480A07F036F8D5ED010A40EEC08A19
:100D8000C4ED018A18EE900A0BF09AFB9FED189BB8
:100D900041EC100BB0EE491AF0EE691A07F024F995
:100DA000B0EE408AF0EE608A20680BF089FB41ECDF
:100DB000100BB0EE491AF0EE691A07F015F953EC72
:100DC000182B51EC100B0AF0CFFD41EC100B08F082
:100DD0002DFB51EC100B0AF095FDE06095ED020A39
:100DE00084ED020ABDEC048B70BD0000DB0FC93F2F
:100DF000000000000000004010B504462DED048BFB
:100E0000007D01281FD000281AD194EC020A01F0BD
:100E1000B9FD84ED030A94ED019A2749B0EEC90AA1
:100E200010EE100A884229DC94ED000AB0EEC00AE8
:100E300010EE100A884221DC9FED200A84ED040A9E
:100E4000BDEC048B10BD94ED040A9FED1D8A20EECD
:100E5000080A06F0C7FFD4ED030A20EE200A84ED4D
:100E6000000A94ED040A20EE080A08F017FAD4EDFF
:100E7000030A20EE200A84ED010AE1E720680BF066
:100E80001FFB41EC180B19EE100A0BF019FB41EC9B
:100E9000100BB0EE481AF0EE681A06F04DFD9FED0B
:100EA000091B51EC100B53EC112B0AF019FE0AF040
:100EB00029FD2061C4E70000ACC527370000000011
:100EC00035FA8E3C000000A046DF913F70B5D0EDB2
:100ED0000B0A0446C0ED430A90ED0A1A04F13406E9
:100EE00080ED421A90F8200150B304F188050128E2
:100EF00029D0022823D194ED460A04F1DC0084EDC8
:100F00003E0AFFF713FDD4ED420A94ED370A284656
:100F100004F070FF94ED2D0ADFED110A9FED111A18
:100F200020EE200AD4ED380A00EE810AD4ED430AFF
:100F3000304604F05FFF94ED180A84ED0C0A70BD92
:100F400094ED470AF4E794ED460AF0EE410A28468C
:100F500004F050FFD4ED430A94ED2D0AE8E70000B9
:100F60003333333F9A99993E014802F003BB0000A6
:100F700050120020014802F0FDBA0000901100203C
:100F8000014802F0F7BA0000F0110020014802F019
:100F9000F1BA0000B0120020014802F0EBBA0000E4
:100FA00010130020014802F0E5BA00007013002081
:100FB00001681823CAB2103AB2FBF3F2054B6FF383
:100FC0000901032A9B5CC36500D9091D8165084698
:100FD0007047000074C8000810B5014600208B69F6
:100FE0008A6A4FF0C07453B1B3F5005F15D072B187
:100FF000012A0CD0022A0AD0032A09D104E01AB12E
:10100000012A06D0022A03D1C96AC90100D50120EC
:1010100010BDC96AA142FAD010BD002AF7D0012A3A
:10102000F2D0022AF3D0032AF3D010BD30B5046801
:10103000256825F480252560046863608368402B5B
:10104000036803D099600068C26030BD9A60006890
:10105000C16030BD2DE9F041008805270426032337
:1010600002251D491D4A1E4C801E0D280CD2DFE8AA
:1010700000F007090D10121416181A1C1E20270064
:10108000002004E017480370BDE8F08101200870DB
:10109000FAE71570F8E71370F6E71670F4E71770C3
:1010A000F2E70D70F0E70B70EEE70E70ECE70F70F3
:1010B000EAE701222021204602F0B6FC002205E0EA
:1010C00000222021204602F0AFFC01222046BDE88C
:1010D000F041402102F0A8BC240F0020240C002085
:1010E000000C0240A80C002070470000F0B5674ECD
:1010F000674D684C2DED028B83B03078022828D0E4
:10110000D4ED230A94ED220A04F1880004F082FF52
:10111000D4ED120A94ED110A04F1440004F07AFFB0
:1011200094EC020A204604F075FF5B48FFF7CEFE00
:101130005A48FFF7CBFE5A48FFF7C8FE307805281B
:1011400007D196F8DD01022876D0042874D005284E
:1011500072D09FED540A85ED0C0A94F8CC00DFEDB7
:10116000528A9FED528A524E012869D094ED270A87
:10117000B0EE681AF0EE480AFFF79EFD86ED020A0F
:1011800094ED050AB0EE681AF0EE480AFFF794FDF8
:1011900086ED010A94ED160AB0EE681AF0EE480AE0
:1011A000FFF78AFD86ED000A95ED0C0A00214FF449
:1011B0000074BDEEC00A10EE100A00B2CDE90001C5
:1011C00096ED020A2146BDEEC00A10EE100A03B2E7
:1011D000314890ED0C0ABDEEC00A10EE100A02B2C2
:1011E0003448FFF7BFFA96ED000A2C49BDEEC00A5D
:1011F00010EE100A91ED0C0A00B2BDEEC00A10EE1E
:10120000101A09B2CDE9001096ED010A2146BDEE93
:10121000C00A10EE100A03B2214890ED0C0ABDEE90
:10122000C00A10EE100A02B22348FFF79BFA03B07F
:10123000BDEC028BF0BDFFE71548FFF747FE8CE7DA
:1012400008F0E0FB1D4F94ED270AB0EE681AD7EDC9
:10125000021AF0EE480A30EE210AFFF72DFD86ED66
:10126000020A94ED050AD7ED011AB0EE681AF0EE05
:10127000480A30EE210AFFF71FFD86ED010A94EDC2
:10128000160AD7ED001A30EE210A85E7A80C0020D7
:10129000C4070020540B0020980600206C05002095
:1012A000400400200000000000606A4600606AC63A
:1012B000705E0020C80F0020F00F0020645E002048
:1012C00072B6FEE72DE9F04FDFF800A44FF0050BF2
:1012D0002DED068B83B09AF800C0FD48DFF8F4E3EB
:1012E000DFF8F493F3EE099AB1EE00AA9FEDFB9AB2
:1012F000FB4E9FEDFC8ADFEDFC8AFC4FFC49D1EDF3
:10130000001AFC4991ED001AFB49D1ED050AFB4991
:1013100091ED050AFA4991ED032ADFEDFA2A72EE02
:10132000622AB0EEE23ADFEDF82AF84972EE622A5C
:10133000CA7802920979F0EEE23ADFEDF52A5346D7
:101340000191996972EE622A4A1E00921A7F012564
:101350001B6A0024F0EEE22ABCF1090F7ED2DFE81E
:101360000CF0059ACDFDFCFBFAF9F80080F8DC41A1
:1013700080F8DD4101222021F046704602F054FB46
:1013800000224021404602F04FFB8AF814408AF8C0
:101390001540C9ED0E9A89ED0FAA504689ED059AC0
:1013A0009FEDDC0AF7EE000A89ED060A89ED070ACF
:1013B000C6ED040A86ED058AC6ED0A8A86ED0B0A9B
:1013C00086ED0C0AC7ED040A87ED058AC7ED0A8A87
:1013D00087ED0B0A87ED0C0A90ED060AF8EEC00ABD
:1013E000DFEDCD1ADFEDCD2AB0EE621A10EEA11AB4
:1013F000DFEDCB0A81EE202ADFEDCA0ABC49B8EE48
:10140000C00AB0EE621A10EE211A72EE600A91ED77
:10141000002A70EE820AC0ED020ADFEDC31A81EEE7
:10142000210A9FEDC21AB349C24A30EE010A91ED7A
:10143000001AB14930EE010A9FEDBD1A80ED030A92
:1014400080ED041AD1ED051A71EEE00AF0EEE00A23
:1014500010EE901A914219DAA84900E016E0D1ED99
:10146000050A30EEC00AB0EEC00A10EE101A914222
:101470000CDAA349B04A91ED030A30EE410AB0EE0E
:10148000C00A10EE101AFDE38AF8005003B0BDEC5C
:10149000068BBDE8F08F8AF81C40CAF8204080F81F
:1014A000DC4180F8DD418AF814408AF81540C9ED26
:1014B0000E9A89ED0FAA9FEDA10A89ED050A9FED0D
:1014C000950A89ED060A89ED070ADFED9D0AC6ED4A
:1014D000040A86ED058A9FED9B1A86ED0A1A86EDB1
:1014E0000B0A86ED0C0AC7ED040A87ED058A87ED25
:1014F0000A1A87ED0B0A87ED0C0AC7E79AF801C0B4
:10150000BCF1000F0ED0BCF1010F7BD0BCF1020F7B
:1015100079D0BCF1030FB9D15646002A74D0012A04
:1015200073D0F9E16A4980F8DC41084681F800B0DF
:1015300080F8DD5101222021F046704602F074FA55
:1015400000224021404602F06FFA50468AF81440CB
:1015500005E0FDE3FDE3FDE3FDE3FDE3F1E18AF8F2
:101560001540C9ED0E9A89ED0FAA89ED059A9FEDF8
:10157000690AF7EE000A89ED060A89ED070AC6ED49
:10158000040A86ED058AC6ED0A8A86ED0B0A86ED09
:101590000C0AC7ED040A87ED058AC7ED0A8A87EDB4
:1015A0000B0A87ED0C0A90ED060AB3EE023ADFED66
:1015B0005A1AF8EEC00AB0EE431A00EEA11A9FEDD7
:1015C000582AC1EE020A9FED602A4949B8EEC00AC6
:1015D000B0EE431AD1ED002A00EE211A70EEC20AD5
:1015E00070EEA20AC0ED020ADFED4F1A414981EE0A
:1015F000210A91ED001A30EE020A30EE010A80ED68
:10160000030A03E02DE0F0E069E16DE19FED3D1A92
:10161000394980ED041AD1ED051A464971EEE00A08
:10162000F0EEE00A10EE902A8A42BFF666AF334A27
:10163000D2ED050A30EEC00AB0EEC00A10EE102A54
:101640008A42F2DA2E493C4A91ED030A30EE410A11
:10165000B0EEC00A10EE101A9142E6DA8AF8015094
:1016600014E78AF81C408AF814509FED382A8AF84B
:10167000155089ED0E2AB2EE042A89ED0F2A9FED4E
:10168000252A89ED059A89ED062ADFED312A89EDB3
:10169000072A9FED303AC6ED042A86ED053AC6EDDD
:1016A0000A8A86ED0B2A86ED0C2AC7ED042A87EDFF
:1016B000053AC7ED0A8A87ED0B2A87ED0C2A02EE60
:1016C000101A5246B8EEC23A46E00000240C002040
:1016D000A80C0020000C0240400900200050C34725
:1016E000540A00208FC2753D00247449A80A0020C6
:1016F000FC0A0020000B0020705D0020B05D00207F
:101700004C5D0020218CF4BFE49F46C0320F0020C6
:10171000600EF0BF6F12833A0000B4430000B44281
:10172000F2D210C1E17AAC41F2D210413D0AAB4194
:101730007CA352BF4A0C223FCDCCCC3D00007A4462
:101740009A99193F00409C450000AC4100001643A7
:1017500033333340CDCC4C3E5FED112ADFEDFE4AF2
:10176000B0EE642A03EE222A1FED133A82EE034AFA
:101770001FED0B3AB0EE642A34EE434A74EE211AA0
:1017800004EE101AF549C2ED021AB8EEC44A70EE22
:10179000E10A04EE222A1FED1C4AF0EEE00A10EEE8
:1017A000903AC2EE042A8B4232EE832A32EE011ABC
:1017B0001FED2B2A82ED031A82ED042ABFF69DAE9F
:1017C00030EE410AB0EEC00A10EE103A8B42F5DA64
:1017D00013EE901AE24B9942F0DA02218AF80110D6
:1017E00080F8DC4180F800B0DAE1D44612B1012A79
:1017F0000BD056E00299E9B3CCF820408CF81C508D
:1018000080F8DC4180F8DDB14BE0052B49D98CF83C
:1018100014408CF81550F7EE082AC6ED042A9FED07
:10182000D13A86ED053AC6ED0A8A1FED462A86EDC5
:101830000B2A86ED0C2AC7ED042A87ED053AC7ED81
:101840000A8A87ED0B2A87ED0C2A02EE101AB8EEF1
:10185000C23A5FED4F2A9FEDC44AB0EE442A03EE30
:10186000222A1FED513AC2EE033A1FED493A73EEB8
:10187000C33A00E015E073EEA11AB0EE442ACCEDB5
:10188000021A01EE901AF8EEE11A01EEA22A5FEDBB
:101890005A2AC2EE221A71EE831A31EE811A8CEDA9
:1018A000031A9CED021AB14870EEC10AF0EEE00A8C
:1018B00010EE901A81428ADADCED030A30EE600AFB
:1018C000B0EEC00A10EE101A814285DA9CF81400BE
:1018D00000287FF412AE03208CF80100EEE101989D
:1018E000D0B13462357717E0052B15D9347574758E
:1018F000C9ED0E9A89ED0FAA89ED059A1FED7B0AB5
:1019000089ED060A89ED070A9FED990A86ED040A1A
:1019100080F8DC4180F8DD4196ED040A904A32EE11
:10192000400AB0EEC00A10EE100A9042C3DA707D91
:101930000028CED1347074703477491CCAF818105E
:10194000A4E59AF802C0D046BCF1000F0DD0BCF15E
:10195000010F7CD0BCF1020F7AD0BCF1030FEFD1A4
:10196000002A76D0012A75D0D7E180F8DC4180F8D2
:1019700000B0032280F8DD2188F8144088F8154073
:10198000C9ED0E9A89ED0FAA89ED059A1FED9F2AE0
:10199000F7EE002A89ED062A89ED072AC6ED042A0A
:1019A00086ED058AC6ED0A8A86ED0B2A86ED0C2A9D
:1019B000C7ED042A87ED058AC7ED0A8A87ED0B2A51
:1019C00087ED0C2A02EE101AF3EE024A5FEDAE2A02
:1019D000F8EEC23AB0EE642A03EEA22A5FEDB03A06
:1019E00082EE234A5FEDA83AB0EE642A34EE634AF1
:1019F00074EE211A04EE101AC8ED021AB8EEC44AA9
:101A000004EE222A1FEDB84AC2EE042A32EEA32ABF
:101A100032EE011A88ED031A1FEDC62A70EEE10AB4
:101A2000524888ED042AF0EEE00A10EE901A814246
:101A300086DA30EE410AB0EEC00A10EE101A81428A
:101A4000F6DA13EE100A4B498842F1DA03E00CE0B3
:101A5000A9E036E13CE18AF80250002220217446D8
:101A6000704601F0E1FF0122FDE388F81C4088F890
:101A7000145088F81550DFED402AC9ED0E2AF2EE19
:101A8000042AC9ED0F2A89ED059A5FEDDE2AC9ED1A
:101A9000062AC9ED072A1FEDD23A86ED043A1FED5A
:101AA000D33AF0EE083A86ED053AC6ED0A8AC6ED5D
:101AB0000B2AC6ED0C2AC7ED043A87ED053AC7EDAF
:101AC0000A8AC7ED0B2AC7ED0C2A02EE901AF8EE2F
:101AD000E23A5FEDEF2A9FED293A03EEA23A1FEDBD
:101AE000F04AC3EE043A1FEDF13A33EEC33A73EE17
:101AF000211A03EE101AC8ED021AF8EEC33A9FED50
:101B0000203A03EEA23A5FEDF83AC3EE232A1FED26
:101B1000F93A70EEE10A1549F0EEE00A10EE902A6B
:101B20008A4272EE832A32EE811ADFED162A88EDA0
:101B3000031AC8ED042A88DA30EE410AB0EEC00A72
:101B400010EE102A8A42F6DA32EE620A0E4AB0EE3F
:101B5000C00A10EE101A19E00000B0424A0CA23F71
:101B60009A99993E0AD7A33D000034434A0C223F7C
:101B70009A99D9BFCDCCCC3D000096430000B2422B
:101B80006666B542036144C09A99193E9142D2DA21
:101B900002218AF8021080F8DC4180F800B00421AC
:101BA00080F8DD1172E412B1012A1CD067E012EE58
:101BB000101AFE4A91420BD99FEDFD1A5FED171ADC
:101BC00086ED041AC6ED051A87ED041AC7ED051A4D
:101BD0000299E9B3C8F8204088F81C5080F8DC412D
:101BE00080F8DDB14BE0322B49D988F8144088F8F1
:101BF00015509FEDF03A5FED252A86ED043AC6EDCB
:101C0000052AC6ED0A8A9FEDEC2A1FED294A86EDCA
:101C10000B2A86ED0C2A87ED043AC7ED052AC7ED9D
:101C20000A8A87ED0B2A87ED0C2A02EE101ADFEDE7
:101C3000E32AB8EEC23AB0EE442A03EE222A9FED20
:101C4000E03AC2EE033A9FEDDF3A73EEC33A00E0AA
:101C500015E073EEA11AB0EE442AC8ED021A01EEA7
:101C6000901AF8EEE11A01EEA22ADFEDD72AC2EEB1
:101C7000221A71EE831A31EE811A88ED031A98ED5B
:101C8000021A00E0F4E370EEC10AD048F0EEE00A78
:101C900010EE901A814285DAD8ED030A30EE600A20
:101CA000B0EEC00A10EE101A8142F4DA98F814006F
:101CB00000287FF422AC032088F802008AF81C4038
:101CC0001BE4019848B3C8F8204088F81C5024E071
:101CD000052B22D988F8144088F81540C9ED0E9AD2
:101CE00089ED0FAA89ED059A9FEDB30A89ED060AE1
:101CF00089ED070A1FED620A012288ED040A80F8C7
:101D0000DC4180F8DD4120217546704601F08CFEF3
:101D100000224021284601F087FEAD48D8ED040A94
:101D2000AC4990ED030A30EE600AB0EEC00A10EE46
:101D3000100A8842C4DA98F815000028C0D188F843
:101D4000004088F8024088F81C40D8F8180004E0E9
:101D5000FEE3FEE3FEE306E203E0401CC8F81800E1
:101D60007EE49AF803C0BCF1000F0CD0BCF1010F67
:101D70007DD0BCF1020F7BD0BCF1030FF0D15346F4
:101D8000002A76D069E180F8DC4180F800B080F864
:101D9000DD4101222021F046704601F045FE00227F
:101DA0004021404601F040FE8AF814408AF8154070
:101DB000B3EE040A89ED0E0AB0EE080A504689ED2A
:101DC0000F0A9FED850A89ED050A9FED7B0A89EDD3
:101DD000060A89ED070ADFED810AC6ED040A86EDE1
:101DE000058A9FED7F1A86ED0A1A86ED0B0A86EDAD
:101DF0000C0AC7ED040A87ED058A87ED0A1A87EDFC
:101E00000B0A87ED0C0A90ED060AF8EEC00ADFED2A
:101E10006B1A9FED743AB0EE431A10EEA11A9FEDC3
:101E2000682AC1EE020A9FED672A6F49B8EEC00A20
:101E3000B0EE431AD1ED002A10EE211A70EEC20A5C
:101E400070EEA20AC0ED020ADFED5F1A674981EE6B
:101E5000210A91ED001A30EE020A30EE010A80EDFF
:101E6000030A9FED631A634980ED041A02E027E03C
:101E70004EE0F0E0D1ED051A544971EEE00AF0EEC3
:101E8000E00A10EE902A8A42BFF66AAF5A4AD2EDB3
:101E9000050A30EEC00AB0EEC00A10EE102A8A42DF
:101EA000F2DA4B49554A91ED030A30EE410AB0EEA1
:101EB000C00A10EE101A9142E6DA8AF803503FE5A4
:101EC00080F8DC41062180F8DD118AF814408AF898
:101ED00015509FED4B0A89ED0E0AB2EE000A89ED0E
:101EE0000F0A9FED3D0A89ED050A9FED330A89ED42
:101EF000060A89ED070A9FED430A13EE900A354A58
:101F00008AED040A9042DADA02208AF8030017E523
:101F10005046EAB3B3F5C87F7DD905754575F7EE30
:101F2000082AC6ED042A1FEDF13ADFED373A86EDB7
:101F3000053A9FED212AC6ED0A3A86ED0B2A86ED79
:101F40000C2AC7ED042A87ED053AC7ED0A3A87ED5A
:101F50000B2A87ED0C2A02EE101A9FED2C4ADFEDBA
:101F6000172AB8EEC23AB0EE442A13EE222A9FEDA9
:101F7000143AC2EE033A9FED133A73EEC33A73EE8E
:101F8000A11AC0ED021A01EE901AF8EEE11A00E073
:101F90005EE0B0EE442A11EEA22ADFED0B2AC2EE7B
:101FA000221A71EE831A31EE811A32E0669B4FC01D
:101FB0003333333FCDCCCC3F6F12833A0000B44370
:101FC000F2D210C10000AC41F2D210414A0C223FC3
:101FD0004C5D00209A99993E00007A449A99193FE5
:101FE00000409C4500003E43FC0A0020000B0020FE
:101FF000600EF0BF705D0020B05D0020CDCCCC3D08
:1020000000007042E49F46C000803B4500008743CB
:1020100001E080ED031A90ED021A70EEC10AF0EEB5
:10202000E00A10EE902AFE498A42BFF648AFD0ED92
:10203000030A30EE600AB0EEC00A10EE102A8A429F
:10204000F3DA017D01297FF43AAF0321C17035E64F
:1020500004620577DFE71C621D7780F8DC4180F8B9
:10206000DD411D755D759FEDEF2AB7EE083A89EDEC
:102070000E2AB1EE082A89ED0F2AB2EE042A89ED64
:10208000052A1FED332A89ED062A89ED072A86EDF8
:10209000043ADFEDE53AC6ED053A9FEDE44A86EDF8
:1020A0000A4A86ED0B2A86ED0C2A87ED043AC7ED25
:1020B000053A9FEDDF3A87ED0A3A87ED0B2A87ED67
:1020C0000C2A02EE101AF8EEC23A1FED443ADFED88
:1020D000D94AB0EE642A13EE832A5FED473A82EEC6
:1020E000234A5FED483AB0EE642A34EE634A74EE58
:1020F000211A04EE101AC3ED021AB8EEC44A14EE07
:10210000032A1FED4F4A82EE043A33EE232A32EEC1
:10211000011A83ED031A1FED4A2A83ED042A186A77
:10212000B0F5487F01D91C755C7512EE901AC24A51
:10213000914210DA70EEE10AB949F0EEE00A10EED1
:10214000902A8A4207DA30EE410AB0EEC00A10EE59
:10215000102A8A4203DBB0F57A7F7FF6B0AE1C709E
:10216000DC701C7734E29AF80480D446B8F1000F92
:102170000CD0B8F1010F77D0B8F1020F75D0B8F1DB
:10218000030F7FF49CAE002A70D092E1D0461AB9BA
:10219000CAF8204088F81C5080F8DC4180F800B074
:1021A00080F8DD4100222021F246704601F03CFC1F
:1021B00001224021504601F037FC88F8144088F88D
:1021C0001540D8F820204146B2F5FA6F60D9B3EE39
:1021D000040A89ED0E0AB0EE080A89ED0F0A1FED18
:1021E000820A89ED050A1FED8C0A89ED060A89ED40
:1021F000070A5FED860AC6ED040A86ED058A1FED23
:10220000881A86ED0A1A86ED0B0A86ED0C0AC7EDD0
:10221000040A87ED058A87ED0A1A87ED0B0A87ED18
:102220000C0A91ED060AF8EEC01A1FED9C1A1FED7C
:10223000933AF0EE430A51EE810A5FED9F1A80EE69
:10224000A12A5FEDA01A7D48B8EEC00AF0EE430A5D
:10225000D0ED002A50EE010A32EE612A32EE222A37
:1022600081ED022A03E012E145E070E01DE11FED7F
:10227000AA1A734880EE810AD0ED000A30EE210AD6
:1022800030EE200A81ED030A1FEDA70A81ED040A52
:102290006C48D1ED020A90ED050A6B4830EE600AF9
:1022A000B0EEC00A10EE103A8342BFF608AE674B9C
:1022B000D1ED030A93ED050A30EE600AB0EEC00AD4
:1022C00010EE103A8342F0DA6148D1ED040A614B16
:1022D00090ED030A30EE600AB0EEC00A10EE100A6C
:1022E0009842E2DA40F6282082427FF6E8AD0D718E
:1022F00088F81C4056E480F8DC41062180F8DD11A6
:102300008CF814408CF815509FED530A89ED0E0A95
:10231000B2EE000A89ED0F0A1FEDD10A89ED050A18
:102320001FEDDB0A89ED060A89ED070A9FED4B0ACE
:102330004B498CED040A32EE400AB0EEC00A10EEB2
:10234000100A8842D6DA02208AF804002AE4EAB3A6
:10235000B3F5C87F4BD98CF814508CF81550B7EEF4
:10236000083ADFED312A86ED043AC6ED052A5FED25
:10237000DA3AC6ED0A3A1FEDF02A9FED3A4A86EDA9
:102380000B2A86ED0C2A87ED043AC7ED052AC7ED26
:102390000A3A87ED0B2A87ED0C2A02EE101A5FED40
:1023A000F92AB8EEC23AB0EE442A13EE222A1FED03
:1023B000FC3AC2EE033A9FED2C3A73EEC33A73EE49
:1023C000A11ACCED021A01EE901A00E068E0F8EED6
:1023D000E11AB0EE442A11EEA22ADFED242AC2EE61
:1023E000221A71EE831A31EE811A8CED031A9CEDDC
:1023F000021A0B4970EEC10AF0EEE00A10EE900AE4
:102400008842A3DADCED030A30EE600AB0EEC00ABF
:1024100010EE100A884299DA9CF81400012828E08E
:102420004A0CA23F00000C420AD7A33D00003442F0
:10243000000048420000AF439A99993EFC0A0020F0
:10244000000B0020705D00204A0C223FB05D002090
:102450004C5D0020CDCCCC3D0000B442B20241C066
:10246000CDCC4C3E008089430000AC41F2D21041FB
:10247000ACE17FF46BAF03208CF804008AF81C40B9
:10248000012220217446704601F0CEFA002203B0EA
:102490002046BDEC068B4021BDE8F04F01F0C4BAE8
:1024A000CCF820408CF81C50A1E7CCF820408CF8E8
:1024B0001C5080F8DC4180F8DD418CF814501FED91
:1024C000274A8CF8155089ED0E4AB1EE082A89ED9D
:1024D0000F2AB2EE042A89ED052A9FEDFE2AB7EEF7
:1024E000083A89ED062A89ED072A5FED313A86ED33
:1024F000043AC6ED053A86ED0A4A86ED0B2A86EDCA
:102500000C2A87ED043AC7ED053A9FEDF33A5FEDEB
:10251000374A87ED0A3A87ED0B2A87ED0C2A02EE3F
:10252000101A9FEDEE3AF8EEC23AB0EE642A13EEBE
:10253000832ADFEDEB3A82EE234A5FED353A34EE43
:10254000634A74EE211A04EE101ACCED021A02E06E
:1025500040E1BCE040E0B8EEC44AB0EE642A14EEBC
:10256000032A1FED3E4A82EE043A33EE232A32EE6E
:10257000011A8CED031A9FEDDB2A8CED042ADCF89E
:102580002000B0F5617F03D98CF814408CF8154019
:1025900012EE901AD44A914210DA70EEE10AD34951
:1025A000F0EEE00A10EE902A8A4207DA30EE410A95
:1025B000B0EEC00A10EE102A8A4203DBB0F57A7F33
:1025C0007FF698AE8CF800408CF804408CF81C40E4
:1025D0000098CAF8180072E480F8DC4180F800B076
:1025E00080F8DD418AF814408AF81540B3EE042AD9
:1025F00089ED0E2AB0EE082A504689ED0F2A9FED8C
:10260000BC2A89ED052A9FEDB32A89ED062A89EDBA
:10261000072ADFEDB82AC6ED042A86ED058ADFED2C
:10262000B63AF3EE024AC6ED0A3A86ED0B2A86ED7B
:102630000C2AC7ED042A87ED058AC7ED0A3A87ED13
:102640000B2A87ED0C2A02EE101ADFEDA42AF8EE11
:10265000C23AB0EE642A03EEA22ADFEDA13A82EE7E
:10266000234A5FED7F3AB0EE642A34EE634A74EE9B
:10267000211A04EE101AC0ED021AB8EEC44A04EE94
:10268000222A1FED864AC2EE042A32EEA32A32EE37
:10269000011A80ED031A9FED992A70EEE10A98491C
:1026A00080ED042AF0EEE00A10EE902A8A4292DAD7
:1026B00030EE410AB0EEC00A10EE102A8A428ADAE1
:1026C00013EE101A8F4A914285DA0570BFE48E4AE4
:1026D00080F8DC41104682F800B080F8DD418AF8CD
:1026E000145050468AF815505FEDB22AC9ED0E2AF3
:1026F000F1EE082AC9ED0F2ADFED7D2AC9ED052A82
:10270000DFED742AB0EE004AC9ED062AC9ED072AAA
:1027100086ED044A9FED7D3A86ED053ADFED7C3A81
:10272000C6ED0A3AC6ED0B2AC6ED0C2A87ED044A1F
:1027300087ED053AC7ED0A3AC7ED0B2AC7ED0C2A1B
:1027400002EE901AF8EEE23A9FED643ADFED714A3C
:10275000F0EE642A43EE832ADFED613A82EEA34A6B
:102760005FEDBF3AF0EE642A34EE634A74EE211A4C
:1027700004EE101AC0ED021AB8EEC44A44EE032A61
:102780001FEDC64A82EE843A73EE232A32EE811A96
:1027900080ED031ADFED602A70EEE10A5349C0EDC7
:1027A000042AF0EEE00A10EE902A8A4287DA30EE30
:1027B000410AB0EEC00A10EE102A8A4284DA32EEE4
:1027C000620A494AB0EEC00A10EE101A9142FEF6B3
:1027D0005BAE8FE550460AB904620577057545750D
:1027E0001FEDF03AB1EE082A89ED0E3A89ED0F2A75
:1027F000B2EE002A89ED052A9FED362AF7EE083A57
:1028000089ED062A89ED072AC6ED043A1FEDFA4A3A
:1028100086ED054A86ED0A3A86ED0B2A86ED0C2AEE
:10282000C7ED043A87ED054A87ED0A3A87ED0B2A92
:1028300087ED0C2A02EE101A9FED283AF8EEC23A04
:10284000DFED364AB0EE642A13EE832ADFED243A38
:1028500082EE234A5FEDFC3AB0EE642A34EE634A1E
:1028600074EE211A04EE101AC0ED021AB8EEC44A32
:1028700014EE032A9FED2A4A82EE043A33EE232A0D
:1028800032EE011A9FED172A80ED031A80ED042A1B
:10289000016AB1F57A7F01D30475447570EEE10ADF
:1028A0004FF08043F0EEE00A10EE902A9A420CDAE4
:1028B00030EE410AB0EEC00A10EE102A9A4204DA55
:1028C00012EE902AB2F17C5F02DBB1F5966F80D9EF
:1028D000047027E06F12833A000020420000B443E6
:1028E000F2D210C1600EF0BF9A99993E4A0CA23FF5
:1028F00000007A449A99193F00409C45218CF4BF0E
:102900004A0C223FCDCCCC3DA80C0020CDCCCC3DF8
:1029100000409C460000B042D6BA50C00000AF4311
:10292000F2D2104144708470C4700471CEE670B568
:1029300004462DED048BF0EE429AB0EE619A80EDE4
:102940000D0AF0EE418AB0EE608A0D461830FDF7B0
:10295000EDFF94ED060A204684ED030A84ED028A19
:10296000C4ED018A84ED049AC4ED059A07F0DAF803
:10297000BDEC048B04F140012846BDE870401122F3
:1029800002F0C6BB10B510EE900A2DED068BB0EE2E
:1029900040AA09F095FD9FED189B41EC100BB0EE9D
:1029A000491AF0EE691A05F01FFBB0EE408AF0EE0E
:1029B000608A1AEE100A09F083FD41EC100BB0EEAC
:1029C000491AF0EE691A05F00FFBB0EE401AF0EE6E
:1029D000601A53EC182B51EC110B08F0C5FF41ECB9
:1029E000100B06F023FD51EC100B08F08BFFBDEC33
:1029F000068B00EE100A10BD000000000000004031
:102A0000098849BA00EE101AB8EE400A80ED080AAB
:102A1000704700008878020605D5064AC97842EA60
:102A20000020084301E0488840BA00EE100AB8EEE2
:102A3000C00A70470000FFFF90F82020012A07D04D
:102A4000022A05D0416A41F4802141620120704789
:102A5000006842690A43426100207047F0B590F86F
:102A600020500468A468012D05D0022D03D0416ACE
:102A700041F4802157E014F0406F01D1E5004FD5BB
:102A8000C4F301640125A5401D608B684FF4C07537
:102A90009BB1CE6833434E6843EAC603066805EB34
:102AA0000417F3514FF4C273076803EB04130E6964
:102AB000FE50097D012905D009E00E88CB6843EA64
:102AC0004653EBE70168CE5846F48076CE50117934
:102AD000D379567941EA036193791B0443EA0623CB
:102AE00019434FF4C676036806EB04169951117822
:102AF000D37841EA0361937852781B0443EA0222B7
:102B000011434FF4C473026803EB0413D1500068FF
:102B100005EB0411425842F0010242500020F0BD82
:102B2000416A41F4001141620120F0BD10B590F8F6
:102B30002020012A07D0022A05D0416A41F48021D1
:102B40004162012010BD3B48D0F8002242F0010252
:102B5000C0F80022D0F8002222F47C52C0F80022F3
:102B6000D0F800224B6A42EA0322C0F800220A7D14
:102B700002F01F0301229A40D0F81C329343C0F8A0
:102B80001C32CB69B3B9D0F80C329343C0F80C3285
:102B90008C894B6864F31F434C6900EBC404C4F890
:102BA00040320C890B6864F31F434C6900EBC4048A
:102BB000C4F84432CB69012B16D1D0F80C32134340
:102BC000C0F80C320C884B6864F31F434C6900EB6F
:102BD000C404C4F840320C89CB6864F31F434C69C9
:102BE00000EBC404C4F844328B69002BD0F80432E3
:102BF0000ED01343C0F804320B69002BD0F8143206
:102C000008D01343C0F81432096A012904D008E03F
:102C10009343EFE79343F5E7D0F81C121143C0F854
:102C20001C12D0F8001221F00101C0F8001200209F
:102C300010BD000000640040704770B590F820405F
:102C4000012C05D0022C03D0416A41F4802128E0F8
:102C5000046809B32469A40720D04FF4D874056828
:102C600004EB01142D5915F00405956005682D59E4
:102C70001AD0ED08556005682C5904F00204D460A0
:102C80004FF4DA74056804EB01142E5906F00F06B0
:102C9000082E0CD308250DE0E468DCE7416A41F416
:102CA00000114162012070BD6D0D1560E3E72D59E3
:102CB00005F00F05156105682D59C5F307259561C8
:102CC00005682C59240C54614FF4DC72046802EB43
:102CD0000112A4581C700468A458240A5C7004688B
:102CE000A458240C9C700468A258120EDA704FF499
:102CF000DE72046802EB0112A4581C710468A45827
:102D0000240A5C710468A458240C9C710468A258BD
:102D1000120EDA71006829B1016941F020010161E8
:102D2000002070BDC16841F02001C160F8E72DE9C5
:102D3000F05F0546006800244669D0F80490876873
:102D4000D0F80CB0D0F810A0D0F81880F10748D017
:102D5000F90714D001218160B80703D5284600F097
:102D6000A8FB0CE0780702D54FF4006407E03807B1
:102D700002D54FF4805402E0284600F099FBF80594
:102D800016D529684FF480708860B80503D52846A9
:102D900000F091FB0CE0780502D544F4005407E004
:102DA000380502D544F4804402E0284600F082FB56
:102DB000F80316D529684FF480308860B80303D52E
:102DC000284600F07AFB0CE0780302D544F4004476
:102DD00007E0380302D544F4803402E0284600F0CE
:102DE0006BFB300707D55FEACB6004D5296810205C
:102DF00044F40074C86070074FF0080707D55FEA15
:102E00000B7004D52868C760284600F09DF9B0070C
:102E100006D52868C068800702D0284600F096F9D9
:102E2000700607D55FEACA6004D52968102044F40B
:102E300080640861B00607D55FEA0A7004D5286887
:102E40000761284600F006FBF00606D528680069F1
:102E5000800702D0284600F0FEFAB00308D55FEAEA
:102E6000C96005D5296810204860284600F0F4FAAA
:102E7000F00307D55FEA097004D528684760284643
:102E800000F01CFB300446D55FEA497040D5F005E0
:102E900004D55FEAC87001D044F00104B00504D540
:102EA0005FEA887001D544F00204700504D55FEA3A
:102EB000487001D544F00404300529D518F0700F8E
:102EC00026D008F07000402815D006DC102809D064
:102ED00020280AD0302816D10AE050280ED06028C9
:102EE00011D10EE044F008040DE044F010040AE0B3
:102EF00044F0200407E044F0400404E044F080047F
:102F000001E044F480742868816921F070018161D6
:102F1000296804204860002C05D0686A2043686254
:102F20002846FFF789FEBDE8F09F70B5040003D086
:102F300094F8200010B104E0012070BD204600F09C
:102F400081F82068016841F00101016000F072FD24
:102F50000546052604E000F06DFD401B0A2811D847
:102F600020684068C007F6D02068016821F002019F
:102F7000016000F05FFD05460BE000F05BFD401BCB
:102F80000A2806D9606A40F40030606284F8206044
:102F9000D2E7206840688007EFD4207E01282068AF
:102FA00001683DD021F080010160607E0128206829
:102FB000016838D021F040010160A07E012820681E
:102FC000016833D021F020010160E07E01282068F3
:102FD00001682ED041F010010160207F0128206897
:102FE000016829D021F008010160607F0128206874
:102FF000016824D021F004010160D4E902010843F2
:10300000D4E90412114308436168491E084321684A
:10301000C86100206062012084F82000002070BD9B
:1030200041F08001C0E741F04001C5E741F02001D7
:10303000CAE721F01001CFE741F00801D4E741F0E1
:103040000401D9E72DE9F04387B00446142168460E
:10305000FDF780FA3849394ADFF8D8800868D4F893
:1030600000C00124354B022503260927DFF8D09044
:103070001032401CC44524D10860012807D11068D3
:1030800040F000701060106800F000700590186843
:1030900040F002001860186802AA00F002000590D3
:1030A0004FF44070CDE9000582E8D00069464846FB
:1030B00000F0D2FB00220521142000F059FD14205D
:1030C00032E0DFF88080C44530D1D2F800C04CF047
:1030D000806CC2F800C0D2F800C001280CF0806CEF
:1030E000CDF814C0086007D1106840F0007010607F
:1030F000106800F000700590186840F00200186039
:10310000186802AA00F0020005906020CDE90005D1
:1031100082E8D0006946484600F09EFB0022052167
:10312000402000F025FD402000F014FD07B0BDE870
:10313000F083000000640040180000203038024096
:103140000004024000680040704700002DE9F04F85
:1031500081462DED028B87B00068AB49AB4EDFF89E
:10316000B08240F2022A9FEDAB8ADFEDAB8AAB4D15
:10317000AB4C884229D12B466A4600214846FFF7CE
:103180005CFD009AA2F2022052450CD006DC912A86
:103190007AD0A2F50072013A17D117E0012835D094
:1031A0001E2812D171E0A0889E4F401CA080286884
:1031B000B862686830639548283002F02FF996EDC0
:1031C0000B0A87ED0B0A88ED230A6FE0E088401CAC
:1031D000E08095482968C0F821116968C0F8251178
:1031E00000F221118B46FFF70BFC8F4F59466846C2
:1031F00087ED080AFFF70EFC87ED090A97ED080A2C
:103200003846BCEEC00A10EE101A1EE02089401CA1
:10321000208186482968C0F821116968C0F8251105
:1032200000F221118B46FFF7EBFB804F59466846B1
:1032300087ED080AFFF7EEFB87ED090A97ED080A0C
:103240003846BCEEC00A10EE101AFDF718FA97EDDA
:10325000030A97F81501B8EEC00A20EE080A60EEDE
:10326000280A00EE100AB8EE400A80EE801A00EE3E
:10327000100AB8EE400A87ED0A1AD7ED090A80EE67
:10328000801A87ED0B1A11E009E060896849401C3B
:10329000608128780870674903F06CFE06E0A08919
:1032A0006549401CA0815D4801F0DEFF6349D9F803
:1032B0000000884248D1594B6A46083300214846ED
:1032C000FFF7BBFC009AA2F20220524541D025DC58
:1032D000912A7CD0A2F50072013A35D1208A401C97
:1032E00020825748A968C0F82111E968C0F8251163
:1032F00000F221110D46FFF783FB514C2946684629
:1033000084ED080AFFF786FB84ED090A94ED080AAC
:103310002046BCEEC00A10EE101A4BE001282AD05D
:10332000022811D1608A401C6082464CA868A062C5
:10333000E868F0613548143002F070F896ED060A3E
:1033400084ED0B0A88ED120A07B0BDEC028BBDE8D4
:10335000F08FE089401CE0813B4CA868A062E868DF
:10336000B0602A4802F05AF896ED010A84ED0B0A83
:1033700088ED010AE8E7A08A401CA0823348A968CA
:10338000C0F82111E968C0F8251100F221110D469D
:10339000FFF736FB2D4C2946684684ED080AFFF7F7
:1033A00039FB84ED090A94ED080A2046BCEEC00AF8
:1033B00010EE101AFDF763F994ED030A94F8150165
:1033C000B8EEC00A20EE080A60EE280A00E012E01B
:1033D00000EE100AB8EE400A80EE801A00EE100AE5
:1033E000B8EE400A84ED0A1AD4ED090A80EE801A7C
:1033F00084ED0B1AA8E7E08A1549401CE0820748D3
:10340000083001F031FF9FE7006400400C0B002002
:10341000540B0020000000390000B443AC00002031
:103420007C5E00201403002098060020C4070020C2
:10343000310F0020320F0020285D0020006800407E
:1034400040040020E8010020BC0000206C050020A2
:103450004C5D002070477047704770B5044690F887
:103460002000012804D0606A40F40020606217E068
:10347000022084F820002068016821F00101016029
:1034800000F0D8FA05460DE000F0D4FA401B0A28F7
:1034900008D9606A40F400306062052084F820009A
:1034A000012070BD20684068C007EDD1606270BD2A
:1034B00070477047704770477047704770472DE9F5
:1034C000F0410446876D00F0B5FA054694F83500E2
:1034D0000026022806D08020606584F83460012030
:1034E000BDE8F0812068016821F0160101602068C4
:1034F000416921F080014161206C08B9A06C20B1C4
:103500002068016821F0080101602068016821F04D
:10351000010101600CE000F08DFA401B052807D97D
:1035200020206065032084F8350084F83460D7E7F4
:1035300020680068C007EED194F85C103F208840F6
:10354000B860012084F8350084F834600020C7E7B3
:1035500090F83510022903D0802141650120704781
:10356000052180F835100068016821F00101016033
:10357000002070472DE9F84304464FF00009CDF8CC
:10358000009063484FF41651A56D0068B0FBF1F749
:103590002E6894F85C20082101FA02F030420FD026
:1035A0002068026852070BD5026822F0040202600C
:1035B00094F85C008140A960606D40F00100606596
:1035C00094F85C104FF0010808FA01F0304208D07E
:1035D00021684969090604D5A860606D40F00200C1
:1035E000606594F85C1004208840304208D021685F
:1035F0000968890704D5A860606D40F00400606523
:1036000094F85C1010208840304218D02168096876
:10361000090714D5A86020680168490304D500682B
:10362000000308D5A16C07E00168C90503D401684F
:1036300021F008010160216C09B12046884794F807
:103640005C1020208840304231D021680968C906CA
:103650002DD5A86094F8350005282068016806D0AB
:10366000490347D5006800031DD4616C1CE021F0BC
:10367000160101602068416921F080014161206CE0
:1036800008B9A06C20B12068016821F00801016030
:1036900094F85C103F208840A86084F8358084F856
:1036A0003490216D1FE0E16B09B120468847606DC1
:1036B00000282BD0606DC00714D0052084F8350099
:1036C0002068016821F0010101600098401C009011
:1036D000B84203D820680068C007F6D184F8358066
:1036E00084F83490E16C002910D001B02046BDE888
:1036F000F04308470168C905D5D4016821F01001DD
:10370000016084F8358084F83490CCE7BDE8F88314
:10371000280000202DE9F041044600F08BF9054611
:103720005CB1022084F83500002684F834602068FB
:10373000016821F0010101600DE00120BDE8F08188
:1037400000F078F9401B052805D92020606503208A
:1037500084F83500F2E720680068C007F0D12168DE
:103760000A6820480240D4E901031843D4E903352C
:103770002B43184363691843A3691843E36918434B
:10378000236A18431043626A042A03D1D4E90B2345
:103790001A431043086020684069656A20F00701F9
:1037A00028460D43012704280CD1A06A0543E06A8E
:1037B00040B12046FDF710FC20B14020606584F840
:1037C0003570BAE7206845612046FDF7F1FB94F8B3
:1037D0005C203F2191408160666584F8357000204F
:1037E000ACE700003F8010F02DE9F0410446866D03
:1037F00090F83400002501280DD0012084F8340011
:1038000094F835700020012F07D084F83400022589
:103810002846BDE8F0810220FBE7022784F83570D6
:1038200060652046FDF702FC94F85C103F2088405C
:10383000B0602068016841F016010160206C20B181
:103840002068016841F0080101602068016841F0CA
:1038500001010160DCE700002DE9F84FDFF89C91E1
:103860000022A9F1040B03274FF00F0C09F1040A01
:10387000ABF1040E01250B6895402B40AB426ED195
:103880000C7904F00304012C01D0022C15D18668B8
:10389000540007FA04F826EA0806D1F80C8008FA62
:1038A00004F848EA0608C0F808804468AC430D797B
:1038B000C5F300159540254345600C79E443A40702
:1038C00008D0C568540007FA04F6B5438E68A640D0
:1038D0002E43C6600C7904F00304022C11D1D408E5
:1038E00000EB8406356A5407E40E0CFA04F825EA66
:1038F0000805D1F8108008FA04F848EA0508C6F867
:1039000020800568540007FA04F6B5430E7906F0E6
:103910000306A6402E4306604C6814F4403F66D070
:10392000374C256845F480452560246822F003055E
:1039300004F480440094334C05EB0408D8F808588C
:103940009407260F0CFA06F4A5432F4CA04201D190
:10395000002424E02D4CA04202D101241FE046E0C7
:103960002B4CA04201D1022419E02A4CA04201D1E3
:10397000032414E0284CA04201D104240FE0274C7A
:10398000A04201D105240AE0254CA04201D1062421
:1039900005E0244CA04201D1072400E00824B440F3
:1039A0002C43C8F80848D9F800404D464E689C435F
:1039B000F60200D51C432C60DAF8004055464E68EC
:1039C0009C43B60200D51C432C60DBF800405D46EA
:1039D0004E689C43B60300D51C432C60DEF80040C3
:1039E00075464E689C43F60300D51C432C60521C60
:1039F000102AFFF43FAFBDE8F88F0000083C0140FB
:103A000044380240003001400000024000040240FF
:103A100000080240000C0240001002400014024066
:103A200000180240001C02400AB18161704709047D
:103A3000FBE7000001488068704700001C00002080
:103A40000248816802781144816070471C000020A0
:103A50000B4810B5016841F400710160016841F440
:103A600080610160016841F480710160032000F011
:103A70009FF80F2000F006F800F050F8002010BD6D
:103A8000003C024030B505461F4887B0002401685D
:103A900041F010010160006806A900F010000590D7
:103AA000684600F031F90398A8B100F04DF94000E4
:103AB0001649174AB0FBF1F11648491E026040F260
:103AC000E732C0E90324C0E90114846100F092FDEB
:103AD000040003D015E000F037F9E9E70D4800F0E5
:103AE000D3FD04000DD1362000F034F8102D07D29C
:103AF00000222946362000F03BF80748056000E028
:103B0000012407B0204630BD4038024040420F003B
:103B100000100040D0130020200000200C4882B08C
:103B2000016841F480410160006800F48040009029
:103B30000748001F016841F08051016000680022C1
:103B400000F0805000900F21901E02B000F010B8DD
:103B500044380240002809DB00F01F020121914097
:103B60004009800000F1E020C0F80011704700001B
:103B7000F0B40E4B1B68C3F30223C3F10704042CFB
:103B800000D904241D1D072D01D2002300E0DB1EF7
:103B9000012606FA04F56D1E0D409D409E40761EDE
:103BA000164045EA0601F0BC03F049BD0CED00E00B
:103BB000064A00F0070110684FF6FF03184040EA7C
:103BC0000120034908431060704700000CED00E03D
:103BD0000000FA052DE9F0470D46040065D0DFF836
:103BE0001491D9F80000EFB200F00700A84207D204
:103BF00089F80070D9F8000000F00700A84254D1FD
:103C000020683D4E810712D5400703D5306840F447
:103C1000E05030602078000703D5306840F4604001
:103C200030603068A16820F0F000084330602078F0
:103C3000C0072DD0304960680839012812D0022809
:103C400013D0032811D00968890700292DDA3168BB
:103C500021F0030101433160FFF7ECFE804641F2A1
:103C6000883A0EE009688903EFE709688901ECE703
:103C7000FFF7E0FEA0EB0801514502D90320BDE8A3
:103C8000F0873068616800F00C00B0EB810FEFD175
:103C9000D9F80010484601F00701A94207D907707A
:103CA000006800F00700A84201D00120E7E7207873
:103CB000400705D53068E16820F4E05008433060E3
:103CC0002078000706D53068216920F4604040EA7A
:103CD000C100306000F058F83168084AC1F30311A0
:103CE000515CC8400649086006480068FFF7CAFEF4
:103CF0000020C4E7003C0240083802407CC80008AD
:103D000028000020200000200F2202600C4A1368C7
:103D100003F003034360136803F0F0038360136848
:103D200003F4E053C36012684FF4E05303EAD20295
:103D300002610448006800F0070008607047000056
:103D400008380240003C0240044805490068096800
:103D5000044AC1F38221515CC8407047280000200A
:103D6000083802408CC80008044805490068096802
:103D7000044AC1F34231515CC8407047280000201A
:103D8000083802408CC80008154810B5006810F0CB
:103D90000C01144813D0431004290FD008290ED168
:103DA0000F4C241F216801F03F022168490207D50A
:103DB0002068C0F38810A0FB030106E0184610BD80
:103DC0002168C1F38811A1FB00010023FCF7CCFAA4
:103DD0002168C1F30141491C4900B0FBF1F010BD5D
:103DE000083802400024F4002DE9F84F040075D093
:103DF0002078DFF838A3C007AAF1040548D00AF1FB
:103E000004000168C1F38101012908D00068C0F3F2
:103E1000810002280AD1DAF80000400206D528689D
:103E2000800335D560680028E1D031E06068B0F5E6
:103E3000803F10D0B0F5A02F286810D020F480303B
:103E40002860286820F4802028606068A0B1FFF70F
:103E5000F1FD06460CE0286840F48030F4E740F4B9
:103E600080202860F7E7FFF7E5FD801B642871D804
:103E700028688003F7D50BE0FFF7DCFD064604E079
:103E8000FFF7D8FD801B6428F1D828688003F7D499
:103E90002078DFF89C9280074FF0000B3DD5A348B7
:103EA000001D016811F00C0F08D00068C0F38100FC
:103EB00002280AD1DAF80000400206D428688007F8
:103EC00015D5E068012809D111E0E068B8B10120FA
:103ED000C9F80000FFF7AEFD064605E022E1FFF756
:103EE000A9FD801B0228C2D828688007F7D528685A
:103EF000216920F0F80040EAC10028600DE0C9F80F
:103F000000B0FFF797FD064604E0FFF793FD801B26
:103F100002281FD828688007F7D42078000722D508
:103F2000824F84486169703771B101210160FFF7E8
:103F300081FD064604E0FFF77DFD801B022809D8BD
:103F400038688007F7D50EE0C0F800B0FFF772FDC3
:103F5000064605E082E0FFF76DFD801B02287DD854
:103F600038688007F7D42078400765D56F484FF050
:103F700000083C300068C0000BD46C483C3001683D
:103F800041F08051016000684FF0010800F080505E
:103F90000090694F3868C0050FD4386840F48070CD
:103FA0003860FFF747FD064604E0FFF743FD801B3E
:103FB000022853D83868C005F7D55C4FA0686C3725
:103FC00001280FD00528386810D020F00100386093
:103FD000386820F004003860A068B0B1FFF72AFD0F
:103FE00006460EE0386840F00100F4E740F00400B7
:103FF0003860F7E7FFF71EFD811B41F288308142F0
:1040000063D838688007F5D50DE0FFF713FD064645
:1040100006E0FFF70FFD811B41F28830814254D842
:1040200038688007F5D4B8F1000F05D03F483C3020
:10403000016821F080510160A069B8B33B49091DB6
:104040000968C1F38101022946D00228584606D0EA
:10405000C9F86000FFF7EEFC044639E035E04F4652
:10406000C9F86000FFF7E6FC064604E0FFF7E2FC53
:10407000801B022829D828688001F7D4D4E90701D9
:104080000843A16A2D4A490802EB0141626A41EAEC
:104090008211084394F82C1040EA0161CAF800101C
:1040A00001203866FFF7C6FC044605E03CE0FFF758
:1040B000C1FC001B022808D828688001F7D533E02E
:1040C000FFF7B8FC001B022802D90320BDE8F88FD7
:1040D00028688001F4D427E00128F7D0DAF800003E
:1040E000E26900F4800191421CD1226A00F03F0194
:1040F000914217D147F6C071626A0140B1EB821F4D
:1041000010D1A26A4FF0FF3300F4403103EB5202AA
:10411000B1EB024F06D194F82C1000F07060B0EBB8
:10412000016F01D00120D1E70020CFE70438024021
:1041300000004742800E4742007000400000FFFF31
:104140007047000038B5016804464A688868C04373
:10415000430606D5C30704D1D3435B0601D4216CC3
:1041600005E0830708D4D3431B0605D4616C01B076
:104170002046BDE830400847830603D5430601D5F5
:10418000C30551D4D3439B064ED443060AD494F8B6
:104190005130032B49D0636D43F004036365CB6852
:1041A0008B680093830609D4636D43F00103636554
:1041B0008B6800930B6823F040030B60C00506D4A6
:1041C000606D40F008006065206880680090606D58
:1041D000002829D02068416821F0E00141600120D9
:1041E00084F85100900701D4D00722D0206841689C
:1041F00021F003014160114DE06C40B10565E06CB8
:10420000FFF7A6F918B1606D40F040006065A06C42
:10421000002809D00565A06CFFF79AF9002803D0A3
:10422000606D40F04000606538BDC86888680090E7
:1042300038BD2046FFF784FF38BD00003563000815
:1042400070B5040009D0606A002540B12561656140
:10425000A56294F8510040B10CE0012070BD606887
:10426000B0F5827FF4D0E561F2E784F85050204643
:1042700000F044F8022084F851002068016821F021
:1042800040010160A088218900F4827001F404419A
:104290000843A18901F400610843217C01F0020177
:1042A0000843217D01F001010843218B01F40071D5
:1042B0000843217F01F03801084394F8201001F0F1
:1042C00080010843218D01F40051084321680860F2
:1042D000A069042101EA104094F8241001F01001B3
:1042E0000843216848602068C16921F40061C16108
:1042F0006565012084F85100002070BD10B586B0BE
:10430000044614216846FCF725F9184920688842BC
:1043100029D117480021026842F4804202600068F7
:1043200000F48040059012481038026842F0020202
:104330000260006800F0020005904FF460400090B9
:104340000220CDE901010320039005200490694675
:104350000848FFF781FA002205212420FFF708FC16
:104360002420FFF7F7FB06B010BD00000038004026
:1043700040380240000402402DE9FF4F81B01F4643
:104380009346044601250E9EFFF754FB804694F8A1
:1043900051006168012806D0B1F5827F3CD1A16847
:1043A000C9BB042838D10298002870D0BBF1000F97
:1043B000FBD0002FF9D094F8500001282CD04FF0FA
:1043C000010A84F850A094F85100042802D0052076
:1043D00084F851004FF00009C4F85490C4F838B084
:1043E000E787A78702992163E786A786C4F84090EC
:1043F000C4F8449020680168490603D4016841F07C
:1044000040010160E068B0F5006F606808D0E8B373
:10441000012F47D07DE0FFE7022005B0BDE8F08F17
:1044200008B1012F37D1206B21680088C860206B4C
:10443000801C2063E08E401EE0862CE020688168AE
:1044400089070DD5E18E59B1012D09D1216B09885C
:10445000C160206B801C2063E08E401EE08600253A
:1044600020688168C9070BD0E18F49B1C068A16B92
:104470000880A06B801CA063E08F401EE0870125B0
:10448000FFF7D8FAA0EB0800B04201E00AE064E0D0
:1044900001D3701C4ED1E08E0028CFD1E08F0028D0
:1044A000CCD13CE0206B216800780873206B401C65
:1044B0002063E08E401EE0862BE02068816889073B
:1044C0000DD5E18E59B1012D09D1216B0978017308
:1044D000206B401C2063E08E401EE0860025206893
:1044E0008168C9070BD0E18F49B1C068A16B087022
:1044F000A06B401CA063E08F401EE0870125FFF702
:1045000099FAA0EB0800B04202D3701C01D011E070
:1045100086B1E08E0028D0D1E08F0028CDD1424670
:104520003146204601F00EFF50B12020606584F82E
:10453000509012E084F851A084F8509003206CE76A
:10454000A06818B92068C1688068009084F851A0FC
:1045500084F85090606D0028F1D001205DE770472D
:104560007047000070B590F83C20012A32D0012538
:1045700080F83C50022280F83D200268536894681D
:1045800023F070060B6833435360134B02689A4262
:1045900014D0B2F1804F11D0104B9A420ED0104B74
:1045A0009A420BD00F4B9A4208D00F4B9A4205D03B
:1045B0000E4B9A4202D00E4B9A4204D1496824F025
:1045C00080031943916080F83D50002180F83C1031
:1045D000084670BD022070BD00000140000400408C
:1045E00000080040000C0040000401400040014071
:1045F0000018004010B5040003D094F83D0010B13D
:1046000007E0012010BD002084F83C00204600F0A7
:104610001FF8022084F83D00211D206802F078FB7D
:10462000012084F8460084F83E0084F83F0084F8B6
:10463000400084F8410084F8420084F8430084F884
:10464000440084F8450084F83D00002010BD0000BF
:1046500008B50068B0F1804F12D10A48016841F0F6
:10466000010101600068002200F0010000900521B6
:104670001C20FFF77DFABDE808401C20FFF76ABA4E
:1046800008BD00004038024090F83D10012901D0DB
:1046900001207047022180F83D100168CA6842F08D
:1046A0000102CA6000681149884214D0B0F1804FFD
:1046B00011D00F4988420ED00E4988420BD00E49C6
:1046C000884208D00D49884205D00D49884202D061
:1046D0000C49884204D1816801F00701062903D002
:1046E000016841F0010101600020704700000140B5
:1046F0000004004000080040000C0040000401409D
:10470000004001400018004070B5044690F83C009D
:104710000025012817D0012684F83C60022084F887
:104720003D002068826822F0770222F47F42826096
:104730000868502838D00DDC20284FD005DC90B315
:10474000102811D14AE0022070BD302846D0402800
:104750000AD13BE060282FD070280DD0B0F5805FE3
:1047600003D0B0F5005F12D0012584F83D60002031
:1047700084F83C00284670BDCB68D1E9012120684F
:1047800002F02EFB2068816841F0770109E0CB68D8
:10479000D1E90121206802F023FB2068816841F4FF
:1047A00080418160E1E719E0CA684968206802F049
:1047B00029FB5021206806E0CA684968206802F099
:1047C00032FB6021206802F015FBCEE7CA68496819
:1047D000206802F017FB40212068F4E722680146B8
:1047E0001046F0E770472DE9F04104460068C668BE
:1047F00005694FF00007A90713D5B10711D5F91EB8
:10480000016101202077206880698007204602D05E
:10481000FFF7E8FF04E000F07EF8204600F07CF8A7
:104820002777680716D5700714D521686FF0040044
:104830000861022020772068806910F4407F2046BC
:1048400002D0FFF7CFFF04E000F065F8204600F04B
:1048500063F82777280715D5300713D521686FF03F
:1048600008000861042020772068C069800720467E
:1048700002D0FFF7B7FF04E000F04DF8204600F04B
:104880004BF82777E80616D5F00614D521686FF0A7
:1048900010000861082020772068C06910F4407F6C
:1048A000204602D0FFF79EFF04E000F034F82046D7
:1048B00000F032F82777E80708D0F00706D0216823
:1048C0006FF001000861204600F028F8280608D59E
:1048D000300606D521686FF0800008612046FFF79A
:1048E0003EFE680608D5700606D521686FF04000C8
:1048F0000861204600F01CF8A8060AD5B00608D5C5
:1049000021686FF0200008612046BDE8F041FFF704
:1049100027BEBDE8F081704770470000006803497A
:10492000884201D1FFF78CB87047000000100040AA
:104930007047704708B590F84110212909D10168E6
:10494000143151E8002F42F0800241E80023002B8F
:10495000F5D190F84210222923D101680A684968EC
:104960000091016949B101680C3151E8002F42F40E
:10497000807241E80023002BF5D10168143151E821
:10498000002F42F0010241E80023002BF5D101681D
:10499000143151E8002F42F0400241E80023002B7F
:1049A000F5D1002008BD10B504460068406994F8B0
:1049B0004110C0F3C010212911D180B120681430FA
:1049C00050E8001F21F0800140E80012002AF5D1D4
:1049D000A06B08B1FEF773FD204602F0DCFB2068F7
:1049E000406994F84210C0F38010222911D180B19F
:1049F0002068143050E8001F21F0400140E8001208
:104A0000002AF5D1E06B08B1FEF759FD204602F00F
:104A10009BFB002010BD000008B50B4A01689142C5
:104A200011D10A684A6800920A684A6800920A68C6
:104A300049680091FFF7B7FFBDE80840102203491D
:104A4000034800F0F9BA08BD004C0040F05D0020BA
:104A5000B8100020F8B5016804460868CA684B69B8
:104A600010F00F0F4FF0000559D003F0010602F4CB
:104A70009077374365D0C10705D0D10503D5616C68
:104A800041F001016164410705D5D90703D0616C8C
:104A900041F002016164810705D5D90703D0616C3B
:104AA00041F004016164010707D502F020013143A0
:104AB00003D0616C41F008016164616C00293AD057
:104AC000800604D5900602D5204602F072FB2068CD
:104AD0004069616CC0F38010090700D460B32046C0
:104AE00002F032FB20684069400621D5206814306E
:104AF00050E8001F21F0400140E80012002AF5D1E3
:104B0000E06BA8B172490165E06BFEF721FD00285A
:104B100011D0E06B016D01B0BDE8F040084783069D
:104B20000FD593060DD52046BDE8F84002F041BBF5
:104B30002046FFF771FFF8BD2046FFF76DFF656463
:104B4000F8BD266B2023012E7ED1C6067CD5D60665
:104B50007AD508684868009048694FF00206400618
:104B60004DD5E26B106840684FF480770004000C6C
:104B70003AD0A18D814237D9E085D069B8422DD095
:104B800020680C3050E8001F21F4807140E80012CA
:104B9000002AF5D12068143050E8001F21F00101EF
:104BA00040E80012002AF5D12068143050E8001FB8
:104BB00021F0400140E80012002AF5D184F842308B
:104BC000256320680C3050E8001F21F0100140E8F8
:104BD0000012002AF5D1E06BFEF771FC6663A08D30
:104BE000E18D401A81B206E0A18D8142A8D1D06941
:104BF000B842A5D166632046FFF79BFEF8BDA08DA5
:104C0000E18D401A81B2E08D0028F7D00029F5D05F
:104C100020680C3050E8002F22F4907240E8002702
:104C2000002FF5D12068143050E8002F22F0010247
:104C300040E80027002FF5D184F842302563206832
:104C40000C3050E8002F00E006E022F0100240E8AF
:104C50000023002BF3D1CDE705062BD5150629D56A
:104C600094F841002128C9D1A068B0F5805F01D136
:104C70002069B0B1206A411C216221680078486037
:104C8000E08C401E0004000CE084B7D12068C168AD
:104C900021F08001C1602068C16841F04001C1601D
:104CA000F8BD206A0088C0F308004860206A801CB4
:104CB0002062E5E74006F3D55006F1D5CA682046E4
:104CC00022F04002CA6084F8413000F065FAF8BD75
:104CD0000170000870B5040004D094F8410000256C
:104CE00010B106E0012070BD84F84050204600F06D
:104CF00023F8242084F841002068C16821F4005181
:104D0000C160204602F0B6FA2068016921F49041A2
:104D100001612068416921F02A0141612068C16870
:104D200041F40051C1606564202084F8410084F89A
:104D300042006563002070BD2DE9F04F87B0044646
:104D400014216846FBF706FCB148DFF8C082103832
:104D50000221D4F800C0DFF8B8A201220323002505
:104D60008E0607154FF0080E4FF04009C4455BD181
:104D7000DAF80080AB4648F40028CAF80080DAF878
:104D800000C00CF4002CCDF814C0D0F800C04CF0DA
:104D9000040CC0F800C0006800F004000590980200
:104DA0008DE80F4069469B48FEF756FDDFF86C82A0
:104DB00099494046C8F80010C0E90165C0E90357A9
:104DC000C8F81450C8F81850C8F81C50C8F820503B
:104DD000C8F82450FEF79EFC08B1FCF771FA8F4D1D
:104DE0008D48C4F83C8060353030C8F8384085E8DC
:104DF0004102C5E903B7C5F814B0C5F818B0C5F845
:104E00001CB0C5F820B02846C5F824B0FEF782FCD7
:104E100008B1FCF755FAA563002205213420AC63E4
:104E2000FEF7A6FE342083E0DFF8F481C4457DD18F
:104E3000DAF8008048F48018CAF80080DAF800C078
:104E40000CF4801CCDF814C0D0F800C04CF0040C59
:104E5000C0F800C0D0F800C00CF0040CCDF814C0AD
:104E6000D0F800C04CF0080CC0F800C000689346B1
:104E700000F0080005904FF4805000900220CDE92A
:104E80000102CDE9033E9A46F04669466148FEF7C5
:104E9000E3FC042000900220CDE9010BCDE903A83A
:104EA00069466048FEF7D8FCDFF870815A4908F17E
:104EB000C00830394046C8F80010C0E90165C0E9B3
:104EC0000357C8F81450C8F81850C8F81C50C8F850
:104ED0002050C8F82450FEF71DFC08B1FCF7F0F98B
:104EE000C4F83C80C8F83840DFF83C814A49404665
:104EF0007831C0E90357C8F81450C8F81850C8F8FA
:104F00001C50C8F8205088E84202C8F82450FEF728
:104F100001FC08B1FCF7D4F9C4F83880002205215F
:104F20003520C8F83840FEF723FE00E005E03520C4
:104F3000FEF710FE07B0BDE8F08FDFF8F080C44543
:104F4000F8D1DFF8CCC0AA460CF1040CDCF80080E4
:104F500048F01008CCF80080DCF800C00CF0100C11
:104F6000CDF814C0D0F800C04CF0010CC0F800C05F
:104F7000006800F0010005904FF4C0608DE80F005C
:104F80000720049069462A48FEF766FCDFF89880FF
:104F9000284908F160084046C8F80010C0E90165DA
:104FA000C0E90357C8F81450C8F81850C8F81C5086
:104FB000C8F82050C8F82450FEF7ACFB08B1FCF745
:104FC0007FF9194D1B48C4F83C80C0357830C8F8CB
:104FD000384085E84102C5E903A7C5F814A0C5F823
:104FE00018A0C5F81CA0C5F820A02846C5F824A024
:104FF000FEF790FB08B1FCF763F9A56300220521D9
:105000002520AC63FEF7B4FD252091E7004C00405D
:1050100040380240000802404060024090110020E9
:1050200000500040000C0240B0120020001001406F
:10503000000002404064024090F84230202B01D032
:105040000220704721B11AB10023036302F098B91E
:105050000120704710B500682249884241D122489A
:1050600022490124807800F00F00012802D0022894
:1050700030D116E0488B1022401C48831A491C4846
:10508000FBF7E9F91A48303804F016FC19480178A2
:1050900001BB174930398A69E2B191ED050A164919
:1050A00015E0088B1022401C08830F491348FBF7BA
:1050B000D2F91248303804F0FFFB1148017849B9A1
:1050C0000E4930398A692AB191ED050A0D4981ED01
:1050D000000A0470BDE81040102203490A48FFF797
:1050E000ABBF10BD004C0040F05D00207C5E002096
:1050F000E05D0020050B0020000B0020A05D0020DB
:10510000040B0020FC0A0020B810002070470000AB
:1051100037B5044690F84100202801D002203EBD5A
:10512000019901B3FAB12162A284E2840020606493
:10513000212384F84130A56B144BEB63A56B144B12
:105140002B64A56B134BEB64A36B186520681346A7
:10515000A56B021D2846FEF747FB30B110206064A6
:10516000202084F8410001203EBD21686FF04000FE
:1051700008602068143050E8001F41F0800140E8CA
:105180000012002AF5D100203EBD0000FD7000088D
:105190003F7100080F70000800680449884204D17C
:1051A000002240210248FEF73FBC7047004C0040FF
:1051B000000802407047FEE741EA401070470000D7
:1051C00070B50C462DED048B054604211378DFEDF8
:1051D000222A2248F0EE429AB0EE619AF0EE418A1D
:1051E000B0EE608A022B02D0037883B11DE06170BB
:1051F000C4ED0B2AC4ED0C2AC4ED0D2AC4ED0E2A11
:10520000B0EE000A84ED0F0A002101701BE092ED60
:10521000030A84ED0B0A92ED030A84ED010AC4ED42
:10522000022A92ED030A01220270617084ED080ADD
:10523000201DFBF77BFB94ED010A04F1300084EDA7
:105240000B0A80EC048A21462846BDEC048BBDE89D
:105250007040FBF7A5BA000000000000510F0020CD
:1052600002224A70FBF79CBA70B505462DED028B01
:1052700002F00F000872C2F3451048729FED2B8AAE
:10528000DFED2B8A28680C46C0F313001421F0EEE2
:10529000480AB0EE680A05F005FC84ED030AD5F86B
:1052A00001001421000BF0EE480AB0EE680A05F088
:1052B000F9FB84ED040AB5F805001021F0EE480A68
:1052C000B0EE680A05F0EEFB84ED050AE879DFED43
:1052D000190AC0F300002076E87907214008BBEEE8
:1052E000040A05F0DFFB84ED070A94ED050A124875
:1052F000124AB0EEC00A10EE101A814202DCE169D7
:10530000914207DD2178022904D001202070BDECF4
:10531000028B70BD10EE101A8142F8DCE0699042F9
:10532000F5DC002020706060F1E700000000204202
:10533000000020C20000484300004842000016431D
:105340003048314A042190ED001A82ED001AD0ED68
:10535000010AC2ED050AD0ED031AC2ED0A1A02EBEA
:105360008100D2ED0F2A10ED010A491E002931EE0D
:10537000402A02EE820A80ED000A90ED040AD2ED86
:105380000F2A30EEC02A02EE820A80ED050A90ED67
:10539000090AD2ED0F2A31EEC02A02EE820A80ED10
:1053A0000A0ADCDC00209FED190AB0EE401AF0EE8C
:1053B000400A02EB8001401CD1ED001A052831EEB5
:1053C000811AD1ED051A71EEA00AD1ED0A1A31EE5B
:1053D000800AEEDBF1EE041A0D4881EE212A80EE00
:1053E000A11A80ED002AC0EE210A9FED0A0A80ED85
:1053F000011A20EE800ADFED080A80EE201A80ED07
:10540000031A7047345F0020600C00200000000089
:10541000005E00200000E1C4DB0F494090ED030A6C
:10542000F0EE000AD0ED041A20EE200ADFED0D0A9E
:1054300020EE200AF7EE000AB0EE601A00EE211A04
:1054400080EE810A90ED021A70EEC00A60EE810AC9
:1054500090ED001A40EE010AC0ED010AC0ED000A0D
:1054600070470000DB0F4940104810B50E4901603D
:105470000421416000214FF4A0228160C0E90312A1
:105480004FF4001242610176012242768276C276A2
:1054900001774277FDF749FD002803D0BDE81040B1
:1054A000FBF70EBF10BD000000640040C80F0020D5
:1054B000104810B50E4901600421416000214FF4ED
:1054C000A0228160C0E903124FF40012426101760C
:1054D000012242768276C27601774277FDF725FD7A
:1054E000002803D0BDE81040FBF7EABE10BD000065
:1054F00000680040F00F0020214808B5016841F421
:1055000080010160016801F480010091016841F4AB
:10551000001101600068002200F4001000900521D5
:105520000B20FEF725FB0B20FEF714FB00220521C4
:105530000D20FEF71DFB0D20FEF70CFB00220521C0
:105540000F20FEF715FB0F20FEF704FB00220521BC
:105550002F20FEF70DFB2F20FEF7FCFA002205217D
:105560003A20FEF705FB3A20FEF7F4FA0022052167
:105570004620FEF7FDFABDE808404620FEF7EABAED
:105580003038024010B5154A0021154804F0D8FB08
:10559000144C124A002120602432134804F0D0FB3E
:1055A0000E4A606048320021104804F0C9FB0B4AE3
:1055B000A0606C3200210E4804F0C2FB074AE06094
:1055C000903200210B4804F0BBFB044A2061B43246
:1055D0000021094804F0B4FB606110BD9CC70008BD
:1055E000ED6800080000002089690008356A00089D
:1055F0004D6A0008656A00082D6B00082DE9F04728
:1056000086B014216846FAF7A5FF334800240168E4
:1056100041F004010160016801F004010591016895
:1056200041F080010160016801F08001059101688D
:1056300041F002010160016801F002010591016879
:1056400041F008010160016801F00801059101685D
:1056500041F0010101600068012200F00100DFF863
:105660007C801503059029464046FEF7DDF9DFF8FA
:1056700070904FF4B076002231464846FEF7D4F9D8
:10568000DFF860A0002240215046FEF7CDF90095DA
:10569000032701250397CDE9015469464046FEF7EB
:1056A000DBF803970096CDE9015469464846FEF7BA
:1056B000D3F868028DE8310069464846FEF7CCF819
:1056C00040200090CDE90154694650460394FEF70E
:1056D000C3F806B0BDE8F08730380240000402404D
:1056E000000C024000080240104810B50E4901604D
:1056F0004FF48271416000218160C1604FF40072FB
:105700000161C0E905120822C0E9072141628162F6
:105710000A21C162FEF794FD002803D0BDE81040C5
:10572000FBF7CEBD10BD000000380040181000206F
:1057300010B586B000241748009401940294039495
:1057400004944FF08041059401604F21C0E9011499
:1057500040F2E731C0E9031480218161FEF74AFF7E
:1057600008B1FBF7ADFD4FF4805000906946094841
:10577000FEF7CAFF08B1FBF7A3FD049404A905488E
:105780000594FEF7EFFE002801D0FBF799FD06B067
:1057900010BD0000701000200D4810B50B490160CD
:1057A0000C494160002181600C22C160C0E90412F3
:1057B00081614FF40041C161FFF78CFA002803D0EA
:1057C000BDE81040FBF77CBD10BD0000004C004060
:1057D000B810002000093D000C4810B50A490160CE
:1057E0004FF461214160002181600C22C160C0E959
:1057F00004128161C161FFF76DFA002803D0BDE892
:105800001040FBF75DBD10BD0050004000110020AE
:105810000C4810B50A4901604FF461214160002134
:1058200081600C22C160C0E904128161C161FFF78F
:1058300051FA002803D0BDE81040FBF741BD10BD70
:105840000010014048110020144830B403780021B2
:105850000122062B11D2DFE803F0031016181C1EDC
:1058600005790F4B0F4C012D09D01978012904D16E
:105870002178012901D10270027130BC7047197082
:1058800021700171F9E7C17000E0C27030BC01F015
:10589000DDBA0221F7E70321F5E70000240F00201D
:1058A000A80C0020240C0020FEE7FEE71CB50FA08A
:1058B0000522D0E90010CDE900106946302000F043
:1058C000EBF805226946102000F04EF800206946EA
:1058D0000A5CA52A03D1401CC0B20528F8D30528CC
:1058E00001D001201CBD00201CBD0000A5A5A5A560
:1058F000A500000070B51A4D4FF4807400222146B7
:105900002846FEF791F80F21202000F0EFF8012142
:10591000212000F0EBF80121222000F0E7F84B21D4
:10592000252000F0E3F80F21262000F0DFF8012108
:105930003C2000F0DBF806213D2000F0D7F82021C4
:10594000312000F0D3F8052206492A2000F0A4F8FF
:1059500021462846BDE870400122FEF765B80000E8
:10596000000C024099C800082DE9F047DFF8449088
:1059700015460E4604464FF48058002241464846DC
:10598000FEF752F821460C4800F070FD074600244F
:1059900006E0FF21084800F069FD3055641CE4B2C0
:1059A000AC42F6D3012241464846FEF73DF8384660
:1059B000BDE8F087000402401810002070B50C4DBF
:1059C00006464FF48054002221462846FEF72CF864
:1059D0003146084800F04AFDFF21064800F046FD28
:1059E0000646012221462846FEF71EF8304670BDC5
:1059F000000402401810002070B50646002422461C
:105A00004FF480711448FEF70FF80720FFF7D6FF18
:105A100005460146272000F069F8680615D50F48AD
:105A2000818B491C81836020FFF7C8FF0446212831
:105A300005D2024631466120FFF796FF00E00024C0
:105A4000FF21E22000F052F803E005490878401CED
:105A50000870204670BD0000000C02407C5E0020F3
:105A6000500F00200FB4FF2110B5E12000F03EF8E8
:105A70009DF829009DF8282040F0A80002A900F018
:105A80000BF8012211020348FDF7CEFF10BC5DF8B0
:105A900014FB0000000C02402DE9F047DFF84490B1
:105AA00016460D4604464FF48058002241464846AB
:105AB000FDF7BAFF21460C4800F0D8FC0746002449
:105AC00006E015F8011B084800F0D0FC641CE4B2A5
:105AD000B442F6D3012241464846FDF7A5FF3846B9
