:020000040800F2
:10000000B85B00202903000865590008B5540008B2
:100010004557000831210008DD820008000000007B
:10002000000000000000000000000000690200085D
:10003000452A000800000000C502000835640008D9
:100040004303000843030008430300084303000878
:100050004303000843030008430300084303000868
:100060004303000843030008430300084303000858
:100070004303000843030008430300084303000848
:100080004303000843030008430300084303000838
:1000900075210008430300084303000843030008D8
:1000A0004303000843030008430300084303000818
:1000B00043030008156500084303000843030008D4
:1000C00043030008430300084303000843030008F8
:1000D000430300080D7F00084303000843030008A2
:1000E00043030008430300084303000843030008D8
:1000F00043030008430300084303000843030008C8
:1001000043030008430300084303000843030008B7
:100110004303000843030008256500084303000863
:1001200043030008430300089D2800084303000818
:100130004303000843030008430300084303000887
:10014000C5210008430300084303000843030008D7
:100150004303000843030008AD28000843030008D8
:100160004303000843030008430300084303000857
:100170004303000843030008430300080000000095
:10018000430300084303000800F002F800F05CF8A5
:100190000AA090E8000C82448344AAF10107DA45E2
:1001A00001D100F051F8AFF2090EBAE80F0013F0D8
:1001B000010F18BFFB1A43F001031847ECBF000002
:1001C0000CC000000A444FF0000C10F8013B13F083
:1001D000070408BF10F8014B1D1108BF10F8015BA0
:1001E000641E05D010F8016B641E01F8016BF9D193
:1001F00013F0080F1EBF10F8014BAD1C0C1B09D1EA
:100200006D1E58BF01F801CBFAD505E014F8016B5B
:1002100001F8016B6D1EF9D59142D6D370470000ED
:100220000023002400250026103A28BF78C1FBD8FF
:10023000520728BF30C148BF0B6070471FB50BF095
:10024000F6FE1FBD10B510BD00F0F6F91146FFF720
:10025000F5FF08F09FFF00F014FA03B4FFF7F2FF78
:1002600003BC00F017FA00002C4B19680868B0E8CE
:10027000F04F80F30988BFF36F8F4FF0000080F3D9
:10028000118870470000000008480068006880F38B
:1002900008884FF0000080F3148862B661B6BFF39F
:1002A0004F8FBFF36F8F00DF00BF00BF08ED00E08E
:1002B000DFF80C00016841F470010160704700BF75
:1002C00088ED00E0EFF30980BFF36F8F134B1A68DE
:1002D0001EF0100F08BF20ED108A20E9F04F1060CB
:1002E00009B44FF0500080F31188BFF34F8FBFF374
:1002F0006F8F0AF037F94FF0000080F3118809BCC6
:1003000019680868B0E8F04F1EF0100F08BFB0EC95
:10031000108A80F30988BFF36F8F70472C0000208C
:10032000EFF30580704700000948804709480047FF
:10033000FEE7FEE7FEE7FEE7FEE7FEE7FEE7FEE795
:10034000FEE7FEE704480549054A064B70470000F2
:100350000165000889010008B8550020B85B00203D
:10036000B8570020B857002053EA020C00F069800B
:100370002DE9F04B4FF00006002B1FBFB3FA83F5B9
:1003800003FA05F424FA05F65E4012BF1643B2FAEA
:1003900082F502FA05F4C5F120051EBF22FA05FC1C
:1003A00044EA0C04203556EA044C4FEA144418BFC2
:1003B000641C4FF000084FF00009904271EB030CF1
:1003C00039D3002919BFB1FA81F701FA07F6B0FA5B
:1003D00080F700FA07F6C7F120071EBF20FA07FCD6
:1003E00046EA0C062037B6FBF4FCA7EB0507103FE6
:1003F00007F01F0BCBF120060CFA0BFB2CFA06F6CC
:1004000044BFB3460026202FA4BF5E464FF0000B2A
:100410005BEA060C08BF4FF0010B19EB0B09ABFBB5
:10042000027C48EB0608C01B06FB02CC0BFB03CC8E
:1004300071EB0C01C1E70B46024641464846BDE858
:10044000F08B13B54FF000004FF00001AFF30080C8
:10045000BDE81C407047B2F120030AD5C2F1200369
:1004600001FA02F120FA03F300FA02F041EA030173
:10047000704700FA03F14FF000007047032A40F282
:10048000308010F0030C00F0158011F8013BBCF136
:10049000020F624498BF11F801CB00F8013B38BF4E
:1004A00011F8013BA2F1040298BF00F801CB38BF5C
:1004B00000F8013B11F0030300F06280083AC0F03D
:1004C000088051F8043B083A51F804CBA0E8081022
:1004D000F5E7121D5CBF51F8043B40F8043BAFF355
:1004E0000080D20724BF11F8013B11F801CB48BFAF
:1004F00011F8012B24BF00F8013B00F801CB48BFE5
:1005000000F8012B704702F0FF0343EA032242EA9E
:10051000024200F069B84FF0000200B5134694465D
:100520009646203922BFA0E80C50A0E80C50B1F14B
:100530002001BFF4F7AF090728BFA0E80C5048BF5F
:100540000CC05DF804EB890028BF40F8042B08BFFD
:10055000704748BF20F8022B11F0804F18BF00F8F9
:10056000012B704770477047704710B500F05CF87A
:10057000006810BD10B5044600F056F8046010BDC8
:1005800010B5203AC0F00B80B1E81850203AA0E82E
:100590001850B1E81850A0E81850BFF4F5AF5FEA62
:1005A000027C24BFB1E81850A0E8185044BF18C915
:1005B00018C0BDE810405FEA827C24BF51F8043BBC
:1005C00040F8043B08BF7047D20728BF31F8023B10
:1005D00048BF11F8012B28BF20F8023B48BF00F8A4
:1005E000012B70474FF000020429C0F0128010F078
:1005F000030C3FF492AFCCF1040CBCF1020F18BF16
:1006000000F8012BA8BF20F8022BA1EB0C01FFF78B
:1006100084BF5FEAC17C24BF00F8012B00F8012BE6
:1006200048BF00F8012B7047004870475455002020
:1006300000487047545500207546FFF7F9FFAE4655
:1006400005006946534620F00700854618B020B5DE
:10065000FFF778FEBDE820404FF000064FF000079E
:100660004FF000084FF0000B21F00701AC46ACE85A
:10067000C009ACE8C009ACE8C009ACE8C0098D46C7
:10068000704710B50446AFF300802046BDE8104027
:10069000FFF7E3BD01491820ABBEFEE726000200CC
:1006A000704700000C4840790C4908700A480079EE
:1006B000487009488078887007488079C870064873
:1006C000C07908710448C07848710348007888717F
:1006D00001484078C8717047C00000204053002096
:1006E00010B501460022002007E00C5C0123834086
:1006F00004FB0323DAB2431CD8B20628F5DB10460C
:1007000010BD000070B52DED108B92B00446E0696D
:1007100000EE900A60EEA01A206A00EE900A01EE48
:10072000100A40EE811AB0EE610A08F056FCF0EEB5
:10073000409A206800EE100A606800EE900A30EEE1
:10074000200ADFEDEE0A30EE200AB4EEE90AF1EEFF
:1007500010FA12D3206800EE100A606800EE900ACA
:1007600030EE600AB0EEC00ADFEDE40A30EE600A57
:10077000B4EEE90AF1EE10FA04DD002012B0BDEC8F
:10078000108B70BDE06900EE900A206A00EE100A3E
:1007900008F0FCF8B0EE40BA206800EE100A20EE37
:1007A000000A09EEA90A606800EE900A01EE100A3C
:1007B00000EEC10A206800EE900AB0EE001A60EE6A
:1007C000810A60EEA90AC0EE20BAB7EE000AF4EE84
:1007D000C0BAF1EE10FA03DDB7EE000AF0EE40BA4F
:1007E000BFEE000AF4EEC0BAF1EE10FA03D2BFEE8B
:1007F000000AF0EE40BAB0EE6B0A08F03BF8B0EE3B
:1008000040CAB0EE4C0A3BEE000A8DED100AB0EE85
:100810004C0A3BEE400A8DED110A0026DFEDB8FAD6
:100820009FEDB70A8DED0F0A002563E010A800EBDD
:10083000850090ED000AF0EE40AAF5EEC0AAF1EEB8
:1008400010FA06D39FEDAF0AF4EEC0AAF1EE10FA4B
:1008500000DD4EE0B0EE6A0A08F0C0F9206800EE54
:10086000900A20EE200A8DED030AB0EE6A0A08F025
:10087000AFFA206800EE900A20EE200A8DED020A01
:10088000E06900EE900A9DED030A30EEC00A8DED9E
:10089000010A206A00EE900A9DED020A30EEC00ABD
:1008A0008DED000ADDED010A9DED000A08F06EF8FD
:1008B000B0EE409A9FED940AB4EEC09AF1EE10FAB1
:1008C00006D39FED920AB4EEC09AF1EE10FA00DD65
:1008D0000FE09FED8A0A3AEE800AB4EEC90AF1EE03
:1008E00010FA00D205E0F0EE6AFA8DED0F9A0126BB
:1008F00002E06D1C022D99DB00BF0EB900203DE720
:100900009FED830A2FEE800A10EE100A60639DEDC2
:100910000F0ADFED7F0A20EE200A10EE100AA06316
:10092000B0EE6F0A08F054FA206800EE900AF1EE7B
:10093000600A60EE20CA9DED0F0A08F049FA60686F
:1009400000EE900AF1EE600A20EE20DAB0EE6F0AB7
:1009500008F044F9206800EE900A60EE20DA9DED80
:100960000F0A08F03BF9606800EE900A20EE20EADA
:100970002CEE8E0A0DEE6D0A8DED0E0A9DED0E0A1F
:10098000B0EEC00ADFED5D0AB4EEE00AF1EE10FA57
:1009900001D20020F2E69DED0E0AF7EE000A80EE8D
:1009A00080AA606A0EEE900AA06A0FEE100A2EEE80
:1009B0002E0A0DEE4F0A20EE0A8AB1EE6D0A20EEE5
:1009C0002E0A0CEE8F0A60EE0A8A9FED510A28EE7D
:1009D000000A10EE100A20649FED4D0A28EE800AEE
:1009E00010EE100A6064B0EE6F0A08F0F7F82068A5
:1009F00000EE900AF1EE600A20EE200A20EE080ACE
:100A00008DED0D0A9DED0F0A08F0E8F8606800EE24
:100A1000900AF1EE600A20EE200A20EE280A8DED01
:100A20000C0AB0EE6F0A08F0D3F9206800EE900AC5
:100A3000F1EE600A20EE200A20EE080A8DED0B0A86
:100A40009DED0F0A08F0C4F9606800EE900AF1EE1F
:100A5000600A20EE200A20EE280A8DED0A0AE06ADC
:100A60000990206B08909DED0D0A60EE080A9DED3F
:100A70000C0A40EE280A9DED090A30EE600A8DED61
:100A8000070A9DED0B0A60EE080A9DED0A0A40EE8A
:100A9000280A9DED080A30EE600A8DED060A9DEDEC
:100AA000070A6EEE000A9DED060A4DEE400A20EEA2
:100AB0008A0A8DED050AF1EE6D0A9DED070A60EEDA
:100AC000800A9DED060A4CEE800A20EE8A0A8DED22
:100AD000040A9DED050ADFED0E0A20EE200A10EE55
:100AE000100AA0649DED040ADFED090A20EE200A39
:100AF00010EE100AE064012040E60000BD378635A4
:100B000000000000DB0F4940DB0FC9BFDB0FC93F0E
:100B1000E12E65423EB5044694ED030AD4ED000A89
:100B200030EE200A8DED000A94ED040AD4ED010A9E
:100B300030EE200A8DED010A94ED020A8DED020AD5
:100B4000DDED020A9FED211A60EE810AB0EE600A27
:100B500008F044F8D4ED080A20EE200A84ED0B0AD0
:100B6000DDED010A9FED191A60EE810AB0EE600A10
:100B700008F034F8D4ED070A20EE200AD4ED0B0A71
:100B8000DFED131A80EEA11AF3EE040A61EE200ADB
:100B9000B5EE081A10EEC10A84ED0A0ADDED000A6E
:100BA0009FED0A1A60EE810AB0EE600A08F016F8AE
:100BB000D4ED060A20EE200AD4ED0A0A9FED051AAC
:100BC00001EE200A84ED090A3EBD000035FA8E3C94
:100BD00000008046CDCCCC3D10B5394800780128C6
:100BE0001FD1384880683749C8610846C068086224
:100BF0000846FFF787FD3348406B324908610846D5
:100C0000806B48610846406B2F49C8602D48806B57
:100C100008619FED2E0A084680ED050A002028494C
:100C200008702B48D0ED000AB0EE600AF7EE001A0B
:100C30009FED281ADFED280A284805F027FD2448F3
:100C400090ED030AB0EEC00AF2EE040AB4EEE00A38
:100C5000F1EE10FA0DD8D0ED030AB0EE600ADFED28
:100C6000201A9FED201AF9EE000A1F4805F00EFD2C
:100C70000DE01748D0ED030AB0EE600AF2EE041A58
:100C80009FED181AF9EE000A174805F0FFFC0D4811
:100C9000006A00EE900A0B48C06900EE100ADFED12
:100CA000133A9FED133ADFED092A9FED082ADFED95
:100CB000111A9FED111A114806F0F6FA10BD000046
:100CC0003C010020EC0000208C0700200000000008
:100CD000C45300200000704300009842E2540020FA
:100CE0009A99993E0000B4429C54002000007A4436
:100CF0000000FA4300002F430000114304080020C5
:100D000070B504460D462046FFF7FCFC012815D1BE
:100D1000606B00EE100A206900EE900A30EE600A67
:100D200085ED020AA06B00EE100A606900EE900AE1
:100D300030EE600AB1EE400A85ED010A70BD000098
:100D400010B5FC480078FC490978884208D000209A
:100D500004E00021F94A1154411C88B20A28F8DB4A
:100D6000F4480078F4490870F2480078072881F0C8
:100D7000B281DFE810F007006300D803AD04F60588
:100D8000CA065B09EE48006840F6B83188420DD8C3
:100D9000EC480078052809D1EB480078052805D1F2
:100DA000EA480078052801D1FFF716FFE4480068FB
:100DB000401CE3490860E648407801281BD10846FA
:100DC0000068642817D300200860E2490860E249FF
:100DD0000860E2490860E2490860E2490860E249C7
:100DE00008600120E149887048710871D149087094
:100DF0000020D7494870D648407802281DD1D048F5
:100E00000068642819D30020CD490860D1490860E2
:100E1000D1490860D1490860D1490860D1490860CA
:100E2000D14908600120D1498870487108710520B6
:100E3000C04908700020C6494870F9E3C44880786A
:100E400030B101287ED002287DD003287CD1A7E2D2
:100E5000BA48007860BBBC480078052828D1C4484F
:100E6000006A00EE900AC248C06900EE100ADFED89
:100E7000C13A9FEDC13ADFEDC12A9FEDC02ADFEDF7
:100E8000C01A9FEDC01AB04806F00EFABE48D0ED69
:100E9000000AB0EE600ADFEDBD1A9FEDBD1ADFED6E
:100EA000BD0AAA4805F0F2FB0120A4490870A7E09A
:100EB000A2480078012831D1A048407870BBA148F1
:100EC000007805282AD1A0480078052826D19F4817
:100ED0000078052822D1A648006A01EE100ADFED4D
:100EE000AE1A31EE611AF0EE410AA148C06900EE77
:100EF000100A9FEDA04ADFEDA03A9FED9F3ADFED8B
:100F00009F2A9FEDA42ADFEDA51A9FEDA31A8E4814
:100F100005F01CFE01208949487071E0874840783F
:100F200001283DD185488078C8BB864800780528CF
:100F300036D185480078052832D1844800780528C4
:100F40002ED102E071E0A6E1E5E28948006A02EEF6
:100F5000100ADFED932A32EE622AF0EE421A84483C
:100F6000C06901EE100A8248006A00EE900A8048CB
:100F7000C06900EE100ADFED8B3A9FED7F3ADFED9E
:100F80007F2A9FED7D2A704806F08EF99FED860A34
:100F9000864880ED080A01206849887030E0FFE744
:100FA0006648807801282BD16448C07840BB6548EA
:100FB0000078052824D164480078052820D16348AA
:100FC000007805281CD1C82009F0ECF96848006AAF
:100FD00000EE900A6648C06900EE100ADFED653A3F
:100FE0009FED653ADFED652A9FED642ADFED701A0B
:100FF0009FED701A544806F057F901204F49C87008
:101000004E48C07801280FD14E48007805280BD1F2
:101010004D480078052807D14C480078052803D1B1
:1010200003204449087010BD76E24448007860BB54
:1010300045480078052828D14D48006A00EE900AFE
:101040004B48C06900EE100ADFED4A3A9FED5A3A6C
:10105000DFED4A2A9FED492ADFED491A9FED481A34
:10106000394806F021F94848D0ED000AB0EE600A90
:10107000DFED521A9FED461ADFED400A334805F0C6
:1010800005FB01202D490870F0E02C48007801286C
:1010900032D12A48407870BB2A48007805282BD1E5
:1010A00029480078052827D128480078052823D129
:1010B0002F48006A01EE100ADFED411A31EE611A85
:1010C000F0EE410A2A48C06900EE100A9FED3D4A41
:1010D000DFED393A9FED383ADFED282A9FED2D2AD2
:1010E000DFED2E1A9FED361A174805F02FFD01206F
:1010F00012494870BAE0FFE71048407801287ED1D5
:101100000E488078A0B90F480078052877D10E489E
:101110000078052873D10D48007805286FD1144850
:10112000006A00EE900A1248C06901EE100A4BE016
:1011300065E00000460100204701002048550020DE
:10114000680800209C54002004080020E25400207D
:101150003C0100206C08002070080020740800206A
:10116000780800207C08002080080020C0000020B3
:10117000EC00002000409C4500007A440000000084
:10118000000048430080A243C45300209A99993E2E
:10119000000034440000B4C2000096420000B44293
:1011A0000000484200401C4600803B458C07002060
:1011B0000000BE43000096430000FA44CDCC4C3EF4
:1011C0000000C84200606A465FED031A31EE211A42
:1011D000B0EE410A1FED054A5FED093A1FED1A3ADC
:1011E0005FED0B2A1FED132ADFEDFE1A1FED0C1A1F
:1011F000FD4805F0ABFC0120FC49887036E0FB4857
:101200008078012832D1F948C07878BBF848007856
:1012100005282BD1F4480078052827D1F548007817
:10122000052823D1F448006A01EE900AF248C0690B
:1012300002EE100A5FED262A32EE222AB0EE421AA2
:10124000ED48006A00EE900AEB48C06900EE100A13
:101250005FED2C3A1FED283A5FED382A1FED3A2A50
:10126000E14806F021F80120E049C870DF48C07865
:1012700001280FD1DE48007805280BD1DA48007824
:10128000052807D1DB480078052803D10220DB4977
:101290000870C8E640E1D5480078A0BBD448007883
:1012A000052831D1D048007805282DD1D1480078C3
:1012B000052829D1D248D0ED000AB0EE600A5FEDD2
:1012C000411A1FED4D1A5FED530ACA4805F0DEF9C9
:1012D000C948006A00EE900AC748C06900EE100ACB
:1012E0005FED483A1FED4C3A5FED5C2A1FED5D2A39
:1012F0005FED5D1A1FED5E1ABB4805F0D5FF0120BA
:10130000BA49087037E0FFE7B8480078012832D1C1
:10131000B648407878BBB648007805282BD1B2484B
:101320000078052827D1B3480078052823D1B24892
:10133000006A01EE900AB048C06902EE100ADFEDC3
:10134000B12A32EE222AB0EE421AAB48006A00EE11
:10135000900AA948C06900EE100A5FED663A1FEDD9
:101360006A3A5FED7A2A1FED7B2A9F4805F09CFFC1
:1013700001209E4948709D48407801280FD19C4823
:10138000007805280BD198480078052807D199489E
:101390000078052803D102209849087043E6BBE095
:1013A0009248007830BB92480078052822D18E48B8
:1013B000007805281ED18F48007805281AD18E485C
:1013C000006A00EE900A8C48C06900EE100A5FEDDA
:1013D0008B3A1FED873A5FED982A1FED982ADFEDD3
:1013E0008A1A9FED8A1A804805F05EFF01207F4926
:1013F00008707BE07D480078012840D17B48407828
:10140000E0BB7B480078052839D17748007805286B
:1014100035D178480078052831D17948D0ED000AD7
:10142000B0EE600A5FED9B1A1FEDA71A5FEDAD0AE3
:10143000704805F02BF97048006A00EE900A6E487B
:10144000C06901EE100A5FEDA21A31EE211AB0EE6A
:10145000410A1FEDAC4A5FEDA83A1FEDA93A5FEDD6
:10146000BA2A1FEDB42ADFED5F1A1FEDAB1A5E48F2
:1014700005F06CFB01205D49487037E0FFE75B48F1
:101480004078012832D15948807878BB5848007894
:1014900005282BD154480078052827D155480078D5
:1014A000052823D15448006A01EE900A5248C069C9
:1014B00002EE100ADFED532A32EE222AB0EE421A73
:1014C0004D48006A00EE900A4B48C06900EE100AD1
:1014D0005FEDCC3A1FEDC83A5FEDD82A1FEDCA2A5E
:1014E000414805F0E1FE0120404988703F4880787E
:1014F00001280FD13E48007805280BD13A480078E2
:10150000052807D13B480078052803D102203B4934
:10151000087088E500E000BF00BF3D480068401C3F
:101520003B49086089E43B48006858B93248C069C3
:1015300000EE100A5FEDDE0A30EE200A10EE100A0F
:101540002D49C86129480078012808D1264800782B
:10155000052804D11FEDEC0A2F4880ED080A2F481A
:101560008078012804D0022828D0032875D175E09E
:101570001E48007808BB1C48007805281DD1254866
:101580000068C82819D31C48006A00EE900A1A485F
:10159000C06900EE100ADFED223A1FEDF93ADFEDE7
:1015A000212A9FED202ADFED201A9FED201A0E48F8
:1015B00005F07AFE01200D49087076E00B480078AE
:1015C000B8BB09480078052846D112480068C828E9
:1015D00042D30948006A00EE900A0748C06900EE4D
:1015E000100A27E00000344304080020485500207A
:1015F0009C540020E2540020EC0000204601002012
:10160000C453002000007A430000C8430000164382
:101610006C080020700800208C0700203C0100208E
:1016200000401C46000000000000BE43000048438C
:101630006AE211E05FED063A9FEDFB3A5FED072AA3
:101640001FED082A5FED081A1FED081AF74805F08C
:101650002BFE0120F649087027E025E0F4480078C9
:1016600008BBF248007805281DD1F2480068C82858
:1016700019D3F148006A00EE900AEF48C06900EE05
:10168000100A5FED193A9FEDE83A5FED1A2A1FED57
:101690001B2A5FED231A1FED1B1AE44805F004FE18
:1016A0000120E349087000E000BF00BFE048007877
:1016B000012807D1DD480078052803D10320DF4940
:1016C0000870B0E4DB480068401CDA4908601BE29F
:1016D000DB488079012820D1D948407802281BD1E5
:1016E0000020D8490860D8490860D2490860D74925
:1016F0000860D7490860D7490860D74908600120C9
:10170000D649887008710620CC4908700020CC4961
:1017100048700021CA48817185E4C9480079A0BB9E
:10172000C748C078012830D1C148007870BBC04894
:10173000807858BBBD480078052828D1C0488078FB
:1017400088B1C748D0ED030AB0EE600AF6EE001A81
:101750009FEDC41ADFEDC40AC44804F097FF0120CE
:10176000B34908709BE0BE48D0ED030AB0EE600AB2
:10177000DFEDBF1A9FEDBB1A5FED660ABB4804F0B0
:1017800085FF0120AA49887089E097E0FFE7A84813
:101790000078012833D1A648407878BBB348007858
:1017A00005282CD1A648807840B3AD48D0ED000A7A
:1017B000B0EE600AF6EE001A9FEDAA1ADFEDAD0A50
:1017C000AD4804F063FF9C48006A00EE900A9A4816
:1017D000C06900EE100ADFEDA93A9FEDA93A5FED6E
:1017E0006F2A1FED702A5FED701A9FEDA61A8F48C1
:1017F00005F05AFD01208E49487050E0FFE78C4803
:10180000407801281CD18A488078C8B98748007878
:10181000052815D198480078052811D19048D0EDB9
:10182000030AB0EE600AF6EE001A9FED8E1A5FED25
:10183000930A8E4804F02AFF01207D4988702EE02B
:101840007B48807801282AD17948C07838BB8748FE
:101850000078052823D17848006A02EE100ADFEDEF
:101860008A2A32EE622AF0EE421A7348C06901EE0B
:10187000100A7148006A00EE900A6F48C06900EED5
:10188000100A5FED993A9FED813A5FED9A2A1FEDBC
:101890009B2A664805F008FD01206549C870644828
:1018A000C078012857D161480078052853D101201C
:1018B00063490871042061490870EAE4604880794E
:1018C00090BB5F48C078032845D15948007860BB79
:1018D00056480078052828D15748006A00EE900A3B
:1018E0005548C06900EE100ADFED4F3A9FED683AA7
:1018F0005FEDB42A1FEDB52A5FEDBD1A1FEDBF1ACB
:101900004A4805F0D1FC5648D0ED000AB0EE600A16
:10191000F0EE081A9FED5F1A5FEDBE0A564804F01C
:10192000B5FE01204249087015E0414800780128C1
:1019300011D13F48407870B94C48007805280AD149
:101940003A480078052806D14B480078052802D18E
:1019500001213B4881713D480068401C3B490860BB
:10196000BAE33348007888BB3048007805282ED188
:10197000374800680A282AD8002038498870012092
:10198000C8702D48006A02EE100ADFED3F2A32EEE1
:10199000222AF0EE421A2848C06901EE100A2648B1
:1019A000006A00EE900A2448C06900EE100ADFEDDC
:1019B000333A9FED363A5FEDE52A1FEDE62A1B48E4
:1019C00005F072FC01201A49087081E0FFE7204809
:1019D0000068FA280DD31E480068B0F5967F08D23B
:1019E00000201E49C8701FEDF90A2B4880ED080A37
:1019F0006EE00F48007801286AD10D48407890B910
:101A00000A480078052863D111480068B0F5967F30
:101A10005ED11348D0ED030AB0EE600AF7EE081A63
:101A20009FED101A3AE053E00000FA440408002049
:101A30004855002070080020EC00002046010020DE
:101A40003C010020680800206C0800207408002079
:101A5000780800207C08002080080020C0000020BA
:101A6000C45300200000B4430000B4429C54002042
:101A7000CDCC4C3F0000B4C2E254002000409C4555
:101A800000004844000096430000A04200007A4451
:101A90000000FA43000070428C070020DFEDFE0AD0
:101AA000FE4804F0F3FDFE48807803280DD1FD4880
:101AB000D0ED000AB0EE600AF7EE001A9FEDFA1AB8
:101AC000DFEDFA0AFA4804F0E1FD0120F949487017
:101AD000F8484078012812D1F24890ED030A5FEDF2
:101AE0001E0AB4EEE00AF1EE10FA08D8F2480068D7
:101AF000B0F5167F03D90020F04908704EE4EE4897
:101B00000068401CEC490860E6E2E548407901289D
:101B10007ED1E8480078D0BBE9480078052837D165
:101B2000E048D0ED030AB0EE600AF0EE001A9FED37
:101B3000DE1ADFEDE40AD94804F0A8FDD948D0ED5B
:101B4000000AB0EE600AF7EE001A9FEDD71ADFED3B
:101B5000DE0AD74804F09AFDDC48006A00EE900ADD
:101B6000DA48C06900EE100A5FED513A1FED393ACC
:101B7000DFEDC92A9FEDC82ADFEDD51A9FEDD51AF2
:101B8000CF4805F091FB0120CA490870CDE0FFE77E
:101B9000C8480078012845D1C6484078C8BBBF482E
:101BA000007805283ED1C648007805283AD1C048BB
:101BB0000078052836D10020C74948710120C87136
:101BC000C248006A02EE100A5FED512A32EE622A24
:101BD000F0EE421ABD48C06901EE100ABB48006A27
:101BE00000EE900AB948C06900EE100A5FED723A43
:101BF0001FED593ADFEDA82A9FEDA72AB04805F05E
:101C000053FB642008F0CEFB0020B349C87101E00B
:101C1000A2E007E04FF4C87008F0C4FB0120A5491A
:101C2000487082E0A348407801287ED1A14880789E
:101C3000E8BBA3480078052877D19FEDA80AA848FB
:101C400080ED080AA148006A02EE100A5FED722AD0
:101C500032EE222AF0EE421A9C48C06901EE100AC8
:101C60009A48006A00EE900A9848C06900EE100A8F
:101C70005FED933A1FED7A3ADFED872A9FED862AD2
:101C80008F4805F011FB8748D0ED030AB0EE600ADB
:101C9000F6EE001A9FED841A5FED8D0A7F4804F07E
:101CA000F5FC4FF4FA7008F07DFB7E4800E03CE064
:101CB000D0ED000AB0EE600AF0EE081A1FED8B1AA4
:101CC000F2EE040A7A4804F0E1FC4FF4FA6008F0FE
:101CD00069FB7E48006A00EE900A7C48C06900EE0D
:101CE000100A5FEDAF3A1FED963ADFED6B2A9FEDDC
:101CF0006A2ADFED771A9FED7B1A714805F0D4FA56
:101D00004FF4FA7008F04EFB6648D0ED030AB0EECF
:101D1000600AF7EE001A9FED641ADFED5F0A5F4874
:101D200004F0B4FC0120634988706248807801287F
:101D30007ED15A48007805287AD161480078052874
:101D400076D15B480078052872D10020544908718B
:101D500006205A490870B4E451480079012867D137
:101D600054480078D0BB56480078052837D14D48F4
:101D7000D0ED030AB0EE600A5FEDC31A1FEDC71A7B
:101D8000DFED490A454804F081FC4648D0ED000AE1
:101D9000B0EE600ADFED541A9FED541A5FEDCB0AE6
:101DA000434804F073FC4948006A00EE900A474833
:101DB000C06900EE100ADFED4E3A1FEDCC3ADFEDC0
:101DC000362A9FED352ADFED421A1FEDD21A3C4824
:101DD00005F06AFA0120374908700AE1FFE7354843
:101DE0000078012840D133484078E8BB2B48007880
:101DF000052839D132480078052835D12C4800789B
:101E0000052831D10020344948713048006A02EE7B
:101E1000100A5FEDE32A32EE622AF0EE421A2B48F6
:101E2000C06901EE100A2948006A00EE900A00E03D
:101E3000F6E02648C06900EE100ADFED2E3A1FEDED
:101E4000ED3ADFED152A9FED142A1D4805F02CFA16
:101E5000C82008F0A7FA01201F49C8719FED1F0A8A
:101E60001F4880ED080A00E062E0322008F09AFA8C
:101E70001648006A02EE100A5FEDFD2A32EE222AB1
:101E8000F0EE421A1148C06901EE100A0F48006ACC
:101E900000EE900A0D482FE0000000009C54002046
:101EA0003C010020C453002000003443000098424D
:101EB000E254002048550020780800204601002008
:101EC000040800200000E6420000BEC2EC00002032
:101ED0000000C8430000A543C000002000803B452F
:101EE0008C07002000007A439A99993E0000344400
:101EF00000606A4600401C46C06900EE100A5FEDB3
:101F0000033A9FED773A5FED1C2A1FED1D2A7548B5
:101F100005F0CAF9962008F045FA00207249C87108
:101F20004FF4967008F03EFA01207049487060E066
:101F30006E48407801285CD16C488078E0BB6C48E2
:101F40000078052855D167480078052851D169489F
:101F5000007805284DD16848D0ED030AB0EE600A3C
:101F6000F6EE001A9FED651ADFED650A604804F091
:101F70008DFB4FF4FA7008F015FA5F48D0ED000AB7
:101F8000B0EE600ADFED5F1A1FED391A5FED3E0A11
:101F9000584804F07BFB4FF4FA7008F003FA5A48F3
:101FA000006A00EE900A5848C06900EE100A5FED22
:101FB0002F3A9FED4B3A00E01BE05FED492A1FED01
:101FC0004A2A5FED3D1A1FED391A464805F06CF9B3
:101FD0004948D0ED030AB0EE600ADFED4A1A9FEDE2
:101FE0004B1A5FED530A424804F050FB01203F4971
:101FF00088703E488078012812D13D480078052835
:102000000ED13848007805280AD13A4800780528CA
:1020100006D100203E49087106203E4908704CE474
:102020003D480068401C3C49086055E02F48007856
:1020300008BB2C48007805281DD135488078B0B100
:102040003148006A00EE900A2F48C06900EE100A7D
:10205000DFED323A9FED323A5FED712A1FED722AC1
:102060005FED601A9FED2F1A1E4805F01DF9012043
:102070001E49087021E01D48007801281DD11B4829
:102080004078D0B917480078052816D100201649A5
:1020900088700120C870C82008F084F90020124917
:1020A000C8701FED700A204880ED080A01200F4912
:1020B00048704FF47A7008F075F90C4840780128A0
:1020C00003D100201349087018E518480068401C27
:1020D0001649086000E000BF00BF00BF0EE5000029
:1020E00000007A4404080020C00000204855002069
:1020F0009C540020E2540020C45300200000B4434C
:102100000000B442CDCC4C3FEC00002000007043F6
:102110003C010020460100207C0800200000FA4419
:102120000000FA430000E1438C07002080080020F3
:1021300000BFFEE700B58BB000200690059001902F
:102140000290039004900790012008900E200A90BE
:102150000120099001A9064800F070FD044801F033
:1021600034FB0221024800F0AFFC0BB000BD0000C0
:102170008408002010B5024800F0BBFE10BD00002E
:102180008408002000B58BB00E200690002005903A
:1021900001900290039004900790012008901C2069
:1021A0000A900120099001A9054800F047FD044864
:1021B00001F00BFB0221024800F086FC0BB000BDD1
:1021C000AC08002010B5024800F093FE10BD0000DE
:1021D000AC08002010B5FFF7ADFFFFF7D3FF0748AD
:1021E00001F0F3FA064801F0F0FA0221034800F08A
:1021F0006BFC0221024800F067FC10BD840800203F
:10220000AC08002030B52DED108B83B004469FED57
:102210007B0AB0EE40FA94ED000AD4ED060A30EEE7
:10222000600A84ED020A94ED030AD4ED040A20EE5C
:10223000200AB0EE408A94ED040A20EE080A10EE5F
:10224000105A94ED020AD4ED040A94ED011A00EE3E
:10225000810AF0EE408A18EE900A09F041FE41EC46
:102260001E0BB0EE4E0AF0EE6E0A06F05FFDB0EE09
:1022700040DAF0EE60DA94ED030AF2EE000A20EEA6
:10228000200A10EE101A084609F02AFE53EC1D2B06
:10229000CDE900019DED000B51EC100B09F036FB70
:1022A00041EC1B0B28EE080A10EE101A084609F044
:1022B00017FE41EC1C0B53EC1B2B09F01FFA41ECF1
:1022C0001A0BB0EE4A0AF0EE6A0A06F049FEB0EECA
:1022D000409AF0EE609A51EC190B09F0DDF902908A
:1022E000284609F0FDFD41EC190B18EE900A09F0A3
:1022F000F7FD41EC1B0BB0EE4B0AF0EE6B0A06F05B
:1023000015FDB0EE40AAF0EE60AA53EC192B51EC8B
:102310001A0B09F0F9FB18D2B0EE680A03F0F2FFCD
:1023200000EE100AF8EEC00A9DED020A30EE480AEF
:1023300060EE800AB0EE001A80EE810AD4ED010A48
:1023400030EE200AB0EE40FA09E0D4ED040A88EE3F
:10235000A00AD4ED010A30EE200AB0EE40FA18EEE1
:10236000100A09F0BDFD41EC190B1FEE100A09F02F
:10237000B7FD41EC1B0BB0EE4B0AF0EE6B0A06F01A
:10238000D5FCB0EE40AAF0EE60AA53EC192B51EC4C
:102390001A0B09F0B9FB10D2B0EE4F0A03F0B2FFEE
:1023A00000EE100AB8EEC00AD4ED030ABFEE001A20
:1023B00060EE810A60EE20FA09E094ED030AFFEE78
:1023C000000A20EE200A20EE0F0AC0EE08FA94ED73
:1023D000000AD4ED050A94ED011A00EE810A84ED9D
:1023E000000A94ED010AD4ED050A00EEAF0A84ED6F
:1023F000010A03B0BDEC108B30BD000000000000EE
:10240000F0EE401AF4EEE01AF1EE10FA02D2B0EE5D
:10241000600A7047F4EEC11AF1EE10FA02DDB0EE78
:10242000410AF6E7B0EE610AF3E7000010B5034891
:10243000007805F019FE05F045FF10BDC80000202A
:1024400010B5026842600160D0E90023D21A8260B0
:10245000426902EBD2748368B3EB640F04DD436915
:102460008268D21A82600BE043695A4202EBD2744E
:102470008368B3EB640F03DA436982681A448260AD
:10248000D0E902321A44C260027F012A02D100223E
:10249000C260027710BD7CB505460E46144600208A
:1024A0000DE034F81010C1F307210DF8101014F8E6
:1024B00010204100491C0DF80120411C88B204285D
:1024C000EFDB08236A463146284600F001F87CBD60
:1024D0002DE9F04188B006460C4617461D46029489
:1024E0000020039004900590069501AB3A4602A99E
:1024F000304600F0FEFA8046B8F1000F04D10448DF
:102500004089401C0249488108B0BDE8F0810000C4
:102510004C5300204A780B7842EA032200EE102A3E
:10252000B8EEC00A80ED080A90ED080A704730B591
:1025300003464FF6FF728C7804F080043CB114041B
:102540008D7844EA0524CD7844EA050003E0CC7890
:102550008D7844EA052000EE100AB8EEC00A30BDBE
:1025600010B52DED0A8BB548D0ED0B1AB0EE611AFF
:10257000D0ED0A1AF0EE610AB148D0ED051AB0EEBE
:10258000610AB04803F0B6FAAC48D0ED0B0AB0EEE1
:10259000600AAD4800F074FAB0EE40AA1AEE100AD4
:1025A00009F09EFC41EC1C0BB0EE4C0AF0EE6C0AFC
:1025B00006F0BCFBB0EE40BAF0EE60BA9FEDA30BA4
:1025C00053EC102B51EC1B0B09F09EFA03D89FED36
:1025D000A10AB0EE40AA9B4890ED260A9E48D0ED95
:1025E0000A0A30EE200A30EE0A0ABDEEC00A10EEEA
:1025F000100A00B2994908809948D0ED0B1AB0EE44
:10260000611AD0ED0A1AF0EE610A8D48D0ED041A75
:10261000B0EE610A934803F06DFA9148D0ED0B0AD1
:10262000B0EE600A904800F02BFAB0EE408A18EE47
:10263000100A09F055FC41EC1C0BB0EE4C0AF0EE10
:102640006C0A06F073FBB0EE40BAF0EE60BA9FED94
:102650007F0B53EC102B51EC1B0B09F055FA03D8F0
:102660009FED7C0AB0EE408A7E4890ED260A7A48BB
:10267000D0ED090A30EE200A30EE080ABDEEC00A9D
:1026800010EE100A00B275494880784890ED0B1A98
:10269000F0EE410A6A4890ED061AB0EE410A74481D
:1026A00003F062F97148D0ED0B0AB0EE600A714890
:1026B00000F0E6F9F0EE408A18EE900A09F010FCFE
:1026C00041EC1C0BB0EE4C0AF0EE6C0A06F02EFB4F
:1026D000B0EE40BAF0EE60BA9FED5C0B53EC102BFD
:1026E00051EC1B0B09F010FA03D89FED5A0AF0EEDB
:1026F000408A5F4890ED080A30EE280ABDEEC00A15
:1027000010EE100A00B2554988805B48D0ED0B1AD4
:10271000B0EE611AD0ED0A1AF0EE610A4848D0ED29
:10272000001AB0EE610A554803F0E4F95248D0EDC2
:102730000B0AB0EE600A524800F0A2F9B0EE409ADF
:1027400019EE100A09F0CCFB41EC1C0BB0EE4C0A60
:10275000F0EE6C0A06F0EAFAB0EE40BAF0EE60BABB
:102760009FED3A0B53EC102B51EC1B0B09F0CCF9FD
:1027700003D89FED380AB0EE409A404890ED260A03
:102780004048D0ED0B0A30EE200A30EE090ABDEECB
:10279000C00A10EE100A00B23049C8803A4890EDE5
:1027A0000B1AF0EE410A264890ED071AB0EE410AE6
:1027B000364803F0D9F83548D0ED000AB0EE600A8B
:1027C000334800F05DF9F0EE409A19EE900A09F0F6
:1027D00087FB41EC1C0BB0EE4C0AF0EE6C0A06F0E5
:1027E000A5FAB0EE40BAF0EE60BA9FED180B53ECCC
:1027F000102B51EC1B0B09F087F903D89FED150A3C
:10280000F0EE409A214890ED080A30EE290ABDEE1C
:10281000C00A10EE100A00B21E4908800F4A4FF499
:1028200000711D48FFF737FE1A4A40F2FF111A489F
:10283000FFF731FEBDEC0A8B10BD000074030020D1
:10284000C45300200C050020680700200000000091
:1028500000C07240000000002C070020DC000020B7
:1028600020030020700400205C070020C803002023
:10287000A80500207407002094010020E801002032
:10288000D40700208C0700201C04002044060020F0
:1028900080070020E40000208408002010B50248D2
:1028A00001F034F810BD00006409002010B50248A2
:1028B00001F02CF810BD0000C40900200146087882
:1028C00010381823B0FBF3F20848805CC865032A6F
:1028D00005D908686FF30900001D886503E00868E2
:1028E0006FF309008865886D704700001CC10008FF
:1028F000014600208A6A8B69CBB932B1012A0DD01A
:10290000022A03D0032A10D10EE000BFCB6A03F0E5
:102910008073B3F1807F00D1012007E0CB6AB3F16F
:10292000C07F00D1012001E000E000BF34E08B69EE
:10293000B3F5005F1AD132B1012A07D0022A03D0C1
:10294000032A11D10AE000BF01200EE0CB6A03F098
:102950008073B3F1807F00D1012006E0CB6AB3F130
:10296000C07F00D1012000E000BF15E032B1012A94
:1029700005D0022A04D0032A0CD103E000BF00BF17
:10298000012008E0CB6A03F08073B3F1807F00D1AF
:10299000012000E000BF00BF704730B50468246824
:1029A00024F4802405682C60046863608468402CEB
:1029B00004D10468A2600468E16003E00468A160D7
:1029C0000468E26030BD00002DE9F04188B00646A1
:1029D0000C4617461D460294002003900490059073
:1029E000069501AB3A4602A9304600F082F88046CF
:1029F000B8F1000F04D10448C089401C0249C881C5
:102A000008B0BDE8F08100004C5300201CB5FF2049
:102A10008DF800008DF801008DF802008DF803009C
:102A20008DF804008DF805008DF80600FC208DF867
:102A3000070008236A4601210148FFF7C5FF1CBDB6
:102A400084080020704772B600BFFEE7014671EEB1
:102A5000602AF0EE621AB0EE602A30EE423A0120AF
:102A60008840401E02EE900AF8EEE22A63EE222A27
:102A700082EEA13AFCEEC32A12EE900A70470000E3
:102A8000F0EE400AB0EEE00A90ED021AB4EEC10A90
:102A9000F1EE10FA02D29FED0B0A704790ED000A9A
:102AA000F5EEC00AF1EE10FA02DDB7EE001A01E011
:102AB000BFEE001A20EE010A90ED011A01EE200A85
:102AC000EBE700000000000010B5024692F820304D
:102AD000012B01D0022B06D110684069084314680D
:102AE0006061002010BD506A40F4802050620120D7
:102AF000F8E7F0B504460D461E4694F820702068AD
:102B00008368A86800B900E000BF012F01D0022F40
:102B10007DD103F0806030B903F0006018B903F094
:102B2000805000287ED0C3F30161012088403060CE
:102B3000A86860B9B5F800C0E86840EA4C5C206855
:102B400000F5C07000EB0110C0F800C00FE0D5E93F
:102B500001C040EACC00D5F80CC040EA0C00D4F823
:102B600000C00CF5C07C0CEB011CCCF80000D5F8C3
:102B700010C0206800F5C07000EB0110C0F804C060
:102B8000287D01280ED1206800F5C07000EB0110EF
:102B9000406840F4807C206800F5C07000EB0110B4
:102BA000C0F804C0D079000692F806C040EA0C4094
:102BB00092F805C040EA0C2092F804C040EA0C00EC
:102BC000D4F800C00CF5C07C0CEB011CCCF80C0058
:102BD000D078000692F802C040EA0C4092F801C09A
:102BE00040EA0C2092F800C040EA0C00D4F800C083
:102BF0000CF5C07C0CEB011CCCF80800206800F53B
:102C0000C07000EB0110006840F0010C01E00FE023
:102C100008E0206800F5C07000EB0110C0F800C0AB
:102C20000020F0BD606A40F4001060620120F8E707
:102C3000606A40F4802060620120F2E7F0B504464B
:102C40000A4694F82050012D01D0022D7ED1424930
:102C500001F50071086840F001000860086820F480
:102C60007C5008600868566A40EA06200860107DBB
:102C700000F01F06012000FA06F3C8699843C861F6
:102C8000A1F50071D069C8B9D1F80C029843C1F818
:102C90000C02908880B2968940EA064601F51070D1
:102CA000576940F83760108880B2168940EA0646B6
:102CB00001F51070576900EBC7004660D069012824
:102CC00019D1D1F80C021843C1F80C02908880B2D7
:102CD000168840EA064601F51070576940F83760DB
:102CE000908980B2168940EA064601F5107057694E
:102CF00000EBC7004660906928B9D1F804029843F8
:102D0000C1F8040204E0D1F804021843C1F8040237
:102D1000106928B9D1F814029843C1F8140204E0EC
:102D2000D1F814021843C1F81402106A012804D122
:102D3000D1F81C021843C1F81C02D1F8000220F09F
:102D40000100C1F800020020F0BDFFE7606A40F416
:102D5000802060620120F7E700640040704770B592
:102D6000044694F82050012D01D0022D7DD151B997
:102D70002068C06800F0030080B9606A40F4001069
:102D80006062012070BD2068006900F0030028B96E
:102D9000606A40F4001060620120F3E7206800F5EB
:102DA000D87000EB0110006800F00400906090689B
:102DB00040B9206800F5D87000EB01100068400DA4
:102DC000106007E0206800F5D87000EB0110006883
:102DD000C0085060206800F5D87000EB0110006852
:102DE00000F00200D060206800F5D87000EB011000
:102DF000406800F00F00082802D30820106108E0A6
:102E0000206800F5D87000EB0110406800F00F005A
:102E10001061206800F5D87000EB0110406800F4E4
:102E20007F40000A9061206800F5D87000EB011027
:102E30004068000C5061206800F5D87000EB01106C
:102E400080681870206800F5D87000EB0110806869
:102E500000F47F40000A5870206800F5D87000EB3D
:102E60000110806800F47F0000E03CE0000C9870E6
:102E7000206800F5D87000EB01108068000ED87053
:102E8000206800F5D87000EB0110C0681871206848
:102E900000F5D87000EB0110C06800F47F40000A14
:102EA0005871206800F5D87000EB0110C06800F47C
:102EB0007F00000C9871206800F5D87000EB0110BD
:102EC000C068000ED87131B92068C06840F0200099
:102ED0002668F06005E02068006940F02000266860
:102EE000306100204EE7606A40F48020606201207B
:102EF00048E72DE9F05F0446002520684669206810
:102F0000D0F80490206887682068D0F80CA020686A
:102F1000D0F810B02068D0F8188006F00100002822
:102F200055D007F00100C0B101202168886007F08A
:102F3000020018B1204600F078FC0EE007F0040013
:102F400010B145F4006508E007F0080010B145F441
:102F5000805502E0204600F067FC07F48070C8B19D
:102F60004FF480702168886007F4007018B1204623
:102F700000F05DFC0EE007F4806010B145F40055F0
:102F800008E007F4006010B145F4804502E02046F7
:102F900000F04CFC07F48030C8B14FF48030216859
:102FA000886007F4003018B1204600F042FC0EE0C3
:102FB00007F4802010B145F4004508E007F4002034
:102FC00010B145F4803502E0204600F031FC06F0F7
:102FD000080038B10AF0100020B145F40075102047
:102FE0002168C86006F0040040B10AF0080028B16A
:102FF00008202168C860204600F00CFA06F00200A4
:1030000038B12068C06800F0030010B1204600F01D
:1030100003FA06F0400038B10BF0100020B145F47F
:10302000806510202168086106F0200040B10BF097
:10303000080028B1082021680861204600F0C2FB82
:1030400006F0100038B12068006900F0030010B1EC
:10305000204600F0B8FB06F4003040B109F0100043
:1030600028B1102021684860204600F0ADFB06F42E
:10307000803040B109F0080028B10820216848607C
:10308000204600F0D7FB06F4004088B309F00400A6
:1030900078B306F4807020B108F0010008B145F063
:1030A000010506F4007020B108F0020008B145F0F7
:1030B000020506F4806020B108F0040008B145F074
:1030C000040506F40060A0B108F0700088B108F0B3
:1030D0007000402817D006DC10280BD020280CD018
:1030E000302819D10CE0502810D0602814D110E0FD
:1030F0001DE019E045F008050FE045F010050CE073
:1031000045F0200509E045F0400506E045F0800562
:1031100003E045F4807500E000BF00BF20688069CF
:1031200020F07000216888610420216848602DB17A
:10313000606A284360622046FFF710FEBDE8F09FFA
:1031400070B504460CB9012070BD94F8200010B988
:10315000204600F0AFF82068006840F001002168C8
:10316000086000F0ADFE05460DE000F0A9FE401B32
:103170000A2808D9606A40F400306062052084F8AB
:1031800020000120E0E72068406800F001000028EE
:10319000EBD02068006820F002002168086000F091
:1031A0008FFE05460DE000F08BFE401B0A2808D973
:1031B000606A40F400306062052084F8200001203D
:1031C000C2E72068406800F002000028EBD1207EB2
:1031D000012806D12068006840F08000216808605E
:1031E00005E02068006820F0800021680860607EAB
:1031F000012806D12068006840F04000216808607E
:1032000005E02068006820F0400021680860A07E8A
:10321000012806D12068006840F02000216808607D
:1032200005E02068006820F0200021680860E07E4A
:10323000012806D12068006820F01000216808608D
:1032400005E02068006840F0100021680860207FD9
:10325000012806D12068006840F008002168086055
:1032600005E02068006820F0080021680860607FA1
:10327000012806D12068006840F004002168086039
:1032800005E02068006820F0040021680860D4E9A7
:103290000201084321690843616908436168491EC6
:1032A00008432168C86100206062012084F8200082
:1032B000002049E710B586B00446142101A8FDF7A7
:1032C0002AF94F492068884242D14E480068401C84
:1032D0004C4908600846006801280FD100BF002053
:1032E00000904948006840F000704749086008466F
:1032F000006800F00070009000BF00BF00BF002019
:10330000009041481038006840F002003E491039F2
:1033100008600846006800F00200009000BF00BF8F
:103320004FF440700190022002900020039003208F
:1033300004900920059001A9344800F0C7FC002240
:103340000521142000F084FE142000F06DFE54E0EE
:103350002F492068884250D100BF002000902A48A1
:10336000006840F08060284908600846006800F066
:103370008060009000BF00BF22480068401C2149C7
:1033800008600846006801280FD100BF00200090A7
:103390001D48006840F000701B490860084600683E
:1033A00000F00070009000BF00BF00BF0020009040
:1033B00015481038006840F00200134910390860C1
:1033C0000846006800F00200009000BF00BF6020C7
:1033D0000190022002900020039003200490092015
:1033E000059001A9094800F071FC00220521402048
:1033F00000F02EFE402000F017FE06B010BD0000C9
:1034000000640040180000204038024000040240E0
:10341000006800407047000010B588B00446D649E7
:10342000206888427ED1D54B01AA00212046FFF7B3
:1034300096FCD3488088401CD14988800198A0F22E
:10344000012005286FD2DFE800F0033A74ABEA00F0
:10345000CA49CC48FFF75EF8CA4880ED080AC74958
:1034600001A8FFF764F8C74880ED090A90ED080A43
:10347000BCEEC00A10EE101AFEF7E2FFC14890ED54
:10348000030AB8EEC00ADFEDC00A80EE201A9FEDF5
:10349000BF0A21EE000ADFEDBE0A80EE201A80EDA1
:1034A0000A1A90ED090ADFEDBA0A80EE201A80EDC3
:1034B0000B1AB348408B401CB1494883E7E0AF4941
:1034C000B448FFF727F8B34880ED080AAB4901A8D4
:1034D000FFF72DF8AF4880ED090A90ED080ABCEE21
:1034E000C00A10EE101AFEF7ABFFAA4890ED030ACF
:1034F000B8EEC00ADFEDA40A80EE201A9FEDA30A01
:1035000021EE000AF3EE030A80EE201A80ED0A1A7B
:1035100090ED090AF3EE030A80EE201A80ED0B1AF3
:10352000974801E0B5E0B1E0C08A401C9449C882E8
:10353000ADE092499848FEF7EDFF974880ED080A04
:103540008E4901A8FEF7F3FF934880ED090A90ED3C
:10355000080ABCEEC00A10EE101AFEF771FF8E4882
:1035600090ED030AB8EEC00ADFED870A80EE201A5C
:103570009FED860A21EE000ADFED880A80EE201A10
:1035800080ED0A1A90ED090ADFED840A80EE201A18
:1035900080ED0B1A7A48C08C401C7949C88476E0CB
:1035A00076497F48FEF7B6FF7D4880ED080A7349EB
:1035B00001A8FEF7BCFF7A4880ED090A90ED080AE1
:1035C000BCEEC00A10EE101AFEF73AFF744890EDF8
:1035D000030AB8EEC00ADFED6C0A80EE201A9FEDF8
:1035E0006B0A61EE000AB3EE031A80EE810ADFED8A
:1035F0006D0A80EE201A80ED0A1AD0ED090AB3EEAA
:10360000031A80EE810ADFED670A80EE201A80ED52
:103610000B1A5B48C08B401C5949C88337E0574997
:103620006148FEF777FF604880ED080A534901A81A
:10363000FEF77DFF5C4880ED090A90ED080ABCEEBC
:10364000C00A10EE101AFEF7FBFE574890ED030A71
:10365000F8EEC00A9FED4C1A80EE810ADFED4B0AAE
:1036600020EE200ADFED4A0A80EE201A80ED0A1AC9
:1036700090ED090ADFED460A80EE201A80ED0B1A64
:103680003F48408C401C3E49488400E000BF00BFDA
:1036900000BF4649206888426CD1454B01AA0021F1
:1036A0002046FFF75CFB3648C088401C81B2344896
:1036B000C1800198522831D008DC31280FD032283F
:1036C00025D033283BD0512851D10FE053283DD08D
:1036D000912812D0922828D0932848D13DE0344830
:1036E000007810B900203349087041E03048007874
:1036F00010B901202F4908703AE02F492C4804F0F6
:10370000E1FF1F48C08D401C1D49C88530E0284896
:10371000007810B900202749487029E02448007833
:1037200010B901202349487022E02449204804F0C0
:10373000C9FF1348408E401C1149488618E01C48B8
:10374000007810B900201B49887011E018480078F3
:1037500010B90120174988700AE01949144804F08B
:10376000B1FF0748408D401C0549488500E000BF77
:1037700000BF00BF08B010BD00640040CC000020B6
:103780004C53002074030020000000460000B443A6
:103790000000104220030020C803002000004C421B
:1037A0009401002034F40B401C0400200068004009
:1037B000D40000209001002000540020E453002099
:1037C0001C54002070477047704770B5044694F849
:1037D0002000012822D1022084F8200020680068FF
:1037E00020F001002168086000F06AFB05460DE04A
:1037F00000F066FB401B0A2808D9606A40F40030DC
:103800006062052084F82000012070BD20684068B7
:1038100000F001000028EBD16062F6E7606A40F436
:10382000002060620120F0E77047704770477047E2
:1038300070477047704770B50446A56D00F040FBB7
:10384000064694F83500022808D08020606500BF45
:10385000002084F8340000BF012070BD206800689B
:1038600020F01600216808602068406920F0800080
:1038700021684861206C08B9A06C28B120680068F4
:1038800020F00800216808602068006820F001002E
:103890002168086010E000F013FB801B05280BD99D
:1038A00020206065032084F8350000BF002084F8E4
:1038B000340000BF0320D0E72068006800F001005A
:1038C0000028E8D194F85C103F208840A8600120CF
:1038D00084F8350000BF002084F8340000BF00BF2A
:1038E000BBE7014691F83500022803D080204865E7
:1038F00001207047052081F835000868006820F035
:1039000001000A6810600020F3E70000F8B50446E3
:10391000002000908C4800684FF41651B0FBF1F77E
:10392000A56D2E6894F85C1008208840304098B14E
:103930002068006800F0040070B12068006820F082
:1039400004002168086094F85C1008208840A86092
:10395000606D40F00100606594F85C1001208840C3
:10396000304068B12068406900F0800040B194F8B0
:103970005C1001208840A860606D40F00200606526
:1039800094F85C1004208840304068B120680068DA
:1039900000F0020040B194F85C1004208840A86058
:1039A000606D40F00400606594F85C101020884061
:1039B000304078B32068006800F0080050B394F8F5
:1039C0005C1010208840A8602068006800F4802007
:1039D00080B12068006800F4002028B9206CC8B1CC
:1039E0002046216C884715E0A06C98B12046A16C58
:1039F00088470FE02068006800F4807028B92068CC
:103A0000006820F0080021680860206C10B1204692
:103A1000216C884794F85C102020884030400028B2
:103A200065D02068006800F0100000285FD094F88E
:103A30005C1020208840A86094F83500052828D123
:103A40002068006820F0160021680860206840693E
:103A500020F0800021684861206C08B9A06C28B172
:103A60002068006820F008002168086094F85C1065
:103A70003F208840A860012084F8350000BF002066
:103A800084F8340000BF206D10B12046216D8847B6
:103A9000F8BD2068006800F4802080B120680068CC
:103AA00000F4002028B9606C10B12046616C884792
:103AB0001DE0E06BD8B12046E16B884717E0206835
:103AC000006800F4807068B92068006820F0100079
:103AD00021680860012084F8350000BF002084F8C8
:103AE000340000BFE06B10B12046E16B8847606D89
:103AF00038B3606D00F00100F0B1052084F83500A6
:103B00002068006820F001002168086000BF00986C
:103B1000401C0090B84200D905E02068006800F021
:103B200001000028F3D100BF012084F8350000BF58
:103B3000002084F8340000BFE06C10B12046E16C36
:103B4000884700BFA4E70000280000202DE9F041CD
:103B50000446002500F0B4F9074614B90120BDE879
:103B6000F081606A00B100BF022084F8350000BF18
:103B7000002084F8340000BF2068006820F00100B5
:103B8000216808600AE000F09BF9C01B052805D9F0
:103B900020206065032084F83500E0E72068006895
:103BA00000F001000028EED120680568214805409A
:103BB000D4E901010843E1680843216908436169C8
:103BC0000843A1690843E1690843216A08430543A2
:103BD000606A042803D1D4E90B0108430543206837
:103BE00005602068456925F00705606A0543606A3D
:103BF00004280DD1A06A0543E06A48B12046FEF7CB
:103C000077FE28B140206065012084F83500A6E7E2
:103C1000206845612046FEF751FE064694F85C1088
:103C20003F208840B06000206065012084F83500A6
:103C3000002094E73F8010F02DE9F04704460D4640
:103C400016461F464FF00008D4F8589000BF94F86D
:103C50003400012802D10220BDE8F087012084F859
:103C6000340000BF94F83500012825D1022084F8E3
:103C70003500002060653B46324629462046FEF767
:103C80008CFE94F85C103F208840C9F8080020683A
:103C9000006840F0160021680860206C28B1206898
:103CA000006840F00800216808602068006840F063
:103CB00001002168086006E000BF002084F834009D
:103CC00000BF4FF002084046C6E70000F8B50246C4
:103CD0000B460025002400200021D6E0012606FA2C
:103CE00001F51E6806EA0504AC4274D11E7906F09F
:103CF0000306012E04D01E7906F00306022E13D10E
:103D000090684F000326BE40B0434F00DE68BE40BF
:103D100030439060506801268E40B0431E79C6F350
:103D200000168E40304350601E7906F00306032EC5
:103D300009D0D0684F000326BE40B0434F009E68B4
:103D4000BE403043D0601E7906F00306022E13D128
:103D5000CF0802F1200656F827004E07F70E0F266F
:103D6000BE40B0434F07FF0E1E69BE403043CF0830
:103D700002F1200646F8270010684F000326BE40D7
:103D8000B0431E7906F003064F00BE40304310607A
:103D90005E6806F44036002E76D000BF00260096FE
:103DA0003C4E366846F480463A4F3E603E463668A2
:103DB00006F48046009600BF00BF374E8F0856F8C5
:103DC00027008E07370F0F26BE40B043334EB24256
:103DD00002D1002624E057E0314EB24201D1012643
:103DE0001EE0304EB24201D1022619E02E4EB24200
:103DF00001D1032614E02D4EB24201D104260FE07A
:103E00002B4EB24201D105260AE02A4EB24201D120
:103E1000062605E0284EB24201D1072600E008261A
:103E20008F073F0FBE4030431B4E8F0846F82700D8
:103E3000224E3068A0435E6806F4801606B1204327
:103E40001E4E3060361D3068A0435E6806F40016D2
:103E500006B12043194E361D3060184E361F3068AB
:103E6000A0435E6806F4003606B12043134E361FA9
:103E70003060361F3068A0435E6806F4803606B1B5
:103E800020430E4E083E3060491C1029FFF426AF37
:103E9000F8BD0000443802400838014000000240EC
:103EA0000004024000080240000C024000100240E2
:103EB0000014024000180240001C0240083C01406F
:103EC00001480068704700001C000020034800689B
:103ED0000349097808440149086070471C00002024
:103EE0002400002010B50D48006840F400700B4914
:103EF00008600846006840F4806008600846006872
:103F000040F480700860032000F0E0F80F2000F01B
:103F100007F800F05FF8002010BD0000003C0240F0
:103F20002DE9F04188B004460027B84600BF0020C4
:103F300001902348006840F01000214908600846BD
:103F4000006800F01000019000BF00BF02A903A8A4
:103F500000F092F9069F1FB900F0B6F9054602E09D
:103F600000F0B2F945001748B5FBF0F0A0F10108E8
:103F700015481649086040F2E7311448C160C0F89E
:103F80000480002101618160816100F0BFFC064670
:103F900096B90E4800F012FD06466EB9362000F0C4
:103FA00043F8102C07D200222146362000F050F8AA
:103FB0000748046000E00126304608B0BDE8F08103
:103FC0004038024040420F0000100040240A002008
:103FD0002000002008B500BF0020009011480068B4
:103FE00040F480400F4908600846006800F48040B3
:103FF000009000BF00BF00BF00200090081F0068B5
:1040000040F08050091F08600846006800F08050AA
:10401000009000BF00BF00220F21901E00F018F892
:1040200008BD0000443802400146084600280DDB68
:1040300000BF00BF00F01F0301229A4043099B000C
:1040400003F1E023C3F8002100BF00BF00BF7047A9
:104050002DE9F05F80460D461646002704F0EAFB86
:10406000074639462A46334601F00700C0F1070AE1
:10407000BAF1040F02D94FF0040A01E0C0F1070AB7
:10408000D14600F1040ABAF1070F02D24FF0000A3C
:1040900001E0A0F1030AD4464FF0010A0AFA09FA36
:1040A000AAF1010A0AEA020A0AFA0CFA4FF0010B15
:1040B0000BFA0CFBABF1010B0BEA030B4AEA0B0406
:1040C0002146404604F0BEFBBDE8F09F00BF00F073
:1040D0000702064B19684FF6FF031940044B0B43C8
:1040E00043EA0221014B196000BF70470CED00E06C
:1040F0000000FA0570B504460D460CB9012070BDEC
:104100005848006800F00700A84209D255490D70D0
:104110000846006800F00700A84201D00120EEE741
:10412000207800F0020002281DD1207800F0040061
:10413000042805D14C48006840F4E0504A49086022
:10414000207800F00800082805D14748006840F4AE
:104150006040454908604448006820F0F000A168CC
:10416000084341490860207800F00100A8B3606866
:10417000012807D13C4808380068C0F34040B8B96E
:104180000120BCE76068022802D06068032807D1DC
:10419000354808380068C0F3406048B90120AEE7F0
:1041A000314808380068C0F3400008B90120A6E78C
:1041B0002D48006820F00300616808432A49086020
:1041C000FFF77EFE064609E0FFF77AFE801B41F20C
:1041D0008831884202D9032091E707E0224800682D
:1041E00000F00C006168B0EB810FEDD11D48006854
:1041F00000F00700A84209D91A490D700846006866
:1042000000F00700A84201D0012078E7207800F0F4
:104210000400042807D11448006820F4E050E16845
:10422000084311490860207800F00800082808D1E8
:104230000D48006820F46040216940EAC1000A4945
:10424000086000F061F808490968C1F30311074AE2
:10425000515CC8400649086006480068FFF760FEE8
:1042600000204CE7003C02400838024024C100080E
:1042700028000020200000200F2202600D4A126852
:1042800002F0030242600B4A126802F0F002826000
:10429000084A126802F4E052C260064A126802F448
:1042A0006042D2080261044A126802F007020A6002
:1042B0007047000008380240003C02400148006896
:1042C000704700002800002000B5FFF7F7FF044901
:1042D0000968C1F38221034A515CC84000BD000057
:1042E0000838024034C1000800B5FFF7E7FF044971
:1042F0000968C1F34231034A515CC84000BD000067
:104300000838024034C100082DE9F0470024002598
:104310000026A1462548006800F00C0020B10428C2
:1043200005D008283AD105E0DFF8849039E0DFF8BD
:10433000849036E01D48001F006800F03F041B48D1
:10434000001F006800F4800078B11A481749091F5F
:104350000968C1F38811A0FB0170014622460023C1
:104360003846FCF701F805460EE011480F49091FD1
:104370000968C1F38811A0FB0170014622460023A1
:104380003846FBF7F1FF05460848001F0068C0F3F8
:104390000140401C4600B5FBF6F902E0DFF8109042
:1043A00000BF00BF4846BDE8F08700000838024063
:1043B0000024F40000127A00F8B504460CB901207C
:1043C000F8BD207800F00100002874D0F94800689A
:1043D00000F00C0004280DD0F648006800F00C0036
:1043E000082813D1F348001F006800F48000B0F5DE
:1043F000800F0BD1EF4808380068C0F34040002818
:1044000059D06068002856D10120D9E700BF606804
:10441000B0F5803F08D1E7480838006840F48030A4
:10442000E449083908601EE06068B0F5A02F0DD19E
:10443000E0480838006840F48020DE490839086008
:104440000846006840F4803008600CE0D94808381D
:10445000006820F48030D7490839086008460068B1
:1044600020F48020086000BF606890B1FFF728FD4D
:10447000054606E0FFF724FD401B642801D9032010
:104480009EE7CC4808380068C0F340400028F1D0CF
:1044900011E0FFF715FD054606E0FFF711FD401B93
:1044A000642801D903208BE7C24808380068C0F3AC
:1044B00040400028F1D1207800F0020002285FD1AE
:1044C000BC48006800F00C0058B1BA48006800F021
:1044D0000C0008281CD1B748001F006800F48000B9
:1044E000B0B9B44808380068C0F3400020B1E068B3
:1044F000012801D0012063E7AE480838006820F0A9
:10450000F800216940EAC100AA490839086037E08B
:10451000E06800B30120A8490860FFF7D1FC054618
:1045200006E0FFF7CDFC401B022801D9032047E736
:10453000A04808380068C0F340000028F1D09D482A
:104540000838006820F0F800216940EAC100994964
:104550000839086014E0002097490860FFF7B0FCB4
:10456000054606E0FFF7ACFC401B022801D90320FA
:1045700026E7904808380068C0F340000028F1D1D1
:10458000207800F0080008282CD16069A8B101202B
:104590008A490860FFF794FC054606E0FFF790FCA7
:1045A000401B022801D903200AE782486C300068CA
:1045B000C0F340000028F1D014E000207F490860DB
:1045C000FFF77EFC054606E0FFF77AFC401B022859
:1045D00001D90320F4E677486C300068C0F340004E
:1045E0000028F1D1207800F00400042870D10027C1
:1045F00070483830006800F0805090B900BF00204B
:1046000000906C483830006840F08050694938317B
:1046100008600846006800F08050009000BF00BFAE
:1046200001276748006800F48070B0B964480068EA
:1046300040F4807062490860FFF742FC054606E0DE
:10464000FFF73EFC401B022801D90320B8E65C4876
:10465000006800F480700028F2D000BFA068012834
:1046600008D154486830006840F001005149683171
:1046700008601DE0A06805280DD14E48683000682C
:1046800040F004004B49683108600846006840F07B
:10469000010008600CE047486830006820F0010025
:1046A0004449683108600846006820F0040008604A
:1046B00000BFA068A8B1FFF703FC054609E0FFF7BB
:1046C000FFFB401B41F28831884202D9032077E684
:1046D00026E0384868300068C0F340000028EED07B
:1046E00013E0FFF7EDFB054608E0FFF7E9FB401B91
:1046F00041F28831884201D9032061E62D486830B3
:104700000068C0F340000028EFD1012F07D12948ED
:104710003830006820F0805026493831086000BFEA
:10472000A069002845D02348006800F00C00082844
:104730005DD0A069022845D100201F490866FFF717
:10474000BFFB054606E0FFF7BBFB401B022801D973
:10475000032035E6174808380068C0F34060002899
:10476000F1D1D4E907010843616A40EA81110122CD
:10477000A06AC2EB500041EA00412C20005D41EAF2
:1047800000600C49091F086001200B490866FFF70B
:1047900097FB054606E0FFF793FB401B022801D973
:1047A00003200DE6034808380068C0F34060002885
:1047B000F1D049E00838024000004742800E4742ED
:1047C00000700040002021490866FFF779FB05468C
:1047D00006E0FFF775FB401B022801D90320EFE537
:1047E0001B480068C0F340600028F2D12CE0A069AB
:1047F000012800D1E4E51648001D0668A0690128DB
:1048000020D006F48001E06981421BD106F03F010F
:10481000206A814216D147F6C0703040616AB0EB21
:10482000811F0FD106F440310122A06AC2EB500073
:10483000B1EB004F06D106F070612C20005DB1EBAA
:10484000006F01D00120BBE50020B9E50000474220
:10485000003802407047704730B502460B4600BF33
:1048600092F83C00012801D1022030BD012082F8DD
:104870003C0000BF022082F83D00106844681068C8
:10488000816824F070041868044310684460184D6F
:104890001068A8421BD01068B0F1804F17D0154D9A
:1048A0001068A84213D0144D1068A8420FD0134DC1
:1048B0001068A8420BD0124D1068A84207D0114DC5
:1048C0001068A84203D0104D1068A84205D121F00D
:1048D00080015868014310688160012082F83D0022
:1048E00000BF002082F83C0000BF00BFBDE7000011
:1048F000000001400004004000080040000C00409F
:1049000000040140004001400018004010B504467A
:104910000CB9012010BD94F83D0028B9002084F89E
:104920003C00204600F026F8022084F83D00211DBE
:10493000206801F0FFFD012084F8460000BF84F8E4
:104940003E0001213F2001554020015541200155E5
:1049500000BF00BF012084F84200432001554420DD
:1049600001554520015500BF012084F83D0000207D
:10497000D0E7000038B504460E492068884217D1B8
:1049800000BF002000900C48006840F002000A4977
:1049900008600846006800F00200009000BF00BFF9
:1049A000002205211D20FFF753FB1D20FFF73CFBD4
:1049B00038BD00000004004040380240014691F834
:1049C0003D00012801D001207047022081F83D0000
:1049D0000868C06840F001000B68D8601A4B08688E
:1049E00098421BD00868B0F1804F17D0174B086869
:1049F000984213D0164B086898420FD0154B0868A0
:104A000098420BD0144B0868984207D0134B0868A3
:104A1000984203D0124B086898420CD1086880680D
:104A200000F00702062A0CD00868006840F0010078
:104A30000B68186005E00868006840F001000B682A
:104A400018600020C0E700000000014000040040A2
:104A500000080040000C00400004014000400140FC
:104A6000001800402DE9F04104460D46002700BF24
:104A700094F83C00012802D10220BDE8F081012019
:104A800084F83C0000BF022084F83D00206886685E
:104A900026F0770626F47F4620688660286850282E
:104AA00033D00CDC202850D004DC00284BD0102858
:104AB00051D149E0302849D040284CD139E0602814
:104AC0002DD0702807D0B0F5805F03D0B0F5005F1F
:104AD00041D10DE041E0D5E902136A68206801F098
:104AE00099FD2068866846F077062068866034E085
:104AF000D5E902136A68206801F08CFD206880689F
:104B000040F480402168886027E0EA68696820688E
:104B100001F094FD5021206801F087FD1DE0EA6856
:104B20006968206801F09DFD6021206801F07DFD2D
:104B300013E0EA686968206801F080FD4021206880
:104B400001F073FD09E000BF00BF00BF29682068C5
:104B500001F06BFD01E0012700BF00BF012084F8D8
:104B60003D0000BF002084F83C0000BF384684E7C9
:104B7000704770B504462068C5682068066906F06D
:104B80000200022819D105F00200022815D1401FA9
:104B900021680861012020772068806900F0030007
:104BA00018B12046FFF7E4FF05E0204600F097F833
:104BB000204600F095F80020207706F00400042835
:104BC00019D105F00400042815D1C04321680861FB
:104BD000022020772068806900F4407018B12046D8
:104BE000FFF7C6FF05E0204600F079F8204600F008
:104BF00077F80020207706F00800082819D105F082
:104C00000800082815D1C0432168086104202077D6
:104C10002068C06900F0030018B12046FFF7A8FF24
:104C200005E0204600F05BF8204600F059F800202F
:104C3000207706F01000102819D105F01000102878
:104C400015D1C04321680861082020772068C06919
:104C500000F4407018B12046FFF78AFF05E02046B7
:104C600000F03DF8204600F03BF80020207706F0E9
:104C7000010048B105F0010030B16FF0010021687A
:104C80000861204600F02EF806F08000802809D147
:104C900005F08000802805D1C043216808612046C6
:104CA000FFF7D8FD06F04000402809D105F040008C
:104CB000402805D1C04321680861204600F0F6F87D
:104CC00006F02000202809D105F02000202805D179
:104CD000C043216808612046FFF7BDFD70BD7047E5
:104CE0007047000010B5044663492068884201D12E
:104CF000FFF7ECF860492068884270D15F4800787F
:104D0000072804D05E480068401C5D4908605D4883
:104D100090ED000ADFED5C0A30EE200A80ED000A1B
:104D20005A48D0F8260000EE100ADFED570A30EEA0
:104D3000200A10EE100A5549C1F826005448D0F850
:104D4000260000EE100ADFED500A30EE200A10EEC9
:104D5000100A4F49C1F826004E48407801280DD16D
:104D60004C48D0F8420000EE100ADFED470A30EE62
:104D7000200A10EE100A4749C1F842004548407821
:104D800002280DD14348D0F83E0000EE100ADFEDB6
:104D90003E0A30EE200A10EE100A3E49C1F83E00ED
:104DA0003D490968D9B1374991ED000ADFED3B0A69
:104DB00020EE200ABCEEC00A10EE101A88B200EBFA
:104DC000D0714910A0EB410149B99FED350A2D483A
:104DD00080ED000A01213048006804F077FA31497B
:104DE0002068884247D1304840892F4908810020F7
:104DF00048810846408A0882002048820846C08EC2
:104E000088860020C8860846C08D88850020C88511
:104E10000846408E0886002048860846C08B888356
:104E20000020C8830846408D088500204885084634
:104E300080880880002088800846C088488000213B
:104E40001948C180408F18490887002048870846C4
:104E5000C08C88840020C8840846C08A88820020CC
:104E6000C8820846408B0883002048830846408C4F
:104E700008840020488410BD00100040C4020020B7
:104E80005C5400204C0800206F12833AE25400204A
:104E90009C54002004080020140000200000FA4464
:104EA00000000000000400404C5300207047704791
:104EB00070B50446002520684069C0F3C01594F819
:104EC0004100212817D1B5B100BF00BF21681431BE
:104ED00051E8001F21F080002168143141E80002F0
:104EE000002AF3D100BFA06B10B1A06BFEF7A3FCAA
:104EF000204602F0C7FD20684069C0F3801594F891
:104F00004200222817D1B5B100BF00BF216814317B
:104F100051E8001F21F040002168143141E80002EF
:104F2000002AF3D100BFE06B10B1E06BFEF783FC09
:104F3000204602F061FD002070BD70472DE9F84F5A
:104F40000446206805682068C668206847694FF0F5
:104F50000009CA4605F00F09B9F1000F0AD105F0A2
:104F6000200038B106F0200020B1204602F09DFD5F
:104F7000BDE8F88FB9F1000F7CD007F0010018B937
:104F800006F49070002875D005F0010030B106F4E9
:104F9000807018B1606C40F00100606405F004009E
:104FA00030B107F0010018B1606C40F0020060649D
:104FB00005F0020030B107F0010018B1606C40F05C
:104FC0000400606405F0080048B106F0200010B944
:104FD00007F0010018B1606C40F008006064606C7C
:104FE000002846D005F0200028B106F0200010B1BE
:104FF000204602F05AFD20684069C0F3801A606CB8
:1050000000F0080010B9BAF1000F2DD0204602F0D0
:10501000F3FC2068406900F04000402820D100BF28
:1050200000BF2168143151E8001F21F040002168C1
:10503000143141E80002002AF3D100BFE06B50B107
:105040007F48E16B0865E06BFEF74BFC88B1E06BD5
:10505000016D88470DE02046FFF76FFF09E009E08A
:105060002046FFF76AFF04E02046FFF766FF0020B6
:1050700060647DE7206B012878D105F010000028DE
:1050800074D006F010000028FAD000BF0020009075
:1050900020680068009020684068009000BF00BF52
:1050A0002068406900F04000402870D1E06B006843
:1050B00040681FFA80F8B8F1000F58D0A08D404525
:1050C00055DDA4F82E80E06BC069B0F5807F43D039
:1050D00000BF00BF21680C3151E8001F21F480702F
:1050E00021680C3141E80002002AF3D100BF00BF63
:1050F00000BF2168143151E8001F21F00100216830
:10510000143141E80002002AF3D100BF00BF00BF04
:105110002168143151E8001F21F04000216814314A
:1051200041E80002002AF3D100BF202084F84200A9
:105130000020206300BF00BF21680C3151E8001F30
:1051400021F0100021680C3141E80002002AF3D15F
:1051500000BFE06BFEF76FFB02206063A08DE28D65
:10516000801A81B22046FFF7A2FE0EE052E0A08D29
:1051700040450AD1E06BC069B0F5807F05D10220BF
:105180006063A18D2046FFF792FEF1E6FFE7A08D58
:10519000E18D401A1FFA80F8E08DD0B3B8F1000F0E
:1051A00037D000BF00BF21680C3151E8001F21F447
:1051B000907021680C3141E80002002AF3D100BF51
:1051C00000BF00BF2168143151E8001F21F0010029
:1051D0002168143141E80002002AF3D100BF2020E9
:1051E00084F842000020206300BF00BF21680C311A
:1051F00051E8001F21F0100021680C3141E8000245
:10520000002AF3D100BF0220606341462046FFF729
:105210004EFEADE605F0800030B106F0800018B11A
:10522000204602F043FEA3E605F0400030B106F050
:10523000400018B1204602F015FC99E600BF97E641
:105240005978000810B504460CB9012010BDA069BA
:1052500000B100E000BF94F8410028B9002084F8B4
:105260004000204600F02AF8242084F841002068FD
:10527000C06820F400502168C860204602F094FC09
:105280002068006920F49040216808612068406926
:1052900020F02A00216848612068C06840F400506E
:1052A0002168C86000206064202084F8410084F8F0
:1052B00042000020606300BFC8E7000010B586B060
:1052C0000446142101A8FBF726F9404920688842CA
:1052D0007AD100BF002000903D48006840F01000E7
:1052E0003B4908600846006800F01000009000BFCD
:1052F00000BF00BF0020009035481438006840F01F
:1053000001003349143908600846006800F00100C4
:10531000009000BF00BF4FF4C060019002200290D7
:1053200001200390032004900720059001A929483B
:10533000FEF7CCFC2848294908604FF0006048601F
:10534000002126488160C1604FF480610161002125
:1053500041618161C1614FF44031016200214162CC
:10536000FEF7F4FB08B1FDF76EFB00BF1B48E063DE
:10537000846300BF18487830194908604FF0006016
:1053800048604021164881600021C1604FF480616F
:105390000161002141618161C1614FF440310162CD
:1053A00000214162FEF7D2FB08B1FDF74CFB00BFC4
:1053B0000B48A063846300BF002205212520FEF76F
:1053C00047FE2520FEF730FE06B010BD001001405C
:1053D000443802400000024040640240640900205A
:1053E000C409002070B504460D46164694F84200E4
:1053F00020280BD105B10EB9012070BD002020631B
:1054000032462946204602F0E5FCF6E70220F4E7A2
:1054100070477047F7B50446154694F841002028B8
:105420003ED1019800B10DB90120FEBD0198206266
:10543000A584E58400206064212084F84100194897
:10544000A16BC8631848A16B08641848A16BC864B5
:105450000020A16B086501AE23681A1D31682B4638
:10546000A06BFEF7E9FB30B110206064202084F8C7
:1054700041000120D9E76FF040002168086000BFBB
:1054800000BF2168143151E8001F41F080002168FD
:10549000143141E80002002AF3D100BF0020C4E724
:1054A0000220C2E793790008EB7900086B780008C6
:1054B0007047704700BFFEE710B5104810490860FC
:1054C0000320486000210E488160C1604FF4002134
:1054D00001614FF4401141610021017601214176C3
:1054E000002181760121C1760021017701214177D8
:1054F000FDF726FE08B1FDF7A6FA10BD00640040D6
:105500008408002010B51048104908600320486046
:1055100000210E488160C1604FF4002101614FF409
:1055200040114161002101760121417600218176FF
:105530000121C176002101774177FDF701FE08B115
:10554000FDF781FA10BD000000680040AC080020A3
:1055500008B500BF002000900E48006840F48000AD
:105560000C4908600846006800F48000009000BF05
:1055700000BF002205213A20FEF76AFD3A20FEF71F
:1055800053FD002205214620FEF762FD4620FEF76E
:105590004BFD08BD3038024010B5154A00211548B2
:1055A00003F02DFF14490860144A0021144803F049
:1055B00026FF14490860144A0021144803F01FFF15
:1055C00013490860134A0021134803F018FF1349D8
:1055D0000860134A0021134803F011FF12490860C4
:1055E000124A0021124803F00AFF1249086010BD58
:1055F00044C00008276300080000002068C00008BD
:10560000A1630008040000208CC00008316300087A
:1056100008000020B0C00008556300080C000020FE
:10562000D4C000087D63000810000020F8C0000806
:10563000C56300081400002008B500BF00200090DA
:105640001548006840F0800013490860084600686B
:1056500000F08000009000BF00BF00BF002000905D
:105660000846006840F0010008600846006800F045
:105670000100009000BF00BF00BF0020009008465E
:10568000006840F0020008600846006800F0020070
:10569000009000BF00BF08BD3038024000B587B0A1
:1056A0000020039004900590069001900290154808
:1056B0001549086042F2CF0048600021124881601D
:1056C00042F20F71C160002101618161FFF71EF993
:1056D00008B1FDF7B8F94FF48050039003A90A48C8
:1056E000FFF7C0F908B1FDF7AEF900200190029074
:1056F00001A90548FFF7B0F808B1FDF7A4F907B014
:1057000000BD000000040040D408002010B50B4884
:105710000B4908604FF4612048600021084881600F
:10572000C16001610C21416100218161C161FFF70C
:1057300089FD08B1FDF787F910BD00000010014098
:105740001C09002000BFFEE710B56D48007830B995
:1057500000F0EAFC6B496C48FBF7D2FA27E0684896
:105760000078012823D1694890ED010A654880ED51
:10577000020A674890ED010A624880ED010A654817
:1057800090ED140A5F4880ED000A634890ED010A2D
:105790005C4880ED030A614890ED0A0A594880EDA3
:1057A000050A5F4890ED0A0A564880ED040AFAF7A8
:1057B00079FF5448D0ED030AB0EE600A9FED591A04
:1057C000F9EE040AFCF71CFE4E4880ED030AD0ED0A
:1057D000020AB0EE600A9FED541ADFED540AFCF79E
:1057E0000FFE484880ED020AD0ED010AB0EE600AD3
:1057F0009FED4F1AFBEE0E0AFCF702FE414880EDCA
:10580000010AD0ED000AB0EE600A9FED491ADFED03
:10581000490AFCF7F5FD3B4880ED000AD0ED060A89
:10582000B0EE600A9FED441ADFED440AFCF7E8FD94
:10583000344880ED060AD0ED040AB0EE600A9FED10
:10584000401ADFED390AFCF7DBFD2E4880ED040A33
:10585000D0ED050AB0EE600A9FED321ADFED390A8D
:10586000FCF7CEFD274880ED050A90ED020A364888
:1058700080ED000A234890ED010AB1EE400A32485B
:1058800080ED010A1F4890ED000A2F4880ED020AC2
:105890001C4890ED040AB1EE400AF1EE000A80EED9
:1058A000201A2A4880ED001A164890ED050AB1EE3C
:1058B000400AF0EE000A80EE201A244880ED011A1A
:1058C0002148FBF727F9214800F09EF9FCF748FE34
:1058D0001F48FAF705FF1F4908701D48801DFAF799
:1058E000FFFE1C49487009491B4802F085FD084924
:1058F0001A4802F081FD0849194802F07DFD10BDEB
:1059000064080020C4530020EC0000200054002054
:10591000E4530020E80100201C5400207403002000
:10592000200300200000344300000000000016C3E4
:105930000000B4420000BEC200003445000034C57F
:1059400000000744000007C48C0700202C0700203B
:1059500040530020AC0000206001002048010020DE
:105960007801002000BFFEE710B52DED088B04463E
:10597000B0EE408AF0EE608A94ED020A84ED030AEC
:1059800084ED008AC4ED018A94ED000AD4ED010A89
:1059900030EE600A84ED020A94ED120A10EE101A3D
:1059A000084606F09DFA41EC190B94ED020A10EE40
:1059B000101A084606F094FA41EC1B0BB0EE4B0AA5
:1059C000F0EE6B0A03F0B2F9B0EE40AAF0EE60AA76
:1059D00053EC192B51EC1A0B05F05CFF03D89FED2B
:1059E000440A84ED020AD4ED111AB0EE611AD4ED26
:1059F000111AF1EE611AF0EE610AD4ED021AB0EE5E
:105A0000610AFCF7FDFC84ED020A94ED040AD4ED72
:105A1000020A30EE200A84ED040AD4ED0F1AB0EE2B
:105A2000611AD4ED0F1AF1EE611AF0EE610AD4EDAD
:105A3000041AB0EE610AFCF7E3FC84ED040AD4ED2D
:105A4000051A94ED022A61EE821AB0EE610AD4EDD5
:105A50000E1AB0EE611AD4ED0E1AF1EE611AF0EEE4
:105A6000610AFCF7CDFC84ED090A94ED060AD4ED39
:105A7000040A20EE200A84ED0A0AD4ED021A94EDFD
:105A8000032A71EEC21A94ED072A61EE821AB0EE73
:105A9000610AD4ED101AB0EE611AD4ED101AF1EECD
:105AA000611AF0EE610AFCF7ABFC84ED0B0A94ED91
:105AB000090AD4ED0A0A30EE200AD4ED0B0A30EEC2
:105AC000200A84ED080AD4ED0D1AB0EE611AD4ED67
:105AD0000D1AF1EE611AF0EE610AD4ED081AB0EE7B
