:020000040800F2
:10000000A0A200202903000829360008713000084A
:10001000A53400087F060008393F000800000000F2
:10002000000000000000000000000000690200085D
:10003000890A000800000000C50200084B380008CB
:100040004303000843030008430300084303000878
:100050004303000843030008430300084303000868
:100060004303000843030008430300084303000858
:100070004303000843030008430300084303000848
:100080004303000843030008430300084303000838
:10009000C1060008430300084303000843030008A7
:1000A0004303000843030008430300084303000818
:1000B00043030008430300085939000843030008BC
:1000C00043030008430300084303000843030008F8
:1000D000F5370008CD3E000843030008430300083D
:1000E00043030008430300084303000843030008D8
:1000F00043030008430300084303000843030008C8
:10010000430300084303000865390008430300085F
:1001100043030008430300084303000843030008A7
:1001200043030008B5090008C1090008430300089B
:100130004303000843030008430300084303000887
:1001400011070008430300084303000843030008A5
:1001500043030008CD090008D9090008D93E00086A
:100160004303000843030008430300084303000857
:100170004303000843030008430300080000000095
:10018000430300084303000800F002F800F05CF8A5
:100190000AA090E8000C82448344AAF10107DA45E2
:1001A00001D100F051F8AFF2090EBAE80F0013F0D8
:1001B000010F18BFFB1A43F001031847E86600005F
:1001C000086700000A444FF0000C10F8013B13F0E0
:1001D000070408BF10F8014B1D1108BF10F8015BA0
:1001E000641E05D010F8016B641E01F8016BF9D193
:1001F00013F0080F1EBF10F8014BAD1C0C1B09D1EA
:100200006D1E58BF01F801CBFAD505E014F8016B5B
:1002100001F8016B6D1EF9D59142D6D370470000ED
:100220000023002400250026103A28BF78C1FBD8FF
:10023000520728BF30C148BF0B6070471FB506F09A
:1002400052FA1FBD10B510BD00F0E4F91146FFF7DA
:10025000F5FF04F0F5F800F002FA03B4FFF7F2FF3F
:1002600003BC00F005FA00002C4B19680868B0E8E0
:10027000F04F80F30988BFF36F8F4FF0000080F3D9
:10028000118870470000000008480068006880F38B
:1002900008884FF0000080F3148862B661B6BFF39F
:1002A0004F8FBFF36F8F00DF00BF00BF08ED00E08E
:1002B000DFF80C00016841F470010160704700BF75
:1002C00088ED00E0EFF30980BFF36F8F134B1A68DE
:1002D0001EF0100F08BF20ED108A20E9F04F1060CB
:1002E00009B44FF0500080F31188BFF34F8FBFF374
:1002F0006F8F05F0B3F84FF0000080F3118809BC50
:1003000019680868B0E8F04F1EF0100F08BFB0EC95
:10031000108A80F30988BFF36F8F70473800002080
:10032000EFF30580704700000948804709480047FF
:10033000FEE7FEE7FEE7FEE7FEE7FEE7FEE7FEE795
:10034000FEE7FEE704480549054A064B70470000F2
:10035000F938000889010008A09C0020A0A2002014
:10036000A09E0020A09E002053EA020C00F06980AD
:100370002DE9F04B4FF00006002B1FBFB3FA83F5B9
:1003800003FA05F424FA05F65E4012BF1643B2FAEA
:1003900082F502FA05F4C5F120051EBF22FA05FC1C
:1003A00044EA0C04203556EA044C4FEA144418BFC2
:1003B000641C4FF000084FF00009904271EB030CF1
:1003C00039D3002919BFB1FA81F701FA07F6B0FA5B
:1003D00080F700FA07F6C7F120071EBF20FA07FCD6
:1003E00046EA0C062037B6FBF4FCA7EB0507103FE6
:1003F00007F01F0BCBF120060CFA0BFB2CFA06F6CC
:1004000044BFB3460026202FA4BF5E464FF0000B2A
:100410005BEA060C08BF4FF0010B19EB0B09ABFBB5
:10042000027C48EB0608C01B06FB02CC0BFB03CC8E
:1004300071EB0C01C1E70B46024641464846BDE858
:10044000F08B13B54FF000004FF00001AFF30080C8
:10045000BDE81C407047032A40F2308010F0030CC6
:1004600000F0158011F8013BBCF1020F624498BF07
:1004700011F801CB00F8013B38BF11F8013BA2F1A4
:10048000040298BF00F801CB38BF00F8013B11F01F
:10049000030300F02580083AC0F0088051F8043BBF
:1004A000083A51F804CBA0E80810F5E7121D5CBF2C
:1004B00051F8043B40F8043BAFF30080D20724BF5F
:1004C00011F8013B11F801CB48BF11F8012B24BFF3
:1004D00000F8013B00F801CB48BF00F8012B704742
:1004E00010B5203AC0F00B80B1E81850203AA0E8CF
:1004F0001850B1E81850A0E81850BFF4F5AF5FEA03
:10050000027C24BFB1E81850A0E8185044BF18C9B5
:1005100018C0BDE810405FEA827C24BF51F8043B5C
:1005200040F8043B08BF7047D20728BF31F8023BB0
:1005300048BF11F8012B28BF20F8023B48BF00F844
:10054000012B704702F0FF0343EA032242EA024212
:1005500000F037B84FF0000200B5134694469646B7
:10056000203922BFA0E80C50A0E80C50B1F12001C6
:10057000BFF4F7AF090728BFA0E80C5048BF0CC074
:100580005DF804EB890028BF40F8042B08BF7047D2
:1005900048BF20F8022B11F0804F18BF00F8012B44
:1005A000704770477047704710B500F02BF800682F
:1005B00010BD10B5044600F025F8046010BD4FF0E2
:1005C00000020429C0F0128010F0030C3FF4C4AF05
:1005D000CCF1040CBCF1020F18BF00F8012BA8BF2E
:1005E00020F8022BA1EB0C01FFF7B6BF5FEAC17C3C
:1005F00024BF00F8012B00F8012B48BF00F8012BA5
:100600007047000000487047409C00200048704739
:10061000409C00207546FFF7F9FFAE46050069468D
:10062000534620F00700854618B020B5FFF78AFE34
:10063000BDE820404FF000064FF000074FF00008E3
:100640004FF0000B21F00701AC46ACE8C009ACE864
:10065000C009ACE8C009ACE8C0098D46704710B5C8
:100660000446AFF300802046BDE81040FFF7F5BD1B
:1006700001491820ABBEFEE7260002007047FEE7E6
:1006800000B58BB000200121CDE9060147F6FE72CE
:100690000590CDE900200290039004900E20CDE952
:1006A00008106946054800F0D3FB044801F046F8FD
:1006B0000221024800F052FB0BB000BD540900209B
:1006C000014800F0C6BC00005409002000B58BB002
:1006D0000E20059000200121CDE9060147F6FE72AB
:1006E000CDE900200290039004901C20CDE9081071
:1006F0006946064800F0ACFB044801F01FF80221EF
:10070000024800F02BFB0BB000BD00007C0900206C
:10071000014800F09EBC00007C0900207CB5160A50
:100720008DF800608DF801201A0ADDE906548DF875
:1007300002202A0A8DF804208DF80550220A8DF82F
:1007400006208DF803308DF8074089B208236A46E9
:1007500000F066F87CBD30B50246002093685B016E
:1007600008D49068000101D5012003E09068C00022
:100770004AD5022002EB0012D2F8803103F00103C7
:10078000C2F880310B7AF3B3D2F880414D681C4334
:100790004B7A43EAC5031C43C2F880418B7A03F0CD
:1007A0000F038B72D2F8843123F00F03C2F8843127
:1007B000D2F884318C7A2343C2F88431D2F8843160
:1007C00023F48073C2F88431CB7A8C7B0D7B43EAAF
:1007D00004634C7B240444EA05242343C2F8883193
:1007E000CB7B8C7C43EA04634C7C097C240444EA84
:1007F00001210B43C2F88C31D2F8801141F0010184
:10080000C2F8801130BD01E00420FBE7D2F880314E
:100810004C7A23430C8843EA4453C2F88031BDE745
:1008200070B5104C064600202160A060C4E90303A7
:10083000154601232146304600F0A2FA00280FD0C9
:1008400002232A462146304600F09AFA002807D0B3
:100850002A4621463046BDE87040042300F090BA95
:1008600070BD00007099002010B504462DED088B76
:1008700090ED000AD0ED060A70EE608AC0ED028AA3
:1008800090ED040AD0ED010A90ED03BA40EE208A03
:100890002BEE008A60EE089AB0EEE89A19EE100A84
:1008A00005F0B0FEB2EE000A41EC1A0B2BEE000A86
:1008B00010EE100A05F0A6FE53EC1A2B05F0EEFB25
:1008C00028EE080A41EC1A0B10EE100A05F09AFE09
:1008D00053EC1A2B05F022FB41EC100B03F03DFB0F
:1008E00051EC100B05F0E8FA00EE900AB4EEE99A2C
:1008F000F1EE10FA12DDB0EE680A02F095FF00EE9C
:10090000100A70EEC80AB6EE001AB8EEC00A60EE21
:10091000200A94ED010A00EE810A07E094ED040A32
:10092000C8EE800A94ED010A30EE800AF0EEC00AAB
:10093000F4EEC80AF1EE10FA0ADD02F075FF00EEDF
:10094000100AD4ED030AB8EEC00A20EEC00A05E092
:10095000D4ED030A60EEC00A80EE880AD4ED001AD6
:1009600094ED051AD4ED010A41EE201AC4ED001AE7
:1009700041EE000AC4ED010ABDEC088B10BDB4EED7
:10098000E00AF1EE10FA02D2B0EE600A7047B4EE5F
:10099000C10AF1EE10FAF9DDB0EE410A704700002D
:1009A000034803F045FE012004F0A4FCF8E7000032
:1009B000E8030020014800F04FBF0000940B002026
:1009C000014800F049BF0000D40A0020014800F0AF
:1009D00043BF0000F40B0020014800F03DBF0000C1
:1009E000340B002001681823CAB2103AB2FBF3F2AC
:1009F000054B6FF30901032A9B5CC36500D9091DF0
:100A000081650846704700001C68000810B5014663
:100A100000208B698A6A4FF0C07453B1B3F5005F50
:100A200015D072B1012A0CD0022A0AD0032A09D1AA
:100A300004E01AB1012A06D0022A03D1C96AC90109
:100A400000D5012010BDC96AA142FAD010BD002A0C
:100A5000F7D0012AF2D0022AF3D0032AF3D010BD36
:100A600030B50468256825F4802525600468636036
:100A70008368402B036803D099600068C26030BD72
:100A80009A600068C16030BD704700002DE9F05FDA
:100A9000DFF8208201242DED028B98F8000028B9A0
:100AA00001F04AF9C8F8040088F8004001F044F960
:100AB000D8F8041041F65833401A7F4ADFF8FCB1E9
:100AC0007F499FED808A804DDFF800A2804E814FE4
:100AD000DFF8049298427CD2287805280DD2DFE80E
:100AE00000F00310255085000A2050708BF800405C
:100AF00003F060FC012800D12C70BDEC028BBDE836
:100B0000F09F9FED760A81ED000AD2ED180A744934
:100B100030EE600AB0EEC00A10EE100A8842ECDA3D
:100B20004FF47A7004F0E6FB02205DE09FED6D0A61
:100B30006D4880ED000A9AED4C0A6C48B0EEC00A90
:100B400010EE101A814217DC96ED4C0AB0EEC00A86
:100B500010EE101A81420FDC97ED4C0AB0EEC00A7D
:100B600010EE101A814207DC99ED4C0AB0EEC00A73
:100B700010EE101A8142C0DD322004F0BBFB0320CE
:100B800032E09FED5B0A584880ED000A9AED4C0A6E
:100B90005848B0EEC00A10EE101A814217DB96EDED
:100BA0004C0AB0EEC00A10EE101A81420FDB97ED2E
:100BB0004C0AB0EEC00A10EE101A814207DB99ED24
:100BC0004C0AB0EEC00A10EE101A814295DA0220EB
:100BD00000E058E08BF800004748016841F0200130
:100BE000016003F0A1FB0420287086E798F801005B
:100BF00028B901F0A1F8C8F8080088F801409AED7A
:100C00004C0A3E48B0EEC00A10EE101A81421FDBBB
:100C100096ED4C0AB0EEC00A10EE101A814217DBB6
:100C200097ED4C0AB0EEC00A10EE101A81420FDBAD
:100C300099ED4C0AB0EEC00A10EE101A814207DBA3
:100C400001F07AF8D8F80810401AB0F57A7FCCD9BC
:100C50002948016821F0200101608AF85C4086F88B
:100C60005C4087F85C4000201F4989F85C408BF8A5
:100C7000000081ED008A88F80100052285F8002037
:100C800088F8000039E700208BF8000050708AF8DF
:100C90005C4086F85C40144A87F85C4089F85C4008
:100CA00082ED008A81ED008A88F801000521297013
:100CB000E6E7000048090020E80300204109002081
:100CC00038090020000000004009002068040020CE
:100CD0009C050020D00600200408002000002A43C4
:100CE000000040400000C8433C0900200000DC42F6
:100CF0000000C8C200003442C80000200000A0402C
:100D000072B6FEE7114EDFF84880124F124D0024F4
:100D10003078012808D1FFF7B9FE98F800100529AE
:100D200002D1347088F800403878012803D103F0EC
:100D300041FB00B13C702878012802D103F0F4FA9D
:100D40002C70012003F09AFCE2E700004209002029
:100D500040090020430900204409002090F8202089
:100D6000012A07D0022A05D0416A41F4802141625C
:100D700001207047006842690A43426100207047C1
:100D8000F0B590F820500468A468012D05D0022D1C
:100D900003D0416A41F4802157E014F0406F01D143
:100DA000E5004FD5C4F301640125A5401D608D68A1
:100DB0004FF4C0739DB1CE6835434E6845EAC60511
:100DC000066803EB0417F5514FF4C275076805EB8D
:100DD00004150E697E51097D012905D009E00E88B0
:100DE000CD6845EA4655EBE701684E5946F48076F2
:100DF0004E511179D579567941EA056195792D04DD
:100E000045EA062529434FF4C676056806EB041625
:100E1000A9511178D57841EA0561957852782D0469
:100E200045EA022211434FF4C475026805EB04152C
:100E30005151006803EB0411425842F00102425044
:100E40000020F0BD416A41F4001141620120F0BD73
:100E500010B590F82020012A07D0022A05D0416A57
:100E600041F480214162012010BD3B48D0F80022AE
:100E700042F00102C0F80022D0F8002222F47C5295
:100E8000C0F80022D0F800224B6A42EA0322C0F8E0
:100E900000220A7D02F01F0301229A40D0F81C3282
:100EA0009343C0F81C32CB69B3B9D0F80C329343EA
:100EB000C0F80C328C894B6864F31F434C6900EB1B
:100EC000C404C4F840320C890B6864F31F434C69B6
:100ED00000EBC404C4F84432CB69012B16D1D0F81E
:100EE0000C321343C0F80C320C884B6864F31F4378
:100EF0004C6900EBC404C4F840320C89CB6864F33D
:100F00001F434C6900EBC404C4F844328B69002BC6
:100F1000D0F804320ED01343C0F804320B69002B12
:100F2000D0F8143208D01343C0F81432096A0129EA
:100F300004D008E09343EFE79343F5E7D0F81C12A1
:100F40001143C0F81C12D0F8001221F00101C0F8C2
:100F50000012002010BD000000640040704770B512
:100F600090F82040012C05D0022C03D0416A41F4B6
:100F7000802128E0046809B32469A40720D04FF435
:100F8000D874056804EB01142D5915F0040595601B
:100F900005682D591AD0ED08556005682C5904F0E4
:100FA0000204D4604FF4DA74056804EB01142E597E
:100FB00006F00F06082E0CD308250DE0E468DCE7E8
:100FC000416A41F400114162012070BD6D0D156050
:100FD000E3E72D5905F00F05156105682D59C5F397
:100FE0000725956105682C59240C54614FF4DC7277
:100FF000046802EB0112A4581C700468A458240A67
:101000005C700468A458240C9C700468A258120EEA
:10101000DA704FF4DE72046802EB0112A4581C71FE
:101020000468A458240A5C710468A458240C9C71B8
:101030000468A258120EDA71006829B1016941F002
:1010400020010161002070BDC16841F02001C16034
:10105000F8E72DE9F05F0546006800244669D0F8FE
:1010600004908768D0F80CB0D0F810A0D0F81880A1
:10107000F10748D0F90714D001218160B80703D5E2
:10108000284600F088FB0CE0780702D54FF4006496
:1010900007E0380702D54FF4805402E0284600F0FC
:1010A00079FBF80516D529684FF480708860B8057B
:1010B00003D5284600F071FB0CE0780502D544F416
:1010C000005407E0380502D544F4804402E0284685
:1010D00000F062FBF80316D529684FF48030886071
:1010E000B80303D5284600F05AFB0CE0780302D57C
:1010F00044F4004407E0380302D544F4803402E0AD
:10110000284600F04BFB300707D55FEACB6004D5DB
:101110002968102044F40074C86070074FF0080775
:1011200007D55FEA0B7004D52868C760284600F031
:101130009DF9B00706D52868C068800702D0284608
:1011400000F096F9700607D55FEACA6004D52968F1
:10115000102044F480640861B00607D55FEA0A7085
:1011600004D528680761284600F0E4FAF00606D5A1
:1011700028680069800702D0284600F0DCFAB00336
:1011800008D55FEAC96005D529681020486028465F
:1011900000F0D2FAF00307D55FEA097004D5286899
:1011A0004760284600F0FCFA300446D55FEA4970F3
:1011B00040D5F00504D55FEAC87001D044F00104C1
:1011C000B00504D55FEA887001D544F002047005CB
:1011D00004D55FEA487001D544F00404300529D5F0
:1011E00018F0700F26D008F07000402815D006DCEB
:1011F000102809D020280AD0302816D10AE050281B
:101200000ED0602811D10EE044F008040DE044F047
:1012100010040AE044F0200407E044F0400404E035
:1012200044F0800401E044F480742868816921F06E
:1012300070018161296804204860002C05D0686A2B
:10124000204368622846FFF789FEBDE8F09F70B52D
:10125000040003D094F8200010B104E0012070BD18
:10126000204600F081F82068016841F0010101602A
:1012700000F062FD0546052604E000F05DFD401B20
:101280000A2811D820684068C007F6D02068016895
:1012900021F00201016000F04FFD05460BE000F077
:1012A0004BFD401B0A2806D9606A40F4003060629A
:1012B00084F82060D2E7206840688007EFD4207E61
:1012C0000128206801683DD021F080010160607E26
:1012D00001282068016838D021F040010160A07E1B
:1012E00001282068016833D021F020010160E07EF0
:1012F0000128206801682ED041F010010160207F94
:1013000001282068016829D021F008010160607F70
:1013100001282068016824D021F004010160D4E98B
:1013200002010843D4E90412114308436168491ECD
:1013300008432168C86100206062012084F8200011
:10134000002070BD41F08001C0E741F04001C5E7D9
:1013500041F02001CAE721F01001CFE741F0080178
:10136000D4E741F00401D9E72DE9F04387B0044602
:1013700014216846FFF7EEF8384B3948DFF8D8807B
:101380001968D4F800C00124354A0225032609272C
:10139000DFF8D0901030491CC44524D119600129D0
:1013A00007D1016841F000710160006800F0007031
:1013B0000590106840F002001060106802AB00F069
:1013C000020005904FF44070CDE9000583E8D0009D
:1013D0006946484600F0B2FB00220521142000F0C7
:1013E00049FD142032E0DFF88080C44530D1D0F8C8
:1013F00000C04CF0806CC0F800C0D0F800C00129DB
:101400000CF0806CCDF814C0196007D1016841F070
:1014100000710160006800F000700590106840F0F5
:1014200002001060106802AB00F00200059060201E
:10143000CDE9000583E8D0006946484600F07EFB10
:1014400000220521402000F015FD402000F004FDA1
:1014500007B0BDE8F08300000064004020000020D9
:10146000303802400004024000680040704700002D
:101470002DE9F041074600689D499E4C88B088429E
:1014800069D120899C4B401C20816A460021384646
:10149000FFF765FD00999848984D994EA1F50071A8
:1014A000013906D0012918D002292BD0032952D1A5
:1014B0003DE0DFF850820168C8F828104068A86055
:1014C0008E4801F017FE95ED010A88ED0B0A86EDB6
:1014D000010AE089401CE0813DE0DFF82C820168D0
:1014E000C8F828104068E8618448143001F002FE12
:1014F00095ED060A88ED0B0A86ED140A608A401CF9
:10150000608228E0DFF804820168C8F8281040688B
:1015100028637A48283001F0EDFD95ED0B0A88ED3F
:101520000B0A86ED3A0AE08A401CE08213E0DFF8FD
:10153000E0810168C8F82810406868646F483C3052
:1015400001F0D8FD95ED100A88ED0B0A86ED270A0B
:10155000608B401C60836F493868884235D1608950
:10156000654B401C608108336A4600213846FFF70E
:10157000F6FC009A40F20325A2F203239FED660ACF
:101580005D4801210830AA4264D011DCA2F5007246
:10159000013A1DD0012A18D10268604D00EE902A50
:1015A00020EE800A85ED0F0A95F85420B2B33AE098
:1015B000012B76D0A3F58073533B06D14E48584992
:1015C00082680A605749C068086008B0BDE8F081C9
:1015D0000268554D00EE902A20EE800A85ED0F0A34
:1015E00095F854201AB985ED160A85F85410D5EDF2
:1015F000160A30EE600A85ED4C0A85ED2C0A40682B
:10160000A860494801F076FD95ED010A85ED100AC4
:1016100085ED190AE08C401CE084D6E7FFE785EDF4
:10162000160A85F85410D5ED160A30EE600A85EDDD
:101630004C0A85ED2C0A4068A860384801F05AFD34
:1016400095ED010A85ED100A85ED190A608D401CA3
:101650006085BAE70268354D00EE902A20EE800AD8
:1016600085ED0F0A95F854201AB985ED160A85F80C
:101670005410D5ED160A30EE600A85ED4C0A85ED62
:101680002C0A4068A860294801F034FD95ED010A54
:1016900085ED100A85ED190AE08B401CE08394E784
:1016A000FFE70268224D00EE902A20EE800A85EDC9
:1016B0000F0A95F854201AB985ED160A85F85410CA
:1016C000D5ED160A30EE600A85ED4C0A85ED2C0A40
:1016D0004068A860164801F00DFD95ED010A85ED02
:1016E000100A85ED190A608C401C60846DE70000CB
:1016F0000064004088990020B80000209803002072
:1017000048010020E0990020709A0020B89A00203B
:10171000289A00200068004035FA8E3C9C05002085
:10172000400100204401002068040020D006002071
:1017300004080020704770477047000070B50446E9
:1017400090F82000012804D0606A40F40020606214
:1017500018E0022084F820002068016821F00101CF
:10176000016000F0E9FA05460EE000BF00F0E4FA7F
:10177000401B0A2808D9606A40F4003060620520E6
:1017800084F82000012070BD20684068C007EDD1BA
:10179000606270BD70477047704770477047704710
:1017A00070472DE9F0410446876D00F0C5FA064602
:1017B00094F835000025022806D08020606584F862
:1017C00034500120BDE8F0812068016821F0160145
:1017D00001602068416921F080014161206C08B9F5
:1017E000A06C20B12068016821F008010160206828
:1017F000016821F0010101600CE000F09DFA801BFE
:10180000052807D920206065032084F8350084F876
:101810003450D7E720680068C007EED194F85C1018
:101820003F208840B860012084F8350084F83450A7
:101830000020C7E790F83510022903D080214165C8
:1018400001207047052180F835100068016821F0FB
:1018500001010160002070472DE9F84304464FF074
:101860000009CDF8009063484FF41651A56D00684B
:10187000B0FBF1F72E6894F85C10082000FA01F133
:1018800031420FD021680A6852070BD50A6822F04E
:1018900004020A6094F85C108840A860606D40F013
:1018A0000100606594F85C104FF0010808FA01F03F
:1018B000304208D021684969090604D5A860606DE6
:1018C00040F00200606594F85C10042088403042CB
:1018D00008D021680968890704D5A860606D40F0C8
:1018E0000400606594F85C1010208840304218D0E5
:1018F00021680968090714D5A860206801684903B0
:1019000004D50068000308D5A16C07E00168C9058B
:1019100003D4016821F008010160216C09B120465F
:10192000884794F85C1020208840304231D02168EC
:101930000968C9062DD5A86094F8350005282068E7
:10194000016806D0490347D5006800031DD4616CC7
:101950001CE021F0160101602068416921F080013E
:101960004161206C08B9A06C20B12068016821F0A9
:101970000801016094F85C103F208840A86084F85A
:10198000358084F83490216D1FE0E16B09B1204669
:101990008847606D00282BD0606DC00714D00520EB
:1019A00084F835002068016821F001010160009889
:1019B000401C0090B84203D820680068C007F6D1E8
:1019C00084F8358084F83490E16C002910D001B09F
:1019D0002046BDE8F04308470168C905D5D4016831
:1019E00021F01001016084F8358084F83490CCE750
:1019F000BDE8F883340000202DE9F041044600F0F2
:101A00009BF906465CB1022084F83500002584F875
:101A100034502068016821F0010101600DE00120CF
:101A2000BDE8F08100F088F9801B052805D9202049
:101A30006065032084F83500F2E720680068C0077D
:101A4000F0D12268116820480140D4E9010318430D
:101A5000D4E903363343184363691843A369184331
:101A6000E3691843236A18430843616A042903D1D0
:101A7000D4E90B1319430843106020684069666A73
:101A800020F0070130460E43012704280CD1A06A3C
:101A90000643E06A40B12046FEF7B8FF20B140207F
:101AA000606584F83570BAE7206846612046FEF725
:101AB00099FF94F85C203F2191408160656584F82E
:101AC00035700020ACE700003F8010F02DE9F041B8
:101AD0000446866D90F83400002501280DD00120C1
:101AE00084F8340094F835700020012F07D084F872
:101AF000340002252846BDE8F0810220FBE70227DA
:101B000084F8357060652046FEF7AAFF94F85C10F3
:101B10003F208840B0602068016841F016010160F4
:101B2000206C20B12068016841F008010160206844
:101B3000016841F001010160DCE700002DE9F84F88
:101B4000DFF8BCA10022012503264FF00F090AF19E
:101B5000040BAAF1040E00BF0B6805FA02F423403F
:101B6000A34270D10F7907F00307012F01D0022F94
:101B700016D187684FEA420806FA08FC27EA0C07E4
:101B8000D1F80CC00CFA08FC4CEA070CC0F808C0ED
:101B90004768A7430C79C4F3001494403C43446065
:101BA0000C79E443A4070AD0C4684FEA420C06FA51
:101BB0000CF7BC438F6807FA0CF72743C7600C7912
:101BC00004F00304022C12D1D40800EB840CDCF8DE
:101BD00020405707FF0E09FA07F824EA0804D1F855
:101BE000108008FA07F848EA0408CCF82080046856
:101BF0004FEA420C06FA0CF7BC430F7907F00307D3
:101C000007FA0CF7274307604C6814F4403F70D084
:101C10003C4C276847F480472760246822F003077C
:101C200004F480440094384C07EB040CDCF80848BA
:101C300097074FEA177809FA08F7BC43334FB842C1
:101C400002D1002724E054E0314FB84201D10127EE
:101C50001EE0304FB84201D1022719E02E4FB842A2
:101C600001D1032714E02D4FB84201D104270FE022
:101C70002B4FB84201D105270AE02A4FB84201D1C3
:101C8000062705E0284FB84201D1072700E00827C2
:101C900007FA08F72743CCF80878DAF800405746E7
:101CA000D1F804C09C435FEACC2C00D51C433C60B7
:101CB000DBF800405F46D1F804C09C435FEA8C2CFF
:101CC00000D51C433C60DEF800407746D1F804C0E4
:101CD0009C435FEA8C3C00D51C433C60084F083FA6
:101CE0003C68D1F804C09C435FEACC3C00D51C435F
:101CF0003C60521C102AFFF42FAFBDE8F88F0000A3
:101D0000083C0140443802400030014000000240DD
:101D10000004024000080240000C02400010024093
:101D20000014024000180240001C02400AB1816108
:101D300070470904FBE70000014880687047000015
:101D400028000020024881680278114481607047B1
:101D5000280000200B4810B5016841F400710160B3
:101D6000016841F480610160016841F480710160A3
:101D7000032000F09FF80F2000F006F800F050F864
:101D8000002010BD003C024030B505461F4887B01A
:101D90000024016841F008010160006806A900F014
:101DA0000800009001A800F031F90498A8B100F0F3
:101DB0004DF940001649174AB0FBF1F11648491E8B
:101DC000026040F2E732C0E90324C0E901148461F3
:101DD00000F0A8FC040003D015E000F037F9E9E7B3
:101DE0000D4800F0EBFC04000DD1322000F034F877
:101DF000102D07D200222946322000F03BF8074878
:101E0000056000E0012407B0204630BD40380240A4
:101E100040420F00000C0040540C00202C00002019
:101E20000C4882B0016841F480410160006800F410
:101E3000804000900748001F016841F08051016018
:101E40000068002200F0805000900F21901E02B028
:101E500000F010B844380240002809DB00F01F02EF
:101E6000012191404009800000F1E020C0F80011FC
:101E700070470000F0B40E4B1B680C46C3F30223FE
:101E8000C3F10705042D00D90425191D072901D226
:101E9000002300E0DB1E012606FA05F1491E214061
:101EA00099409E40761E16403143F0BC02F045B882
:101EB0000CED00E0064900F0070208684FF6FF034A
:101EC000184040EA0220034A1043086070470000AF
:101ED0000CED00E00000FA052DE9F0470E46050084
:101EE00065D0DFF81481D8F80000F7B200F00700E1
:101EF000B04207D288F80070D8F8000000F0070060
:101F0000B04254D128683D4C810712D5400703D513
:101F1000206840F4E05020602878000703D520684E
:101F200040F4604020602068A96820F0F000084379
:101F300020602878C0072DD030496868083901280A
:101F400012D0022813D0032811D00968890700296C
:101F50002DDA216821F0030101432160FFF7ECFE37
:101F6000814641F2883A0EE009688903EFE7096883
:101F70008901ECE7FFF7E0FEA0EB0901514502D92A
:101F80000320BDE8F0872068696800F00C00B0EB22
:101F9000810FEFD1D8F80010404601F00701B1429F
:101FA00007D90770006800F00700B04201D0012097
:101FB000E7E72878400705D52068E96820F4E05075
:101FC000084320602878000706D52068296920F496
:101FD000604040EAC100206000F058F82168084ADB
:101FE000C1F30311515CC840064908600648006807
:101FF000FFF7CAFE0020C4E7003C02400838024058
:1020000024680008340000202C0000200F22026009
:102010000C4A136803F003034360136803F0F003F2
:102020008360136803F4E053C36012684FF4E05315
:1020300003EAD20202610448006800F00700086069
:102040007047000008380240003C0240044805493F
:1020500000680968044AC1F38221515CC840704796
:10206000340000200838024034680008044805495C
:1020700000680968044AC1F34231515CC8407047A6
:10208000340000200838024034680008154810B5B4
:10209000006810F00C02144813D04110042A0FD02D
:1020A000082A0ED10F4C241F2268236802F03F0239
:1020B0005B0207D52068C0F38810A0FB010106E091
:1020C000084610BD2168C1F38811A1FB000100235F
:1020D000FEF74AF92168C1F30141491C4900B0FBF0
:1020E000F1F010BD083802400024F4002DE9F84F4B
:1020F00004006ED02078DFF84C93C007A9F10405E6
:102100004AD009F104000168C1F38101012908D016
:102110000068C0F3810002280AD1D9F8000040020B
:1021200006D52868800337D560680028E1D033E001
:102130006068B0F5803F10D0B0F5A02F286810D0AF
:1021400020F480302860286820F4802028606068AF
:10215000A8B1FFF7F1FD06460DE0286840F4803095
:10216000F4E740F480202860F7E700BFFFF7E4FDC4
:10217000801B642873D828688003F7D50CE0FFF72C
:10218000DBFD064605E000BFFFF7D6FD801B642897
:10219000F0D828688003F7D42078DFF8AC82800775
:1021A0004FF0000A3ED5A748001D016811F00C0F42
:1021B00008D00068C0F3810002280BD1D9F80000D4
:1021C000400207D42868800716D5E068012800D1AE
:1021D00012E033E1E068B8B10120C8F80000FFF771
:1021E000ABFD064605E000BFFFF7A6FD801B0228F9
:1021F000C0D828688007F7D52868216920F0F80042
:1022000040EAC10028600DE0C8F800A0FFF794FD87
:10221000064604E0FFF790FD801B02281FD82868BF
:102220008007F7D42078000722D5864F8748616958
:10223000703771B101210160FFF77EFD064604E0B1
:10224000FFF77AFD801B022809D838688007F7D588
:102250000EE0C0F800A0FFF76FFD064605E082E043
:10226000FFF76AFD801B02287DD838688007F7D405
:102270002078400768D5DFF8CCB100270BF13C0B84
:10228000DBF80000C0000BD4DBF8001041F08051F7
:10229000CBF80010DBF80000012700F08050009020
:1022A0006B4E3068C00510D4306840F480703060E8
:1022B000FFF742FD009005E0FFF73EFD0099401A50
:1022C000022850D83068C005F6D55E4EA0686C363E
:1022D00001280FD00528306810D020F001003060B0
:1022E000306820F004003060A068B8B1FFF724FD2A
:1022F00000900FE0306840F00100F4E740F0040087
:102300003060F7E7FFF718FD0099411A41F2883075
:10231000814266D830688007F4D50EE0FFF70CFDE7
:10232000009007E0FFF708FD0099411A41F288305C
:10233000814256D830688007F4D42FB1DBF8001002
:1023400021F08051CBF80010A069C8B33D49091DA8
:102350000968C1F3810102294AD00228504607D0FA
:10236000C8F8600000E03CE0FFF7E6FC04463BE014
:102370004746C8F86000FFF7DFFC064605E000BFEF
:10238000FFF7DAFC801B02282BD828688001F7D4DD
:10239000D4E907010843A16A2E4A490802EB01412A
:1023A000626A41EA8211084394F82C1040EA016104
:1023B000C9F8001001203866FFF7BEFC044606E0AD
:1023C0003EE000BFFFF7B8FC001B022809D82868D0
:1023D0008001F7D534E000BFFFF7AEFC001B0228F8
:1023E00002D90320BDE8F88F28688001F4D427E0E3
:1023F0000128F7D0D9F80000E26900F48001914289
:102400001CD1226A00F03F01914217D147F6C071FA
:10241000626A0140B1EB821F10D1A26A4FF0FF3314
:1024200000F4403103EB5202B1EB024F06D194F8B5
:102430002C1000F07060B0EB016F01D00120D1E7EB
:102440000020CFE70438024000004742800E474298
:10245000007000400000FFFF7047000038B50168C1
:1024600004464A688868C043430606D5C30704D1BA
:10247000D3435B0601D4216C05E0830708D4D34322
:102480001B0605D4616C01B02046BDE8304008470A
:10249000830603D5430601D5C30551D4D3439B0618
:1024A0004ED443060AD494F85130032B49D0636DBF
:1024B00043F004036365CB688B680093830609D4FB
:1024C000636D43F0010363658B6800930B6823F031
:1024D00040030B60C00506D4606D40F008006065E5
:1024E000206880680090606D002829D020684168CD
:1024F00021F0E0014160012084F85100900701D4EF
:10250000D00722D02068416821F003014160114DBD
:10251000E06C40B10565E06CFFF78CF918B1606DB7
:1025200040F040006065A06C002809D00565A06CF3
:10253000FFF780F9002803D0606D40F0400060652F
:1025400038BDC8688868009038BD2046FFF784FF12
:1025500038BD00000138000870B5040009D0606A79
:10256000002540B125616561A56294F8510040B134
:102570000CE0012070BD6068B0F5827FF4D0E561A9
:10258000F2E784F85050204600F044F8022084F826
:1025900051002068016821F040010160A088218974
:1025A00000F4827001F404410843A18901F4006140
:1025B0000843217C01F002010843217D01F0010163
:1025C0000843218B01F400710843217F01F0380199
:1025D000084394F8201001F080010843218D01F494
:1025E0000051084321680860A069042101EA1040F5
:1025F00094F8241001F01001084321684860206815
:10260000C16921F40061C1616565012084F8510050
:10261000002070BD10B586B0044614216846FDF751
:1026200099FF18492068884229D11748002102687B
:1026300042F480420260006800F480400590124835
:102640001038026842F002020260006800F00200E6
:1026500005904FF4604000900220CDE90101032075
:1026600003900520049069460848FFF767FA0022A6
:1026700005212420FFF7FEFB2420FFF7EDFB06B029
:1026800010BD000000380040403802400004024005
:102690007047704770B590F83C20012A32D0012471
:1026A00080F83C40022280F83D2003685A689D680B
:1026B00022F070060A6832435A60134B02689A424D
:1026C00014D0B2F1804F11D0104B9A420ED0104B63
:1026D0009A420BD00F4B9A4208D00F4B9A4205D02A
:1026E0000E4B9A4202D00E4B9A4204D1496825F013
:1026F00080031943916080F83D40002180F83C1030
:10270000084670BD022070BD00000140000400407A
:1027100000080040000C004000040140004001405F
:102720000018004010B5040003D094F83D0010B12B
:1027300007E0012010BD002084F83C00204600F096
:102740001FF8022084F83D00211D206801F010F9D7
:10275000012084F8460084F83E0084F83F0084F8A5
:10276000400084F8410084F8420084F8430084F873
:10277000440084F8450084F83D00002010BD0000AE
:1027800008B500680B49884212D10B48016841F036
:10279000040101600068002200F00400009005219F
:1027A0001E20FFF767FBBDE808401E20FFF754BB63
:1027B00008BD0000000800404038024090F83D107D
:1027C000012901D001207047022180F83D100168E5
:1027D000CA6842F00102CA6000681149884214D0F8
:1027E000B0F1804F11D00F4988420ED00E49884277
:1027F0000BD00E49884208D00D49884205D00D49BA
:10280000884202D00C49884204D1816801F0070156
:10281000062903D0016841F00101016000207047E2
:10282000000001400004004000080040000C00408F
:1028300000040140004001400018004070B504460B
:1028400090F83C000025012817D0012684F83C6050
:10285000022084F83D002068826822F0770222F48A
:102860007F4282600868502838D00DDC20284FD085
:1028700005DC90B3102811D14AE0022070BD302849
:1028800046D040280AD13BE060282FD070280DD0D8
:10289000B0F5805F03D0B0F5005F12D0012584F859
:1028A0003D60002084F83C00284670BDCB68D1E92B
:1028B0000121206801F0C4F82068816841F07701A7
:1028C00009E0CB68D1E90121206801F0B9F820685E
:1028D000816841F480418160E1E719E0CA68496894
:1028E000206801F0BFF85021206806E0CA684968F6
:1028F000206801F0C8F86021206801F0ABF8CEE74D
:10290000CA684968206801F0ADF840212068F4E702
:10291000226801461046F0E770472DE9F041044671
:102920000068C66805694FF00007A90713D5B1070D
:1029300011D5F91E01610120207720688069800788
:10294000204602D0FFF7E8FF04E000F07EF82046C2
:1029500000F07CF82777680716D5700714D5216832
:102960006FF004000861022020772068806910F46D
:10297000407F204602D0FFF7CFFF04E000F065F86B
:10298000204600F063F82777280715D5300713D5C0
:1029900021686FF008000861042020772068C06972
:1029A0008007204602D0FFF7B7FF04E000F04DF8A3
:1029B000204600F04BF82777E80616D5F00614D528
:1029C00021686FF010000861082020772068C06936
:1029D00010F4407F204602D0FFF79EFF04E000F095
:1029E00034F8204600F032F82777E80708D0F007DF
:1029F00006D021686FF001000861204600F028F839
:102A0000280608D5300606D521686FF080000861D9
:102A10002046FFF73DFE680608D5700606D52168FA
:102A20006FF040000861204600F01CF8A8060AD5A7
:102A3000B00608D521686FF0200008612046BDE887
:102A4000F041FFF726BEBDE8F081704770470000F7
:102A500000680349884201D1FFF774B9704700004C
:102A6000000C00407047704708B590F841102129CC
:102A700009D10168143151E8002F42F0800241E889
:102A80000023002BF5D190F84210222923D10168B0
:102A90000A6849680091016949B101680C3151E83F
:102AA000002F42F4807241E80023002BF5D1016829
:102AB000143151E8002F42F0010241E80023002BBD
:102AC000F5D10168143151E8002F42F0400241E88D
:102AD0000023002BF5D1002008BD10B50446006886
:102AE000406994F84110C0F3C010212911D180B180
:102AF0002068143050E8001F21F0800140E80012E7
:102B0000002AF5D1A06B08B1FEF74BFE204601F07C
:102B100097F82068406994F84210C0F38010222989
:102B200011D180B12068143050E8001F21F040011D
:102B300040E80012002AF5D1E06B08B1FEF731FE43
:102B4000204601F056F8002010BD7047F8B5016826
:102B500004460868CA684B6910F00F0F4FF0000573
:102B600059D003F0010602F49077374365D0C107CE
:102B700005D0D10503D5616C41F0010161644107C5
:102B800005D5D90703D0616C41F00201616481076A
:102B900005D5D90703D0616C41F0040161640107D8
:102BA00007D502F02001314303D0616C41F00801E8
:102BB0006164616C00293AD0800604D5900602D584
:102BC000204601F04BF820684069616CC0F380102A
:102BD000090700D460B3204601F00BF82068406973
:102BE000400621D52068143050E8001F21F0400134
:102BF00040E80012002AF5D1E06BA8B172490165E6
:102C0000E06BFEF717FE002811D0E06B016D01B0FC
:102C1000BDE8F040084783060FD593060DD5204642
:102C2000BDE8F84001F01AB82046FFF78EFFF8BD66
:102C30002046FFF78AFF6564F8BD266B2023012E2E
:102C40007ED1C6067CD5D6067AD50868486800903D
:102C500048694FF0020640064DD5E26B10684068A7
:102C60004FF480770004000C3AD0A18D814237D90F
:102C7000E085D069B8422DD020680C3050E8001FA4
:102C800021F4807140E80012002AF5D12068143048
:102C900050E8001F21F0010140E80012002AF5D1A0
:102CA0002068143050E8001F21F0400140E8001275
:102CB000002AF5D184F84230256320680C3050E8B2
:102CC000001F21F0100140E80012002AF5D1E06B4E
:102CD000FEF767FD6663A08DE18D401A81B206E0C4
:102CE000A18D8142A8D1D069B842A5D166632046A2
:102CF000FFF7B9FEF8BDA08DE18D401A81B2E08DDD
:102D00000028F7D00029F5D020680C3050E8002FBB
:102D100022F4907240E80027002FF5D1206814308B
:102D200050E8002F22F0010240E80027002FF5D1E3
:102D300084F84230256320680C3050E8002F00E012
:102D400006E022F0100240E80023002BF3D1CDE78B
:102D500005062BD5150629D594F841002128C9D19F
:102D6000A068B0F5805F01D12069B0B1206A411C34
:102D70002162216800784860E08C401E0004000C4D
:102D8000E084B7D12068C16821F08001C16020686B
:102D9000C16841F04001C160F8BD206A0088C0F3FD
:102DA00008004860206A801C2062E5E74006F3D5F1
:102DB0005006F1D5CA68204622F04002CA6084F865
:102DC000413000F053F9F8BDAB3A000870B504008B
:102DD00004D094F84100002510B106E0012070BD38
:102DE00084F84050204600F023F8242084F8410065
:102DF0002068C16821F40051C160204600F090FFB6
:102E00002068016921F4904101612068416921F045
:102E10002A0141612068C16841F40051C1606564C4
:102E2000202084F8410084F842006563002070BDD2
:102E30002DE9F04387B0044614216846FDF78AFB6C
:102E40005A485A49DFF86081D4F800C01439022288
:102E500001230327002506154FF04009C4454CD136
:102E6000D0F800C04CF0100CC0F800C0006800F0B2
:102E700010000590086840F0010008600868694685
:102E800000F00100059078028DE88D000720049085
:102E90004748FEF753FE484F46484FF000683860F9
:102EA000C7E90185C7E903567D61BD61FD613D62EA
:102EB00038467D62FEF7A0FD08B1FDF721FFE7630C
:102EC000BC633D4F3B4860377830C7E903567D61AE
:102ED000BD61FD613D627D6287E801033846FEF712
:102EE0008BFD08B1FDF70CFFA7630022052125200B
:102EF000BC63FEF7BFFF252050E0DFF8C080C4456B
:102F00004ED1D0F800C04CF0200CC0F800C00068D2
:102F100000F020000590086840F004000860086890
:102F2000694600F004000590C0208DE88D0008205F
:102F300004902348FEF702FE1F4F1E48C037183882
:102F400038604FF02068C7E90185C7E903567D6105
:102F5000BD61FD613D6238467D62FEF74DFD08B101
:102F6000FDF7CEFEE763BC63164F1248C7E9035670
:102F70007D61BD61FD613D6260307D6287E8010376
:102F80003846FEF739FD08B1FDF7BAFEA763002207
:102F900005214720BC63FEF76DFF4720FEF75CFF6D
:102FA00007B0BDE8F0830000001001404438024043
:102FB0000000024040640240D40A00200014014096
:102FC00000080240F40B002090F84230202B01D082
:102FD0000220704721B11AB10023036300F026BF1D
:102FE000012070477047704770B5044690F8410063
:102FF000202801D0022070BD01B3FAB12162A28461
:10300000E28400206064212384F84130A56B144BD6
:10301000EB63A56B134B2B64A56B134BEB64A36B9A
:10302000186520681346A56B021D2846FEF74EFD65
:1030300030B110206064202084F84100012070BD70
:1030400021686FF0400008602068143050E8001FCD
:1030500041F0800140E80012002AF5D1002070BD47
:10306000A73B0008E93B0008B93A000870477047E1
:10307000FEE7C0ED070A90ED031A70EE411AC0EDAD
:10308000061A90ED040A90ED022A90ED003AF0EE57
:10309000402A42EE202A43EE212A90ED053A03EE23
:1030A000221A80ED031A90ED011A23EE011A01EEA7
:1030B000210A80ED040A80EE021A70EEC10AC0ED0A
:1030C000080A90ED090AF4EEC00AF1EE10FA01DBED
:1030D00080ED080AD0ED080AB1EE400AF4EEC00A0D
:1030E000F1EE10FA01D880ED080A7047012001F0D6
:1030F000C5FAFBE7B7EE000AD0ED030AD0ED041ADB
:10310000B0EE401A00EEA11AC0EE010A90ED021ACC
:1031100030EE600A20EE010A90ED001A00EE810AFE
:1031200080ED010A80ED000A7047012001F0A6FA47
:10313000FBE700000F4810B50D4901600321416015
:1031400000214FF400228160C0E903129200426125
:10315000017641768176C17601774177FEF777F87F
:10316000002803D0BDE81040FDF7CABD10BD000027
:1031700000640040540900200F4810B50D4901605B
:103180000321416000214FF400228160C0E9031255
:1031900092004261017641768176C176017741776E
:1031A000FEF755F8002803D0BDE81040FDF7A8BD94
:1031B00010BD0000006800407C090020154808B5DB
:1031C000016841F4800101600068002200F4800081
:1031D000009005213920FEF74DFE3920FEF73CFE18
:1031E000002205213A20FEF745FE3A20FEF734FE84
:1031F000002205214520FEF73DFE4520FEF72CFE6E
:10320000002205214620FEF735FEBDE80840462095
:10321000FEF722BE3038024010B51C4A00211C487F
:1032200001F068FA1B4C194A0021206024321A4828
:1032300001F060FA154A606048320021174801F039
:1032400059FA124AA0606C320021154801F052FA76
:103250000E4AE06090320021124801F04BFA0B4A0E
:103260002061B4320021104801F044FA074A60613D
:10327000D83200210D4801F03DFA044AA061FC3229
:1032800000210B4801F036FAE06110BDFC66000831
:103290002B3100080000002009390008ED3000083B
:1032A0002B360008A9340008ED370008050D00088A
:1032B000A10900082DE9F04387B014216846FDF705
:1032C00049F92B480024016841F080010160016840
:1032D00001F080010591016841F00201016001687F
:1032E00001F002010591016841F0080101600168E7
:1032F00001F008010591016841F0040101600168D5
:1033000001F004010591016841F0010101600068CC
:10331000012200F00100DFF85C80150305902946CA
:103320004046FEF703FDDFF850902F11002239468A
:103330004846FEF7FBFC0095032601250396CDE9E0
:10334000015469464046FEF7F9FB00970396CDE924
:10335000015469464846FEF7F1FB68028DE83100EA
:1033600069464846FEF7EAFB07B0BDE8F083000077
:103370003038024000040240000C0240104810B5F2
:103380000E4901604FF48271416000218160C1608B
:103390004FF400720161C0E905121822C0E907214B
:1033A000416281620A21C162FFF7D6F8002803D08A
:1033B000BDE81040FDF7A4BC10BD0000003800407F
:1033C000A409002010B586B0002417480094019489
:1033D00002940394049413490594016040F20D6132
:1033E000C0E901143121C0E9031480218161FFF794
:1033F00099F908B1FDF784FC4FF4805000906946BC
:103400000948FFF71BFA08B1FDF77AFC049404A9F8
:1034100005480594FFF73EF9002801D0FDF770FC40
:1034200006B010BD00080040FC0900200C4810B593
:103430000A4901604FF4E1314160002181600C22B2
:10344000C160C0E904128161C161FFF7BFFC0028BF
:1034500003D0BDE81040FDF753BC10BD0010014083
:10346000440A00200D4810B50B4901600C49416029
:10347000002181600C22C160C0E9041281614FF417
:103480000041C161FFF7A2FC002803D0BDE8104055
:10349000FDF736BC10BD0000001401408C0A00206E
:1034A000003E4900FEE700001CB5544C544D554EFB
:1034B000554FDFF85881DFF85891DFF858A14FF4E5
:1034C000007B2078012842D0534800F021F952486F
:1034D000983800F01DF950484C3800F019F94E4862
:1034E000E43800F015F94D494D4A4B4891ED020A78
:1034F000D2ED020AE43830EE200AD0ED080A30EEB0
:10350000200A80ED080A91ED000AD2ED000A30EEA3
:10351000200AD0ED1B0A30EE200A80ED1B0A91ED47
:10352000010AD2ED010A30EE200AD0ED410A30EE58
:10353000200A80ED410A91ED030AD2ED030A30EE34
:10354000200AD0ED2E0A30EE200A80ED2E0A00F07F
:1035500015FF2B4800F0A6FE2A4800F0A3FE2A48DB
:1035600000F0A0FE294800F09DFE98ED110ABDEE86
:10357000C00A10EE100A97ED110A00B2BDEEC00AA3
:1035800010EE101A09B2CDE9001096ED110A594655
:10359000BDEEC00A10EE100A95ED110A03B2BDEEA1
:1035A000C00A10EE100A02B21E48FDF7B7F800F08C
:1035B00011FD99F8000020B1012809D0022816D188
:1035C0000DE0DAF8001021F00301CAF800100EE057
:1035D000DAF8000020F0020040F0010005E0DAF81F
:1035E000000020F0010040F00200CAF80000094885
:1035F00000F00EF9012001F07DFE62E77C02002060
:10360000680400209C050020D0060020040800204B
:1036100041090020C80000202C020020009C00204E
:10362000109C00207C090020FEE7012001F026F814
:10363000FBE7000010B590ED021A044680ED031A76
:1036400080EC020A30EE600A80ED020AD0ED120A28
:10365000B0EEC00AB4EEE00AF1EE10FA03D89FED26
:103660002B0A84ED020A94ED111A94ED020AF1EE90
:10367000410AFDF784F984ED020AD4ED040A30EE24
:10368000800A84ED040A94ED0F1AF1EE410AFDF769
:1036900076F984ED040A94ED050AD4ED020A94ED5E
:1036A0000E1A20EE200AF1EE410AFDF768F984EDCA
:1036B000090A94ED060AD4ED040A20EE200A84EDEE
:1036C0000A0A94ED020AD4ED030A94ED101A30EEC2
:1036D000600AD4ED070A20EE200AF1EE410AFDF758
:1036E0004EF984ED0B0AD4ED090A94ED0A1A70EE36
:1036F000810A30EE800A84ED080A94ED0D1AF1EE8D
:10370000410AFDF73CF984ED080A10BD00000000F5
:1037100010B590ED020A044680ED030A90EC020A0F
:1037200030EE600A80ED020AD0ED120AB0EEC00A57
:10373000B4EEE00AF1EE10FA03D89FED2B0A84ED07
:10374000020A94ED111A94ED020AF1EE410AFDF716
:1037500016F984ED020AD4ED040A30EE800A84EDF5
:10376000040A94ED0F1AF1EE410AFDF708F984ED11
:10377000040A94ED050AD4ED020A94ED0E1A20EE27
:10378000200AF1EE410AFDF7FAF884ED090A94EDFA
:10379000060AD4ED040A20EE200A84ED0A0A94ED0C
:1037A000020AD4ED030A94ED101A30EE600AD4ED4B
:1037B000070A20EE200AF1EE410AFDF7E0F884ED59
:1037C0000B0AD4ED090A94ED0A1A70EE810A30EE64
:1037D000800A84ED080A94ED0D1AF1EE410AFDF716
:1037E000CEF884ED080A10BD00000000012000F0B2
:1037F00045FFFBE70148FEF731BE0000A4090020A9
:1038000010B5806B0021C187C186FEF725FE10BD73
:1038100003490068C1F80B000248FCF79CBF000098
:10382000DC00002000640040B5EEC00AF1EE10FAA2
:1038300001DD01207047B5EEC00AF1EE10FA02D2A8
:103840004FF0FF3070470020704710B54FF0E02078
:10385000006902F07BF9012803D0BDE8104001F0B7
:10386000A9BE10BD30B593B030216846FCF772FE9A
:1038700014210CA8FCF76EFE1D480025016841F0DC
:1038800080510160006800F0805011901948016873
:1038900041F4804101600068022400F480401190EE
:1038A00001200090000401908001CDE9064008AAA3
:1038B00004209B2182E813000B906846FEF716FC5B
:1038C00008B172B6FEE70CA90F2081E831004FF471
:1038D000A0500F904FF48050109005210CA8FEF7D7
:1038E000FBFA002801D072B6FEE713B030BD00002D
:1038F00040380240007000400248016841F4700105
:103900000160704788ED00E0124C00255FF0000078
:1039100004EB4001401C0A898A800D810228F7DBF4
:10392000608820806580E08BA083E583608C2084A4
:103930006584E08CA084E584608D20856585608E3B
:1039400020866586E08DA085E5854FF47A7001F0CC
:10395000D1FCDBE7889900200148FEF7DEBF0000BC
:10396000FC0900200148FEF7D8BF0000540C0020DD
:10397000F0B50268274B284D284E294F294C4FF0AF
:10398000804C984209D0604507D0A84205D0B0428B
:1039900003D0B84201D0A04204D122F0700E4A6890
:1039A00042EA0E0298421BD0604519D0A84217D0B7
:1039B000B04215D0B84213D0A04211D01A4DA8423F
:1039C0000ED01A4DA8420BD0194DA84208D0194D5F
:1039D000A84205D0184DA84202D0184DA84203D1E4
:1039E00022F44075CA682A434D6922F080022A43B6
:1039F0008D68C5620D688562984201D0A04201D1F0
:103A000009690163016841F004010160012141611C
:103A10000260F0BD000001400004004000080040CA
:103A2000000C0040000401400040014000440140FF
:103A30000048014000180040001C004000200040E9
:103A400010B5846842EA032224F47F440A432243E7
:103A5000826010BD826822F070020A4342F00701C2
:103A60008160704710B5036A046A24F0010404629F
:103A7000846924F0F00444EA021423F00A020A43A1
:103A80008461026210BD10B5036A046A24F0100458
:103A90000462846923F0A00324F4704444EA0232EF
:103AA00043EA01118261016210BD10B5806B0021F3
:103AB000C185FFF74AF810BD70B5846B2068406976
:103AC00094F84110C0F3C0100025212904D118B189
:103AD000E584204600F0B4F82068406994F842106C
:103AE000C0F38010222904D118B1E585204600F0EA
:103AF00080F8606C40F0100060642046FFF725F805
:103B000070BD10B50146806B096809684FF000026E
:103B1000C9052ED4C28501680C3151E8003F23F459
:103B2000807341E80034002CF5D10168143151E86C
:103B3000003F23F0010341E80034002CF5D1016877
:103B4000143151E8003F23F0400341E80034002CD9
:103B5000F5D1202180F84210016B012909D10168BB
:103B60000C3151E8003F23F0100341E80034002CF1
:103B7000F5D14263016B012902D0FFF733FA10BD82
:103B8000818DFEF770FF10BD10B5806B0121416380
:103B9000016B012902D0FFF726FA10BD818D49087B
:103BA000FEF761FF10BD10B50146806B096809681A
:103BB000C90516D40021C1840168143151E8002FD1
:103BC00022F0800241E80023002BF5D101680C317E
:103BD00051E8002F42F0400241E80023002BF5D1CC
:103BE00010BDFFF743FA10BD10B5806BFFF73FFA29
:103BF00010BD01680C3151E8002F22F4907241E8A9
:103C00000023002BF5D10168143151E8002F22F078
:103C1000010241E80023002BF5D1016B012909D1F4
:103C200001680C3151E8002F22F0100241E8002316
:103C3000002BF5D1202180F842100021016370474C
:103C400001680C3151E8002F22F0C00241E8002346
:103C5000002BF5D1202180F84110704708B590F86D
:103C60004210222901D0022008BD82684FF48053FF
:103C70009A4201D1016921B1816A9A421BD04AB1AD
:103C80000AE00268816A5268C2F308020A80816A07
:103C9000891C08E0026972B10268526802F07F0272
:103CA0000A70816A491C8162C18D491E0904090C90
:103CB000C18503D01BE002685268F1E70168CA6859
:103CC00022F02002CA600168CA6822F48072CA60C9
:103CD00001684A6922F001024A61202180F84210FD
:103CE00000214163026B012A03D0FFF77BF900201A
:103CF00008BD016301680C3151E8002F22F0100269
:103D000041E80023002BF5D101680A68D20602D5EC
:103D10000A6849680091818DFEF7A5FEE7E700007B
:103D200070B5044600680169E26821F4405111430E
:103D300001612169A068E269084361691143084390
:103D40002168CA6849F20C639A430243CA6020683A
:103D50004169A26921F440711143416131492068F0
:103D6000884202D03049884202D1FEF77FF901E053
:103D7000FEF76CF9E2690023192164253226B2F5B9
:103D8000004F626828D0A0FB0101930F9200FCF75E
:103D9000EBFA0146B0FBF5F06FF01802504301EB6F
:103DA000800006EB0010B0FBF5F000F0F002B1FB74
:103DB000F5F002EB0012B1FBF5F06FF01803584379
:103DC00001EB800006EB0010B0FBF5F000F00F00F7
:103DD00021681044886070BDA0FB010192185B410E
:103DE000FCF7C2FA0146B0FBF5F00201B1FBF5F0B9
:103DF0006FF01803584301EB800006EBC000B0FBE6
:103E0000F5F000F0F80002EB4002B1FBF5F058438A
:103E100001EB800006EBC000B0FBF5F000F00700FE
:103E2000D6E70000001001400014014038B581625F
:103E300004468285002013466064222284F84220D2
:103E4000E56B1F4AEA63E56B1E4A2A64E56B1E4A6E
:103E5000EA64E26B10650A462168E06B091DFDF714
:103E600035FE30B110206064202084F8420001202B
:103E700038BD2068016840680090206948B120681A
:103E80000C3050E8001F41F4807140E80012002A15
:103E9000F5D12068143050E8001F41F0010140E8DE
:103EA0000012002AF5D12068143050E8001F41F0BC
:103EB000400140E80012002AF5D1002038BD000082
:103EC000033B0008893B0008B93A00080148FEF7A7
:103ED0003DBE0000440A0020124808B50068016891
:103EE000C943C90619D40168406800900D48FEF71F
:103EF000F4FD0D48006840680C49C82208600C4970
:103F00000848FFF761F80748FEF7AEFD0948C18D84
:103F1000491CC185064801F081F8BDE80840014808
:103F2000FEF714BE8C0A0020940B00202400002011
:103F3000009B002088990020FEE70907090E002851
:103F400004DB00F1E02080F80014704700F00F005F
:103F500000F1E02080F8141D704700B52DED048BB2
:103F6000B0EE409AF0EE609A83B051EC190B02F07B
:103F700093F941EC180B18EE100A18EE901A8DED1B
:103F8000008B002818BF0120084320F00040C0F13A
:103F90007F6000F1E040C00F14D019EE101A19EE46
:103FA000900A8DED009B002918BF0121084320F0E5
:103FB0000040C0F17F6000F1E040C00F04BF01206D
:103FC000FCF7F7FAB0EE480A03B0F0EE680ABDEC71
:103FD000048B00BD70B5164D1648697829B141783B
:103FE000154C9FED161A19B110E00021417070BDFB
:103FF00095ED180ADFED120A85ED170AC4ED030AE4
:1040000084ED000A84ED011A012141700E48DFEDB4
:104010000D0A90ED000AFCF7B2FC84ED060A064892
:10402000FCF722FC94ED000A85ED170A70BD000034
:10403000E8030020450900204C0400200000000097
:104040000000964300003EC33809002010B5064822
:10405000FCF716FB0448FDF771FBBDE81040022198
:104060000148FCF77BBE00005409002010B506484B
:10407000FCF72CFB0448FDF761FBBDE81040022172
:104080000148FCF76BBE00007C090020F0B58646B5
:104090004FF0FF3000230B4DC70710E05EF82360A0
:1040A0003A46002400284FEA400000DA68401642F1
:1040B00000D068405208641C202CF3D35B1C8B4258
:1040C000ECD3F0BDB71DC10470B505462DED048BD2
:1040D0000C4691F84A0091F84B1094F84D2000EBF3
:1040E000012094F84C10090401EB026146181221DA
:1040F0002046FFF7CBFFB0427DD1A0782870207911
:104100006870A07900EE100AB8EE400A85ED020A48
:10411000E07900EE100AB8EE400A85ED030AB4F922
:104120000C0001F0A3FF9FED511B53EC112B01F08C
:10413000B5FF01F0C1FE6860B4F90E0001F096FF12
:104140009FED4C1B53EC112B01F0A8FF01F0B4FEC6
:104150002861B4F91A0000EE100AB8EEC00A85ED25
:10416000060AD4F81E00400000EE100AF8EEC00A5D
:104170009FED420A60EE800A9FED411A4FF47A618A
:1041800060EE810AC5ED050AE08C10FB01F000EE3F
:10419000900AF8EEE00A20EE801ADFED3A0A61EEAE
:1041A000201A9FED391A81EE812A85ED092A208D8A
:1041B00010FB01F001EE900AF8EEE11A61EE801AB0
:1041C00061EEA01A81EE812A85ED0A2A608D10FB2E
:1041D00001F001EE900AF8EEE11A21EE800A20EEDD
:1041E000200AC0EE010AC5ED0B0AB4F92C00C0008C
:1041F00001F03CFF00E037E09FED248B53EC182BDF
:1042000001F04CFF9FED239B53EC192B01F046FF6F
:1042100001F052FE2863B4F92E00C00001F026FF21
:1042200053EC182B01F03AFF53EC192B01F036FF39
:1042300001F042FE6863B4F9300001F017FF9FED12
:10424000171B53EC112B01F029FF53EC182B01F035
:1042500025FF53EC192B01F021FF01F02DFEA8637F
:104260000120BDEC048B70BD0020FAE700000000C7
:104270000000703F000000000000803FDB0F49405D
:1042800000008038000000380000B44305A3923AD3
:10429000019D2340000000000000003F00000000DE
:1042A0000000204070B590F85C100446012928D029
:1042B00004F1600504F1F80641B3022925D1D4EDDB
:1042C0002C0A94ED4B0A04F1AC00FFF7B3F9D4EDDE
:1042D000190A94ED330A2846FFF7ACF994F8240143
:1042E000E0B1D4ED200A94ED100A3046FEF7C1FE8D
:1042F00094ED460AD4ED450A70EE600AC4ED480A12
:1043000009E09FED080A80ED110A70BDD4ED190A8D
:1043100094ED4A0ADFE784ED110A70BD94ED200A9E
:10432000F9E70000000000000F4900209FED0F0A90
:1043300081F85C0081ED4A0A81F824010C4981F87A
:104340005C0081ED4A0A81F824010A4981F85C0089
:1043500081ED4A0A81F82401074981F85C0081ED6A
:104360004A0A81F824017047680400200000000018
:104370009C050020D006002004080020084890ED8D
:10438000000A0848F1EE400A80ED4B0A0648C0EDED
:104390004B0A064880ED4B0A0548C0ED4B0A7047B2
:1043A0003C0900209C05002004080020680400202F
:1043B000D0060020F0B51D4F00251D4E3C781D494C
:1043C0001D4B1E4A012024B196F85440012C0AD0FE
:1043D00015E086F8545081F8545083F8545082F810
:1043E000545038700BE091F85440012C07D193F8E9
:1043F0005440012C03D192F85440012C01D00020EC
:10440000F0BD022486F85C4086F8240181F85C4007
:1044100081F8240183F85C4083F8240182F85C4031
:1044200082F824013D700120F0BD00004509002004
:10443000680400209C050020D0060020040800200D
:10444000FDF788FCFFF70EFAFEF734FFFEF7B6FE25
:10445000FEF770FEFEF790FEFEF790FFFEF7B2FF4C
:10446000FFF700F8FEF7E2FFFFF7F0FDFFF7FEFDB4
:104470000A480068C16841F01001C160C8220849BB
:104480000648FEF7A1FD0748FEF798F900F004F989
:10449000FEF7C2FE00F012F9FEE700008C0A0020D1
:1044A000009B0020FC09002010B50C46FE21217065
:1044B000EE2161700178A1700021E17042782271D3
:1044C000FF226271A171E17121726172A172E172C8
:1044D00090ED010ADFED500A20EE200ABDEEC00A81
:1044E00010EE102A227390ED010A20EE200ABDEE94
:1044F000C00A10EE102A120A627390ED020ADFED74
:10450000470A20EE200ABDEEC00A10EE102AA27360
:1045100090ED020A20EE200ABDEEC00A10EE102A2D
:104520009FED3F0A120AE273D0ED030A20EE801AD3
:10453000F6EE000A61EE201A9FED3A1A81EE812A0A
:10454000FDEEC21A11EE902A2274D0ED031A61EE2C
:10455000801A61EEA01A81EE812AFDEEC21A11EED8
:10456000902A120A6274D0ED031A61EE801A61EE8D
:10457000A01A81EE812AFDEEC21A11EE902A120CC9
:10458000A274D0ED031A21EE800A20EE200AC0EEBC
:10459000010ABDEEE00ADFED240A10EE102A120E29
:1045A000E27490ED040A20EE200ABDEEC00A10EE7F
:1045B000102A227590ED040A20EE200ADFED1B0A76
:1045C000BDEEC00A10EE102A120A627590ED050ABF
:1045D00020EE200ABDEEC00A10EE102AA27590ED62
:1045E000050A20EE200ABDEEC00A10EE100A000AED
:1045F000E07521766176A176E176217761770721F2
:104600002046FFF743FD04F81E0F010A6170010CFC
:10461000A170000EE07010BD000080430000004358
:1046200000008046DB0F4940000000450000804448
:1046300000B5D0ED170A9FED0E1A90ED160A89B05D
:1046400060EE810A9FED0B1A694600EE810A80ED4B
:10465000030AFFF729FF222269460748FEF7C4FC38
:10466000054800680168C9434906FBD409B000BD8C
:1046700035FA8E3C9A9911418C0A002010B5EFF35F
:10468000058111B16FF0050403E0002408B100F0CA
:1046900031FE204610BD0000EFF3058010B16FF031
:1046A000050070470448016811B14FF0FF307047B2
:1046B00001210160002070478800002010B5EFF351
:1046C000058010B16FF0050010BD08480168012990
:1046D00002D04FF0FF3010BD054A002182F8141DB2
:1046E0000221016000F06EFE002010BD8800002055
:1046F0000BE000E02DE9FF414FEA01034FF0000518
:10470000EFF30581039549BB40B3802718210024AE
:104710004AB3166806B1344696691EB13146761E14
:10472000382E02D21679F60703D0002004B0BDE877
:10473000F081566906B1B708D2F808C0BCF1000F85
:104740000DD0D5685C2D18D312693AB136B18DE819
:1047500006103A46214601F0CEF903900DE0D668E6
:104760005EB912694AB903AACDE90012BAB221466C
:1047700001F094F9012800D003950398D6E70000D2
:104780002DE9F041134C0F460546E6682068001DF0
:1047900000F07CFC681C07D137B12168BDE8F0410E
:1047A0000D48091D00F0C2BC20683544B542456083
:1047B000216805D2A06BBDE8F041091D00F09EBC48
:1047C000606B091D00F09AFCA06A854200D2A562C8
:1047D000BDE8F081380000208C1100202DE9F04167
:1047E000054600F0AFFC2D4CA068401CA06020687E
:1047F0002B4F10B1606930B32BE02560A068012811
:1048000027D1002606EB860007EB800000F068FC4D
:10481000761C382EF6D3234800F062FC2148143071
:1048200000F05EFC1F48283000F05AFC1D483C3068
:1048300000F056FC1B48503000F052FC19486063F1
:104840001430A06305E02068E96AC06A884200D895
:104850002560606A401C60626864E86A2169884279
:1048600000D9206100EB800007EB8000291D00F0DB
:104870005DFC00F087FC606900280CD02068E96AC4
:10488000C06A884207D208494FF080500860BFF3E1
:104890004F8FBFF36F8FBDE8F0810000380000201C
:1048A000DC0C00203C11002004ED00E038B500F0E5
:1048B00049FC104C2068C8B90F4800F011FC0E48A4
:1048C000143000F00DFC0C48E060143020610A4BFD
:1048D0000020F03B009003F1500210210A2000F06C
:1048E0007FFE206010B105A100F0CEFCBDE838408D
:1048F00000F048BC7400002090120020546D7251EA
:104900000000000030B4026C0B46002A0BD0C168D6
:104910001144C1608468A14201D30168C16030BC08
:104920001846FBF798BD30BC70472DE9F041856B08
:10493000174604460026026C82B1C7B1E068FBF757
:104940008AFDE168206C091AE1602268914202D276
:10495000A168081AE060022F16D017E02068A8B9F5
:10496000A06801F06BF906460020A0600EE06068C8
:10497000FBF771FD216C606808446060A1688842A3
:1049800004D32068606001E005B16D1E6D1CA56355
:104990003046BDE8F08110B5044690F8590058B192
:1049A00001280CD002280FD0502080F31188BFF3CB
:1049B0004F8FBFF36F8FFEE7206B00F0F7FB2046B1
:1049C000BDE8104000F0F2BB10BD000010484FF4ED
:1049D0000041420706D0C01D0D4920F00700411AD2
:1049E000C1F500410B4A00230144C2E90003083924
:1049F000183A21F0070111604B600B600B1AC0E9F7
:104A0000001393604FF00040536050617047000006
:104A100070190020A4000020144E154CA6F29C47EB
:104A20004FF08058DFF84C9012E000BF00F08AFB96
:104A3000F068C568281D00F029FBA068401EA06032
:104A40006068401E606000F09DFB2846FFF7A3FFF2
:104A500060680028EAD138680128F9D9C9F80080CF
:104A6000BFF34F8FBFF36F8FF2E700007811002084
:104A70003800002004ED00E070B51D46049C51B1E3
:104A8000C4F80020C4E90F010121204600F0DCFD3C
:104A900084F84C5070BD2460F4E700002DE9F05F0D
:104AA0008846DDE90B941546834691009A460A9E96
:104AB000A522206BFBF746FD6FF00301206B01EB95
:104AC0008501084420F00707780707D0502080F3BD
:104AD0001188BFF34F8FBFF36F8FFEE70025B8F14A
:104AE000000F0FD05FF00000221818F8001082F8B5
:104AF000341018F8001011B1401C1028F4D384F8B9
:104B0000435001E084F83450382E00D33726E66253
:104B1000C4E91365201D00F0EEFA04F1180000F05E
:104B2000EAFA2461C6F138006462A061656584F820
:104B3000585052465946384600F05AFA2060B9F1AA
:104B4000000F01D0C9F80040BDE8F09F30B5114911
:104B500000E011460A688242FBD34B685C1884422D
:104B600003D1406818444860084643681C189442C2
:104B700009D1084C183C2468A24209D052681A4452
:104B800042600A6812680260814200D0086030BD4D
:104B90000460F9E7A400002070B5002441600B4DCB
:104BA0000061914206D8D11A8269914206D2011D54
:104BB000286907E09A4203D2994201D3012403E015
:104BC000011DE86800F09AFA204670BD74000020CC
:104BD00010B5044600F0B6FAA06B28B15FF00004EF
:104BE00000F0D0FA204610BD0124F9E730B589B0B5
:104BF0003C4D6EE00498002806DADDE90601059ACE
:104C000090470498002864DB069C606910B1201D61
:104C100000F03CFA03A800F0D7F8024604980A28EE
:104C200057D2DFE800F00505052D334A05052D3381
:104C300094F8280040F0010084F828000599A06944
:104C4000059B01442046FFF7A7FF68B3216A204671
:104C5000884794F8280040073BD50020009005982D
:104C6000A169002342181946204601F0F1F8D8B98D
:104C7000502080F31188BFF34F8FBFF36F8FFEE793
:104C800014F8280F20F00100207022E094F828008A
:104C900040F0010084F828000598A06128B181182F
:104CA00013462046FFF778FF13E0502080F3118869
:104CB000BFF34F8FBFF36F8FFEE794F82800810793
:104CC00003D4204600F072FA03E020F0010084F8DB
:104CD0002800002204A9286800F00AFE002889D1D3
:104CE00009B030BD740000202DE9FC410F46054697
:104CF00000F0ACFB01A800F067F80446019818B179
:104D000001F014F8BDE8FC81254EAFB130690068B0
:104D1000D0B30027291B3A46306800F0C9FA01F0E9
:104D200005F80028EED11F494FF080500860BFF30E
:104D30004F8FBFF36F8FE5E7A542EBD800F0F6FF8A
:104D4000F0682746C068C468201D00F09FF994F8F9
:104D50002800410719D5A0692B4641193A4620463B
:104D6000FFF71AFFA8B100200346014600902A462B
:104D7000204601F06DF860B9502080F31188BFF330
:104D80004F8FBFF36F8FFEE707E020F0010084F83C
:104D90002800216A20468847B4E70127BAE70000C7
:104DA0007400002004ED00E00648416B096829B159
:104DB000416BC968C9684968816270474FF0FF312B
:104DC000FAE700003800002070B5054600F0CCFE80
:104DD000064E0446B068844203D200F009F8012070
:104DE00000E0002028602046B46070BD7400002000
:104DF000F8B5194D20E0C068C4680668201D00F0B1
:104E000045F9216A2046884794F82800400713D5C1
:104E1000A0693044B04206D924616060211DE86871
:104E200000F06CF908E0002003460146009032468D
:104E3000204601F00DF838B1E86801680029DAD1A0
:104E40002969C5E90310F8BD502080F31188BFF32C
:104E50004F8FBFF36F8FFEE7740000200848406853
:104E6000401C4FF0500080F3118804D0BFF34F8FE7
:104E7000BFF36F8FFEE7BFF34F8FBFF36F8FFEE778
:104E8000AC000020074CE068016841B1C068002117
:104E9000D0F80000FFF728FFFFF7A8FEF3E7012195
:104EA0000020F7E7740000202DE9F041044600F0EF
:104EB00049F994F9455004F1240609E0606A48B1C3
:104EC000304600F0FBFE08B100F042FA6D1E6DB2F4
:104ED000002DF3DC4FF0FF3684F8456000F052F906
:104EE00000F030F994F9445004F1100709E020690A
:104EF00048B1384600F0E2FE08B100F029FA6D1E14
:104F00006DB2002DF3DC84F84460BDE8F04100F0A0
:104F100039B900002DE9F0410546002700F096FA66
:104F2000324E306808B9FFF751FD706905424ED125
:104F3000C5B3083568070ED005F00700C0F10800BA
:104F40000544680707D0502080F31188BFF34F8FC6
:104F5000BFF36F8FFEE72DB37068854237D82348C3
:104F6000183001460C6801E020460C466168A942F1
:104F700002D221680029F7D131688C4227D0076816
:104F80002168016060680837411B10290FD960193A
:104F9000420708D0502080F31188BFF34F8FBFF332
:104FA0006F8FFEE713E041606560FFF7CFFD61683A
:104FB0007068401A7060B268904200D2B060706948
:104FC00001430020C4E90001F068401CF06000F0DB
:104FD000ADFE780707D0502080F31188BFF34F8FC4
:104FE000BFF36F8FFEE73846BDE8F0818C000020EC
:104FF00010B5031F4FF080741C601B1F21F00101CE
:105000001960191F044B0B6014390A60091F6FF0F7
:10501000020244380A6010BD5D4E000800B58FB032
:1050200001466846FFF750F8002826D09DF800009A
:10503000012822D13C2269461148FBF751FA104859
:10504000183890F8541041B990ED0B0A012180ED09
:10505000030A80ED160A80F8541090ED0B0AD0ED8B
:10506000160A094930EE600ADFED060A80EE201AC2
:1050700080ED181A488E401C48860FB000BD000015
:105080000004002003A3223E88990020D0E90132C9
:1050900001699A60D0E901235A604A68824201D1CD
:1050A00082684A60002202610868401E0860086841
:1050B00070470000034B036003F15C000860802030
:1050C00010607047B8120020044B036003F15C00CD
:1050D00008604FF4807010607047000014150020C5
:1050E00000F108014FF0FF32C0E90112C160016117
:1050F00000210160704700210161704730B50B68E5
:105100005A1C02D000F1080202E0026904E02246C3
:10511000546825689D42FAD953684B6099608A604B
:10512000516008610168491C016030BD42684A60F5
:1051300093688B6093685960916008610168491CAD
:1051400001607047502080F31188BFF34F8FBFF389
:105150006F8F0A494868401C486001280CD10848F4
:10516000006810F0FF0F07D0502080F31188BFF3C4
:105170004F8FBFF36F8FFEE770470000AC00002039
:1051800004ED00E00849486828B1401E486001D19C
:1051900080F311887047502080F31188BFF34F8F40
:1051A000BFF36F8FFEE70000AC00002070B5002851
:1051B0002AD0164DA0F1080460686969084207D139
:1051C000502080F31188BFF34F8FBFF36F8FFEE73E
:1051D00022683AB1502080F31188BFF34F8FBFF39C
:1051E0006F8FFEE78843606000F030F9606869689F
:1051F000084468602046FFF7A9FC2869401C286124
:10520000BDE8704000F092BD70BD00008C00002031
:105210004FF0E02000210161816105494FF47A726D
:105220000968B1FBF2F1491E416107210161704734
:105230003400002010B5FBF773F8114910280ED385
:1052400000F1E02090F8F0030A78904207D2502055
:1052500080F31188BFF34F8FBFF36F8FFEE70948CC
:105260000068896800F4E060884207D9502080F324
:105270001188BFF34F8FBFF36F8FFEE710BD0000A3
:10528000AC0000200CED00E010B5084B002200BF80
:1052900053F832401CB1521C082AF9D310BD43F810
:1052A000321003EBC201486010BD00009C0C0020CE
:1052B00070B515460E460446FFF744FF94F94410B6
:1052C0000020491C01D184F8440094F94510491C80
:1052D00001D184F84500FFF755FFA06B28B92A4695
:1052E000314604F1240000F051F82046BDE870403A
:1052F000FFF7DABD10B5020014D00F48006B38B1CB
:10530000502080F31188BFF34F8FBFF36F8FFEE7FC
:1053100000F09CF800211046FFF732FA00F006FD7D
:10532000002807D105494FF080500860BFF34F8F28
:10533000BFF36F8F10BD00003800002004ED00E0C7
:1053400002490A6A0260C96841607047380000205B
:1053500001490120C86170473800002010B50C4693
:1053600050B1094909681831FFF7C8FE2046BDE869
:1053700010400121FFF704BA502080F31188BFF3D9
:105380004F8FBFF36F8FFEE73800002070B51446D3
:105390000D4668B10A4909681831FFF7C7FE0CB11C
:1053A0004FF0FF3521462846BDE87040FFF7E8B9C9
:1053B000502080F31188BFF34F8FBFF36F8FFEE74C
:1053C0003800002030B587B00024039405AA04A952
:1053D00003A80494FFF76EFEDDE903010094CDE914
:1053E0000110002315A11748059A00F084FB164D03
:1053F0000028E8621FD000F0FBFC012809D0401C07
:1054000019D1502080F31188BFF34F8FBFF36F8FF6
:10541000FEE7502080F31188BFF34F8FBFF36F8FEB
:105420004FF0FF30A86201206861EC6007B0BDE872
:10543000304000F045B807B030BD000049444C454D
:1054400000000000194A0008380000200248016BE3
:10545000491C01637047000038000020164810B551
:10546000016B11B10121C16110BD0021C161016950
:10547000124A01E0B9B1491E01EB810352F8233011
:10548000002BF7D001EB810302EB830202F1080449
:1054900053685B685360A34201D15B685360DA686C
:1054A0000260016110BD502080F31188BFF34F8F5F
:1054B000BFF36F8FFEE7000038000020DC0C0020F7
:1054C0001CB537480168374A914207D1502080F314
:1054D0001188BFF34F8FBFF36F8FFEE7006831492C
:1054E000491E884207D1502080F31188BFF34F8FA7
:1054F000BFF36F8FFEE72C4908780190FF200870FA
:1055000008788DF800009DF800009DF8002000F05C
:10551000F000904207D0502080F31188BFF34F8FE6
:10552000BFF36F8FFEE79DF80000204C00F05000A5
:1055300020700720A06005E09DF8002052008DF843
:105540000020401E9DF800201206F5D4A06003281C
:1055500007D0502080F31188BFF34F8FBFF36F8FB8
:10556000FEE74FF44070A060019808700C482030AE
:10557000016841F470010160016841F0704101600F
:10558000FFF746FE00206060FAF792FE08480168C7
:1055900041F040410160FAF777FE00201CBD000099
:1055A00000ED00E071C20F4100E400E0AC0000201B
:1055B00034EF00E010B5502080F31188BFF34F8F17
:1055C000BFF36F8F00F0D6FA18B104494FF0805046
:1055D0000860002080F3118810BD000004ED00E099
:1055E00038B5049D18B153B1CAB181B120E0502043
:1055F00080F31188BFF34F8FBFF36F8FFEE750200A
:1056000080F31188BFF34F8FBFF36F8FFEE75020F9
:1056100080F31188BFF34F8FBFF36F8FFEE739B16F
:10562000502080F31188BFF34F8FBFF36F8FFEE7D9
:1056300050241C46012384F846302B460094FFF783
:105640001BFA204638BD000070B50D46040025D079
:10565000FFF778FDD4E90F20216802FB0011A1605B
:105660000021A163216861600A46D4E90F01401E50
:1056700000FB0121E16021464FF0FF3001F8440FAB
:10568000487004F110008DB1FFF72AFD04F12400E9
:10569000FFF726FDFFF776FD012070BD502080F357
:1056A0001188BFF34F8FBFF36F8FFEE72169002989
:1056B000F0D000F003FB0028ECD004494FF08050FC
:1056C0000860BFF34F8FBFF36F8FE3E704ED00E097
:1056D0002DE9FF4782B01D468A464FF000080400BE
:1056E00003D0BAF1000F08D011E0502080F31188E8
:1056F000BFF34F8FBFF36F8FFEE7206C38B15020A0
:1057000080F31188BFF34F8FBFF36F8FFEE7022D39
:105710000AD1E06B012807D0502080F31188BFF335
:105720004F8FBFF36F8FFEE700F010FA3F4F4FF03F
:1057300000094FF0805648B9049838B1502080F3E2
:105740001188BFF34F8FBFF36F8FFEE7FFF7FAFCAF
:10575000A06BE16B884207D3022D05D00498D0B12D
:10576000B8F1000F1AD01EE02A4651462046FFF736
:10577000DCF8616A19B104F1240000F09FFA20B14D
:105780003E60BFF34F8FBFF36F8FFFF7FBFC01202D
:1057900006B0BDE8F087FFF7F5FC22E06846FFF7AA
:1057A000CFFD4FF00108FFF7EDFCFFF74FFEFFF7CD
:1057B000C9FC94F94400401C01D184F8449094F948
:1057C0004500401C01D184F84590FFF7DBFC04A99B
:1057D000684600F029F930B12046FFF765FB00F07C
:1057E000A5FA0020D4E7FFF7ADFCA06BE16B88427F
:1057F00013D1FFF7C7FC04F110000499FFF7AEFDC9
:105800002046FFF751FB00F091FA00289ED13E6040
:10581000BFF34F8FBFF36F8F98E7FFF7B3FC2046BE
:10582000FFF742FB00F082FA90E7000004ED00E091
:105830002DE9F0471F4690468946040003D0B9F190
:10584000000F08D011E0502080F31188BFF34F8F74
:10585000BFF36F8FFEE7206C38B1502080F31188C2
:10586000BFF34F8FBFF36F8FFEE7022F0AD1E06BBC
:10587000012807D0502080F31188BFF34F8FBFF36A
:105880006F8FFEE7FFF7D6FC5020EFF3118680F311
:105890001188BFF34F8FBFF36F8FA06BE16B88420E
:1058A00006D3022F04D0002086F31188BDE8F087CC
:1058B00094F94550A06B3A4649462046FFF735F823
:1058C000681C04D06D1C84F845500120ECE7606A28
:1058D0000028FAD004F1240000F0F0F90028F4D0F8
:1058E000B8F1000FF1D00121C8F80010EDE7000079
:1058F0002DE9F747002683B08A46040003D0BAF1A9
:10590000000F08D011E0502080F31188BFF34F8FB3
:10591000BFF36F8FFEE7206C38B1502080F3118801
:10592000BFF34F8FBFF36F8FFEE700F00FF9DFF883
:10593000F4804FF000094FF0805748B9059838B10E
:10594000502080F31188BFF34F8FBFF36F8FFEE7B6
:10595000FFF7F8FBA56BC5B151462046FEF7D2FF15
:105960006D1EA563206950B104F1100000F0A6F986
:1059700028B1C8F80070BFF34F8FBFF36F8FFFF7E8
:1059800001FC012006B0BDE8F087059808B11EB102
:1059900006E0FFF7F7FB27E06846FFF7D1FC01269A
:1059A000FFF7F0FBFFF752FDFFF7CCFB94F9440043
:1059B000401C01D184F8449094F94500401C01D169
:1059C00084F84590FFF7DEFB05A9684600F02CF847
:1059D000002820460AD0FFF767FA00F0A7F9204612
:1059E000FFF7F6F80028B3D00020CBE7FFF7F0F878
:1059F00090B104F124000599FFF7B0FC2046FFF7B1
:105A000053FA00F093F90028A2D1C8F80070BFF350
:105A10004F8FBFF36F8F9BE72046FFF745FA00F0EB
:105A200085F995E704ED00E02DE9F0410C4605000D
:105A300011D0C4B1FFF786FB174BDA686E68206897
:105A4000911B471C17D02F681B6A9F4219D09642A2
:105A500017D8012410E0502080F31188BFF34F8F36
:105A6000BFF36F8FFEE7502080F31188BFF34F8F95
:105A7000BFF36F8FFEE70024FFF784FB2046BDE8ED
:105A8000F081884205D9401A20602846FFF758FC6B
:105A9000F1E700202060DCE7380000202DE9FF5FFF
:105AA0008346DDE90E87994616468A469000FFF741
:105AB00031FA05001CD05C20FFF72CFA040014D04A
:105AC0000020256384F85900CDE90240CDE9008724
:105AD0004B46324651465846FEF7E0FF2046FEF759
