:020000040800F2
:10000000C05B00202903000851570008A1520008D6
:10001000315500081D1F000855820008000000002F
:10002000000000000000000000000000690200085D
:100030003128000800000000C5020008F562000831
:100040004303000843030008430300084303000878
:100050004303000843030008430300084303000868
:100060004303000843030008430300084303000858
:100070004303000843030008430300084303000848
:100080004303000843030008430300084303000838
:10009000611F0008430300084303000843030008EE
:1000A0004303000843030008430300084303000818
:1000B00043030008D5630008430300084303000816
:1000C00043030008430300084303000843030008F8
:1000D00043030008CD7D00084303000843030008E4
:1000E00043030008430300084303000843030008D8
:1000F00043030008430300084303000843030008C8
:1001000043030008430300084303000843030008B7
:100110004303000843030008E563000843030008A5
:10012000430300084303000889260008430300082E
:100130004303000843030008430300084303000887
:10014000B11F0008430300084303000843030008ED
:1001500043030008430300089926000843030008EE
:100160004303000843030008430300084303000857
:100170004303000843030008430300080000000095
:10018000430300084303000800F002F800F05CF8A5
:100190000AA090E8000C82448344AAF10107DA45E2
:1001A00001D100F051F8AFF2090EBAE80F0013F0D8
:1001B000010F18BFFB1A43F00103184764BF00008A
:1001C00084BF00000A444FF0000C10F8013B13F00C
:1001D000070408BF10F8014B1D1108BF10F8015BA0
:1001E000641E05D010F8016B641E01F8016BF9D193
:1001F00013F0080F1EBF10F8014BAD1C0C1B09D1EA
:100200006D1E58BF01F801CBFAD505E014F8016B5B
:1002100001F8016B6D1EF9D59142D6D370470000ED
:100220000023002400250026103A28BF78C1FBD8FF
:10023000520728BF30C148BF0B6070471FB50BF095
:10024000B2FE1FBD10B510BD00F0F6F91146FFF764
:10025000F5FF08F05BFF00F014FA03B4FFF7F2FFBC
:1002600003BC00F017FA00002C4B19680868B0E8CE
:10027000F04F80F30988BFF36F8F4FF0000080F3D9
:10028000118870470000000008480068006880F38B
:1002900008884FF0000080F3148862B661B6BFF39F
:1002A0004F8FBFF36F8F00DF00BF00BF08ED00E08E
:1002B000DFF80C00016841F470010160704700BF75
:1002C00088ED00E0EFF30980BFF36F8F134B1A68DE
:1002D0001EF0100F08BF20ED108A20E9F04F1060CB
:1002E00009B44FF0500080F31188BFF34F8FBFF374
:1002F0006F8F0AF0F3F84FF0000080F3118809BC0B
:1003000019680868B0E8F04F1EF0100F08BFB0EC95
:10031000108A80F30988BFF36F8F70472C0000208C
:10032000EFF30580704700000948804709480047FF
:10033000FEE7FEE7FEE7FEE7FEE7FEE7FEE7FEE795
:10034000FEE7FEE704480549054A064B70470000F2
:10035000C163000889010008C0550020C05B00206F
:10036000C0570020C057002053EA020C00F06980FB
:100370002DE9F04B4FF00006002B1FBFB3FA83F5B9
:1003800003FA05F424FA05F65E4012BF1643B2FAEA
:1003900082F502FA05F4C5F120051EBF22FA05FC1C
:1003A00044EA0C04203556EA044C4FEA144418BFC2
:1003B000641C4FF000084FF00009904271EB030CF1
:1003C00039D3002919BFB1FA81F701FA07F6B0FA5B
:1003D00080F700FA07F6C7F120071EBF20FA07FCD6
:1003E00046EA0C062037B6FBF4FCA7EB0507103FE6
:1003F00007F01F0BCBF120060CFA0BFB2CFA06F6CC
:1004000044BFB3460026202FA4BF5E464FF0000B2A
:100410005BEA060C08BF4FF0010B19EB0B09ABFBB5
:10042000027C48EB0608C01B06FB02CC0BFB03CC8E
:1004300071EB0C01C1E70B46024641464846BDE858
:10044000F08B13B54FF000004FF00001AFF30080C8
:10045000BDE81C407047B2F120030AD5C2F1200369
:1004600001FA02F120FA03F300FA02F041EA030173
:10047000704700FA03F14FF000007047032A40F282
:10048000308010F0030C00F0158011F8013BBCF136
:10049000020F624498BF11F801CB00F8013B38BF4E
:1004A00011F8013BA2F1040298BF00F801CB38BF5C
:1004B00000F8013B11F0030300F06280083AC0F03D
:1004C000088051F8043B083A51F804CBA0E8081022
:1004D000F5E7121D5CBF51F8043B40F8043BAFF355
:1004E0000080D20724BF11F8013B11F801CB48BFAF
:1004F00011F8012B24BF00F8013B00F801CB48BFE5
:1005000000F8012B704702F0FF0343EA032242EA9E
:10051000024200F069B84FF0000200B5134694465D
:100520009646203922BFA0E80C50A0E80C50B1F14B
:100530002001BFF4F7AF090728BFA0E80C5048BF5F
:100540000CC05DF804EB890028BF40F8042B08BFFD
:10055000704748BF20F8022B11F0804F18BF00F8F9
:10056000012B704770477047704710B500F05CF87A
:10057000006810BD10B5044600F056F8046010BDC8
:1005800010B5203AC0F00B80B1E81850203AA0E82E
:100590001850B1E81850A0E81850BFF4F5AF5FEA62
:1005A000027C24BFB1E81850A0E8185044BF18C915
:1005B00018C0BDE810405FEA827C24BF51F8043BBC
:1005C00040F8043B08BF7047D20728BF31F8023B10
:1005D00048BF11F8012B28BF20F8023B48BF00F8A4
:1005E000012B70474FF000020429C0F0128010F078
:1005F000030C3FF492AFCCF1040CBCF1020F18BF16
:1006000000F8012BA8BF20F8022BA1EB0C01FFF78B
:1006100084BF5FEAC17C24BF00F8012B00F8012BE6
:1006200048BF00F8012B7047004870475C55002018
:10063000004870475C5500207546FFF7F9FFAE464D
:1006400005006946534620F00700854618B020B5DE
:10065000FFF778FEBDE820404FF000064FF000079E
:100660004FF000084FF0000B21F00701AC46ACE85A
:10067000C009ACE8C009ACE8C009ACE8C0098D46C7
:10068000704710B50446AFF300802046BDE8104027
:10069000FFF7E3BD01491820ABBEFEE726000200CC
:1006A000704700000C4840790C4908700A480079EE
:1006B000487009488078887007488079C870064873
:1006C000C07908710448C07848710348007888717F
:1006D00001484078C8717047C0000020485300208E
:1006E00010B501460022002007E00C5C0123834086
:1006F00004FB0323DAB2431CD8B20628F5DB10460C
:1007000010BD000070B52DED108B92B00446E0696D
:1007100000EE900A60EEA01A206A00EE900A01EE48
:10072000100A40EE811AB0EE610A08F012FCF0EEF9
:10073000409A206800EE100A606800EE900A30EEE1
:10074000200ADFEDEE0A30EE200AB4EEE90AF1EEFF
:1007500010FA12D3206800EE100A606800EE900ACA
:1007600030EE600AB0EEC00ADFEDE40A30EE600A57
:10077000B4EEE90AF1EE10FA04DD002012B0BDEC8F
:10078000108B70BDE06900EE900A206A00EE100A3E
:1007900008F0B8F8B0EE40BA206800EE100A20EE7B
:1007A000000A09EEA90A606800EE900A01EE100A3C
:1007B00000EEC10A206800EE900AB0EE001A60EE6A
:1007C000810A60EEA90AC0EE20BAB7EE000AF4EE84
:1007D000C0BAF1EE10FA03DDB7EE000AF0EE40BA4F
:1007E000BFEE000AF4EEC0BAF1EE10FA03D2BFEE8B
:1007F000000AF0EE40BAB0EE6B0A07F0F7FFB0EE79
:1008000040CAB0EE4C0A3BEE000A8DED100AB0EE85
:100810004C0A3BEE400A8DED110A0026DFEDB8FAD6
:100820009FEDB70A8DED0F0A002563E010A800EBDD
:10083000850090ED000AF0EE40AAF5EEC0AAF1EEB8
:1008400010FA06D39FEDAF0AF4EEC0AAF1EE10FA4B
:1008500000DD4EE0B0EE6A0A08F07CF9206800EE98
:10086000900A20EE200A8DED030AB0EE6A0A08F025
:100870006BFA206800EE900A20EE200A8DED020A45
:10088000E06900EE900A9DED030A30EEC00A8DED9E
:10089000010A206A00EE900A9DED020A30EEC00ABD
:1008A0008DED000ADDED010A9DED000A08F02AF841
:1008B000B0EE409A9FED940AB4EEC09AF1EE10FAB1
:1008C00006D39FED920AB4EEC09AF1EE10FA00DD65
:1008D0000FE09FED8A0A3AEE800AB4EEC90AF1EE03
:1008E00010FA00D205E0F0EE6AFA8DED0F9A0126BB
:1008F00002E06D1C022D99DB00BF0EB900203DE720
:100900009FED830A2FEE800A10EE100A60639DEDC2
:100910000F0ADFED7F0A20EE200A10EE100AA06316
:10092000B0EE6F0A08F010FA206800EE900AF1EEBF
:10093000600A60EE20CA9DED0F0A08F005FA6068B3
:1009400000EE900AF1EE600A20EE20DAB0EE6F0AB7
:1009500008F000F9206800EE900A60EE20DA9DEDC4
:100960000F0A08F0F7F8606800EE900A20EE20EA1F
:100970002CEE8E0A0DEE6D0A8DED0E0A9DED0E0A1F
:10098000B0EEC00ADFED5D0AB4EEE00AF1EE10FA57
:1009900001D20020F2E69DED0E0AF7EE000A80EE8D
:1009A00080AA606A0EEE900AA06A0FEE100A2EEE80
:1009B0002E0A0DEE4F0A20EE0A8AB1EE6D0A20EEE5
:1009C0002E0A0CEE8F0A60EE0A8A9FED510A28EE7D
:1009D000000A10EE100A20649FED4D0A28EE800AEE
:1009E00010EE100A6064B0EE6F0A08F0B3F82068E9
:1009F00000EE900AF1EE600A20EE200A20EE080ACE
:100A00008DED0D0A9DED0F0A08F0A4F8606800EE68
:100A1000900AF1EE600A20EE200A20EE280A8DED01
:100A20000C0AB0EE6F0A08F08FF9206800EE900A09
:100A3000F1EE600A20EE200A20EE080A8DED0B0A86
:100A40009DED0F0A08F080F9606800EE900AF1EE63
:100A5000600A20EE200A20EE280A8DED0A0AE06ADC
:100A60000990206B08909DED0D0A60EE080A9DED3F
:100A70000C0A40EE280A9DED090A30EE600A8DED61
:100A8000070A9DED0B0A60EE080A9DED0A0A40EE8A
:100A9000280A9DED080A30EE600A8DED060A9DEDEC
:100AA000070A6EEE000A9DED060A4DEE400A20EEA2
:100AB0008A0A8DED050AF1EE6D0A9DED070A60EEDA
:100AC000800A9DED060A4CEE800A20EE8A0A8DED22
:100AD000040A9DED050ADFED0E0A20EE200A10EE55
:100AE000100AA0649DED040ADFED090A20EE200A39
:100AF00010EE100AE064012040E60000BD378635A4
:100B000000000000DB0F4940DB0FC9BFDB0FC93F0E
:100B1000E12E65423EB5044694ED030AD4ED000A89
:100B200030EE200A8DED000A94ED040AD4ED010A9E
:100B300030EE200A8DED010A94ED020A8DED020AD5
:100B4000DDED020A9FED211A60EE810AB0EE600A27
:100B500008F000F8D4ED080A20EE200A84ED0B0A14
:100B6000DDED010A9FED191A60EE810AB0EE600A10
:100B700007F0F0FFD4ED070A20EE200AD4ED0B0AAF
:100B8000DFED131A80EEA11AF3EE040A61EE200ADB
:100B9000B5EE081A10EEC10A84ED0A0ADDED000A6E
:100BA0009FED0A1A60EE810AB0EE600A07F0D2FFEC
:100BB000D4ED060A20EE200AD4ED0A0A9FED051AAC
:100BC00001EE200A84ED090A3EBD000035FA8E3C94
:100BD00000008046CDCCCC3D10B5394800780128C6
:100BE0001FD1384880683749C8610846C068086224
:100BF0000846FFF787FD3348406B324908610846D5
:100C0000806B48610846406B2F49C8602D48806B57
:100C100008619FED2E0A084680ED050A002028494C
:100C200008702B48D0ED000AB0EE600AF7EE001A0B
:100C30009FED281ADFED280A284805F087FC244894
:100C400090ED030AB0EEC00AF2EE040AB4EEE00A38
:100C5000F1EE10FA0DD8D0ED030AB0EE600ADFED28
:100C6000201A9FED201AF9EE000A1F4805F06EFCCD
:100C70000DE01748D0ED030AB0EE600AF2EE041A58
:100C80009FED181AF9EE000A174805F05FFC0D48B1
:100C9000006A00EE900A0B48C06900EE100ADFED12
:100CA000133A9FED133ADFED092A9FED082ADFED95
:100CB000111A9FED111A114806F056FA10BD0000E6
:100CC0003C010020EC000020940700200000000000
:100CD000CC5300200000704300009842EA540020EA
:100CE0009A99993E0000B442A454002000007A442E
:100CF0000000FA4300002F43000011430C080020BD
:100D000070B504460D462046FFF7FCFC012815D1BE
:100D1000606B00EE100A206900EE900A30EE600A67
:100D200085ED020AA06B00EE100A606900EE900AE1
:100D300030EE600AB1EE400A85ED010A70BD000098
:100D400010B5FE480078FE490978884208D0002096
:100D500004E00021FB4A1154411C88B20A28F8DB48
:100D6000F6480078F6490870F448007807286ED2F3
:100D7000DFE810F007006300E103B4042F06FF066C
:100D80003908F148006840F6B83188420DD8EF487C
:100D90000078052809D1EE480078052805D1ED48EE
:100DA0000078052801D1FFF717FFE7480068401CCD
:100DB000E5490860E848407801281BD108460068EA
:100DC000642817D300200860E4490860E4490860FB
:100DD000E4490860E4490860E4490860E4490860BF
:100DE0000120E449887048710871D44908700020D6
:100DF000D9494870D848407802281DD1D2480068A7
:100E0000642819D30020D0490860D4490860D44927
:100E10000860D4490860D4490860D4490860D449BE
:100E200008600120D3498870487108710520C349C2
:100E300008700020C84948707CE3C748807838B102
:100E4000012874D0022873D0032872D1B0E2BCE329
:100E5000BC480078A0BBBD480078052831D1BC480B
:100E6000007805282DD1BB480078052829D1C24833
:100E7000006A00EE900AC048C06900EE100ADFED7B
:100E8000BF3A9FEDBF3ADFEDBF2A9FEDBE2ADFEDEF
:100E9000BE1A9FEDBE1AAE4806F066F9BC48D0ED0A
:100EA000000AB0EE600ADFEDBB1A9FEDBB1ADFED62
:100EB000BB0AA84805F04AFB0120A2490870A8E037
:100EC000FFE7A0480078012835D19E48407888BBCC
:100ED0009E48007805282ED19D48007805282AD103
:100EE0009C480078052826D1A348006A01EE100A24
:100EF000DFEDAB1A31EE611AF0EE410A9E48C0698F
:100F000000EE100A9FED9D4ADFED9D3A9FED9C3A61
:100F1000DFED9C2A9FEDA12ADFEDA21A9FEDA01A1A
:100F20008B4805F073FD01208649487071E085E02B
:100F3000B9E1F8E2FFE783484078012839D18148D8
:100F40008078A8BB81480078052832D18048007895
:100F500005282ED17F48007805282AD18648006AC6
:100F600002EE100ADFED902A32EE622AF0EE421A0B
:100F70008148C06901EE100A7F48006A00EE900ABD
:100F80007D48C06900EE100ADFED883A9FED7C3A9B
:100F9000DFED7C2A9FED7A2A6D4806F0E5F89FED9B
:100FA000840A844880ED080A01206649887030E090
:100FB000FFE76448807801282BD16248C07840BBA5
:100FC00062480078052824D161480078052820D19E
:100FD0006048007805281CD1C82009F09FF96648B0
:100FE000006A00EE900A6448C06900EE100ADFED66
:100FF000633A9FED633ADFED632A9FED622ADFEDEE
:101000006E1A9FED6E1A524806F0AEF801204D4957
:10101000C8704C48C07801280FD14C48007805288A
:101020000BD14B480078052807D14A48007805289D
:1010300003D103204149087010BD75E24148007892
:1010400060BB43480078052828D14B48006A00EE71
:10105000900A4948C06900EE100ADFED483A9FED5A
:10106000583ADFED482A9FED472ADFED471A9FEDFA
:10107000461A374806F078F84548D0ED000AB0EE39
:10108000600ADFED501A9FED441ADFED3E0A314849
:1010900005F05CFA01202B490870EFE02948007840
:1010A000012831D12748407870BB284800780528AE
:1010B0002AD127480078052826D126480078052817
:1010C00022D12D48006A01EE100ADFED3F1A31EE01
:1010D000611AF0EE410A2848C06900EE100A9FED3F
:1010E0003B4ADFED373A9FED363ADFED262A9FED9A
:1010F0002B2ADFED2C1A9FED341A154805F086FCDB
:10110000012010494870B9E00E48407801287ED18E
:101110000C48807880B90D480078052877D10C48B4
:101120000078052873D10B48007805286FD1124844
:10113000006A00EE900A4BE069E0000046010020E2
:10114000470100205055002070080020A4540020C2
:101150000C080020EA5400203C0100207408002004
:10116000780800207C0800208008002084080020E7
:1011700088080020C0000020EC00002000409C45B2
:1011800000007A4400000000000048430080A243B1
:10119000CC5300209A99993E000034440000B4C218
:1011A000000096420000B4420000484200401C4645
:1011B00000803B45940700200000BE43000096439A
:1011C0000000FA44CDCC4C3E0000C84200606A46A4
:1011D000FE48C06901EE100A5FED051A31EE211AD2
:1011E000B0EE410A1FED074A5FED0B3A1FED1C3AC6
:1011F0005FED0D2A1FED152ADFEDF51A1FED0E1A12
:10120000F44805F003FC0120F349887036E0F24809
:101210008078012832D1F048C07878BBEF48007858
:1012200005282BD1EB480078052827D1EC48007819
:10123000052823D1E548006A01EE900AE348C06919
:1012400002EE100A5FED282A32EE222AB0EE421A90
:10125000DE48006A00EE900ADC48C06900EE100A21
:101260005FED2E3A1FED2A3A5FED3A2A1FED3C2A38
:10127000D84805F079FF0120D749C870D648C07812
:1012800001280FD1D548007805280BD1D148007826
:10129000052807D1D2480078052803D10220D1497A
:1012A0000870C9E640E1CC480078A0BBCB48007884
:1012B000052831D1C748007805282DD1C8480078C5
:1012C000052829D1C848D0ED000AB0EE600A5FEDCC
:1012D000431A1FED4F1A5FED550AC14805F036F964
:1012E000BA48006A00EE900AB848C06900EE100AD9
:1012F0005FED4A3A1FED4E3A5FED5E2A1FED5F2A21
:101300005FED5F1A1FED601AB24805F02DFF012056
:10131000B149087037E0FFE7AF480078012832D1C3
:10132000AD48407878BBAD48007805282BD1A94856
:101330000078052827D1AA480078052823D1A3489A
:10134000006A01EE900AA148C06902EE100ADFEDC2
:10135000A72A32EE222AB0EE421A9C48006A00EE1A
:10136000900A9A48C06900EE100A5FED683A1FEDD6
:101370006C3A5FED7C2A1FED7D2A964805F0F4FE5D
:101380000120954948709448407801280FD193482E
:10139000007805280BD18F480078052807D19048A0
:1013A0000078052803D102208E49087044E6BBE08E
:1013B0008948007830BB89480078052822D18548C3
:1013C000007805281ED18648007805281AD17F4864
:1013D000006A00EE900A7D48C06900EE100A5FEDD9
:1013E0008D3A1FED893A5FED9A2A1FED9A2ADFEDBB
:1013F000801A9FED801A774805F0B6FE01207649E5
:1014000008707BE074480078012840D17248407829
:10141000E0BB72480078052839D16E48007805286D
:1014200035D16F480078052831D16F48D0ED000ADA
:10143000B0EE600A5FED9D1A1FEDA91A5FEDAF0ACD
:10144000674805F083F86148006A00EE900A5F483B
:10145000C06901EE100A5FEDA41A31EE211AB0EE58
:10146000410A1FEDAE4A5FEDAA3A1FEDAB3A5FEDC0
:10147000BC2A1FEDB62ADFED561A1FEDAD1A5548EE
:1014800005F0C4FA01205449487037E0FFE752489C
:101490004078012832D15048807878BB4F48007896
:1014A00005282BD14B480078052827D14C480078D7
:1014B000052823D14548006A01EE900A4348C069D7
:1014C00002EE100ADFED492A32EE222AB0EE421A6D
:1014D0003E48006A00EE900A3C48C06900EE100ADF
:1014E0005FEDCE3A1FEDCA3A5FEDDA2A1FEDCC2A46
:1014F000384805F039FE0120374988703648807831
:1015000001280FD13548007805280BD131480078E3
:10151000052807D132480078052803D10220314937
:10152000087089E500E000BF00BF33480068401C38
:10153000314908604CE23148006858B92348C06915
:1015400000EE100A5FEDE00A30EE200A10EE100AFD
:101550001E49C86120480078012808D11D4800783C
:10156000052804D11FEDEE0A254880ED080A25481C
:101570008078012804D002284FD0032873D173E06B
:101580001548007800BB13480078052844D11B4853
:101590000068C82840D30D48006A00EE900A0B4846
:1015A000C06900EE100ADFED183A1FEDFB3ADFEDDF
:1015B000172A9FED162ADFED0E1A9FED151A054822
:1015C00005F0D2FD012025E026E0FDE3EC0000203F
:1015D000000034430C08002050550020A454002083
:1015E000EA54002046010020CC53002000007A433A
:1015F0000000C8430000164374080020780800204B
:10160000940700203C01002000401C460000000020
:1016100000004843FE4908704DE0FD48007808BBD3
:10162000FC48007805281DD1FB480068C82819D35C
:10163000FA48006A00EE900AF848C06900EE100A05
:101640005FED0F3A9FEDF63A5FED102A1FED112A7C
:101650005FED191A1FED121AEE4805F085FD012005
:10166000EB49087027E025E0E948007808BBE94825
:10167000007805281DD1E8480068C82819D3E74834
:10168000006A00EE900AE548C06900EE100A5FEDBE
:10169000223A9FEDE33A5FED232A1FED242A5FED06
:1016A0002C1A1FED251ADB4805F05EFD0120D849F4
:1016B000087000E000BF00BFD5480078012807D1BE
:1016C000D4480078052803D10320D6490870B3E434
:1016D000D1480068401CD049086079E1D24880793F
:1016E000012820D1D048407802281BD10020CF49C2
:1016F0000860CF490860C8490860CE490860CE49F3
:101700000860CE490860CE4908600120CD49887044
:1017100008710620C34908700020C34948700021A1
:10172000C148817188E4C0480079A0BBBE48C07838
:10173000012830D1B648007870BBB548807858BBD6
:10174000B4480078052828D1B748807888B1BE48C9
:10175000D0ED030AB0EE600AF7EE001A1FED641A2E
:10176000DFEDBA0ABA4804F0F1FE0120A84908707A
:101770009BE0B548D0ED030AB0EE600AF7EE081A18
:101780001FED6D1A5FED6E0AB14804F0DFFE012017
:101790009F49887089E097E0FFE79D48007801281D
:1017A00033D19B48407878BBA948007805282CD1D4
:1017B0009D48807840B3A448D0ED000AB0EE600A9E
:1017C000DFEDA41A1FED7E1ADFEDA30AA34804F093
:1017D000BDFE9248006A00EE900A9048C06900EE93
:1017E000100ADFED9F3A9FED9F3A5FED782A1FEDDB
:1017F000792A5FED811A9FED9C1A864805F0B4FCAA
:1018000001208349487050E0FFE781484078012873
:101810001CD17F488078C8B97E480078052815D14A
:101820008E480078052811D18748D0ED030AB0EE24
:10183000600AF7EE001A1FED9A1A5FED9B0A8448C2
:1018400004F084FE0120724988702EE07048807890
:1018500001282AD16E48C07838BB7D480078052819
:1018600023D16E48006A02EE100ADFED802A32EEC4
:10187000622AF0EE421A6948C06901EE100A674810
:10188000006A00EE900A6548C06900EE100A5FED3C
:10189000A23A9FED773A5FEDA32A1FEDA42A5D4897
:1018A00005F062FC01205A49C8705948C0780128E7
:1018B00035D158480078052831D101205A4908719E
:1018C000042058490870ECE45748807938BB5648E2
:1018D000C078032877D14E48007808BB5C48007870
:1018E00005281DD14B480078052819D15B480078A0
:1018F000052815D14C48007A03280DD05248D0ED68
:10190000030AB0EE600AF7EE001A1FEDCF1ADFED02
:101910004F0A4F4804F01AFE01203D49087052E07A
:101920003B480078012838D139484078A0BB484866
:101930000078052831D13748007805282DD147484F
:101940000078052829D13548006A00EE900A33480E
:10195000C06900EE100ADFED323A9FED463A5FEDC6
:10196000D52A1FEDD62ADFED441A1FEDE01A2948CB
:1019700005F0FAFB3448D0ED000AB0EE600ADFED66
:10198000351A1FEDED1A5FEDDF0A344804F0DEFD75
:1019900001201F49487016E0FFE71D4840780128E4
:1019A00011D11B48807870B92948007805280AD1E0
:1019B00018480078052806D128480078052802D163
:1019C0000121194881711B480068401C19490860B1
:1019D0009BE20F480078C8B90E480078052866D108
:1019E000154800680A2862D800201649887001202E
:1019F000C8700A48006A02EE100ADFED1C2A32EEB7
:101A0000222AF0EE421A0548C06937E04FE0000094
:101A1000505500200C08002078080020EC00002021
:101A20000000FA44460100203C010020700800201C
:101A3000740800207C080020800800208408002012
:101A400088080020C0000020CC5300200000B442D1
:101A5000A4540020CDCC4C3F0000B4C2EA54002076
:101A600000409C450000484400008C430000A04218
:101A700000007A440000FA430000AF4301EE100A70
:101A8000FE48006A00EE900AFC48C06900EE100AA9
:101A90005FED0D3A1FED0A3ADFEDF92A9FEDF82AC6
:101AA000F84805F061FB0120F749087044E0F74869
:101AB0000068FA280DD3F5480068B0F5967F08D283
:101AC0000020F349C8709FEDF30AF34880ED080A3F
:101AD00032E0ED48007801282ED1EB48407858BB21
:101AE000E8480078052827D1E8480068B0F5967FD7
:101AF00022D1EA48D0ED030AB0EE600AF7EE081AE8
:101B00009FEDE71ADFEDDE0AE64804F01FFDE64828
:101B1000807803280DD1E148D0ED000AB0EE600ACC
:101B2000F7EE001A9FEDE11ADFEDE10AE14804F05B
:101B30000DFD0120D4494870D3484078012812D1C6
:101B4000D64890ED030A5FED3F0AB4EEE00AF1EEED
:101B500010FA08D8CD480068B0F5167F03D90020E8
:101B6000D549087022E4C9480068401CC74908608C
:101B7000CBE1CD48007901287ED1C3480078D0BBA5
:101B8000C0480078052837D1C448D0ED030AB0EE2C
:101B9000600A5FED501A9FEDC21ADFEDC40AC1481A
:101BA00004F0D4FCBD48D0ED000AB0EE600ADFEDD1
:101BB000C31A9FEDC31A5FED580ABE4804F0C6FC75
:101BC000AE48006A00EE900AAC48C06900EE100A08
:101BD000DFEDBC3A1FED5A3ADFEDA92A9FEDA82AA6
:101BE000DFEDB91A9FEDB91AA64805F0BDFA01203C
:101BF000A5490870D8E0FFE7A3480078012872D112
:101C0000A1484078C8BBA748007805286BD19D48FB
:101C10000078052867D1A7480078052863D10020FF
:101C20009B4948719548006A02EE100A5FED712ADF
:101C300032EE622AF0EE421A9048C06901EE100AB4
:101C40008E48006A00EE900A8C48C06900EE100AC7
:101C5000DFED9F3A1FED7A3ADFED892A9FED882A62
:101C6000884805F081FAC82008F058FB012088490F
:101C7000C8719FED980A01E0AFE034E0864880ED3E
:101C8000080A322008F04AFB7C48006A02EE100A7B
:101C90005FED8A2A32EE222AF0EE421A7748C069B6
:101CA00001EE100A7548006A00EE900A7348C06998
:101CB00000EE100ADFED863A1FED933ADFED702A51
:101CC0009FED6F2A6F4805F04FFA962008F026FB2B
:101CD00000206F49C8714FF4967008F01FFB012077
:101CE0006949487060E06848407801285CD16648DE
:101CF0008078E0BB6B480078052855D161480078B2
:101D0000052851D16B48007805284DD16348D0EDA6
:101D1000030AB0EE600AF6EE001A9FED611A5FED5D
:101D2000B50A604804F012FC4FF4FA7008F0F6FAB5
:101D30005A48D0ED000AB0EE600A5FEDBA1A9FED86
:101D40005B1ADFED4F0A5B4804F000FC4FF4FA70B9
:101D500008F0E4FA4948006A00EE900A4748C06972
:101D600000EE100ADFED5A3A1FEDBF3A00E01BE02B
:101D7000DFED432A9FED422A5FEDC11A9FED451A20
:101D8000404805F0F1F94548D0ED030AB0EE600A8D
:101D9000F7EE081A9FED451ADFED390A414804F0C5
:101DA000D5FB01203849887037488078012814D144
:101DB0003C480078052810D13248007805280CD11D
:101DC0003C480078052800E09EE006D10020364916
:101DD000087106203849087079E43F480068401CC3
:101DE0003D49086091E03048407A022800D16EE415
:101DF0002548007808BB2348007805281DD12A48CB
:101E00008078B0B11D48006A00EE900A1B48C06996
:101E100000EE100ADFED313A1FEDEA3ADFED182A45
:101E20009FED172A5FEDEC1A9FED2D1A154805F06E
:101E30009BF901201449087058E0134800780128E4
:101E400054D111484078B8B90E48007805284DD1D2
:101E500000200F4988700120C870C82008F05EFA81
:101E600000200B49C8709FED0B0A0B4880ED080A53
:101E700001200549487035E038E00000EC00002002
:101E8000000000000C0800205055002080080020B1
:101E9000C000002000007A4394070020CC530020AB
:101EA0000000B443A45400203C010020000034434F
:101EB00000009842EA540020460100209A99993E79
:101EC0000000344400606A460000C84300009643A6
:101ED00000401C4600803B45840800200000FA4476
:101EE0000000E1434FF47A7008F018FA084840788F
:101EF000012803D100200749087013E40648006850
:101F0000401C0549086000E000BF00BF00BF09E4B5
:101F100050550020460100208808002000BFFEE741
:101F200000B58BB0002006900590019002900390C0
:101F300004900790012008900E200A90012009903B
:101F400001A9064800F070FD044801F034FB0221AD
:101F5000024800F0AFFC0BB000BD00008C08002070
:101F600010B5024800F0BBFE10BD00008C08002038
:101F700000B58BB00E2006900020059001900290D5
:101F8000039004900790012008901C200A900120E3
:101F9000099001A9054800F047FD044801F00BFB3A
:101FA0000221024800F086FC0BB000BDB4080020FE
:101FB00010B5024800F093FE10BD0000B4080020E8
:101FC00010B5FFF7ADFFFFF7D3FF074801F0F3FAB5
:101FD000064801F0F0FA0221034800F06BFC0221F0
:101FE000024800F067FC10BD8C080020B4080020F7
:101FF00030B52DED108B83B004469FED7B0AB0EE1B
:1020000040FA94ED000AD4ED060A30EE600A84ED41
:10201000020A94ED030AD4ED040A20EE200AB0EE81
:10202000408A94ED040A20EE080A10EE105A94ED4E
:10203000020AD4ED040A94ED011A00EE810AF0EED2
:10204000408A18EE900A09F007FF41EC1E0BB0EE33
:102050004E0AF0EE6E0A06F025FEB0EE40DAF0EE23
:1020600060DA94ED030AF2EE000A20EE200A10EE88
:10207000101A084609F0F0FE53EC1D2BCDE90001C3
:102080009DED000B51EC100B09F0FCFB41EC1B0B20
:1020900028EE080A10EE101A084609F0DDFE41ECA1
:1020A0001C0B53EC1B2B09F0E5FA41EC1A0BB0EEBC
:1020B0004A0AF0EE6A0A06F00FFFB0EE409AF0EE20
:1020C000609A51EC190B09F0A3FA0290284609F026
:1020D000C3FE41EC190B18EE900A09F0BDFE41EC6D
:1020E0001B0BB0EE4B0AF0EE6B0A06F0DBFDB0EE18
:1020F00040AAF0EE60AA53EC192B51EC1A0B09F030
:10210000BFFC18D2B0EE680A04F05CF800EE100ACA
:10211000F8EEC00A9DED020A30EE480A60EE800A31
:10212000B0EE001A80EE810AD4ED010A30EE200AEA
:10213000B0EE40FA09E0D4ED040A88EEA00AD4ED2E
:10214000010A30EE200AB0EE40FA18EE100A09F04B
:1021500083FE41EC190B1FEE100A09F07DFE41ECE5
:102160001B0BB0EE4B0AF0EE6B0A06F09BFDB0EED7
:1021700040AAF0EE60AA53EC192B51EC1A0B09F0AF
:102180007FFC10D2B0EE4F0A04F01CF800EE100AEB
:10219000B8EEC00AD4ED030ABFEE001A60EE810A61
:1021A00060EE20FA09E094ED030AFFEE000A20EE4B
:1021B000200A20EE0F0AC0EE08FA94ED000AD4EDD2
:1021C000050A94ED011A00EE810A84ED000A94EDEF
:1021D000010AD4ED050A00EEAF0A84ED010A03B04E
:1021E000BDEC108B30BD000000000000F0EE401A86
:1021F000F4EEE01AF1EE10FA02D2B0EE600A704787
:10220000F4EEC11AF1EE10FA02DDB0EE410AF6E783
:10221000B0EE610AF3E7000010B50348007805F05E
:10222000A3FE06F00BF810BDC800002010B5026830
:1022300042600160D0E90023D21A8260426902EB59
:10224000D2748368B3EB640F04DD43698268D21AE9
:1022500082600BE043695A4202EBD2748368B3EBAD
:10226000640F03DA436982681A448260D0E902325B
:102270001A44C260027F012A02D10022C2600277A2
:1022800010BD7CB505460E46144600200DE034F81E
:102290001010C1F307210DF8101014F810204100A0
:1022A000491C0DF80120411C88B20428EFDB0823EB
:1022B0006A463146284600F001F87CBD2DE9F04120
:1022C00088B006460C4617461D460294002003902F
:1022D00004900590069501AB3A4602A9304600F0FD
:1022E000FEFA8046B8F1000F04D104484089401C32
:1022F0000249488108B0BDE8F08100005453002035
:102300004A780B7842EA032200EE102AB8EEC00A9F
:1023100080ED080A90ED080A704730B503464FF685
:10232000FF728C7804F080043CB114048D7844EA88
:102330000524CD7844EA050003E0CC788D7844EAA2
:10234000052000EE100AB8EEC00A30BD10B52DED24
:102350000A8BB548D0ED0B1AB0EE611AD0ED0A1A0F
:10236000F0EE610AB148D0ED051AB0EE610AB0484E
:1023700003F0B6FAAC48D0ED0B0AB0EE600AAD48F7
:1023800000F074FAB0EE40AA1AEE100A09F064FDEB
:1023900041EC1C0BB0EE4C0AF0EE6C0A06F082FC2D
:1023A000B0EE40BAF0EE60BA9FEDA30B53EC102BE9
:1023B00051EC1B0B09F064FB03D89FEDA10AB0EEB2
:1023C00040AA9B4890ED260A9E48D0ED0A0A30EEBE
:1023D000200A30EE0A0ABDEEC00A10EE100A00B262
:1023E000994908809948D0ED0B1AB0EE611AD0EDEA
:1023F0000A1AF0EE610A8D48D0ED041AB0EE610AB7
:10240000934803F06DFA9148D0ED0B0AB0EE600AE4
:10241000904800F02BFAB0EE408A18EE100A09F04E
:102420001BFD41EC1C0BB0EE4C0AF0EE6C0A06F002
:1024300039FCB0EE40BAF0EE60BA9FED7F0B53EC82
:10244000102B51EC1B0B09F01BFB03D89FED7C0AF2
:10245000B0EE408A7E4890ED260A7A48D0ED090A0F
:1024600030EE200A30EE080ABDEEC00A10EE100A67
:1024700000B275494880784890ED0B1AF0EE410A99
:102480006A4890ED061AB0EE410A744803F062F90A
:102490007148D0ED0B0AB0EE600A714800F0E6F921
:1024A000F0EE408A18EE900A09F0D6FC41EC1C0BC5
:1024B000B0EE4C0AF0EE6C0A06F0F4FBB0EE40BA57
:1024C000F0EE60BA9FED5C0B53EC102B51EC1B0B44
:1024D00009F0D6FA03D89FED5A0AF0EE408A5F4819
:1024E00090ED080A30EE280ABDEEC00A10EE100A80
:1024F00000B2554988805B48D0ED0B1AB0EE611AE6
:10250000D0ED0A1AF0EE610A4848D0ED001AB0EE9C
:10251000610A554803F0E4F95248D0ED0B0AB0EED9
:10252000600A524800F0A2F9B0EE409A19EE100A83
:1025300009F092FC41EC1C0BB0EE4C0AF0EE6C0A78
:1025400006F0B0FBB0EE40BAF0EE60BA9FED3A0B89
:1025500053EC102B51EC1B0B09F092FA03D89FEDB2
:10256000380AB0EE409A404890ED260A4048D0ED37
:102570000B0A30EE200A30EE090ABDEEC00A10EE5A
:10258000100A00B23049C8803A4890ED0B1AF0EEBC
:10259000410A264890ED071AB0EE410A364803F08A
:1025A000D9F83548D0ED000AB0EE600A334800F0A3
:1025B0005DF9F0EE409A19EE900A09F04DFC41ECFD
:1025C0001C0BB0EE4C0AF0EE6C0A06F06BFBB0EEA2
:1025D00040BAF0EE60BA9FED180B53EC102B51ECA3
:1025E0001B0B09F04DFA03D89FED150AF0EE409A47
:1025F000214890ED080A30EE290ABDEEC00A10EE1F
:10260000100A00B21E4908800F4A4FF400711D489D
:10261000FFF737FE1A4A40F2FF111A48FFF731FE62
:10262000BDEC0A8B10BD00007C030020CC530020C1
:1026300014050020700700200000000000C0724058
:102640000000000034070020DC00002028030020E8
:102650007804002064070020D0030020B00500208B
:102660007C07002094010020E8010020DC07002006
:1026700094070020240400204C0600208807002036
:10268000E40000208C08002010B5024801F034F866
:1026900010BD00006C09002010B5024801F02CF8B4
:1026A00010BD0000CC09002001460878103818231E
:1026B000B0FBF3F20848805CC865032A05D90868B6
:1026C0006FF30900001D886503E008686FF30900D7
:1026D0008865886D7047000094C00008014600209E
:1026E0008A6A8B69CBB932B1012A0DD0022A03D094
:1026F000032A10D10EE000BFCB6A03F08073B3F160
:10270000807F00D1012007E0CB6AB3F1C07F00D108
:10271000012001E000E000BF34E08B69B3F5005F09
:102720001AD132B1012A07D0022A03D0032A11D1CB
:102730000AE000BF01200EE0CB6A03F08073B3F122
:10274000807F00D1012006E0CB6AB3F1C07F00D1C9
:10275000012000E000BF15E032B1012A05D0022AB5
:1027600004D0032A0CD103E000BF00BF012008E021
:10277000CB6A03F08073B3F1807F00D1012000E0C9
:1027800000BF00BF704730B50468246824F480247B
:1027900005682C60046863608468402C04D1046878
:1027A000A2600468E16003E00468A1600468E2607C
:1027B00030BD00002DE9F04188B006460C461746B2
:1027C0001D4602940020039004900590069501ABED
:1027D0003A4602A9304600F082F88046B8F1000F70
:1027E00004D10448C089401C0249C88108B0BDE832
:1027F000F0810000545300201CB5FF208DF800002C
:102800008DF801008DF802008DF803008DF80400AA
:102810008DF805008DF80600FC208DF807000823D0
:102820006A4601210148FFF7C5FF1CBD8C08002046
:10283000704772B600BFFEE7014671EE602AF0EE07
:10284000621AB0EE602A30EE423A01208840401E03
:1028500002EE900AF8EEE22A63EE222A82EEA13A14
:10286000FCEEC32A12EE900A70470000F0EE400A18
:10287000B0EEE00A90ED021AB4EEC10AF1EE10FAE1
:1028800002D29FED0B0A704790ED000AF5EEC00AE8
:10289000F1EE10FA02DDB7EE001A01E0BFEE001A09
:1028A00020EE010A90ED011A01EE200AEBE700008C
:1028B0000000000010B5024692F82030012B01D034
:1028C000022B06D11068406908431468606100203B
:1028D00010BD506A40F4802050620120F8E7F0B546
:1028E00004460D461E4694F8207020688368A86848
:1028F00000B900E000BF012F01D0022F7DD103F00D
:10290000806030B903F0006018B903F080500028EF
:102910007ED0C3F30161012088403060A86860B9AF
:10292000B5F800C0E86840EA4C5C206800F5C0706B
:1029300000EB0110C0F800C00FE0D5E901C040EA8B
:10294000CC00D5F80CC040EA0C00D4F800C00CF55F
:10295000C07C0CEB011CCCF80000D5F810C020683E
:1029600000F5C07000EB0110C0F804C0287D0128FC
:102970000ED1206800F5C07000EB0110406840F4F3
:10298000807C206800F5C07000EB0110C0F804C026
:10299000D079000692F806C040EA0C4092F805C0D3
:1029A00040EA0C2092F804C040EA0C00D4F800C0C1
:1029B0000CF5C07C0CEB011CCCF80C00D0780006A8
:1029C00092F802C040EA0C4092F801C040EA0C20A4
:1029D00092F800C040EA0C00D4F800C00CF5C07CAE
:1029E0000CEB011CCCF80800206800F5C07000EB6F
:1029F0000110006840F0010C01E00FE008E02068E1
:102A000000F5C07000EB0110C0F800C00020F0BD60
:102A1000606A40F4001060620120F8E7606A40F4E8
:102A2000802060620120F2E7F0B504460A4694F87F
:102A30002050012D01D0022D7ED1424901F50071B7
:102A4000086840F001000860086820F47C500860C5
:102A50000868566A40EA06200860107D00F01F06EC
:102A6000012000FA06F3C8699843C861A1F5007116
:102A7000D069C8B9D1F80C029843C1F80C0290880B
:102A800080B2968940EA064601F51070576940F811
:102A90003760108880B2168940EA064601F510704A
:102AA000576900EBC7004660D069012819D1D1F8F9
:102AB0000C021843C1F80C02908880B2168840EAD4
:102AC000064601F51070576940F83760908980B26A
:102AD000168940EA064601F51070576900EBC700F9
:102AE0004660906928B9D1F804029843C1F80402FD
:102AF00004E0D1F804021843C1F80402106928B9AF
:102B0000D1F814029843C1F8140204E0D1F8140279
:102B10001843C1F81402106A012804D1D1F81C022C
:102B20001843C1F81C02D1F8000220F00100C1F8DE
:102B300000020020F0BDFFE7606A40F48020606280
:102B40000120F7E700640040704770B5044694F830
:102B50002050012D01D0022D7DD151B92068C068CF
:102B600000F0030080B9606A40F400106062012048
:102B700070BD2068006900F0030028B9606A40F465
:102B8000001060620120F3E7206800F5D87000EBC8
:102B90000110006800F004009060906840B920685F
:102BA00000F5D87000EB01100068400D106007E0E0
:102BB000206800F5D87000EB01100068C008506074
:102BC000206800F5D87000EB0110006800F00200EA
:102BD000D060206800F5D87000EB0110406800F06C
:102BE0000F00082802D30820106108E0206800F5D3
:102BF000D87000EB0110406800F00F0010612068F1
:102C000000F5D87000EB0110406800F47F40000A26
:102C10009061206800F5D87000EB01104068000C4E
:102C20005061206800F5D87000EB011080681870C2
:102C3000206800F5D87000EB0110806800F47F4038
:102C4000000A5870206800F5D87000EB0110806809
:102C500000F47F0000E03CE0000C9870206800F574
:102C6000D87000EB01108068000ED870206800F565
:102C7000D87000EB0110C0681871206800F5D8709A
:102C800000EB0110C06800F47F40000A5871206812
:102C900000F5D87000EB0110C06800F47F00000C54
:102CA0009871206800F5D87000EB0110C068000E24
:102CB000D87131B92068C06840F020002668F06003
:102CC00005E02068006940F020002668306100209F
:102CD0004EE7606A40F480206062012048E72DE9F9
:102CE000F05F04460025206846692068D0F804900B
:102CF000206887682068D0F80CA02068D0F810B051
:102D00002068D0F8188006F00100002855D007F0A0
:102D10000100C0B101202168886007F0020018B1ED
:102D2000204600F078FC0EE007F0040010B145F4F6
:102D3000006508E007F0080010B145F4805502E096
:102D4000204600F067FC07F48070C8B14FF4807033
:102D50002168886007F4007018B1204600F05DFC1F
:102D60000EE007F4806010B145F4005508E007F468
:102D7000006010B145F4804502E0204600F04CFCB4
:102D800007F48030C8B14FF480302168886007F4C0
:102D9000003018B1204600F042FC0EE007F480201D
:102DA00010B145F4004508E007F4002010B145F4E7
:102DB000803502E0204600F031FC06F0080038B112
:102DC0000AF0100020B145F4007510202168C86099
:102DD00006F0040040B10AF0080028B1082021687C
:102DE000C860204600F00CFA06F0020038B12068F6
:102DF000C06800F0030010B1204600F003FA06F0AE
:102E0000400038B10BF0100020B145F4806510206F
:102E10002168086106F0200040B10BF0080028B1DD
:102E2000082021680861204600F0C2FB06F010006F
:102E300038B12068006900F0030010B1204600F0AE
:102E4000B8FB06F4003040B109F0100028B11020A2
:102E500021684860204600F0ADFB06F4803040B1A8
:102E600009F0080028B1082021684860204600F0D9
:102E7000D7FB06F4004088B309F0040078B306F4E9
:102E8000807020B108F0010008B145F0010506F49A
:102E9000007020B108F0020008B145F0020506F408
:102EA000806020B108F0040008B145F0040506F484
:102EB0000060A0B108F0700088B108F070004028F0
:102EC00017D006DC10280BD020280CD0302819D1C0
:102ED0000CE0502810D0602814D110E01DE019E05B
:102EE00045F008050FE045F010050CE045F0200521
:102EF00009E045F0400506E045F0800503E045F4B3
:102F0000807500E000BF00BF2068806920F070007D
:102F1000216888610420216848602DB1606A2843D7
:102F200060622046FFF710FEBDE8F09F70B50446D2
:102F30000CB9012070BD94F8200010B9204600F0B3
:102F4000AFF82068006840F001002168086000F0D8
:102F5000ADFE05460DE000F0A9FE401B0A2808D989
:102F6000606A40F400306062052084F8200001208F
:102F7000E0E72068406800F001000028EBD02068FE
:102F8000006820F002002168086000F08FFE05460E
:102F90000DE000F08BFE401B0A2808D9606A40F45F
:102FA00000306062052084F820000120C2E720681C
:102FB000406800F002000028EBD1207E012806D1F5
:102FC0002068006840F080002168086005E0206803
:102FD000006820F0800021680860607E012806D12A
:102FE0002068006840F040002168086005E0206823
:102FF000006820F0400021680860A07E012806D10A
:103000002068006840F020002168086005E0206822
:10301000006820F0200021680860E07E012806D1C9
:103020002068006820F010002168086005E0206832
:10303000006840F0100021680860207F012806D158
:103040002068006840F008002168086005E02068FA
:10305000006820F0080021680860607F012806D120
:103060002068006840F004002168086005E02068DE
:10307000006820F0040021680860D4E902010843D8
:1030800021690843616908436168491E0843216852
:10309000C86100206062012084F82000002049E718
:1030A00010B586B00446142101A8FDF734FA4F4943
:1030B0002068884242D14E480068401C4C49086054
:1030C0000846006801280FD100BF00200090494841
:1030D000006840F00070474908600846006800F04A
:1030E0000070009000BF00BF00BF0020009041486A
:1030F0001038006840F002003E4910390860084668
:10310000006800F00200009000BF00BF4FF4407064
:1031100001900220029000200390032004900920D7
:10312000059001A9344800F0C7FC002205211420B5
:1031300000F084FE142000F06DFE54E02F4920685A
:10314000884250D100BF002000902A48006840F01B
:103150008060284908600846006800F080600090A0
:1031600000BF00BF22480068401C21490860084693
:10317000006801280FD100BF002000901D480068A2
:1031800040F000701B4908600846006800F00070BD
:10319000009000BF00BF00BF00200090154810380D
:1031A000006840F0020013491039086008460068C2
:1031B00000F00200009000BF00BF602001900220DC
:1031C000029000200390032004900920059001A99B
:1031D000094800F071FC00220521402000F02EFE7D
:1031E000402000F017FE06B010BD00000064004053
:1031F00018000020403802400004024000680040EF
:103200007047000010B588B00446D649206888424F
:103210007ED1D54B01AA00212046FFF796FCD3486A
:103220008088401CD14988800198A0F2012005289F
:103230006FD2DFE800F0033A74ABEA00CA49CC4829
:10324000FFF75EF8CA4880ED080AC74901A8FFF7F2
:1032500064F8C74880ED090A90ED080ABCEEC00A80
:1032600010EE101AFEF7E2FFC14890ED030AB8EE27
:10327000C00ADFEDC00A80EE201A9FEDBF0A21EEE2
:10328000000ADFEDBE0A80EE201A80ED0A1A90EDEA
:10329000090ADFEDBA0A80EE201A80ED0B1AB34856
:1032A000408B401CB1494883E7E0AF49B448FFF781
:1032B00027F8B34880ED080AAB4901A8FFF72DF8BD
:1032C000AF4880ED090A90ED080ABCEEC00A10EE86
:1032D000101AFEF7ABFFAA4890ED030AB8EEC00A39
:1032E000DFEDA40A80EE201A9FEDA30A21EE000A6A
:1032F000F3EE030A80EE201A80ED0A1A90ED090A17
:10330000F3EE030A80EE201A80ED0B1A974801E0D5
:10331000B5E0B1E0C08A401C9449C882ADE0924952
:103320009848FEF7EDFF974880ED080A8E4901A8FE
:10333000FEF7F3FF934880ED090A90ED080ABCEE12
:10334000C00A10EE101AFEF771FF8E4890ED030AC6
:10335000B8EEC00ADFED870A80EE201A9FED860ADC
:1033600021EE000ADFED880A80EE201A80ED0A1AAD
:1033700090ED090ADFED840A80EE201A80ED0B1A29
:103380007A48C08C401C7949C88476E076497F48E9
:10339000FEF7B6FF7D4880ED080A734901A8FEF7E5
:1033A000BCFF7A4880ED090A90ED080ABCEEC00A1D
:1033B00010EE101AFEF73AFF744890ED030AB8EECB
:1033C000C00ADFED6C0A80EE201A9FED6B0A61EEF9
:1033D000000AB3EE031A80EE810ADFED6D0A80EE7B
:1033E000201A80ED0A1AD0ED090AB3EE031A80EE16
:1033F000810ADFED670A80EE201A80ED0B1A5B4828
:10340000C08B401C5949C88337E057496148FEF7D3
:1034100077FF604880ED080A534901A8FEF77DFF59
:103420005C4880ED090A90ED080ABCEEC00A10EE77
:10343000101AFEF7FBFE574890ED030AF8EEC00A9B
:103440009FED4C1A80EE810ADFED4B0A20EE200A38
:10345000DFED4A0A80EE201A80ED0A1A90ED090A83
:10346000DFED460A80EE201A80ED0B1A3F48408CB3
:10347000401C3E49488400E000BF00BF00BF4649F1
:10348000206888426CD1454B01AA00212046FFF7F5
:103490005CFB3648C088401C81B23448C18001982A
:1034A000522831D008DC31280FD0322825D03328DB
:1034B0003BD0512851D10FE053283DD0912812D054
:1034C000922828D0932848D13DE03448007810B99C
:1034D00000203349087041E03048007810B90120DD
:1034E0002F4908703AE02F492C4805F0A7F81F48EB
:1034F000C08D401C1D49C88530E02848007810B9AF
:1035000000202749487029E02448007810B901209C
:103510002349487022E02449204805F08FF81348D9
:10352000408E401C1149488618E01C48007810B9AC
:1035300000201B49887011E01848007810B901205C
:10354000174988700AE01949144805F077F80748C8
:10355000408D401C0549488500E000BF00BF00BF0A
:1035600008B010BD00640040CC000020545300207F
:103570007C030020000000460000B443000010421D
:1035800028030020D003002000004C4294010020BA
:1035900034F40B402404002000680040D4000020D4
:1035A0009001002008540020EC53002024540020F7
:1035B00070477047704770B5044694F820000128A2
:1035C00022D1022084F820002068006820F0010049
:1035D0002168086000F06AFB05460DE000F066FB1C
:1035E000401B0A2808D9606A40F400306062052058
:1035F00084F82000012070BD2068406800F00100C0
:103600000028EBD16062F6E7606A40F40020606257
:103610000120F0E770477047704770477047704768
:10362000704770B50446A56D00F040FB064694F85F
:103630003500022808D08020606500BF002084F893
:10364000340000BF012070BD2068006820F0160023
:10365000216808602068406920F080002168486186
:10366000206C08B9A06C28B12068006820F0080020
:10367000216808602068006820F001002168086067
:1036800010E000F013FB801B05280BD9202060659B
:10369000032084F8350000BF002084F8340000BF08
:1036A0000320D0E72068006800F001000028E8D17E
:1036B00094F85C103F208840A860012084F8350011
:1036C00000BF002084F8340000BF00BFBBE7014604
:1036D00091F83500022803D080204865012070470A
:1036E000052081F835000868006820F001000A68AC
:1036F00010600020F3E70000F8B5044600200090B9
:103700008C4800684FF41651B0FBF1F7A56D2E6898
:1037100094F85C1008208840304098B12068006818
:1037200000F0040070B12068006820F004002168F7
:10373000086094F85C1008208840A860606D40F034
:103740000100606594F85C1001208840304068B149
:103750002068406900F0800040B194F85C100120BE
:103760008840A860606D40F00200606594F85C10CD
:1037700004208840304068B12068006800F00200F2
:1037800040B194F85C1004208840A860606D40F05F
:103790000400606594F85C1010208840304078B3D5
:1037A0002068006800F0080050B394F85C10102006
:1037B0008840A8602068006800F4802080B12068FC
:1037C000006800F4002028B9206CC8B12046216CA4
:1037D000884715E0A06C98B12046A16C88470FE09F
:1037E0002068006800F4807028B92068006820F024
:1037F000080021680860206C10B12046216C8847C1
:1038000094F85C10202088403040002865D0206863
:10381000006800F0100000285FD094F85C102020B1
:103820008840A86094F83500052828D120680068F1
:1038300020F01600216808602068406920F08000B0
:1038400021684861206C08B9A06C28B12068006824
:1038500020F008002168086094F85C103F20884040
:10386000A860012084F8350000BF002084F83400EF
:1038700000BF206D10B12046216D8847F8BD20683B
:10388000006800F4802080B12068006800F4002007
:1038900028B9606C10B12046616C88471DE0E06B70
:1038A000D8B12046E16B884717E02068006800F433
:1038B000807068B92068006820F0100021680860F6
:1038C000012084F8350000BF002084F8340000BFD8
:1038D000E06B10B12046E16B8847606D38B3606DD6
:1038E00000F00100F0B1052084F835002068006880
:1038F00020F001002168086000BF0098401C009083
:10390000B84200D905E02068006800F001000028F6
:10391000F3D100BF012084F8350000BF002084F8F7
:10392000340000BFE06C10B12046E16C884700BF56
:10393000A4E70000280000202DE9F04104460025FE
:1039400000F0B4F9074614B90120BDE8F081606ABF
:1039500000B100BF022084F8350000BF002084F8C9
:10396000340000BF2068006820F001002168086072
:103970000AE000F09BF9C01B052805D920206065EE
:10398000032084F83500E0E72068006800F00100BB
:103990000028EED12068056821480540D4E90101DE
:1039A0000843E16808432169084361690843A16944
:1039B0000843E1690843216A08430543606A042813
:1039C00003D1D4E90B010843054320680560206852
:1039D000456925F00705606A0543606A04280DD132
:1039E000A06A0543E06A48B12046FEF777FE28B199
:1039F00040206065012084F83500A6E72068456115
:103A00002046FEF751FE064694F85C103F208840A1
:103A1000B06000206065012084F83500002094E744
:103A20003F8010F02DE9F04704460D4616461F462C
:103A30004FF00008D4F8589000BF94F834000128E3
:103A400002D10220BDE8F087012084F8340000BFD5
:103A500094F83500012825D1022084F83500002093
:103A600060653B46324629462046FEF78CFE94F8B8
:103A70005C103F208840C9F808002068006840F0CA
:103A8000160021680860206C28B12068006840F0AA
:103A90000800216808602068006840F00100216883
:103AA000086006E000BF002084F8340000BF4FF03B
:103AB00002084046C6E70000F8B502460B4600255E
:103AC000002400200021D6E0012606FA01F51E6838
:103AD00006EA0504AC4274D11E7906F00306012EF5
:103AE00004D01E7906F00306022E13D190684F0011
:103AF0000326BE40B0434F00DE68BE4030439060B6
:103B0000506801268E40B0431E79C6F300168E40E1
:103B1000304350601E7906F00306032E09D0D068AA
:103B20004F000326BE40B0434F009E68BE40304366
:103B3000D0601E7906F00306022E13D1CF0802F1E1
:103B4000200656F827004E07F70E0F26BE40B0435A
:103B50004F07FF0E1E69BE403043CF0802F120061A
:103B600046F8270010684F000326BE40B0431E7978
:103B700006F003064F00BE40304310605E6806F456
:103B80004036002E76D000BF002600963C4E3668A8
:103B900046F480463A4F3E603E46366806F480461C
:103BA000009600BF00BF374E8F0856F827008E07DB
:103BB000370F0F26BE40B043334EB24202D100262B
:103BC00024E057E0314EB24201D101261EE0304ED2
:103BD000B24201D1022619E02E4EB24201D1032693
:103BE00014E02D4EB24201D104260FE02B4EB2421A
:103BF00001D105260AE02A4EB24201D1062605E08F
:103C0000284EB24201D1072600E008268F073F0F59
:103C1000BE4030431B4E8F0846F82700224E3068C6
:103C2000A0435E6806F4801606B120431E4E306045
:103C3000361D3068A0435E6806F4001606B12043C6
:103C4000194E361D3060184E361F3068A0435E682E
:103C500006F4003606B12043134E361F3060361F7F
:103C60003068A0435E6806F4803606B120430E4EED
:103C7000083E3060491C1029FFF426AFF8BD000053
:103C8000443802400838014000000240000402406D
:103C900000080240000C02400010024000140240E4
:103CA00000180240001C0240083C01400148006826
:103CB000704700001C000020034800680349097891
:103CC00008440149086070471C00002024000020BF
:103CD00010B50D48006840F400700B4908600846B4
:103CE000006840F4806008600846006840F4807016
:103CF0000860032000F0E0F80F2000F007F800F063
:103D00005FF8002010BD0000003C02402DE9F041AA
:103D100088B004460027B84600BF00200190234821
:103D2000006840F01000214908600846006800F073
:103D30001000019000BF00BF02A903A800F092F993
:103D4000069F1FB900F0B6F9054602E000F0B2F98F
:103D500045001748B5FBF0F0A0F1010815481649D9
:103D6000086040F2E7311448C160C0F804800021C7
:103D700001618160816100F0BFFC064696B90E4882
:103D800000F012FD06466EB9362000F043F8102C04
:103D900007D200222146362000F050F80748046080
:103DA00000E00126304608B0BDE8F081403802400E
:103DB00040420F00001000402C0A0020200000208C
:103DC00008B500BF002000901148006840F4804012
:103DD0000F4908600846006800F48040009000BF6A
:103DE00000BF00BF00200090081F006840F0805016
:103DF000091F08600846006800F08050009000BF6E
:103E000000BF00220F21901E00F018F808BD00002E
:103E1000443802400146084600280DDB00BF00BFC1
:103E200000F01F0301229A4043099B0003F1E023A5
:103E3000C3F8002100BF00BF00BF70472DE9F05F4D
:103E400080460D461646002704F0B0FC074639466A
:103E50002A46334601F00700C0F1070ABAF1040F01
:103E600002D94FF0040A01E0C0F1070AD14600F17F
:103E7000040ABAF1070F02D24FF0000A01E0A0F1E4
:103E8000030AD4464FF0010A0AFA09FAAAF1010A14
:103E90000AEA020A0AFA0CFA4FF0010B0BFA0CFBC1
:103EA000ABF1010B0BEA030B4AEA0B042146404637
:103EB00004F084FCBDE8F09F00BF00F00702064B51
:103EC00019684FF6FF031940044B0B4343EA0221E4
:103ED000014B196000BF70470CED00E00000FA05CF
:103EE00070B504460D460CB9012070BD58480068F5
:103EF00000F00700A84209D255490D700846006835
:103F000000F00700A84201D00120EEE7207800F081
:103F1000020002281DD1207800F00400042805D1F9
:103F20004C48006840F4E0504A490860207800F0AE
:103F30000800082805D14748006840F4604045491A
:103F400008604448006820F0F000A1680843414937
:103F50000860207800F00100A8B36068012807D14C
:103F60003C4808380068C0F34040B8B90120BCE7BD
:103F70006068022802D06068032807D135480838F5
:103F80000068C0F3406048B90120AEE73148083806
:103F90000068C0F3400008B90120A6E72D4800687A
:103FA00020F00300616808432A490860FFF77EFE9D
:103FB000064609E0FFF77AFE801B41F2883188420D
:103FC00002D9032091E707E02248006800F00C00C6
:103FD0006168B0EB810FEDD11D48006800F007006B
:103FE000A84209D91A490D700846006800F0070078
:103FF000A84201D0012078E7207800F004000428CE
:1040000007D11448006820F4E050E16808431149E2
:104010000860207800F00800082808D10D480068E2
:1040200020F46040216940EAC1000A49086000F0BC
:1040300061F808490968C1F30311074A515CC84097
:104040000649086006480068FFF760FE00204CE75C
:10405000003C0240083802409CC0000828000020B4
:10406000200000200F2202600D4A126802F00302B5
:1040700042600B4A126802F0F0028260084A12683D
:1040800002F4E052C260064A126802F46042D208AA
:104090000261044A126802F007020A6070470000D9
:1040A00008380240003C02400148006870470000A8
:1040B0002800002000B5FFF7F7FF04490968C1F3A5
:1040C0008221034A515CC84000BD0000083802400C
:1040D000ACC0000800B5FFF7E7FF04490968C1F369
:1040E0004231034A515CC84000BD0000083802401C
:1040F000ACC000082DE9F047002400250026A146A9
:104100002548006800F00C0020B1042805D00828DC
:104110003AD105E0DFF8849039E0DFF8849036E0AA
:104120001D48001F006800F03F041B48001F006886
:1041300000F4800078B11A481749091F0968C1F3D3
:104140008811A0FB01700146224600233846FCF787
:104150000BF905460EE011480F49091F0968C1F324
:104160008811A0FB01700146224600233846FCF767
:10417000FBF805460848001F0068C0F30140401CDA
:104180004600B5FBF6F902E0DFF8109000BF00BF73
:104190004846BDE8F0870000083802400024F400DB
:1041A00000127A00F8B504460CB90120F8BD207859
:1041B00000F00100002874D0F948006800F00C00FD
:1041C00004280DD0F648006800F00C00082813D130
:1041D000F348001F006800F48000B0F5800F0BD199
:1041E000EF4808380068C0F34040002859D06068A4
:1041F000002856D10120D9E700BF6068B0F5803FA4
:1042000008D1E7480838006840F48030E4490839AC
:1042100008601EE06068B0F5A02F0DD1E0480838B6
:10422000006840F48020DE490839086008460068CC
:1042300040F4803008600CE0D9480838006820F469
:104240008030D749083908600846006820F480208B
:10425000086000BF606890B1FFF728FD054606E0E2
:10426000FFF724FD401B642801D903209EE7CC48BA
:1042700008380068C0F340400028F1D011E0FFF793
:1042800015FD054606E0FFF711FD401B642801D926
:1042900003208BE7C24808380068C0F3404000287C
:1042A000F1D1207800F0020002285FD1BC480068FC
:1042B00000F00C0058B1BA48006800F00C00082863
:1042C0001CD1B748001F006800F48000B0B9B448A2
:1042D00008380068C0F3400020B1E068012801D030
:1042E000012063E7AE480838006820F0F800216933
:1042F00040EAC100AA490839086037E0E06800B325
:104300000120A8490860FFF7D1FC054606E0FFF749
:10431000CDFC401B022801D9032047E7A0480838FC
:104320000068C0F340000028F1D09D4808380068BC
:1043300020F0F800216940EAC10099490839086075
:1043400014E0002097490860FFF7B0FC054606E03E
:10435000FFF7ACFC401B022801D9032026E7904858
:1043600008380068C0F340000028F1D1207800F040
:10437000080008282CD16069A8B101208A4908608A
:10438000FFF794FC054606E0FFF790FC401B02286F
:1043900001D903200AE782486C300068C0F340006E
:1043A0000028F1D014E000207F490860FFF77EFC70
:1043B000054606E0FFF77AFC401B022801D90320DE
:1043C000F4E677486C300068C0F340000028F1D173
:1043D000207800F00400042870D10027704838309D
:1043E000006800F0805090B900BF002000906C4839
:1043F0003830006840F0805069493831086008461C
:10440000006800F08050009000BF00BF012767489F
:10441000006800F48070B0B96448006840F48070AF
:1044200062490860FFF742FC054606E0FFF73EFCE4
:10443000401B022801D90320B8E65C48006800F45C
:1044400080700028F2D000BFA068012808D154482D
:104450006830006840F001005149683108601DE093
:10446000A06805280DD14E486830006840F004006F
:104470004B49683108600846006840F00100086058
:104480000CE047486830006820F00100444968317A
:1044900008600846006820F00400086000BFA068BB
:1044A000A8B1FFF703FC054609E0FFF7FFFB401B3F
:1044B00041F28831884202D9032077E626E0384865
:1044C00068300068C0F340000028EED013E0FFF72A
:1044D000EDFB054608E0FFF7E9FB401B41F28831A0
:1044E000884201D9032061E62D4868300068C0F396
:1044F00040000028EFD1012F07D12948383000684B
:1045000020F0805026493831086000BFA06900289B
:1045100045D02348006800F00C0008285DD0A06951
:10452000022845D100201F490866FFF7BFFB05465A
:1045300006E0FFF7BBFB401B022801D9032035E64C
:10454000174808380068C0F340600028F1D1D4E96A
:1045500007010843616A40EA81110122A06AC2EBA7
:10456000500041EA00412C20005D41EA00600C4906
:10457000091F086001200B490866FFF797FB0546F5
:1045800006E0FFF793FB401B022801D903200DE64C
:10459000034808380068C0F340600028F1D049E0C3
:1045A0000838024000004742800E47420070004039
:1045B000002021490866FFF779FB054606E0FFF772
:1045C00075FB401B022801D90320EFE51B4800685A
:1045D000C0F340600028F2D12CE0A069012800D18E
:1045E000E4E51648001D0668A069012820D006F4FD
:1045F0008001E06981421BD106F03F01206A8142BF
:1046000016D147F6C0703040616AB0EB811F0FD100
:1046100006F440310122A06AC2EB5000B1EB004F1A
:1046200006D106F070612C20005DB1EB006F01D067
:104630000120BBE50020B9E50000474200380240F8
:104640007047704730B502460B4600BF92F83C00F9
:10465000012801D1022030BD012082F83C0000BFBA
:10466000022082F83D00106844681068816824F0D8
:1046700070041868044310684460184D1068A8421C
:104680001BD01068B0F1804F17D0154D1068A842AC
:1046900013D0144D1068A8420FD0134D1068A842D3
:1046A0000BD0124D1068A84207D0114D1068A842D7
:1046B00003D0104D1068A84205D121F08001586840
:1046C000014310688160012082F83D0000BF002096
:1046D00082F83C0000BF00BFBDE7000000000140C1
:1046E0000004004000080040000C004000040140AD
:1046F000004001400018004010B504460CB90120EC
:1047000010BD94F83D0028B9002084F83C002046F4
:1047100000F026F8022084F83D00211D206801F0F9
:1047200069FE012084F8460000BF84F83E000121A4
:104730003F200155402001554120015500BF00BFD9
:10474000012084F8420043200155442001554520B2
:10475000015500BF012084F83D000020D0E7000093
:1047600038B504460E492068884217D100BF0020A2
:1047700000900C48006840F002000A4908600846B2
:10478000006800F00200009000BF00BF0022052179
:104790001D20FFF753FB1D20FFF73CFB38BD000039
:1047A0000004004040380240014691F83D000128D5
:1047B00001D001207047022081F83D000868C068E0
:1047C00040F001000B68D8601A4B086898421BD073
:1047D0000868B0F1804F17D0174B0868984213D083
:1047E000164B086898420FD0154B086898420BD0BA
:1047F000144B0868984207D0134B0868984203D0BE
:10480000124B086898420CD10868806800F00702D3
:10481000062A0CD00868006840F001000B68186098
:1048200005E00868006840F001000B68186000208F
:10483000C0E7000000000140000400400008004004
:10484000000C0040000401400040014000180040FE
:104850002DE9F04104460D46002700BF94F83C00C6
:10486000012802D10220BDE8F081012084F83C003B
:1048700000BF022084F83D002068866826F0770695
:1048800026F47F46206886602868502833D00CDCE8
:10489000202850D004DC00284BD0102851D149E00A
:1048A000302849D040284CD139E060282DD07028DC
:1048B00007D0B0F5805F03D0B0F5005F41D10DE0C7
:1048C00041E0D5E902136A68206801F003FE206820
:1048D000866846F077062068866034E0D5E90213E2
:1048E0006A68206801F0F6FD2068806840F4804026
:1048F0002168886027E0EA686968206801F0FEFDA9
:104900005021206801F0F1FD1DE0EA686968206827
:1049100001F007FE6021206801F0E7FD13E0EA687E
:104920006968206801F0EAFD4021206801F0DDFDA2
:1049300009E000BF00BF00BF2968206801F0D5FD75
:1049400001E0012700BF00BF012084F83D0000BF47
:10495000002084F83C0000BF384684E7704770B5FB
:1049600004462068C5682068066906F0020002282F
:1049700019D105F00200022815D1401F21680861F5
:10498000012020772068806900F0030018B12046DC
:10499000FFF7E4FF05E0204600F097F8204600F01E
:1049A00095F80020207706F00400042819D105F0BE
:1049B0000400042815D1C043216808610220207733
:1049C0002068806900F4407018B12046FFF7C6FFE8
:1049D00005E0204600F079F8204600F077F8002046
:1049E000207706F00800082819D105F008000828EB
:1049F00015D1C04321680861042020772068C06970
:104A000000F0030018B12046FFF7A8FF05E020469C
:104A100000F05BF8204600F059F80020207706F0FF
:104A20001000102819D105F01000102815D1C0432E
:104A300021680861082020772068C06900F4407070
:104A400018B12046FFF78AFF05E0204600F03DF848
:104A5000204600F03BF80020207706F0010048B126
:104A600005F0010030B16FF00100216808612046B7
:104A700000F02EF806F08000802809D105F08000B3
:104A8000802805D1C043216808612046FFF7D8FD82
:104A900006F04000402809D105F04000402805D12B
:104AA000C04321680861204600F0F6F806F02000B7
:104AB000202809D105F02000202805D1C043216815
:104AC00008612046FFF7BDFD70BD704770470000CC
:104AD00010B5044663492068884201D1FFF7ECF81D
:104AE00060492068884270D15F480078072804D068
:104AF0005E480068401C5D4908605D4890ED000A12
:104B0000DFED5C0A30EE200A80ED000A5A48D0F84A
:104B1000260000EE100ADFED570A30EE200A10EEF4
:104B2000100A5549C1F826005448D0F8260000EE76
:104B3000100ADFED500A30EE200A10EE100A4F493D
:104B4000C1F826004E48407801280DD14C48D0F8D5
:104B5000420000EE100ADFED470A30EE200A10EEA8
:104B6000100A4749C1F842004548407802280DD153
:104B70004348D0F83E0000EE100ADFED3E0A30EE6A
:104B8000200A10EE100A3E49C1F83E003D4909686E
:104B9000D9B1374991ED000ADFED3B0A20EE200A3A
:104BA000BCEEC00A10EE101A88B200EBD0714910AA
:104BB000A0EB410149B99FED350A2D4880ED000A6F
:104BC00001213048006804F03DFB314920688842EB
:104BD00047D1304840892F49088100204881084644
:104BE000408A0882002048820846C08E88860020BD
:104BF000C8860846C08D88850020C8850846408E36
:104C00000886002048860846C08B88830020C88319
:104C10000846408D08850020488508468088088021
:104C2000002088800846C088488000211948C1803B
:104C3000408F18490887002048870846C08C888420
:104C40000020C8840846C08A88820020C88208469E
:104C5000408B0883002048830846408C088400204D
:104C6000488410BD00100040CC0200206454002095
:104C7000540800206F12833AEA540020A454002004
:104C80000C080020140000200000FA44000000007E
:104C900000040040545300207047704770B504462C
:104CA000002520684069C0F3C01594F84100212810
:104CB00017D1B5B100BF00BF2168143151E8001F02
:104CC00021F080002168143141E80002002AF3D16C
:104CD00000BFA06B10B1A06BFEF7A3FC204602F052
:104CE00031FE20684069C0F3801594F84200222804
:104CF00017D1B5B100BF00BF2168143151E8001FC2
:104D000021F040002168143141E80002002AF3D16B
:104D100000BFE06B10B1E06BFEF783FC204602F0B1
:104D2000CBFD002070BD70472DE9F84F0446206888
:104D300005682068C668206847694FF00009CA46C0
:104D400005F00F09B9F1000F0AD105F0200038B1C4
:104D500006F0200020B1204602F007FEBDE8F88FE3
:104D6000B9F1000F7CD007F0010018B906F490707B
:104D7000002875D005F0010030B106F4807018B13C
:104D8000606C40F00100606405F0040030B107F091
:104D9000010018B1606C40F00200606405F0020090
:104DA00030B107F0010018B1606C40F0040060649D
:104DB00005F0080048B106F0200010B907F0010026
:104DC00018B1606C40F008006064606C002846D048
:104DD00005F0200028B106F0200010B1204602F0B6
:104DE000C4FD20684069C0F3801A606C00F00800C0
:104DF00010B9BAF1000F2DD0204602F05DFD2068F9
:104E0000406900F04000402820D100BF00BF216869
:104E1000143151E8001F21F040002168143141E8AD
:104E20000002002AF3D100BFE06B50B17F48E16B74
:104E30000865E06BFEF74BFC88B1E06B016D8847BD
:104E40000DE02046FFF76FFF09E009E02046FFF77D
:104E50006AFF04E02046FFF766FF002060647DE7FC
:104E6000206B012878D105F01000002874D006F0DE
:104E700010000028FAD000BF0020009020680068D1
:104E8000009020684068009000BF00BF2068406923
:104E900000F04000402870D1E06B006840681FFAC5
:104EA00080F8B8F1000F58D0A08D404555DDA4F82A
:104EB0002E80E06BC069B0F5807F43D000BF00BF9B
:104EC00021680C3151E8001F21F4807021680C31F9
:104ED00041E80002002AF3D100BF00BF00BF2168F3
:104EE000143151E8001F21F001002168143141E81C
:104EF0000002002AF3D100BF00BF00BF21681431B7
:104F000051E8001F21F040002168143141E80002FF
:104F1000002AF3D100BF202084F842000020206343
:104F200000BF00BF21680C3151E8001F21F01000C4
:104F300021680C3141E80002002AF3D100BFE06B88
:104F4000FEF76FFB02206063A08DE28D801A81B2B4
:104F50002046FFF7A2FE0EE052E0A08D40450AD1A8
:104F6000E06BC069B0F5807F05D102206063A18D40
:104F70002046FFF792FEF1E6FFE7A08DE18D401A93
:104F80001FFA80F8E08DD0B3B8F1000F37D000BF22
:104F900000BF21680C3151E8001F21F49070216896
:104FA0000C3141E80002002AF3D100BF00BF00BF6E
:104FB0002168143151E8001F21F0010021681431EB
:104FC00041E80002002AF3D100BF202084F842000B
:104FD0000020206300BF00BF21680C3151E8001F92
:104FE00021F0100021680C3141E80002002AF3D1C1
:104FF00000BF0220606341462046FFF74EFEADE64B
:1050000005F0800030B106F0800018B1204602F0B3
:10501000ADFEA3E605F0400030B106F0400018B147
:10502000204602F07FFC99E600BF97E6197700085A
:1050300010B504460CB9012010BDA06900B100E014
:1050400000BF94F8410028B9002084F840002046B1
:1050500000F02AF8242084F841002068C06820F479
:1050600000502168C860204602F0FEFC20680069FC
:1050700020F49040216808612068406920F02A00EF
:10508000216848612068C06840F400502168C86009
:1050900000206064202084F8410084F84200002051
:1050A000606300BFC8E7000010B586B00446142155
:1050B00001A8FBF730FA4049206888427AD100BF46
:1050C000002000903D48006840F010003B49086017
:1050D0000846006800F01000009000BF00BF00BF4D
:1050E0000020009035481438006840F00100334932
:1050F000143908600846006800F00100009000BF05
:1051000000BF4FF4C0600190022002900120039084
:10511000032004900720059001A92948FEF7CCFC44
:105120002848294908604FF000604860002126485F
:105130008160C1604FF48061016100214161816142
:10514000C1614FF44031016200214162FEF7F4FB7E
:1051500008B1FDF76EFB00BF1B48E063846300BF2E
:1051600018487830194908604FF0006048604021C5
:10517000164881600021C1604FF480610161002107
:1051800041618161C1614FF440310162002141629E
:10519000FEF7D2FB08B1FDF74CFB00BF0B48A06344
:1051A000846300BF002205212520FEF747FE25204D
:1051B000FEF730FE06B010BD00100140443802403A
:1051C00000000240406402406C090020CC0900202D
:1051D00070B504460D46164694F8420020280BD1BF
:1051E00005B10EB9012070BD00202063324629466A
:1051F000204602F04FFDF6E70220F4E770477047C3
:10520000F7B50446154694F8410020283ED1019890
:1052100000B10DB90120FEBD01982062A584E5848E
:1052200000206064212084F841001948A16BC86304
:105230001848A16B08641848A16BC8640020A16BD2
:10524000086501AE23681A1D31682B46A06BFEF776
:10525000E9FB30B110206064202084F84100012077
:10526000D9E76FF040002168086000BF00BF2168E7
:10527000143151E8001F41F080002168143141E8E9
:105280000002002AF3D100BF0020C4E70220C2E7D9
:1052900053780008AB7800082B77000870477047F8
:1052A00000BFFEE710B510481049086003204860B1
:1052B00000210E488160C1604FF4002101614FF46C
:1052C0004011416100210176012141760021817662
:1052D0000121C1760021017701214177FDF726FEEA
:1052E00008B1FDF7A6FA10BD006400408C0800204C
:1052F00010B51048104908600320486000210E488E
:105300008160C1604FF4002101614FF4401141619F
:105310000021017601214176002181760121C176AB
:10532000002101774177FDF701FE08B1FDF781FA11
:1053300010BD000000680040B408002008B500BFA0
:10534000002000900E48006840F480000C4908607E
:105350000846006800F48000009000BF00BF0022F3
:1053600005213A20FEF76AFD3A20FEF753FD0022A0
:1053700005214620FEF762FD4620FEF74BFD08BDE5
:105380003038024010B5154A0021154803F0F3FFEC
:1053900014490860144A0021144803F0ECFF144932
:1053A0000860144A0021144803F0E5FF134908601F
:1053B000134A0021134803F0DEFF13490860134A23
:1053C0000021134803F0D7FF12490860124A002158
:1053D000124803F0D0FF1249086010BDBCBF00089E
:1053E000E761000800000020E0BF000861620008DB
:1053F0000400002004C00008F1610008080000203B
:1054000028C00008156200080C0000204CC00008ED
:105410003D6200081000002070C00008856200088E
:105420001400002008B500BF002000901548006857
:1054300040F08000134908600846006800F08000D2
:10544000009000BF00BF00BF002000900846006829
:1054500040F0010008600846006800F0010000907C
:1054600000BF00BF00BF002000900846006840F069
:10547000020008600846006800F00200009000BFCB
:1054800000BF08BD3038024000B587B0002003904F
:105490000490059006900190029015481549086007
:1054A00042F2CF00486000211248816042F20F7141
:1054B000C160002101618161FFF71EF908B1FDF7AC
:1054C000B8F94FF48050039003A90A48FFF7C0F9D8
:1054D00008B1FDF7AEF900200190029001A905483E
:1054E000FFF7B0F808B1FDF7A4F907B000BD000060
:1054F00000040040DC08002010B50B480B49086090
:105500004FF461204860002108488160C16001615A
:105510000C21416100218161C161FFF789FD08B162
:10552000FDF787F910BD000000100140240900209C
:1055300000BFFEE710B56D48007830B900F028FDD7
:105540006B496C48FBF7DCFB27E0684800780128D2
:1055500023D1694890ED010A654880ED020A674849
:1055600090ED010A624880ED010A654890ED140A49
:105570005F4880ED000A634890ED010A5C4880EDC9
:10558000030A614890ED0A0A594880ED050A5F4810
:1055900090ED0A0A564880ED040AFBF783F8544858
:1055A000D0ED030AB0EE600A9FED591AF9EE040A35
:1055B000FCF71CFE4E4880ED030AD0ED020AB0EE67
:1055C000600A9FED541ADFED540AFCF70FFE4848BD
:1055D00080ED020AD0ED010AB0EE600A9FED4F1A8D
:1055E000FBEE0E0AFCF702FE414880ED010AD0ED09
:1055F000000AB0EE600A9FED491ADFED490AFCF798
:10560000F5FD3B4880ED000AD0ED060AB0EE600AD9
:105610009FED441ADFED440AFCF7E8FD344880EDC5
:10562000060AD0ED040AB0EE600A9FED401ADFEDE5
:10563000390AFCF7DBFD2E4880ED040AD0ED050A9F
:10564000B0EE600A9FED321ADFED390AFCF7CEFDAD
:10565000274880ED050A90ED020A364880ED000AE1
:10566000234890ED010AB1EE400A324880ED010A6C
:105670001F4890ED000A2F4880ED020A1C4890ED6B
:10568000040AB1EE400AF1EE000A80EE201A2A4820
:1056900080ED001A164890ED050AB1EE400AF0EED2
:1056A000000A80EE201A244880ED011A2148FBF7F9
:1056B00031FA214800F0AEF9FCF748FE1F48FBF72D
:1056C0000FF81F4908701D48801DFBF709F81C4999
:1056D000487009491B4802F04BFE08491A4802F07D
:1056E00047FE0849194802F043FE10BD6C0800202F
:1056F000CC530020EC00002008540020EC53002084
:10570000E8010020245400207C030020280300200E
:105710000000344300000000000016C30000B44243
:105720000000BEC200003445000034C5000007443C
:10573000000007C4940700203407002048530020CD
:10574000AC0000206001002048010020780100200A
:1057500000BFFEE710B52DED088B0446B0EE408A81
:10576000F0EE608A94ED020A84ED030A84ED008A6B
:10577000C4ED018A94ED000AD4ED010A30EE600A0E
:1057800084ED020A94ED120A10EE101A084606F093
:1057900063FB41EC190B94ED020A10EE101A084657
:1057A00006F05AFB41EC1B0BB0EE4B0AF0EE6B0A15
:1057B00003F078FAB0EE40AAF0EE60AA53EC192B91
:1057C00051EC1A0B06F022F803D89FED440A84ED41
:1057D000020AD4ED111AB0EE611AD4ED111AF1EEED
:1057E000611AF0EE610AD4ED021AB0EE610AFCF71C
:1057F000FDFC84ED020A94ED040AD4ED020A30EEB9
:10580000200A84ED040AD4ED0F1AB0EE611AD4ED2B
:105810000F1AF1EE611AF0EE610AD4ED041AB0EE3F
:10582000610AFCF7E3FC84ED040AD4ED051A94ED5B
:10583000022A61EE821AB0EE610AD4ED0E1AB0EEC1
:10584000611AD4ED0E1AF1EE611AF0EE610AFCF75E
:10585000CDFC84ED090A94ED060AD4ED040A20EE8D
:10586000200A84ED0A0AD4ED021A94ED032A71EE9F
:10587000C21A94ED072A61EE821AB0EE610AD4EDE5
:10588000101AB0EE611AD4ED101AF1EE611AF0EEB2
:10589000610AFCF7ABFC84ED0B0A94ED090AD4ED28
:1058A0000A0A30EE200AD4ED0B0A30EE200A84ED0D
:1058B000080AD4ED0D1AB0EE611AD4ED0D1AF1EE0E
:1058C000611AF0EE610AD4ED081AB0EE610AFCF735
:1058D0008DFC84ED080ABDEC088B10BD00000000B3
:1058E00010B52DED048B0446B0EE408AF0EE608AD0
:1058F000B0EE419A84ED138A84ED019AC4ED148AC6
:1059000094ED141AF0EE410A94ED131AB0EE410A28
:1059100004F14C00FFF71EFF94ED011AF0EE410A6E
:1059200094ED1B1AB0EE410A2046FFF713FF94EDE9
:10593000080A84ED260ABDEC048B10BD10B52DEDD0
:10594000028B2D48C06800EE100AB5EEC00AF1EED9
:1059500010FA23D12848006900EE100AB5EEC00AFB
:10596000F1EE10FA1AD12448406900EE100AB5EEA3
:10597000C00AF1EE10FA11D11F48806900EE100A3A
:10598000B5EEC00AF1EE10FA08D11B48C06900EE6E
:10599000100AB5EEC00AF1EE10FA0BD0174890EDE0
:1059A0000A0AB0EEC00ADFED160AB4EEE00AF1EE24
:1059B00010FA07DB9FED130A134880ED070ABDECD0
:1059C000028B10BD0C48006900EE100A0F48D0EDA4
:1059D000000A30EE208AF0EE480A9FED0A0A0C48D1
:1059E000FFF7B8FE0A4890ED080AB1EE400A0648F3
:1059F00080ED070A00BFE2E73055002024040020B4
:105A00000000B44200000000CC53002058080020E1
:105A1000E80600203EB5044694ED030AD4ED000AE2
:105A200030EE200A8DED000A94ED040AD4ED000A50
:105A300030EE200AD4ED010A30EE200A8DED010A85
:105A400094ED050AD4ED000A30EE200AD4ED010AE7
:105A500030EE200AD4ED020A30EE200A8DED020A63
:105A6000DDED020A9FED1B1A60EE810AB0EE600ABE
:105A700003F070F8D4ED080A20EE200A84ED0B0A3A
:105A8000DDED010A9FED131A60EE810AB0EE600AA7
:105A900003F060F8D4ED0B0A94ED071AB1EE411A49
:105AA00041EE000AC4ED0A0ADDED000A9FED091A75
:105AB00060EE810AB0EE600A03F04CF8D4ED0A0AF9
:105AC00094ED061AB1EE411A41EE000AC4ED090A3E
:105AD0003EBD000035FA8E3C10B52DED048BD0484C
