:020000040800F2
:10000000805600242D0400089F4A0008E54500089A
:100010009D4A00086B070008955D0008000000007D
:100020000000000000000000000000006D03000858
:10003000B307000800000000C9030008E14C0008F5
:100040004B0400084B0400084B0400084B04000854
:100050004B0400084B0400084B0400084B04000844
:100060004B0400084B0400084B0400084B04000834
:100070004B0400084B0400084B0400084B04000824
:100080004B0400084B0400084B040008090B00084F
:10009000150B00084B0400084B0400084B04000833
:1000A0004B0400084B0400084B0400084B040008F4
:1000B0004B0400084B0400084B0400084B040008E4
:1000C0004B0400084B0400084B0400084B040008D4
:1000D0004B040008655D0008715D00087D5D000847
:1000E0004B0400084B040008000000004B0400080B
:1000F0004B0400084B0400084B0400084B040008A4
:100100004B0400084B0400084B0400084B04000893
:100110004B0400084B0400086D4E00084B04000817
:100120004B0400084B0400084B0400084B04000873
:100130004B0400084B0400084B0400084B04000863
:1001400000000000000000000000000000000000AF
:100150004B0400084B0400084B040008895D0008AC
:100160004B0400084B0400084B0400084B04000833
:100170004B0400084B0400084B040008000000007A
:100180004B0400084B0400084B0400084B04000813
:100190004B0400084B0400084B0400084B04000803
:1001A0004B0400084B0400084B040008000000004A
:1001B0004B0400084B0400084B0400084B040008E3
:1001C0004B0400084B040008000000000000000081
:1001D00000000000000000004B04000800000000C8
:1001E000000000000000000000000000000000000F
:1001F00000000000000000004B0400084B04000851
:100200004B0400084B040008000000004B040008E9
:100210004B0400084B0400084B0400084B04000882
:100220004B040008000000004B0400080000000020
:100230004B0400084B040008000000004B040008B9
:100240004B0400084B0400084B0400084B04000852
:100250004B0400084B0400084B0400084B04000842
:100260004B0400084B0400084B0400084B04000832
:100270004B0400084B0400084B0400080000000079
:100280004B0400084B0400084B0400084B04000812
:10029000000000004B0400084B04000800000000B0
:1002A000000000004B0400084B0400084B04000849
:1002B0004B0400084B0400084B040008210B000805
:1002C0004B0400084B0400084B04000800F002F83F
:1002D00000F03CF80AA090E8000C82448344AAF1A4
:1002E0000107DA4501D100F031F8AFF2090EBAE8A2
:1002F0000F0013F0010F18BFFB1A43F0010318475A
:100300004875000068750000103A24BF78C878C1AD
:10031000FAD8520724BF30C830C144BF04680C600B
:10032000704700000023002400250026103A28BF53
:1003300078C1FBD8520728BF30C148BF0B60704757
:100340001FB507F0EBF91FBD10B510BD00F0D4F9D3
:100350001146FFF7F5FF05F0CBFD00F0F2F903B40D
:10036000FFF7F2FF03BC00F0F9F900002C4B19680D
:100370000868B0E8F04F80F30988BFF36F8F4FF043
:10038000000080F3118870470000000008480068F2
:10039000006880F308884FF0000080F3148862B68C
:1003A00061B6BFF34F8FBFF36F8F00DF00BF00BF99
:1003B00008ED00E0DFF80C00016841F47001016015
:1003C000704700BF88ED00E0EFF30980BFF36F8F47
:1003D000134B1A681EF0100F08BF20ED108A20E999
:1003E000F04F106009B44FF0500080F31188BFF354
:1003F0004F8FBFF36F8F06F05BFC4FF0000080F370
:10040000118809BC19680868B0E8F04F1EF0100F99
:1004100008BFB0EC108A80F30988BFF36F8F704774
:1004200064000024EFF30580704700000A4880470D
:100430000A4880470A480047FEE7FEE7FEE7FEE776
:10044000FEE7FEE7FEE7FEE7FEE7FEE705480649B2
:10045000064A074B70470000ED0A0008954D00085A
:10046000CD020008805000248056002480520024D1
:100470008052002453EA020C00F069802DE9F04B11
:100480004FF00006002B1FBFB3FA83F503FA05F403
:1004900024FA05F65E4012BF1643B2FA82F502FA5C
:1004A00005F4C5F120051EBF22FA05FC44EA0C0440
:1004B000203556EA044C4FEA144418BF641C4FF030
:1004C00000084FF00009904271EB030C39D300296A
:1004D00019BFB1FA81F701FA07F6B0FA80F700FA0E
:1004E00007F6C7F120071EBF20FA07FC46EA0C06F4
:1004F0002037B6FBF4FCA7EB0507103F07F01F0BF6
:10050000CBF120060CFA0BFB2CFA06F644BFB346DF
:100510000026202FA4BF5E464FF0000B5BEA060CBE
:1005200008BF4FF0010B19EB0B09ABFB027C48EB4A
:100530000608C01B06FB02CC0BFB03CC71EB0C01C5
:10054000C1E70B46024641464846BDE8F08B13B56D
:100550004FF000004FF00001AFF30080BDE81C40F9
:100560007047032A40F2308010F0030C00F0158031
:1005700011F8013BBCF1020F624498BF11F801CBA6
:1005800000F8013B38BF11F8013BA2F1040298BF0B
:1005900000F801CB38BF00F8013B11F0030300F075
:1005A0002580083AC0F0088051F8043B083A51F819
:1005B00004CBA0E80810F5E7121D5CBF51F8043B1E
:1005C00040F8043BAFF30080D20724BF11F8013B91
:1005D00011F801CB48BF11F8012B24BF00F8013BF3
:1005E00000F801CB48BF00F8012B704710B5203A46
:1005F000C0F00B80B1E81850203AA0E81850B1E8DC
:100600001850A0E81850BFF4F5AF5FEA027C24BF91
:10061000B1E81850A0E8185044BF18C918C0BDE888
:1006200010405FEA827C24BF51F8043B40F8043B51
:1006300008BF7047D20728BF31F8023B48BF11F806
:10064000012B28BF20F8023B48BF00F8012B704760
:1006500002F0FF0343EA032242EA024200F02CB810
:100660004FF0000200B5134694469646203922BF4B
:10067000A0E80C50A0E80C50B1F12001BFF4F7AF96
:10068000090728BFA0E80C5048BF0CC05DF804EB78
:10069000890028BF40F8042B08BF704748BF20F8E6
:1006A000022B11F0804F18BF00F8012B70477047E4
:1006B000704770474FF000020429C0F0128010F01C
:1006C000030C3FF4CFAFCCF1040CBCF1020F18BF08
:1006D00000F8012BA8BF20F8022BA1EB0C01FFF7BB
:1006E000C1BF5FEAC17C24BF00F8012B00F8012BD9
:1006F00048BF00F8012B7047754600F02BF8AE4656
:1007000005006946534620F00700854618B020B51D
:10071000FFF79CFEBDE820404FF000064FF00007B9
:100720004FF000084FF0000B21F00701AC46ACE899
:10073000C009ACE8C009ACE8C009ACE8C0098D4606
:10074000704710B50446AFF300802046BDE8104066
:10075000FFF705BE004870472050002401491820CB
:10076000ABBEFEE7260002007047FEE710B505F0BD
:1007700023FB05F055FBBDE8104005F085BB70B5C7
:100780008AB0154600240646CDE90243CDE900149F
:1007900004940594069407940894304601F0EEF80A
:1007A0000028FAD02A466946304600F093FF0AB086
:1007B00070BD704770B5A2B0064600244FF4C36008
:1007C00001258DF80F5002238DF81D4069038DF827
:1007D0000E5009948DF81F400D9020208DF8045084
:1007E0008DF8325042028DF8605006914FF0405122
:1007F0008DF8384002948DF861408DF81C408DF8DA
:1008000028408DF862408DF80C400B948DF81E50F6
:100810000F948DF8115012948DF840408DF83140AE
:100820008DF8124014948DF8564017903046169368
:100830008DF8205005928DF854408DF830408DF899
:100840001050009169468DF80D408DF85540119477
:100850008DF84C5000F074F81B9568058DF87140C8
:100860004FF406718DF8685019948DF880408DF81A
:1008700070401F908DF878401D9030468DF8814073
:10088000219119A900F002F822B070BDF0B50268FC
:1008900047F6020E274E4DF2010702F58052264D13
:1008A000D1F800C01368254C23EA0E0343EA0C0379
:1008B00013600B79026891F80CE002F58052D1F8D0
:1008C00008C01B0343EACE3343EA0C03D2F804C04A
:1008D0002CEA070C4CEA030CC2F804C002684F7BF8
:1008E00002F580520B6A43EA0747D2F800313340E1
:1008F0003B43C2F8003102680B7D02F5805291F84B
:100900001DC00F69D2F804611B0143EA0C332E406D
:100910003B431E43C2F8046100680B7F00F5805022
:100920008A69D0F8081142EAC37221401143C0F825
:100930000811F0BD00C0FEFFEFEFC0FFFFFFC07F5A
:10094000F0B50B790C7B0F688A68DB064D7B43EAB8
:10095000C4533A438E7B1A43CF7B91F810C042EACE
:10096000855242EA4652BCF1000F42EA07537CD05E
:1009700000224C7C002C43EAC24278D000238E7CBB
:100980000D7F42EA43428F7FD1E9053442EA0642B5
:100990004E7F1A43224342EA0532002F42EAC62420
:1009A00066D00022CD7F91F8203044EA8222002BCD
:1009B00042EA45227ED0002504684B6A42EA0522BD
:1009C00091F82870464D1A43CE6A236842EA07120E
:1009D00032432B401343236091F83C2091F8383088
:1009E00091F8305091F83140520642EA036291F892
:1009F000326042EA854242EA4444BEB300220368C0
:100A0000384E4F6B44EA02425C683A4340F20F159D
:100A1000344014435C60036891F840604C6CDA68C1
:100A200044EA0624AA432243DA6091F854300A6D5E
:100A300091F84C4042EA4302ECB300240368B1F859
:100A400048504FF60D76E7011C6F47EA05452A43EB
:100A5000344014431C67026891F8563091F85550A1
:100A600052F8904F43EA450303E02BE032E02BE0DD
:100A70002CE024F003041C43146002688C6DD2F84F
:100A8000003D23F072032343C2F8003D91F860203B
:100A9000CC6D1AB35FF00003026891F8615091F8D1
:100AA000621044EA8310D2F8303D2C0144EAC101BF
:100AB000084301E00CE00FE023F07B010143C2F8A2
:100AC000301DF0BD012254E7012358E7012269E7F8
:100AD000012571E7012292E70124AFE70123DBE75B
:100AE000838004000080F8C072B6FEE7054805491F
:100AF0000839026842F00202026008688004FCD5EE
:100B0000704700000C480258014800F03FBF000049
:100B1000CC010024014800F039BF00006C02002421
:100B2000014800F033BF00000C030024F0B5036857
:100B30004FF6FC716D4C426BD3F884508D4345EAFF
:100B40008205C3F88450036853F8845F068F25F448
:100B50007F0545EA06451D60836B654D9F18026859
:100B6000D2F888308B4343EA8703C2F888300268A2
:100B700052F8883F868F23F4FE0343EA064313604E
:100B8000066856F8A03FC26B8B4307EB420243EA6C
:100B900082033360076857F8A03FB0F8406023F441
:100BA000FE0343EA06433B60D0E9103603FB06220E
:100BB0000368D3F8B0608E4346EA8206C3F8B0609B
:100BC0000368B0F84860D3F8B07027F4FE0747EA2E
:100BD0000646C3F8B060D0E91267036806FB072237
:100BE000D3F8AC608E4346EA8206C3F8AC60D0E925
:100BF0001467036806FB0722D3F8F0608E4346EAC9
:100C00008206C3F8F0600368B0F85860D3F8F0705B
:100C100027F47C1747EA0646C3F8F0600368876D3F
:100C200053F8C06F02EB47028E4346EA8201196017
:100C30000168B0F85C20D1F8C03023F47C1343EA9B
:100C40000242C1F8C020016890F86020D1F8C0309D
:100C500023F07C5343EA0262C1F8C020416B04EBED
:100C60008101C166826B01EB82020267C36B02EBFA
:100C7000C3024267D0E91034634302EB8302826708
:100C8000D0E91234634302EB8302C267D0E9143423
:100C9000634302EB8302C0F88020836D02EBC30341
:100CA000C0F88430C46D826E544303EB8403C0F8F3
:100CB0008830046E544303EB8402C0F89020AA42AB
:100CC0000AD9D0F89C20032142F02002C0F89C20D1
:100CD00080F898100120F0BD002200E004C1D0F897
:100CE00090308B42FAD80020F0BD000000AC0040EC
:100CF000FCD30040F0B58E680C69D1E9005744EA96
:100D00000604DFB145F080452C43866ED1E906C567
:100D10004F695E4391F8203045EA0C05B1F80CC0EC
:100D2000D0F884E0002047EA03630C4F1D430EEB2C
:100D3000860345EA0C45E3E802450AE044EA8544B7
:100D4000E3E71418155C001DD4F8014045EA0424BB
:100D500010C3CC683C5D8442F3D8F0BD94770008A2
:100D60002DE9F84F044601F021FB00903CB194F8C6
:100D70003500022806D0802161650020E4E00120D2
:100D8000BDE8F88FC74DC74EC649183520683036C4
:100D9000DFF81483DFF814938842DFF814A3DFF838
:100DA00014B32ED0A8422CD0B0422AD0404528D02F
:100DB000484526D0504524D0584522D0BD4A183247
:100DC00090421ED0BC4A90421BD0BB4A183290427F
:100DD00017D0B94A3032904213D0B74A48329042C5
:100DE0000FD0B54A603290420BD0B34A783290426D
:100DF00007D0B14A9032904203D0AF4AA832904215
:100E000009D1026822F01E0202602068426922F0C5
:100E10008002426103E0026822F00E02026027684D
:100E20008F4238464DD0A8424BD0B04249D04045C1
:100E300047D0484545D0504543D0584541D09D4ABC
:100E4000183290423DD09C4A90423AD09A4A183289
:100E5000904236D0984A3032904232D0964A483248
:100E600090422ED0944A603290422AD0924A7832F0
:100E7000904226D0904A9032904222D08E4AA83298
:100E800090421ED08D4A90421BD08C4A1432904220
:100E900017D08A4A2832904213D0884A3C32904276
:100EA0000FD0864A503290420BD0844A643290422E
:100EB00007D0824A7832904203D0804A8C329742DF
:100EC00004D1206E026822F48072026075492068A5
:100ED000884228D0A84226D0B04224D0404522D013
:100EE000484520D050451ED058451CD07149183176
:100EF000884218D07049884215D06F49183188420D
:100F000011D06D49303188420DD06B49483188424B
:100F100009D069496031884205D0674978318842F3
:100F200001D065499031016821F0010101600EE0B6
:100F300001F03CFA0099401A052808D92022626580
:100F40000321002084F8351084F8340017E738684E
:100F5000C007EDD1534A0121206890422ED0A8420B
:100F60002CD0B0422AD0404528D0484526D0504504
:100F700024D0584522D04F4B183398421ED04E4BA8
:100F800098421BD04C4B1833984217D04A4B303301
:100F9000984213D0484B483398420FD0464B6033A9
:100FA00098420BD0444B7833984207D0424B903351
:100FB000984203D0404BA833984208D194F85C7013
:100FC0003F23A06D07F01F07BB40836007E094F844
:100FD0005C30A06D03F01F0301FA03F34360206847
:100FE00090424DD0A8424BD0B04249D0404547D066
:100FF000484545D0504543D0584541D02D4A183238
:1010000090423DD02C4A90423AD02B4A183290421E
:1010100036D0294A3032904232D0274A4832904264
:101020002ED0254A603290422AD0234A783290420C
:1010300026D0214A9032904222D01F4AA8329042B4
:101040001ED01E4A90421BD01C4A1432904217D028
:101050001A4A2832904213D0184A3C3290420FD09C
:10106000164A503290420BD0144A6432904207D054
:10107000124A7832904203D0104A8C3290420BD1FF
:10108000D4E919024260E06E30B1026822F4807245
:101090000260D4E91C024260002084F8351084F814
:1010A00034006DE61000024058000240700002401B
:1010B00088000240A0000240100402400854025878
:1010C0002DE9F05F28B190F83510022904D0802175
:1010D00041650120BDE8F09F904C904B0168183CA1
:1010E00018338E4ADFF83C92A1428D4CDFF838E28B
:1010F0008E4FDFF83CB2DFF83CA28F4D8F4E31D0DF
:1011000091422FD099422DD0A1422BD0494529D0D0
:10111000714527D0B94225D0DFF810C20CF1180C68
:1011200061451FD0DFF808C2ACF1600C614519D0F1
:10113000DFF8FCC1ACF1480C614513D0DFF8F0C119
:10114000ACF1300C61450DD0DFF8E4C1ACF1180C06
:10115000614507D0594505D0514503D0A94201D07A
:10116000B1422CD1DFF8B4C14FF0040880F83580CB
:10117000ACF1180C61451DD091421BD0994219D099
:10118000A14217D0494515D0714513D0B94211D0AD
:101190006648183081420DD065486038814209D0D8
:1011A00063484838814205D061483038814201D0D7
:1011B0005F481838086820F001000860ABE0D1F8FB
:1011C00000C02CF00E08DFF854C1C1F80080ACF16B
:1011D000180C0168614527D0914225D0994223D04F
:1011E000A14221D049451FD071451DD0B9421BD025
:1011F000DFF838C10CF1180C614515D0DFF830C1AB
:10120000ACF1600C61450FD0DFF824C1ACF1480CA3
:10121000614509D0DFF818C1ACF1300C614503D04D
:10122000DFF80CC1ACF1180CD1F800C02CF0010CA7
:10123000C1F800C0DFF8E4804FF0010C0168A8F1AC
:101240001808414546D0914244D0994242D0A1422B
:1012500040D049453ED071453CD0B9423AD0334A9E
:101260001832914236D0324A603A914232D0304AF6
:10127000483A91422ED02E4A303A91422AD02C4AF6
:10128000183A914226D0594524D0514522D0A9423E
:1012900020D0B1421ED02A4A91421BD0284A143293
:1012A000914217D0264A2832914213D0244A3C3228
:1012B00091420FD0224A503291420BD0204A6432E0
:1012C000914207D01E4A7832914203D01C4A8C3298
:1012D000914218D1016E0A6822F480720A6090F877
:1012E0005C20816D02F01F020CFA02F24A60D0E924
:1012F00019124A60C16E31B10A6822F480720A6024
:10130000D0E91C124A600022016D80F835C080F8D7
:10131000342001B188470020DCE6000028000240AC
:10132000580002407000024088000240A0000240C5
:101330007004024088040240A0040240B804024045
:1013400008540258F8B5040003D0D4F8840010B152
:1013500007E00120F8BD2020C4F88400204600F0FA
:10136000D7F86648016841F002010160006800F0AA
:1013700002000090207A08B14FF4000002F0DAFB7E
:101380005F492068096800F58050016841F001015B
:10139000016001F00BF8E02605464FF4FA7706E00D
:1013A00001F004F8401BB84201D9042023E0206872
:1013B00000F580500068C007F2D1204600F012F915
:1013C00002F042F84F4A2168B0FBF2F0401EC1F82B
:1013D000DC002046FFF7EEF9206800F58050D0F8D9
:1013E000001121F4E01141F40021C0F800116169FD
:1013F000880705D00120C4F88800C4F88460A8E7F5
:10140000206847F6FE7300F58050D0F808219A4313
:1014100042EA4101C0F8081100210846E26800EBE9
:10142000400504EB800302EBC5021160516091603E
:10143000D160401C04289A61F0D3A1620323206884
:1014400000F58050C0F82C312068E26800F580502B
:10145000C0F814212068E26800F58050C0F820210F
:101460005FF00002206902EB420604EB820500EB0C
:10147000C600016041608160C160521C0161042AA4
:101480004161A864EED3E1652166A166E166A165CC
:10149000206800F58050C0F830312068226900F5DE
:1014A0008050C0F81C212268206902F58052483023
:1014B000C2F828011025D4E90060134A134B808834
:1014C000C6F80003D4E900600778D0F8010047EAC5
:1014D0000020C6F804032068D0F80C671643C0F853
:1014E0000C672068D0F810271A43C0F81027C4F8FA
:1014F0008810C4F884500020F8BD0000F44402585D
:101500000404005840420F006000020C00C0200C90
:1015100070B586B0044614216846FFF7A1F82C493F
:101520002068884251D12B48016841F40041016094
:10153000016801F400410591016841F480310160C6
:10154000016801F480310591016841F400310160C6
:10155000006800F4003005901E480830016841F032
:1015600004010160016801F004010591016841F086
:1015700001010160016801F001010591016841F07C
:1015800002010160006802240025694600F00200A3
:10159000059032200B268DE831000F48CDE9034637
:1015A00000F0F6FD862069468DE831000B48CDE954
:1015B000034600F0EDFD4FF4605069468DE83100C0
:1015C0000748CDE9034600F0E3FD06B070BD00001A
:1015D00000800240D8440258000802580000025817
:1015E0000004025870B505460068D0F8000220F4E7
:1015F000706401F029FF1049884202D244F400745B
:1016000016E00E49884202D244F4407410E00C49BE
:1016100088420DD30B49884202D244F4807407E01B
:101620000949884202D244F4806401E044F4A06491
:101630002868C0F8004270BDC00E160200879303F0
:1016400000E1F50580D1F00880B2E60E10B590F803
:101650009830012B09D0022B07D0D0F89C1041F014
:101660000201C0F89C10012010BD03689C6D0C4263
:1016700003D1DC6D44F0010404E09C6D31EA040404
:101680001FD00324DC658B0505D50368D3F8E04043
:101690001443C3F8E0404B0505D50368D3F8E44094
:1016A0001443C3F8E4400068084A01EA0203446DA9
:1016B000074A1C434465106840EA9170106000209E
:1016C00010BDDC6D44F00204DCE70000FFFFCF3FFB
:1016D00014A8004070B5044690F89800022804D081
:1016E000D4F89C0040F008000DE02068D0F8C0302D
:1016F00013F07C5F0BD0D0F8C4309B020CD5D4F82B
:101700009C0040F40070C4F89C00012070BDD4F827
:101710009C0040F02000F6E7D0F8C400C0F3044578
:1017200020462B46FFF7E6FA21680120A840C1F8C1
:10173000D000C4F89400002070BD704770B590F8D8
:101740009820012A09D0022A07D0D0F89C1041F035
:101750000201C0F89C10012070BD0B68CA6883B1FB
:101760000B69072A43EA427325D00C7A4A6942EA98
:1017700084724968006F00EBC100C0E900320020AC
:1017800070BD072A0DD00C7AD6060D8A4B6943EA44
:10179000847246EA0543C06E49681A4340F8212026
:1017A000EDE70B8A4FF06055D1E9062442EA034287
:1017B00045EA0423EFE78A69DBE730B590F89850F3
:1017C000039C012D07D0D0F89C1041F00401C0F813
:1017D0009C10012030BD0D01016845EA820040EAFD
:1017E00043002043C1F88000002030BD704770479F
:1017F000F0B590F898500024022D04D0D0F89C1039
:1018000041F0080129E0402905D0412929D0056D82
:101810008D4219D942E00568D5F8A06016F4FE0F94
:1018200012D0D5F8A460760613D0D5F8A460F601DE
:1018300005D5D5F8A06016F0004F00D50124D5F8E5
:10184000A470466F456C24E0D0F89C1041F0200154
:1018500003E0D0F89C1041F48071C0F89C10012086
:10186000F0BD0568D5F8B06016F4FE0FECD0D5F8E1
:10187000B4607606EDD0D5F8B460F60105D5D5F89C
:10188000B06016F0004F00D50124D5F8B470866F13
:10189000C56CC7F305273C44654302E0456DC66F40
:1018A0004D4306EB85052E6816F0804656602E687F
:1018B00036D026F060461660D5F800C000262E4FC0
:1018C0000CF0005CC2F808C0D5F800C00CF0004C69
:1018D000C2F810C0B5F804C01FFA8CFCC2F81CC0D6
:1018E000D5F804C0CCF3034CC2F80CC0D5F804C042
:1018F0000CF4801CC2F814C0D5F804C00CF4001C11
:10190000C2F818C0D5F804C0CCF3066CC2F820C0E9
:10191000D5F804C008354FEADC7CC2F824C008E0E2
:10192000C6F38A46C7E700BF15F806C003F806C02D
:10193000761CD2F80CC017F80CC0B445F4D8402976
:101940000AD041290CD020294FF001020CD20068A6
:101950008A40C0F898200DE00068C0F8A84009E06F
:101960000068C0F8B84005E0006801F01F018A4037
:10197000C0F89C200020F0BD947700080068D0F8E3
:10198000C40000F03F007047704700002DE9FF5F82
:10199000DFF80CB304460BF10401DBF80000256806
:1019A0000F68AA468007D5F85090696DD5F8508029
:1019B0006E6D2A6DD5F854C02B6D00EA87700090CB
:1019C00009F470496F6D286D01EA09010191DAF897
:1019D0005410DAF85490DAF8505008F00F0806EA7C
:1019E0000806029602F0F00203F071536FEA09064E
:1019F0001F4000F060700CEA020CCDF80CC0F2053C
:101A000001EA00090CD4E843C00509D400214FF4D1
:101A10008073CAF85030CBF800102046FFF7B4FFAF
:101A2000700512D4E84340050FD4206800234FF41A
:101A30008068D0F8DC20D0F8E410C0F85080CBF8F3
:101A400000301140204600F09FFBDFF858A20098BC
:101A500050B12268830F00EA0A001065CBF800300D
:101A600020460099FFF769FE019850B12268830F64
:101A700000EA0A001065CBF800302046019900F01A
:101A800085FB029850B12268830F00EA0A001065B6
:101A9000CBF800302046029900F0FAFA039850B1D2
:101AA0002268830F00EA0A001065CBF80030204658
:101AB000039900F049FB30050CD4E843000509D434
:101AC000236800204FF400621A65CBF8000020461E
:101AD00000F05DFBB00512D4E84380050FD4206808
:101AE00000234FF40078D0F8D820D0F8E010C0F8E8
:101AF0005080CBF800301140204600F046FB300308
:101B00000CD4E843000309D4236800204FF40022DA
:101B10001A65CBF80000204600F0B8FAF0030CD4A8
:101B2000E843C00309D4236800204FF480321A65CB
:101B3000CBF80000204600F026FB70030CD4E843ED
:101B4000400309D4226800204FF480231365CBF8AA
:101B50000000204600F016FBB0030FD4E8438003DA
:101B60000CD4236800204FF400321A65CBF8000033
:101B7000D4F89C0040F08000C4F89C00B9F1000F3C
:101B80000BD022684FEA997309EA0A001065CBF876
:101B9000003049462046FFF72AFE5FB12268BB0F9E
:101BA00007EA0A001065CBF80030D4F89C003843EF
:101BB000C4F89C003C492068884268D1606881462E
:101BC0008068800763D0D9F82060D9F82410D9F84C
:101BD0002080D9F82400D9F820C0D9F82470D9F889
:101BE0002030D9F82450D9F8202003F4FC4306F023
:101BF0000F0AD9F824601D40D9F824B008F0300845
:101C00000CF4C07C02F4F02211EA0A0100EA080890
:101C100007EA0C0706EA0206D9F820A004D0C9F8A2
:101C20002010204600F0ABFAB8F1000005D0616842
:101C300008624146204600F0A4FA6FEA0B00400615
:101C40000ED46FEA0A0040060AD460684021C36BD4
:101C5000C26B01622046190C02F03F0200F090FABC
:101C60002FB1606807623946204600F087FA35B127
:101C700060680562D4F89C002843C4F89C0036B123
:101C800060680662D4F89C003043C4F89C00D4F825
:101C90009C00002802D02046FFF7A8FDBDE8FF9F6A
:101CA00010A80040FFFFCF3F00A000402DE9F04109
:101CB00094B08D494C2204466846FEF797FC64B107
:101CC0008A4D2068A84202D100F58070606094F8C7
:101CD00098004FF0000820B108E0012014B0BDE8E2
:101CE000F081204684F8998000F002F9206881692B
:101CF00021F01001816100F059FB0327064604E042
:101D000000F054FB801B0A2811D820688069000766
:101D1000F6D42068816941F00101816100F046FB41
:101D200006460DE000F042FB801B0A2808D9D4F8D3
:101D30009C0040F00100C4F89C0084F89870CCE747
:101D400020688069C007EDD02068816941F00201F8
:101D50008161207C01282068816937D041F04001F1
:101D60008161607C01282068816932D021F4804142
:101D70008161A07C0128206881692DD041F48051C7
:101D800081612068A268816921F4407111438161F9
:101D90002068816921F0A40181612068016921F036
:101DA00010010161E068012819D010B302281BD08E
:101DB0002068816941F0800181612068016941F0FA
:101DC00010010161E06803280ED012E021F040010B
:101DD000C6E741F48041CBE721F48051D0E7206889
:101DE000816941F0040103E02068816941F020012C
:101DF0008161207E6FF0FF02D4E90773A68A110289
:101E0000400602EB0727A0F10070384327685B1EED
:101E1000184301EB06463043F861A068B0F5407FF7
:101E200011D104F12800A68C6FF00F0C89C801EBCA
:101E30000641401E02EB0322104322680CEB0713FD
:101E400018430843D060206E30B12068626ED0F82D
:101E5000C0101143C0F8C010D4E917126846D1422F
:101E600009D02168A36E51F8C82F50F8233022F012
:101E700007021A430A60216C49B12168626C51F86B
:101E8000BC3F50F8226023F0070232430A60A16C85
:101E900051B12168E36C51F8BC2F50F8233022F087
:101EA000700242EA03120A60216D51B12168626D2D
:101EB00051F8BC3F50F8220023F4E06242EA0020CF
:101EC00008602068A84204D16068816821F003019D
:101ED0008160C4F894800121C4F89C8084F8981033
:101EE0002046FEF723FEF9E6A477000800A0004094
:101EF0002DE9F043B5B0804614212EA8FEF7B0FBC3
:101F0000B8216846FEF7ACFB594C0227594A00211C
:101F1000D8F800000C3C554E4FF00909544D904242
:101F200032D100208846BA031B91CDE900206846D3
:101F300000F090FC08B1FEF7D7FD3068401C30601F
:101F4000012807D1286840F480702860286800F4D0
:101F500080703390206840F00100206020684FF4CA
:101F6000C0522E922EA900F001003390CDE92F78B7
:101F70004148CDE9318900F00BF9002205211320F9
:101F800000F0B6FA132034E03C4A904236D10022E9
:101F900088464FF4004368461B91CDE9003200F0BB
:101FA00059FC08B1FEF7A0FD3068401C30600128E4
:101FB00007D1286840F480702860286800F4807099
:101FC0003390206840F002002060206860222E924A
:101FD0002EA900F002003390CDE92F782848CDE9F2
:101FE000318900F0D5F800220521142000F080FA94
:101FF000142000F06FFA35B0BDE8F083214A90421A
:10200000F9D1002288464FF4004368461B91CDE980
:10201000003200F01FFC08B1FEF766FD3068401C7E
:102020003060012807D1286840F480702860286853
:1020300000F480703390206840F008002060206831
:102040004FF440512E91052200F008003390CDE965
:102050002F780D482EA9CDE9318200F099F80022A1
:1020600005219F2000F044FA9F20C2E74C00002485
:10207000EC44025800A000400000025800A40040B8
:102080000004025800D40040000C025870470000C1
:1020900030B58DB00446C8071DD040216A460AAB52
:1020A0002046FFF7A5FB002815D1204D0AAA20687D
:1020B0001F49039BA84210D10098B0F5047F0AD1B4
:1020C0001C4C002002E0155C2554401C9842FAD3B9
:1020D000086A401C08620DB030BD174CA04210D1F8
:1020E0000098A0F50074113CF5D1144C002002E0DA
:1020F000155C2554401C9842FAD3886A401C8862BB
:10210000E9E70F4CA042E6D10098A0F50074123C1C
:10211000E1D10C4C002002E0155C2554401C984293
:10212000FAD3086B401C0863D5E7000000A000400C
:10213000B04F00240800002400A400401800002430
:1021400000D4004028000024704790F8981001291E
:1021500007D0D0F89C1041F00401C0F89C10012079
:102160007047022180F89810002201688B6923F0E3
:1021700001038B61C0F89C20104670477047704780
:102180007047704770477047704770477047704797
:102190002DE9F84F03247A4D00234FF001094FF049
:1021A000B04B4FF00F0AE4E009FA03F6324078D062
:1021B0000F7907F00307012F01D0022F1AD187688A
:1021C0004FEA430ED1F80CC004FA0EF827EA0807CC
:1021D0000CFA0EFC4CEA070CC0F808C0476891F8EE
:1021E00004C0B743CCF3001C0CFA03FC4CEA070C08
:1021F000C0F804C00E79F643B6070BD0C6684FEAA4
:1022000043088F6804FA08FC26EA0C0607FA08F768
:102210003743C7600E7906F00306022E12D1DE089E
:102220000F694FEA437C00EB8606B646366A4FEAF2
:10223000DC6C0AFA0CF807FA0CF726EA08063743B2
:10224000CEF820700F7906684FEA430807F00307BD
:1022500004FA08FC07FA08F726EA0C063743076079
:102260004E6816F4403F1CD0464E376847F00207D0
:10227000376036689F0706F00206009623F00306D3
:1022800006F1B046B6463F0FD6F80864DFF8F8808E
:102290000AFA07FC404526EA0C0603D14FF0000C71
:1022A0003AE065E0DFF8E4C0604502D14FF0010C90
:1022B00032E0DFF8DCC0604502D14FF0020C2BE0C9
:1022C000DFF8D0C0604502D14FF0030C24E0DFF806
:1022D000C8C0604502D14FF0040C1DE0DFF8BCC05F
:1022E000604502D14FF0050C16E0DFF8B4C0604540
:1022F00002D14FF0060C0FE0DFF8A8C0604502D114
:102300004FF0070C08E0DFF8A0C0604502D14FF0A5
:10231000090C01E04FF00A0C0CFA07FC4CEA060C21
:10232000CEF808C44F68DBF80060FF0226EA020618
:1023300000D516435F46CBF80060D1F804C0DBF847
:1023400004605FEA8C2C26EA020600D516437E6004
:102350006E684F6826EA0206BF0300D516436E601A
:102360002E684F6826EA0206FF0300D516432E604A
:102370005B1C0A6832FA03F67FF416AFBDE8F88FEB
:1023800080000058F444025800000258000402582B
:1023900000080258000C025800100258001402589D
:1023A00000180258001C0258002402580148806896
:1023B00070470000500000240248816802781144F0
:1023C0008160704750000024032010B500F0B0F881
:1023D00001F080F80F4A104914681368C4F303220F
:1023E00003F00F038A5CC95C02F01F0201F01F01B9
:1023F000D0400A4A20FA01F11160094908600F2013
:1024000000F010F808B1012010BD00F051F80020D4
:1024100010BD00001844025818780008600000241D
:102420005C00002410B5102804468AB02CD200228B
:102430000146362000F05CF8362000F04BF81748D3
:1024400004601748016841F010010160006809A9A3
:1024500000F010000890684600F0C8FF0598B0B181
:1024600001F014F840000F4900220F4CB0FBF1F1CD
:102470000E4840F2E7330460C0E90332491EC0E968
:10248000011201F064FB28B101200AB010BD00F078
:10249000FDFFE8E7054801F08DFBF6E75400002456
:1024A000E844025840420F0000100040900600240B
:1024B000074882B0016841F0020101600068002213
:1024C0000F2100F002000090901E02B000F010B842
:1024D000F4440258002809DB410900F01F0289007A
:1024E000012001F1E0219040C1F800017047000097
:1024F0000E4BF0B41B680D46C3F30223C3F107066D
:10250000042E00D90426191D072901D2002300E05A
:10251000DB1E012404FA06F19C40491E2940641E7A
:10252000994014402143F0BC03F035BC0CED00E0B1
:10253000064900F0070210B54FF6FF040868044B87
:10254000204040EA02201843086010BD0CED00E076
:102550000000FA05134970B50A68D243520705D541
:10256000096801F00701814213D118E00A6822F0DE
:10257000070202430A60FFF719FF0A4D4FF47A760B
:102580000446083D07E000BFFFF710FF001BB04204
:1025900001D9012070BD2868C0438004F4D4002014
:1025A00070BD00000C48025810B500F04DFF054901
:1025B0000968054AC1F30211515C01F01F01C840CE
:1025C00010BD00002044025818780008494930B571
:1025D000484C0B1D0A68143409681D68246802F011
:1025E0000303C5F30012C1F30531C4F3CC04002981
:1025F00014FB02F200EE102AF8EE400A75D03F4AB2
:102600009FED3D1AB7EE000A6BB1DFED3D1A012BCD
:1026100001D0022B64D002EE101A1168F8EE422AA3
:1026200081EEA22A21E0334C283C23689B0612D578
:10263000344B246801EE901A1168C4F3C104F8EE1B
:10264000612AE34001EE903AC1F30801F8EE611A05
:1026500081EEA22A0BE001EE901ADFED2B2A00BFDB
:10266000F8EE611A116882EEA12AC1F3080101EEA9
:10267000901A1168F8EE611A40EE811A71EE800A24
:1026800062EE200AC1F3462101EE101AB8EE411A9B
:1026900031EE001AC0EE811ABCEEE11A80ED001A8C
:1026A0001168C1F3064101EE101AB8EE411A31EE7D
:1026B000001AC0EE811ABCEEE11A80ED011A116811
:1026C000C1F3066101EE101AB8EE411A31EE000AAC
:1026D00080EE801ABCEEC10A80ED020A30BD04E033
:1026E00001EE901ADFED092ABAE70021016041608E
:1026F0008160F3E72844025800000039384402584A
:102700000024744A0090D0030024744C20BCBE4BBB
:10271000494930B5484C0B1D0A681C3409681D68CE
:10272000246802F00303C5F30022C1F30551C4F38A
:10273000CC04002914FB02F200EE102AF8EE400A45
:1027400075D03F4A9FED3D1AB7EE000A6BB1DFED41
:102750003D1A012B01D0022B64D002EE101A116831
:10276000F8EE422A81EEA22A21E0334C283C23686D
:102770009B0612D5344B246801EE901A1168C4F3FD
:10278000C104F8EE612AE34001EE903AC1F308017A
:10279000F8EE611A81EEA22A0BE001EE901ADFED4D
:1027A0002B2A00BFF8EE611A116882EEA12AC1F34C
:1027B000080101EE901A1168F8EE611A40EE811AD4
:1027C00071EE800A62EE200AC1F3462101EE101A72
:1027D000B8EE411A31EE001AC0EE811ABCEEE11AD1
:1027E00080ED001A1168C1F3064101EE101AB8EE2F
:1027F000411A31EE001AC0EE811ABCEEE11A80EDEA
:10280000011A1168C1F3066101EE101AB8EE411AFF
:1028100031EE000A80EE801ABCEEC10A80ED020A99
:1028200030BD04E001EE901ADFED092ABAE700217D
:10283000016041608160F3E72844025800000039DC
:10284000404402580024744A0090D0030024744C81
:1028500020BCBE4B2DE9FE4F0546DFF800A450F822
:10286000081B0024FD4FC943019005F128002646AE
:102870000AF1240A009008011DD4686E50B1B0F529
:10288000801F0CD0B0F5001F0ED0B0F5401F1ED039
:1028900001240FE0386840F40030386017E00198F8
:1028A000022102F0FDF803E00098022102F088F90D
:1028B00004000CD026462888C043C00523D4A86D48
:1028C00005281ED2DFE800F00C11161B1B006A6EF3
:1028D000DAF8001021F440111143CAF80010EAE7B9
:1028E000386840F40030386009E00198002102F0B7
:1028F000D7F803E00098002102F062F90446C4B161
:1029000000E0012426462888DFF85083C04308F100
:102910002C0840052FD4D5F8A400B0F5C00F28D05E
:1029200010DCB8B1B0F5001F19D0B0F5800F0FD191
:102930001AE0AA6DDAF8001021F007011143CAF875
:102940000010E0E7B0F5000F13D0B0F5200F10D065
:1029500001240FE0386840F40030386009E0019845
:10296000002102F09DF803E00098002102F028F910
:10297000044694B126462888C043000530D4D5F8D3
:10298000A800B0F1407F29D011DCC0B1B0F1807F48
:102990001AD0B0F1007F10D11BE0D5F8A420D8F8F0
:1029A000001021F460011143C8F80010E3E7B0F112
:1029B000806F13D0B0F1A06F10D001240FE0386801
:1029C00040F40030386009E00198002102F068F816
:1029D00003E00098002102F0F3F8044694B1264683
:1029E0002868DFF878B2C0430BF1200B80011FD4B8
:1029F000E86CD8B110280FD0202812D0302815D07C
:102A0000012414E0D5F8A820D8F8001021F0E061E6
:102A10001143C8F80010E3E7386840F4003038602C
:102A200004E00198022102F03BF8044674B1264606
:102A30002888C043C0042BD4E86DB0F5005F20D0D7
:102A40000DDCA0B1B0F5805F0FD115E0EA6CDBF8CA
:102A5000001021F030011143CBF80010E8E7B0F589
:102A6000405F13D0B0F5804F10D001240FE03868DC
:102A700040F40030386009E00198002102F010F8BD
:102A800003E00098002102F09BF804468CB1264632
:102A90002888C043800429D4286EB0F5403F23D055
:102AA00010DC08B3B0F5803F14D0B0F5003F0FD173
:102AB00015E0EA6DDAF8001021F4E0411143CAF89C
:102AC0000010E5E7B0F5802F0ED0B0F5A02F0BD0A9
:102AD00001240AE00198012101F0E2FF03E00098DF
:102AE000012102F06DF8044694B126462888C043BF
:102AF00040042AD4D5F8AC00B0F1405F23D010DCFC
:102B000008B3B0F1805F14D0B0F1005F0FD115E0D1
:102B10002A6EDAF8001021F4E0211143CAF80010FF
:102B2000E4E7B0F1804F0ED0B0F1A04F0BD00124FC
:102B30000AE00198012101F0B3FF03E000980121B0
:102B400002F03EF8044674B126462888C0430004CB
:102B50001FD4E86ED8B1B0F1805F0ED0B0F1005F45
:102B600010D0012414E0D5F8AC20D8F8001021F0E2
:102B7000E0411143C8F80010E7E7386840F400303E
:102B8000386004E00198012101F08AFF044674B125
:102B900026462868C043C0011ED4A86CD0B10128C5
:102BA0000ED0022811D0032814D0012413E0EA6EBD
:102BB000DAF8001021F040511143CAF80010E8E79C
:102BC000386840F40030386004E00198022101F0D8
:102BD00067FF04466CB126462868C043400255D4BE
:102BE0001F48016841F480710160FFF7DFFB8146F7
:102BF0000EE0AA6CDBF8001021F003011143CBF8C2
:102C00000010E9E7FFF7D2FBA0EB090064283BD8EE
:102C100013480068C005F5D5BCBBDFF84090B5F897
:102C2000B01009F14409D9F8000001F4407100F432
:102C30004070884211D0D9F80010D9F8002021F452
:102C4000407142F48032C9F80020D9F8002022F403
:102C50008032C9F80020C9F8001003E02C44025863
:102C600000480258D5F8B000B0F5807F19D1FFF7C1
:102C70009DFB029011E000BFFFF798FB0299411AFB
:102C800041F28830814208D9032426462878DFF8AB
:102C90001494C043C00721D03CE0D9F8000080075D
:102CA000EAD5D5F8B010C1F301200328FE480DD0B5
:102CB000016821F47C510160B5F8B020D9F800100A
:102CC000C2F30B021143C9F80010DFE7F74A0368AB
:102CD00002EA111223F47C511143ECE7A86F182883
:102CE00016D005DCA0B1082808D0102804D10AE0CD
:102CF00020280DD028280BD001240AE001980121BA
:102D000001F0CEFE03E00098012101F059FF0446D6
:102D100064B126462878C04380071ED4686F062811
:102D200019D2DFE800F0160C11161616AA6FD9F8A2
:102D3000001021F038011143C9F80010EAE70198AA
:102D4000012101F0ADFE03E00098012101F038FF00
:102D500004467CB100E0012426462878C0434007A1
:102D60001FD4D5F89000062819D2DFE800F0160C21
:102D7000111616166A6FD9F8001021F007011143D9
:102D8000C9F80010E9E70198012101F089FE03E08C
:102D90000098012101F014FF0446A4B100E00124D1
:102DA00026462878C04380062BD4D5F88C00B0F195
:102DB000405F24D011DC10B3B0F1805F15D0B0F1CA
:102DC000005F10D116E0D5F89020D8F8001021F05F
:102DD00007011143C8F80010E3E7B0F1804F0ED0AF
:102DE000B0F1A04F0BD001240AE00198002101F0BE
:102DF00057FE03E00098022101F0E2FE044694B180
:102E000026462878C04340062BD4D5F89800B0F564
:102E1000406F24D011DC10B3B0F5806F15D0B0F541
:102E2000006F10D116E0D5F88C20D9F8001021F0F1
:102E3000E0411143C9F80010E3E7B0F5805F0ED020
:102E4000B0F5A05F0BD001240AE00198002101F049
:102E500027FE03E00098022101F0B2FE044694B17F
:102E600026462878C04300062BD4D5F89C00B0F540
:102E7000C04F24D011DC10B3B0F5005F15D0B0F511
:102E8000804F10D116E0D5F89820D8F8001021F422
:102E9000E0511143C8F80010E3E7B0F5004F0ED041
:102EA000B0F5204F0BD001240AE00198002101F079
:102EB000F7FD03E00098022101F082FE044654B1C0
:102EC00026462878C04300071ED4D5F88000B0F508
:102ED000805F0AD00FE0D5F89C20D8F8001021F4CC
:102EE00060411143C8F80010EBE70098022101F09F
:102EF00067FE00B10126D5F88020D9F8001021F432
:102F000040511143C9F800102878C043C00613D4BB
:102F1000D5F89400B0F5807F05D10098022101F02A
:102F20004FFE00B10126D5F89420D8F8001021F406
:102F300040711143C8F800102868C043000316D43C
:102F4000D5F8A00038B1B0F5803F09D0B0F5003F0A
:102F50000BD001240AE00198002101F0A1FD03E05B
:102F60000098022101F02CFE04468CB12646286808
:102F7000C043400322D4D5F88400B0F5801F11D09F
:102F8000B0F5001F13D0B0F5401F15D0012414E098
:102F9000D5F8A020D8F8001021F440311143C8F82A
:102FA0000010E4E7386840F40030386004E000982E
:102FB000012101F005FE04465CB126462868C043A5
:102FC000C0031CD4286D70B1B0F5803F10D001242F
:102FD00014E0D5F88420D9F8001021F440111143F1
:102FE000C9F80010EAE7386840F40030386004E0BF
:102FF0000198022101F054FD0446DCB12646286800
:10300000C043800005D40098022101F0D9FD00B131
:1030100001262868C04380031BD4E86FB8B1B0F51F
:10302000807F10D0B0F5007F11D0B0F5407F0ED07A
:1030300001240DE02A6DDBF8001021F480311143EA
:10304000CBF80010DBE7386840F4003038607CB320
:1030500026462868C043C00207D42A6FDAF8001059
:1030600021F000411143CAF800102868C0438002D3
:1030700007D4AA6EDAF8001021F080711143CAF863
:1030800000102868C043400009D40748016821F4B3
:10309000004101600168D5F8B4201143016028683F
:1030A000C04306E05444025810440258CFFFFF00CA
:1030B0001DE007D46A6DDBF8001021F04051114388
:1030C000CBF800102868C043000208D4D5F8882047
:1030D000D9F8001021F440011143C9F800102879F3
:1030E0000024C04300F00100204309D00EE0EA6F45
:1030F000D9F8001021F440711143C9F80010A8E775
:103100000198002101F0CCFC00B106462879C043AB
:1031100000F00200204305D10198012101F0C0FC1C
:1031200000B106462879C04300F00400204305D1D1
:103130000198022101F0B4FC00B106462879C04391
:1031400000F00800204305D10098002101F038FD6F
:1031500000B106462879C04300F01000204305D195
:103160000098012101F02CFD00B106462879C043EA
:1031700000F02000044304D10098022101F020FD5A
:1031800000B916B10120BDE8FE8F0020FBE700006A
:103190002DE9F05F04000F467ED0DFF83882D8F8C2
:1031A000000000F00F00B8420CD2D8F8001021F057
:1031B0000F013943C8F80010D8F8000000F00F00E4
:1031C000B84269D12078844D40070AD52069296822
:1031D00001F07001884204D9296821F0700101438F
:1031E000296020787C4E361D00070AD56069316859
:1031F00001F07001884204D9316821F07001014367
:1032000031602078C0060AD5A069316801F4E06118
:10321000884204D9316821F4E061014331602078AB
:10322000DFF8B4B180060BF1080B0CD5E169584604
:10323000DBF8002002F07002914204D9026822F00B
:1032400070020A430260207880070AD5E068296886
:1032500001F00F01884204D9296821F00F010143D0
:1032600029602078C0073ED05B49A26828681839D9
:1032700020F47060104328606068022818D003288A
:1032800019D00968012819D0490700294ADADFF85E
:1032900048A1AAF1080A00E044E0DAF8002022F090
:1032A00007020243CAF80020FFF780F8814612E0C7
:1032B00009688903E9E709688901E6E7C905E4E7E0
:1032C000FFF774F8A0EB090141F28830814202D97E
:1032D0000320BDE8F09F6168DAF8000000F03800D4
:1032E000B0EBC10FECD1207880070AD5E0682968DF
:1032F00001F00F01884204D2296821F00F01014337
:103300002960D8F80010404601F00F01B9420BD9EE
:10331000016821F00F0139430160006800F00F00DF
:10332000B84201D00120D4E7207840070AD52069AF
:10333000296801F07001884204D2296821F07001E7
:1033400001432960207800070AD56069316801F0DF
:103350007001884204D2316821F07001014331606C
:103360002078C0060AD5A069316801F4E06188427E
:1033700004D2316821F4E061014331602078800695
:103380000CD5E1695846DBF8002002F0700291424A
:1033900004D2026822F070020A43026000F09AF838
:1033A0000E492A682B68C2F3032203F00F038A5CDC
:1033B000C95C02F01F0201F01F01D040084A20FA48
:1033C00001F111600749086007480068BDE8F05F37
:1033D000FFF728B800200052184402581878000857
:1033E000600000245C0000245400002470B5144CDC
:1033F0003F220260124A24680832131D114D04F066
:103400000704446016681C1D06F470668660166822
:1034100006F00F06C660126802F0700202611A68B8
:1034200002F0700242611A6802F4E062826122686E
:1034300002F07002C261286800F00F00086070BDE1
:10344000104402580020005230B500F043F80B4AF7
:103450000B490C4B15681468C5F3032204F00F04E4
:103460008A5C095D02F01F0201F01F01D040064A8C
:1034700020FA01F119601060084630BD1844025866
:1034800018780008600000245C00002400B5FFF7F5
:10349000DBFF05490968054AC1F30211515C01F0DF
:1034A0001F01C84000BD00001C44025818780008E5
:1034B00000B5FFF7C9FF05490968054AC1F30221B4
:1034C000515C01F01F01C84000BD00001C440258BF
:1034D00018780008454970B545480968434B103BCA
:1034E00011F0380208D00111082A03D0102A0BD09D
:1034F000182A0BD0084670BD19688906FBD51968D3
:10350000C1F3C101C84070BD3A4870BD3749374D5D
:1035100018310C1D24350A68096826682D6802F0E8
:10352000030406F00102C1F30511C5F3CC0515FB38
:1035300002F200EE102AB8EE400AE9B32F4ADFED9E
:103540002E0AB7EE001A6CB1DFED2D1A012C01D056
:10355000022C43D002EE101A1068F8EE422A81EED7
:10356000A22A1EE01C68A40611D51B6801EE901A61
:103570001168C3F3C103F8EE612AD84001EE900A46
:10358000C1F30800F8EE611A81EEA22A0BE001EE09
:10359000901ADFED1C2A00BFF8EE611A106882EE67
:1035A000A12AC0F3080001EE900AF8EE611A40EE7D
:1035B000201A31EE810A00E015E022EE000A1068C0
:1035C000C0F34620401C00EE900AF8EE600A80EE40
:1035D000201ABCEEC10A10EE100A70BD01EE901A5E
:1035E000DFED092AD8E7002070BD00001044025822
:1035F0000090D00340787D0100000039304402582B
:103600000024744A0024744C20BCBE4B2DE9F05FAA
:1036100004007DD0FF4F2078FE4D1837DFF8F4838B
:10362000103DC00748D0D8F80000396800F03800D5
:10363000102815D0182803D101F0030002280FD05C
:103640006068B0F5803F12D010B1B0F5A02F18D04F
:10365000286820F480302860286820F4802009E061
:103660002868800328D560680028D2D024E0286824
:1036700040F480302860606888B1FEF797FE064607
:1036800009E0286840F480202860F0E7FEF78EFE0D
:10369000801B64287ED828688003F7D50CE0FEF7ED
:1036A00085FE064605E000BFFEF780FE801B64280D
:1036B000F0D828688003F7D42078800756D5D8F84A
:1036C0000000DFF85093396810F03800A9F10C09B8
:1036D0000ED0182801D188070AD0E068A8B329685D
:1036E00021F0190101432960FEF760FE064628E03B
:1036F0002868400702D5E06800288AD0E168286879
:1037000020F0190008432860FEF750FE064606E048
:10371000D2E000BFFEF74AFE801B0228BAD8286814
:103720004007F7D5217CD9F8002022F0FE4242EA7A
:103730000161C9F8001019E0FEF738FE801B02286D
:10374000A8D828684007F7D5ECE7FFE7286820F0FD
:1037500001002860FEF72AFE064604E0FEF726FE7A
:10376000801B022896D828684007F7D42078C00626
:1037700046D5D8F80000DFF89C92396800F0380090
:10378000A9F10409082812D0182805D101F0030076
:10379000012800E0CEE00AD0E0690028286820D0A7
:1037A00040F080002860FEF701FE064615E028681C
:1037B000C00502D5E06980287ED194F82010D9F8A0
:1037C000002022F07C5242EA0161C9F8001017E0A3
:1037D000FEF7ECFD801B0228A0D82868C005F7D5AD
:1037E000EBE720F080002860FEF7E0FD064604E0ED
:1037F000FEF7DCFD801B022890D82868C005F7D4AE
:103800002078000729D58348616964300029814602
:10381000016811D041F001010160FEF7C7FD0646C5
:1038200005E000BFFEF7C2FD801B022888D8D9F84A
:1038300000008007F6D510E021F001010160FEF7DD
:10384000B5FD064605E000BFFEF7B0FD801B02286F
:1038500070D8D9F800008007F6D42078800623D5E8
:10386000A0690028286810D040F480502860FEF736
:103870009DFD064605E000BFFEF798FD801B02286F
:1038800058D828688004F7D50EE020F480502860CE
:10389000FEF78CFD064604E0FEF788FD801B02283B
:1038A00048D828688004F7D42078400751D5DFF83D
:1038B0006891D9F8001000E015E141F48071C9F871
:1038C0000010FEF773FD064605E000BFFEF76EFD33
:1038D000801B64282ED8D9F80000C005F6D54D4EBF
:1038E000A068603601280AD008B1052813D03068D6
:1038F00020F001003060306820F0040002E0306801
:1039000040F001003060A06841F2883A98B1FEF7BB
:103910004DFD81460AE0306840F004003060EEE77B
:10392000FEF744FDA0EB0901514503D8306880073C
:10393000F6D50EE072E0FEF739FD814606E000BFE5
:10394000FEF734FDA0EB0901514567D830688007C8
:10395000F6D4606A00287CD0DFF8B8A0D8F8001050
:103960000AF1200A4FF6F87B0AF10408C1F3C201FC
:103970000329AAF104096DD00228286820F080707C
:10398000286003D0FEF712FD044681E0FEF70EFD2D
:10399000064604E0FEF70AFD801B022875D8286859
:1039A0008001F7D4E26A40F2F331386854F8283FD6
:1039B000884340EA021018433860217B4FF4FE0C24
:1039C00022894FF0FE47208A4902267D521E401E62
:1039D000A1F5007189B2C2F308021143761E0CEA08
:1039E00000400143484607EA06621143CAF8001046
:1039F000D9F8001021F00101C9F80010D8F8003002
:103A0000266A23EA0B0343EAC601C8F80010D9F876
:103A1000001004E0104402580048025835E0A26942
:103A200021F00C011143C9F800100168E26921F08E
:103A3000020111430160016841F4803101600168B5
:103A400041F400310160016841F4802101600168A6
:103A500001E06CE020E041F001010160286840F0E5
:103A600080702860FEF7A2FC044604E0FEF79EFC8E
:103A7000001B022809D828688001F7D557E000BF4D
:103A8000FEF794FC001B022802D90320BDE8F09F3A
:103A900028688001F4D44AE039680128DAF8000087
:103AA00021D0A26A01F0030393421CD1E26AC1F360
:103AB00005118A4217D1216BC0F30802491E8A42C0
:103AC00011D1616BC0F34622491E91420BD1A16B0B
:103AD000C0F30642491E914205D1E16BC0F3066076
:103AE000491E814201D00120D0E7A16C4646D8F89A
:103AF0000000C0F3CC00814219D0D9F800004D4637
:103B000020F00100C9F80000FEF750FC4FEA000762
:103B1000FEF74CFCB842FBD0A26C306820EA0B00E8
:103B200040EAC2003060286840F0010028600020B0
:103B3000ACE7000003490A6822F4600202430A600D
:103B4000704700000404005870477047704710B574
:103B5000040003D094F83D0010B107E0012010BD2F
:103B6000002084F83C00204600F022F8022084F86F
:103B70003D002068211D01F07FF9012084F84800F4
:103B800084F83E0084F83F0084F8400084F8410047
:103B900084F8420084F8430084F8440084F8450027
:103BA00084F8460084F8470084F83D00002010BDEA
:103BB0007047000090F83D10012901D001207047A6
:103BC0001A4A022180F83D100168CB6843F00103D6
:103BD000CB60006890421AD0B0F1804F17D01449E2
:103BE000884214D01349884211D0134988420ED01C
:103BF000124988420BD01249884208D011498842A4
:103C000005D01149884202D01049884207D1816805
:103C10000F4A1140062906D0B1F5803F03D0016854
:103C200041F00101016000207047000000000140E8
:103C30000004004000080040000C00400004014067
:103C4000001800400040014000E0004000E4004057
:103C50000700010070472DE9F04104460068002785
:103C6000C6680569A90713D5B10711D5FA1E026107
:103C700001212177206880698007204602D0FFF764
:103C8000E9FF04E000F08BF8204600F089F8277780
:103C9000680716D5700714D5226802206FF004015A
:103CA000116120772068806910F4407F204602D09F
:103CB000FFF7D0FF04E000F072F8204600F070F843
:103CC0002777280715D5300713D5226804206FF011
:103CD0000801116120772068C0698007204602D062
:103CE000FFF7B8FF04E000F05AF8204600F058F85B
:103CF0002777E80616D5F00614D5226808206FF05D
:103D00001001116120772068C06910F4407F2046BF
:103D100002D0FFF79FFF04E000F041F8204600F0DA
:103D20003FF82777E80708D0F00706D021686FF042
:103D300001000861204600F035F8280601D4A804E7
:103D400008D5300606D521686FF402500861204678
:103D5000FFF7FBFEE80508D5300606D521686FF4AD
:103D6000807008612046FFF7EFFE680608D57006F0
:103D700006D521686FF040000861204600F01CF86D
:103D8000A8060AD5B00608D521686FF020000861A2
:103D90002046BDE8F041FFF7D9BEBDE8F08170478D
:103DA0007047000000680349884201D1FEF704BB58
:103DB0007047000000100040704730B590F8841044
:103DC000012918D0012280F884202421C0F888100D
:103DD0000022202401680B680D6823F0005325F0B1
:103DE00001050D60426601680B60C0F8884080F8EC
:103DF0008420104630BD022030BD7047704770B53A
:103E0000044690F8840001281DD0012284F8842003
:103E10002420C4F8880020680568026822F00102A6
:103E200002602068826822F060620A438260204655
:103E300001F062F92268202100201560C4F8881082
:103E400084F8840070BD022070BD70B5044690F8FF
:103E5000840001281DD0012284F884202420C4F885
:103E6000880020680568026822F00102026020686C
:103E7000826822F060420A438260204601F03CF9E9
:103E80002268202100201560C4F8881084F884007E
:103E900070BD022070BD7047704770472DE9F0413A
:103EA00007680025044640F60F030226F8693968C2
:103EB000BA6818420AD183067ED501F0200302F0C9
:103EC000805C53EA0C0377D0616F7EE1D44BDFF85E
:103ED00054C3134001EA0C0C53EA0C0C6CD05FEA9B
:103EE000C07C0CD05FEAC15C09D54FF0010CC7F86B
:103EF00020C0D4F8907047F00107C4F8907087078D
:103F000009D5D70707D027683E62D4F8906046F0FD
:103F10000406C4F8906046070AD5D60708D027687B
:103F200004263E62D4F8906046F00206C4F8906021
:103F300006070CD501F020061E4308D0266808238A
:103F40003362D4F8903043F00803C4F8903003058E
:103F50000BD54B0109D526684FF400633362D4F8C2
:103F6000903043F02003C4F89030D4F89030002B08
:103F70003DD0800609D501F0200002F080510843B1
:103F800003D0616F09B1204688472168D4F89000BA
:103F90008968490602D410F0280F2AD0204601F083
:103FA0008FF92068806840061ED52068083050E8E8
:103FB000001F21F0400100E021E040E80012002A4B
:103FC000F3D1D4F8800078B197490165D4F8800026
:103FD000FDF776F800280AD0D4F88000016D00E0E3
:103FE0002046BDE8F04108472046FFF756FFBDE8F0
:103FF000F0812046FFF751FFC4F89050F7E7D4F85E
:104000006CC02023BCF1010F7ED15FEAC06C7BD570
:104010005FEAC16C78D5102038622068806840065D
:1040200073D5D4F8802081491068884234D07F4904
:104030001831884230D07D49303188422CD07B49BC
:104040004831884228D079496031884224D0774964
:104050007831884220D07549903188421CD073490C
:10406000A831884218D07249884215D07049183159
:10407000884211D06E49303188420DD06C494831A8
:10408000884209D06A496031884205D06849783150
:10409000884201D06649903140684FF4807700042F
:1040A000000C40D0B4F85C1081423CD9A4F85E000A
:1040B000D069B8422FD0216851E8000F20F48070F9
:1040C00041E80002002AF6D12068083050E8001FBD
:1040D00021F0010140E80012002AF5D120680830E3
:1040E00050E8001F21F0400140E80012002AF5D1FD
:1040F000C4F88C30E566206850E8001F21F01001FC
:1041000040E80012002A01E04AE019E0F3D1D4F8B7
:104110008000FCF725FE2667B4F85C00B4F85E105A
:10412000401A81B208E0B4F85C1081427FF466AFB7
:10413000D069B842FAD126672046FFF75EFE56E7FF
:10414000B4F85C00B4F85E10B4F85E20401A81B296
:10415000002AF4D00029F2D0226852E8000F20F49F
:10416000907042E80007002FF6D1324F206800F12E
:10417000080050E8002F02EA070240E8002CBCF1DA
:10418000000FF3D1C4F88C30E5666567226852E809
:10419000000F20F0100042E80003002BF6D1CAE720
:1041A000C60209D5560207D54FF480103862204662
:1041B000BDE8F041FFF770BE06060AD501F08006A3
:1041C00002F40002164304D0A16F00297FF408AF67
:1041D0000DE7420611D54A060FD52046016851E881
:1041E000002F22F0400241E80024002CF6D1C0F854
:1041F0008830856700F0F5F9F9E6020206D54A0035
:1042000004D52046BDE8F041FFF745BEC00196D574
:10421000002994DA2046BDE8F041FFF7EFBD000029
:104220000100001020010004AF52000810000240FD
:1042300010040240FEFFFFEF10B5040003D0D4F8D5
:10424000880010B107E0012010BD002084F8840030
:10425000204600F027F82420C4F888002068016870
:1042600021F001010160A06A10B1204600F066FF54
:10427000204601F0B7FA0128E6D02068416821F411
:10428000904141602068816821F02A0181602068A6
:10429000016841F0010101602046BDE8104000F0D6
:1042A000B1BF00002DE9F04FB5B0054614212EA88E
:1042B000FCF7D6F9B8216846FCF7D2F9804C022702
:1042C00081492868083C7E4E0025DFF8F8B1884215
:1042D00029D100201D950221CDE900106846FEF786
:1042E000B9FA08B1FCF700FC306840F400203060F7
:1042F000306800F400203390206840F00400206013
:104300002068082100F0040033904FF440602E90A4
:10431000CDE92F75CDE931512EA95846FDF738FF6B
:1043200035B0BDE8F08F69494FF00708DFF8A0917C
:1043300088422FD100201E950121CDE9001068464A
:10434000FEF788FA08B1FCF7CFFBD9F8001041F06E
:104350001001C9F80010D9F8000000F010003390E7
:10436000206840F00100206020682EA900F00100C4
:1043700033904FF4C0602E90CDE92F755548CDE9AC
:104380003158FDF705FF002205212520FEF7B0F882
:1043900025202FE05049DFF844A188422DD100208C
:1043A0001D950222CDE900206846FEF753FA08B1B8
:1043B000FCF79AFB306840F400303060306800F45D
:1043C00000303390206840F00800206020686021B1
:1043D0002E912EA900F008003390CDE92F75CDE97C
:1043E00031585046FDF7D4FE002205212620FEF765
:1043F0007FF82620FEF76EF892E7394988422CD1E3
:1044000000201D950221CDE900106846FEF722FA32
:1044100008B1FCF769FB306840F4802030603068F8
:1044200000F480203390206840F00800206020686D
:104430004FF440712E912EA900F008003390CDE981
:104440002F75CDE931585046FDF7A2FE0022052117
:104450002720FEF74DF82720CCE722498842CBD110
:1044600000201E950121CDE900106846FEF7F2F903
:1044700008B1FCF739FBD9F8001041F02001C9F868
:104480000010D9F8000000F020003390206840F0C0
:104490000400206020682EA900F004003390C020A2
:1044A0002E90CDE92F75CDE931585846FDF770FEB5
:1044B000002205214720FEF71BF847209AE700005D
:1044C000E844025800080258004C00400010014027
:1044D000F04402580000025800440040000C02580A
:1044E000004800400014014030B4D0F88C30202B3C
:1044F00002D0022030BC7047A9B1A2B10B4D0024FC
:104500000368C466AB420BD05B681B0208D5046825
:1045100054E8003F43F0806344E80035002DF6D1B5
:1045200030BC01F04DBB0120E4E70000000C005856
:1045300070472DE9F8430446D0F88800984616469F
:104540000D46202802D00220BDE8F883A5B19EB117
:104550000021C4F890102120C4F888001834FDF719
:1045600025FF814654F8100CA687E6872027183CC3
:10457000B0F5805F02D003E00120E5E7206910B1CB
:104580002E46002510E000260EE08021204601F096
:104590009FFBC0B9DEB116F8010B21688862B4F840
:1045A0005600401EA4F85600B4F856004B464FF093
:1045B0000002CDF800800028E7D14FF040012046EE
:1045C00001F086FB48B1C4F888700320BCE735F8D9
:1045D000020B2168C0F30800E0E7C4F888700020EF
:1045E000B2E77047FEE7000016498023164870B511
:1045F000134A00240A60E1250470012643704FF439
:10460000C0628570C4700471447148600F480E72B6
:10461000C8600F48C1E904020846FCF793FE08B1E0
:10462000FCF762FA074838213838FCF719F80548D2
:1046300021224FF4403138380260C0E9044170BD96
:10464000008002401C01002444000024800000304F
:1046500000000030184804222DE9F041154F0021D8
:1046600007600623C0E90212017401244174122676
:1046700081741025C661C0E90543C0E90834C0E96A
:104680000A368463C0E90C31C0E90F12C0E9112178
:10469000C0E913214265C0E916150566C0E9191283
:1046A000FDF704FB002803D0BDE8F041FCF71CBA7D
:1046B000BDE8F08100A00040CC0100241A4804228B
:1046C0002DE9F041174E002106600123C0E90212D6
:1046D00000F114060374417406241227817486E8DD
:1046E0009800C0E90843C0E90A4704631025C0E9FF
:1046F0000F12C0E91121C0E9132142654FF4487639
:10470000C0E916150566C0E91912C0E90D63FDF789
:10471000CDFA002803D0BDE8F041FCF7E5B9BDE8CB
:10472000F081000000A400406C0200242DE9F0415B
:104730001A480326DFF860C0002101230624C0F8D0
:1047400000C01227C0E9021600F114060374417478
:1047500004228174102586E89800C0E90843C0E966
:104760000A4704634FF4C866C0E90F12C0E911217B
:10477000C0E913214265C0E916150566C0E91912A2
:10478000C0E90D63FDF792FA002803D0BDE8F041BF
:10479000FCF7AAB9BDE8F08100D400400C03002466
:1047A0000B4A00210B4810B501F0FEFB0A4C00211A
:1047B000074A24322060094801F0F6FB044A002130
:1047C00060600748483201F0EFFBA06010BD0000B8
:1047D000287700082950000838000024594F0008A5
:1047E000C14F000870B586B014216846FBF738FF4A
:1047F0002548016841F080010160016801F08001F5
:104800000591016841F004010160016801F00401B3
:104810000591016841F001010160016801F00101A9
:104820000591016841F010010160016801F010017B
:104830000591016841F002010160016801F0020187
:104840000591016841F0080101600068002401261B
:10485000694600F0080005902820009002250B48CA
:10486000CDE90154CDE90346FDF792FC4FF4205009
:104870000090CDE9015406486946CDE90346FDF7AD
:1048800087FC06B070BD0000E044025800000258EA
:10489000001002581848002110B5164C0C224FF495
:1048A000E1330460C0E90131C160C0E904128161F3
:1048B000C161016241628162FFF7BEFC08B1FCF791
:1048C00013F90D480021FFF7C0FA08B1FCF70CF905
:1048D00009480021FFF793FA08B1FCF705F90648EB
:1048E000FFF76BFA002803D0BDE81040FCF7FCB8D6
:1048F00010BD0000004C0040AC030024184800210B
:1049000010B5164C0C224FF4E1330460C0E90131BC
:10491000C160C0E904128161C161016241628162CA
:10492000FFF78AFC08B1FCF7DFF80D480021FFF71C
:104930008CFA08B1FCF7D8F809480021FFF75FFAB4
:1049400008B1FCF7D1F80648FFF737FA002803D082
:10495000BDE81040FCF7C8B810BD000000100140D1
:10496000400400241848002110B5164C0C224FF4C6
:10497000E1330460C0E90131C160C0E90412816122
:10498000C161016241628162FFF756FC08B1FCF728
:10499000ABF80D480021FFF758FA08B1FCF7A4F86E
:1049A00009480021FFF72BFA08B1FCF79DF80648EB
:1049B000FFF703FA002803D0BDE81040FCF794B8D5
:1049C00010BD000000440040D40400241848002119
:1049D00010B5164C0C224FF4E1330460C0E90131EC
:1049E000C160C0E904128161C161016241628162FA
:1049F000FFF722FC08B1FCF777F80D480021FFF71C
:104A000024FA08B1FCF770F809480021FFF7F7F91C
:104A100008B1FCF769F80648FFF7CFF9002803D082
:104A2000BDE81040FCF760B810BD00000048004031
:104A3000680500241848002110B5164C0C224FF4CC
:104A4000E1330460C0E90131C160C0E90412816151
:104A5000C161016241628162FFF7EEFB08B1FCF7C0
:104A600043F80D480021FFF7F0F908B1FCF73CF8D6
:104A700009480021FFF7C3F908B1FCF735F80648EB
:104A8000FFF79BF9002803D0BDE81040FCF72CB8D5
:104A900010BD000000140140FC050024FEE7FEE705
:104AA0002DE9F047454D044689464FF0000A286835
:104AB000C04380070AD0414E283E306820F0806015
:104AC0003060FDF773FC0746B04608E00120BDE802
:104AD000F08700BFFDF76AFCC01B022867D8D8F832
:104AE00000000001F6D4206829684FF4FE0721F485
:104AF0007C313E0241EA00302860207AA389B4F874
:104B000004C040022D4D2D495B1E227CACF1010CEE
:104B10001035091DA0F5007080B2521ECCF3080CB0
:104B200007EA034340EA0C00184306EA0262104316
:104B300028600868626920F0C000104308600A68B5
:104B4000A06922F0200202430A60281D0A6822F0B0
:104B500010020A6002684FF6F873E4699A4342EA69
:104B6000C40202600868B9F1000F40F010020A6048
:104B700011D00868B9F1010F11D040F4001008609D
:104B8000D8F80000444640F08060C8F80000FDF707
:104B90000DFC05460DE0086840F40020EFE740F406
:104BA0008010ECE7FDF702FC401B022801D903202E
:104BB0008DE720680001F5D5504688E72844025863
:104BC0002DE9F047454D044689464FF0000A286814
:104BD000C04380070AD0414E283E306820F0805004
:104BE0003060FDF7E3FB0746B04608E00120BDE872
:104BF000F08700BFFDF7DAFBC01B022867D8D8F8A2
:104C000000008000F6D4208829684FF4FE0721F0C8
:104C10007C713E0241EA00502860207AA389B4F8F2
:104C200004C040022D4D2D495B1E227CACF1010CCD
:104C30001835091DA0F5007080B2521ECCF3080C87
:104C400007EA034340EA0C00184306EA02621043F5
:104C500028600868626920F44060104308600A68B0
:104C6000A06922F4007202430A60281D0A6822F437
:104C700080720A6002684FF6F873E4699A4342EA68
:104C8000C40202600868B9F1000F40F480720A6043
:104C900011D00868B9F1010F11D040F080700860A0
:104CA000D8F80000444640F08050C8F80000FDF7F6
:104CB0007DFB05460DE0086840F48000EFE740F416
:104CC0000000ECE7FDF772FB401B022801D903202E
:104CD0008DE720688000F5D5504688E728440258C3
:104CE0004FF0E02010B5006902F064FB012803D00A
:104CF000BDE8104002F088B810BD000070B59CB04F
:104D00004C216846FBF7ACFC202113A8FBF7A8FC5C
:104D10000220FDF71FFC1E48016821F4404101609C
:104D20000168002401F440411B9101688904FCD50D
:104D300002200A902C230990C20301210D91042521
:104D4000CDE90012CDE90B030C261294CDE90E50EB
:104D5000CDE910646846FEF759FC08B172B6FEE76B
:104D600040201A9008230501CDE9163013ABCDE998
:104D700018053F21032283E8160013A81146FEF709
:104D800007FA002801D072B6FEE71CB070BD000023
:104D9000184802582D48F0B52D4A016841F47001B9
:104DA0000160106800F00F00072804D2106820F09E
:104DB0000F00C01D106027490020264C10340B68DE
:104DC000254D43F001030B6020600B682B400B6006
:104DD000136803F00F03072B04D9136823F00F03A4
:104DE000DB1D13601B4C1D4A18341D4B261D371D3F
:104DF0002060184C1B4D28343060261D3860371D4C
:104E000023603B1D35601C1D3A60251D2E1D18605A
:104E1000331D22602860326018600B680D4A0D4C0B
:104E200023F48023D4320B60603420601068C00407
:104E30000BD4136843F2D2000B4943F48053136040
:104E40000860106820F480501060F0BD88ED00E02C
:104E500000200052004402587FEDF6EA8002010172
:104E6000000202020000FF01004000520148FEF76C
:104E7000F2BE0000900600242DE9F0472C4B4FF0C5
:104E8000804A2C4D026898422B4E2C4F2C4C09D056
:104E9000504507D0A84205D0B04203D0B84201D057
:104EA000A04205D1D1F804C022F070024CEA0202FF
:104EB000DFF890C0DFF890809842DFF8909015D02E
:104EC000504513D0A84211D0B0420FD0B8420DD0F7
:104ED000A0420BD0604509D0404507D0484505D0D9
:104EE0001B4DA84202D01B4DA84203D1CD6822F42D
:104EF00040722A438E684D6922F08002C6620E68B5
:104F00002A439842866207D0A04205D0604503D06C
:104F1000404501D0484501D1096901630368012179
:104F200043F00403036041610260BDE8F0870000C4
:104F3000000001400004004000080040000C004058
:104F4000000401400040014000440140004801408D
:104F500000E0004000E40040FBF708FC4FF404755B
:104F6000104C6E1CAF1C104A104801232946FBF759
:104F700006FC606A01230E4A3146401C60620D48FF
:104F8000FBF7FDFBE06A01230B4A3946401CE06257
:104F90000A48FBF7F4FB606B401C6063012000F0E3
:104FA000C6FFE0E7B04F002410000024CC0100242D
:104FB000200000246C020024300000240C03002494
:104FC000184C00254FF47A7660686560E0632168CC
:104FD0002560A163E168E5606164A168A560216462
:104FE00061696561E16421692561A164E169E56147
:104FF0006165A169A5612165616A6562E165206AF3
:105000002562A065E06AE5626066A06AA562206626
:10501000606B6563E066206B2563A066304600F038
:1050200086FFD1E7B04F0024264C012226492748AD
:10503000FFF75AFA10B92068401C20602449642305
:1050400022480122FFF775FA606801222149401CBD
:1050500060602148FFF748FA10B9A068401CA060C2
:105060001E4964231C480122FFF763FAE06801220D
:105070001B49401CE0601B48FFF736FA10B9206955
:10508000401C20611849642316480122FFF751FA99
:10509000606901221549401C60611548FFF724FA38
:1050A00010B9A069401CA061124964231048012274
:1050B000FFF73FFAE069401CE061012000F037FF94
:1050C000B3E70000B04F0024000000244004002497
:1050D0000100002402000024D40400240300002462
:1050E00004000024680500240500002406000024B4
:1050F000FC0500240700002430B5416EB9B10168F9
:105100000D4B03F108048A688968C2F34262490FB3
:105110005D5C615C2D01B5FBF1F1A0F86A10995C52
:10512000A25C0901B1FBF2F1A0F8681030BD0121C9
:10513000A0F86A10F8E700000878000890F8281036
:10514000090706D50168836B4A6822F400421A43B6
:105150004A6090F82810C90706D00168C36A4A68F7
:1051600022F400321A434A6090F82810890706D5C5
:105170000168036B4A6822F480321A434A6090F84F
:105180002810490706D50168436B4A6822F480223B
:105190001A434A6090F82810C90606D50168C36B07
:1051A0008A6822F480521A438A6090F8281089068F
:1051B00006D50168036C8A6822F400521A438A609B
:1051C00090F82810490611D50168436C4A6822F40A
:1051D00080121A434A60416CB1F5801F06D1016804
:1051E000836C4A6822F4C0021A434A6090F828107F
:1051F000090606D50168C26C486820F400201043F7
:10520000486070472DE9F84300250446C0F89050E7
:10521000FDF7CCF88046206820266FF07E470068B6
:10522000000713D50022434631042046009700F0C2
:105230004FFD58B1216851E8000F20F0800041E88F
:105240000002002AF6D1C4F8886021E020680068D6
:10525000400722D5002243464FF4800120460097A4
:1052600000F036FDC8B1206850E8001F21F49071AD
:1052700040E80012002AF6D12068083050E8001FEC
:1052800021F0010140E80012002AF5D1C4F88C6039
:10529000032084F88450BDE8F883C4F88860C4F81B
:1052A0008C60E5662567002084F88450F3E710B52C
:1052B000806B0021A0F85E10FEF7EFFD10BD00002E
:1052C00010B5026852E8001F21F4907142E8001303
:1052D000002BF6D10E4B0268083252E8001F19402D
:1052E00042E80014002CF6D1C16E012908D10268F1
:1052F00052E8001F21F0100142E80013002BF6D104
:1053000000212022C0F88C20C166416710BD00003A
:10531000FEFFFFEF10B5D0F88C10B0F86020222906
:10532000016804D0886940F00800886110BD496AAE
:10533000836D11401980816D891C8165B0F85E1004
:10534000491EA0F85E10B0F85E100029EED1016889
:1053500051E8002F22F4907241E80023002BF6D18F
:105360000168083151E8002F22F0010241E80023D2
:10537000002BF5D1184B002102682024C0F88C4086
:10538000416701679A420BD05268120208D5036840
:1053900053E8002F22F0806243E80024002CF6D16D
:1053A000C26E012A02D0FFF7C3F810BDC1660268C1
:1053B00052E8001F21F0100142E80013002BF6D143
:1053C0000168CA69D243D20601D410220A62B0F839
:1053D0005C10FEF712FD10BD000C00582DE9F047DF
:1053E00004460068C569D0F800A0D0F80890D4F849
:1053F0008C10B4F86060222905D0816941F0080161
:105400008161BDE8F087B4F868704FF0000844E0AF
:105410002068A16D406A30400880A06D801CA065A6
:10542000B4F85E00401EA4F85E002068C5696907F4
:1054300030D0E9070AD05FEACA5107D501210162DD
:10544000D4F8900040F00100C4F89000A8070BD5F4
:105450005FEAC97008D0216802200862D4F8900081
:1054600040F00400C4F8900068070BD55FEAC970EB
:1054700008D0216804200862D4F8900040F00200AF
:10548000C4F89000D4F8900020B12046FEF705FD46
:10549000C4F89080B4F85E0000B30FB1A806B7D48A
:1054A000B4F85E000028ACD0B4F868108142A8D9E6
:1054B0002068083050E8001F21F0805140E80012B9
:1054C000002AF5D12A486067216851E8000F40F0B2
:1054D000200041E80002002AF6D192E7216851E855
:1054E000000F20F4807041E80002002AF6D1214A22
:1054F0002068083050E8001F114040E80013002BDE
:10550000F6D11D4A202321684046C4F88C30C4F8E7
:105510007480C4F8708091420BD04968090208D5A4
:10552000226852E8001F21F0806142E80013002B3E
:10553000F6D1E16E012903D02046FEF7F9FFAFE76F
:10554000E066216851E8000F20F0100041E80002F9
:10555000002AF6D12068C169C943C90601D41021C7
:105560000162B4F85C102046FEF747FC98E70000A3
:1055700015530008FEFFFFEF000C005810B5D0F8DF
:105580008C10B0F860202229016804D0886940F0AE
:105590000800886110BD496A836D11401970816DE2
:1055A000491C8165B0F85E10491EA0F85E10B0F885
:1055B0005E100029EED1026852E8001F21F49071BC
:1055C00042E80013002BF6D10168083151E8002FA2
:1055D00022F0010241E80023002BF5D1184B0021F5
:1055E00002682024C0F88C40416701679A420BD0C2
:1055F0005268120208D5026852E8003F23F0806327
:1056000042E80034002CF6D1C26E012A02D0FEF727
:105610008FFF10BDC166026852E8001F21F0100123
:1056200042E80013002BF6D10168CA69D243D206C2
:1056300001D410220A62B0F85C10FEF7DEFB10BD48
:10564000000C00582DE9F04704460068C569D0F801
:1056500000A0D0F80890D4F88C10B4F8606022292B
:1056600005D0816941F008018161BDE8F087B4F897
:1056700068704FF0000844E02068A16D406A304037
:105680000870A06D401CA065B4F85E00401EA4F830
:105690005E002068C569690730D0E9070AD05FEA73
:1056A000CA5107D501210162D4F8900040F00100F1
:1056B000C4F89000A8070BD55FEAC97008D021682C
:1056C00002200862D4F8900040F00400C4F8900072
:1056D00068070BD55FEAC97008D02168042008620A
:1056E000D4F8900040F00200C4F89000D4F8900084
:1056F00020B12046FEF7D1FBC4F89080B4F85E00DC
:1057000000B30FB1A806B7D4B4F85E000028ACD03F
:10571000B4F868108142A8D92068083050E8001F0A
:1057200021F0805140E80012002AF5D12A48606734
:10573000206850E8001F41F0200140E80012002AD4
:10574000F6D192E7216851E8000F20F4807041E81B
:105750000002002AF6D1214A2068083050E8001FD4
:10576000114040E80013002BF6D11D4A2023216888
:105770004046C4F88C30C4F87480C4F870809142FC
:105780000BD04968090208D5226852E8001F21F0B1
:10579000806142E80013002BF6D1E16E012903D0AD
:1057A0002046FEF7C5FEAFE7E066206850E8001F20
:1057B00021F0100140E80012002AF6D12068C169EA
:1057C000C943C90601D410210162B4F85C10204617
:1057D000FEF713FB98E700007D550008FEFFFFEF82
:1057E000000C00582DE9F04304468068E24E87B073
:1057F000E24B2168D4E90427D4F81CC010430A689E
:10580000002547EA0C073843324002430A6020680B
:10581000E268416821F44051114341602268A16966
:105820009A4201D0206A01439668DFF854C3D54FED
:10583000D54806EA0C060E4396602168666ACA6A75
:1058400022F00F023243CA622268BA420ED10068C7
:1058500000F0380018286FD07ADCB8B308286CD074
:1058600010286BD18BE0282868D18EE0C7498A4286
:1058700009D1006800F0070006285FD2DFE800F0D9
:10588000507D7F818385C2498A4209D1006800F03A
:10589000070006287BD2DFE800F043707274767848
:1058A000BC498A4209D1006800F0070006286ED280
:1058B000DFE800F036636567696BB7498A420BD150
:1058C000006800F00700062861D200E043E0DFE84E
:1058D00000F0275456585A5CB0498A4206D10068F5
:1058E00000F0380018284CD0B7DD31E0AC498A42CE
:1058F00009D1006800F00700062848D2DFE800F070
:10590000103D3F414345A7498A420BD1006800F052
:10591000070006283BD2DFE800F003303234363887
:10592000002035E0A0498A4209D1006800F0380023
:10593000182826D091DD0BE023E01EE027E09B49EC
:105940008A420AD1006800F03800182819D084DD96
:10595000202888D11CE001201AE09A4217D18A48F9
:10596000001D006800F00700062810D2DFE800F0F4
:10597000030507090B0D02200AE0042008E00820B7
:1059800006E0102004E0202002E0402000E080201B
:105990008749DFF820829A42874A4FF400434FEA52
:1059A00021174FF000064ED110281AD006DC02282D
:1059B00009D004280BD008287ED10DE020283ED045
:1059C000402879D13DE0FCF7EFFD014610E0684644
:1059D000FCF7FCFD01990BE003A8FCF799FE049984
:1059E00006E01068800605D51068C0F3C100C1400C
:1059F000002970D0606A676838F8102007EB470309
:105A0000B1FBF2F0834257D8B0EB073F54D80023E4
:105A100008461946FAF72EFD02467808130E1202C0
:105A200043EA012110183A4671410023FAF722FD9A
:105A3000624AA0F5407191423ED821688FE0394614
:105A4000D8E71946D6E7D4F81CC04FF6EF799C4545
:105A500046D1082819D005DC58B101280CD00428FB
:105A600075D10DE0102815D0202835D040286ED1F2
:105A700034E0FDF70BFD01E0FDF71AFD014610E0F3
:105A80006846FCF7A3FD01990BE003A8FCF740FE74
:105A9000049906E01068800604D51068C0F3C100C0
:105AA000C140C1B1636A606838F81330B1FBF3F1EB
:105AB000490001EB500100E049E0B1FBF0F0A0F13A
:105AC0001001494543D84FF6F0732168C0F34202F4
:105AD0001840104343E043E03946E3E71946E1E765
