:020000040800F2
:1000000028840024E1020008CB350008E131000813
:10001000C93500080705000801400008000000007D
:10002000000000000000000000000000113800087F
:100030000905000800000000CD350008133800084D
:10004000FF020008FF020008FF020008FF0200088C
:10005000FF020008FF020008FF020008FF0200087C
:10006000FF020008FF020008FF020008FF0200086C
:10007000FF020008FF020008FF020008FF0200085C
:10008000FF020008FF020008FF020008FF0200084C
:10009000FF020008FF020008FF020008FF0200083C
:1000A000FF020008FF020008FF020008FF0200082C
:1000B000FF020008FF020008FF020008FF0200081C
:1000C000FF020008FF020008FF020008FF0200080C
:1000D000FF020008FF020008FF020008FF020008FC
:1000E000FF020008FF02000800000000FF020008F5
:1000F000FF020008FF020008FF020008FF020008DC
:10010000FF020008FF020008FF020008FF020008CB
:10011000FF020008FF020008FF020008FF020008BB
:10012000FF020008FF020008FF020008FF020008AB
:10013000FF020008FF020008FF020008FF0200089B
:1001400000000000000000000000000000000000AF
:10015000FF020008FF020008FF020008FF0200087B
:10016000FF020008FF020008FF020008FF0200086B
:10017000FF020008FF020008FF0200080000000064
:10018000FF020008FF020008FF020008FF0200084B
:10019000FF020008FF020008FF020008FF0200083B
:1001A000FF020008FF020008FF0200080000000034
:1001B000FF020008FF020008FF020008FF0200081B
:1001C000FF020008FF02000800000000000000001D
:1001D0000000000000000000FF0200080000000016
:1001E000000000000000000000000000000000000F
:1001F0000000000000000000FF020008FF020008ED
:10020000FF020008FF02000800000000FF020008D3
:10021000FF020008FF020008FF020008FF020008BA
:10022000FF02000800000000FF02000800000000BC
:10023000FF020008FF02000800000000FF020008A3
:10024000FF020008FF020008FF020008FF0200088A
:10025000FF020008FF020008FF020008FF0200087A
:10026000FF020008FF020008FF020008FF0200086A
:10027000FF020008FF020008FF0200080000000063
:10028000FF020008FF020008FF020008FF0200084A
:1002900000000000FF020008FF020008000000004C
:1002A00000000000FF020008FF020008FF02000833
:1002B000FF020008FF020008FF020008FF0200081A
:1002C000FF020008FF020008FF020008DFF80CD060
:1002D00000F0DCF800480047BD66000828840024D0
:1002E000074880470748804707480047FEE7FEE782
:1002F000FEE7FEE7FEE7FEE7FEE7FEE7FEE7FEE7D6
:10030000850C0008AD380008CD0200082DE9F05F2B
:100310000546002092469B46884606468146402474
:100320001BE0284641464746224600F09EF85346C9
:100330005A46C01A914110D311461846224600F081
:1003400085F82D1A67EB01084F462246012000214F
:1003500000F07CF817EB00094E41201EA4F10104C7
:10036000DFDC484631462A464346BDE8F09F0000A0
:100370000649074A0868504343F2390210440860AE
:10038000400870470149086070470000784A00241F
:100390006D4EC64110B5431A934209D2831888188E
:1003A00003E010F8011D03F8011D521EF9D210BD23
:1003B00040EA01039B0703D009E008C9121F08C0E7
:1003C000042AFAD203E011F8013B00F8013B521E67
:1003D000F9D210BDD2B201E000F8012B491EFBD2C8
:1003E00070470022F6E710B513460A460446194640
:1003F000FFF7F0FF204610BD421C10F8011B00293A
:10040000FBD1801A704730B504460020034600E057
:100410005B1C934203D2E05CCD5C401BF8D030BD46
:1004200030B50B46014600202022012409E021FAC4
:1004300002F59D4205D303FA02F5491B04FA02F5C1
:100440002844151EA2F10102F1DC30BD202A04DB94
:10045000203A00FA02F1002070479140C2F12003D7
:1004600020FA03F3194390407047202A04DB203A16
:1004700021FA02F00021704721FA02F3D040C2F1C4
:10048000200291400843194670470000064C074D72
:1004900006E0E06840F0010394E807009847103454
:1004A000AC42F6D3FFF716FF10E6000830E600086E
:1004B00070B58C1810F8015B15F0070301D110F826
:1004C000013B2A1106D110F8012B03E010F8016B53
:1004D00001F8016B5B1EF9D12B0705D40023521ED6
:1004E0000DD401F8013BFAE710F8013BCB1A921C3E
:1004F00003E013F8015B01F8015B521EF9D5A1423C
:10050000D8D3002070BDFEE7704770B5A2B0064694
:1005100000244FF4C36001258DF80F5002238DF89D
:100520001D4069038DF80E5009948DF81F400D9001
:1005300020208DF804508DF8325042028DF8605022
:1005400006914FF040518DF8384002948DF861408B
:100550008DF81C408DF828408DF862408DF80C40D5
:100560000B948DF81E500F948DF8115012948DF845
:1005700040408DF831408DF8124014948DF856406B
:100580001790304616938DF8205005928DF8544000
:100590008DF830408DF81050009169468DF80D406F
:1005A0008DF8554011948DF84C5000F04DFA1B9584
:1005B00068058DF871404FF406718DF868501994F4
:1005C0008DF880408DF870401F908DF878401D9018
:1005D00030468DF88140219119A900F0DBF922B055
:1005E00070BD0020704701F0F5B80000024810B55A
:1005F00000F09AFE002010BD144B002413460A465A
:100600000146044810B500F003FE002801D04FF069
:10061000FF3010BD144B002413460A46014604481F
:1006200010B500F089FF002801D04FF0FF3010BD59
:10063000144B00242DE9F04F836A00F1180593460E
:100640008C6800271E46B94655F82320D2F80CC006
:10065000BCF1000F7EDB05EB830CDCF814C0BCF1B1
:10066000000F77D191F800C05FEA4C7C43D5D2F8F7
:100670000CC0D1F824806FF30F0C4CEA080CC2F8C0
:100680000CC0D2F80CC04CF4803CC2F80CC0D0F8BE
:1006900000C0DCF8608048F48018CCF8608091F8E5
:1006A00000C05FEA0C7C26D5B1F82C80D2F808C0D7
:1006B00068F31F4CC2F808C0D2F80CC04CF4003CE0
:1006C000C2F80CC0D2F80CC0D1F830802CF4402C09
:1006D0004CEA080CC2F80CC0D0F800C0DCF864800A
:1006E00048F48018CCF864800068D0F850C04CF012
:1006F000806CC0F850C00878C0060BD59068D1F85F
:1007000018C06FF30D0040EA0C009060D06840F014
:100710008060D060087810F0140F1ED0D06840F0D0
:100720008040D060BFF35F8FD0685B1C042B40F02B
:100730000040D06000D31B1F012755F82320D0684C
:1007400000280ADA55F82600BFF35F8FC16821F050
:10075000004100E0A3E0C160A1E020681060906863
:10076000D4F804C06FF30D0040EA0C009060DFF88D
:1007700020827F1CA0684FF0000A50B10446006838
:100780005060D2F808C0A0880CEA080C4CEA00407F
:1007900004E0C2F804A0906800EA080090600878BD
:1007A000C006D06812D5B1F820C020F4F00040EAAD
:1007B000CC40D060D068D1F81CC06FF3110040EA83
:1007C0000C00D060D06840F480201BE0D1F804C059
:1007D0006FF30E0040EA0C00D0600878C00707D025
:1007E000D068D1F814C020F4403040EA0C00D0604A
:1007F0000878800607D5D068D1F810C020F0406096
:1008000040EA0C00D0600878400707D59068D1F81E
:1008100028C020F4404040EA0C009060D06840F0CE
:100820000050D060D06820F08040D060BFF35F8F70
:10083000D06840F00040D060087880077ED5D0684E
:10084000D1F80CC020F0607040EA0C007AE0D0686B
:100850005B1C042B20F08050D06000D31B1F55F888
:100860002320D06820F00050D060D068002803DB3F
:1008700005EB83004069A8B155F8261000200CE074
:10088000BFF35F8FCA68761C042E22F00042CA6054
:1008900000D3361F401C55F82610B842F0D3022072
:1008A000BDE8F08FA468206810609068D4F804C098
:1008B0006FF30D0040EA0C009060A0687F1C58B1F7
:1008C000044600685060D2F808C0A0880CEA080C02
:1008D0004CEA0040906007E0C2F804A0D2F808C0DB
:1008E0000CEA080CC2F808C00878C006D0680AD51F
:1008F000D1F81CC06FF3110040EA0C00D060D06842
:1009000040F4802010E0D1F804C06FF30E0040EAFC
:100910000C00D0600878C00707D0D068D1F814C0A8
:1009200020F4403040EA0C00D06009F10109BFF327
:100930005F8FD06840F00040D06000E003E0D068F6
:1009400020F08040D060A068002880D19068BBF182
:10095000000F02D040F0004001E020F00040906025
:10096000D06840F08050D06005EB8300696A416137
:10097000EFF31080012181F310882B6109F101014F
:10098000AA6A114480F310880020A96288E7000059
:10099000FFFF00C0F0B5026847F6020E274E4DF289
:1009A000010702F58052264DD1F800C01368254C8E
:1009B00023EA0E0343EA0C0313600B79026891F8F3
:1009C0000CE002F58052D1F808C01B0343EACE3395
:1009D00043EA0C03D2F804C02CEA070C4CEA030CDF
:1009E000C2F804C002684F7B02F580520B6A43EAEA
:1009F0000747D2F8003133403B43C2F80031026868
:100A00000B7D02F5805291F81DC00F69D2F8046188
:100A10001B0143EA0C332E403B431E43C2F80461E2
:100A200000680B7F00F580508A69D0F8081142EA0F
:100A3000C37221401143C0F80811F0BD00C0FEFF91
:100A4000EFEFC0FFFFFFC07FF0B50B790C7B0F68A5
:100A50008A68DB064D7B43EAC4533A438E7B1A43D4
:100A6000CF7B91F810C042EA855242EA4652BCF16F
:100A7000000F42EA07537CD000224C7C002C43EA52
:100A8000C24278D000238E7C0D7F42EA43428F7FA2
:100A9000D1E9053442EA06424E7F1A43224342EA34
:100AA0000532002F42EAC62466D00022CD7F91F89D
:100AB000203044EA8222002B42EA45227ED00025E3
:100AC00004684B6A42EA052291F82870464D1A43A1
:100AD000CE6A236842EA071232432B401343236055
:100AE00091F83C2091F8383091F8305091F831402D
:100AF000520642EA036291F8326042EA854242EAD3
:100B00004444BEB300220368384E4F6B44EA0242AD
:100B10005C683A4340F20F15344014435C6003684C
:100B200091F840604C6CDA6844EA0624AA432243F8
:100B3000DA6091F854300A6D91F84C4042EA430271
:100B4000ECB300240368B1F848504FF60D76E70186
:100B50001C6F47EA05452A43344014431C6702686A
:100B600091F8563091F8555052F8904F43EA4503AA
:100B700003E02BE032E02BE02CE024F003041C43E4
:100B8000146002688C6DD2F8003D23F07203234399
:100B9000C2F8003D91F86020CC6D1AB35FF00003FD
:100BA000026891F8615091F8621044EA8310D2F81B
:100BB000303D2C0144EAC101084301E00CE00FE0A4
:100BC00023F07B010143C2F8301DF0BD012254E740
:100BD000012358E7012269E7012571E7012292E725
:100BE0000124AFE70123DBE7838004000080F8C025
:100BF0002DE9F84F04464FF00108002000904FF017
:100C00004149D4E91A574FF0014A04EB8500866C3C
:100C10001CE0306930B9684600F02CFB009840B108
:100C200030613060B8F1000F10D0A06D20B148469F
:100C300003E04FF0000809E05046F0606D1C042D01
:100C400000D32D1F7F1E04EB8500866C17B1B8F111
:100C5000000FDED1E06EB84210D0E81C00F00300B7
:100C6000BFF35F8F216800EB4000226901F58051DE
:100C700002EBC000C1F82801C4E91A57BDE8F88F9B
:100C800072B6FEE7054805490839026842F00202DB
:100C9000026008688004FCD5704700000C480258C8
:100CA00070B5044600F096FD0546601C02D004486D
:100CB0000078044400F08EFD401BA042FAD370BDC2
:100CC000BC49002400297DD00268126802F00C02A1
:100CD000CA6202681268C2F3001281F82820026812
:100CE000126802F060024A620268126842F300224F
:100CF000521C81F8202002681268C2F34022CA7791
:100D00000268126842F38022521C8A7702681268D5
:100D1000C2F3C0224A7702681268C2F300320A772F
:100D20000268126802F400528A610268126802F4D2
:100D300080424A6102681268C2F300428A74026803
:100D4000126842F34042521C4A740268126842F32D
:100D5000C042521C0A7402681268C2F30052CA737D
:100D600002681268C2F340528A7302681268C2F3C2
:100D700080524A7302681268C2F3C0520A73026852
:100D8000126802F0E0628A6002681268C2F3C06210
:100D90000A710268126802F0E0420A600268526852
:100DA000C2F30D024A630268526842F30042521CC9
:100DB00081F8322002685268C2F3404281F8312043
:100DC000026800E062E05268C2F3804281F830209D
:100DD00002685268C2F3006281F8382002685268E3
:100DE000C2F34462CA630268D268C2F3002281F887
:100DF00040200268D26802F00F024A640268126F53
:100E0000C2F3400281F854200268126F42F3C0120C
:100E1000521C81F84C200268126F02F070020A65C1
:100E20000268126F120C8A640268D2F8902002F0F5
:100E3000010281F856200268D2F89020C2F34002E5
:100E400081F855200268D2F8002D02F072028A65FE
:100E50000268D2F8302D02F02302CA650268D2F887
:100E6000302DC2F3C00281F862200268D2F8302D22
:100E7000C2F3001281F861200068D0F8300D40F311
:100E80008010401C81F860000020704701207047EE
:100E9000F8B5040003D0D4F8840010B107E00120B5
:100EA000F8BD2020C4F88400204600F0D7F866483A
:100EB000016841F002010160006800F0020000904A
:100EC000207A08B14FF4000002F030F85F49206842
:100ED000096800F58050016841F00101016000F0EF
:100EE00079FCE02605464FF4FA7706E000F072FC44
:100EF000401BB84201D9042023E0206800F580504F
:100F00000068C007F2D1204600F00EFA01F098FC0C
:100F10004F4A2168B0FBF2F0401EC1F8DC002046C9
:100F2000FFF7F3FA206800F58050D0F8001121F4A3
:100F3000E01141F40021C0F800116169880705D073
:100F40000120C4F88800C4F88460A8E7206847F648
:100F5000FE7300F58050D0F808219A4342EA41011F
:100F6000C0F8081100210846E26800EB400504EBD8
:100F7000800302EBC502116051609160D160401C9A
:100F800004289A61F0D3A1620323206800F5805001
:100F9000C0F82C312068E26800F58050C0F81421B8
:100FA0002068E26800F58050C0F820215FF0000260
:100FB000206902EB420604EB820500EBC6000160EB
:100FC00041608160C160521C0161042A4161A864D2
:100FD000EED3E1652166A166E166A165206800F5B2
:100FE0008050C0F830312068226900F58050C0F888
:100FF0001C212268206902F580524830C2F828017D
:101000001025D4E90060134A134B8088C6F800030A
:10101000D4E900600778D0F8010047EA0020C6F85C
:1010200004032068D0F80C671643C0F80C672068EA
:10103000D0F810271A43C0F81027C4F88810C4F855
:1010400084500020F8BD0000F44402580404005805
:1010500040420F006000020C00C0200CF0B587B0C9
:10106000044614216846FFF7BCF9294920688842E4
:101070004CD12848016841F400410160016801F445
:1010800000410591016841F480310160016801F47B
:1010900080310591016841F400310160006800F47D
:1010A000003005901B480830016841F004010160E0
:1010B000016801F004010591016841F0010101603E
:1010C000016801F001010591016841F00201016030
:1010D000006802240025694600F0020005900326FE
:1010E0000B2732208DE8F1000B4800F057FA8620DC
:1010F00069468DE8F100094800F050FA4FF460505D
:1011000069468DE8F100064800F048FA07B0F0BDE6
:1011100000800240D84402580008025800000258DB
:10112000000402582DE9F84F4FF0000704465FEA2B
:101130000109B84604D0D4F8840040285ED106E006
:10114000D4F8880040F00100C4F8880056E0E66D4D
:101150004FF0000BE06E04EB8601C0F1040A8D6CC9
:1011600039E0E868400003D56868A06728686067D0
:10117000E868800001D4E06F28B3E868800003D5F8
:10118000C4F860B0C4F864B0E868EA68616EC0F39F
:101190000E00D200A0EB0100009003D5E9684FF0EB
:1011A0000108216704F1800100982A6983B2081FB1
:1011B00000F084F8206E401C2066626E0098104497
:1011C0006066C5F810B0761C042E00D3361F7F1C55
:1011D00004EB8600856CE868002804DB574502D2E2
:1011E000B8F1000FBDD0E06EC019E06602D0204615
:1011F000FFF7FEFCB8F1010FE66502D00120BDE863
:10120000F88FE26F0020C9F80020C4F87CB0F6E740
:101210002DE9F041044600681E46D0F80032DB0795
:1012200019D1D0F8003223F0787343EA415121F408
:10123000F81141EA024141F00D01C0F8001200F03E
:10124000C9FA4FF47A77054608E000BF00F0C2FA09
:10125000401BB84202D90120BDE8F0812068D0F8D7
:101260000002C007F2D12068D0F8040280B23060DA
:101270000020F1E71CB504460D4805F0D3FE03003D
:101280000FD003F1200020600A484FF4C0611861BC
:1012900041222068CDE900010021084606F05CFCEF
:1012A0001CBD054A01210020117020601CBD0000FA
:1012B000ACE30008D18100088449002430B5A2F1D4
:1012C0002004002525602581638105681DB10D6816
:1012D0002C600C6004E00460FBE701891944018183
:1012E00000680028F9D1002B0EDD02F01F00184421
:1012F000BFF34F8F05490A60203820320028FADCFE
:10130000BFF34F8FBFF36F8F30BD00005CEF00E085
:1013100010B519B1D0F88420102A01D0012010BDD9
:10132000FFF792FB002010BD70B505460068D0F8AD
:10133000000220F4706401F083FA1049884202D25E
:1013400044F4007416E00E49884202D244F440741A
:1013500010E00C4988420DD30B49884202D244F474
:10136000807407E00949884202D244F4806401E0B5
:1013700044F4A0642868C0F8004270BDC00E160294
:101380000087930300E1F50580D1F00880B2E60EF6
:1013900010B50446D0F88400102801D0012010BDFB
:1013A0002021C4F884100420E0662046FFF720FCCA
:1013B00020684021026842F0020202602068026850
:1013C00042F0010202602068D0F8002D42F00102D4
:1013D000C0F8002D206800F58050D0F8042142F0BC
:1013E0000102C0F80421206800F58050D0F80821DF
:1013F00042F00102C0F80821206800F58050D0F8C2
:10140000602142F48172C0F86021C4F88410002089
:1014100010BDD0F88410402901D001207047202150
:10142000C0F884101022016801F58051D1F8043110
:1014300023F00103C1F80431016801F58051D1F8AE
:10144000083123F00103C1F8083101680B6823F06B
:1014500001030B600168D1F8003D43F00103C1F8BE
:10146000003D01680B6823F002030B60C0F8842084
:10147000002070472DE9F0411546044621B1D4F80B
:101480008400402805D055E0D4F8880040F00100E1
:1014900008E000222046FFF7CDF830B1D4F88800EC
:1014A00040F00200C4F8880044E0BFF34F8FA06A08
:1014B00004EB8001401C04288E69A06201D3001F48
:1014C000A0620146206804EB810100F58050896923
:1014D000C0F8201100F07EF907461CE0206800F5F6
:1014E0008050D0F86001C0040DD5D4F8880040F0D9
:1014F0000800C4F88800206800F58050D0F860012A
:10150000C4F88C0016E0681C05D000F063F9C01B1D
:10151000A84206D82DB1F0680028DFDB0020BDE826
:10152000F081D4F888104FF0405041F00401C4F825
:101530008810F0600120F2E770B504460068D0F82A
:101540000052ED071FD1D0F800029BB2124D20F0DF
:101550007870C5F8043240EA415020F4F81040EAAF
:10156000024020F00C00001D40F00100C5F8000210
:1015700000F030F94FF47A76054606E000F02AF9DB
:10158000401BB04201D9012070BD2068D0F8000294
:10159000C007F3D170BD0000008002402DE9F84F74
:1015A00003247A4D00234FF001094FF0B04B4FF068
:1015B0000F0AE4E009FA03F6324078D00F7907F019
:1015C0000307012F01D0022F1AD187684FEA430E7B
:1015D000D1F80CC004FA0EF827EA08070CFA0EFC42
:1015E0004CEA070CC0F808C0476891F804C0B7433C
:1015F000CCF3001C0CFA03FC4CEA070CC0F804C046
:101600000E79F643B6070BD0C6684FEA43088F68D9
:1016100004FA08FC26EA0C0607FA08F73743C76005
:101620000E7906F00306022E12D1DE080F694FEA8A
:10163000437C00EB8606B646366A4FEADC6C0AFA53
:101640000CF807FA0CF726EA08063743CEF82070A4
:101650000F7906684FEA430807F0030704FA08FC0D
:1016600007FA08F726EA0C06374307604E6816F4B7
:10167000403F1CD0464E376847F002073760366857
:101680009F0706F00206009623F0030606F1B04617
:10169000B6463F0FD6F80864DFF8F8800AFA07FC70
:1016A000404526EA0C0603D14FF0000C3AE065E015
:1016B000DFF8E4C0604502D14FF0010C32E0DFF802
:1016C000DCC0604502D14FF0020C2BE0DFF8D0C047
:1016D000604502D14FF0030C24E0DFF8C8C060453C
:1016E00002D14FF0040C1DE0DFF8BCC0604502D110
:1016F0004FF0050C16E0DFF8B4C0604502D14FF0A2
:10170000060C0FE0DFF8A8C0604502D14FF0070CCF
:1017100008E0DFF8A0C0604502D14FF0090C01E0FD
:101720004FF00A0C0CFA07FC4CEA060CCEF808C481
:101730004F68DBF80060FF0226EA020600D5164378
:101740005F46CBF80060D1F804C0DBF804605FEAC4
:101750008C2C26EA020600D516437E606E684F6820
:1017600026EA0206BF0300D516436E602E684F6856
:1017700026EA0206FF0300D516432E605B1C0A68AA
:1017800032FA03F67FF416AFBDE8F88F80000058F8
:10179000F44402580000025800040258000802589D
:1017A000000C025800100258001402580018025889
:1017B000001C025800240258426921EA02030A4030
:1017C00043EA0241816170470AB1816170470904AF
:1017D000FBE700000148806870470000BC49002416
:1017E000024881680278114481607047BC49002436
:1017F000032010B500F0C6F801F068F80F4A104950
:1018000014681368C4F3032203F00F038A5CC95CF5
:1018100002F01F0201F01F01D0400A4A20FA01F134
:101820001160094908600F2000F010F808B101208C
:1018300010BD00F079F8002010BD000018440258D7
:10184000E0E30008CC490024C849002470B50D4DE0
:1018500004462878A0B14FF47A71B1FBF0F00A4940
:101860000968B1FBF0F001F06BFB48B9102C07D20E
:1018700000222146501E00F065F800206C6070BD0B
:10188000012070BDBC490024C8490024154BF0B5A7
:10189000083B427813491A600B680A1F23F00103C2
:1018A0000B6043681360057BC67A827A437B2D0701
:1018B000847B45EA0665C77B90F809C0067A90F8F4
:1018C00000E045EAC24040EA834040EA444040EA42
:1018D000074040EA0C2040EA460040EA0E0008605B
:1018E000F0BD0000A0ED00E0BFF35F8F04480021D1
:1018F0000368034A23F48033036070321160704739
:1019000024ED00E0074A40F0010006497032106003
:10191000086840F480300860BFF34F8FBFF36F8FCB
:101920007047000024ED00E0054808B5016841F06B
:1019300002010160006800F00200009008BD000094
:10194000F44402580E4BF0B41B680D46C3F3022357
:10195000C3F10706042E00D90426191D072901D258
:10196000002300E0DB1E012404FA06F19C40491E1E
:101970002940641E994014402143F0BC02F052BB40
:101980000CED00E0064900F0070210B54FF6FF0429
:101990000868044B204040EA02201843086010BD4C
:1019A0000CED00E00000FA05134970B50A68D24357
:1019B000520705D5096801F00701814213D118E0EB
:1019C0000A6822F0070202430A60FFF703FF0A4D8C
:1019D0004FF47A760446083D07E000BFFFF7FAFEB1
:1019E000001BB04201D9012070BD2868C0438004AB
:1019F000F4D4002070BD00000C48025810B500F06F
:101A00001FFF05490968054AC1F30211515C01F045
:101A10001F01C84010BD000020440258E0E3000848
:101A2000494930B5484C0B1D0A68143409681D68D3
:101A3000246802F00303C5F30012C1F30531C4F3B7
:101A4000CC04002914FB02F200EE102AF8EE400A42
:101A500075D03F4A9FED3D1AB7EE000A6BB1DFED3E
:101A60003D1A012B01D0022B64D002EE101A11682E
:101A7000F8EE422A81EEA22A21E0334C283C23686A
:101A80009B0612D5344B246801EE901A1168C4F3FA
:101A9000C104F8EE612AE34001EE903AC1F3080177
:101AA000F8EE611A81EEA22A0BE001EE901ADFED4A
:101AB0002B2A00BFF8EE611A116882EEA12AC1F349
:101AC000080101EE901A1168F8EE611A40EE811AD1
:101AD00071EE800A62EE200AC1F3462101EE101A6F
:101AE000B8EE411A31EE001AC0EE811ABCEEE11ACE
:101AF00080ED001A1168C1F3064101EE101AB8EE2C
:101B0000411A31EE001AC0EE811ABCEEE11A80EDE6
:101B1000011A1168C1F3066101EE101AB8EE411AFC
:101B200031EE000A80EE801ABCEEC10A80ED020A96
:101B300030BD04E001EE901ADFED092ABAE700217A
:101B4000016041608160F3E72844025800000039D9
:101B5000384402580024744A0090D0030024744C86
:101B600020BCBE4B494930B5484C0B1D0A681C349B
:101B700009681D68246802F00303C5F30022C1F35D
:101B80000551C4F3CC04002914FB02F200EE102A24
:101B9000F8EE400A75D03F4A9FED3D1AB7EE000AB5
:101BA0006BB1DFED3D1A012B01D0022B64D002EEA8
:101BB000101A1168F8EE422A81EEA22A21E0334C75
:101BC000283C23689B0612D5344B246801EE901AFA
:101BD0001168C4F3C104F8EE612AE34001EE903AC3
:101BE000C1F30801F8EE611A81EEA22A0BE001EEC2
:101BF000901ADFED2B2A00BFF8EE611A116882EE11
:101C0000A12AC1F3080101EE901A1168F8EE611AD9
:101C100040EE811A71EE800A62EE200AC1F346217D
:101C200001EE101AB8EE411A31EE001AC0EE811A18
:101C3000BCEEE11A80ED001A1168C1F3064101EE15
:101C4000101AB8EE411A31EE001AC0EE811ABCEE3D
:101C5000E11A80ED011A1168C1F3066101EE101A54
:101C6000B8EE411A31EE000A80EE801ABCEEC10ACD
:101C700080ED020A30BD04E001EE901ADFED092A82
:101C8000BAE70021016041608160F3E7284402580F
:101C900000000039404402580024744A0090D003E8
:101CA0000024744C20BCBE4B2DE9FE4F0546DFF8E6
:101CB00000A450F8081B0024FD4FC943019005F112
:101CC000280026460AF1240A009008011DD4686EF7
:101CD00050B1B0F5801F0CD0B0F5001F0ED0B0F59C
:101CE000401F1ED001240FE0386840F400303860F7
:101CF00017E00198022101F06BFC03E0009802213B
:101D000001F0F6FC04000CD026462888C043C0052C
:101D100023D4A86D05281ED2DFE800F00C11161B95
:101D20001B006A6EDAF8001021F440111143CAF862
:101D30000010EAE7386840F40030386009E00198A4
:101D4000002101F045FC03E00098002101F0D0FCE7
:101D50000446C4B100E0012426462888DFF85083F9
:101D6000C04308F12C0840052FD4D5F8A400B0F5E5
:101D7000C00F28D010DCB8B1B0F5001F19D0B0F5F5
:101D8000800F0FD11AE0AA6DDAF8001021F00701D8
:101D90001143CAF80010E0E7B0F5000F13D0B0F51A
:101DA000200F10D001240FE0386840F40030386074
:101DB00009E00198002101F00BFC03E000980021EC
:101DC00001F096FC044694B126462888C0430005DD
:101DD00030D4D5F8A800B0F1407F29D011DCC0B1D3
:101DE000B0F1807F1AD0B0F1007F10D11BE0D5F8A0
:101DF000A420D8F8001021F460011143C8F80010A5
:101E0000E3E7B0F1806F13D0B0F1A06F10D00124E0
:101E10000FE0386840F40030386009E00198002194
:101E200001F0D6FB03E00098002101F061FC0446BC
:101E300094B126462868DFF878B2C0430BF1200B36
:101E400080011FD4E86CD8B110280FD0202812D000
:101E5000302815D0012414E0D5F8A820D8F80010B7
:101E600021F0E0611143C8F80010E3E7386840F45E
:101E70000030386004E00198022101F0A9FB04461B
:101E800074B126462888C043C0042BD4E86DB0F551
:101E9000005F20D00DDCA0B1B0F5805F0FD115E060
:101EA000EA6CDBF8001021F030011143CBF8001090
:101EB000E8E7B0F5405F13D0B0F5804F10D00124B3
:101EC0000FE0386840F40030386009E001980021E4
:101ED00001F07EFB03E00098002101F009FC0446BC
:101EE0008CB126462888C043800429D4286EB0F5DA
:101EF000403F23D010DC08B3B0F5803F14D0B0F5DC
:101F0000003F0FD115E0EA6DDAF8001021F4E0414E
:101F10001143CAF80010E5E7B0F5802F0ED0B0F5F8
:101F2000A02F0BD001240AE00198012101F050FB01
:101F300003E00098012101F0DBFB044694B1264642
:101F40002888C04340042AD4D5F8AC00B0F1405FE3
:101F500023D010DC08B3B0F1805F14D0B0F1005F83
:101F60000FD115E02A6EDAF8001021F4E0211143B8
:101F7000CAF80010E4E7B0F1804F0ED0B0F1A04FE6
:101F80000BD001240AE00198012101F021FB03E0BC
:101F90000098012101F0ACFB044674B12646288864
:101FA000C04300041FD4E86ED8B1B0F1805F0ED0FA
:101FB000B0F1005F10D0012414E0D5F8AC20D8F8BF
:101FC000001021F0E0411143C8F80010E7E738683D
:101FD00040F40030386004E00198012101F0F8FA83
:101FE000044674B126462868C043C0011ED4A86CBC
:101FF000D0B101280ED0022811D0032814D001241A
:1020000013E0EA6EDAF8001021F040511143CAF8EB
:102010000010E8E7386840F40030386004E00198C8
:10202000022101F0D5FA04466CB126462868C04367
:10203000400255D41F48016841F480710160FFF7E8
:10204000C9FB81460EE0AA6CDBF8001021F0030109
:102050001143CBF80010E9E7FFF7BCFBA0EB090048
:1020600064283BD813480068C005F5D5BCBBDFF831
:102070004090B5F8B01009F14409D9F8000001F416
:10208000407100F44070884211D0D9F80010D9F89E
:10209000002021F4407142F48032C9F80020D9F8C0
:1020A000002022F48032C9F80020C9F8001003E0B3
:1020B0002C44025800480258D5F8B000B0F5807F93
:1020C00019D1FFF787FB029011E000BFFFF782FBF9
:1020D0000299411A41F28830814208D903242646E8
:1020E0002878DFF81494C043C00721D03CE0D9F829
:1020F00000008007EAD5D5F8B010C1F3012003280D
:10210000FE480DD0016821F47C510160B5F8B02083
:10211000D9F80010C2F30B021143C9F80010DFE731
:10212000F74A036802EA111223F47C511143ECE7E9
:10213000A86F182816D005DCA0B1082808D01028F0
:1021400004D10AE020280DD028280BD001240AE071
:102150000198012101F03CFA03E00098012101F00F
:10216000C7FA044664B126462878C04380071ED4C7
:10217000686F062819D2DFE800F0160C1116161643
:10218000AA6FD9F8001021F038011143C9F80010E6
:10219000EAE70198012101F01BFA03E00098012110
:1021A00001F0A6FA04467CB100E001242646287816
:1021B000C04340071FD4D5F89000062819D2DFE8A5
:1021C00000F0160C111616166A6FD9F8001021F0DF
:1021D00007011143C9F80010E9E70198012101F056
:1021E000F7F903E00098012101F082FA0446A4B156
:1021F00000E0012426462878C04380062BD4D5F879
:102200008C00B0F1405F24D011DC10B3B0F1805FDE
:1022100015D0B0F1005F10D116E0D5F89020D8F8B5
:10222000001021F007011143C8F80010E3E7B0F1F6
:10223000804F0ED0B0F1A04F0BD001240AE00198DE
:10224000002101F0C5F903E00098022101F050FAE5
:10225000044694B126462878C04340062BD4D5F8CE
:102260009800B0F5406F24D011DC10B3B0F5806F4A
:1022700015D0B0F5006F10D116E0D5F88C20D9F844
:10228000001021F0E0411143C9F80010E3E7B0F578
:10229000805F0ED0B0F5A05F0BD001240AE001985A
:1022A000002101F095F903E00098022101F020FAE5
:1022B000044694B126462878C04300062BD4D5F8AE
:1022C0009C00B0F5C04F24D011DC10B3B0F5005F16
:1022D00015D0B0F5804F10D116E0D5F89820D8F879
:1022E000001021F4E0511143C8F80010E3E7B0F505
:1022F000004F0ED0B0F5204F0BD001240AE001981A
:10230000002101F065F903E00098022101F0F0F9E5
:10231000044654B126462878C04300071ED4D5F899
:102320008000B0F5805F0AD00FE0D5F89C20D8F887
:10233000001021F460411143C8F80010EBE7009849
:10234000022101F0D5F900B10126D5F88020D9F895
:10235000001021F440511143C9F800102878C043FF
:10236000C00613D4D5F89400B0F5807F05D100984D
:10237000022101F0BDF900B10126D5F89420D8F86A
:10238000001021F440711143C8F800102868C043C0
:10239000000316D4D5F8A00038B1B0F5803F09D0BD
:1023A000B0F5003F0BD001240AE00198002101F0B4
:1023B0000FF903E00098022101F09AF904468CB16C
:1023C00026462868C043400322D4D5F88400B0F5DF
:1023D000801F11D0B0F5001F13D0B0F5401F15D0ED
:1023E000012414E0D5F8A020D8F8001021F44031E1
:1023F0001143C8F80010E4E7386840F40030386052
:1024000004E00098012101F073F904465CB126460E
:102410002868C043C0031CD4286D70B1B0F5803F5C
:1024200010D0012414E0D5F88420D9F8001021F44C
:1024300040111143C9F80010EAE7386840F4003051
:10244000386004E00198022101F0C2F80446DCB1D2
:1024500026462868C043800005D40098022101F078
:1024600047F900B101262868C04380031BD4E86FF8
:10247000B8B1B0F5807F10D0B0F5007F11D0B0F5C5
:10248000407F0ED001240DE02A6DDBF8001021F40E
:1024900080311143CBF80010DBE7386840F400309E
:1024A00038607CB326462868C043C00207D42A6F30
:1024B000DAF8001021F000411143CAF80010286832
:1024C000C043800207D4AA6EDAF8001021F08071B0
:1024D0001143CAF800102868C043400009D40748D7
:1024E000016821F4004101600168D5F8B42011436E
:1024F00001602868C04306E0544402581044025862
:10250000CFFFFF001DE007D46A6DDBF8001021F05B
:1025100040511143CBF800102868C043000208D492
:10252000D5F88820D9F8001021F440011143C9F8EA
:10253000001028790024C04300F00100204309D096
:102540000EE0EA6FD9F8001021F440711143C9F888
:102550000010A8E70198002101F03AF800B1064602
:102560002879C04300F00200204305D101980121E1
:1025700001F02EF800B106462879C04300F00400AF
:10258000204305D10198022101F022F800B106464E
:102590002879C04300F00800204305D100980021AD
:1025A00001F0A6F800B106462879C04300F01000FB
:1025B000204305D10098012101F09AF800B10646A8
:1025C0002879C04300F02000044304D10098022180
:1025D00001F08EF800B916B10120BDE8FE8F002091
:1025E000FBE700002DE9F05F04000F467ED0DFF826
:1025F0003882D8F8000000F00F00B8420CD2D8F8AA
:10260000001021F00F013943C8F80010D8F800007D
:1026100000F00F00B84269D12078844D40070AD5F8
:102620002069296801F07001884204D9296821F0E5
:1026300070010143296020787C4E361D00070AD5C1
:102640006069316801F07001884204D9316821F075
:102650007001014331602078C0060AD5A069316855
:1026600001F4E061884204D9316821F4E06101435A
:1026700031602078DFF8B4B180060BF1080B0CD57F
:10268000E1695846DBF8002002F07002914204D95B
:10269000026822F070020A430260207880070AD59F
:1026A000E068296801F00F01884204D9296821F007
:1026B0000F01014329602078C0073ED05B49A26822
:1026C0002868183920F47060104328606068022878
:1026D00018D0032819D00968012819D04907002902
:1026E0004ADADFF848A1AAF1080A00E044E0DAF883
:1026F000002022F007020243CAF80020FFF76AF820
:10270000814612E009688903E9E709688901E6E77B
:10271000C905E4E7FFF75EF8A0EB090141F2883054
:10272000814202D90320BDE8F09F6168DAF8000019
:1027300000F03800B0EBC10FECD1207880070AD54B
:10274000E068296801F00F01884204D2296821F06D
:102750000F0101432960D8F80010404601F00F0135
:10276000B9420BD9016821F00F01394301600068BB
:1027700000F00F00B84201D00120D4E720784007D4
:102780000AD52069296801F07001884204D22968BD
:1027900021F0700101432960207800070AD56069A3
:1027A000316801F07001884204D2316821F0700173
:1027B000014331602078C0060AD5A069316801F470
:1027C000E061884204D2316821F4E0610143316064
:1027D000207880060CD5E1695846DBF8002002F02D
:1027E0007002914204D2026822F070020A43026031
:1027F00000F06CF80E492A682B68C2F3032203F03C
:102800000F038A5CC95C02F01F0201F01F01D04077
:10281000084A20FA01F1116007490860074800687A
:10282000BDE8F05FFFF712B80020005218440258CC
:10283000E0E30008CC490024C8490024C049002432
:1028400030B500F043F80B4A0B490C4B156814687F
:10285000C5F3032204F00F048A5C095D02F01F0235
:1028600001F01F01D040064A20FA01F11960106002
:10287000084630BD18440258E0E30008CC49002463
:10288000C849002400B5FFF7DBFF05490968054A80
:10289000C1F30211515C01F01F01C84000BD0000EE
:1028A0001C440258E0E3000800B5FFF7C9FF0549E2
:1028B0000968054AC1F30221515C01F01F01C840BB
:1028C00000BD00001C440258E0E30008454970B513
:1028D00045480968434B103B11F0380208D00111FC
:1028E000082A03D0102A0BD0182A0BD0084670BD36
:1028F00019688906FBD51968C1F3C101C84070BDCC
:102900003A4870BD3749374D18310C1D24350A68D7
:10291000096826682D6802F0030406F00102C1F37D
:102920000511C5F3CC0515FB02F200EE102AB8EE36
:10293000400AE9B32F4ADFED2E0AB7EE001A6CB158
:10294000DFED2D1A012C01D0022C43D002EE101A1B
:102950001068F8EE422A81EEA22A1EE01C68A40646
:1029600011D51B6801EE901A1168C3F3C103F8EE8C
:10297000612AD84001EE900AC1F30800F8EE611A0E
:1029800081EEA22A0BE001EE901ADFED1C2A00BFB7
:10299000F8EE611A106882EEA12AC0F3080001EE79
:1029A000900AF8EE611A40EE201A31EE810A00E03A
:1029B00015E022EE000A1068C0F34620401C00EE2D
:1029C000900AF8EE600A80EE201ABCEEC10A10EE02
:1029D000100A70BD01EE901ADFED092AD8E7002039
:1029E00070BD0000104402580090D00340787D0173
:1029F00000000039304402580024744A0024744C0A
:102A000020BCBE4B2DE9F05F04007DD0FF4F207845
:102A1000FE4D1837DFF8F483103DC00748D0D8F8D2
:102A20000000396800F03800102815D0182803D1AC
:102A300001F0030002280FD06068B0F5803F12D08B
:102A400010B1B0F5A02F18D0286820F4803028608D
:102A5000286820F4802009E02868800328D5606871
:102A60000028D2D024E0286840F4803028606068D4
:102A700088B1FEF7AFFE064609E0286840F48020E2
:102A80002860F0E7FEF7A6FE801BC8287ED82868DD
:102A90008003F7D50CE0FEF79DFE064605E000BF7B
:102AA000FEF798FE801BC828F0D828688003F7D46A
:102AB0002078800756D5D8F80000DFF850933968A1
:102AC00010F03800A9F10C090ED0182801D18807A0
:102AD0000AD0E068A8B3296821F0190101432960F0
:102AE000FEF778FE064628E02868400702D5E06831
:102AF00000288AD0E168286820F01900084328607F
:102B0000FEF768FE064606E0D2E000BFFEF762FE72
:102B1000801B0228BAD828684007F7D5217CD9F84D
:102B2000002022F0FE4242EA0161C9F8001019E0DB
:102B3000FEF750FE801B0228A8D828684007F7D56A
:102B4000ECE7FFE7286820F001002860FEF742FE6E
:102B5000064604E0FEF73EFE801B022896D8286851
:102B60004007F7D42078C00646D5D8F80000DFF833
:102B70009C92396800F03800A9F10409082812D0A5
:102B8000182805D101F00300012800E0CEE00AD0AA
:102B9000E0690028286820D040F080002860FEF717
:102BA00019FE064615E02868C00502D5E0698028B0
:102BB0007ED194F82010D9F8002022F07C5242EA0D
:102BC0000161C9F8001017E0FEF704FE801B02281F
:102BD000A0D82868C005F7D5EBE720F08000286072
:102BE000FEF7F8FD064604E0FEF7F4FD801B022820
:102BF00090D82868C005F7D42078000729D58348E5
:102C00006169643000298146016811D041F00101F9
:102C10000160FEF7DFFD064605E000BFFEF7DAFDC6
:102C2000801B022888D8D9F800008007F6D510E06C
:102C300021F001010160FEF7CDFD064605E000BF71
:102C4000FEF7C8FD801B022870D8D9F80000800765
:102C5000F6D42078800623D5A0690028286810D0F3
:102C600040F480502860FEF7B5FD064605E000BF41
:102C7000FEF7B0FD801B022858D828688004F7D5DD
:102C80000EE020F480502860FEF7A4FD064604E024
:102C9000FEF7A0FD801B022848D828688004F7D4DE
:102CA0002078400751D5DFF86891D9F8001000E08E
:102CB00015E141F48071C9F80010FEF78BFD06465E
:102CC00005E000BFFEF786FD801B64282ED8D9F8EA
:102CD0000000C005F6D54D4EA068603601280AD028
:102CE00008B1052813D0306820F00100306030684A
:102CF00020F0040002E0306840F001003060A0687D
:102D000041F2883A98B1FEF765FD81460AE03068E5
:102D100040F004003060EEE7FEF75CFDA0EB090137
:102D2000514503D830688007F6D50EE072E0FEF713
:102D300051FD814606E000BFFEF74CFDA0EB090106
:102D4000514567D830688007F6D4606A00287CD087
:102D5000DFF8B8A0D8F800100AF1200A4FF6F87B87
:102D60000AF10408C1F3C2010329AAF104096DD0D4
:102D70000228286820F08070286003D0FEF72AFD22
:102D8000044681E0FEF726FD064604E0FEF722FD3C
:102D9000801B022875D828688001F7D4E26A40F2C7
:102DA000F331386854F8283F884340EA021018434A
:102DB0003860217B4FF4FE0C22894FF0FE47208AB9
:102DC0004902267D521E401EA1F5007189B2C2F350
:102DD00008021143761E0CEA00400143484607EA08
:102DE00006621143CAF80010D9F8001021F0010161
:102DF000C9F80010D8F80030266A23EA0B0343EA2A
:102E0000C601C8F80010D9F8001004E010440258B8
:102E10000048025835E0A26921F00C011143C9F8BD
:102E200000100168E26921F00201114301600168AC
:102E300041F480310160016841F4003101600168B2
:102E400041F480210160016801E06CE020E041F084
:102E500001010160286840F080702860FEF7BAFC2C
:102E6000044604E0FEF7B6FC001B022809D82868D7
:102E70008001F7D557E000BFFEF7ACFC001B02282D
:102E800002D90320BDE8F09F28688001F4D44AE00D
:102E900039680128DAF8000021D0A26A01F00303A2
:102EA00093421CD1E26AC1F305118A4217D1216B0A
:102EB000C0F30802491E8A4211D1616BC0F3462259
:102EC000491E91420BD1A16BC0F30642491E9142AB
:102ED00005D1E16BC0F30660491E814201D001209B
:102EE000D0E7A16C4646D8F80000C0F3CC00814280
:102EF00019D0D9F800004D4620F00100C9F80000B3
:102F0000FEF768FC4FEA0007FEF764FCB842FBD00E
:102F1000A26C306820EA0B0040EAC20030602868EA
:102F200040F0010028600020ACE7000003490A6877
:102F300022F4600202430A60704700000404005853
:102F4000401EB0F1807F10B501D3012010BD4FF0BD
:102F5000E02460610F21601701F064F80020A06197
:102F60000721216110BD30B590F88410012918D0D7
:102F7000012280F884202421C0F888100022202417
:102F800001680B680D6823F0005325F001050D6002
:102F9000426601680B60C0F8884080F884201046C3
:102FA00030BD022030BD70B5044690F88400012881
:102FB0001DD0012284F884202420C4F888002068D1
:102FC0000568026822F0010202602068826822F02F
:102FD00060620A438260204600F0D4FC226820210F
:102FE00000201560C4F8881084F8840070BD0220A9
:102FF00070BD70B5044690F8840001281DD00122F0
:1030000084F884202420C4F88800206805680268B9
:1030100022F0010202602068826822F060420A43C6
:103020008260204600F0AEFC22682021002015605E
:10303000C4F8881084F8840070BD022070BD10B5FB
:10304000040003D0D4F8880010B107E0012010BDBF
:10305000002084F88400204600F026F82420C4F8DC
:1030600088002068016821F001010160A06A10B1A8
:10307000204600F0A9FC204600F08AFD0128E6D099
:103080002068416821F4904141602068816821F006
:103090002A0181602068016841F001010160204639
:1030A000BDE8104000F0F4BC10B5B4B004461421E3
:1030B0002EA8FDF796F9B8216846FDF792F919494F
:1030C000206888422BD100201E9001210446CDE9C2
:1030D00000106846FEF7E8FD08B1FDF7D1FD124883
:1030E000016841F010010160006800F010003390A9
:1030F0000D481038016841F00101016000682EABF5
:10310000022100F0010033904FF4C060072283E8F1
:10311000130006482EA9CDE93142FEF73FFA34B03C
:1031200010BD000000100140F04402580000025899
:103130002DE9F8430446D0F88800984616460D4617
:10314000202802D00220BDE8F883A5B19EB100215D
:10315000C4F890102120C4F888001834FEF73AFB18
:10316000814654F8100CA687E6872027183CB0F556
:10317000805F02D003E00120E5E7206910B12E4610
:10318000002510E000260EE08021204600F0EEFE33
:10319000C0B9DEB116F8010B21688862B4F8560098
:1031A000401EA4F85600B4F856004B464FF00002FB
:1031B000CDF800800028E7D14FF04001204600F014
:1031C000D5FE48B1C4F888700320BCE735F8020B7F
:1031D0002168C0F30800E0E7C4F888700020B2E777
:1031E000FEE738B504466A46002000900121636975
:1031F0002068984700286FF0040525DB63690121EA
:1032000020686A46984700281EDB0098400701D4D2
:10321000012038BD6369002120686A46984700286C
:1032200012DB0098C10408D44FF4045181431CD030
:1032300081041CD4C0051CD415E063691F212068DB
:103240006A469847002801DA284638BD0098C1042C
:1032500001D4062038BDC0F38200062805D002281C
:1032600005D0052805D0052038BD022038BD032033
:1032700038BD042038BDF8B505460020009004464E
:103280006868002610BBA86800B18047202028602D
:103290006FF004076B6912216A46204698470028A0
:1032A00001DA3E460AE0009800F01F00A04205D176
:1032B0001F2C4FF000062C6006D809E0641C1F2C60
:1032C000E8D92C681F2C02D96FF0020602E00EB973
:1032D000012068603046F8BD88B1CA687AB18A6852
:1032E0006AB10A695AB10A6882604A68C260CA68EB
:1032F00042618A68026109698161002070474FF06C
:10330000FF3070477FB50024009401940294039429
:10331000FEF7EAFA07218DF808108DF80C40012518
:103320008DF809404FF040508DF80D4003228DF884
:1033300000508DF80A408DF80E408DF80140019044
:1033400068468DF80B208DF80F50FEF79FFA0A485B
:103350000D218DF808108DF80D508DF80150019059
:1033600068468DF80A508DF80F40FEF78FFA062058
:10337000FEF7C8FA7FBD0000004000302DE9F043A1
:1033800087B014216846FDF72CF82748016841F002
:1033900080010160016801F080010591016841F040
:1033A00004010160016801F004010591016841F028
:1033B00001010160016801F001010591016841F01E
:1033C00010010160016801F010010591016841F0F0
:1033D0000201016000684FF46046DFF8508000226F
:1033E00000F00200314605904046FEF7EDF901225B
:1033F000DFF83C90170248463946FEF7E5F900240D
:103400000096012569464046CDE901540394FEF734
:10341000C5F800976946CDE9015448460394FEF784
:10342000BDF807B0BDE8F083E04402580010025830
:1034300000000258FEB5374CC021A822251D0027E8
:10344000217003236270FF20A7702E1DE3700123FB
:1034500028706870A870EF7031707270B770F37078
:1034600003F0EEF82068E1782B4A90FA80FC2B4BB1
:1034700090FA80FE00BA0C060CF47F4C084344EA34
:103480000C240EF47F0CA5F1100144EA1C2444EA3C
:10349000106008602868E97890FA80FC05BA00BAE4
:1034A0000C06084305F47F450CF47F0CA6F11001CF
:1034B00044EA052444EA1C2444EA106008603068A9
:1034C000F17805BA06BA00BA0C060843114905F4AA
:1034D0007F45091F06F47F0644EA052444EA1624C2
:1034E00044EA106008600097CDE901320A1F0C48D9
:1034F0000B46083903F0DCFD094803F0F5FF0848E6
:1035000004F006F903B007490548BDE8F04004F0AF
:1035100045B80000B0490024D14E0008055100080C
:103520001C4C00240950000870B50B4801F032FE15
:1035300005F064F9084DFEF74DF9084C2168401A72
:10354000642807D3FEF746F920602846BDE870409E
:1035500001F010BD70BD00001C4C0024A0490024E7
:103560001848002110B5164C0C224FF4E1330460CA
:10357000C0E90131C160C0E904128161C161016229
:1035800041628162FFF75BFD08B1FDF779FB0D48F1
:103590000021FFF72EFD08B1FDF772FB094800215D
:1035A000FFF701FD08B1FDF76BFB0648FFF7DBFCF9
:1035B000002803D0BDE81040FDF762BB10BD00003D
:1035C00000100140804A0024FEE7FEE7704700003B
:1035D0002DE9F047454D044689464FF0000A28681A
:1035E000C04380070AD0414E283E306820F08060FA
:1035F0003060FEF7EFF80746B04608E00120BDE86E
:10360000F08700BFFEF7E6F8C01B022867D8D8F89D
:1036100000000001F6D4206829684FF4FE0721F469
:103620007C313E0241EA00302860207AA389B4F858
:1036300004C040022D4D2D495B1E227CACF1010CD3
:103640001035091DA0F5007080B2521ECCF3080C95
:1036500007EA034340EA0C00184306EA02621043FB
:1036600028600868626920F0C000104308600A689A
:10367000A06922F0200202430A60281D0A6822F095
:1036800010020A6002684FF6F873E4699A4342EA4E
:10369000C40202600868B9F1000F40F010020A602D
:1036A00011D00868B9F1010F11D040F40010086082
:1036B000D8F80000444640F08060C8F80000FEF7EB
:1036C00089F805460DE0086840F40020EFE740F473
:1036D0008010ECE7FEF77EF8401B022801D903209A
:1036E0008DE720680001F5D5504688E72844025848
:1036F0002DE9F047454D044689464FF0000A2868F9
:10370000C04380070AD0414E283E306820F08050E8
:103710003060FEF75FF80746B04608E00120BDE8DC
:10372000F08700BFFEF756F8C01B022867D8D8F80C
:1037300000008000F6D4208829684FF4FE0721F0AD
:103740007C713E0241EA00502860207AA389B4F8D7
:1037500004C040022D4D2D495B1E227CACF1010CB2
:103760001835091DA0F5007080B2521ECCF3080C6C
:1037700007EA034340EA0C00184306EA02621043DA
:1037800028600868626920F44060104308600A6895
:10379000A06922F4007202430A60281D0A6822F41C
:1037A00080720A6002684FF6F873E4699A4342EA4D
:1037B000C40202600868B9F1000F40F480720A6028
:1037C00011D00868B9F1010F11D040F08070086085
:1037D000D8F80000444640F08050C8F80000FDF7DB
:1037E000F9FF05460DE0086840F48000EFE740F47B
:1037F0000000ECE7FDF7EEFF401B022801D9032093
:103800008DE720688000F5D5504688E728440258A7
:103810007047FDF7E5BF000070B59CB04C216846CD
:10382000FCF7DFFD202113A8FCF7DBFD0220FEF7EB
:10383000BBF81D48016821F4404101600168002483
:1038400001F440411B9101688904FCD502200990D4
:103850000121C20305236826CDE900120AAA082522
:1038600082E84900CDE90D10CDE910540F9068466B
:103870001294FFF7C7F808B172B6FEE740201A901D
:103880003F210301CDE916500322CDE9180313AB04
:1038900013A883E816001146FEF7A4FE002801D005
:1038A00072B6FEE71CB070BD184802582D48F0B53E
:1038B0002D4A016841F470010160106800F00F00AA
:1038C000072804D2106820F00F00C01D106027499F
:1038D0000020264C10340B68254D43F001030B608B
:1038E00020600B682B400B60136803F00F03072B5D
:1038F00004D9136823F00F03DB1D13601B4C1D4A12
:1039000018341D4B261D371D2060184C1B4D2834C4
:103910003060261D3860371D23603B1D35601C1D3F
:103920003A60251D2E1D1860331D2260286032600C
:1039300018600B680D4A0D4C23F48023D4320B60C1
:10394000603420601068C0040BD4136843F2D200C6
:103950000B4943F4805313600860106820F48050D2
:103960001060F0BD88ED00E00020005200440258D5
:103970007FEDF6EA80020101000202020000FF0171
:103980000040005230B5416EB9B101680D4B03F1F2
:1039900008048A688968C2F34262490F5D5C615C11
:1039A0002D01B5FBF1F1A0F86A10995CA25C090148
:1039B000B1FBF2F1A0F8681030BD0121A0F86A1047
:1039C000F8E70000D0E3000890F82810090706D5B2
:1039D0000168836B4A6822F400421A434A6090F8F7
:1039E0002810C90706D00168C36A4A6822F4003269
:1039F0001A434A6090F82810890706D50168036BBE
:103A00004A6822F480321A434A6090F82810490725
:103A100006D50168436B4A6822F480221A434A6043
:103A200090F82810C90606D50168C36B8A6822F48D
:103A300080521A438A6090F82810890606D50168DA
:103A4000036C8A6822F400521A438A6090F82810A6
:103A5000490611D50168436C4A6822F480121A4362
:103A60004A60416CB1F5801F06D10168836C4A68D9
:103A700022F4C0021A434A6090F82810090606D5BD
:103A80000168C26C486820F4002010434860704709
:103A90002DE9F84300250446C0F89050FDF79AFE42
:103AA0008046206820266FF07E470068000713D507
:103AB0000022434631042046009700F057FA58B1DF
:103AC000216851E8000F20F0800041E80002002A40
:103AD000F6D1C4F8886021E020680068400722D54C
:103AE000002243464FF480012046009700F03EFA42
:103AF000C8B1206850E8001F21F4907140E800121E
:103B0000002AF6D12068083050E8001F21F001019A
:103B100040E80012002AF5D1C4F88C60032084F834
:103B20008450BDE8F883C4F88860C4F88C60E5660A
:103B30002567002084F88450F3E7000010B5026880
:103B400052E8001F21F4907142E80013002BF6D1D7
:103B50000E4B0268083252E8001F194042E8001478
:103B6000002CF6D1C16E012908D1026852E8001F6D
:103B700021F0100142E80013002BF6D10021202291
:103B8000C0F88C20C166416710BD0000FEFFFFEF4A
:103B90002DE9F04304468068E24E87B0E24B21688D
:103BA000D4E90427D4F81CC010430A68002547EA6A
:103BB0000C073843324002430A602068E2684168DB
:103BC00021F44051114341602268A1699A4201D019
:103BD000206A01439668DFF854C3D54FD54806EAFA
:103BE0000C060E4396602168666ACA6A22F00F02CC
:103BF0003243CA622268BA420ED1006800F038002F
:103C000018286FD07ADCB8B308286CD010286BD194
:103C10008BE0282868D18EE0C7498A4209D1006824
:103C200000F0070006285FD2DFE800F0507D7F81BA
:103C30008385C2498A4209D1006800F0070006283E
:103C40007BD2DFE800F0437072747678BC498A4218
:103C500009D1006800F0070006286ED2DFE800F006
:103C600036636567696BB7498A420BD1006800F01B
:103C70000700062861D200E043E0DFE800F02754A7
:103C800056585A5CB0498A4206D1006800F03800A4
:103C900018284CD0B7DD31E0AC498A4209D1006820
:103CA00000F00700062848D2DFE800F0103D3F4151
:103CB0004345A7498A420BD1006800F00700062857
:103CC0003BD2DFE800F0033032343638002035E0F4
:103CD000A0498A4209D1006800F03800182826D08F
:103CE00091DD0BE023E01EE027E09B498A420AD1E8
:103CF000006800F03800182819D084DD202888D109
:103D00001CE001201AE09A4217D18A48001D006881
:103D100000F00700062810D2DFE800F003050709CD
:103D20000B0D02200AE0042008E0082006E0102025
:103D300004E0202002E0402000E080208749DFF8F6
:103D400020829A42874A4FF400434FEA21174FF0EE
:103D500000064ED110281AD006DC022809D004280B
:103D60000BD008287ED10DE020283ED0402879D104
:103D70003DE0FDF743FE014610E06846FDF750FECA
:103D800001990BE003A8FDF7EDFE049906E0106829
:103D9000800605D51068C0F3C100C140002970D06D
:103DA000606A676838F8102007EB4703B1FBF2F050
:103DB000834257D8B0EB073F54D800230846194632
:103DC000FCF7A4FA02467808130E120243EA012116
:103DD00010183A4671410023FCF798FA624AA0F5A0
:103DE000407191423ED821688FE03946D8E71946A4
:103DF000D6E7D4F81CC04FF6EF799C4546D1082889
:103E000019D005DC58B101280CD0042875D10DE07B
:103E1000102815D0202835D040286ED134E0FEF788
:103E200031FD01E0FEF740FD014610E06846FDF778
:103E3000F7FD01990BE003A8FDF794FE049906E055
:103E40001068800604D51068C0F3C100C140C1B13C
:103E5000636A606838F81330B1FBF3F1490001EB95
:103E6000500100E049E0B1FBF0F0A0F1100149453C
:103E700043D84FF6F0732168C0F342021840104354
:103E800043E043E03946E3E71946E1E7082819D063
:103E900005DC58B101280CD004282ED10DE01028E3
:103EA00015D020282BD0402827D12AE0FEF7EAFCA5
:103EB00001E0FEF7F9FC014610E06846FDF7B0FDB1
:103EC00001990BE003A8FDF74DFE049906E0106888
:103ED000800604D51068C0F3C100C140B1B1636A67
:103EE000606838F81330B1FBF3F101EB5001B1FB1E
:103EF000F0F0A0F11001494505D9012506E0394649
:103F0000EDE71946EBE7216880B2C8600120A4F80C
:103F10006A00A4F8680028466667A66707B0BDE88F
:103F2000F0830000F369FFCF000C0058FFF4FF118D
:103F30000010014054440258004400400048004032
:103F4000004C004000500040001401400078004048
:103F5000007C004000180140001C01400090D0038C
:103F6000B8E3000800440258FFFC0F002DE9F047B9
:103F7000994617460D460446089E4FF0000833E068
:103F8000701C31D0FDF726FCA0EB0900B04218D818
:103F9000BEB120680168490726D5802D24D0402D68
:103FA00022D0C169C94309070DD4082505622046FE
:103FB000FFF7C4FDC4F89050012084F88480BDE868
:103FC000F0870320FBE7C069C04300050CD42168DB
:103FD0004FF4006008622046FFF7B0FD2021C4F8CE
:103FE000901084F88480ECE72068C06935EA00000E
:103FF00004D00020B842C3D00020E0E70120F9E758
:10400000FEE700000FB4054B10B503A9044A02985F
:1040100000F028F810BC5DF814FB0000D151000836
:104020007C4A0024090700284FEA116104DB00F1F3
:10403000E02080F80014704700F00F0000F1E0204D
:1040400080F8141D704702E008C8121F08C1002A3A
:10405000FAD170477047002001E001C1121F002A09
:10406000FBD170472DE9FF4F8BB09A460F460546AE
:10407000002606E025280BD052460D9990476D1C6E
:10408000761C28780028F5D10FB03046BDE8F08FB7
:104090000024A0460122604900E0044315F8013FD6
:1040A000203B02FA03F00842F7D128782E2817D1D6
:1040B00015F8010F44F004042A280ED06FF02F02E7
:1040C0002878A0F1300109290AD808EB880102EB11
:1040D000410100EB01086D1CF2E757F8048B6D1CE1
:1040E000287869283ED006DC0028CDD063280BD084
:1040F000642804D136E0732810D075284BD052467E
:104100000D999047761C85E017F8040B8DF8000098
:1041100000208DF80100E946012003E057F8049BD8
:104120004FF0FF3061074FF0000401D40AE0641C37
:1041300044450DDA8442FADB19F804100029F6D15F
:1041400006E0641C8442FCDB19F804100029F8D155
:10415000264404E019F8010B52460D999047641E5D
:10416000F8D257E001CF4FF00A0B002802DA4042A4
:104170002D2102E0210504D52B218DF824100121E9
:1041800003E0E10705D02021F7E70DF120090891B0
:104190000CE00021F9E701CF4FF00A0BF9E759468F
:1041A000FCF73EF901F1300209F8012D0028F6D1A3
:1041B000ADEB090000F1200B600701D44FF00108BE
:1041C000D84502DDA8EB0B0000E00020804600246B
:1041D00006E009A85246005D0D999047641C761CC4
:1041E00008988442F5DB04E0302052460D99904750
:1041F000761CB8F10001A8F10108F5DC05E019F81A
:10420000010B52460D999047761CBBF10001ABF1B2
:10421000010BF4DC6D1C34E70928010070B50C4675
:104220000546880706D006A34FF4B67210A118A061
:10423000FFF7E8FEA86800682060A868046070BD09
:104240002E2E2F4D6964646C6577617265732F54EF
:10425000686972645F50617274792F4C7749502F8E
:104260007372632F636F72652F6D656D702E6300BF
:104270006D656D705F667265653A206D656D207065
:10428000726F7065726C7920616C69676E6564002D
:10429000417373657274696F6E20222573222066E4
:1042A00061696C6564206174206C696E65202564A9
:1042B00020696E2025730A0010B580680468002C00
:1042C0000CD02168A207016006D005A34FF48C72C0
:1042D0000FA118A0FFF796FE204610BD002010BDCC
:1042E0002E2E2F4D6964646C6577617265732F544F
:1042F000686972645F50617274792F4C7749502FEE
:104300007372632F636F72652F6D656D702E63001E
:104310006D656D705F6D616C6C6F633A206D656D7E
:10432000702070726F7065726C7920616C69676E55
:1043300065640000417373657274696F6E20222595
:104340007322206661696C6564206174206C696EFB
:104350006520256420696E2025730A0070B5094D1B
:104360000024064604EB440005EBC000017D29B1A2
:104370008068B04202D1204600F034F9641C0A2C57
:10438000F0DB70BD387B00242DE9F74F84B04FF08F
:104390000A0B00240646DA465F46D9460294019489
:1043A000009404EB440050490A2F039001EBC0082D
:1043B00098F814501DD0002D2AD0012D08D0022DC0
:1043C00006D24AA340F2231256A166A0FFF71AFEB6
:1043D0009EB13168D8F8040081420ED1069820B110
:1043E000D8F808100698814207D1204607B0BDE8EA
:1043F000F08F002DE1D127460AE0012D16D0022DC5
:1044000006D3B8F812000099884201D3A246009062
:10441000641C24B20A2CC4DB059881074FF0FF30DE
:10442000E4D40A2F16D018DA3C463EE02E49039811
:1044300051F830000028B8F8120005D002998842DF
:10444000E6D3A1460290E3E701998842E0D3A34670
:104450000190DDE70599C907C8D0BAF10A0F5146A6
:104460000EDA0C46204801EB440150F8310080B1CF
:104470001EA340F26D1245A13AA0FFF7C3FD08E06C
:10448000BBF10A0F594603DBB9F10A0F4946ADDA11
:104490000C460A2C06DB15A340F27F1241A131A085
:1044A000FFF7B0FD204600F09DF80A2C06DB0FA3B5
:1044B00040F283123BA12BA0FFF7A4FD0A4804EBB6
:1044C000440100EBC105287D30B108A34FF4C2724E
:1044D00039A124A0FFF796FD0EB130686860002175
:1044E0000698A860698280E7387B00242E2E2F4D25
:1044F0006964646C6577617265732F54686972646E
:104500005F50617274792F4C7749502F7372632F0B
:10451000636F72652F697076342F6574686172708D
:104520002E6300007374617465203D3D204554483E
:104530004152505F53544154455F50454E44494E9B
:1045400047207C7C207374617465203E3D20455477
:10455000484152505F53544154455F535441424C7B
:1045600045000000417373657274696F6E202225E7
:104570007322206661696C6564206174206C696EC9
:104580006520256420696E2025730A006172705FC2
:104590007461626C655B695D2E71203D3D204E55F6
:1045A0004C4C000069203C204152505F5441424C29
:1045B000455F53495A4500006172705F7461626CD7
:1045C000655B695D2E7374617465203D3D204554C3
:1045D000484152505F53544154455F454D505459E2
:1045E0000000000070B5074C00EB4005002654F8B1
:1045F000350018B103F042FD44F8356004EBC50006
:10460000067570BD387B00242DE9F0430D00074688
:1046100085B009D07C684FF480782088404539D136
:104620002079062836D109E01CA340F28A2229A16C
:104630002CA0FFF7E7FC05B0BDE8F0836079042803
:1046400028D16088082825D1D4F80E000490686825
:10465000A16920B1814202D10126334601E0002642
:104660000223284604F1080204A9914600F0A2FBA7
:10467000E08840450ED16EB10222284604AB291DC8
:10468000CDE90232CDE9001905F126034A46194663
:1046900000F090FA384603F0F1FCCCE72E2E2F4DB7
:1046A0006964646C6577617265732F5468697264BC
:1046B0005F50617274792F4C7749502F7372632F5A
:1046C000636F72652F697076342F657468617270DC
:1046D0002E6300006E6574696620213D204E554CA6
:1046E0004C000000417373657274696F6E2022255F
:1046F0007322206661696C6564206174206C696E48
:104700006520256420696E2025730A00FEB504002B
:1047100015460E4606D143A340F21E324FA153A0C8
:10472000FFF770FC36B93FA340F21F3259A14FA0EA
:10473000FFF768FC35B93BA34FF4487258A14BA072
:10474000FFF760FC2868214600F00FFF08B1584BC6
:104750003EE02868C0F303110E2924D0D4E90121DA
:104760000A400140914208D080B2A0F57E41A939AB
:1047700003D0E068B0B304F10C054E4B4E481A78F4
:1047800002EB420100EBC1010F7D022F2ED38F6897
:10479000A7422BD12F6849688F4227D13146204646
:1047A00000F08CF8FEBD01228DF8042000208DF869
:1047B00005005E218DF80610687801AB00F07F00DF
:1047C0008DF80700A8788DF80800E8788DF80900C2
:1047D0004FF4006004F1260231460090204600F0BC
:1047E00015FCFEBDFFE76FF00300FAE75FF0000283
:1047F00002EB420100EBC1010F7D022F08D38F684D
:10480000A74205D12F6849688F4201D11A70C5E7C8
:10481000521CD2B20A2AEBD332462946204600F077
:10482000D5F8DEE72E2E2F4D6964646C65776172D2
:1048300065732F54686972645F50617274792F4C8C
:104840007749502F7372632F636F72652F6970768B
:10485000342F6574686172702E6300006E65746930
:104860006620213D204E554C4C000000417373657D
:104870007274696F6E2022257322206661696C65EF
:1048800064206174206C696E6520256420696E2047
:1048900025730A007120213D204E554C4C0000002C
:1048A00069706164647220213D204E554C4C0000BB
:1048B000F0E30008684A0024387B00242DE9F8431F
:1048C0001546884606461C4802EB450100EBC1042C
:1048D000207D022806D219A340F2EE2225A131A0A4
:1048E000FFF790FB144A05EB4501207D02EBC10563
:1048F0000C35022813D1608A0327B0F58E7F04D9C6
:10490000211D304600F010FA07E0B0F5877F06D38E
:10491000211D2A46304600F00DFA00B927754FF4E4
:10492000006006F126022B4641460090304600F01A
:104930006DFBBDE8F8830000387B00242E2E2F4D40
:104940006964646C6577617265732F546869726419
:104950005F50617274792F4C7749502F7372632FB7
:10496000636F72652F697076342F65746861727039
:104970002E6300006172705F7461626C655B6172CE
:10498000705F6964785D2E7374617465203E3D20AC
:104990004554484152505F53544154455F5354412C
:1049A000424C4500417373657274696F6E20222515
:1049B0007322206661696C6564206174206C696E85
:1049C0006520256420696E2025730A002DE9FC5FAF
:1049D000824614462630019008680E464FF0FF3795
:1049E0004FF0000B514600F0C0FD80B93068C0F3B5
:1049F00003110E290BD056B148B101215246304661
:104A0000FFF7C2FC050005D540B2BDE8FC9F6FF082
:104A10000F00FAE77F2D06D337A340F2C13244A13D
:104A200047A0FFF7EFFA05F0FF094F4909EB4908E6
:104A300001EBC805287D00280ED0012808D00228E7
:104A400006D22DA340F2CD3248A13DA0FFF7DAFAFD
:104A5000BBF1000F06D104E0C5F808A001212975BB
:104A600000E034B93146504600F05EF9002C0746AC
:104A7000CBD0287D3C4E02280ED346494FF400622D
:104A800005F10C03504681F8009021460092019AEE
:104A900000F0BCFA07462DE001282BD1254640F254
:104AA000F13768892989884207D1286828B112A37B
:104AB0003A4639A122A0FFF7A5FA287B400607D580
:104AC0000E2022464FF4207103F00CF9044605E055
:104AD0002D68002DE5D1204603F04EFC44B156F878
:104AE000380008B103F0CAFA002746F8384001E060
:104AF0004FF0FF37384688E72E2E2F4D6964646CDF
:104B00006577617265732F54686972645F50617272
:104B100074792F4C7749502F7372632F636F7265CE
:104B20002F697076342F6574686172702E6300008F
:104B300074797065206F766572666C6F770000001F
:104B4000417373657274696F6E202225732220662B
:104B500061696C6564206174206C696E65202564F0
:104B600020696E2025730A00387B00246172705F13
:104B70007461626C655B695D2E7374617465203D60
:104B80003D2050454E44494E47206F7220535441BA
:104B9000424C4500684A00246E6F207061636B656B
:104BA000742071756575657320616C6C6F776564D1
:104BB000210000002DE9FF4F81B0984606004FF01C
:104BC0000007DDE90FA9DDF838B006D12CA340F2CB
:104BD000574239A13CA0FFF715FA1C210E204FF4D3
:104BE000207202F049FE050046D068891C2806D2D2
:104BF00023A340F262423EA133A0FFF703FA6C68A0
:104C0000119801F01BFDE08096F82C00062806D0D4
:104C100044491BA32CA040F26942FFF7F3F9D8F8EE
:104C200000100623A1604FF48071B8F80400A08141
:104C3000DAF80020C4F812200822BAF80400E08252
:104C4000DBF80000C4F80E00D9F80000A0610420D1
:104C5000218040F606016280237160713046DDE9F3
:104C600002230091294600F0D1F9284603F006FA04
:104C7000384605B0BDE8F08F4FF0FF30F9E700008F
:104C80002E2E2F4D6964646C6577617265732F54A5
:104C9000686972645F50617274792F4C7749502F44
:104CA0007372632F636F72652F697076342F65742A
:104CB000686172702E6300006E6574696620213D24
:104CC000204E554C4C000000417373657274696F3F
:104CD0006E2022257322206661696C6564206174F0
:104CE000206C696E6520256420696E2025730A009A
:104CF000636865636B20746861742066697273749D
:104D000020706275662063616E20686F6C6420732A
:104D10007472756374206574686172705F68647220
:104D200000000000CCE50008014A00F003B80000D4
:104D3000F0E300087FB5064D0124031DCDE9021400
:104D4000CDE9003522331946FFF734FF04B070BDBA
:104D5000F6E3000870B5164D5FF0000404EB440064
:104D600005EBC0010A7DF2B1488A401C80B248823E
:104D7000B0F5967F0AD2012A06D0032A0AD0042A67
:104D80000AD0012A0BD00EE0052808D32046FFF7F1
:104D900029FC08E0042000E00220087503E0886890
:104DA000091DFFF7C1FF641C0A2CD7DB70BD000092
:104DB000387B0024F8B5044690F82C001F461546B1
:104DC00006280E4606D020A340F2A9122CA135A039
:104DD000FFF718F99EB1306888B1214600F0C5FB95
:104DE00068B93078C0F303100E2808D0224639463F
:104DF0003046FFF7C9FA002804DA40B2F8BD6FF078
:104E00000F00F8BD314A00EB4001022302EBC10064
:104E10000375002384602E68C660AE8806824382D4
:104E200052F8316076B142F831304FF400602B46D1
:104E300004F1260231460090204600F0E7F83046A3
:104E400003F01CF90020F8BD2E2E2F4D6964646C10
:104E50006577617265732F54686972645F5061721F
:104E600074792F4C7749502F7372632F636F72657B
:104E70002F697076342F6574686172702E6300003C
:104E80006E657469662D3E6877616464725F6C65F7
:104E90006E203D3D204554485F4857414444525F91
:104EA0004C454E00417373657274696F6E20222504
:104EB0007322206661696C6564206174206C696E80
:104EC0006520256420696E2025730A00387B002444
:104ED0002DE9F041044640890E270D460E283CD9A5
:104EE000E07B18B995F83000401CE07360680178E9
:104EF0008689CA0714D0012905D01D490622FBF76F
:104F000082FA48B10CE0417851B980785E2807D127
:104F1000607B40F0100002E0607B40F008006073AE
:104F2000082E03D0B6F5C16F17D10DE095F82D000E
:104F3000000712D53946204603F064FA68B92946BD
:104F4000204600F05DFC10E095F82D00000704D528
:104F50003946204603F056FA18B1204603F08EF881
:104F600003E029462046FFF74FFB0020BDE8F08113
:104F7000F0E3000870B59AB0064664216846FBF776
:104F800030FA00251F482C46FEF72BF996F82D1015
:104F900049070DD5012809DC1A48E838FCF739FA29
:104FA000304602F0A7FA304602F0FCFA1AB070BDA3
:104FB0000128FBDD02284FF400514FF4804206D057
:104FC000032805D0042805D00528EFD103E00C46BE
:104FD000154600E00C460B486946E838FBF772FEC0
:104FE00008486946CDE90554E838FCF791F90548C9
:104FF000E838FCF7CDF9304602F08AFB304602F083
:1050000027FBD3E7FC4B0024704700002DE9F0415B
:105010001F4690460E460446069801F00FFB0E21EF
:105020000546304602F0C4FB18B16FF00100BDE840
:10503000F0817068858139680160B9888180D8F80D
:105040000020C0F80620B8F80410418194F82C0024
:10505000062806D006A34FF4997213A11FA0FEF7ED
:10506000D1FFA26931462046BDE8F041104700005B
:105070002E2E2F4D6964646C6577617265732F54B1
:10508000686972645F50617274792F4C7749502F50
:105090007372632F6E657469662F65746865726ECE
:1050A00065742E63000000006E657469662D3E68AD
:1050B00077616464725F6C656E206D7573742062D5
:1050C00065203620666F722065746865726E65743F
:1050D0005F6F757470757421000000004173736513
:1050E0007274696F6E2022257322206661696C6577
:1050F00064206174206C696E6520256420696E20CF
:1051000025730A0010B5040006D10BA34FF4C57235
:1051100010A114A0FEF776FF1C49732061611C49A1
:10512000A161742184F82E00204684F82F1001F02C
:10513000AFF9002010BD00002E2E2F4C5749502FE4
:105140005461726765742F65746865726E65746901
:10515000662E63006E6574696620213D204E554CB5
:105160004C000000417373657274696F6E202225D4
:105170007322206661696C6564206174206C696EBD
:105180006520256420696E2025730A000D470008FC
:105190008D650008F8B50C4F002605460096387856
:1051A00018B90A486946FBF7BDFF009C002C09D0DE
:1051B0002A692946204690470028EFD0204602F071
:1051C0005DFFEBE7F8BD000084490024144B002488
:1051D00013B5044801224FF47A736946FDF7A8FF1E
:1051E00000981CBD804A00240A46032100F000B943
:1051F0002DE9FE4F8A464A490446D1F8088098F8BE
:1052000000000007850E142D50D360890428FBD3BD
:105210006068007800287ED008287CD1486901F1B8
:105220001407C0F303120E2A75D08946096800F0EE
:105230009CF900286FD1208908286CD3204600F003
:105240006FF9002867D105F10E0120460E4602F0E5
:10525000AFFA002830D02089411989B288425AD843
:105260000E204FF4207202F007FB060053D0718924
:1052700005F10800814216D370682A464146FBF7C3
:1052800089F82946304603F0BDF8002806D0B6223A
:1052900024A332A13FA0FEF7B5FE04E0214630462C
:1052A00002F06EFD18B1304602F0E8FE33E0204611
:1052B00002F0E4FE34460BE03146204603F0A2F84B
:1052C00030B1C72217A33DA132A0FEF79BFE22E01A
:1052D00066682946204602F06BFAE0B96168002250
:1052E00038684FF6F773C860D9F81000086132705B
:1052F0007088984201D9093000E008307080FF20A2
:10530000087201234A818DE80C04002203463946C5
:10531000204600F045FB2046BDE8FE4F02F0AEBE41
:10532000504C00242E2E2F4D6964646C6577617299
:1053300065732F54686972645F50617274792F4C81
:105340007749502F7372632F636F72652F69707680
:10535000342F69636D702E630000000069636D7007
:105360005F696E7075743A206D6F76696E67207232
:105370002D3E7061796C6F616420746F2069636D7C
:105380007020686561646572206661696C65640A95
:1053900000000000417373657274696F6E202225EE
:1053A0007322206661696C6564206174206C696E8B
:1053B0006520256420696E2025730A0069636D707D
:1053C0005F696E7075743A20726573746F72696E7E
:1053D00067206F726967696E616C20702D3E706125
:1053E000796C6F6164206661696C65640A00000015
:1053F0002DE9FF47924689462421064622204FF494
:10540000207202F039FA050037D06889242806D2C4
:105410001BA34FF4B47228A132A0FEF7F3FD6C6811
:105420004FF0000877681C2284F8009084F801A0EF
:10543000A4F80480A4F80680686871680830FAF758
:10544000A9FFF868039003A800F0BAFC060011D089
:10545000A4F8028047466989204600F05BF8608026
:1054600001210097FF23CDE901160021284603AA58
:1054700000F096FA284602F001FEBDE8FF87000022
:105480002E2E2F4D6964646C6577617265732F549D
:10549000686972645F50617274792F4C7749502F3C
:1054A0007372632F636F72652F697076342F69632F
:1054B0006D702E6300000000636865636B20746884
:1054C000617420666972737420706275662063610E
:1054D0006E20686F6C642069636D70206D657373F6
:1054E00061676500417373657274696F6E20222570
:1054F0007322206661696C6564206174206C696E3A
:105500006520256420696E2025730A000A460B2158
:10551000FFF76EBF00B501F0A3F8C04380B200BD35
:1055200070B500260546344612E06989686801F0C6
:1055300097F82044A97A020C12FA80F4C90706D021
:105540008EB10026E0B2C4F3072141EA00242D68A1
:10555000002DEAD126B1E0B2C4F3072141EA0024CC
:10556000E04380B270BD0126ECE7421C12D088B146
:1055700091F82D2092070BD54A68824208D089689D
:105580000A4000EA0103934202D10143491C01D0C1
:1055900000207047012070472DE9F74F88B004467E
:1055A0000025AF1F09981426808C1438C11700EB12
:1055B0005170C0F3CF00039060680690017801F04D
:1055C0000F01052903D038460BB0BDE8F08F618983
:1055D000142907D25DA34FF43F726BA171A0FEF7AF
:1055E00011FDF0E7C08801F029F82189C0F30C0211
:1055F000029200F40050143907901FFA81F89EE0DF
:1056000003994FF6FF7000EAC1004146404500D9BA
:105610000846049014210E204FF4207202F02CF959
:105620005FEA000A5ED0BAF80A00142806D247A33F
:105630004FF4497265A15BA0FEF7E4FCDAF80400C0
:1056400014220699FAF7A6FEDAF80400049F0590E2
:1056500035E06089811B8DB2B04206D23BA340F297
:105660002D3262A14FA0FEF7CDFCAF4200D23D46E5
:105670001DB3052001F084FC5FEA00092FD06068AB
:1056800041224B4629463044CDE90005002002F076
:1056900063FA5FEA000B28D0204602F06DFE5749FE
:1056A0005046C9E90414594602F072FA781B0704FF
:1056B0003F0C06D024680026CBE724680026002F84
:1056C000C7D1099871198EB2808C1438404510DB0F
:1056D000079800280298C0F30C000DD10EE0504648
:1056E00002F0CCFC4FF0FF306EE7484600F098FB2C
:1056F000F5E70298C0F30C0040F4005000F09EFF64
:1057000001460598C1800498143080B200F096FFDD
:1057100005990022488051460598428109980A9AC5
:1057200043699847504602F0A9FC0498A8EB000290
:10573000DDE902101FFA82F8014488B20290B8F144
:10574000000F7FF45DAF00203EE700002E2E2F4DAE
:105750006964646C6577617265732F5468697264FB
:105760005F50617274792F4C7749502F7372632F99
:10577000636F72652F697076342F6970345F66725B
:1057800061672E63000000006970345F66726167B4
:1057900028293A207062756620746F6F2073686FD5
:1057A00072740000417373657274696F6E202225F4
:1057B0007322206661696C6564206174206C696E77
:1057C0006520256420696E2025730A00746869735A
:1057D000206E656564732061207062756620696E55
:1057E000206F6E652070696563652100702D3E6CC9
:1057F000656E203E3D20706F66660000F96300080C
:105800002DE9F047456807460E4604212878B1EB9C
:10581000101F03D0384602F031FC77E000074FEA52
:105820009068688800F00AFF04463889A04203D9CE
:105830002146384602F006FD79894145EAD3388988
:10584000A042E7D3B8F1140FE4D3DFF8209129691F
:10585000C9F81410C1F30312E9680E2AC9F8101030
:1058600005D0304600F086F850B1344619E096F87D
:105870002D00C00702D070680028F6D1002410E087
:1058800099F8140000247F280BD03948046806E0FA
:10589000B44203D0204600F06DF810B92468002C03
:1058A000F6D1D9F810003146FFF75FFE0028B1D1DC
:1058B00099F81000C0F303100E28ABD0002CA9D02B
:1058C000E88830F0C00005D0384600F035F9070010
:1058D0001CD07D683846C9F80850C9E900462978C7
:1058E0000907890EA9F80C10414602F08BFD687A71
:1058F000012818D0062811D011280AD0D9F8140090
:105900004D462146FFF731FE90B11EE00020BDE874
:10591000F0873146384608F01DF819E03146384620
:1059200003F01EFF14E031463846FFF761FC0FE03C
:10593000287DC0F303100E2807D04146384602F0F8
:1059400069FC02213846FFF74FFC384602F096FB0F
:105950000021C9F80010C9F80410C9F80810A9F806
:105960000C10C9F81010C9F81410CFE7504C0024DF
:10597000044A002410B590F82D10C9070CD04168D6
:1059800051B1064A52698A4204D001461046FFF7D7
:10599000ECFD08B1012010BD002010BD504C0024CA
:1059A000FEB5DDE90954089E1AB109B10F6807B9BF
:1059B000211D0096CDE9015400F002F8FEBD000063
:1059C0002DE9F84FDDE90BA80546807BDDF828B00E
:1059D0001F4601281646894606D02FA34FF455725C
:1059E0003AA13DA0FEF70EFB002E6FF0010436D069
:1059F0001421284601F0DCFE002833D168896C6848
:105A0000142806D224A34FF462723DA132A0FEF7FF
:105A1000F9FA2772452084F809A0316821612070C5
:105A200084F801B0288900F009FE414F4FF0000AC8
:105A30006080A4F806A0388800F000FEA080B9F1CC
:105A4000000F388800F10100388005D0D9F8000037
:105A5000E060A4F80AA00CE036480068F8E768891E
:105A6000142802D22046BDE8F88F68686E460069A7
:105A70000090B8F8240040B12989814205D9324606
:105A800041462846FFF788FDEDE7D8F81430404638
:105A9000324629469847E6E72E2E2F4D6964646CFE
:105AA0006577617265732F54686972645F506172C3
:105AB00074792F4C7749502F7372632F636F72651F
:105AC0002F697076342F6970342E6300702D3E720A
:105AD0006566203D3D203100417373657274696FC6
