:020000040800F2
:10000000F0CD00246D040008C1A30008CD900008C5
:1000100005A200085D0900082DEE000800000000A0
:10002000000000000000000000000000AD03000818
:100030000917000800000000090400085DC8000856
:100040008B0400088B0400088B0400088B04000854
:100050008B0400088B0400088B0400088B04000844
:100060008B0400088B0400088B040008FD100008B6
:100070000D1100081D1100082D1100083D11000888
:100080004D1100085D1100088B04000835170008A9
:10009000451700088B0400088B0400088B04000837
:1000A0008B0400088B0400088B0400088B040008F4
:1000B0008B04000839CA00088B0400088B04000870
:1000C0008B0400088B0400088B0400088B040008D4
:1000D0008B040008FDE400080DE500081DE500089C
:1000E0008B0400088B040008000000008B0400084B
:1000F0008B0400088B0400088B0400086D110008B5
:100100008B0400088B0400088B0400088B04000893
:1001100081D800088B04000891CA00088B040008ED
:100120007D1100088D1100088B0400088B04000865
:100130008B0400088B0400088B0400088B04000863
:1001400000000000000000000000000000000000AF
:100150008B0400088B0400088B0400088B04000843
:100160008B0400088B0400088B0400088B04000833
:100170008B0400088B0400088B04000800000000BA
:100180008B0400088B04000891D800088B04000839
:100190008B0400088B0400088B0400088B04000803
:1001A0008B0400088B0400088B040008000000008A
:1001B0008B0400088B0400088B0400088B040008E3
:1001C0008B0400088B040008000000000000000001
:1001D00000000000000000008B0400080000000088
:1001E000000000000000000000000000000000000F
:1001F00000000000000000008B0400088B040008D1
:100200008B0400088B040008000000008B04000829
:100210008B0400088B0400088B0400088B04000882
:100220008B040008000000008B04000800000000A0
:100230008B0400088B040008000000008B040008F9
:100240008B0400088B0400088B0400088B04000852
:100250008B0400088B0400088B0400088B04000842
:100260008B0400088B0400088B0400088B04000832
:100270008B0400088B0400088B04000800000000B9
:100280008B0400088B0400088B0400088B04000812
:10029000000000008B0400088B0400080000000030
:1002A000000000008B0400088B0400088B04000889
:1002B0008B0400088B0400088B0400085517000805
:1002C0008B0400088B0400088B04000800F002F87F
:1002D00000F05CF80AA090E8000C82448344AAF184
:1002E0000107DA4501D100F051F8AFF2090EBAE882
:1002F0000F0013F0010F18BFFB1A43F0010318475A
:100300008C220100AC2201000A444FF0000C10F8CE
:10031000013B13F0070408BF10F8014B1D1108BF83
:1003200010F8015B641E05D010F8016B641E01F823
:10033000016BF9D113F0080F1EBF10F8014BAD1C73
:100340000C1B09D16D1E58BF01F801CBFAD505E091
:1003500014F8016B01F8016B6D1EF9D59142D6D3EB
:10036000704700000023002400250026103A28BF13
:1003700078C1FBD8520728BF30C148BF0B60704717
:100380001FB512F009F81FBD10B510BD00F0E8F957
:100390001146FFF7F5FF0FF0D7FD00F006FA03B4A2
:1003A000FFF7F2FF03BC00F009FA00002C4B1968BC
:1003B0000868B0E8F04F80F30988BFF36F8F4FF003
:1003C000000080F3118870470000000008480068B2
:1003D000006880F308884FF0000080F3148862B64C
:1003E00061B6BFF34F8FBFF36F8F00DF00BF00BF59
:1003F00008ED00E0DFF80C00016841F470010160D5
:10040000704700BF88ED00E0EFF30980BFF36F8F06
:10041000134B1A681EF0100F08BF20ED108A20E958
:10042000F04F106009B44FF0500080F31188BFF313
:100430004F8FBFF36F8F11F0ABF84FF0000080F3D8
:10044000118809BC19680868B0E8F04F1EF0100F59
:1004500008BFB0EC108A80F30988BFF36F8F704734
:1004600034000024EFF30580704700000A488047FD
:100470000A4880470A480047FEE7FEE7FEE7FEE736
:10048000FEE7FEE7FEE7FEE7FEE7FEE70548064972
:10049000064A074B70470000111700082DC90008D5
:1004A000CD020008F0C70024F0CD0024F0C90024DC
:1004B000F0C9002453EA020C00F069802DE9F04BEA
:1004C0004FF00006002B1FBFB3FA83F503FA05F4C3
:1004D00024FA05F65E4012BF1643B2FA82F502FA1C
:1004E00005F4C5F120051EBF22FA05FC44EA0C0400
:1004F000203556EA044C4FEA144418BF641C4FF0F0
:1005000000084FF00009904271EB030C39D3002929
:1005100019BFB1FA81F701FA07F6B0FA80F700FACD
:1005200007F6C7F120071EBF20FA07FC46EA0C06B3
:100530002037B6FBF4FCA7EB0507103F07F01F0BB5
:10054000CBF120060CFA0BFB2CFA06F644BFB3469F
:100550000026202FA4BF5E464FF0000B5BEA060C7E
:1005600008BF4FF0010B19EB0B09ABFB027C48EB0A
:100570000608C01B06FB02CC0BFB03CC71EB0C0185
:10058000C1E70B46024641464846BDE8F08B13B52D
:100590004FF000004FF00001AFF30080BDE81C40B9
:1005A0007047032A40F2308010F0030C00F01580F1
:1005B00011F8013BBCF1020F624498BF11F801CB66
:1005C00000F8013B38BF11F8013BA2F1040298BFCB
:1005D00000F801CB38BF00F8013B11F0030300F035
:1005E0002580083AC0F0088051F8043B083A51F8D9
:1005F00004CBA0E80810F5E7121D5CBF51F8043BDE
:1006000040F8043BAFF30080D20724BF11F8013B50
:1006100011F801CB48BF11F8012B24BF00F8013BB2
:1006200000F801CB48BF00F8012B704710B5203A05
:10063000C0F00B80B1E81850203AA0E81850B1E89B
:100640001850A0E81850BFF4F5AF5FEA027C24BF51
:10065000B1E81850A0E8185044BF18C918C0BDE848
:1006600010405FEA827C24BF51F8043B40F8043B11
:1006700008BF7047D20728BF31F8023B48BF11F8C6
:10068000012B28BF20F8023B48BF00F8012B704720
:1006900002F0FF0343EA032242EA024200F002B8FA
:1006A0004FF000020429C0F0128010F0030C00F09B
:1006B0001B80CCF1040CBCF1020F18BF00F8012B19
:1006C000A8BF20F8022BA1EB0C0100F00DB85FEAE7
:1006D000C17C24BF00F8012B00F8012B48BF00F8B3
:1006E000012B70474FF0000200B513469446964622
:1006F000203922BFA0E80C50A0E80C50B1F1200135
:10070000BFF4F7AF090728BFA0E80C5048BF0CC0E2
:100710005DF804EB890028BF40F8042B08BF704740
:1007200048BF20F8022B11F0804F18BF00F8012BB2
:10073000704770477047704710B500F009F80068BF
:1007400010BD10B5044600F003F8046010BD0000B1
:10075000004870478CC70024004870478CC70024AD
:100760007546FFF7F9FFAE4605006946534620F08F
:100770000700854618B020B5FFF788FEBDE8204089
:100780004FF000064FF000074FF000084FF0000B4D
:1007900021F00701AC46ACE8C009ACE8C009ACE800
:1007A000C009ACE8C0098D46704710B50446AFF3E8
:1007B00000802046BDE81040FFF7F1BD0149182038
:1007C000ABBEFEE7260002007047000001280CD1F6
:1007D000174991ED000A174981ED040A164991ED78
:1007E000000A144981ED050A0BE008B10A2808D176
:1007F0009FED120A0F4981ED040A9FED100A81ED69
:10080000050A0F4991ED000A0A4981ED010A0D49D7
:100810000D4A127801EB820191ED000A0B49D1EDEE
:10082000000A30EE200A034981ED170A70470000E4
:10083000C80400243C030024CC0400240000000071
:1008400038C0002470040024E2040024A40300241F
:1008500010B5027F3AB94160016000228260C26037
:100860000122027710BD026842600160D0E90023D6
:10087000D21A8260426902EBD2748368B3EB640FD0
:1008800004DD43698268D21A82600BE043695A42F0
:1008900002EBD2748368B3EB640F03DA43698268B6
:1008A0001A448260D0E902321A44C26000BFD9E71C
:1008B0002848007C20B90120264908740020C8601F
:1008C0002448C0680A280FD22248C068401C214929
:1008D000C860002120484172C17200201E49087280
:1008E00000211D48817234E01A48C0680A2813D3D9
:1008F0001848C068BE280FD21648C068401C154969
:10090000C860002014490872012113488172002137
:1009100041720121C1721CE00E48C068BE2813D389
:100920000C48C068C8280FD20A48C068401C094952
:10093000C860002108484172C1720020064908724F
:1009400000210548817204E0002002490874192042
:100950000870704748040024BEBF002400BFFEE7B3
:1009600008B59FED040A8DED000A416800919DEDE8
:10097000000A08BD0000000010B50EF019FE0EF0D0
:100980004BFE0EF07DFE00224FF00071074804F090
:1009900013F800224FF00071054804F00DF8002212
:1009A0004FF00071034804F007F810BD1808002448
:1009B000B80800245809002470B5044606492046AA
:1009C00001F092F9207800F1800529460823024AB7
:1009D000024800F044F870BDBD000024180800244F
:1009E0002DE9FC4781460E4614461D46DDE90A788E
:1009F000200A8DF80000E0B28DF80100280A8DF879
:100A00000200E8B28DF80300380A8DF80400F8B24D
:100A10008DF805004FEA18208DF8060008F0FF0059
:100A20008DF80700B1B208236A46484600F017F86F
:100A3000BDE8FC8710B58CB004462C2101A8FFF757
:100A400051FE01A9204604F0DDF8069828B120687F
:100A5000806920F00100216888610CB010BDF0B5FC
:100A600089B006460C4617461D46009400200190AA
:100A7000029003950490059006900790089000BF9F
:100A8000304604F0DFF90028FAD03A46694630468D
:100A900003F0E6FF09B0F0BDF0EE401AF4EEE01A04
:100AA000F1EE10FA02D2B0EE600A7047F4EEC11A0D
:100AB000F1EE10FA02DDB0EE410AF6E7B0EE610A9F
:100AC000F3E7000010B54C48007C50B901F0FAFA89
:100AD00000204949C8600121474841710120464929
:100AE00008744548C068B0F5487F63D24248C06882
:100AF000401C4149C86001204049087200213F481C
:100B000081723D49497801EB81013D4A02EB0112B6
:100B10003949897801EB810102EB8101394A127868
:100B200001EB820191ED001AF0EE410A3249C868EA
:100B30001431344A127801EB820191ED001AB0EEC3
:100B4000410A4FF4E17110F051FA2B4828302D4939
:100B5000097800EB810080ED000A2749497801EB14
:100B60008101274A02EB01122349897801EB8101B7
:100B700002EB8101244A127801EB820191ED001A07
:100B8000F0EE410A1C49C86814311F4A127801EB83
:100B9000820191ED001AB0EE410A4FF4E17110F0BC
:100BA00025FA154828301849097800EB810080EDB6
:100BB000000A20E00020104908741448007898B911
:100BC0000846C078012803D00846C078022803D11F
:100BD0001520094908700EE00748C07803280AD19B
:100BE00016200549087006E008480078012802D15F
:100BF00015200149087010BD48040024BEBF002420
:100C000084050024E1040024E20400248804002474
:100C100010B5BE48007C68B901F054FA0020BB4909
:100C2000C860BB48007810B90121B84801720120A2
:100C3000B6490874B548C068B0F5487F7ED2B3485D
:100C4000C07840B1B148407828B1B048807810B140
:100C5000B048007838B9AD48C0680A2803D30020EE
:100C6000AA49C86004E0A948C068401CA749C860F8
:100C7000A648C0680F2802D30020A74908700120A9
:100C8000A6490870A149497801EB8101A44A02EB09
:100C900001129E49897801EB810102EB8101A14A91
:100CA000127801EB820191ED001A9849497801EB25
:100CB00081019B4A02EB01119B4A127802EB8202EE
:100CC00001EB8201974A127801EB8201D1ED001A03
:100CD00031EE211AF0EE410A8C49C968A1F1640095
:100CE0008A4914318F4A127801EB820191ED001A82
:100CF000B0EE410A4FF42F7110F078F98348283094
:100D00008849097800EB810080ED000A7F49497825
:100D100001EB8101824A02EB01127C49897801EBE7
:100D2000810102EB8101814A127801EB820191ED90
:100D3000001A7649497801EB810100E0CFE0784A5A
:100D400002EB0111784A127802EB820201EB820178
:100D5000764A127801EB8201D1ED001A31EE211AA8
:100D6000F0EE410A6949C8681431704A127801EB03
:100D7000820191ED001AB0EE410A4FF4487110F073
:100D800035F9624828306949097800EB810080ED27
:100D9000000A5E49497801EB8101614A02EB0112C8
:100DA0005A49897801EB810102EB8101604A12788E
:100DB00001EB820191ED001A5449497801EB810160
:100DC000574A02EB0111584A127802EB820201EBFA
:100DD0008201574A127801EB8201D1ED001A31EEFF
:100DE000211AF0EE410A4949C968A1F16400474956
:100DF00014314F4A127801EB820191ED001AB0EEE6
:100E0000410A4FF42F7110F0F1F84048283048495A
:100E1000097800EB810080ED000A3C49497801EB3C
:100E200081013F4A02EB01123849897801EB8101C7
:100E300002EB81013F4A127801EB820191ED001A29
:100E40003249497801EB8101354A02EB0111364AFA
:100E5000127802EB820201EB8201364A127801EB32
:100E60008201D1ED001A31EE211AF0EE410A274934
:100E7000C86814312F4A127801EB820191ED001AF3
:100E8000B0EE410A642110F0B1F820482830294919
:100E9000097800EB810080ED000A1C49C8682049F0
:100EA000254A127801EB820191ED001AF0EE410A19
:100EB00016491431204A127801EB820191ED001A93
:100EC000B0EE410A4FF4487110F090F80F48283006
:100ED0001949097800EB810080ED000A15E0002037
:100EE0000A4908740D4908700948007830B9022190
:100EF0000648017219200549087006E00448007888
:100F0000012802D105200149087010BD48040024C1
:100F100088040024FC000024FE0000243803002480
:100F200084050024E004002480050024E10400245A
:100F3000E2040024E3040024E404002400B5114882
:100F4000007C40B901F0BEF800200E49C8600120C5
:100F500008740D4908700B48C068B0F5967F0BD235
:100F60000848C068401C0749C86000210748017351
:100F700000200549087004E0002002490874192087
:100F8000087000BD4804002438030024BEBF0024BC
:100F90001448007C20B900201249C8600120087460
:100FA0001048C068C82808D20E48C068401C0D49C7
:100FB000C86001210C48417313E00B48007830B140
:100FC00001200849087102200849087004E0032044
:100FD000044908710120487400200249087418204F
:100FE0000870704748040024BEBF00243803002462
:100FF00000BF0DF01DFF322106480DF0BBFF064873
:10100000808B401C81B20448818301200FF0ECF8F2
:10101000EFE70000C4C60024F8BE002410B5044663
:1010200094ED391AF0EE410A94ED3D1AB0EE410A02
:1010300004F16C0009F056FA94ED230A84ED3F0A9E
:1010400094ED3A1AF0EE410A94ED3F1AB0EE410ADF
:1010500004F1200009F046FA94ED100A84ED3C0AF0
:1010600010BD000030B504460D462946204601F06B
:1010700003F884ED370A284601F00BF884ED380AAE
:1010800094ED370ABCEEC00A10EE101A2046FFF7A6
:10109000DFFB94ED030AB8EEC00ADFED160A80EE1E
:1010A000201A9FED150A61EE000A94ED041A80EEF5
:1010B000810AD4ED420A30EE600A84ED390A94F8D0
:1010C000040130B994ED390A84ED420A012084F814
:1010D000040194ED380AD4ED040A80EE201A84ED60
:1010E0003A1A284600F0B0FF84ED3B0AE87984F80C
:1010F0001A0130BD000000460000B44310B502489C
:1011000002F050FA10BD0000E810002410B50248AB
:1011100002F048FA10BD00006011002410B502482A
:1011200002F040FA10BD0000180E002410B502486D
:1011300002F038FA10BD0000900E002410B50248ED
:1011400002F030FA10BD0000080F002410B502486C
:1011500002F028FA10BD0000800F002410B50248EC
:1011600002F020FA10BD0000F80F002410B502486C
:1011700002F018FA10BD00007010002410B50248EB
:1011800002F010FA10BD0000280D002410B502482E
:1011900002F008FA10BD0000A00D00240146374AF5
:1011A0000868904249D0354A18320868904244D0C5
:1011B000324A3032086890423FD0304A483208689C
:1011C00090423AD02D4A60320868904235D02B4A7E
:1011D00078320868904230D0284A903208689042AD
:1011E0002BD0264AA8320868904226D0244A0868A4
:1011F000904222D0224A1832086890421DD0204ADC
:1012000030320868904218D01D4A4832086890422F
:1012100013D01B4A6032086890420ED0184A7832C8
:101220000868904209D0164A90320868904204D06B
:10123000134AA8320868904201D1012000E0002042
:10124000B0B10A78103A1823B2FBF3F000F00702AD
:101250000C4B9A5CCA65032805D90A686FF309022A
:10126000121D8A6503E00A686FF309028A6503E0CC
:10127000086820F0FF008865886D70471000024004
:10128000100402407C24010810B502682B4C03684E
:10129000A34222D0294C14340368A3421DD0274C0A
:1012A00028340368A34218D0244C3C340368A3427A
:1012B00013D0224C50340368A3420ED01F4C643428
:1012C0000368A34209D01D4C78340368A34204D0BC
:1012D0001A4C8C340368A34201D1012300E000239F
:1012E0008BB10378083B1424B3FBF4F1144B03EBEC
:1012F00081030366124B8033436601F01F04012310
:10130000A340836618E00378103B1824B3FBF4F184
:101310000C4B9A4204D80B4BA83B9A4200D308319D
:10132000094B03EB81030366074B8033436601F0EF
:101330001F040123A340836610BD00000854025817
:1013400000580258B8040240000802400179A9B3CD
:10135000082940D8204B02689A4222D01E4B1433F1
:1013600002689A421DD01C4B283302689A4218D05A
:10137000194B3C3302689A4213D0174B5033026822
:101380009A420ED0144B643302689A4209D0124B31
:10139000783302689A4204D00F4B8C3302689A4229
:1013A00001D1012200E000224AB14A1E0B4B03EB9F
:1013B0008202C266094A4032026708E00BE04A1E18
:1013C000074B03EB8202C266054A403202674A1E9F
:1013D000012393404367704708540258005902584C
:1013E00000090240014600208A69D2B98A6A32B1F6
:1013F000012A0DD0022A03D0032A10D10EE000BF2B
:10140000CA6A02F08072B2F1807F00D1012007E049
:10141000CA6AB2F1C07F00D1012001E000E000BF44
:1014200036E08A69B2F5005F1BD18A6A32B1012ABF
:1014300007D0022A03D0032A11D10AE000BF0120FD
:101440000EE0CA6A02F08072B2F1807F00D1012002
:1014500006E0CA6AB2F1C07F00D1012000E000BFFF
:1014600016E08A6A32B1012A05D0022A04D0032A82
:101470000CD103E000BF00BF012008E0CA6A02F0FF
:101480008072B2F1807F00D1012000E000BF00BF78
:1014900070470000F0B5856D846D984F0668BE42B8
:1014A00070D0964F18370668BE426BD0934F3037D6
:1014B0000668BE4266D0914F48370668BE4261D08A
:1014C0008E4F60370668BE425CD08C4F7837066816
:1014D000BE4257D0894F90370668BE4252D0874FE0
:1014E000A8370668BE424DD0854F0668BE4249D037
:1014F000834F18370668BE4244D0814F30370668A4
:10150000BE423FD07E4F48370668BE423AD07C4F3D
:1015100060370668BE4235D0794F78370668BE42DC
:1015200030D0774F90370668BE422BD0744FA83723
:101530000668BE4226D0734F0668BE4222D0714F65
:1015400014370668BE421DD06E4F28370668BE426B
:1015500018D06C4F3C370668BE4213D0694F5037E5
:101560000668BE420ED0674F64370668BE4209D097
:10157000644F78370668BE4204D0624F8C370668E5
:10158000BE4201D1012600E000263EB1D0E9197625
:101590007E60C66E16B1D0E91C767E60574F066835
:1015A000BE4249D0554F18370668BE4244D0534F0B
:1015B00030370668BE423FD0504F48370668BE42BB
:1015C0003AD04E4F60370668BE4235D04B4F783721
:1015D0000668BE4230D0494F90370668BE422BD0D5
:1015E000464FA8370668BE4226D0454F0668BE4221
:1015F00022D0434F18370668BE421DD0404F3037C7
:101600000668BE4218D03E4F48370668BE4213D027
:101610003B4F60370668BE420ED0394F78370668B8
:10162000BE4209D0364F90370668BE4204D0344FD0
:10163000A8370668BE4201D1012600E00026DEB1CF
:1016400090F85C6006F01F073F26BE40AE6006685B
:10165000366826F4802607683E60066873608668F0
:10166000402E04D10668B2600668F16044E0066866
:10167000B1600668F2603FE0224F0668BE4222D0A9
:10168000204F14370668BE421DD01E4F283706680B
:10169000BE4218D01B4F3C370668BE4213D0194FCC
:1016A00050370668BE420ED0164F64370668BE42F9
:1016B00009D0144F78370668BE4204D0114F8C37DA
:1016C0000668BE4201D1012600E00026A6B190F8CE
:1016D0005C6006F01F070126BE4066600668736006
:1016E0008668402E04D10668B2600668F16003E0A7
:1016F0000668B1600668F260F0BD000010000240AC
:101700001004024008540258704772B600BFFEE74A
:101710000748006840F002000549086000BF04481F
:101720000838006800F400500028F8D07047000026
:101730000C48025810B5024803F08CFB10BD0000A5
:101740001808002410B5024803F084FB10BD000007
:10175000B808002410B5024803F07CFB10BD00005F
:101760005809002410B501464A6B0868D0F8840077
:101770004FF6FC74A04340EA82000C68C4F8840071
:101780000868D0F8840020F47F04088F44EA004001
:101790000C68C4F88400886B02440868D0F888009C
:1017A0004FF6FC74A04340EA82000C68C4F888003D
:1017B0000868D0F8880020F4FE04888F44EA0040CE
:1017C0000C68C4F88800C86B02EB40020868D0F8C7
:1017D000A0004FF6FC74A04340EA82000C68C4F8F5
:1017E000A0000868D0F8A00020F4FE044020405A71
:1017F00044EA00400C68C4F8A000D1E9104004FBA2
:1018000000220868D0F8B0004FF6FC74A04340EA0C
:1018100082000C68C4F8B0000868D0F8B00020F46A
:10182000FE04B1F8480044EA00400C68C4F8B00077
:10183000D1E9124004FB00220868D0F8AC004FF652
:10184000FC74A04340EA82000C68C4F8AC00D1E903
:10185000144004FB00220868D0F8F0004FF6FC7436
:10186000A04340EA82000C68C4F8F0000868D0F891
:10187000F00020F47C14B1F8580044EA00400C68F1
:10188000C4F8F000886D02EB40020868D0F8C00090
:101890004FF6FC74A04340EA82000C68C4F8C00014
:1018A0000868D0F8C00020F47C14B1F85C0044EA69
:1018B00000400C68C4F8C0000868D0F8C00020F0F0
:1018C0007C5491F8600044EA00600C68C4F8C000E1
:1018D0002A4C486B04EB8000C866CC6E886B04EB26
:1018E00080040C670C6FC86B04EBC0044C67D1E933
:1018F000100460434C6F04EB80048C67D1E9120440
:1019000060438C6F04EB8004CC67D1E9140460431E
:10191000CC6F04EB8004802044504458886D04EB65
:10192000C004842044508C6EC86D60438424645885
:1019300004EB8004882044508C6E086E6043882439
:10194000645804EB80049020445040580C4CA04252
:1019500009D99831486840F020004860032001F818
:101960009809012010BDCB6E02E0002018601B1DFD
:10197000902040589842F8D80020F3E700AC00408F
:10198000FCD300402DE9F041054614461E46D1F82F
:1019900004C0BCF1000F0AD1D1F810C0D1F8088002
:1019A0004CEA080CB1F800804CEA88430BE0D1F80F
:1019B00010C04CF0804CD1F808804CEA080CD1F8EB
:1019C00000804CEA080391F82080D1F81CC04CEA52
:1019D000086CD1F818804CEA080CD1F814804CEA55
:1019E000080CB1F80C804CEA0847D5F868C00CFB2D
:1019F00006FCD5F8848008EB8C021360121D17607A
:101A0000121D002019E000F1030C14F80CC04FEA7D
:101A10000C6800F1020C14F80CC048EA0C4800F104
:101A2000010C14F80CC048EA0C2C14F800804CEAA5
:101A3000080CC2F800C0121D001DDFF81480D1F898
:101A40000CC018F80CC08445DDD8BDE8F08100005A
:101A500084240108964BDB8CA3F57A70002801DB07
:101A6000034600E04342142B04DD00239048A0F815
:101A7000443003E001238E48A0F844308C4B5B8D4A
:101A8000A3F57A70002801DB034600E04342142BE3
:101A900004DD00238648A0F8483003E00123844891
:101AA000A0F84830824B9B8CA3F5FA60002801DB3C
:101AB000034600E04342282B04DD00237C48A0F8C5
:101AC000423003E001237A48A0F84230784B5B8C27
:101AD000A3F57A70002801DB034600E04342142B93
:101AE00004DD0020724BA3F8400003E00120704B9E
:101AF000A3F840006E4B1B8DA3F57A70002801DB24
:101B0000034600E04342142B04DD00236848A0F89C
:101B1000463003E001236648A0F84630644B9B8DB5
:101B2000A3F5A570002801DB034600E04342322BF9
:101B300004DD00235E48A0F84A3003E001235C483E
:101B4000A0F84A305A4B1B8EA3F57A70002801DBAF
:101B5000034600E04342142B04DD00235448A0F860
:101B60004E3003E001235248A0F84E30504B9B8E7C
:101B7000A3F57A70002801DB034600E04342142BF2
:101B800004DD00234A48A0F8523003E0012348480E
:101B9000A0F85230464BDB8EA3F57A70002801DBAB
:101BA000034600E04342142B04DD00234048A0F824
:101BB000543003E001233E48A0F854303C4B1B8FC7
:101BC000A3F57A70002801DB034600E04342142BA2
:101BD00004DD00233648A0F8563003E001233448E2
:101BE000A0F85630324B5B8FA3F57A70002801DBEA
:101BF000034600E04342142B04DD00232C48A0F8E8
:101C0000583003E001232A48A0F85830284B9B8F16
:101C1000A3F57A70002801DB034600E04342142B51
:101C200004DD00232248A0F85A3003E001232048B5
:101C3000A0F85A30002100221D4890F844001C4BA7
:101C400093F8403040EA4303194890F8420043EAD1
:101C50008003174890F8480043EAC003144890F8FE
:101C6000460043EA0013124890F84A0043EA401045
:101C7000C1B20F4890F84E3090F8520043EA40034A
:101C80000B4890F8540043EA8003094890F8560046
:101C900043EAC003064890F8580043EA001304489A
:101CA00090F85A0043EA4010C2B242EA012070475D
:101CB000F8BE0024014671EE602AF0EE621AB0EE22
:101CC000602A30EE423A01208840401E02EE900A1F
:101CD000F8EEE22A63EE222A82EEA13AFCEEC32A53
:101CE00012EE900A704700002DE9F04103460A46C3
:101CF000D3ED010AB0EE600A10209FED261ADFED49
:101D0000260AFFF7D7FF84B2D3ED020AB0EE600ACD
:101D10000E209FED201ADFED200AFFF7CBFF85B2E2
:101D2000D3ED030AB0EE600A10209FED1A1ADFED22
:101D30001A0AFFF7BFFF86B2D3ED040AB0EE600ABD
:101D40000A209FED161ADFED160AFFF7B3FF87B2E0
:101D5000D3ED050AB0EE600A08209FED121ADFED00
:101D6000100AFFF7A7FF1FFA80F8147020125070B6
:101D7000957007F00300C5F3052141EA8010D0708B
:101D8000C7F38700107182F8058096713012D07108
:101D9000BDE8F08100002042000020C200C07F4466
:101DA0000000000000004C42024641EA4210704729
:101DB00010B52DED028B6F4890ED090A6E48D0EDFD
:101DC000180A6E4890ED001A70EEC10A30EE600AF3
:101DD000684880ED050A6A4890ED140A6948D0ED1C
:101DE000000A30EE600A6348D0ED0A0A30EE600A5D
:101DF000D0ED050A30EE200A80ED060A624890ED2B
:101E0000390A5C4880ED070A6048D0ED390A9FED39
:101E1000601A80EE810ADFED5F0A20EE200A554845
:101E200080ED080A007C10B101287CD147E05148C0
:101E3000D0ED060AB0EE600A0DF0F8F84D48D0ED8E
:101E40000B0A20EE200A80ED010A90ED0D0AD0ED7C
:101E5000070A20EE200A9FED501AC0EE010A90ED0D
:101E60000E0A30EE808AD0ED050AB0EE600A0DF061
:101E7000DDF828EE000A3F48D0ED110A90ED011A76
:101E800000EE810A80ED000AD0ED050AB0EE600A8E
:101E90000DF074F93748D0ED140A20EE200A80EDD9
:101EA000020AD0ED080AB0EE600A0DF067F9314879
:101EB000D0ED160A20EE200A80ED030A56E02D48E8
:101EC000D0ED060AB0EE600A0DF0B0F82948D0ED6A
:101ED0000C0A20EE200A80ED010A90ED0F0AD0EDE9
:101EE000070A20EE200ADFED2C0A80EE201A90ED82
:101EF000100A31EE008AD0ED050AB0EE600A0DF04E
:101F000095F828EE000A1B48D0ED130A90ED071A49
:101F100020EE811ADFED201AC1EE210A90ED121A8F
:101F200070EE810A00E020E090ED011A00EE810AD7
:101F300080ED000AD0ED050AB0EE600A0DF01EF942
:101F40000C48D0ED150A20EE200A80ED020AD0EDF3
:101F5000080AB0EE600A0DF011F90648D0ED160A35
:101F600020EE200A80ED030A00E000BF00BFBDECB8
:101F7000028B10BD38C000243C030024A4030024BD
:101F800018C5002408040024000100241C020024B9
:101F900000003443DB0F494000007A449FED1C0AE7
:101FA0001C4880ED090A9FED1C0A80ED0A0A9FED8E
:101FB0001B0A80ED0B0A9FED1A0A80ED0C0A9FEDBB
:101FC000190A80ED0D0A9FED180A80ED0F0A9FEDAA
:101FD000170A80ED0E0ABFEE000A80ED100A9FED91
:101FE000140A80ED110A9FED130A80ED130A9FED8C
:101FF000120A80ED120A9FED110A80ED140A9FED7E
:10200000100A80ED150A9FED0F0A80ED160A704741
:10201000FED4F83F38C00024736821C09A99993ED5
:1020200085EB31403333B3BE85EB51BFB81E05BFDE
:10203000AE47E1BDCDCC4CBD0AD723BD0080D44313
:10204000000096440000484410B54FF6FF72037933
:1020500003F080033BB11304047943EA0423447979
:1020600043EA040103E04379047943EA042100EEE2
:10207000101AB8EEC00A10BD4A780B7842EA032263
:1020800000EE102AB8EEC00A80ED370A90ED370A4C
:10209000704710B54FF6FF72837803F080033BB1B1
:1020A0001304847843EA0423C47843EA040103E078
:1020B000C378847843EA042100EE101AB8EEC00A0F
:1020C00010BD0000194890ED000A19481949097817
:1020D00000EB810080ED000A144890ED030A1448DB
:1020E0001549097800EB810080ED000A0F4890ED5A
:1020F000020A0F481149097800EB810080ED000ABF
:102100000A4890ED010A0A480D49097800EB810060
:1021100080ED000A054890ED040A05480949097850
:1021200000EB810080ED000A7047000058BF0024DA
:102130005C040024E0040024E1040024E204002400
:10214000E3040024E404002410B5FE48007C48B9F0
:10215000FFF7B8FF0020FB49C86001200874012187
:10216000F848C171F748C068B0F5C87F7ED2F5481D
:10217000C068401CF349C860F349097801EB81014C
:10218000F24A02EB8101F24A127801EB820191EDF1
:10219000001AF0EE410AEB49C8681431EC4A127893
:1021A00001EB820191ED001AB0EE410A4FF4C871C3
:1021B0000EF01CFFE3482830E549097800EB810068
:1021C00080ED000AE049097801EB8101DF4A02EB6A
:1021D0008101E04A127801EB820191ED001AF0EEE4
:1021E000410AD849C8681431DA4A127801EB8201F1
:1021F00091ED001AB0EE410A4FF4C8710EF0F6FEF0
:10220000D0482830D349097800EB810080ED000ADE
:10221000CD49097801EB8101CC4A02EB8101CE4A1C
:10222000127801EB820191ED001AF0EE410AC549E6
:10223000C8681431C84A127801EB820191ED001A86
:10224000B0EE410A4FF4C8710EF0D0FEBD48283000
:10225000C149097800EB810080ED000ABA4909788C
:1022600001EB8101B94A02EB810100E021E0BB4AA8
:10227000127801EB820191ED001AF0EE410AB149AA
:10228000C968A1F1C800AF491431B44A127801EB12
:10229000820191ED001AB0EE410AC8210EF0A6FEAF
:1022A000A8482830AD49097800EB810080ED000A8C
:1022B000D1E1A448C068B0F5C87F7CD3A148C0680C
:1022C000B0F52F7F77D29F48C068401C9D49C860F9
:1022D0009D49097801EB81019C4A02EB81019C4AEE
:1022E000127801EB820191ED001AB0EE410A954996
:1022F000C968A1F5C8709A49954A127801EB820124
:1023000091ED001AF0EE410A4FF496710EF06EFE58
:102310008C4828308E49097800EB810080ED000A56
:102320008949097801EB8101884A02EB8101894AD8
:10233000127801EB820191ED001AB0EE410A814959
:10234000C968A1F5C8708649824A127801EB8201FA
:1023500091ED001AF0EE410A4FF496710EF046FE30
:10236000784828307B49097800EB810080ED000A2D
:102370007549097801EB8101744A02EB8101764AC3
:10238000127801EB820191ED001AB0EE410A6D491D
:10239000C968A1F5C87072496F4A127801EB8201D1
:1023A00091ED001AB7EEC11AB5EE002B31EE021B0B
:1023B000B7EEC11B00E00EE0F0EE410A4FF496715B
:1023C0000EF014FE5F4828306349097800EB810065
:1023D00080ED000A3FE15B48C068B0F52F7F3AD33B
:1023E0005848C068B0F5966F35D25648C068401C52
:1023F0005449C86001205B49087200215948817224
:102400005049C968A1F52F705549534A127801EB1C
:10241000820191ED001AF0EE410A51494E4A1278BC
:1024200001EB820191ED001AB7EEC11AB5EE002B57
:1024300031EE021BB7EEC11BB0EE410A4FF4C8717A
:102440000EF0D4FD3F4828304349097800EB810065
:1024500080ED000AFFE03B48C068B0F5966F10D3EE
:102460003848C06840F2E24188420AD23548C06824
:10247000401C3449C86000213A4841720121C172B0
:10248000E9E03048C06840F2E241884259D32D4823
:10249000C068B0F5E16F54D22A48C068401C294991
:1024A000C8600846C06840F22D5188422AD20021F7
:1024B0002C4841720121C1722249C968A1F2E2404F
:1024C0002749244A127801EB820191ED001ADFEDD1
:1024D000261A31EE211AF0EE410A21491D4A1278DE
:1024E00001EB820191ED001AB0EE410A4B210EF092
:1024F0007DFD144828301749097800EB810080EDF4
:10250000000A44E0002117484172C1720E4909785F
:1025100001EB81010D4A02EB81010E4A127801EBB9
:10252000820191ED001AF0EE410A0649C968A1F551
:10253000AF600B49074A127801EB820191ED001A56
:1025400014E07CE048040024E7040024EC040024A8
:10255000E0040024E1040024E2040024E304002455
:1025600064070024BEBF002400001643DFED3A1AC2
:1025700031EE211AB0EE410A4FF496710EF036FD9D
:1025800036483749097800EB810080ED000A0120C8
:10259000344908743449097801EB8101334A02EB6C
:1025A0008101334A127801EB820191ED001AF0EEBD
:1025B000410A2A492839C968A1F2E2402D492C4A2A
:1025C000127801EB820191ED001AB0EE410A40F25F
:1025D00026210DF08DFC21482549097800EB81006A
:1025E00080ED000A2049097801EB81011F4A02EBC6
:1025F0008101214A127801EB820191ED001ADFED91
:102600001F1A31EE611AF0EE410A14492839C968DF
:10261000A1F2E2401749184A127801EB820191EDCC
:10262000001AB0EE410A40F226210DF061FC0B4881
:102630001149097800EB810080ED000A0BE00020D1
:10264000064928390874022104482838C171182025
:1026500002492839087010BD0000C84270040024E7
:10266000E104002438C00024E7040024EC04002422
:10267000E004002464070024E20400248FC2F53C37
:1026800010B56248007C50B9FFF71CFD00205F497F
:10269000C86001215D48C17101205C4908745B4834
:1026A000C06840F2DC5188427ED25848C068401C65
:1026B0005649C8600120564908745649097801EB0B
:1026C0008101554A02EB8101544A127801EB8201E3
:1026D00091ED001AF0EE410A4C49C86814314F4A96
:1026E000127801EB820191ED001AB0EE410A4FF42D
:1026F000C8710EF07BFC454828304849097800EB4A
:10270000810080ED000A4349097801EB8101424ACA
:1027100002EB8101424A127801EB820191ED001A2D
:10272000F0EE410A3949C86814313D4A127801EB8C
:10273000820191ED001AB0EE410A4FF4C8710EF01B
:1027400055FC324828303649097800EB810080ED8D
:10275000000A3049097801EB81012F4A02EB81011F
:10276000304A127801EB820191ED001AF0EE410A35
:102770002649C86814312B4A127801EB820191ED89
:10278000001AB0EE410A4FF496610EF02FFC1F487C
:1027900028302449097800EB810080ED000A1D49AA
:1027A000097801EB810100E025E01B4A02EB810181
:1027B0001D4A127801EB820191ED001AF0EE410AF8
:1027C0001249C968A1F5966010491431164A127869
:1027D00001EB820191ED001AB0EE410A4FF49671BF
:1027E0000EF004FC094828300F49097800EB8100FD
:1027F00080ED000A08E00020044908740221034823
:10280000C17118200149087010BD0000480400245F
:1028100038C00024E7040024EC040024E004002471
:10282000E1040024E2040024E304002410B5E0489D
:10283000007C68B9FFF746FC0020DD49C860012133
:10284000DB48C1710120DA4908740020D9490870B9
:10285000D748C06840F24C4188427DD2D448C06815
:10286000401CD349C8600120D34908720021D248D6
:102870008172CF4890F83C0000286ED1CC49C968DD
:10288000A1F5AF70CD49CE4A127801EB820191EDEE
:10289000001AF0EE410AC6491431C94A127801EB18
:1028A000820191ED001AB0EE410A40F2EE210EF0E5
:1028B0009DFBBF482830C249097800EB810080EDBC
:1028C000000ABB49C968A1F52F70BC49BD4A1278FE
:1028D00001EB820191ED001ADFEDBB1A31EE611AB6
:1028E000F0EE410AB2491431B64A127801EB820186
:1028F00091ED001AB0EE410A4FF4C8710DF0F8FAEC
:10290000AB482830AF49097800EB810080ED000A20
:10291000A749C968A1F5AF70A849AC4A127801EB84
:10292000820191ED001AF0EE410AA1491431A74A43
:10293000127801EB820191ED001AB0EE410A40F2EB
:10294000EE210EF053FB9A482830A049097800EB9D
:10295000810080ED000A01E0B6E021E09449C868FA
:1029600096499B4A127801EB820191ED001AF0EE34
:10297000410A8F491431964A127801EB820191ED98
:10298000001AB0EE410A4FF4AF710EF02FFB8848E9
:1029900028308F49097800EB810080ED000A06E1BC
:1029A000834890F83C000128F9D18149C968A1F514
:1029B000AF708849824A127801EB820191ED001ACA
:1029C000F0EE410A7A4914317D4A127801EB820116
:1029D00091ED001AB0EE410A40F2EE210EF006FB36
:1029E000734828307649097800EB810080ED000AB1
:1029F0006F49C968A1F52F707649724A127801EBC8
:102A0000820191ED001ADFED701A31EE611AF0EEDD
:102A1000410A674914316B4A127801EB820191ED4A
:102A2000001AB0EE410A4FF4C8710DF061FA604827
:102A300028306449097800EB810080ED000A5C4988
:102A4000C968A1F5AF706349604A127801EB820151
:102A500091ED001AF0EE410A554914315B4A1278A3
:102A600001EB820191ED001AB0EE410A40F2EE2135
:102A70000EF0BCFA4E4828305449097800EB81002A
:102A800080ED000A4A49C8685249514A127801EB60
:102A9000820191ED001AF0EE410A454914314C4A89
:102AA000127801EB820191ED001AB0EE410A4FF469
:102AB000AF710EF09BFA3E4828304549097800EB8B
:102AC000810080ED000A72E03948C06840F24C4154
:102AD00088425FD33648C068B0F5AF6F5AD23448E9
:102AE000C068401C3249C860084690F83C0028BBCA
:102AF000C968A1F24C403149324A127801EB820197
:102B000091ED001AF0EE410A2C492E4A127801EBA1
:102B1000820191ED001ADFED2C1A31EE611AB0EE50
:102B2000410A4FF496710DF0E3F921482830254908
:102B3000097800EB810080ED000A38E01C4890F82D
:102B40003C00012833D11A49C968A1F24C402149FF
:102B50001C4A127801EB820191ED001AF0EE410A55
:102B60001C49184A127801EB820191ED001ADFED41
:102B7000161A31EE611AB0EE410A4FF496710DF05B
:102B8000B7F90B4828300F49097800EB810080ED38
:102B9000000A0CE00648C068B0F5AF6F07D300200C
:102BA000034908741920087001200249087010BDFB
:102BB00048040024FD000024BEBF00247807002440
:102BC000E0040024E10400240000C843E2040024DF
:102BD000E30400248C07002410B54548007C30B97C
:102BE000FFF770FA00204249C8600120087440488D
:102BF000C06896282AD23E48C068401C3C49C8603C
:102C00003C49097801EB81013B4A02EB81013B4AD7
:102C1000127801EB820191ED001AF0EE410A34497D
:102C2000C8681431354A127801EB820191ED001A1F
:102C3000B0EE410A32210DF05BF92D4828302F49C2
:102C4000097800EB810080ED000A4FE02848C06859
:102C500096283BD32648C068B0F5617F36D2244819
:102C6000C068401C2249C8600121254801732549DC
:102C7000097801EB8101204A02EB81011F4A127899
:102C800001EB820191ED001AF0EE410A1949097831
:102C900001EB8101184A02EB8101184A127801EB1D
:102CA000820191ED001AB0EE410A1149C968A1F5FF
:102CB000C8704FF4FA710DF01BF90D4828300F4918
:102CC000097800EB810080ED000A0FE00020084940
:102CD00008740B48007810B10220087006E002204A
:102CE00003490871012048741820087010BD0000C5
:102CF000480400245005002454050024E404002462
:102D0000BEBF00245105002400BFFFF751F805485D
:102D1000008B401C81B20348018301200DF064FA4E
:102D2000F3E70000F8BE00242DE9F041044602F06C
:102D3000B9FE804614B90120BDE8F08194F8350051
:102D4000022808D08020606500BF002084F834008D
:102D500000BF0120F0E7FE492068884249D0FC49C5
:102D600018312068884244D0F949303120688842BF
:102D70003FD0F7494831206888423AD0F449603161
:102D80002068884235D0F24978312068884230D0B6
:102D9000EF499031206888422BD0ED49A831206856
:102DA000884226D0EB492068884222D0E949183170
:102DB000206888421DD0E74930312068884218D009
:102DC000E44948312068884213D0E24960312068E4
:102DD00088420ED0DF4978312068884209D0DD4929
:102DE00090312068884204D0DA49A83120688842AE
:102DF00001D1012000E0002068B12068006820F0C7
:102E00001E00216808602068406920F08000216869
:102E10004861256806E02068006820F00E002168FF
:102E200008602568CA492068884270D0C8491831AE
:102E3000206888426BD0C64930312068884266D00D
:102E4000C34948312068884261D0C1496031206857
:102E500088425CD0BE4978312068884257D0BC494E
:102E600090312068884252D0B949A8312068884200
:102E70004DD0B8492068884249D0B64918312068F9
:102E8000884244D0B3493031206888423FD0B149AC
:102E90004831206888423AD0AE4960312068884283
:102EA00035D0AC4978312068884230D0A94990317A
:102EB000206888422BD0A749A8312068884226D0B4
:102EC000A5492068884222D0A3491431206888424D
:102ED0001DD0A14928312068884218D09E493C3134
:102EE0002068884213D09C495031206888420ED017
:102EF000994964312068884209D09749783120681F
:102F0000884204D094498C312068884201D1012044
:102F100000E0002028B1206E006820F48070216E4F
:102F200008608B492068884249D089491831206857
:102F3000884244D086493031206888423FD0844955
:102F40004831206888423AD08149603120688842FF
:102F500035D07F4978312068884230D07C49903123
:102F6000206888422BD07A49A8312068884226D030
:102F700078492068884222D07649183120688842F2
:102F80001DD0744930312068884218D071494831C9
:102F90002068884213D06F496031206888420ED083
:102FA0006C4978312068884209D06A49903120689C
:102FB000884204D06749A8312068884206D1206839
:102FC000006820F001002168086005E020680068C2
:102FD00020F001002168086011E002F063FDA0EB21
:102FE000080005280BD920206065032084F83500EF
:102FF00000BF002084F8340000BF01209CE6286850
:1030000000F001000028E8D151492068884249D0E9
:103010004F4918312068884244D04D4930312068EA
:1030200088423FD04A494831206888423AD04849CE
:1030300060312068884235D045497831206888421F
:1030400030D043499031206888422BD04049A83184
:103050002068884226D03F492068884222D03D49D6
:103060001831206888421DD03A49303120688842A2
:1030700018D0384948312068884213D0354960312A
:10308000206888420ED0334978312068884209D0C0
:10309000304990312068884204D02E49A8312068F8
:1030A000884201D1012000E0002040B1A66D94F8D3
:1030B0005C0000F01F013F208840B06007E0A76D72
:1030C00094F85C0000F01F010120884078602049DE
:1030D0002068884276D01E4918312068884271D015
:1030E0001B493031206888426CD01949483120682A
:1030F000884267D0164960312068884262D01449FE
:103100007831206888425DD011499031206888422A
:1031100058D00F49A8312068884253D00D49206803
:1031200088424FD00B491831206888424AD009495B
:1031300030312068884245D00649483120688842AD
:1031400040D004496031206888423BD0014905E005
:1031500010000240100402400854025878312068E0
:1031600088422FD02549206888422BD02349183126
:103170002068884226D022492068884222D02049EF
:103180001431206888421DD01D49283120688842AA
:1031900018D01B493C312068884213D0184950315F
:1031A000206888420ED0164964312068884209D0D0
:1031B000134978312068884204D011498C31206845
:1031C000884201D1012000E0002068B1D4E9191043
:1031D0004860E06E40B1E06E006820F48070E16EFF
:1031E0000860D4E91C104860012084F8350000BF55
:1031F000002084F8340000BF00BF9DE5A004024019
:103200000854025870B504460CB9012070BD94F8FA
:103210003500022803D0802060650120F6E7DC49F4
:103220002068884249D0DA4918312068884244D061
:10323000D7493031206888423FD0D549483120688D
:1032400088423AD0D24960312068884235D0D0498E
:1032500078312068884230D0CD499031206888424A
:103260002BD0CB49A8312068884226D0C949206894
:10327000884222D0C7491831206888421DD0C549EC
:1032800030312068884218D0C249483120688842CD
:1032900013D0C0496031206888420ED0BD497831D2
:1032A0002068884209D0BB4990312068884204D008
:1032B000B849A8312068884201D1012000E00020EF
:1032C000F0B3042084F83500B149206888424BD01F
:1032D000AF4918312068884246D0AD493031206866
:1032E000884241D0AA494831206888423CD0A84948
:1032F00060312068884237D0A549783120688842FB
:1033000032D0A3499031206888422DD0A049A831FD
:103310002068884228D09F492068884224D09D494F
:103320001831206888421FD09A493031206888427D
:103330001AD0984948312068884215D0954900E054
:1033400020E06031206888420ED0924978312068B0
:10335000884209D08F4990312068884204D08D4935
:10336000A8312068884206D12068006820F001005A
:103370002168086009E12068006820F001002168E8
:10338000086002E12068006820F00E0021680860F3
:103390007F492068884249D07D4918312068884299
:1033A00044D07B493031206888423FD07849483149
:1033B000206888423AD0764960312068884235D00A
:1033C000734978312068884230D071499031206843
:1033D00088422BD06E49A8312068884226D06D499A
:1033E0002068884222D06B491831206888421DD05D
:1033F000684930312068884218D0664948312068D1
:10340000884213D063496031206888420ED06149F8
:1034100078312068884209D05E499031206888421E
:1034200004D05C49A8312068884206D12068006831
:1034300020F001002168086005E02068006820F0A5
:1034400001002168086052492068884270D05049C4
:103450001831206888426BD04D493031206888424D
:1034600066D04B4948312068884261D04849603174
:10347000206888425CD0464978312068884257D01D
:10348000434990312068884252D04149A831206890
:1034900088424DD03F492068884249D03D49183183
:1034A0002068884244D03B493031206888423FD070
:1034B00038494831206888423AD03649603120681E
:1034C000884235D0334978312068884230D031493C
:1034D0009031206888422BD02E49A831206888423C
:1034E00026D02D492068884222D02B4914312068EB
:1034F00088421DD0284928312068884218D02649A2
:103500003C312068884213D02349503120688842DA
:103510000ED0214964312068884209D01E49783193
:103520002068884204D01C498C312068884201D12F
:10353000012000E00020D8B1206E006820F48070E7
:10354000216E0860A56D94F85C0000F01F01012059
:1035500088406860D4E919104860E06E40B1E06EC0
:10356000006820F48070E16E0860D4E91C104860A7
:10357000012084F8350000BF002084F8340000BF2B
:10358000206D10B12046216D884700203EE60000E6
:103590001000024010040240085402580146486DD1
:1035A000704700002DE9F84F044600200090FE48C7
:1035B00000684FF41651B0FBF1FAA66DD4F85880AC
:1035C0003768D8F80090F9492068884249D0F7490F
:1035D00018312068884244D0F4493031206888424C
:1035E0003FD0F2494831206888423AD0EF496031F3
:1035F0002068884235D0ED4978312068884230D043
:10360000EA499031206888422BD0E849A8312068E7
:10361000884226D0E6492068884222D0E449183101
:10362000206888421DD0E24930312068884218D095
:10363000DF4948312068884213D0DD496031206875
:1036400088420ED0DA4978312068884209D0D849BA
:1036500090312068884204D0D549A831206888423A
:1036600001D1012000E0002000287DD094F85C000A
:1036700000F01F01082088403840002868D0CB495E
:103680002068884249D0C94918312068884244D00E
:10369000C6493031206888423FD0C449483120684B
:1036A00088423AD0C14960312068884235D0BF494C
:1036B00078312068884230D0BC49903120688842F7
:1036C0002BD0BA49A8312068884226D0B849206852
:1036D000884222D0B6491831206888421DD0B449AA
:1036E00030312068884218D0B1494831206888427A
:1036F00013D0AF496031206888420ED0AC49783190
:103700002068884209D0AA4990312068884204D0B4
:10371000A749A8312068884204D12068006800F0D9
:10372000040003E02068006800F0080080B1206811
:10373000006820F004002168086094F85C0000F044
:103740001F0108208840B060606D40F00100606596
:1037500094F85C0000F01F01012088403840E8B375
:1037600092492068884200E0B7E24BD08F49183177
:103770002068884246D08D4930312068884241D047
:103780008A494831206888423CD0884960312068A5
:10379000884237D0854978312068884232D08349C1
:1037A0009031206888422DD08049A8312068884215
:1037B00028D07F492068884224D07D49183120686C
:1037C00088421FD07A493031206888421AD078491F
:1037D00048312068884215D0754900E026E0603104
:1037E000206888420ED0724978312068884209D01A
:1037F0006F4990312068884204D06D49A831206813
:10380000884204D12068406900F0800002E020680E
:103810000068002050B194F85C0000F01F01012006
:103820008840B060606D40F00200606594F85C0014
:1038300000F01F01042088403840E8B35B4920684D
:1038400088424BD0594918312068884246D05749A0
:1038500030312068884241D054494831206888423C
:103860003CD0524960312068884237D04F49783186
:103870002068884232D04D499031206888422DD04E
:103880004A49A8312068884228D04949206888429E
:1038900024D047491831206888421FD0444930312C
:1038A000206888421AD0424948312068884215D0A1
:1038B0003F496031206800E024E088420ED03C4956
:1038C00078312068884209D039499031206888428F
:1038D00004D03749A8312068884204D120680068A4
:1038E00000F0020002E020680068002050B194F867
:1038F0005C0000F01F0104208840B060606D40F063
:103900000400606594F85C0000F01F0110208840FE
:103910003840E8B325492068884251D023491831FE
:10392000206888424CD0214930312068884247D0F5
:103930001E4948312068884242D01C4960312068C5
:1039400088423DD0194978312068884238D01749DB
:1039500090312068884233D01449A83120688842C9
:103960002ED01349206888422AD011491831206886
:10397000884225D00E4930312068884220D00C4939
:103980004831206888421BD009496031206800E036
:103990004DE0884214D006497831206888420FD023
:1039A00003499031206805E02C00002410000240FB
:1039B00010040240884203D0FE492068884204D1A6
:1039C0002068006800F0080003E02068006800F04C
:1039D000040060B394F85C0000F01F0110208840E0
:1039E000B0602068006800F4802080B12068006822
:1039F00000F4002028B9206CC8B12046216C88470B
:103A000015E0A06C98B12046A16C88470FE02068B3
:103A1000006800F4807028B92068006820F0080071
:103A200021680860206C10B12046216C884794F80A
:103A30005C0000F01F0120208840384000287DD025
:103A4000DD492068884249D0DB4918312068884226
:103A500044D0D9493031206888423FD0D6494831D6
:103A6000206888423AD0D44960312068884235D0F5
:103A7000D14978312068884230D0CF4990312068D0
:103A800088422BD0CC49A8312068884226D0C94929
:103A9000A8392068884221D0C649903920688842D8
:103AA0001CD0C44978392068884217D0C149603990
:103AB0002068884212D0BF494839206888420DD01A
:103AC000BC4930392068884208D0BA491839206882
:103AD000884203D0B7492068884204D12068006832
:103AE00000F0100003E02068006800F0020028B336
:103AF00094F85C0000F01F0120208840B06094F82A
:103B0000350004282DD12068006820F016002168B7
:103B100008602068406920F0800021684861206CBE
:103B200008B9A06C28B12068006820F0080021685E
:103B3000086094F85C0000F01F0100E03FE03F20C7
:103B40008840B060012084F8350000BF002084F870
:103B5000340000BF206D10B12046216D8847BDE8BC
:103B6000F88F2068006800F4802080B12068006829
:103B700000F4002028B9606C08B32046616C8847C7
:103B80001DE0E06BD8B12046E16B884717E0206864
:103B9000006800F4807068B92068006820F01000A8
:103BA00021680860012084F8350000BF002084F8F7
:103BB000340000BFE06B10B12046E16B8847606DB8
:103BC00000287AD0606D00F00100E8B3042084F88A
:103BD00035007949206888424BD0774918312068F0
:103BE000884246D0744930312068884241D07249B9
:103BF0004831206888423CD06F4960312068884253
:103C000037D06D4978312068884232D06A49903186
:103C1000206888422DD06849A8312068884228D081
:103C20006449A8392068884223D0624990392068C5
:103C300088421ED05F4978392068884219D05D4992
:103C400060392068884200E040E012D05949483984
:103C5000206888420DD0574930392068884208D002
:103C6000544918392068884203D052492068884254
:103C700006D12068006820F001002168086005E096
:103C80002068006820F001002168086000BF0098EB
:103C9000401C0090504500D905E02068006800F005
:103CA00001000028F3D100BF2068006800F0010087
:103CB00020B1032084F8350003E00DE0012084F8F2
:103CC000350000BF002084F8340000BFE06C0028FD
:103CD00002D02046E16C8847D9E138492068884203
:103CE00022D036491431206888421DD0334928310A
:103CF0002068884218D031493C312068884213D06E
:103D00002E495031206888420ED02C4964312068F9
:103D1000884209D0294978312068884204D027494F
:103D20008C312068884201D1012000E00020002869
:103D3000D2D02068056894F85C0000F01F010420D0
:103D4000884000EA0900D8B305F00400C0B394F835
:103D50005C0000F01F0104208840C8F8040005F44E
:103D6000004080B105F4803030B9A06C0028B3D099
:103D70002046A16C88478AE1206C0028ACD0204600
:103D8000216C884783E105F02000E8BB0A492068E0
:103D9000884253D008491831206888424ED00649DD
:103DA00030312068884249D0034948312068884230
:103DB00044D006E0B8040240100002400854025803
:103DC0004FE0B44960312068884237D0B14978313A
:103DD0002068884232D0AF499031206888422DD087
:103DE000AC49A8312068884228D0AB492068884275
:103DF00024D0A9491831206888421FD0A649303103
:103E0000206888421AD000E025E0A34948312068A4
:103E1000884213D0A0496031206888420ED09E4964
:103E200078312068884209D09B49903120688842C7
:103E300004D09949A8312068884206D120680068DA
:103E400020F008002168086005E02068006820F084
:103E5000040021680860206C10B32046216C88475C
:103E600015E194F85C0000F01F010220884000EA90
:103E70000900E8B305F00200D0B394F85C0000F04C
:103E80001F0102208840C8F8040005F4004070B10A
:103E900005F4803028B9606C10B12046616C884709
:103EA000F5E0E06BF0B32046E16B8847EFE005F00A
:103EB0002000C0BB7749206888424ED07549183130
:103EC0002068884249D0734930312068884244D004
:103ED00070494831206888423FD06E49603120687F
:103EE00088423AD06B4978312068884235D000E06A
:103EF0004EE068499031206888422ED06549A8314B
:103F00002068884229D064492068884225D06249C7
:103F100018312068884220D05F49303120688842BB
:103F20001BD001E06EE02DE05B49483120688842FB
:103F300013D059496031206888420ED056497831F3
:103F40002068884209D0544990312068884204D0C2
:103F50005149A8312068884206D12068006820F0C5
:103F600014002168086005E02068006820F00A005D
:103F700021680860012084F8350000BF002084F823
:103F8000340000BFE06BE8B32046E16B88477EE079
:103F900094F85C0000F01F010820884000EA090046
:103FA00080B305F0080068B33A49206888424BD0D6
:103FB000384918312068884246D036493031206867
:103FC000884241D033494831206888423CD0314949
:103FD00060312068884237D02E4978312068884285
:103FE00032D02C499031206888422DD02949A831FF
:103FF0002068884228D028492068884224D0264951
:10400000183100E043E0206888421DD02249303159
:104010002068884218D0204948312068884213D04F
:104020001D496031206888420ED01B4978312068D4
:10403000884209D0184990312068884204D0164936
:10404000A8312068884206D12068006820F01C0052
:104050002168086005E02068006820F00E002168F3
:10406000086094F85C0000F01F0101208840C8F847
:1040700004000120606584F8350000BF002084F84A
:10408000340000BFE06C10B12046E16C884700BFEF
:1040900065E5000010000240100402402DE9F041E7
:1040A000044601F0FFFC804614B90120BDE8F08110
:1040B000FE492068884249D0FC491831206888426E
:1040C00044D0FA493031206888423FD0F74948311E
:1040D000206888423AD0F54960312068884235D05E
:1040E000F24978312068884230D0F0499031206818
:1040F00088422BD0ED49A8312068884226D0EC496F
:104100002068884222D0EA491831206888421DD0B0
:10411000E74930312068884218D0E54948312068A5
:10412000884213D0E2496031206888420ED0E049CD
:1041300078312068884209D0DD4990312068884272
:1041400004D0DB49A8312068884201D1012000E079
:104150000020002873D0606A00B100BF022084F8FC
:10416000350000BF002084F8340000BFCF4920682C
:10417000884249D0CD4918312068884244D0CB4983
:104180003031206888423FD0C84948312068884291
:104190003AD0C64960312068884235D0C349783169
:1041A0002068884230D0C1499031206888422BD0A5
:1041B000BE49A8312068884226D0BD49206888427F
:1041C00022D0BB491831206888421DD0B84930310F
:1041D0002068884218D0B64948312068884213D0F8
:1041E000B3496031206888420ED0B14978312068E7
:1041F000884209D0AE4990312068884204D0AC4949
:10420000A8312068884206D12068006820F00100AB
:104210002168086005E02068006820F0010021683E
:1042200008600DE001F03EFCA0EB0800052807D96E
:1042300020206065032084F83500012036E769E01E
:104240002068006800F001000028EBD120680568B4
:1042500098480540D4E9020108432169084361698F
:104260000843A1690843E1690843216A08430543FB
:10427000606A042803D1D4E90B0108430543606850
:10428000292802D360682E2817D960683F2802D3F6
:104290006068422811D96068472802D360684828BE
:1042A0000BD960684F2802D36068522805D960682E
:1042B000742804D36068772801D8012000E000202A
:1042C00008B145F48015206805602068456925F02F
:1042D0000705606A0543606A04280DD1A06A05439A
:1042E000E06A48B12046FDF77DF828B140206065BE
:1042F000012084F83500D9E6206845612046FCF7A6
:104300004DFF064694F85C0000F01F013F208840F6
:10431000B0609EE068492068884222D06649143126
:10432000206888421DD0644928312068884218D00E
:1043300061493C312068884213D05F495031206880
:1043400088420ED05C4964312068884209D05A49BD
:1043500078312068884204D057498C3120688842DF
:1043600001D1012000E00020E0B3534920688842D9
:1043700022D051491431206888421DD04E4928313D
:104380002068884218D04C493C312068884213D0BC
:1043900049495031206888420ED04749643120682D
:1043A000884209D0444978312068884204D0424983
:1043B0008C312068884201D1012000E0002000B14A
:1043C00000BF022084F8350000BF002084F83400CC
:1043D00000BF2068056839480540A068402802D120
:1043E000102106E02EE0A068802801D1C10100E084
:1043F0000021E06841EAD001206941EAD00160690A
:1044000041EAD001A06941EAD001E06941EAD00166
:10441000206A41EA1010054320680560264920689B
:10442000401A1421B0FBF1F08000E0652046FCF753
:10443000B5FE074694F85C0000F01F01012088409B
:10444000786006E040206065032084F83500012094
:104450002CE61649206888427AD014491831206821
:10446000884275D0114930312068884270D00F4998
:104470004831206888426BD00C49603120688842FE
:1044800066D00A4978312068884261D00749903166
:10449000206888425CD00549A8312068884257D0FE
:1044A00003492068884253D0014909E010000240C6
:1044B000100402403F8010FE085402580F00FEFF17
:1044C00018312068884243D03749206888423FD05D
:1044D00035491831206888423AD033493031206854
:1044E000884235D0304948312068884230D02E4942
:1044F0006031206888422BD02B497831206888426F
:1045000026D02A492068884222D0284914312068C0
:1045100088421DD0254928312068884218D0234977
:104520003C312068884213D02049503120688842AD
:104530000ED01E4964312068884209D01B49783169
:104540002068884204D019498C312068884201D102
:10455000012000E0002000B32046FCF795FEA06893
:10456000802801D1002060602079216E0860D4E9A4
:1045700019104860606860B16068082809D8204652
:10458000FCF7E4FE0020E16E0860D4E91C104860EE
:1045900003E00020E066206760670020606501207E
:1045A00084F83500002081E5400402400854025898
:1045B0002DE9F04104460D4616461F464FF000080F
:1045C00014B90120BDE8F08100BF94F8340001283F
:1045D00001D10220F6E7012084F8340000BF94F8EE
:1045E000350001287ED1022084F835000020606566
:1045F000E4492068884249D0E2491831206888425D
:1046000044D0E0493031206888423FD0DD4948310C
:10461000206888423AD0DB4960312068884235D032
:10462000D84978312068884230D0D6499031206806
:1046300088422BD0D349A8312068884226D0D2495D
:104640002068884222D0D0491831206888421DD085
:10465000CD4930312068884218D0CB494831206894
:10466000884213D0C8496031206888420ED0C649BC
:1046700078312068884209D0C34990312068884247
:1046800004D0C149A8312068884206D1206800685A
:1046900020F001002168086005E02068006820F033
:1046A0000100216808603B46324629462046FCF757
:1046B000F1FEB449206888424BD0B24918312068D5
:1046C000884246D0AF4930312068884241D0AD4958
:1046D0004831206888423CD0AA496031206888422D
:1046E00037D000E042E1A74978312068884230D0D5
:1046F000A4499031206888422BD0A249A831206873
:10470000884226D0A0492068884222D09E4918318C
:10471000206888421DD09C4930312068884218D0DA
:10472000994948312068884213D097496031206800
:1047300088420ED0944978312068884209D0924945
:1047400090312068884204D08F49A831206888427F
:1047500001D1012000E0002080B12068006820F035
:104760001E0040F0160021680860206CB0B120687F
:10477000006840F00800216808600FE020680068C9
:1047800020F00E0040F00A0021680860206C28B17B
:104790002068006840F004002168086079492068BA
:1047A000884270D077491831206888426BD07549AB
:1047B00030312068884266D072494831206888428A
:1047C00061D070496031206888425CD06D49783191
:1047D0002068884257D06B4990312068884252D077
:1047E0006849A831206888424DD0674920688842CE
:1047F00049D0654918312068884244D06249303137
:10480000206888423FD060494831206888423AD0C9
:104810005D4960312068884235D05B497831206835
:10482000884230D058499031206888422BD0564970
:10483000A8312068884226D054492068884222D076
:1048400052491431206888421DD0504928312068CF
:10485000884218D04D493C312068884213D04B49DA
:104860005031206888420ED048496431206888421F
:1048700009D0464978312068884204D043498C31B8
:104880002068884201D1012000E0002090B1206E14
:10489000006800F4803028B1206E006840F4807019
:1048A000216E0860E06E28B1E06E006840F4807010
:1048B000E16E086033492068884249D03149183197
:1048C0002068884244D02F493031206888423FD048
:1048D0002C494831206888423AD02A496031206802
:1048E000884235D0274978312068884230D0254920
:1048F0009031206888422BD02249A8312068884214
:1049000026D021492068884222D01F4918312068CA
:1049100088421DD01C4930312068884218D01A497D
:1049200048312068884213D0174960312068884296
:104930000ED0154978312068884209D0124990314B
:104940002068884204D01049A8312068884206D1E6
:104950002068006840F001002168086010E02068CD
:10496000006840F001002168086009E04FF4006031
:10497000606500BF002084F8340000BF4FF00108DC
:1049800040461FE61000024010040240085402583E
:1049900070B5044601F086F806462546681C10B13D
:1049A00004480078054400BF01F07CF8801BA84251
:1049B000FAD370BD2800002430B5034693F8984020
:1049C000012C01D0022C3ED11868806D084030B90E
:1049D0001868C06D40F001001D68E8650EE01868B9
:1049E000806D0840884206D11868C06D40F0020012
:1049F0001D68E86502E003201D68E86501F40070A9
:104A000030B11868D0F8E00010431D68C5F8E00028
:104A100001F4806030B11868D0F8E40010431D68DC
:104A2000C5F8E40000BF1868406D0B4D0D402843E9
:104A30001D6868650948006840EA9170074D286064
:104A400000BF002030BDD3F89C0040F00200C3F846
:104A50009C000120F6E70000FFFFCF3F14A80040B4
:104A60002DE9F04104460E461746706800B900E093
:104A700000BF94F89800022832D12068D0F8C00016
:104A800000F07C5040B9D4F89C0040F02000C4F8FD
:104A90009C000120BDE8F0812068D0F8C40000F43B
:104AA000001038B1D4F89C0040F40070C4F89C00A9
:104AB0000120EFE72068D0F8C400C0F304452B467E
:104AC0003A4631462046FCF75DFF0120A8402168A8
:104AD000C1F8D0000120A840C4F894000020D9E714
:104AE000D4F89C0040F00800C4F89C000120D1E7F5
:104AF0007047F0B5024692F89860012E01D0022E60
:104B000043D1C868072800D100BF086818BBC8682F
:104B1000072800D000BFC86807280BD1088A4FF0CB
:104B2000605747EA0040CF6940EA07208F6940EAB2
:104B300007040AE0087A80070F7B40EAC7600F8A03
:104B400040EA07404F6940EA0704D76E486807EB20
:104B500080031C6017E0C868072800D000BF0F7BE7
:104B6000086940EA4774C868072801D18D6903E0E5
:104B70000F7A486940EA8775176F486807EBC003EA
:104B80001C601B1D1D600020F0BDD2F89C0040F091
:104B90000200C2F89C000120F6E770B50446049DAF
:104BA00094F8980001280AD1080140EA820040EAFE
:104BB000430028432668C6F88000002070BDD4F862
:104BC0009C0040F00400C4F89C000120F6E7704708
:104BD00070B504460D460848844205D00748844213
:104BE00002D00748844205D105F0007010B120467C
:104BF000FBF720FF70BD000018080024B80800244F
:104C00005809002403461868426C02F00700086047
:104C1000C2F30220486002F018008860C2F340101E
:104C2000C860C2F380100861C2F3C0104861C2F3CB
:104C3000C0208861C2F30030C861C2F3403008620E
:104C4000C2F380304862C2F3064088620020704799
:104C50002DE9F04304460D469C46002394F89880C5
:104C6000B8F1020F74D1402D38D12068D0F8A000DF
:104C700000F4FE0040B9D4F89C0040F02000C4F8D5
:104C80009C000120BDE8F0832068D0F8A40000F06B
:104C90007F0038B9D4F89C0040F48070C4F89C00C0
:104CA0000120EFE72068D0F8A400C0F3006040B115
:104CB0002068D0F8A0004FF00109B9EBD07F00D1F7
:104CC00001232068D0F8A400C0F305200344606CE1
:104CD0005843D4F8749009EB80014BE0412D38D152
:104CE0002068D0F8B00000F4FE0038B9D4F89C0079
:104CF00040F02000C4F89C000120C3E72068D0F8F1
:104D0000B40000F07F0038B9D4F89C0040F4807003
:104D1000C4F89C000120B5E72068D0F8B400C0F3C7
:104D2000006040B12068D0F8B0004FF00109B9EB45
:104D3000D07F00D101232068D0F8B400C0F3052053
:104D40000344E06C5843D4F8789009EB800111E0FB
:104D50006DE0206DA84207D8D4F89C0040F02000F8
:104D6000C4F89C0001208DE7606D6843D4F87C9006
:104D700009EB8001086800F080405060506820B95D
:104D80000868C0F38A40106003E0086820F06040C3
:104D90001060086800F000509060086800F0004063
:104DA0001061091D088880B2D0610868C0F3034013
:104DB000D060086800F480105061086800F40010AA
:104DC00090610868C0F3066010620868C00F506206
:104DD000091D0F46002603E0B85D0CF80600761C9E
:104DE000DFF85C90D06819F80000B042F4D8402D8C
:104DF00003D12068C0F8A83017E0412D03D1206806
:104E0000C0F8B83011E0202D06D20120A840D4F817
:104E10000090C9F8980008E005F01F09012000FA89
:104E200009F0D4F80090C9F89C0000202AE7D4F8D3
:104E30009C0040F00800C4F89C00012022E700001C
:104E40008424010801460A68D2F8C42002F03F0019
:104E5000704770472DE9F04F8DB00446EF48006869
:104E60008707EE48001D006807EA80772068006D1C
:104E700000F470482068406D00EA08082068006D62
:104E800000F00F092068406D00EA09092068006DF4
:104E900000F0F00A2068406D00EA0A0A2068006D00
:104EA00000F0715B2068406D00EA0B0B2068006D1C
:104EB00000F060700C902068406D0C9908400C90D8
:104EC0002068456D2068066DC5F3002070B1C6F3FB
:104ED000002058B100BF4FF48070216808650020A1
:104EE000CE49086000BF2046FFF7B3FFC5F380201E
:104EF000C8B1C6F38020B0B12068D0F8DC000A90B9
:104F00002068D0F8E4000A9908400A9000BF4FF4E6
:104F10008060216808650020C049086000BF204605
:104F20000A9900F0C2FC67B100BFBD483840216853
:104F30000865B80FB949086000BF39462046FFF739
:104F4000D7FDB8F1000F0ED000BFB54808EA000049
:104F5000216808654FEA9870B049086000BF414673
:104F6000204600F0A4FCB9F1000F0ED000BFAC4801
:104F700009EA0000216808654FEA9970A7490860AE
:104F800000BF4946204600F0C9FBBAF1000F0ED021
:104F900000BFA3480AEA0000216808654FEA9A703A
:104FA0009E49086000BF5146204600F05DFCC5F3F5
:104FB000C02070B1C6F3C02058B100BF4FF40060EC
:104FC0002168086500209549086000BF204600F070
:104FD0006FFCC5F34020C8B1C6F34020B0B12068D3
:104FE000D0F8D8000B902068D0F8E0000B9908406A
:104FF0000B9000BF4FF400702168086500208749BE
:10500000086000BF20460B9900F050FCC5F3C0407B
:1050100070B1C6F3C04058B100BF4FF40020216802
:10502000086500207D49086000BF204600F074FB41
:10503000C5F3004070B1C6F3004058B100BF4FF453
:1050400080302168086500207449086000BF204650
:1050500000F02AFCC5F3804070B1C6F3804058B11F
:1050600000BF4FF480202168086500206B4908606C
:1050700000BF204600F017FCC5F3404088B1C6F3DE
:10508000404070B100BF4FF4003021680865002037
:105090006249086000BFD4F89C0040F08000C4F86A
:1050A0009C000C9870B100BF5D490C9808402168C5
:1050B00008650C98800F5949086000BF20460C997C
:1050C000FFF786FDBBF1000F10D000BF54480BEA7C
:1050D0000000216808654FEA9B705049086000BFD6
:1050E000D4F89C0040EA0B00C4F89C004D492068AD
:1050F00088427DD16068806800F00300002877D086
:105100006068006A00F00F0009906068406A0999C1
:10511000084009906068006A00F0300008906068FC
:10512000406A0899084008906068006A00F4C070FE
:1051300007906068406A0799084007906068006AB5
:1051400000F4FC4006906068406A069908400690AA
:105150006068006A00F4F02005906068406A059974
:10516000084005906068406A02906068006A01909B
:10517000099830B10998616808622046099900F0E1
:105180008FFB089830B1089861680862204608993A
:1051900000F088FB0298C0F38010A0B10198C0F322
:1051A000801080B16068C06B000C04906068C06BB8
:1051B00000F03F0003904020616808622046DDE96E
:1051C000032100F06EFB079830B107986168086210
:1051D0002046079900F063FB069840B10698616885
:1051E0000862D4F89C0006990843C4F89C0000E0CB
:1051F0000AE0059840B1059861680862D4F89C00FF
:1052000005990843C4F89C00D4F89C0010B12046CE
:10521000FFF7DDFC0DB0BDE8F08F000010A80040E6
:10522000FFFFCF3F00A0004070B594B004464C2271
:10523000B34901A8FBF7FAF914B9012014B070BD05
:10524000B0492068884203D1206800F58070606012
:10525000A068B0F5407F00D100BF206C00B100BF56
:10526000A06C00B100BF206D00B100BF206E00B186
:1052700000BFD4E91710084400B100BF94F89800AB
:1052800028B9002084F89900204600F03DF92068F4
:10529000806920F010002168886100F003FC054659
:1052A0000EE000F0FFFB401B0A2809D99834606823
:1052B00040F001006060032004F898090120BDE778
:1052C0002068806900F008000828EAD0206880691A
:1052D00040F001002168886100F0E4FB05460EE023
:1052E00000F0E0FB401B0A2809D99834606840F0C0
:1052F00001006060032004F8980901209EE72068FF
:10530000806900F001000028EAD02068806940F040
:10531000020021688861207C012806D1206880690C
:1053200020F040002168886105E02068806940F035
:10533000400021688861607C012806D1206880696E
:1053400040F480402168886105E02068806920F48D
:10535000804021688861A07C012806D1206880698E
:1053600020F480502168886105E02068806940F45D
:105370008050216888612068806920F44070A168AD
:105380000843216888612068806920F0A4002168B2
:1053900088612068006920F0100021680861E068D9
:1053A000012806D12068806940F0040021688861E6
:1053B00020E0E068F0B1E068022815D0206880693C
:1053C00040F08000216888612068006940F010008A
:1053D00021680861E06803280CD12068806940F0EA
:1053E00020002168886105E02068806940F0200085
:1053F00021688861207E401E4106E069401E41EA26
:105400000020216A491E0843A18A491E40EA014042
:105410002168C861A068B0F5407F0FD1A06A401E26
:10542000E16A491E40EA0121206B401E41EA001159
:10543000A08C401E41EA00402168C860206E38B14F
:105440002068D0F8C000616E08432168C1F8C00030
:10545000D4E91710084460B12068D0F8C80020F0E3
:10546000070001AAA16E52F8211008432168C1F873
:10547000C800206C60B12068D0F8BC0020F00700A4
:1054800001AA616C52F8211008432168C1F8BC00E0
:10549000A06C68B12068D0F8BC0020F0700101AAAF
:1054A000E06C52F8200041EA00102168C1F8BC000D
:1054B000206D68B12068D0F8BC0020F4E06101AA3A
:1054C000606D52F8200041EA00202168C1F8BC005C
:1054D0000C492068884205D16068806820F003008C
:1054E00061688860002044F8940FA060012020715A
:1054F000943C2046FCF736F9064630469EE600000E
:105500009424010800A0004010B5B6B00446142150
:1055100030A8FBF7E7F8B82102A8FBF7E3F87649D3
:10552000206888424AD14FF400410020CDE90210A2
:105530001D9002A800F038FE08B1FCF7E6F86F48AD
:105540000068401C6D4908600846006801280DD1BC
:1055500000BF6B48006840F48070694908600846E5
:10556000006800F48070019000BF00BF00BF644875
:105570000C38006840F0010061490C3908600846A9
:10558000006800F00100019000BF00BF4FF4C05060
:105590003090022031900120329003203390092076
:1055A000349030A9574800F085F9002205211320D6
:1055B00000F036FB132000F01FFB9BE052492068EF
:1055C000884249D14FF400410020CDE902101D90DE
:1055D00002A800F0E9FD08B1FCF797F84748006819
:1055E000401C464908600846006801280DD100BFEC
:1055F0004348006840F480704149086008460068EC
:1056000000F48070019000BF00BF00BF3C480C3820
:10561000006840F002003A490C390860084600680A
:1056200000F00200019000BF00BF60203090022017
:10563000319001203290032033900920349030A91A
:10564000324800F037F900220521142000F0E8FA72
:10565000142000F0D1FA4DE02D492068884249D14C
:105660004FF400410020CDE902101D9002A800F087
:105670009BFD08B1FCF749F820480068401C1F4911
:1056800008600846006801280DD100BF1C4800686A
:1056900040F480701A4908600846006800F4807081
:1056A000019000BF00BF00BF15480C38006840F0F3
:1056B000080013490C3908600846006800F008002B
:1056C000019000BF00BF4FF4405030900220319055
:1056D00001203290032033900520349030A90D48EA
:1056E00000F0E8F8002205219F2000F099FA9F20A1
:1056F00000F082FA36B010BD00A000401C0000246B
:10570000EC4402580000025800A400400004025873
:1057100000D40040000C02587047000030B58DB036
:1057200004460D4605F0010000287DD001AB03AA18
:1057300040212046FFF78CFA00287AD13E492068A4
:10574000884247D10398912806D0FD280FD0A0F2B7
:10575000022000283CD130E001AA3849384804F042
:1057600049F838488088401C3649888031E00498E0
:1057700010BB059800BB069808281DD101A9324826
:10578000039A06F0DFFA3148007878B92E4890ED98
:10579000140AB5EEC00AF1EE10FA07D090ED140A23
:1057A0002B4880ED000A012028490870254800890F
:1057B000401C81B2234801810BE001A92548FBF779
:1057C00051FC20488089401C81B21E48818100E044
:1057D00000BF2EE020492068884210D10398A0F233
:1057E000012050B901A91D48FBF73CFC1548408930
:1057F000401C81B21348418100E000BF19E0184904
:105800002068884215D10398B0F5087F0FD1019820
:10581000009014499DF8000004F03EF80948C08942
:10582000401C81B2074800E004E0C18100E000BFF5
:1058300000BF00BF0DB030BD00A000401CC0002460
:105840000C040024F8BE002418C50024040400241D
:10585000080400240001002400A400401C020024CD
:1058600000D40040BEBF00247047014691F8980064
:1058700001280CD1022081F898000868806920F086
:1058800001000A6890610020C1F89C007047D1F8BF
:105890009C0040F00400C1F89C000120F6E770472E
:1058A0007047704770477047704770477047704740
:1058B00070470000F8B502460B4600216D4DD2E05E
:1058C00001278F401E6806EA0704002C72D01E795B
:1058D00006F00306012E04D01E7906F00306022E00
:1058E00013D190684F000326BE40B0434F00DE68DE
:1058F000BE4030439060506801268E40B0431E7910
:10590000C6F300168E40304350601E7906F0030641
:10591000032E09D0D0684F000326BE40B0434F008D
:105920009E68BE403043D0601E7906F00306022E0A
:1059300013D1CF0802F1200656F827004E07F70EC4
:105940000F26BE40B0434F07FF0E1E69BE403043D6
:10595000CF0802F1200646F8270010684F00032602
:10596000BE40B0431E7906F003064F00BE403043F0
:1059700010605E6806F44036002E73D000BF3E4EC5
:10598000366846F002063C4F3E603E46366806F0FA
:105990000206009600BF00BF384E8F0856F8270059
:1059A0008E07370F0F26BE40B043354EB24202D1AC
:1059B000002629E056E0334EB24201D1012623E011
:1059C000314EB24201D102261EE0304EB24201D128
:1059D000032619E02E4EB24201D1042614E02D4ECA
:1059E000B24201D105260FE02B4EB24201D106266C
:1059F0000AE02A4EB24201D1072605E0284EB24203
:105A000001D1092600E00A268F073F0FBE40304330
:105A10001A4E8F0846F827004FF0B0463068A04372
:105A20005E6806F4801606B120434FF0B046306041
:105A30007068A0435E6806F4001606B120434FF07C
:105A4000B04670606868A0435E6806F4003606B130
:105A5000204368602868A0435E6806F4803606B17B
:105A600020432860491C1E68CE40002E7FF428AFDA
:105A7000F8BD000080000058F444025808040058A3
:105A8000000002580004025800080258000C025896
:105A9000001002580014025800180258001C025846
:105AA00000240258014800687047000020000024CC
:105AB00003480068034909780844014908607047B1
:105AC000200000242800002410B5032000F0E6F890
:105AD00001F0DEFB10490968C1F303210F4A515C54
