:020000040800F2
:10000000B8940020A1010008993F00082738000893
:10001000953F000837060008DD4800080000000092
:100020000000000000000000000000009F3F0008EA
:10003000C7070008000000009D3F0008A13F00081E
:10004000BB010008BB010008BB010008BB010008A0
:10005000BB010008BB010008BB010008BB01000890
:10006000BB010008BB010008BB010008BB01000880
:100070003D0600084D0600085D0600086D060008F4
:10008000BB010008BB010008BB010008BB01000860
:10009000BB010008BB010008BB010008BB01000850
:1000A000BB01000871400008BB010008BB0100084B
:1000B000BB010008BB010008BB010008BB01000830
:1000C000BB010008BB010008BB010008BB01000820
:1000D000BB0100089D480008AD480008BD48000865
:1000E000BB010008BB010008BB010008BB01000800
:1000F000BB010008BB010008BB010008BB010008F0
:10010000BB010008BB010008BB010008BB010008DF
:10011000D9410008BB010008BB010008BB01000871
:10012000BB0100087D0600088D060008BB01000821
:10013000BB010008D9080008BB010008BB0100088A
:10014000BB010008BB010008BB010008BB0100089F
:10015000BB0100089D060008AD060008CD48000858
:10016000BB010008BB010008BB010008BB0100087F
:10017000BB010008BB010008BB0100080000000033
:10018000BB010008BB010008DFF810D000F016FA30
:1001900000480047117A0008AFF30080B8940020AF
:1001A0000648804706480047FEE7FEE7FEE7FEE711
:1001B000FEE7FEE7FEE7FEE7FEE7FEE75D4000083C
:1001C000890100082DE9F05F0546002092469B4614
:1001D00088460646814640241BE02846414647465D
:1001E000224600F046F953465A46C01A914110D3B0
:1001F00011461846224600F02DF92D1A67EB01082A
:100200004F4622460120002100F024F917EB000997
:100210004E41201EA4F10104DFDC484631462A4647
:100220004346BDE8F09F00000649074A086850436E
:1002300043F23902104408604008704701490860E1
:1002400070470000540300206D4EC64110B5431A9C
:10025000934209D28318881803E010F8011D03F8AF
:10026000011D521EF9D210BD40EA01039B0703D0C5
:1002700009E008C9121F08C0042AFAD203E011F8E5
:10028000013B00F8013B521EF9D210BDD2B201E091
:1002900000F8012B491EFBD270470022F6E710B58B
:1002A00013460A4604461946FFF7F0FF204610BDE4
:1002B00030B504460020034600E05B1C934203D2A5
:1002C000E05CCD5C401BF8D030BD2DE9F04D81EAFB
:1002D000030404F0004B21F0004514464FF0000ADF
:1002E00023F0004150EA050220D054EA01021DD05B
:1002F000C5F30A570246C5F31303C1F31300C1F354
:100300000A5640F4801543F48013A7EB0608101B2F
:10031000D64608F2FD3873EB050002D308F1010858
:1003200001E092185B41B8F1000F03DA00200146AA
:10033000BDE8F08D00204FF48011064684460EE0A3
:10034000171B73EB050705D3121B63EB050306436D
:100350004CEA010C49084FEA300092185B4150EA20
:100360000107EDD152EA030012D082EA040083EAC9
:100370000501084305D0101BAB4106D20122002322
:1003800006E000224FF0004302E06FF0010253103C
:100390001AEB06004CEB085110EB0A0041EB0B0185
:1003A000BDE8F04D00F0ACB80EB5C10F80EAE070CA
:1003B0000844CA07002140F233438DE80E000A4684
:1003C0000B4600F0ACF803B000BD00F0004230F086
:1003D00000400AD0C10D01F56071C0F3160042EA79
:1003E0000151C20840071143704700200146704781
:1003F00001F0004330B421F0004150EA010206D080
:100400000A0DA2F56072C1F31301002A02DC30BCB0
:1004100000207047440F44EAC104C100E01830BC1A
:1004200000EBC25000F035B830B50B460146002055
:100430002022012409E021FA02F59D4205D303FAA6
:1004400002F5491B04FA02F52844151EA2F1010227
:10045000F1DC30BD202A04DB203A00FA02F1002052
:1004600070479140C2F1200320FA03F319439040F2
:100470007047202A04DB203A21FA02F0002170475D
:1004800021FA02F3D040C2F12002914008431946FC
:1004900070470029A8BF7047401C490008BF20F0E2
:1004A0000100704710B4B0FA80FC00FA0CF050EA7A
:1004B000010404BF10BC704749B1CCF1200421FAFB
:1004C00004F411FA0CF118BF012121430843A3EBF6
:1004D0000C01CB1D4FEA00614FEA102042BF002003
:1004E00010BC704700EBC35010440029A4BF10BCDF
:1004F0007047401C490008BF20F0010010BC704745
:1005000010B5141E73F1000408DA401C41F100011B
:1005100092185B411A4301D120F0010010BD2DE972
:10052000F04D92469B4611B1B1FA81F202E0B0FA69
:1005300080F220329046FFF78DFF04460F4640EAD6
:100540000A0041EA0B0153465A46084313D01146AC
:1005500053EA010019D0C8F140025046FFF789FF65
:1005600005460E46504659464246FFF773FF08437C
:1005700005D0012004E020463946BDE8F08D00207A
:10058000054346EAE0762C4337430A986305E40ABC
:10059000A0EB08000022FD0A44EA47540A3002D5C5
:1005A00000200146E9E7010510196941DDE9084528
:1005B00000196941BDE8F04DA2E70000064C074D67
:1005C00006E0E06840F0010394E807009847103423
:1005D000AC42F6D3FFF7DCFD200F0108400F010805
:1005E00070B58C1810F8015B15F0070301D110F8F5
:1005F000013B2A1106D110F8012B03E010F8016B22
:1006000001F8016B5B1EF9D12B0705D40023521EA4
:100610000DD401F8013BFAE710F8013BCB1A921C0C
:1006200003E013F8015B01F8015B521EF9D5A1420A
:10063000D8D3002070BD00BFFEE7000010B502480F
:1006400000F082FC10BD00008C06002010B50248AE
:1006500000F07AFC10BD00000C05002010B5024827
:1006600000F072FC10BD0000EC06002010B502483E
:1006700000F06AFC10BD00006C05002010B50248B7
:1006800000F062FC10BD00004C07002010B50248CD
:1006900000F05AFC10BD0000CC05002010B5024847
:1006A00000F052FC10BD0000AC07002010B502485D
:1006B00000F04AFC10BD00002C060020014608781E
:1006C00010381823B0FBF3F20848805CC865032A91
:1006D00005D908686FF30900001D886503E0086804
:1006E0006FF309008865886D70470000880C010869
:1006F000014600208A6A8B69CBB932B1012A0DD03C
:10070000022A03D0032A10D10EE000BFCB6A03F007
:100710008073B3F1807F00D1012007E0CB6AB3F191
:10072000C07F00D1012001E000E000BF34E08B6910
:10073000B3F5005F1AD132B1012A07D0022A03D0E3
:10074000032A11D10AE000BF01200EE0CB6A03F0BA
:100750008073B3F1807F00D1012006E0CB6AB3F152
:10076000C07F00D1012000E000BF15E032B1012AB6
:1007700005D0022A04D0032A0CD103E000BF00BF39
:10078000012008E0CB6A03F08073B3F1807F00D1D1
:10079000012000E000BF00BF704730B50468246846
:1007A00024F4802405682C60046863608468402C0D
:1007B00004D10468A2600468E16003E00468A160F9
:1007C0000468E26030BD704710B50146002227E0A2
:1007D00002EB82040B6903EBC40000230360436057
:1007E0008360C360036243624FF0004303604B6960
:1007F00043F480434360436823F00043436001F1C6
:10080000480343F82200032A07D202EB82040B6953
:1008100003EBC4032833C36001E00B69C360521CBF
:10082000042AD5D30024CC650C668C66CC668C6516
:100830000B6803F580530C69DC6010BD10B50146F0
:10084000002222E002EB8204CB6803EBC400002309
:10085000036043608360C36001F1180343F8220022
:10086000036843F480130360032A07D202EB820477
:10087000CB6803EBC4032833C36001E0CB68C360DB
:10088000036843F440030360521C042ADAD30024B3
:100890008C620B6803F58053CC681C6110BD38B5C1
:1008A000044600200090206800F58050806940F4E4
:1008B0008011206800F580508161206800F580502B
:1008C00080690090012000F01FFD0099206800F56C
:1008D0008050816138BD000010B5024800F0A2FDD3
:1008E00010BD0000D052002030B503461479557970
:1008F00044EA0520084C0C442064D47824069578FA
:1009000044EA0544557844EA0524157844EA05008C
:10091000014C0C44606430BD0080024010B5A4B0AE
:10092000044601208DF83C008DF83D0000200D901C
:100930008DF84B0001208DF84A0000208DF848000A
:1009400001208DF83A008DF8300000208DF84C0021
:100950008DF83B0014908DF854001D908DF87800B0
:100960001F908DF882008DF880004FF48040109029
:10097000C010119000208DF881000BA9204600F0D6
:100980008FF901208DF80C008DF80D008DF81D00F9
:100990008DF80E00002005908DF81C008DF81E00CB
:1009A000089001208DF824008DF8040000040290C6
:1009B000800106904012049001208DF8250000204F
:1009C0000A9000906946204600F00AF924B010BD54
:1009D0000020704710B501F063FA10BD10B5024851
:1009E00000F0D8FF002010BDD052002070B50446A2
:1009F0000D46164633462A462146044800F040FF7D
:100A000010B14FF0FF3070BD0020FCE7D052002045
:100A100070B504460D46164633462A46214604481C
:100A200001F00AF910B14FF0FF3070BD0020FCE773
:100A3000D05200202DE9F04F81460C46174609F1AF
:100A400018021369D2F810C04FF0000A52F82310B0
:100A5000A568D346086800F00040B0F1004F04D00C
:100A600002F1140050F8230010B10220BDE8F08F0D
:100A70000AF1010A2868886048686FF30C00D5F80D
:100A800004E040EA0E004860207800F0010038B130
:100A9000086820F44000D4F814E040EA0E00086032
:100AA000207800F0200038B1086820F04060D4F8C9
:100AB00010E040EA0E000860207800F0040018B151
:100AC000086840F080000860086840F080500860C6
:100AD00053E0086820F00050086027B1086840F033
:100AE0008040086003E0086820F08040086000BF94
:100AF0005B1C042B00D31B1F00BF52F82310086897
:100B000000F00040B0F1004F04D002F1140050F8A2
:100B10002300C8B1634652F823104FF000080FE0DD
:100B2000BFF35F8F086820F00040086000BF5B1CC7
:100B3000042B00D31B1F00BF52F8231008F101083B
:100B4000D045EDD3022091E7086820F0805008607E
:100B50000AF1010AAD682868886048686FF30C00E4
:100B6000D5F804E040EA0E0048600BF1010BBFF33A
:100B70005F8F086840F000400860A8680028A8D18E
:100B800027B1086840F08040086003E0086820F062
:100B900080400860086840F00050086052F82C104F
:100BA000BFF35F8F086840F00040086002F1140E48
:100BB000506A4EF82300136100BFEFF31080064621
:100BC00000BF012080F3108800BF0BF1010E906A76
:100BD0007044906200BF86F3108800BF002045E794
:100BE00070B505460C46286800F5805086692B488C
:100BF0000640207B08B9012000E000208006617BD0
:100C000040EA4160617F09B9012100E0002140EA2A
:100C10000150A17B40EA415061690843217F40EACD
:100C2000C110A17F40EA8110216A084394F8241082
:100C300040EA81000643286800F5805086612868F4
:100C400000F580508669012000F05EFB286800F501
:100C5000805086612179A06840EA4160A16908431B
:100C60002169084394F8251040EAC110A16A40EABE
:100C700081002168084340F40001286800F5805095
:100C80000160286800F580500668012000F03CFBF8
:100C9000286800F58050066070BD0000233FDEF834
:100CA00070B505460C46286806683B480640A07BA0
:100CB0004006217C09B9012100E0002140EAC15031
:100CC000617C09B9012100E0002140EA8150A1685E
:100CD0000843E17F40EA014061690843A17F09B907
:100CE000012100E0002140EA4130217F40EA01304B
:100CF000A1690843217940EA812094F8201009B9BC
:100D0000012100E0002140EA4120E17B40EAC110DE
:100D1000616A084394F8281040EA011006432868E5
:100D2000066028680668012000F0EEFA2868066070
:100D3000286886694FF641700640A06C000494F85C
:100D40004C1009B9012100E0002140EAC110216DD9
:100D5000084394F85510012900D100E0002140EA31
:100D6000C10094F85610012900D100E0002140EAAA
:100D7000810094F85410012900D100E0002140EADC
:100D8000410006432868866128688669012000F0D2
:100D9000BBFA2868866170BD0F8120FD2DE9F843FC
:100DA0000446002000904FF00109A56E04F14800B0
:100DB00050F82560E76E2CE0306A58B9684600F0BC
:100DC00095FD009810B94FF0000903E000983062DB
:100DD0000098B060B9F1000F1BD0A06D30B9606908
:100DE00040F0004040F48040706003E0606940F4EF
:100DF00080407060306840F00040306000BF6D1C83
:100E0000042D00D32D1F00BF04F1480050F82560C9
:100E10007F1E17B1B9F1000FCED1E06EB8420FD0EE
:100E2000E81C00F00308BFF35F8F08EB880120691E
:100E300000EBC101206800F580508160A566E7667F
:100E4000BDE8F88372B600BFFEE7000010B50446A7
:100E500001F026F806490968401A642806D301F013
:100E60001FF803490860204604F076FF10BD00001B
:100E70002000002070B50446A56D01F011F806466B
:100E800094F83500022808D08020606500BF00205B
:100E900084F8340000BF012070BD2068006820F095
:100EA0001600216808602068406920F080002168F1
:100EB0004861206C08B9A06C28B12068006820F057
:100EC0000800216808602068006820F0010021689F
:100ED000086010E000F0E4FF801B05280BD92020FB
:100EE0006065032084F8350000BF002084F83400DA
:100EF00000BF0320D0E72068006800F00100002850
:100F0000E8D194F85C103F208840A860012084F864
:100F1000350000BF002084F8340000BF00BFBBE7ED
:100F2000014691F83500022803D080204865012051
:100F30007047052081F835000868006820F001003E
:100F40000A6810600020F3E7F8B50446002000901E
:100F50008C4800684FF41651B0FBF1F7A56D2E6870
:100F600094F85C1008208840304098B120680068F0
:100F700000F0040070B12068006820F004002168CF
:100F8000086094F85C1008208840A860606D40F00C
:100F90000100606594F85C1001208840304068B121
:100FA0002068406900F0800040B194F85C10012096
:100FB0008840A860606D40F00200606594F85C10A5
:100FC00004208840304068B12068006800F00200CA
:100FD00040B194F85C1004208840A860606D40F037
:100FE0000400606594F85C1010208840304078B3AD
:100FF0002068006800F0080050B394F85C101020DE
:101000008840A8602068006800F4802080B12068D3
:10101000006800F4002028B9206CC8B12046216C7B
:10102000884715E0A06C98B12046A16C88470FE076
:101030002068006800F4807028B92068006820F0FB
:10104000080021680860206C10B12046216C884798
:1010500094F85C10202088403040002865D020683B
:10106000006800F0100000285FD094F85C10202089
:101070008840A86094F83500052828D120680068C9
:1010800020F01600216808602068406920F0800088
:1010900021684861206C08B9A06C28B120680068FC
:1010A00020F008002168086094F85C103F20884018
:1010B000A860012084F8350000BF002084F83400C7
:1010C00000BF206D10B12046216D8847F8BD206813
:1010D000006800F4802080B12068006800F40020DF
:1010E00028B9606C10B12046616C88471DE0E06B48
:1010F000D8B12046E16B884717E02068006800F40B
:10110000807068B92068006820F0100021680860CD
:10111000012084F8350000BF002084F8340000BFAF
:10112000E06B10B12046E16B8847606D38B3606DAD
:1011300000F00100F0B1052084F835002068006857
:1011400020F001002168086000BF0098401C00905A
:10115000B84200D905E02068006800F001000028CE
:10116000F3D100BF012084F8350000BF002084F8CF
:10117000340000BFE06C10B12046E16C884700BF2E
:10118000A4E70000480000202DE9F04104460025B6
:1011900000F086FE074614B90120BDE8F081606AC0
:1011A00000B100BF022084F8350000BF002084F8A1
:1011B000340000BF2068006820F00100216808604A
:1011C0000AE000F06DFEC01B052805D920206065EF
:1011D000032084F83500E0E72068006800F0010093
:1011E0000028EED12068056821480540D4E90101B6
:1011F0000843E16808432169084361690843A1691C
:101200000843E1690843216A08430543606A0428EA
:1012100003D1D4E90B010843054320680560206829
:10122000456925F00705606A0543606A04280DD109
:10123000A06A0543E06A48B12046FFF759FA28B191
:1012400040206065012084F83500A6E720684561EC
:101250002046FFF733FA064694F85C103F2088409A
:10126000B06000206065012084F83500002094E71C
:101270003F8010F02DE9F04704460D4616461F4604
:101280004FF00008D4F8589000BF94F834000128BB
:1012900002D10220BDE8F087012084F8340000BFAD
:1012A00094F83500012825D1022084F8350000206B
:1012B00060653B46324629462046FFF76EFA94F8B1
:1012C0005C103F208840C9F808002068006840F0A2
:1012D000160021680860206C28B12068006840F082
:1012E0000800216808602068006840F0010021685B
:1012F000086006E000BF002084F8340000BF4FF013
:1013000002084046C6E7000070B5044600F0C8FD7C
:1013100006462546681C10B104480078054400BF05
:1013200000F0BEFD801BA842FAD370BD440000202F
:101330007047024609B90120704710680068C0F381
:10134000001081F828001068006800F06000486212
:1013500010680068C0F3402080F0010081F8200090
:1013600010680068C0F30040C87710680068C0F3D8
:10137000403080F00100887710680068C0F30030CA
:1013800008771068006800F40060886110680068E1
:1013900000F48040486110680068C0F3805080F01D
:1013A0000100487410680068C0F3C05080F001006C
:1013B000087410680068C0F3C010C8731068006833
:1013C00000F46020886010680068C0F38020087115
:1013D00010680068C0F34060887310688069C0F3CB
:1013E000400081F8540010688069C0F3C01080F09C
:1013F000010081F84C001068806900F03000086539
:1014000010688069000C886410688069C0F38000EF
:1014100081F8560010688069C0F3C00081F855005B
:10142000002089E72DE9F04104462068876B206899
:1014300000F580504569206800F58050C66938483D
:10144000D0F8008005F0400050B106F0400038B1FF
:101450003449206800F580504161204600F06AFA66
:1014600005F0010058B106F0010040B14FF0011144
:10147000206800F580504161204600F0DBFB05F458
:10148000004088B306F4004070B3D4F8880040F000
:101490000800C4F8880005F40050A8B1206800F5E1
:1014A0008050406920490840C4F88C00206800F54D
:1014B0008050C06920F4C031206800F58050C161BF
:1014C000E020C4F884000CE0206800F580504069FA
:1014D00048F280610840C4F88C00206800F5805014
:1014E00041612046FFF724FF07F0080058B120684B
:1014F000C06A00F06000C4F89400204600F042F991
:101500000020C4F8940008F4002030B14FF400200B
:1015100003490860204600F08EFBBDE8F081000022
:10152000143C01404000010000207E0038B5044614
:101530000CB9012038BDD4F8840028B92020C4F8A3
:101540008400204600F074F800BF00200090354869
:10155000006840F48040334908600846006800F4A1
:101560008040009000BF00BF2F48006820F40000BA
:101570002D49086008460068A16808432A490860A8
:1015800008460068206800F58050006840F00101BE
:10159000206800F58050016000F082FC05460DE0F7
:1015A00000F07EFC401BB0F5FA7F07D90420C4F898
:1015B0008800E020C4F884000120BBE7206800F523
:1015C0008050006800F001000028E9D12046FFF7B4
:1015D000A5F92046FFF732F92046FFF7F5F800217C
:1015E00020466268FFF780F92068C06B40F4027003
:1015F0002168C8632068D0F80C010C4908432168B1
:10160000C1F80C012068D0F8100140F403102168E3
:10161000C1F810010020C4F888001020C4F884002C
:10162000002087E74438024004380140600002008F
:1016300010B586B00446142101A8FEF72EFE4C49D1
:10164000206888427ED100BF00BF0020009049483A
:10165000006840F00070474908600846006800F0E4
:101660000070009000BF00BF00BF0020009008463F
:10167000006840F0806008600846006800F0806004
:10168000009000BF00BF00BF002000900846006827
:1016900040F0006008600846006800F000600090BC
:1016A00000BF00BF00BF00BF0020009008460068D8
:1016B00040F0040008600846006800F00400009054
:1016C00000BF00BF00BF002000900846006840F047
:1016D000010008600846006800F00100009000BFAB
:1016E00000BF00BF002000900846006840F00200E4
:1016F00008600846006800F00200009000BF00BFCC
:1017000032200190022002900020039003200490D8
:101710000B20059001A9184800F0C2FA862001901C
:101720000220029000200390032004900B200590DB
:1017300001A9124800F0B4FA4FF460500190022061
:10174000029000E011E000200390032004900B20A1
:10175000059001A90A4800F0A3FA002211463D2095
:1017600000F02CFC3D2000F015FC06B010BD000080
:101770000080024030380240000802400000024071
:101780000004024070472DE9F05F04460F464FF019
:101790000008C34647B9D4F8880040F00100C4F8F7
:1017A00088000120BDE8F09FD4F88400402801D0D3
:1017B0000120F7E7E66D04F1480050F82650E06E8E
:1017C000C0F1040A3EE0286800F4807018B1E969AD
:1017D000A167A9696167286800F4007008B9E06F23
:1017E00020B3286800F4007010B100212166616602
:1017F0002868C0F30D49286800F4807018B1296882
:1018000021674FF0010BA86828621FFA89F304F1E1
:101810008001081F2A6A00F08EF8206E401C2066A6
:10182000606E00EB090161660020286200BF761C33
:10183000042E00D3361F00BF04F1480050F8265094
:1018400008F10108286800F0004020B9D04502D214
:10185000BBF1000FB7D0E06E00EB0801E166E06E6F
:1018600010B12046FFF79AFAE665BBF1010F05D1EA
:10187000E06F38600021E167002093E7012091E7E5
:101880002DE9F04705460E46174698462868046934
:1018900004F01C044FF4784000EAC62004434FF4DF
:1018A000F86000EA8710044324F0020444F00104C5
:1018B0002868046100F0F4FA81460BE000F0F0FAC9
:1018C000A0EB0900B0F5803F02D30120BDE8F0870E
:1018D0002868046904F001000028EFD128684069F5
:1018E00080B2C8F800000020F0E700007CB5044694
:1018F0000D4806F099FD054685B105F120002060F0
:101900000A4828614FF4C06120682B464122CDE986
:1019100000010021084607F0F3FC04E0012004491F
:101920000870002020607CBD7C0C0108819A0008B2
:10193000080000207047F0B504460D4621462E46AB
:101940000020A2F1200000270760078143810F6873
:101950000FB9086001E0376838603060086803E05C
:1019600007891F44078100680028F9D1F0BD70B5D0
:1019700004460D460DB9012070BDD4F8840010282E
:1019800005D129462046FFF78BF90020F4E7012016
:10199000F2E7000070B506463068046924F01C04C4
:1019A00000F020FC05460D48854202D244F00804B0
:1019B00011E00B48854202D244F00C040BE00948C8
:1019C000854200D207E00848854202D244F0040470
:1019D00001E044F010043068046170BDC00E1602CE
:1019E0000087930300E1F50580D1F00870B5044647
:1019F000D4F88400102849D12020C4F884000121A3
:101A0000A1650421E1662046FFF7C8F92068056852
:101A10000120FFF779FC20680560206800F5805000
:101A2000806940F40051206800F580508161206891
:101A300000F58050806940F00201206800F5805078
:101A400081612046FEF72BFF2068006840F0080007
:101A500021680860206805680120FFF755FC2068B0
:101A600005602068006840F0040021680860206874
:101A700000F58050C06906490843216801F580518E
:101A8000C8614020C4F88400002070BD0120FCE73C
:101A9000C1A001002DE9F0410446D4F8840040289B
:101AA00052D12020C4F88400206800F58050C0691D
:101AB00026490840216801F58051C861206800F579
:101AC0008050806920F40051206800F580508161C9
:101AD000206800F58050806920F00201206800F540
:101AE000805081612068006820F00400216808604F
:101AF000206807680120FFF707FC20680760204680
:101B0000FEF7CDFE2068006820F00800216808601C
:101B1000206807680120FFF7F7FB206807600025B1
:101B200008E004F1480050F82560706840F000407B
:101B300070606D1C042DF4D30021A1651020C4F841
:101B400084000020BDE8F0810120FBE73E5FFEFF3E
:101B50002DE9F041044688461546B8F1000F08D13A
:101B6000D4F8880040F00100C4F888000120BDE8E6
:101B7000F081D4F8840040285AD100224146204602
:101B8000FEF758FF38B1D4F8880040F00200C4F8DE
:101B900088000120EBE7BFF34F8F04F11800A16A22
:101BA00050F8217000BFA06A401CA062A06A0428FF
:101BB00002D3A06A001FA06200BF04F11800A16A4E
:101BC00050F82110206800F58050416000F068F95D
:101BD000064627E0206800F58050406900F4005078
:101BE00068B1D4F8880040F00800C4F88800206884
:101BF00000F580504069C4F88C000120B7E7681CEC
:101C000080B100F04DF9801BA84200D855B9D4F836
:101C1000880040F00400C4F888004FF0405038605D
:101C20000120A4E7386800F000400028D2D19EE7E8
:101C300001209CE7704770472DE9F04705460E46A6
:101C4000174698462868046904F01C044FF478404D
:101C500000EAC62004434FF4F86000EA871004430A
:101C600044F0020444F001041FFA88F02968486136
:101C70002868046100F014F981460BE000F010F9C7
:101C8000A0EB0900B0F5803F02D30120BDE8F0874A
:101C90002868046904F001000028EFD100BFF5E7CF
:101CA000F8B502460B460025002400200021D6E0AE
:101CB000012606FA01F51E6806EA0504AC4274D155
:101CC0001E7906F00306012E04D01E7906F00306E5
:101CD000022E13D190684F000326BE40B0434F0040
:101CE000DE68BE4030439060506801268E40B043AD
:101CF0001E79C6F300168E40304350601E7906F000
:101D00000306032E09D0D0684F000326BE40B0431F
:101D10004F009E68BE403043D0601E7906F0030637
:101D2000022E13D1CF0802F1200656F827004E07E5
:101D3000F70E0F26BE40B0434F07FF0E1E69BE4090
:101D40003043CF0802F1200646F8270010684F0004
:101D50000326BE40B0431E7906F003064F00BE4086
:101D6000304310605E6806F44036002E76D000BF27
:101D7000002600963C4E366846F480463A4F3E6058
:101D80003E46366806F48046009600BF00BF374ED8
:101D90008F0856F827008E07370F0F26BE40B04336
:101DA000334EB24202D1002624E057E0314EB24217
:101DB00001D101261EE0304EB24201D1022619E0C7
:101DC0002E4EB24201D1032614E02D4EB24201D173
:101DD00004260FE02B4EB24201D105260AE02A4E1E
:101DE000B24201D1062605E0284EB24201D10726B3
:101DF00000E008268F073F0FBE4030431B4E8F0880
:101E000046F82700224E3068A0435E6806F480162C
:101E100006B120431E4E3060361D3068A0435E6818
:101E200006F4001606B12043194E361D3060184ED8
:101E3000361F3068A0435E6806F4003606B12043C2
:101E4000134E361F3060361F3068A0435E6806F4BC
:101E5000803606B120430E4E083E3060491C1029E2
:101E6000FFF426AFF8BD00004438024008380140B6
:101E7000000002400004024000080240000C024042
:101E8000001002400014024000180240001C0240F2
:101E9000083C01400AB1816101E00B048361704795
:101EA00001480068704700003C00002003480068BB
:101EB0000349097808440149086070473C00002044
:101EC0004400002010B50D48006840F400700B4934
:101ED00008600846006840F48060086008460068B2
:101EE00040F480700860032000F0A6F80F2000F096
:101EF00007F800F02BF8002010BD0000003C024065
:101F000070B504460E4800784FF47A71B1FBF0F0DA
:101F10000C490968B1FBF0F5284600F043FC08B114
:101F2000012070BD102C07D200222146501E00F067
:101F300045F80548046001E00120F2E70020F0E7E1
:101F400044000020480000204000002008B500BFE9
:101F5000002000900E48006840F480400C49086062
:101F60000846006800F48040009000BF00BF00BF3A
:101F700000200090081F006840F08050091F086092
:101F80000846006800F08050009000BF00BF08BD08
:101F9000443802400146084600280DDB00BF00BF60
:101FA00000F01F0301229A4043099B0003F1E02344
:101FB000C3F8002100BF00BF00BF70472DE9F05FEC
:101FC00080460D461646002702F09AFC0746394621
:101FD0002A46334601F00700C0F1070ABAF1040FA0
:101FE00002D94FF0040A01E0C0F1070AD14600F11E
:101FF000040ABAF1070F02D24FF0000A01E0A0F183
:10200000030AD4464FF0010A0AFA09FAAAF1010AB2
:102010000AEA020A0AFA0CFA4FF0010B0BFA0CFB5F
:10202000ABF1010B0BEA030B4AEA0B0421464046D5
:1020300002F06EFCBDE8F09F00BF00F00702064B07
:1020400019684FF6FF031940044B0B4343EA022182
:10205000014B196000BF70470CED00E00000FA056D
:1020600070B504460D460CB9012070BD5848006893
:1020700000F00700A84209D255490D7008460068D3
:1020800000F00700A84201D00120EEE7207800F020
:10209000020002281DD1207800F00400042805D198
:1020A0004C48006840F4E0504A490860207800F04D
:1020B0000800082805D14748006840F460404549B9
:1020C00008604448006820F0F000A16808434149D6
:1020D0000860207800F00100A8B36068012807D1EB
:1020E0003C4808380068C0F34040B8B90120BCE75C
:1020F0006068022802D06068032807D13548083894
:102100000068C0F3406048B90120AEE731480838A4
:102110000068C0F3400008B90120A6E72D48006818
:1021200020F00300616808432A490860FFF7B8FE01
:10213000064609E0FFF7B4FE801B41F28831884271
:1021400002D9032091E707E02248006800F00C0064
:102150006168B0EB810FEDD11D48006800F0070009
:10216000A84209D91A490D700846006800F0070016
:10217000A84201D0012078E7207800F0040004286C
:1021800007D11448006820F4E050E1680843114981
:102190000860207800F00800082808D10D48006881
:1021A00020F46040216940EAC1000A49086000F05B
:1021B0003FF808490968C1F30311074A515CC84058
:1021C0000649086006480068FFF79AFE00204CE7C1
:1021D000003C024008380240900C010848000020F2
:1021E00040000020014800687047000048000020BF
:1021F00000B5FFF7F7FF04490968C1F38221034ADC
:10220000515CC84000BD000008380240A00C010825
:1022100000B5FFF7E7FF04490968C1F34231034AFB
:10222000515CC84000BD000008380240A00C010805
:102230002DE9F047002400250026A1462548006826
:1022400000F00C0020B1042805D008283AD105E0A0
:10225000DFF8849039E0DFF8849036E01D48001FF5
:10226000006800F03F041B48001F006800F4800075
:1022700078B11A481749091F0968C1F38811A0FBF2
:1022800001700146224600233846FDF79BFF0546B4
:102290000EE011480F49091F0968C1F38811A0FB1E
:1022A00001700146224600233846FDF78BFF0546A4
:1022B0000848001F0068C0F30140401C4600B5FB01
:1022C000F6F902E0DFF8109000BF00BF4846BDE815
:1022D000F0870000083802400024F40000127A0061
:1022E000F8B504460CB90120F8BD207800F00100D3
:1022F000002874D0F948006800F00C0004280DD0C4
:10230000F648006800F00C00082813D1F348001FBD
:10231000006800F48000B0F5800F0BD1EF4808385A
:102320000068C0F34040002859D06068002856D1AA
:102330000120D9E700BF6068B0F5803F08D1E748C9
:102340000838006840F48030E449083908601EE02D
:102350006068B0F5A02F0DD1E0480838006840F45F
:102360008020DE49083908600846006840F4803063
:1023700008600CE0D9480838006820F48030D7495C
:10238000083908600846006820F48020086000BF13
:10239000606890B1FFF784FD054606E0FFF780FD19
:1023A000401B642801D903209EE7CC480838006808
:1023B000C0F340400028F1D011E0FFF771FD054661
:1023C00006E0FFF76DFD401B642801D903208BE771
:1023D000C24808380068C0F340400028F1D1207896
:1023E00000F0020002285FD1BC48006800F00C0039
:1023F00058B1BA48006800F00C0008281CD1B74852
:10240000001F006800F48000B0B9B44808380068C4
:10241000C0F3400020B1E068012801D0012063E74B
:10242000AE480838006820F0F800216940EAC10091
:10243000AA490839086037E0E06800B30120A849DC
:102440000860FFF72DFD054606E0FFF729FD401B5C
:10245000022801D9032047E7A04808380068C0F3E4
:1024600040000028F1D09D480838006820F0F800AE
:10247000216940EAC10099490839086014E0002048
:1024800097490860FFF70CFD054606E0FFF708FDD9
:10249000401B022801D9032026E79048083800682D
:1024A000C0F340000028F1D1207800F0080008288F
:1024B0002CD16069A8B101208A490860FFF7F0FCBF
:1024C000054606E0FFF7ECFC401B022801D903207B
:1024D0000AE782486C300068C0F340000028F1D061
:1024E00014E000207F490860FFF7DAFC054606E0AB
:1024F000FFF7D6FC401B022801D90320F4E67748F9
:102500006C300068C0F340000028F1D1207800F062
:102510000400042870D1002770483830006800F0AB
:10252000805090B900BF002000906C48383000689F
:1025300040F080506949383108600846006800F072
:102540008050009000BF00BF01276748006800F47A
:102550008070B0B96448006840F4807062490860D7
:10256000FFF79EFC054606E0FFF79AFC401B022899
:1025700001D90320B8E65C48006800F480700028A8
:10258000F2D000BFA068012808D154486830006824
:1025900040F001005149683108601DE0A06805283D
:1025A0000DD14E486830006840F004004B49683156
:1025B00008600846006840F0010008600CE04748E9
:1025C0006830006820F0010044496831086008461E
:1025D000006820F00400086000BFA068A8B1FFF701
:1025E0005FFC054609E0FFF75BFC401B41F28831C8
:1025F000884202D9032077E626E038486830006830
:10260000C0F340000028EED013E0FFF749FC054678
:1026100008E0FFF745FC401B41F28831884201D9B0
:10262000032061E62D4868300068C0F340000028B0
:10263000EFD1012F07D129483830006820F08050B1
:1026400026493831086000BFA069002845D02348DA
:10265000006800F00C0008285DD0A069022845D170
:1026600000201F490866FFF71BFC054606E0FFF740
:1026700017FC401B022801D9032035E6174808380B
:102680000068C0F340600028F1D1D4E90701084395
:10269000616A40EA81110122A06AC2EB500041EA5E
:1026A00000412C20005D41EA00600C49091F0860D0
:1026B00001200B490866FFF7F3FB054606E0FFF72C
:1026C000EFFB401B022801D903200DE60348083820
:1026D0000068C0F340600028F1D049E008380240AB
:1026E00000004742800E4742007000400020214910
:1026F0000866FFF7D5FB054606E0FFF7D1FB401B58
:10270000022801D90320EFE51B480068C0F34060B0
:102710000028F2D12CE0A069012800D1E4E5164898
:10272000001D0668A069012820D006F48001E06938
:1027300081421BD106F03F01206A814216D147F643
:10274000C0703040616AB0EB811F0FD106F4403198
:102750000122A06AC2EB5000B1EB004F06D106F097
:1027600070612C20005DB1EB006F01D00120BBE552
:102770000020B9E50000474200380240042808D193
:102780004FF0E021096941F004014FF0E0221161AE
:1027900007E04FF0E021096921F004014FF0E02249
:1027A0001161704770B504462546681EB0F1807F00
:1027B00001D301200FE0681E4FF0E02148610F2196
:1027C0004FF0FF3002F0A4F800204FF0E0218861C4
:1027D00007200861002070BD7047704730B5024681
:1027E0000B4600BF92F83C00012801D1022030BD09
:1027F000012082F83C0000BF022082F83D001068F2
:1028000044681068816824F07004186804431068F4
:102810004460184D1068A8421BD01068B0F1804F7A
:1028200017D0154D1068A84213D0144D1068A84257
:102830000FD0134D1068A8420BD0124D1068A8425B
:1028400007D0114D1068A84203D0104D1068A8425F
:1028500005D121F080015868014310688160012092
:1028600082F83D0000BF002082F83C0000BF00BF9E
:10287000BDE70000000001400004004000080040E7
:10288000000C0040000401400040014000180040DE
:1028900010B504460CB9012010BD94F83D0028B9CC
:1028A000002084F83C00204600F026F8022084F83E
:1028B0003D00211D206801F0E3FB012084F8460063
:1028C00000BF84F83E0001213F2001554020015502
:1028D0004120015500BF00BF012084F84200432081
:1028E0000155442001554520015500BF012084F8C1
:1028F0003D000020D0E7000038B504460E492068AE
:10290000884217D100BF002000900C48006840F0BA
:1029100001000A4908600846006800F001000090C4
:1029200000BF00BF002211461920FFF747FB192006
:10293000FFF730FB38BD0000000001404438024082
:10294000014691F83D00012801D001207047022086
:1029500081F83D000868C06840F001000B68D8604D
:102960001A4B086898421BD00868B0F1804F17D006
:10297000174B0868984213D0164B086898420FD03E
:10298000154B086898420BD0144B0868984207D042
:10299000134B0868984203D0124B086898420CD138
:1029A0000868806800F00702062A0CD008680068F2
:1029B00040F001000B68186005E00868006840F00E
:1029C00001000B6818600020C0E700000000014013
:1029D0000004004000080040000C004000040140DA
:1029E00000400140001800402DE9F04104460D462A
:1029F000002700BF94F83C00012802D10220BDE866
:102A0000F081012084F83C0000BF022084F83D00E2
:102A10002068866826F0770626F47F462068866060
:102A20002868502833D00CDC202850D004DC002843
:102A30004BD0102851D149E0302849D040284CD102
:102A400039E060282DD0702807D0B0F5805F03D022
:102A5000B0F5005F41D10DE041E0D5E902136A68AD
:102A6000206801F07DFB2068866846F077062068C4
:102A7000866034E0D5E902136A68206801F070FBD3
:102A80002068806840F480402168886027E0EA6818
:102A90006968206801F078FB5021206801F06BFB29
:102AA0001DE0EA686968206801F081FB6021206808
:102AB00001F061FB13E0EA686968206801F064FBDB
:102AC0004021206801F057FB09E000BF00BF00BFB4
:102AD0002968206801F04FFB01E0012700BF00BF1B
:102AE000012084F83D0000BF002084F83C0000BFB6
:102AF000384684E7704770B504462068C56820688A
:102B0000066906F00200022819D105F00200022829
:102B100015D1401F21680861012020772068806955
:102B200000F0030018B12046FFF7E4FF05E020465F
:102B300000F097F8204600F095F80020207706F086
:102B40000400042819D105F00400042815D1C0435D
:102B500021680861022020772068806900F44070B5
:102B600018B12046FFF7C6FF05E0204600F079F8CF
:102B7000204600F077F80020207706F008000828AB
:102B800019D105F00800082815D1C0432168086153
:102B9000042020772068C06900F0030018B12046A7
:102BA000FFF7A8FF05E0204600F05BF8204600F0A4
:102BB00059F80020207706F01000102819D105F0F0
:102BC0001000102815D1C043216808610820207723
:102BD0002068C06900F4407018B12046FFF78AFFF2
:102BE00005E0204600F03DF8204600F03BF80020CC
:102BF000207706F0010048B105F0010030B16FF018
:102C0000010021680861204600F02EF806F08000DF
:102C1000802809D105F08000802805D1C0432168B3
:102C200008612046FFF7D8FD06F04000402809D192
:102C300005F04000402805D1C043216808612046C6
:102C400000F06CF806F02000202809D105F02000E3
:102C5000202805D1C043216808612046FFF7BDFD4B
:102C600070BD70477047000030B502462848824268
:102C70004DD100203DE000212EE000EBC00303EB2E
:102C80000013244C04EB03130C33C1EBC10404EB1D
:102C9000011403EB84035C6D00EBC00303EB001332
:102CA0001C4D05EB03130C33C1EBC10505EB0115FE
:102CB00003EB85039C65002400EBC00303EB0013CA
:102CC000144D05EB03130C33C1EBC10505EB0115E6
:102CD00003EB85035C65491C0329CEDB0E4951F8E3
:102CE0002030183141F8203000210B4B43F82010E0
:102CF000401C0428BFDB08484169C1620020064926
:102D0000486108460169816200200349086130BDBD
:102D10005C030020248A00206890002070477047E0
:102D200070B50446002520684069C0F3C01594F8CA
:102D30004100212817D1B5B100BF00BF216814316F
:102D400051E8001F21F080002168143141E80002A1
:102D5000002AF3D100BFA06B10B1A06BFEF78AF878
:102D6000204601F057FB20684069C0F3801594F8B5
:102D70004200222817D1B5B100BF00BF216814312D
:102D800051E8001F21F040002168143141E80002A1
:102D9000002AF3D100BFE06B10B1E06BFEF76AF8D8
:102DA000204601F0F1FA002070BD000038B504465D
:102DB00000253BE005EBC50000EB05101D4901EBCC
:102DC00000100068A04230D100BF002000902068B1
:102DD0000068009020684068009000BF00BF00BFFE
:102DE00000200090206800680090206840680090F3
:102DF00000BF00BF00BF0020009020680068009066
:102E000020684068009000BF00BF2046FFF788FFA1
:102E100005EBC50000EB0510064A02EB001000F5BB
:102E2000A1714E22204600F03DFC6D1C042DC1DB3B
:102E300038BD0000248A00202DE9F84F04462068A0
:102E400005682068C668206847694FF00009CA46CF
:102E500005F00F09B9F1000F0AD105F0200038B1D3
:102E600006F0200020B1204601F0E7FABDE8F88F17
:102E7000B9F1000F7CD007F0010018B906F490708A
:102E8000002875D005F0010030B106F4807018B14B
:102E9000606C40F00100606405F0040030B107F0A0
:102EA000010018B1606C40F00200606405F002009F
:102EB00030B107F0010018B1606C40F004006064AC
:102EC00005F0080048B106F0200010B907F0010035
:102ED00018B1606C40F008006064606C002846D057
:102EE00005F0200028B106F0200010B1204601F0C6
:102EF000A4FA20684069C0F3801A606C00F00800F2
:102F000010B9BAF1000F2DD0204601F03DFA20682B
:102F1000406900F04000402820D100BF00BF216878
:102F2000143151E8001F21F040002168143141E8BC
:102F30000002002AF3D100BFE06B50B17F48E16B83
:102F40000865E06BFDF7ECFF88B1E06B016D884729
:102F50000DE02046FFF72AFF09E009E02046FFF7D1
:102F600025FF04E02046FFF721FF002060647DE795
:102F7000206B012878D105F01000002874D006F0ED
:102F800010000028FAD000BF0020009020680068E0
:102F9000009020684068009000BF00BF2068406932
:102FA00000F04000402870D1E06B006840681FFAD4
:102FB00080F8B8F1000F58D0A08D404555DDA4F839
:102FC0002E80E06BC069B0F5807F43D000BF00BFAA
:102FD00021680C3151E8001F21F4807021680C3108
:102FE00041E80002002AF3D100BF00BF00BF216802
:102FF000143151E8001F21F001002168143141E82B
:103000000002002AF3D100BF00BF00BF21681431C5
:1030100051E8001F21F040002168143141E800020E
:10302000002AF3D100BF202084F842000020206352
:1030300000BF00BF21680C3151E8001F21F01000D3
:1030400021680C3141E80002002AF3D100BFE06B97
:10305000FDF710FF02206063A08DE28D801A81B21F
:103060002046FFF75CFE0EE052E0A08D40450AD1FD
:10307000E06BC069B0F5807F05D102206063A18D4F
:103080002046FFF74CFEF1E6FFE7A08DE18D401AE8
:103090001FFA80F8E08DD0B3B8F1000F37D000BF31
:1030A00000BF21680C3151E8001F21F490702168A5
:1030B0000C3141E80002002AF3D100BF00BF00BF7D
:1030C0002168143151E8001F21F0010021681431FA
:1030D00041E80002002AF3D100BF202084F842001A
:1030E0000020206300BF00BF21680C3151E8001FA1
:1030F00021F0100021680C3141E80002002AF3D1D0
:1031000000BF0220606341462046FFF708FEADE69F
:1031100005F0800030B106F0800018B1204601F0C3
:103120008DFBA3E605F0400030B106F0400018B179
:10313000204601F05FF999E600BF97E6E9410008F3
:1031400010B504460CB9012010BDA06900B100E023
:1031500000BF94F8410028B9002084F840002046C0
:1031600000F02AF8242084F841002068C06820F488
:1031700000502168C860204601F0DEF9206800692F
:1031800020F49040216808612068406920F02A00FE
:10319000216848612068C06840F400502168C86018
:1031A00000206064202084F8410084F84200002060
:1031B000606300BFC8E7000010B586B00446142164
:1031C00001A8FDF76AF8FE49206888427BD100BF5C
:1031D00000200090FB48006840F40020F949086096
:1031E0000846006800F40020009000BF00BF00BF48
:1031F00000200090F3481038006840F00400F149C6
:10320000103908600846006800F00400009000BF14
:1032100000BF4FF440600190022002900120039013
:10322000032004900820059001A9E748FEF738FD27
:10323000E648E7490860400548600021E4488160AD
:10324000C1604FF480610161002141618161C16110
:103250004FF48031016200214162FDF795FF08B112
:10326000FDF7F0FD00BFDA48E063846300BFD74894
:103270003030D84908604FF0006048604021D548A0
:1032800081600021C1604FF48061016100214161D2
:103290008161C1614FF48031016200214162FDF71B
:1032A00073FF08B1FDF7CEFD00BFCA48A063846379
:1032B00000BF002211463420FEF780FE3420FEF7C6
:1032C00069FEE6E1FFE7C449206888427ED100BF7D
:1032D00000200090BB48001D006840F01000B94974
:1032E000091D08600846006800F01000009000BF4B
:1032F00000BF00BF00200090B2481038006840F0C6
:103300000100B049103908600846006800F001006B
:10331000009000BF00BF4FF4C060019002200290F7
:1033200001200390032004900720059001A9AB48D9
:10333000FEF7B6FCAA48AB4908604FF00060486051
:103340000021A8488160C1604FF4806101610021C3
:1033500041618161C1614FF48031016200214162AC
:10336000FDF712FF08B1FDF76DFD00BF9D48E0635A
:10337000846300BF9A4878309B4908604FF0006032
:1033800048604021984881600021C1604FF480610D
:103390000161002141618161C1614FF480310162AD
:1033A00000214162FDF7F0FE08B1FDF74BFD00BFC3
:1033B0008D48A063846300BF002211462520FEF7DC
:1033C000FDFD2520FEF7E6FD63E1FFE78749206864
:1033D000884238D100BF002000907A48006840F44D
:1033E0000030784908600846006800F4003000901A
:1033F00000BF00BF00BF0020009072481038006876
:1034000040F008006F49103908600846006800F075
:103410000800009000BF00BF6020019002200290D1
:1034200000200390032004900720059001A9704814
:10343000FEF736FC002211462620FEF7BFFD2620AF
:10344000FEF7A8FD25E16B49206888427DD100BFC9
:10345000002000905B48006840F4802059490860D3
:103460000846006800F48020009000BF00BF00BF45
:103470000020009053481038006840F0080051497F
:10348000103908600846006800F00800009000BF8E
:1034900000BF4FF440700190022002900120039081
:1034A000032004900720059001A95148FEF7F8FB7E
:1034B00046481838504908604FF0006048600021C5
:1034C0004D488160C1604FF480610161002141611C
:1034D0008161C1614FF48031016200214162FDF7D9
:1034E00053FE08B1FDF7AEFC00BF4348E0638463C0
:1034F00000BF36481830414908604FF0006048600E
:1035000040213E4881600021C1604FF4806101612B
:10351000002141618161C1614FF48031016200216C
:103520004162FDF731FE08B1FDF78CFC00BF334866
:10353000A063846300BF002211462720FEF73EFDF2
:103540002720FEF727FDA4E0FFE72D4920688842E9
:10355000F9D100BF002000901A48001D006840F01B
:1035600020001849091D08600846006800F0200086
:10357000009000BF00BF00BF00200090114810382D
:10358000006840F004000F491039086008460068E0
:1035900000F00400009000BF00BFC0200190022096
:1035A000029001200390032004900820059001A9B7
:1035B0000548FEF775FB0A4818381249086023E0F1
:1035C000004C004040380240000802404060024089
:1035D0000C0500206C050020001001400000024096
:1035E00040640240CC0500202C060020004400402E
:1035F000000C0240004800408C060020EC06002031
:10360000001401404C07002080054860002122483A
:103610008160C1604FF4806101610021416181617D
:10362000C1614FF48031016200214162FDF7ACFDC0
:1036300008B1FDF707FC00BF1748E063846300BFD3
:103640001648174908604FF0206048604021144830
:1036500081600021C1604FF48061016100214161FE
:103660008161C1614FF48031016200214162FDF747
:103670008BFD08B1FDF7E6FB00BF0948A06384633A
:1036800000BF002211464720FEF798FC4720FEF7B6
:1036900081FC06B010BD00004C070020A064024071
:1036A000AC07002070B504460D46164694F842005B
:1036B00020280BD105B10EB9012070BD0020206378
:1036C00032462946204601F04DF8F6E70220F4E79D
:1036D00070B50546002427E004EBC40000EB04109D
:1036E000134901EB00100068A8421CD104EBC4018F
:1036F00001EB04110E4A02EB011006F060FD04EB31
:10370000C40000EB04100A4A02EB001000F5A1719E
:103710004E222846FFF7C6FF064850F82400401CFA
:10372000044941F82400641C042CD5DB70BD000062
:10373000248A00206890002070470000F7B50446F6
:10374000154694F8410020283ED1019800B10DB9EA
:103750000120FEBD01982062A584E58400206064FC
:10376000212084F841001948A16BC8631848A16B57
:1037700008641848A16BC8640020A16B086501AEFD
:1037800023681A1D31682B46A06BFDF773FD30B11D
:1037900010206064202084F841000120D9E76FF0F8
:1037A00040002168086000BF00BF2168143151E863
:1037B000001F41F080002168143141E80002002A16
:1037C000F3D100BF0020C4E70220C2E72343000872
:1037D0007B430008FB41000870B5054600241CE04F
:1037E00004EBC40000EB04100D4901EB001000686D
:1037F000A84211D104EBC40202EB04120B4603EB06
:103800000212118904EBC40202EB041203EB021250
:1038100050680022FEF73EFB641C042CE0DB70BD08
:10382000248A0020704700BFFEE738B50446002018
:1038300000906A460121636920689847002802DAEF
:103840006FF0040038BD6A4601216369206898471B
:10385000002802DA6FF00400F4E7009800F004009A
:1038600008B90120EEE76A4600216369206898479D
:10387000002802DA6FF00400E4E7009800F48050BA
:10388000B0F5805F1FD0009800F40050B0F5005FE5
:1038900007D1009800F48070B0F5807F01D102203C
:1038A000D0E7009800F40050B0F5005F01D103208C
:1038B000C8E7009800F48070B0F5807F01D1042043
:1038C000C0E70520BEE76A461F2163692068984764
:1038D000002802DA6FF00400B4E7009800F480508A
:1038E00008B90620AEE7009800F01C00182801D1A6
:1038F0000220A7E7009800F01C00082801D103204F
:10390000A0E7009800F01C00142801D1042099E7DA
:10391000052097E7F8B50446002000900025002612
:10392000606830BBA06808B1A06880472020206094
:10393000002513E06A46122128466369984700284B
:1039400002DA6FF0040608E0009800F01F00A842B9
:1039500002D12560002603E000BF6D1C1F2DE9D9B0
:1039600000BF20681F2801D96FF002060EB90120A0
:1039700060603046F8BD02462AB1C86818B1886850
:1039800008B1086910B94FF0FF30704708689060BF
:103990004B68D360CB6853618B6813610B6993618B
:1039A0000020F2E708B500BF002000902E48006814
:1039B00040F480002C4908600846006800F480004C
:1039C000009000BF00BF00BF0020009008460068C4
:1039D00040F4001008600846006800F400100090F1
:1039E00000BF00BF002211460C20FEF7E7FA0C20B2
:1039F000FEF7D0FA002211460D20FEF7DFFA0D2067
:103A0000FEF7C8FA002211460E20FEF7D7FA0E2064
:103A1000FEF7C0FA002211460F20FEF7CFFA0F2062
:103A2000FEF7B8FA002211463920FEF7C7FA39200E
:103A3000FEF7B0FA002211463A20FEF7BFFA3A200C
:103A4000FEF7A8FA002211464520FEF7B7FA4520F6
:103A5000FEF7A0FA002211464620FEF7AFFA4620F4
:103A6000FEF798FA08BD00003038024000B587B074
:103A7000142102A8FCF711FC00BF00200190494866
:103A8000006840F08000474908600846006800F080
:103A90008000019000BF00BF00BF002001900846D9
:103AA000006840F0040008600846006800F0040068
:103AB000019000BF00BF00BF0020019008460068D1
:103AC00040F0010008600846006800F00100019025
:103AD00000BF00BF00BF002001900846006840F012
:103AE000020008600846006800F00200019000BF74
:103AF00000BF00BF002001900846006840F00800A9
:103B000008600846006800F00800019000BF00BF90
:103B100000224FF400412448FEF7BCF900224FF484
:103B200000412248FEF7B6F900224FF48071204888
:103B3000FEF7B0F900224FF480511E48FEF7AAF9B3
:103B40004FF4004002900120039004900220059061
:103B500002A91548FEF7A4F84FF400400290012096
:103B6000039004900220059002A91048FEF798F8EF
:103B70004FF4807002900120039004900220059081
:103B800002A90B48FEF78CF84FF4805002900120F8
:103B9000039004900220059002A90648FEF780F8E1
:103BA00007B000BD3038024000040240000C024063
:103BB00000000240000802400EB5C0207F49087096
:103BC000A82048700A2088700320C870FF207C4914
:103BD0000870487088700020C870C020794908704B
:103BE000A82048700A2088700120C87003F0C2FE27
:103BF0007248007800067149497840EA01406F49EF
:103C0000897840EA01206D49C978084302066B486B
:103C1000007800066949497840EA01406749897897
:103C200040EA01206549C978084300F47F4042EA30
:103C300000226248007800066049497840EA014164
:103C40005E48807841EA00205C49C978084300F466
:103C50007F0042EA10225948007801065748407810
:103C600041EA00415548807841EA00205349C9782B
:103C7000084342EA10605449086051480078000641
:103C80004F49497840EA01404D49897840EA01208E
:103C90004B49C9780843020649480078000648495C
:103CA000497840EA01404649897840EA0120444980
:103CB000C978084300F47F4042EA00224048007877
:103CC00000063F49497840EA01413D48807841EA91
:103CD00000203B49C978084300F47F0042EA1022E3
:103CE0003748007801063648407841EA00413448B8
:103CF000807841EA00203249C978084342EA1060DE
:103D0000324908602F48007800062E49497840EA79
:103D100001402C49897840EA01202A49C9780843A2
:103D200002062848007800062649497840EA014002
:103D30002449897840EA01202249C978084300F4DF
:103D40007F4042EA00221F48007800061D4949785A
:103D500040EA01411B48807841EA00201949C978AE
:103D6000084300F47F0042EA10221648007801065A
:103D70001448407841EA00411248807841EA002026
:103D80001049C978084342EA106011490860114897
:103D9000114900220E4BCDE9002102900B4A0A493D
:103DA0000E4804F071FC0D4804F0E0FE0B4805F0ED
:103DB0001DF80B49094804F045FF0EBD30000020F6
:103DC00034000020380000202400002028000020BB
:103DD0002C000020955C00082D5F0008D8530020BF
:103DE000255E000810B5044802F0ECF806F046FB2A
:103DF0000148FDF72BF810BDD853002000B587B05F
:103E000000200390049005900690019002901548C0
:103E10001549086044F29F104860002112488160F3
:103E200042F20F71C1600021016141618161FEF7C1
:103E30002FFD08B1FDF706F84FF48050039003A959
:103E40000948FEF7D1FD08B1FCF7FCFF0020019006
:103E5000029001A90448FEF7C1FC08B1FCF7F2FF8B
:103E600007B000BD000001405C03002010B50B4806
:103E70000B4908600B484860002109488160C16017
:103E800001610C214161002181614FF40041C16158
:103E9000FFF756F908B1FCF7D5FF10BD004C004004
:103EA000A4030020003E490010B50B480B490860F0
:103EB0000B484860002109488160C16001610C2104
:103EC0004161002181614FF40041C161FFF738F980
:103ED00008B1FCF7B7FF10BD00100140EC03002053
:103EE000003E490010B50B480B4908604FF4E13023
:103EF0004860002108488160C16001610C21416176
:103F000000218161C161FFF71BF908B1FCF79AFF3D
:103F100010BD0000004400403404002010B50B48E0
:103F20000B4908600B484860002109488160C16066
:103F300001610C214161002181614FF40041C161A7
:103F4000FFF7FEF808B1FCF77DFF10BD0048004008
:103F50007C040020003E490010B50B480B49086066
:103F60000B484860002109488160C16001610C2153
:103F70004161002181614FF40041C161FFF7E0F828
:103F800008B1FCF75FFF10BD00140140C40400201D
:103F9000003E490000BFFEE700BFFEE770477047E4
:103FA00010B5FDF783FF10BD00B593B0302107A811
:103FB000FCF773F9142102A8FCF76FF900BF002089
:103FC00001902448006840F080502249086008466B
:103FD000006800F08050019000BF00BF00BF0020CB
:103FE00001901D48006840F480401B490860084665
:103FF000006800F48040019000BF00BF01200790DE
:104000000004089002200D9041050E9104210F91AB
:104010009B211091022111910721129107A8FEF70F
:104020005FF908B1FCF70EFF0F2002900220039009
:10403000002004904FF4A05005904FF4805006905B
:10404000052102A8FEF70CF808B1FCF7FBFE13B03F
:1040500000BD000040380240007000400348006886
:1040600040F47000014908607047000088ED00E0EE
:1040700010B50248FEF73FFD10BD00005C030020B4
:1040800010B502682B4B98420ED0B0F1804F0BD088
:10409000294B984208D0294B984205D0284B98428A
:1040A00002D0284B984203D122F070024B681A4389
:1040B000204B984220D0B0F1804F1DD01E4B98422B
:1040C0001AD01E4B984217D01D4B984214D01D4B4E
:1040D000984211D01C4B98420ED01C4B98420BD0EA
:1040E0001B4B984208D01B4B984205D01A4B984264
:1040F00002D01A4B984203D122F44072CB681A4383
:1041000022F080034C6943EA04028B68C3620B68A7
:104110008362084B984202D00A4B984201D10B6946
:104120000363036843F004030360012343610260F7
:1041300010BD0000000001400004004000080040E5
:10414000000C0040000401400040014000440140D8
:104150000048014000180040001C004000200040C2
:1041600030B50C46816821F47F4142EA032525439E
:104170002943816030BD0A46816821F0700142F018
:10418000070319438160704730B50B461446026A35
:10419000056A25F001050562816921F0F00141EA17
:1041A000041122F00A021A438161026230BD30B567
:1041B0000B461446026A056A25F0100505628169FE
:1041C00021F4704141EA043122F0A00242EA0312D4
:1041D0008161026230BD000010B50248FEF72CFE7E
:1041E00010BD0000A403002070B50446A56B00209C
:1041F000E8852846FEF7DAFD70BD70B50646002555
:10420000B46B20684069C0F3C01594F841002128C0
:1042100005D125B10020E084204600F0FBF820689D
:104220004069C0F3801594F84200222805D125B1D9
:104230000020E085204600F0A7F8606C40F01000F8
:1042400060642046FEF7B2FD70BD70B50546AC6BEC
:104250002868006800F48070002842D1E08500BF23
:1042600000BF21680C3151E8001F21F480702168E3
:104270000C3141E80002002AF3D100BF00BF00BFAB
:104280002168143151E8001F21F001002168143128
:1042900041E80002002AF3D100BF00BF00BF21683F
:1042A000143151E8001F21F040002168143141E829
:1042B0000002002AF3D100BF202084F84200206BC6
:1042C00001280ED100BF00BF21680C3151E8001F4A
:1042D00021F0100021680C3141E80002002AF3D1DE
:1042E00000BF00206063206B012804D1A18D20460F
:1042F000FEF715FD02E02046FFF7EAF970BD70B544
:104300000546AC6B01206063206B012805D1A08DB0
:1043100041082046FEF703FD02E02046FFF70CFAB5
:1043200070BD70B50546AC6B2868006800F48070FD
:10433000F8B90020E08400BF00BF2168143151E8C3
:10434000001F21F080002168143141E80002002A9A
:10435000F3D100BF00BF00BF21680C3151E8001F3E
:1043600041F0400021680C3141E80002002AF3D1FD
:1043700002E02046FFF730FA70BD70B50446A56B29
:104380002846FFF74FFA70BD00BF00BF02680C322D
:1043900052E8002F22F4907102680C3242E80013B8
:1043A000002BF3D100BF00BF00BF0268143252E8F7
:1043B000002F22F001010268143242E80013002BA2
:1043C000F3D100BF016B01290ED100BF00BF02680D
:1043D0000C3252E8002F22F0100102680C3242E841
:1043E0000013002BF3D100BF202180F842100021E0
:1043F0000163704710B504462068C06820F0400093
:104400002168C860202084F841002046FFF7E4F9C5
:10441000002010BD00BF00BF02680C3252E8002F20
:1044200022F0C00102680C3242E80013002BF3D1E5
:1044300000BF202180F841107047F8B504460025E0
:10444000002694F84200222873D1A068B0F5805F5E
:104450000BD1206948B9A66A20684068C0F30800FB
:104460003080A06A801CA06214E0A56AA068B0F544
:10447000805F03D0A06828B9206918B92068406817
:10448000287004E02068406800F07F002870A06A6F
:10449000401CA062E08D401E80B2E085002846D11D
:1044A0002068C06820F020002168C8602068C068CB
:1044B00020F480702168C8602068406920F0010005
:1044C00021684861202084F8420000206063206B4E
:1044D000012826D10020206300BF00BF21680C31D5
:1044E00051E8001F21F0100021680C3141E8000262
:1044F000002AF3D100BF2068006800F010001028E7
:104500000AD100BF00200090206800680090206859
:104510004068009000BF00BFA18D2046FEF7FFFB62
:1045200002E02046FFF7D4F80020F8BD01E00020AB
:10453000FBE70220F9E700002DE9F84F0446206868
:10454000006920F44050E16808432168086121694E
:10455000A068084361690843E16908430090206846
:10456000C06849F20C618843009908432168C8601B
:104570002068406920F44070A169084321684861BF
:1045800076492068884203D075492068884203D163
:10459000FDF73EFE814602E0FDF72AFE8146E06916
:1045A000B0F5004F6CD102206168A0FB01500346BA
:1045B0001920A9FB007001462A463846FBF702FE87
:1045C0006421B0FBF1F04FEA001A02206168A0FB01
:1045D00001510B461920A9FB00712A463846FBF70A
:1045E000F1FD834602206168A0FB015003461920BB
:1045F000A9FB00712A463846FBF7E4FD6421B0FBB5
:10460000F1F000EBC00101EB0010ABEB80003221B8
:1046100001EBC0006421B0FBF1F000F0F8000AEB00
:10462000400A02206168A0FB015003461920A9FB43
:10463000007001462A463846FBF7C4FD8346022037
:104640006168A0FB015003461920A9FB00712A46AE
:104650003846FBF7B7FD6421B0FBF1F000EBC00179
:1046600001EB0010ABEB8000322101EBC0006421B4
:10467000B0FBF1F000F007005044216888606AE068
:1046800004206168A0FB015003461920A9FB0070BB
:1046900001462A463846FBF795FD824604206168AC
:1046A000A0FB015003461920A9FB007001462A46D1
:1046B0003846FBF787FD6421B0FBF1F000EBC00149
:1046C00001EB0010AAEB8000322101EB0010642105
:1046D000B0FBF1F000F0F00A04206168A0FB01706B
:1046E00003461920A9FB00513A462846FBF76AFD0C
:1046F0006421B0FBF1F00AEB001A04206168A0FB12
:1047000001510B461920A9FB00712A463846FBF7D8
:1047100059FD834604206168A0FB0150034619201F
:10472000A9FB007001462A463846FBF74BFD642181
:10473000B0FBF1F000EBC00101EB0010ABEB80002F
:10474000322101EB00106421B0FBF1F000F00F000A
:10475000504421688860BDE8F88F000000100140D7
:104760000014014077B581B0044615460298A06256
:10477000A58500206064222084F842002C48E16B6B
:10478000C8632C48E16B08642B48E16BC8640020C7
:10479000E16B086502AE32682368191D2B46E06B99
:1047A000FCF768FD38B110206064202084F84200D6
:1047B000012004B070BD00BF002000902068006898
:1047C000009020684068009000BF00BF206970B171
:1047D00000BF00BF21680C3151E8001F41F4807018
:1047E00021680C3141E80002002AF3D100BF00BF6C
:1047F00000BF2168143151E8001F41F00100216819
:10480000143141E80002002AF3D100BF00BF00BF0D
:104810002168143151E8001F41F040002168143133
:1048200041E80002002AF3D100BF0020C1E70000E8
:104830004B420008FF420008FB410008014691F886
:104840004100212828D18868B0F5805F0BD1086924
:1048500048B90A6A1088C0F308000B685860086AF3
:10486000801C086205E00B6A581C086218780B6807
:104870005860C88C401E80B2C88458B90868C068A7
:1048800020F080000B68D8600868C06840F04000E5
:104890000B68D860002070470220FCE710B5024882
:1048A000FEF7CAFA10BD0000EC03002010B5024864
:1048B000FEF7C2FA10BD00003404002010B5024813
:1048C000FEF7BAFA10BD00007C04002010B50248C3
:1048D000FEF7B2FA10BD0000C404002000BFFEE7DE
:1048E0000FB4054B10B503A9044A029800F034F840
:1048F00010BC5DF814FB0000F560000858030020B0
:1049000002480068C0F30220704700000CED00E090
:1049100010B5002804DB0A07130E054A135406E0FD
:104920000A07140E034A00F00F031B1FD45410BDD6
:1049300000E400E018ED00E002E008C8121F08C122
:10494000002AFAD170477047002001E001C1121F10
:10495000002AFBD1704700002DE9FF4F8BB09A462B
:104960000F460546002606E025280BD052460D9935
:1049700090476D1C761C28780028F5D10FB0304682
:10498000BDE8F08F0024A0460122604900E0044306
:1049900015F8013F203B02FA03F00842F7D12878CE
:1049A0002E2817D115F8010F44F004042A280ED040
:1049B0006FF02F022878A0F1300109290AD808EBFE
:1049C000880102EB410100EB01086D1CF2E757F88A
:1049D000048B6D1C287869283ED006DC0028CDD0D9
:1049E00063280BD0642804D136E0732810D07528D2
:1049F0004BD052460D999047761C85E017F8040B72
:104A00008DF8000000208DF80100E946012003E048
:104A100057F8049B4FF0FF3061074FF0000401D4BA
:104A20000AE0641C44450DDA8442FADB19F80410EC
:104A30000029F6D106E0641C8442FCDB19F804105E
:104A40000029F8D1264404E019F8010B52460D99CB
:104A50009047641EF8D257E001CF4FF00A0B0028B0
:104A600002DA40422D2102E0210504D52B218DF8E8
:104A70002410012103E0E10705D02021F7E70DF123
:104A8000200908910CE00021F9E701CF4FF00A0B53
:104A9000F9E75946FBF7C8FC01F1300209F8012D8E
:104AA0000028F6D1ADEB090000F1200B600701D41E
:104AB0004FF00108D84502DDA8EB0B0000E0002014
:104AC0008046002406E009A85246005D0D999047F3
:104AD000641C761C08988442F5DB04E030205246C2
:104AE0000D999047761CB8F10001A8F10108F5DC9A
:104AF00005E019F8010B52460D999047761CBBF161
:104B00000001ABF1010BF4DC6D1C34E70928010056
:104B10002DE9F04102460B46164600240027601E90
:104B2000DFF84CC000211FE04FF0004456F8217020
:104B3000002516E000F00048B8F1000F05D0400055
:104B4000DFF82C8080EA080000E0400007EA040853
:104B5000B8F1000F03D0DFF8188080EA080064087D
:104B60006D1C202DE6D3491C9942DDD3BDE8F081B0
:104B7000B71DC10410B504460420FDF7FFFD014830
:104B8000046010BD0000002070B5034600224FF005
:104B9000E02675690D4E366803FB06F44FF0E026FB
:104BA000B16910E04FF0E026B06988420BD088422E
:104BB00002D20E1A324402E02E1A0E44324401464A
:104BC000A24200D300E0EDE700BF70BD000000206E
:104BD00010B5002015E0002110E0002300EBC0021A
:104BE00002EB0012084C04EB02120C32C1EBC104C0
:104BF00004EB011402EB84025370491C0329ECDB23
:104C0000401C0428E7DB10BD248A002070B5044650
:104C10000D4600BF05F00300002808D000BF08A320
:104C20004FF4B67212A11AA0FFF75AFE00BF00BFE0
:104C30002E46A06800683060A068066070BD000065
:104C40002E2E2F4D6964646C6577617265732F54E5
:104C5000686972645F50617274792F4C7749502F84
:104C60007372632F636F72652F6D656D702E6300B5
:104C70006D656D705F667265653A206D656D20705B
:104C8000726F7065726C7920616C69676E65640023
:104C9000417373657274696F6E20222573222066DA
:104CA00061696C6564206174206C696E652025649F
:104CB00020696E2025730A0070B50546A86804684F
:104CC000002C13D02068A968086000BF04F003001E
:104CD000002808D000BF06A34FF48C7210A119A0C1
:104CE000FFF7FEFD00BF00BF204670BD0020FCE7BF
:104CF0002E2E2F4D6964646C6577617265732F5435
:104D0000686972645F50617274792F4C7749502FD3
:104D10007372632F636F72652F6D656D702E630004
:104D20006D656D705F6D616C6C6F633A206D656D64
:104D3000702070726F7065726C7920616C69676E3B
:104D400065640000417373657274696F6E2022257B
:104D50007322206661696C6564206174206C696EE1
:104D60006520256420696E2025730A0010B5002097
:104D700015E0002110E00A2300EBC00202EB001254
:104D8000084C04EB02120C32C1EBC10404EB011419
:104D900002EB84025370491C0329ECDB401C0428FD
:104DA000E7DB10BD248A002070B50546002411E021
:104DB00004EB4400094901EBC000067D4EB104EB51
:104DC000440001EBC0008068A84202D1204600F0F8
:104DD00087F9641C0A2CEBDB70BD000034890020CD
:104DE0002DE9FF5F0646894617464FF00A0AD3466B
:104DF000D04600240A2003900020029001900090E9
:104E000000BF73E004EB4400764901EBC000057D70
:104E1000B8F10A0F02D10DB9A04665E0002D63D0AC
:104E200000BF012D0AD0022D08DA00BF6EA340F2A8
:104E300023127BA18AA0FFF753FD00BF00BFAEB1D4
:104E400004EB4401674A02EBC101306849688842BB
:104E50000CD13FB104EB4400114601EBC000806867
:104E6000B84203D1204604B0BDE8F09F012D28D1FF
:104E700004EB44005B4951F8300080B104EB44007E
:104E800001EBC000418A029881422DDB039404EBC0
:104E90004400544901EBC000408A029024E004EB36
:104EA0004400504901EBC000418A019881421BDB5C
:104EB000A24604EB44004B4901EBC000408A01903C
:104EC00012E0022D10DB04EB4400464901EBC00068
:104ED000418A0098814207DBA34604EB4400414924
:104EE00001EBC000408A0090601C04B20A2C89DBF0
:104EF00009F0020028B9B8F10A0F05D109F0010044
:104F000010B94FF0FF30AEE7B8F10A0F01DA4446AE
:104F100031E0BBF10A0F11DA5C4600BF04EB44003C
:104F2000304951F8300040B100BF2FA340F26D125C
:104F300055A14BA0FFF7D4FC00BF0CE0BAF10A0F5B
:104F400001DA544607E003980A2801DA039C02E0DC
:104F50004FF0FF3087E700BF0A2C08DB00BF22A319
:104F600040F27F124EA13EA0FFF7BAFC00BF00BF87
:104F7000204600F0B5F800BF0A2C08DB00BF1AA3DA
:104F800040F2831246A136A0FFF7AAFC00BF00BF83
:104F900000BF04EB4400134901EBC000007D40B1A9
:104FA00000BF11A34FF4C27242A12DA0FFF798FCDD
:104FB00000BF00BF36B104EB44010A4A02EBC10155
:104FC00030684860002004EB4401064A02EBC1014E
:104FD000488204EB4400114601EBC0008760204684
:104FE00041E70000348900202E2E2F4D6964646C47
:104FF0006577617265732F54686972645F5061727E
:1050000074792F4C7749502F7372632F636F7265D9
:105010002F697076342F6574686172702E6300009A
:105020007374617465203D3D204554484152505F82
:1050300053544154455F50454E44494E47207C7C73
:10504000207374617465203E3D20455448415250A0
:105050005F53544154455F535441424C4500000056
:10506000417373657274696F6E2022257322206606
:1050700061696C6564206174206C696E65202564CB
:1050800020696E2025730A006172705F7461626C22
:10509000655B695D2E71203D3D204E554C4C0000F6
:1050A00069203C204152505F5441424C455F534976
:1050B0005A4500006172705F7461626C655B695D86
:1050C0002E7374617465203D3D2045544841525013
:1050D0005F53544154455F454D5054590000000002
:1050E00010B5044604EB44000C4951F8300060B19F
:1050F00004EB4401094A52F8310004F0F3FB0020AC
:1051000004EB4401054A42F83100002004EB44015D
:10511000024A02EBC101087510BD0000348900206D
:10512000F0B587B007460D4600BF002D0AD100BF7D
:105130002EA340F28A223BA13EA0FFF7D1FB00BF85
:1051400007B0F0BD00BF7C682088B0F5807F08D133
:105150002079062805D16079042802D160880828C2
:1051600003D0384604F0BEFBEAE7D4F80E00069000
:10517000A0690590686808B9002607E00598696885
:10518000884201D1012000E0002006460EB1012036
:1051900000E00220034604F1080206A9284600F0B8
:1051A000CBFCE088B0F5807F03D0B0F5007F15D14F
:1051B00013E086B1022206AB04F10800291DCDE9F7
:1051C0000232CDE9001005F12603024622312846BD
:1051D00000F05CFB00E000BF01E000E000BF00BFAA
:1051E000384604F07FFB00BFAAE700002E2E2F4DAB
:1051F0006964646C6577617265732F546869726461
:105200005F50617274792F4C7749502F7372632FFE
:10521000636F72652F697076342F65746861727080
:105220002E6300006E6574696620213D204E554C4A
:105230004C000000417373657274696F6E20222503
:105240007322206661696C6564206174206C696EEC
:105250006520256420696E2025730A002DE9FE4330
:1052600004460F461546A94600BF002C08D100BFD2
:105270005DA340F21E326AA16DA0FFF731FB00BFB3
:1052800000BF00BF47B900BF57A340F21F3272A151
:1052900067A0FFF725FB00BF00BF00BF002D08D1AE
:1052A00000BF51A34FF448726EA161A0FFF718FB35
:1052B00000BF00BF2146286801F0FDF810B1DFF8FB
:1052C000B48186E0287800F0F000E02816D10120B3
:1052D0008DF8040000208DF805005E208DF8060092
:1052E000687800F07F008DF80700A8788DF8080036
:1052F000E8788DF809000DF1040869E02868A168D4
:105300000840D4E90112114088420ED0288880B2AA
:105310004FF6A961884208D0E06810B104F10C0989
:1053200003E06FF00300BDE8FE835348007800EB14
:105330004000524901EBC000007D02281BDB4E48B3
:10534000007800EB400001EBC0008068A04212D161
:105350004949097801EB4101484A02EBC101D9F8FA
:1053600000004968884206D1434802783946204601
:1053700000F086F8D7E7002622E006EB46003F491A
:1053800001EBC000007D022818DB06EB460001EBB4
:10539000C0008068A04211D106EB4601374A02EBFB
:1053A000C101D9F800004968884207D13248067027
:1053B00032463946204600F063F8B4E7701CC6B2A6
:1053C0000A2EDADB3A464946204600F00DF9AAE7F4
:1053D00000BF4FF40060434604F1260239460090B6
:1053E000204600F021FD9EE72E2E2F4D6964646C4F
:1053F0006577617265732F54686972645F5061727A
:1054000074792F4C7749502F7372632F636F7265D5
:105410002F697076342F6574686172702E63000096
:105420006E6574696620213D204E554C4C0000008D
:10543000417373657274696F6E2022257322206632
:1054400061696C6564206174206C696E65202564F7
:1054500020696E2025730A007120213D204E554C95
:105460004C00000069706164647220213D204E553B
:105470004C4C0000A80C0108E400002034890020F6
:10548000F8B505460E46144600BF04EB440031490A
:1054900001EBC000007D022808DA00BF2EA340F215
:1054A000EE223BA146A0FFF71BFA00BF00BF04EBB2
:1054B0004400284901EBC000007D022839D104EBEB
:1054C000440001EBC000408AB0F58E7F11DD04EB93
:1054D00044000A4602EBC000011D284600F09CFA79
:1054E00038BB032004EB44011A4A02EBC1010875E2
:1054F0001FE004EB4400174901EBC000408AB0F5FF
:10550000877F16DB04EB44000B4603EBC00000F181
:105510000C0204EB440003EBC000011D284600F020
:1055200087FA30B9032004EB44010A4A02EBC101B7
:1055300008754FF40060009004EB4400054901EB4E
:10554000C00000F10C0305F126023146284600F0A8
:105550006BFCF8BD348900202E2E2F4D6964646CDD
:105560006577617265732F54686972645F50617208
:1055700074792F4C7749502F7372632F636F726564
:105580002F697076342F6574686172702E63000025
:105590006172705F7461626C655B6172705F696497
:1055A000785D2E7374617465203E3D2045544841FA
:1055B00052505F53544154455F535441424C45004F
:1055C000417373657274696F6E20222573222066A1
:1055D00061696C6564206174206C696E6520256466
:1055E00020696E2025730A002DE9FE4F81460F4683
:1055F000164609F1260A4FF0FF3002900020019074
:105600004946386800F057FF38B9387800F0F000A4
:10561000E02802D00FB1386818B96FF00F00BDE86C
:10562000FE8F4A4601213846FFF7DAFB8046B8F183
:10563000000F02DA4FFA88F0F1E700BFB8F17F0FF0
:1056400008D300BF5FA340F2C1326CA16FA0FFF787
:1056500047F900BF00BF08F0FF0404EB44007549A0
:1056600001EBC000007D70B90120019004EB440102
:10567000704A02EBC101087504EB4400114601EBCE
:10568000C000C0F8089000BF04EB4400694901EB7A
:10569000C000007D01280FD004EB440001EBC000E6
:1056A000007D022808DA00BF46A340F2CD3262A195
:1056B00056A0FFF715F900BF00BF019800B93EB929
:1056C0003946484600F0A8F902900EB90298A6E7BC
:1056D00000BF46B900BF3BA340F2E13260A14BA03E
:1056E000FFF7FEF800BF00BF04EB4400514901EB97
:1056F000C000007D022811DB5C4804704FF400609C
:10570000009004EB440001EBC00000F10C03524692
:105710003146484600F088FB029050E004EB44001C
:10572000444901EBC000007D012848D14FF0000B37
:10573000354618E000BF6889298988420AD128685F
:1057400040B100BF1FA340F2F13249A12FA0FFF7E3
:10575000C7F800BF00BF287B00F0400010B14FF039
:10576000010B02E02D68002DE4D100BFBBF1000F5A
:1057700007D032464FF420710E2003F0A7FE0546F5
:1057800003E03546284604F06DFAA5B104EB440069
:10579000284951F8300030B104EB4401254A52F851
:1057A000310004F09FF804EB4400224941F83050E6
:1057B0000020029002E04FF0FF30029000BF0298FC
:1057C0002DE700002E2E2F4D6964646C65776172A1
:1057D00065732F54686972645F50617274792F4CDD
:1057E0007749502F7372632F636F72652F697076DC
:1057F000342F6574686172702E630000747970656F
:10580000206F766572666C6F770000004173736578
:105810007274696F6E2022257322206661696C653F
:1058200064206174206C696E6520256420696E2097
:1058300025730A00348900206172705F7461626CA4
:10584000655B695D2E7374617465203D3D20504534
:105850004E44494E47206F7220535441424C4500FC
:105860007120213D204E554C4C000000E4000020EA
:105870006E6F207061636B657420717565756573FB
:1058800020616C6C6F776564210000002DE9FC5F7E
:1058900006460F4690469946DDE90CAB0020019084
:1058A00000BF002E08D100BF31A340F257423EA1F5
:1058B00041A0FFF715F800BF00BF4FF420721C2174
:1058C0000E2003F071FB05461DB94FF0FF30BDE817
:1058D000FC9F00BF68891C2808DA00BF24A340F29F
:1058E00062423FA134A0FEF7FBFF00BF00BF6C681F
:1058F0000F9802F038F8E08000BF96F82C000628D8
:1059000008D000BF1AA340F2694242492AA0FEF71C
:10591000E7FF00BF00BFD9F80000A060B9F804009D
:10592000A081DBF80000C4F81200BBF80400E0829C
:10593000DAF80000C4F80E000E980068A0614FF479
:105940008070208008206080062020710420607113
:1059500040F6060043463A4629460090304600F09D
:1059600063FA284603F0BEFF00250198AFE7000068
:105970002E2E2F4D6964646C6577617265732F54A8
:10598000686972645F50617274792F4C7749502F47
:105990007372632F636F72652F697076342F65742D
:1059A000686172702E6300006E6574696620213D27
:1059B000204E554C4C000000417373657274696F42
:1059C0006E2022257322206661696C6564206174F3
:1059D000206C696E6520256420696E2025730A009D
:1059E000636865636B2074686174206669727374A0
:1059F00020706275662063616E20686F6C6420732E
:105A00007472756374206574686172705F68647223
:105A100000000000CC0E010870B504460D46034A94
:105A20002946204600F004F870BD0000A80C0108CB
:105A30007FB504460D4616460121074A201D04F194
:105A400026038DE825000391324619462046FFF7CC
:105A50001DFF04B070BD0000AE0C010870B500243D
:105A600064E004EB4400334901EBC000057D002DE8
:105A70005BD004EB440001EBC000408A401C04EB07
:105A800044012C4A02EBC101488204EB4400114658
:105A900001EBC000408AB0F5967F0DDA04EB4400BC
:105AA00001EBC000007D01280AD104EB440001EBAA
:105AB000C000408A052803DB2046FFF711FB34E0D5
:105AC00004EB44001B4901EBC000007D032807D113
:105AD000042004EB4401174A02EBC101087524E0DD
