:020000040800F2
:1000000048A5002061020008733700087732000815
:100010006937000869040008F94000080000000082
:10002000000000000000000000000000A101000826
:100030009F06000800000000FD010008A13700082D
:100040007B0200087B0200087B0200087B0200089C
:100050007B0200087B0200087B0200087B0200088C
:100060007B0200087B0200087B020008590500089B
:100070007B020008650500087B0200087105000886
:100080007D050008890500087B0200087B02000846
:10009000AD0400087B0200087B0200087B02000818
:1000A0007B0200087B0200087B0200087B0200083C
:1000B0007B0200087B0200086D3800087B02000804
:1000C0007B0200087B0200087B0200087B0200081C
:1000D00085370008A93E0008513F00087B02000850
:1000E0007B0200087B0200087B0200087B020008FC
:1000F0007B0200087B0200087B02000895050008CF
:100100007B0200087B020008793800087B020008A7
:10011000CD3900080D3A00087B0200087B02000878
:100120007B020008A1050008AD0500087B0200085D
:100130007B020008A10600087B0200087B02000881
:10014000FD0400087B0200087B0200087B02000817
:100150007B020008B9050008C5050008FD3F00083E
:100160007B0200087B0200087B0200087B0200087B
:100170007B0200087B0200087B02000800000000F0
:100180007B0200087B020008DFF810D000F010F9B5
:100190000048004799410008AFF3008048A50020BF
:1001A0002C4B19680868B0E8F04F80F30988BFF35A
:1001B0006F8F4FF0000080F311887047000000003F
:1001C00008480068006880F308884FF0000080F35A
:1001D000148862B661B6BFF34F8FBFF36F8F00DF35
:1001E00000BF00BF08ED00E0DFF80C00016841F43B
:1001F00070010160704700BF88ED00E0EFF30980F7
:10020000BFF36F8F134B1A681EF0100F08BF20ED5D
:10021000108A20E9F04F106009B44FF0500080F3CD
:100220001188BFF34F8FBFF36F8F04F077FF4FF04C
:10023000000080F3118809BC19680868B0E8F04F25
:100240001EF0100F08BFB0EC108A80F30988BFF3CE
:100250006F8F704744000020EFF305807047000067
:100260000648804706480047FEE7FEE7FEE7FEE750
:10027000FEE7FEE7FEE7FEE7FEE7FEE7513800088F
:10028000890100082DE9F05F0546002092469B4653
:1002900088460646814640241BE02846414647469C
:1002A000224600F074F853465A46C01A914110D3C2
:1002B00011461846224600F05BF82D1A67EB01083C
:1002C0004F4622460120002100F052F817EB0009AA
:1002D0004E41201EA4F10104DFDC484631462A4687
:1002E0004346BDE8F09F10B5431A934209D28318E4
:1002F000881803E010F8011D03F8011D521EF9D201
:1003000010BD40EA01039B0703D009E008C9121F92
:1003100008C0042AFAD203E011F8013B00F8013BBF
:10032000521EF9D210BDD2B201E000F8012B491ED5
:10033000FBD270470022F6E710B513460A46044682
:100340001946FFF7F0FF204610BD00F0004230F0E4
:1003500000400AD0C10D01F56071C0F3160042EAF9
:100360000151C20840071143704700200146704701
:10037000202A04DB203A00FA02F100207047914065
:10038000C2F1200320FA03F3194390407047202A5A
:1003900004DB203A21FA02F00021704721FA02F32F
:1003A000D040C2F120029140084319467047000036
:1003B000064C074D06E0E06840F0010394E80700B2
:1003C00098471034AC42F6D3FFF7E2FE345E0008E3
:1003D000545E000870B58C1810F8015B15F0070327
:1003E00001D110F8013B2A1106D110F8012B03E0CE
:1003F00010F8016B01F8016B5B1EF9D12B0705D4D6
:100400000023521E0DD401F8013BFAE710F8013B1E
:10041000CB1A921C03E013F8015B01F8015B521E3A
:10042000F9D5A142D8D3002070BD026842600160B6
:10043000891A8160426902EBD273B1EB630F02DD6E
:10044000891A816005E05B105B428B4201DD11443B
:100450008160D0E902211144C160017F002902D1ED
:10046000C160012101777047FEE7000000B58BB045
:100470000020069007900121089147F6FE72019234
:1004800002900390049005900E200A90099101A912
:10049000054800F057FA044800F0C9FF022102485D
:1004A00000F0CCF90BB000BD2C060020014800F094
:1004B0005BBB00002C06002000B58BB00E20069020
:1004C000002007900121089147F6FE7201920290E8
:1004D0000390049005901C200A90099101A90648F8
:1004E00000F030FA044800F0A2FF0221024800F0B8
:1004F000A5F90BB000BD000054060020014800F033
:1005000033BB00005406002070B5054616460F4C5C
:1005100021600021A160E160236101233246214670
:10052000284600F09DF900280FD0022332462146CC
:10053000284600F095F9002807D032462146284683
:10054000BDE87040042300F08BB970BD289A0020EC
:10055000012004F025FDFBE7014800F0F5BF000095
:1005600044090020014800F0EFBF0000840800208B
:10057000014800F0E9BF0000E4080020014800F055
:10058000E3BF0000C40A0020014800F0DDBF000006
:10059000240B0020014800F0D7BF0000A409002070
:1005A000014800F0D1BF0000840B0020014800F09A
:1005B000CBBF0000040A0020014800F0C5BF0000C6
:1005C000E40B0020014800F0BFBF0000640A0020D7
:1005D0000168CAB2103A1823B2FBF3F2064B9B5CD7
:1005E000C3656FF30901032A02D9091D816500E083
:1005F0008165806D70470000A05D000810B5014660
:1006000000208A6A8B694FF0C074002B0ED0B3F5BE
:10061000005F1AD062B3012A2AD0022A28D0032A06
:1006200003D1C96AC90100D5012010BD1AB1012A40
:1006300006D0022AF9D1C96AC901F6D5012010BD38
:10064000C96AA142FBD1012010BD52B1012A0AD0D2
:10065000022A06D0032AF7D1C96AA142F4D10120A7
:1006600010BD012010BDC96AC901FBD5012010BD14
:10067000012010BD30B50468256825F4802525606B
:10068000046863608368402B04D003689960006845
:10069000C26030BD03689A600068C16030BD7047B9
:1006A000014801F0EDB8000040A000200020704794
:1006B00001F0D8BA10B5024801F086F9002010BD4B
:1006C00040A0002010B513460A460146044801F038
:1006D00044F910B14FF0FF3010BD002010BD0000F4
:1006E00040A0002010B513460A460146044801F018
:1006F0009CF910B14FF0FF3010BD002010BD00007C
:1007000040A0002072B6FEE731EE601A0121814060
:1007100070EE600A491E00EE101AB8EEC00A20EE14
:10072000800AC0EE010ABCEEE00A10EE100A704723
:10073000F0B503460A46DFED231A9FED232A93ED19
:10074000010A1020B0EE611AF0EE420AFFF7DCFF5A
:10075000044693ED020A0E20B0EE611AF0EE420A52
:10076000FFF7D2FF054693ED030A1020B0EE611AA1
:10077000F0EE420AFFF7C8FF0646DFED151A93EDCB
:10078000040A0A209FED111AF0EE610AFFF7BCFF80
:10079000074693ED050A08209FED0E1AF0EE610A58
:1007A000FFF7B2FF1470210A51709570C5F305214F
:1007B00041EA8711D170B908117150719671300AF0
:1007C000D071F0BD00002042000020C200C07F4474
:1007D0000000000000004C42012004F0E1FBFBE7B8
:1007E00008B5086800909DED000A08BD4A780978B0
:1007F00042EA012100EE101AB8EE400A80ED080A24
:10080000704700008878C978020604D5054A42EA94
:100810000020084301E041EA002000EE100AB8EE93
:10082000C00A70470000FFFF08B5486800909DEDC2
:10083000000A08BD022004F0B3FBFBE790F820207B
:10084000012A07D0022A05D0416A41F48021416281
:1008500001207047006842690A43426100207047E6
:10086000F0B590F820500468A468012D07D0022D3F
:1008700005D0416A41F4802141620120F0BD04F0BD
:10088000806504F00066354301D1E50053D5C4F31B
:1008900001640125A5401D608B684FF4C0759BB1B4
:1008A000CE6805EB041733434E6843EAC603066877
:1008B000F3514FF4C273076803EB04130E69FE5043
:1008C000097D012909D00DE00E88CB6805EB0417DE
:1008D00043EA46530668F351EBE70168CE5846F405
:1008E0008076CE501179D379567941EA03619379B4
:1008F0001B0443EA062319434FF4C676036806EB4C
:10090000041699511178D37841EA036193785278AB
:100910001B0443EA022211434FF4C473026803EB41
:100920000413D150006805EB0411425842F0010253
:1009300042500020F0BD416A41F4001141620120A3
:10094000F0BD000010B590F82020012A07D0022A3F
:1009500005D0416A41F480214162012010BD3C482C
:1009600000F50070026842F001020260026822F4A1
:100970007C52026002684B6A42EA032202600A7DEE
:1009800002F01F0301229A40C3699343C361A0F59B
:100990000070CB69B3B9D0F80C329343C0F80C3275
:1009A0008C894B6864F31F434C6900EBC404C4F8A2
:1009B00040320C890B6864F31F434C6900EBC4049C
:1009C000C4F84432CB69012B16D1D0F80C32134352
:1009D000C0F80C320C884B6864F31F434C6900EB81
:1009E000C404C4F840320C89CB6864F31F434C69DB
:1009F00000EBC404C4F844328B697BB1D0F80432F4
:100A00001343C0F804320B6973B1D0F814321343A6
:100A1000C0F81432096A01290CD010E0D0F8043271
:100A20009343C0F80432EEE7D0F814329343C0F891
:100A30001432EFE7D0F81C121143C0F81C12D0F8A2
:100A4000001221F00101C0F80012002010BD0000CA
:100A500000640040704770B590F82040012C07D02A
:100A6000022C05D0416A41F480214162012070BD11
:100A700021B104682469A4072AD003E00468E4686B
:100A8000A4071FD04FF4D874056804EB01142D5946
:100A900005F0040595600DB305682D59ED08556006
:100AA00005682C5904F00204D4604FF4DA74056828
:100AB00004EB01142E5906F00F06082E13D3082557
:100AC000156114E0416A41F400114162012070BDDA
:100AD000416A41F400114162012070BD05682D5941
:100AE0006D0D1560DCE72D5905F00F0515610568E2
:100AF0002D59C5F30725956105682C59240C5461BF
:100B00004FF4DC72046802EB0112A4581C700468F4
:100B1000A458240A5C700468A458240C9C700468CF
:100B2000A258120EDA704FF4DE72046802EB011262
:100B3000A4581C710468A458240A5C710468A45861
:100B4000240C9C710468A258120EDA7131B100684D
:100B5000016941F020010161002070BD0068C16899
:100B600041F02001C160F7E72DE9F05F0546002460
:100B700028684669D0F804908768D0F80CA0D0F8AF
:100B800010B0D0F81880F10748D0F90714D001212F
:100B90008160B80703D5284600F076FC0CE07807A2
:100BA00002D54FF4006407E0380702D54FF48054B3
:100BB00002E0284600F067FCF80516D529684FF4D6
:100BC00080708860B80503D5284600F05FFC0CE013
:100BD000780502D544F4005407E0380502D544F402
:100BE000804402E0284600F050FCF80316D529683E
:100BF0004FF480308860B80303D5284600F048FCE5
:100C00000CE0780302D544F4004407E0380302D531
:100C100044F4803402E0284600F039FC300707D560
:100C20005FEACA6004D544F4007429681020C860E3
:100C300070074FF0080707D55FEA0A7004D52868E7
:100C4000C760284600F0BAF9B00706D52868C06822
:100C5000800702D0284600F0B3F9700607D55FEA96
:100C6000CB6004D544F48064296810200861B00684
:100C700007D55FEA0B7004D528680761284600F0A5
:100C8000D3FBF00606D528680069800702D0284605
:100C900000F0CBFBB00308D55FEAC96005D5296831
:100CA00010204860284600F0C1FBF00307D55FEA3A
:100CB000097004D528684760284600F0EAFB300434
:100CC00046D55FEA497040D5F00504D55FEAC870A3
:100CD00001D044F00104B00504D55FEA887001D565
:100CE00044F00204700504D55FEA487001D544F071
:100CF0000404300529D518F0700F26D008F07000D4
:100D0000402815D006DC102809D020280AD0302829
:100D100016D10AE050280ED0602811D10EE044F020
:100D200008040DE044F010040AE044F0200407E059
:100D300044F0400404E044F0800401E044F4807492
:100D40002868816921F07001816129680420486068
:100D5000002C05D0686A204368622846FFF77AFEB7
:100D6000BDE8F09F70B50446002C03D094F8200035
:100D700010B104E0012070BD204600F09DF820680D
:100D8000016841F00101016000F06CFF0546052695
:100D90000CE000F067FF401B0A2807D9606A40F4A6
:100DA0000030606284F82060012070BD20684068D7
:100DB000C007EED02068016821F00201016000F058
:100DC00051FF05460CE000F04DFF401B0A2807D9F3
:100DD000606A40F40030606284F82060012070BDD9
:100DE000206840688007EED4207E01283FD020682C
:100DF000016821F080010160607E01283DD02068FB
:100E0000016821F040010160A07E01283BD02068EC
:100E1000016821F020010160E07E012839D02068BE
:100E2000016841F010010160207F012837D020685F
:100E3000016821F008010160607F012835D0206839
:100E4000016821F004010160D4E902010843D4E9FA
:100E50000412114308436168491E08432168C861B0
:100E600000206062012084F82000002070BD20680E
:100E7000016841F080010160BEE72068016841F02F
:100E800040010160C0E72068016841F02001016075
:100E9000C2E72068016821F010010160C4E7206802
:100EA000016841F008010160C6E72068016841F06F
:100EB00004010160C8E700002DE9F04387B0044653
:100EC000142102A8FFF736FA384D394BDFF8D890D5
:100ED000296822680126364C02273648491C1033FF
:100EE0004FF0030C4FF009084A4529D12960012928
:100EF00007D1196841F000711960196801F000719B
:100F00000191216841F002012160216801F0020194
:100F100001914FF44071029103970496CDF814C0EB
:100F2000CDF8188002A900F0ADFD002205211420A3
:100F300000F036FF142000F025FF07B0BDE8F08375
:100F4000DFF874904A45F8D11A6842F080621A605E
:100F50001A6802F0806201922960012907D119689C
:100F600041F000711960196801F000710191216868
:100F700041F002012160216801F00201019160212C
:100F8000029103970496CDF814C0CDF8188002A9F9
:100F900000F078FD00220521402000F001FF4020F4
:100FA00000F0F0FEC9E700000064004028000020C7
:100FB00030380240000402400068004070470000E2
:100FC0002DE9F04107462DED028B88B0F5489FEDE5
:100FD000F68ADFEDF68A3968F54C814231D12089F5
:100FE000401C2081F34B01AA00213846FFF733FD56
:100FF0000198F14DA0F20120F04EF3EE030A07280C
:101000001FD2DFE800F0041F3B5773CA9F00E94975
:1010100001A8FFF7E5FBDFF8A88388ED0A0AE54998
:1010200001A8FFF701FC85ED020AE34802F028F968
:1010300095ED010A88ED0B0A86ED010AE089401C56
:10104000E081AAE0DB4901A8FFF7CAFBDFF874835F
:1010500088ED0A0AD74901A8FFF7E6FB85ED070AE4
:10106000D548143002F00CF995ED060A88ED0B0A0C
:1010700086ED140A608A401C60828EE0CD4901A88A
:10108000FFF7AEFBDFF8408388ED0A0AC94901A8E3
:10109000FFF7CAFB85ED0C0AC748283002F0F0F8CC
:1010A00095ED0B0A88ED0B0A86ED3A0AE08A401CA2
:1010B000E08272E0BF4901A8FFF792FBDFF80C83E2
:1010C00088ED0A0ABB4901A8FFF7AEFB85ED110ABE
:1010D000B9483C3002F0D4F895ED100A88ED0B0ABF
:1010E00086ED270A608B401C608356E0B149B84802
:1010F000FFF77CFBB64D85ED080AAE4901A8FFF766
:1011000081FB85ED090A95ED080A2846BCEEC00A68
:1011100010EE101AFFF789F995ED030AB8EEC00A30
:1011200020EE080A20EE280A80EE201A85ED0A1A21
:1011300095ED090A80EE201A85ED0B1A608C401C93
:1011400060842AE09B49A348FFF750FBA14D85ED41
:10115000080A984901A8FFF755FB85ED090A95EDA6
:10116000080A2846BCEEC00A10EE101AFFF75DF917
:1011700095ED030AB8EEC00A20EE080A20EE280A10
:1011800080EE201A85ED0A1A95ED090A80EE201AE4
:1011900085ED0B1AE08B401CE0838F49386888424C
:1011A00049D16089401C6081824D2D1F2868401CF8
:1011B000286005F10C0301AA00213846FFF74BFC1B
:1011C000019840F20122A0F2012190427DD024DC5E
:1011D0004FF001014FF00002202875D0754B7F4D74
:1011E000083331282CD051282FD0912823D17C4985
:1011F000184602F035FF7A4DD5ED010A9FED791AB8
:1012000080EE810A10EE100AFFF79FF8764A03C2BB
:10121000287CF8B1012823D027E0012929D00F2903
:101220007ED0A1F58071553905D17048E96801601B
:101230006F482969016008B0BDEC028BBDE8F08100
:1012400018780028F7D12A70F5E718780028F2D12D
:101250002970F0E7674895ED050A80ED000A04E083
:10126000654895ED050A80ED000AE08D401CE0859B
:10127000E1E7504961480831FFF7B8FA5F4D85ED65
:10128000080A4C4901A80831FFF7BCFA85ED090AA4
:1012900095ED080A2846BCEEC00A10EE101AFFF7BA
:1012A000C4F895ED030AB8EEC00A20EE080A20EE55
:1012B000280A85ED0A0A95ED090A85ED0B0AE08CEE
:1012C000401CE084B7E700E05AE03A494C48083156
:1012D000FFF78CFA4A4D85ED080A364901A8083116
:1012E000FFF790FA85ED090A95ED080A2846BCEE4D
:1012F000C00A10EE101AFFF798F895ED030AB8EE41
:10130000C00A20EE080A20EE280A85ED0A0A95EDAB
:10131000090A85ED0B0A608D401C60858BE7FFE7AD
:101320002449102208313748FEF7DDFF354B364996
:1013300018880880354A59881180354D9A882A8046
:10134000344DDB882B8000EE102A334AB8EE400A79
:1013500082ED000A00EE101AB8EE400A82ED010A92
:1013600000EE100AB8EE400A82ED020A00EE103AD2
:10137000B8EE400A82ED030A608E401C60865AE790
:1013800026486B7B03700078264BC4072448002C4A
:1013900001D0017000E0027001D019704BE71A70A3
:1013A00049E7000000640040000000390000B44339
:1013B0004A9A0020C800002090050020E00000208C
:1013C0004C030020CC0300200C0400208C030020E0
:1013D0000C050020CC04002000680040F805002027
:1013E000D89A002035FA8E3CF0050020D800002065
:1013F000DC00002000060020FC0500204C0400203A
:101400008C040020409A0020E2050020E405002022
:10141000E0050020E6050020AC9A00200806002028
:10142000E8050020E905002070477047704770B557
:10143000044694F82000012805D0606A40F400209A
:101440006062012070BD022084F8200020680168DD
:1014500021F00101016000F005FC05460DE000F0FF
:1014600001FC401B0A2808D9606A40F40030606221
:10147000052084F82000012070BD20684068C00766
:10148000EDD1606270BD704770477047704770471C
:10149000704770472DE9F0410446A76D00F0E2FB6C
:1014A000054694F835000026022806D080206065A5
:1014B00084F834600120BDE8F0812068016821F0E3
:1014C000160101602068416921F080014161206CB2
:1014D00008B9A06C20B12068016821F00801016002
:1014E0002068016821F0010101600BE000F0BAFB07
:1014F000401B052806D92020343420620320607068
:101500002670D8E720680068C007EFD134343F2048
:1015100094F828108840B860012060702670002080
:10152000C9E790F83510022903D0802141650120D8
:101530007047052180F835100068016821F001012D
:1015400001600020704700002DE9F84304464FF089
:101550000009CDF800906F484FF416510068B0FBB9
:10156000F1F7A56D2E6894F85C00082202FA00F1EC
:10157000314210D02068016849070CD5016821F07C
:101580000401016094F85C0002FA00F1A960606D4A
:1015900040F00100606594F85C104FF0010808FA13
:1015A00001F0304208D021684969090604D5A860D5
:1015B000606D40F00200606594F85C100420884083
:1015C000304208D021680968890704D5A860606D99
:1015D00040F00400606594F85C10102088403042B0
:1015E00020D02168096809071CD5A8602068016817
:1015F00049030CD50068000304D4216C91B1204646
:1016000088470FE0A16C69B1204688470AE001686D
:10161000C90503D4016821F008010160216C09B1FA
:101620002046884794F85C102020884030424CD0F7
:1016300021680968C90648D5A86094F835000528CE
:101640000BD020680168490330D50068000328D416
:10165000616C51B32046884737E02068016821F06B
:10166000160101602068416921F080014161206C10
:1016700008B9A06C20B12068016821F00801016060
:1016800094F85C103F208840A86084F8358084F886
:101690003490216D00293BD001B02046BDE8F043D5
:1016A0000847E16B09B1204688470EE00168C9058B
:1016B00007D4016821F01001016084F8358084F8B6
:1016C0003490E16B09B120468847606D00281FD037
:1016D000606DC00714D0052084F8350020680168CB
:1016E00021F0010101600098401C0090B84203D82D
:1016F00020680068C007F6D184F8358084F83490FB
:10170000E16C002904D001B02046BDE8F043084751
:10171000BDE8F883400000202DE9F041044600F0C8
:10172000A1FA05465CB1022084F83500002684F851
:1017300034602068016821F0010101600DE00120A2
:10174000BDE8F08100F08EFA401B052805D9202065
:101750006065032084F83500F2E720680068C00760
:10176000F0D121680A6820480240D4E901031843F7
:10177000D4E903352B43184363691843A36918431D
:10178000E3691843236A18431043626A042A03D1A9
:10179000D4E90B231A43104308602068406920F005
:1017A0000700656A29460543012704290DD1A06A6F
:1017B0000543E06A48B12046FEF720FF28B14020EB
:1017C000606584F835700120BAE7206845612046DD
:1017D000FEF7FEFE94F85C203F2191408160666533
:1017E00084F835700020ABE73F8010F02DE9F04120
:1017F00004460025A66D94F8340001280DD0012080
:1018000084F8340094F835700020012F07D084F854
:10181000340002252846BDE8F0810220FBE70227BC
:1018200084F8357060652046FEF724FF94F85C105C
:101830003F208840B0602068016841F016010160D7
:10184000206C20B12068016841F008010160206827
:10185000016841F001010160DCE7000010B500F013
:101860000BF8000605D503484068BDE8104002F0BB
:1018700037BD10BD0C060020D0F88C00704700006A
:101880002DE9F04704462068876B00F580504569D4
:10189000C669DFF8B890D9F80080690606D57106E8
:1018A00004D52B494161204600F088F805EA06007E
:1018B000C00708D020684FF0011100F58050416149
:1018C000204600F0ABF8280426D5300424D5D4F8FF
:1018D000880040F00800C4F88800A8040FD52068EC
:1018E00000F5805041691B4A1140C4F88C10C16951
:1018F00021F4C031C161E020C4F8840009E020680F
:1019000000F58050426948F280610A40C4F88C209A
:1019100041612046FFF7A2FF38070BD52068C06A57
:1019200000F06000C4F89400204600F015F8002094
:10193000C4F894005FEA083006D54FF40020C9F8D7
:101940000000204600F070F8BDE8F087143C01402C
:101950004000010000207E0070472DE9F04105465F
:1019600098462868036903F01C034FF6FF7404EAE5
:10197000C12119434FF4F86303EA82120A4322F0AB
:10198000020141F00104046100F06CF906464FF4D5
:10199000803709E000F066F9801BB84202D30120CD
:1019A000BDE8F08128680469E007F3D12868406940
:1019B00080B2C8F800000020F2E70000014840684B
:1019C00002F08EBC0C06002070B505462868006940
:1019D00020F01C0400F0DAFA0C49884202D244F0EC
:1019E000080410E00A49884202D244F00C040AE0DC
:1019F0000849884207D30849884202D244F00404C7
:101A000001E044F010042868046170BDC00E1602A5
:101A10000087930300E1F50580D1F0080148806854
:101A200002F05EBC0C06002070472DE9F04105462F
:101A30002868046904F01C044FF6FF7606EAC12109
:101A400021434FF4F86404EA82120A4342F002018F
:101A500041F0010499B241612868046100F002F983
:101A600006464FF4803709E000F0FCF8801BB842CE
:101A700002D30120BDE8F08128680469E007F3D1B2
:101A8000F8E700002DE9F84F0022DFF89C914FF0B5
:101A9000010803274FF00F0C09F1040AA9F1040B08
:101AA00008FA02F50B682B40AB426ED10C7904F0BA
:101AB0000304012C01D0022C15D18668540007FACA
:101AC00004FE26EA0E06D1F80CE00EFA04FE4EEAF9
:101AD000060EC0F808E04468AC430D79C5F3001564
:101AE0009540254345600C79E443A40708D0C568B8
:101AF000540007FA04F6B5438E68A6402E43C6602C
:101B00000C7904F00304022C11D1D40800EB8406F4
:101B1000356A5407E40E0CFA04FE25EA0E05D1F8E6
:101B200010E00EFA04FE4EEA050EC6F820E0056845
:101B3000540007FA04F6B5430E7906F00306A640F2
:101B40002E4306604C6814F4403F67D0374C25683C
:101B500045F480452560246804F480440094344CA6
:101B600022F003052E19D6F8085894074FEA147E80
:101B70000CFA0EF4A5432F4CA04201D1002424E01E
:101B80002D4CA04202D101241FE047E02B4CA04283
:101B900001D1022419E02A4CA04201D1032414E00F
:101BA000284CA04201D104240FE0274CA04201D1CF
:101BB00005240AE0254CA04201D1062405E0244C6E
:101BC000A04201D1072400E0082404FA0EF42C43BB
:101BD000C6F80848D9F800409C434D68ED0200D58E
:101BE0001C43C9F80040DAF800409C434D68AD0240
:101BF00000D51C43CAF80040DBF800409C434D6808
:101C0000AD0300D51C43CBF80040074D083D2C68C0
:101C10009C434E68F60300D51C432C60521C102ACE
:101C2000FFF43EAFBDE8F88F083C01404438024065
:101C30000030014000000240000402400008024061
:101C4000000C024000100240001402400018024044
:101C5000001C0240002A01D08161704709048161A3
:101C60007047000001488068704700003400002081
:101C70000248816802781144816070473400002076
:101C800010B50B48016841F400710160016841F42E
:101C900080610160016841F480710160032000F0FF
:101CA0009FF80F2000F006F800F050F8002010BD5B
:101CB000003C024030B587B0054600241E4801684C
:101CC00041F008010160006800F00800009001A9DF
:101CD00002A800F03DF90598A8B100F05DF94000B8
:101CE0001649B0FBF1F1491E1648154A026040F250
:101CF000E732C260416004618460846100F0ECFC02
:101D000004461CB115E000F047F9E9E70D4800F082
:101D100027FD04466CB9322000F034F8102D07D2AC
:101D200000222946322000F03BF80748056000E019
:101D3000012407B0204630BD4038024040420F0029
:101D4000000C00400C0D00203800002082B00C4830
:101D5000016841F480410160006800F48040019016
:101D60000748001F016841F080510160006800F0E1
:101D70008050019000220F21901E02B000F010B898
:101D800044380240002809DB00F01F020121914085
:101D90004009800000F1E020C0F800117047000009
:101DA000F0B40D460D4B1B68C3F30223C3F10704C7
:101DB000042C00D90424191D072901D2002300E0B6
:101DC000DB1E012606FA04F1491E294099409E4077
:101DD000761E16403143F0BC02F08FB90CED00E0E6
:101DE00000F00701054A10684FF6FF03184040EA6B
:101DF0000120034908431060704700000CED00E02B
:101E00000000FA052DE9F04704460D46002C13D0DA
:101E1000DFF82891D9F80000EFB200F00700A842DF
:101E20000CD289F80070D9F8000000F00700A84231
:101E300004D00120BDE8F0870120FBE72068404E78
:101E4000810712D5400703D5306840F4E050306078
:101E50002078000703D5306840F460403060306877
:101E6000A16820F0F000084330602078C00731D02E
:101E7000334960680839012808D002280BD00328AC
:101E800009D0096889070BD40120D3E709688903C1
:101E900006D40120CEE70968890101D40120C9E7F1
:101EA000316821F0030101433160FFF7DBFE80461A
:101EB00041F2883A07E0FFF7D5FEA0EB0800504555
:101EC00001D90320B6E73068616800F00C00B0EB80
:101ED000810FF0D1D9F8000000F00700A84209D91D
:101EE00089F80070D9F8000000F00700A84201D07E
:101EF00001209FE72078400705D53068E16820F48D
:101F0000E050084330602078000706D5306821692A
:101F100020F4604040EAC100306000F05DF83168B4
:101F2000084AC1F30311515CC840074908600748DB
:101F30000068FFF7BFFE00207CE70000003C024085
:101F400008380240A85D000840000020380000204A
:101F50000F2202600B4A136803F003034360136807
:101F600003F0F0038360136803F4E053C360126866
:101F700002F46042D20802610348006800F00700E2
:101F80000860704708380240003C02400148006881
:101F9000704700004000002000B5FFF7F7FF04493C
:101FA0000968044AC1F38221515CC84000BD0000A9
:101FB00008380240B85D000800B5FFF7E7FF0449A4
:101FC0000968044AC1F34231515CC84000BD0000B9
:101FD00008380240B85D000810B51748006810F0D6
:101FE0000C01164816D04310042912D0082911D12B
:101FF000114C241F216801F03F02216849020AD5D3
:102000002068C0F38810A0FB03010023FEF73AF913
:1020100009E0184610BD21680023C1F38811A1FB17
:102020000001FEF72FF92168C1F30141491C490065
:10203000B0FBF1F010BD0000083802400024F400AD
:102040002DE9F84F0446002C13D02078DFF8A08348
:10205000C007A8F1040556D008F104000168C1F3D7
:10206000810101290CD00068C0F38100022803D04F
:102070000DE00120BDE8F88FD8F80000400206D539
:10208000286880033FD5606870BB0120F2E7606874
:10209000B0F5803F10D0B0F5A02F12D0286820F402
:1020A00080302860286820F4802028606068E0B1D3
:1020B000FFF7D8FD064614E0286840F48030286019
:1020C000F4E7286840F480202860286840F48030D5
:1020D0002860EBE7FFF7C6FD801B642801D90320C9
:1020E000C8E728688003F5D50DE0FFF7BBFD06467D
:1020F00006E0FFF7B7FD801B642801D90320B9E78C
:1021000028688003F5D42078BA4F80074FF0000983
:1021100048D5B748001D016811F00C0F08D00068C1
:10212000C0F38100022813D1D8F8000040020FD478
:102130002868800704D5E068012801D0012099E7CC
:102140002868216920F0F80040EAC100286029E0F1
:10215000E068B8B101203860FFF784FD064606E06C
:10216000FFF780FD801B022801D9032082E7286841
:102170008007F5D52868216920F0F80040EAC10001
:1021800028600FE0C7F80090FFF76CFD064606E0F8
:10219000FFF768FD801B022801D903206AE7286841
:1021A0008007F5D42078000729D5DFF844A29248AB
:1021B00061690AF1700A89B101210160FFF752FDDE
:1021C000064606E0FFF74EFD801B022801D90320DA
:1021D00050E7DAF800008007F4D510E0C0F800906E
:1021E000FFF740FD064606E0FFF73CFD801B022896
:1021F00001D903203EE7DAF800008007F4D4207804
:10220000400778D54FF0000A79483C300068C0009C
:102210000BD477483C30016841F080510160006880
:1022200000F0805000904FF0010ADFF8D0B1DBF8E9
:102230000000C00514D4DBF8000040F48070CBF837
:102240000000FFF70FFD064606E0FFF70BFD801BC1
:10225000022801D903200DE7DBF80000C005F4D502
:10226000634EA0686C3601280FD0052812D0306864
:1022700020F001003060306820F004003060A06879
:10228000F8B1FFF7EFFC834617E0306840F001003B
:102290003060F4E7306840F004003060306840F0AF
:1022A00001003060EBE7FFF7DDFCA0EB0B0141F232
:1022B0008830814201D90320DCE630688007F2D5FE
:1022C00010E0FFF7CFFC834609E0FFF7CBFCA0EB63
:1022D0000B0141F28830814201D90320CAE63068FF
:1022E0008007F2D4BAF1010F05D141483C300168B2
:1022F00021F080510160A069C0B33D49091D096802
:102300004FF0FF36C1F38101022946D0022805D0E3
:10231000C7F86090FFF7A6FC04463AE0C7F8609063
:10232000FFF7A0FC814607E0FFF79CFCA0EB09004B
:10233000022801D903209DE628688001F4D4D4E95D
:1023400007010843616AA26A890106EB520241EA69
:102350000241084394F82C1040EA0160C8F80000DC
:1023600001203866FFF77EFC044607E03DE0FFF7FA
:1023700079FC001B022801D903207BE62868800134
:10238000F5D532E0FFF76EFC001B022801D90320CF
:1023900070E628688001F5D427E0012823D0D8F81A
:1023A0000000E26900F4800191421AD1226A00F033
:1023B0003F01914215D147F6C071626A0140B1EB0D
:1023C000821F0ED1A26A00F4403106EB5202B1EB3B
:1023D000024F06D194F82C1000F07060B0EB016F42
:1023E00003D0012046E6012044E6002042E600003A
:1023F0000438024000004742800E4742007000400F
:102400007047000038B50446206842688168C943B7
:102410004B060AD5CB0708D1D3435B0605D4216C04
:1024200001B02046BDE8304008478B0708D4D343AD
:102430001B0605D4616C01B02046BDE8304008475A
:102440008B0603D54B0601D5CB0551D4D3439B0650
:102450004ED44B060AD494F85130032B49D0636D07
:1024600043F004036365C368836800938B0609D453
:10247000636D43F00103636583680093036823F091
:1024800040030360C80506D4606D40F00800606535
:10249000206880680090606D002829D0206841681D
:1024A00021F0E0014160012084F85100900701D43F
:1024B000D00722D02068416821F003014160114D0E
:1024C000E06C40B10565E06CFFF72BF818B1606D6A
:1024D00040F040006065A06C002809D00565A06C44
:1024E000FFF71FF8002803D0606D40F040006065E2
:1024F00038BDC1688068009038BD2046FFF780FF76
:1025000038BD00009137000870B50446002C09D092
:10251000606A002540B125616561A56294F85100AB
:1025200040B10CE0012070BD6068B0F5827FF4D04E
:10253000E561F2E784F85050204600F045F80220AB
:1025400084F851002068016821F040010160A088F2
:10255000218900F4827001F404410843A18901F447
:1025600000610843217C01F002010843217D01F054
:1025700001010843218B01F400710843217F01F020
:102580003801084394F8201001F080010843218DA0
:1025900001F40051084321680860A069042101EAA0
:1025A000104094F8241001F010010843216848609D
:1025B0002068C16921F40061C1616565012084F86A
:1025C0005100002070BD000010B586B004461421F3
:1025D00001A8FDF7AFFE18492068884229D10021E3
:1025E0001648026842F480420260006800F48040AD
:1025F000009012481038026842F00202026000683F
:1026000000F0020000904FF4604001900220029020
:102610000391032004900520059001A90848FFF7C5
:1026200031FA002205212420FFF7BAFB2420FFF70E
:10263000A9FB06B010BD0000003800404038024041
:10264000000402407047704770B590F83C20012AA2
:1026500031D0012680F83C60022280F83D200268DB
:102660005468936824F070050C682C435460134C34
:102670000268A24214D0B2F1804F11D0104CA24295
:102680000ED0104CA2420BD00F4CA24208D00F4CDF
:10269000A24205D00E4CA24202D00E4CA24204D15E
:1026A00023F080034968194391603C304670002153
:1026B0000170002070BD022070BD000000000140CC
:1026C0000004004000080040000C004000040140ED
:1026D000004001400018004010B50446002C03D013
:1026E00094F83D0010B107E0012010BD002084F8EF
:1026F0003C00204600F016F8022084F83D00211D21
:10270000206801F0BFF801203D3460726070A07055
:10271000E07020716071A071E07120722070002063
:1027200010BD000008B500680B49884212D10B4863
:10273000016841F004010160006800F004000090AD
:10274000002205211E20FFF72BFBBDE808401E20BC
:10275000FFF718BB08BD00000008004040380240E9
:1027600090F83D10012901D001207047022180F826
:102770003D100168CA6842F00102CA60006814494D
:10278000884214D0B0F1804F11D0124988420ED047
:10279000114988420BD01149884208D0104988421B
:1027A00005D01049884202D00F49884209D181687A
:1027B00001F00701062908D0016841F0010101601C
:1027C00003E0016841F00101016000207047000052
:1027D000000001400004004000080040000C0040E0
:1027E00000040140004001400018004070B504465C
:1027F000002594F83C00012817D0012684F83C609D
:10280000022084F83D002068826822F0770222F4DA
:102810007F4282600868502838D00DDC202853D0D1
:1028200005DC90B3102811D14EE0022070BD302895
:102830004AD040280AD13DE0602831D070280CD021
:10284000B0F5805F03D0B0F5005F12D001253C34B5
:10285000667000202070284670BDCB68D1E9012148
:10286000206801F07DF82068816841F0770181607F
:10287000EDE7CB68D1E90121206801F071F820680B
:10288000816841F480418160E1E71DE0CA684968E0
:10289000206801F077F85021206801F06BF8D6E746
:1028A000CA684968206801F07EF86021206801F05C
:1028B00061F8CCE7CA684968206801F063F84021F4
:1028C000206801F057F8C2E722680146104601F07F
:1028D00051F8BCE770472DE9F04104462068C5680F
:1028E00006694FF00007B10714D5A90712D5F91EE4
:1028F00001610120207720688069800703D020468D
:10290000FFF7E8FF05E0204600F081F8204600F0E0
:102910007FF82777700717D5680715D521686FF0FE
:1029200004000861022020772068806910F4407F4D
:1029300003D02046FFF7CEFF05E0204600F067F801
:10294000204600F065F82777300716D5280714D5FC
:1029500021686FF008000861042020772068C069B2
:10296000800703D02046FFF7B5FF05E0204600F0C2
:102970004EF8204600F04CF82777F00617D5E80609
:1029800015D521686FF010000861082020772068B5
:10299000C06910F4407F03D02046FFF79BFF05E09D
:1029A000204600F034F8204600F032F82777F00790
:1029B00008D0E80706D021686FF0010008612046C2
:1029C00000F028F8300608D5280606D521686FF0F3
:1029D000800008612046FFF735FE700608D56806BE
:1029E00006D521686FF040000861204600F05EF8CF
:1029F000B0060AD5A80608D521686FF02000086146
:102A00002046BDE8F041FFF71EBEBDE8F0817047EB
:102A10007047000030B4204A0168914232D11F490A
:102A20000A78072A01D0062A0AD101F586710A68B8
:102A3000521C0A608A68521C8A604A68521C4A60AA
:102A4000174B1968491C1960B1F57A7F1AD11549DD
:102A50004A8F0A8700224A87CC8F8C87CA8731F831
:102A60001E4C21F8204C21F81E2C4C8D0C854A85DB
:102A7000CC8D8C85CA854C8E0C864A86CC8E8C86F5
:102A8000CA861A6000680849884202D130BCFFF744
:102A9000EFB830BC7047000000080040140200206E
:102AA000000000206A9A0020000C00407047704728
:102AB00008B590F84110212909D10168143151E875
:102AC000002F42F0800241E80023002BF5D190F85E
:102AD0004210222923D101680A68496800910169DE
:102AE00049B101680C3151E8002F42F4807241E88D
:102AF0000023002BF5D10168143151E8002F42F07A
:102B0000010241E80023002BF5D10168143151E89E
:102B1000002F42F0400241E80023002BF5D10020B5
:102B200008BD10B5044620684069C0F3C01094F891
:102B30004110212911D180B12068143050E8001FC4
:102B400021F0800140E80012002AF5D1A06B08B105
:102B5000FEF7A0FC204601F030F820684069C0F381
:102B6000801094F84210222911D180B120681430CD
:102B700050E8001F21F0400140E80012002AF5D182
:102B8000E06B08B1FEF786FC204600F0E2FF002073
:102B900010BD7047F8B5044622681068D1685369C3
:102BA00000F00F06002E08D1850606D58D0604D547
:102BB0002046BDE8F84001F00EB80025002E66D092
:102BC00003F0010601F49077374360D0C20705D0C7
:102BD000CA0503D5626C42F001026264420705D562
:102BE000DA0703D0626C42F002026264820705D504
:102BF000DA0703D0626C42F004026264020707D570
:102C000001F02002324303D0626C42F00802626499
:102C1000626C002A31D0800604D5880602D5204691
:102C200000F0D9FF20684069C0F38010616C09078B
:102C300000D438B3204600F08CFF2068406940067D
:102C40001CD52068143050E8001F21F0400140E8F6
:102C50000012002AF5D1E06B60B159490165E06BC3
:102C6000FEF75FFC002808D0E06B016D01B0BDE805
:102C7000F04008472046FFF78CFFF8BD2046FFF7DD
:102C800088FFF8BD2046FFF784FF6564F8BD236B1D
:102C9000012B7DD1C3067BD5CB067FD5106850684C
:102CA000009050694FF0200340064FF0020644D5D3
:102CB000E16B0868406880B20028E7D0A28D8242AC
:102CC000E4D9E085C869B0F5807F2DD020680C304C
:102CD00050E8001F21F4807140E80012002AF5D16D
:102CE0002068143050E8001F21F0010140E8001274
:102CF000002AF5D12068143050E8001F21F040016F
:102D000040E80012002AF5D184F84230256320689B
:102D10000C3050E8001F21F0100140E80012002A9A
:102D2000F5D1E06BFEF7B6FB6663A08DE18D401A2E
:102D300081B22046FFF7BBFEF8BDA08DE18D401AA1
:102D400081B2E08D0028F7D00029F5D020680C3042
:102D500050E8002F22F4907240E80027002FF5D1B0
:102D60002068143050E8002F22F0010240E80027CC
:102D7000002FF5D184F84230256320680C3050E8EC
:102D8000002F22F0100240E80023002BF5D100E0D4
:102D900004E066632046FFF78AFEF8BD020606D50A
:102DA0000A0604D52046BDE8F84001F04DB84006BB
:102DB000F3D54806F1D52046BDE8F84000F0F0BE56
:102DC000553A000870B50446002C04D094F8410030
:102DD000002510B106E0012070BD84F84050204667
:102DE00000F024F8242084F841002068C16821F410
:102DF0000051C160204600F053FF2068016921F4B2
:102E0000904101612068416921F02A0141612068F7
:102E1000C16841F40051C1606564202084F841001C
:102E200084F842006563002070BD00002DE9F04F7A
:102E300087B00446142102A8FDF77CFAF748DFF8B2
:102E4000D8E31038D4F800C0F44A02210127F44B2B
:102E5000002506154FF003084FF0080B4FF040090E
:102E60004FF0006AF44556D1D2F800C04CF4002C63
:102E7000C2F800C0126802F400220192026842F017
:102E800004020260006800F0040001904FF440600A
:102E9000029003910497CDF81480CDF818B002A9E0
:102EA0001846FEF7EFFDE04FDE483860C7F804A093
:102EB000BD60FD603E617D61BD61FD613D627D6221
:102EC0003846FEF729FC08B1FDF71CFCE763BC633C
:102ED000D448D54F303060373860C7F804A0C7F801
:102EE0000890FD603E617D61BD61FD613D627D6276
:102EF0003846FEF711FC08B1FDF704FCA763BC637C
:102F0000002205213420FEF74BFF3420FEF73AFF64
:102F100007B0BDE8F08FDFF814E3F4456BD1D2F8C9
:102F200000C04CF4801CC2F800C0126802F4801289
:102F30000192026842F004020260026802F0040298
:102F40000192026842F008020260006800F0080086
:102F500001904FF480500290022003900497CDF826
:102F60001480CDF818B002A91846FEF78BFD042096
:102F70000290022003900497CDF81480CDF818B089
:102F800002A9AB48FEF77EFDA648A74F3038C037F0
:102F90003860C7F804A0BD60FD603E617D61BD6121
:102FA000FD613D627D623846FEF7B6FB08B1FDF774
:102FB000A9FBE763BC639B489E4F78303860C7F835
:102FC00004A0C7F80890FD603E617D61BD61FD61B0
:102FD0003D627D623846FEF79FFB08B1FDF792FB2C
:102FE000A763BC63002205213520FEF7D9FE3520FA
:102FF000FEF7C8FE8CE7DFF840E2F44559D1874A76
:10300000121D136843F010031360126802F01002DF
:103010000192026842F001020260006800F00100C3
:1030200001904FF4C060029003910497CDF8148092
:103030000720069002A98148FEF724FD7D4F8048B5
:1030400060373860C7F804A0BD60FD603E617D61F7
:10305000BD61FD614FF44038C7F820807D6238467D
:10306000FEF75AFB08B1FDF74DFBE763BC637448FC
:10307000704F7830C0373860C7F804A0C7F80890A0
:10308000FD603E617D61BD61FD61C7F820807D62AC
:103090003846FEF741FB08B1FDF734FBA763BC637C
:1030A000002205212520FEF77BFE2520FEF76AFE83
:1030B0002EE7DFF890E1F44552D1136843F4003372
:1030C0001360126802F400320192026842F00802B2
:1030D0000260006800F008000190602002900391F7
:1030E0000497CDF814800720069002A95048FEF7F7
:1030F000C9FC4C48544F48303860C7F804A0BD6044
:10310000FD603E617D61BD61FD613D627D6238466D
:10311000FEF702FB08B1FDF7F5FAE763BC6341482F
:10312000494F603060373860C7F804A0C7F808908E
:10313000FD603E617D61BD61FD613D627D6238463D
:10314000FEF7EAFA08B1FDF7DDFAA763BC630022D7
:1031500005212620FEF724FE2620FEF713FED7E6E3
:103160003A4A9445A4D12D4A121DD2F800C04CF021
:10317000200CC2F800C0126802F02002019202681E
:1031800042F004020260006800F004000190C020D8
:10319000029003910497CDF81480CDF818B002A9DD
:1031A0001846FEF76FFC2648274F1838C03738609E
:1031B0004FF02068C7F80480BD60FD603E617D610E
:1031C000BD61FD613D627D623846FEF7A5FA08B13A
:1031D000FDF798FAE763BC6319481D4F603038600B
:1031E000C7F80480C7F80890FD603E617D61BD614D
:1031F000FD613D627D623846FEF78EFA08B1FDF74B
:1032000081FAA763BC63002205214720FEF7C8FDB1
:103210004720FEF7B7FD7BE6004C004040380240F7
:103220000008024040600240840800200050004036
:10323000000C0240A40900200010014000000240E0
:103240004064024000440040C40A002000140140D1
:10325000E40B002090F84230202B01D00220704770
:1032600021B11AB10023036300F0A4BD012070470F
:10327000704770477047FEE7012001F091FEFBE7C1
:10328000F7EE000A90ED030AD0ED041AB0EE601AD2
:1032900000EE211A80EE810A90ED021A70EEC00A4B
:1032A00060EE810A90ED001A40EE010AC0ED010ABD
:1032B000C0ED000A7047012001F072FEFBE700003C
:1032C00010B50F480D490160032141600021816064
:1032D000C1604FF4002202614FF440124261017656
:1032E00041768176C17601774177FDF73BFD002875
:1032F00003D0BDE81040FDF705BA10BD00640040E2
:103300002C06002010B50F480D49016003214160D3
:1033100000218160C1604FF4002202614FF440122D
:103320004261017641768176C17601774177FDF77A
:1033300019FD002803D0BDE81040FDF7E3B910BD2A
:10334000006800405406002008B53148016841F487
:1033500000110160016801F400110091016841F45D
:1033600080010160006800F48000009000220521C7
:103370000B20FEF715FD0B20FEF704FD00220521B2
:103380000D20FEF70DFD0D20FEF7FCFC00220521AF
:103390000F20FEF705FD0F20FEF7F4FC00220521AB
:1033A0001020FEF7FDFC1020FEF7ECFC00220521AA
:1033B0001120FEF7F5FC1120FEF7E4FC00220521A8
:1033C0002F20FEF7EDFC2F20FEF7DCFC002205216C
:1033D0003920FEF7E5FC3920FEF7D4FC0022052158
:1033E0003A20FEF7DDFC3A20FEF7CCFC0022052156
:1033F0004520FEF7D5FC4520FEF7C4FC0022052140
:103400004620FEF7CDFCBDE808404620FEF7BABCDA
:103410003038024010B51F4A00211F4800F08CFFD1
:103420001E4C20601B4A002124321D4800F084FFFE
:103430006060184A002148321A4800F07DFFA06001
:10344000144A00216C32184800F076FFE060114AFF
:1034500000219032154800F06FFF20610D4A0021D5
:10346000B432134800F068FF60610A4A0021D83284
:10347000104800F061FFA061064A0021FC320E48AE
:1034800000F05AFFE0610D4A00210D4800F054FFA2
:10349000206210BD5C5C0008B73200080400002008
:1034A0006138000879320008753700086B3700086A
:1034B0007D370008D9070008510500087C5D000829
:1034C000350800082DE9F04387B0142102A8FCF765
:1034D00031FF00242E48016841F08001016001683D
:1034E00001F080010191016841F00401016001686F
:1034F00001F004010191016841F0010101600168DE
:1035000001F001010191016841F0020101600168CF
:1035100001F002010191016841F0080101600168B8
:1035200001F008010191016841F04001016000686B
:1035300000F0400001900122DFF858801503294671
:103540004046FEF787FBDFF850902F1100223946E6
:103550004846FEF77FFB0295012503950494032658
:10356000059602A94046FEF78DFA0297039504944A
:10357000059602A94846FEF785FA68020290039470
:10358000049502A94846FEF77DFA07B0BDE8F0832E
:103590003038024000040240000C024010B51048D0
:1035A0000E4901604FF48271416000218160C16069
:1035B000016141614FF4007282611822C2610162AF
:1035C000416281620A21C162FEF79EFF002803D09A
:1035D000BDE81040FDF796B810BD0000003800406F
:1035E0007C06002010B586B0002402940394049455
:1035F00005940094019414481249016040F28F61CF
:10360000416084603121C160046180218161FFF7E4
:1036100063F808B1FDF776F84FF48050029002A9E4
:103620000948FFF7E3F808B1FDF76CF8009401943E
:1036300069460548FFF708F8002801D0FDF762F851
:1036400006B010BD00080040D406002010B50C489C
:103650000A4901600B49416000218160C16001613C
:103660000C2242618161C161FFF7ACFB002803D0ED
:10367000BDE81040FDF746B810BD0000004C00400A
:103680001C07002040420F0010B50C480A49016099
:103690004FF4E131416000218160C16001610C2281
:1036A00042618161C161FFF78DFB002803D0BDE855
:1036B0001040FDF727B810BD0050004064070020FF
:1036C00010B50C480A4901604FF4612141600021A6
:1036D0008160C16001610C2242618161C161FFF7BB
:1036E00071FB002803D0BDE81040FDF70BB810BDFA
:1036F00000100140AC07002010B50C480A490160D9
:103700004FF4E121416000218160C16001610C2220
:1037100042618161C161FFF755FB002803D0BDE81C
:103720001040FCF7EFBF10BD00440040F40700203C
:1037300010B50C480A4901604FF4E13141600021A5
:103740008160C16001610C2242618161C161FFF74A
:1037500039FB002803D0BDE81040FCF7D3BF10BDF3
:10376000001401403C080020FEE7012001F018FC95
:10377000FBE7FEE7012001F013FCFBE7012001F06D
:103780000FFCFBE70148FEF73DBE00007C06002071
:1037900010B5806B0021C187C186FEF731FE10BDD8
:1037A00010B54FF0E020006902F096F8012803D030
:1037B000BDE8104001F060BD10BD000030B593B011
:1037C000302107A8FCF7B6FD142102A8FCF7B2FDD2
:1037D00000251D48016841F080510160006800F03B
:1037E000805001901948016841F4804101600068EF
:1037F00000F480400190012007900004089002240A
:103800000D9480010E9004200F90A8211091119426
:10381000129007A8FEF714FC08B1FCF773FF0F2005
:103820000290039404954FF4A05005904FF48050FB
:103830000690052102A8FEF7E5FA002801D0FCF762
:1038400061FF13B030BD00004038024000700040FE
:103850000248016841F470010160704788ED00E0A2
:103860004FF47A74204601F09BFBFBE70148FFF719
:1038700032B80000D40600200148FFF72CB8000041
:103880000C0D00202DE9F04102682A4D2A4E2B4FE5
:10389000DFF8ACC02B4B4FF08048A84209D0404520
:1038A00007D0B04205D0B84203D0604501D098425D
:1038B00003D122F070044A682243A8421BD040453D
:1038C00019D0B04217D0B84215D0604513D09842F5
:1038D00011D01D4CA0420ED01C4CA0420BD01C4C51
:1038E000A04208D01B4CA04205D01B4CA04202D0E5
:1038F0001A4CA04203D122F44074CA6822434C6996
:1039000022F08002224302608A68C2620A688262F0
:10391000A84201D0984201D10969016301214161A6
:103920000169C90703D0016921F001010161BDE806
:10393000F081000000000140000400400008004049
:10394000000C0040000401400040014000440140E0
:103950000048014000180040001C004000200040CA
:1039600010B5846824F47F4442EA03220A432243C8
:10397000826010BD826822F070020A4342F00701A3
:103980008160704710B5036A046A24F00104046280
:10399000846924F0F00444EA021423F00A020A4382
:1039A0008461026210BD10B5036A046A24F0100439
:1039B0000462846924F4704444EA023223F0A003D0
:1039C00043EA01118261016210BD000008B50D4893
:1039D00000680168C943C9060FD4016840680090B7
:1039E0000848FFF79EF8082207490648FFF732FC0F
:1039F0000448FFF75DF801F089F9BDE80840014887
:103A0000FFF7C8B81C0700206405002008B50E4861
:103A100000680168C943C90611D401684068009074
:103A20000948FFF77EF8122208490748FFF712FC01
:103A300007480188491C01800348FFF739F8BDE8B1
:103A400008400148FFF7A6B864070020A80C002032
:103A5000909A002010B5806B0021C185C184FFF7CA
:103A600098F810BD70B5846B20684069C0F3C01031
:103A700094F841100025212904D118B1E58420468D
:103A800000F09BF820684069C0F3801094F8421061
:103A9000222904D118B1E585204600F05AF8606C5F
:103AA00040F0100060642046FFF773F870BD10B559
:103AB0000146886B096809684FF00003C9052ED4D8
:103AC000C38501680C3151E8002F22F4807241E86F
:103AD0000024002CF5D10168143151E8002F22F0A8
:103AE000010241E80024002CF5D10168143151E8AD
:103AF000002F22F0400241E80024002CF5D12021C3
:103B000080F84210016B012909D101680C3151E89C
:103B1000002F22F0100241E80024002CF5D143636D
:103B2000016B012902D0FFF7A3FB10BD818DFEF7C9
:103B3000BEFF10BD10B5806B01214163016B0129EF
:103B400002D0FFF796FB10BD818D4908FEF7AFFF4D
:103B500010BD01680C3151E8002F22F4907241E849
:103B60000023002BF5D10168143151E8002F22F019
:103B7000010241E80023002BF5D1016B012909D195
:103B800001680C3151E8002F22F0100241E80023B7
:103B9000002BF5D1202180F84210002101637047ED
:103BA00010B50168CA6822F04002CA60202180F87E
:103BB0004110FFF75FFB002010BD01680C3151E898
:103BC000002F22F0C00241E80023002BF5D1202174
:103BD00080F84110704708B590F84210222901D0B2
:103BE000022008BD82684FF480539A4201D10169D6
:103BF00021B1816A9A421DD052B10BE0816A0268FC
:103C00005268C2F308020A80816A891C816209E055
:103C100002697AB10268526802F07F020A70816A12
:103C2000491C8162C18D491E0904090CC18505D05A
:103C3000002008BD026852680A70F0E70168CA688F
:103C400022F02002CA600168CA6822F48072CA6049
:103C500001684A6922F001024A61202180F842107D
:103C600000214163026B012A03D0FFF701FB002012
:103C700008BD016301680C3151E8002F22F01002E9
:103C800041E80023002BF5D101680A68D20602D56D
:103C90000A6849680091818DFEF709FFE7E7000097
:103CA0002DE9F041044620680169E26821F44051A1
:103CB00011430161A1682069E26901436069104311
:103CC00001432068C26849F20C639A430A43C26008
:103CD00020684169A26921F440711143416133496F
:103CE0002068884202D03249884202D1FEF764F946
:103CF00001E0FEF751F9E169002319276425322616
:103D0000B1F5004F28D061688B0F8A00A0FB070136
:103D1000FCF7B8FA0146B0FBF5F07A42504301EBEC
:103D2000800006EB0010B0FBF5F000F0F002B1FBF4
:103D3000F5F002EB0012B1FBF5F07B42584301EBCA
:103D4000800006EB0010B0FBF5F0216800F00F00DA
:103D500010448860BDE8F08161684A18A0FB070143
:103D60005B41FCF78FFA0146B0FBF5F00201B1FBB5
:103D7000F5F06FF01803584301EB800006EBC0002C
:103D8000B0FBF5F000F0F80002EB4002B1FBF5F0FB
:103D9000584301EB800006EBC000B0FBF5F0216852
:103DA00000F0070010448860D4E7000000100140D4
:103DB0000014014037B582B004461346039AA2624C
:103DC000A38500206064222184F84210E56B1B4922
:103DD000E963E56B1A492964E56B1A49E964E16B0B
:103DE00008652168E06B091DFDF700FD206801688A
:103DF00040680190206948B120680C3050E8001FED
:103E000041F4807140E80012002AF5D12068143096
:103E100050E8001F41F0010140E80012002AF5D1EE
:103E20002068143050E8001F41F0400140E80012C3
:103E3000002AF5D105B0002030BD0000AF3A0008DF
:103E4000353B0008653A000890F84110212901D05F
:103E5000022070478168B1F5805F01D1016961B1CD
:103E6000016A4A1C0262026809785160C18C491ECD
:103E70000904090CC1840AD013E0016A02680988A8
:103E8000C1F308015160016A891C0162EEE7016813
:103E9000CA6822F08002CA600068C16841F040012F
:103EA000C16000207047000038B5244C20680168CC
:103EB000C943C9063CD40168406800902046FEF71B
:103EC00030FEE06B006840681D4D6860C0F11A006C
:103ED00080B268802C780CB11A4901E0194932315E
:103EE0001A2817D10878552814D14878222811D1DA
:103EF000887815280ED1087E01280BD1487EAA2883
:103F000008D11522C91C1048FCF7EDF90F48C18EE5
:103F1000491CC18624B10020287018B1094903E06A
:103F20000120F9E7074932311A220448FFF792F9D4
:103F3000BDE838400148FEF72DBE0000AC07002068
:103F40002C000020440C0020330300204A9A00205B
:103F500078B4244B18680168C9063ED50022016870
:103F600040680090D86B0068016821F00101016091
:103F7000186841680068D86B016849681A4CC1F537
:103F8000007189B22180194C62541949CA8F521CA0
:103F9000CA87184C01684FF46062A14203D91549E1
:103FA0004C390A600FE0144CA14203D91149503931
:103FB0000A6008E0104D104C603DB83CA94201D9A0
:103FC000E26000E0A26000684FF400714160D86BCD
:103FD0000068016841F00101016078BC0148FEF70A
:103FE000D9BD0000F407002004060020009B00203B
:103FF0004A9A002058640240B860024008B50C4854
:1040000000680168C943C9060DD401684068009082
:104010000748FEF786FD192206490548FFF71AF9F9
:104020000348FEF745FDBDE808400148FEF7B2BD74
:104030003C080020DA0C002070EEC00A01EE100AE5
:1040400001208840B8EEC11A401E21EE201A00EE71
:10405000900AF8EEE01AC1EE210A30EE800A7047AD
:1040600000B502460B469FED212ADFED212A10689C
:104070001421C0F31300F0EE420AB0EE620AFFF71B
:10408000DBFF83ED010AD2F801001421000BF0EEF2
:10409000420AB0EE620AFFF7CFFF83ED020AB2F8E0
:1040A00005001021F0EE420AB0EE620AFFF7C4FFED
:1040B00083ED030AD079C0F300001874DFED0D0A18
:1040C00048B1D07907214008BBEE040AFFF7B4FFDE
:1040D00083ED050A00BDD07907214008BBEE040A34
:1040E000FFF7AAFF83ED050A00BD00000000204293
:1040F000000020C200004843FEE70907090E00281F
:1041000004DB00F1E02080F80014704700F00F009D
:1041100000F1E02080F8141D704702E008C8121F6B
:1041200008C1002AFAD170477047002001E001C1A0
:10413000121F002AFBD1704710B50648FCF796F90C
:104140000448FDF774F9BDE8104002210148FCF76E
:1041500075BB00002C06002010B50648FCF7ACF932
:104160000448FDF764F9BDE8104002210148FCF75E
:1041700065BB0000540600207CB504460D46104681
:104180001E466946FCF7D4FA33466A46294620465D
:10419000FCF7BAF97CBD000008B5FDF771FDFFF72B
:1041A0000DFBFFF78FF9FFF7CFF8FFF789F8FFF75F
:1041B000A9F8FFF717FAFFF749FAFFF765FAFFF7D3
:1041C0007FFAFFF799FAFFF7B3FAFFF7E7F9234809
:1041D0000068C16841F01001C16021480068C168F1
:1041E00041F01001C1601F480068C16841F0100132
:1041F000C1601D480068C16841F01001C1601B4CDE
:104200002068C16821F40051C160206841680168DC
:10421000406800904FF4007215492046FFF71AF8E5
:104220002068C16841F01001C1602068C16841F494
:104230000051C160FFF780FFFFF78EFF00230D4A9A
:1042400041210D48FFF798FF0C48FEF789FA00F06E
:1042500017F8FFF7DFF800F027F8FEE7AC070020BB
:104260001C070020640700203C080020F407002001
:10427000009B00204C05002054060020D40600209E
:10428000EFF30580002802D06FF005007047054865
:10429000016811B14FF0FF3070470121016000202B
:1042A000704700009400002010B5EFF3058000284F
:1042B00002D06FF0050010BD07480168012902D047
:1042C0004FF0FF3010BD054A00211170022101603E
:1042D00000F0D4FE002010BD940000201FED00E08F
:1042E00038B50024E51E00280BD0EFF30581B1B1ED
:1042F00000210091694601F063F9012804D02C46A1
:1043000015E06FF0030412E0009880B109494FF006
:1043100080500860BFF34F8FBFF36F8F07E000231B
:104320001A46194601F03AF8012800D02C462046DA
:1043300038BD000004ED00E02DE9FF470B464FF0CB
:104340000008CDF80C80EFF3058199BB90B380266F
:1043500018240025691E72B3176807B13D46976996
:1043600007B13C46671E382F02D21779FF0703D0EA
:10437000002004B0BDE8F087576907B1BE08D2F845
:1043800008C0BCF1000F0CD0D2F80C90B9F15C0F52
:1043900007D3D2F81090B9F1000F02D00FB101216C
:1043A0000BE0BCF1000F08D1D76837B9176927B9FE
:1043B000002102E01BE0FFE70021012901D059B1F3
:1043C00015E0916812690291CDE900423246294612
:1043D00001F054FA03900AE003A9CDE90041B2B21A
:1043E000294601F019FA012801D0CDF80C80039874
:1043F000BFE700002DE9F04104460F46134EF56873
:104400003068001D00F096FC601C07D137B13168A0
:10441000BDE8F041091D0E4800F0DCBC2C443068BA
:104420004460AC4206D23168B06B091DBDE8F04172
:1044300000F0B8BC3168706B091D00F0B3FCB06AC5
:10444000844200D2B462BDE8F08100004400002044
:104450004412002070B5044600F0C8FC1C4DA8684A
:10446000401CA860286810B1686938B10CE02C6065
:10447000A868012808D100F099F905E02868E16AE8
:10448000C06A884200D82C60686A401C6862606418
:10449000E06A2969884200D928610E4900EB800052
:1044A00001EB8000211D00F095FC00F0BFFC686965
:1044B00000280CD02868E16AC06A884207D2064901
:1044C0004FF080500860BFF34F8FBFF36F8F70BD08
:1044D00044000020940D002004ED00E038B500F009
:1044E00085FC104C2068C8B90F4800F04DFC0E4800
:1044F000143000F049FC0C48E060143020610A4B95
:104500000020F03B009003F1500210210A2000F03F
:10451000C9FE206010B105A100F00CFDBDE83840D7
:1045200000F084BC8000002048130020546D7251BC
:104530000000000070B50C4D0C4E11E000F056FC70
:10454000F068C468201D00F0F5FBA868401EA86054
:104550006868401E686000F069FC204600F053F86F
:1045600068680028EAD170BD4400002030120020A5
:1045700030B40B46026C002A0CD0C1681144C160F3
:104580008468A14201D30168C160C16830BC18468B
:10459000FBF7A9BE30BC70472DE9F0410446174631
:1045A0000026A56B226C002A10D0C7B1E068FBF78B
:1045B0009AFEE168206C091AE1602268914202D2F9
:1045C000A168081AE060022F16D017E02068A8B989
:1045D000A06801F0FBF906460020A0600EE06068CC
:1045E000FBF781FE216C606808446060A168884226
:1045F00004D32068606001E005B16D1E6D1CA563E9
:104600003046BDE8F08110B5044694F85900002802
:104610000BD0012811D0022814D0502080F311882B
:10462000BFF34F8FBFF36F8FFEE7206B00F014FCDA
:104630002046BDE8104000F00FBC2046BDE8104009
:1046400000F00ABC10BD00000749CA6811680029C3
:1046500004D00021016019B1002070470121F9E761
:10466000D068006870470000800000204FF40041CF
:104670000F48420706D0C01D20F007000C49411A20
:10468000C1F500410B4A1060002353600144083912
:1046900021F00701183A11604B600B600B1A436060
:1046A00001604068906050604FF00040506170477A
:1046B000281A0020B0000020074E4FF08054074D0C
:1046C000FFF738FF30680128FAD92C60BFF34F8F0D
:1046D000BFF36F8FF4E70000940D002004ED00E0BD
:1046E00070B51D46049C002909D02260E063216456
:1046F0000121204600F00CFE84F84C5070BD24606F
:10470000F4E72DE9F05F8246DDE90A590C9C0E467C
:1047100017469B46B900A522206BFBF704FE206BD1
:104720007F1E00EB870020F00707780707D0502096
:1047300080F31188BFF34F8FBFF36F8FFEE74FF009
:10474000000866B100202218315C82F83410315C18
:1047500011B1401C1028F6D384F8438001E084F89E
:104760003480382D00D33725E562E564C4F85080E5
:10477000201D00F014FB04F1180000F010FB246170
:10478000C5F13800A0616462C4F8548084F8588090
:104790005A465146384600F0A7FA2060B9F1000F9A
:1047A00001D0C9F80040BDE8F09F000070B50024BA
:1047B000114D04EB840005EB800000F0E5FA641C69
:1047C000382CF6D30D4800F0DFFA0C48143000F016
:1047D000DBFA0A48283000F0D7FA08483C3000F0ED
:1047E000D3FA0648503000F0CFFA05480349416338
:1047F0001431816370BD0000940D0020F41100207D
:104800004400002030B5134900E011460A68824296
:10481000FBD34B685C18844203D14068184448605D
:1048200008460D6844682318AB420DD1094B183B6C
:104830001B689A4206D05268224442600A68126895
:10484000026002E0036000E00260814200D0086084
:1048500030BD0000B000002070B500244160006150
:104860000C4D91420AD8D11A8269914201D3012498
:104870000EE0011D286900F095FA09E09A4203D282
:10488000994201D3012403E0011DE86800F08AFA8F
:10489000204670BD8000002010B5044600F0A6FA46
:1048A000A06B20B1002400F0C1FA204610BD012405
:1048B000F9E710B5044600F099FAA06BE16B884265
:1048C00001D1012400E0002400F0B0FA204610BD20
:1048D000F8B505460E461748C068C068C468201D74
:1048E00000F028FA94F82800410718D5A0692B4653
:1048F000411932462046FFF7AFFFA0B10020034622
:10490000014600902A46204601F072F958B950201D
:1049100080F31188BFF34F8FBFF36F8FFEE720F056
:10492000010084F82800216A01B02046BDE8F0406B
:10493000084700008000002030B587B03C4D6EE095
:104940000398002803DADDE90420069990470398CC
:10495000002864DB059C606910B1201D00F0EAF9B5
:1049600002A800F0AFF8024603980A2857D2DFE801
:1049700000F00505052D334A05052D3394F8280070
:1049800040F0010084F828000498A169034601441E
:104990002046FFF761FF68B3216A2046884794F8F4
:1049A000280040073BD5002000900498A16900230F
:1049B00042181946204601F01BF9D8B9502080F35F
:1049C0001188BFF34F8FBFF36F8FFEE714F8280FE6
:1049D00020F00100207022E094F8280040F001004F
:1049E00084F828000498A06128B181181346204655
:1049F000FFF732FF13E0502080F31188BFF34F8F91
:104A0000BFF36F8FFEE794F82800810703D4204698
:104A100000F022FA03E020F0010084F828000022D0
:104A200003A9286800F01CFE002889D107B030BD1A
:104A300080000020F8B506460D4600F067FB68468A
:104A400000F040F80446009810B101F039F8F8BDC4
:104A500045B9A64206D801F033F821463046FFF7A3
:104A600037FFF8BD0C481DB10169096891B10025F7
:104A7000311B2A46006800F06FFA01F021F8002887
:104A8000EFD106494FF080500860BFF34F8FBFF35E
:104A90006F8FF8BD0125EBE78000002004ED00E0FA
:104AA0000748416B0968002905D0416BC968C9688E
:104AB0004968816270474FF0FF31816270470000A2
:104AC0004400002070B5054600F014FF0446074E70
:104AD000B068844204D200F00BF80120286001E0A5
:104AE00000202860B460204670BD000080000020D7
:104AF000F8B51A4E20E0C0680568C468201D00F0B3
:104B000019F9216A2046884794F82800400713D5F0
:104B1000A0692844A84206D960602461211DF0687C
:104B200000F040F908E000200346014600902A46C4
:104B3000204601F05DF840B1F06801680029DAD143
:104B4000F0683169F1603061F8BD502080F3118860
:104B5000BFF34F8FBFF36F8FFEE700008000002090
:104B600009484068401C07D0502080F31188BFF3EB
:104B70004F8FBFF36F8FFEE7502080F31188BFF394
:104B80004F8FBFF36F8FFEE7B800002008B568466F
:104B9000FFF75AFD0099FFF74DFFFFF7CDFEF6E74F
:104BA0002DE9F041044600F021F994F9455004F153
:104BB000240609E0606A48B1304600F045FF08B1BC
:104BC00000F01EFA6D1E6DB2002DF3DC4FF0FF36C3
:104BD00084F8456000F02AF900F008F994F944508F
:104BE00004F1100709E0206948B1384600F02CFFB5
:104BF00008B100F005FA6D1E6DB2002DF3DC84F8EB
:104C00004460BDE8F04100F011B900002DE9F04129
:104C10000546002600F07AFA324F386808B9FFF7E7
:104C200025FD786905424DD18DB1083568070ED054
:104C300005F00700C0F108000544680707D05020C0
:104C400080F31188BFF34F8FBFF36F8FFEE7CDB3B3
:104C50007868854236D8234918310846046801E04F
:104C6000214604466068A84202D220680028F7D195
:104C70003868844226D00E6808362068086060686C
:104C8000411B10290ED96019420707D0502080F32C
:104C90001188BFF34F8FBFF36F8FFEE741606560F0
:104CA000FFF7B0FD61687868401A7860BA68904292
:104CB00000D2B86078690143616000202060F86824
:104CC000401CF86000F0FCFE700707D0502080F315
:104CD0001188BFF34F8FBFF36F8FFEE73046BDE8FB
:104CE000F08100009800002024384FF080730362A8
:104CF00021F00101C1610449816142606FF002014C
:104D000040F8201970470000614B00080748084B25
:104D1000817882794079012942EA002003D0022972
:104D200000D19883704758837047000064050020C5
:104D30006C0500200169D0E901329A60D0E90123B5
:104D40005A604A68824201D182684A600022026148
:104D50000868401E0860086870470000034B036045
:104D600003F15C0008608020106070477013002021
:104D7000044B036003F15C0008604FF48070106026
:104D800070470000CC15002000F1080141604FF091
:104D9000FF328260C1600161002101607047002123
:104DA0000161704730B50C68621C02D000F1080246
:104DB00002E0026904E01A4653681D68A542FAD968
:104DC00053684B6099608A60516008610168491CB2
:104DD000016030BD42684A6093688B609368596097
:104DE000916008610168491C01607047502080F3A0
:104DF0001188BFF34F8FBFF36F8F0A494868401C7B
:104E0000486001280CD10848006810F0FF0F07D057
:104E1000502080F31188BFF34F8FBFF36F8FFEE7F1
:104E200070470000B800002004ED00E00949486820
:104E3000002806D0401E4860002801D180F3118868
:104E40007047502080F31188BFF34F8FBFF36F8FEF
:104E5000FEE70000B800002070B500282AD008380E
:104E60000446154D60686969084207D1502080F3F7
:104E70001188BFF34F8FBFF36F8FFEE722683AB1FF
:104E8000502080F31188BFF34F8FBFF36F8FFEE781
:104E90008843606000F03AF96068696808446860B7
:104EA0002046FFF7AFFC2869401C2861BDE8704030
:104EB00000F006BE70BD0000980000204FF0E0201A
:104EC00000210161816105494FF47A720968B1FBE3
:104ED000F2F1491E41610721016170474000002045
:104EE00010B5FBF7B9F9114910280ED300F1E020F5
:104EF00090F8F0030A78904207D2502080F311888E
:104F0000BFF34F8FBFF36F8FFEE7094800688968D2
:104F100000F4E060884207D9502080F31188BFF385
:104F20004F8FBFF36F8FFEE710BD0000B800002069
:104F30000CED00E010B50022064B53F832401CB1D6
:104F4000521C082AF9D310BD43F8321003EBC201FA
:104F5000486010BD540D002070B504460D4616463D
:104F6000FFF744FF94F944304FF000005B1C01D17F
:104F700084F8440094F94510491C01D184F8450097
:104F8000FFF754FFA06B28B93246294604F12400EC
:104F900000F056F82046BDE87040FFF701BE000063
:104FA00010B502460020002A12D00F48006B38B11D
:104FB000502080F31188BFF34F8FBFF36F8FFEE750
:104FC00000F0A4F800211046FFF714FA00F078FD75
:104FD000002807D105494FF080500860BFF34F8F7C
:104FE000BFF36F8F10BD00004400002004ED00E00F
:104FF00002490A6A0260C9684160704744000020A3
:1050000001490120C86170474400002010B50C46DA
:1050100000280AD0094909681831FFF7C3FE204665
:10502000BDE810400121FFF7E5B9502080F3118859
:10503000BFF34F8FBFF36F8FFEE7000044000020E7
:1050400070B50D46144600280DD00B49096818317B
:10505000FFF7C0FE0CB14FF0FF3521462846BDE8F2
:105060007040FFF7C7B9502080F31188BFF34F8F0E
:10507000BFF36F8FFEE700004400002030B587B01B
:1050800000250695059504AA05A906A8FFF766FE62
:10509000DDE90510CDE900510290002317A1194860
:1050A000049A00F0EBFB184CE06208B1012000E02C
:1050B0000020012801D100F067FD012809D0401C23
:1050C00019D1502080F31188BFF34F8FBFF36F8F3A
:1050D000FEE7502080F31188BFF34F8FBFF36F8F2F
:1050E0004FF0FF30A06201206061E56007B0BDE8CD
:1050F000304000F047B807B030BD000049444C458F
:1051000000000000B9460008440000200248016B7E
:10511000491C0163704700004400002010B5174B84
:10512000186B002802D00120D86110BD0020D86182
:105130001869134901E0C0B1401E00EB800251F82C
:105140002220002AF7D000EB800201EB82014A689E
:1051500052684A6001F10804A24201D152684A60D3
:105160004968C9681960186110BD502080F3118822
:10517000BFF34F8FBFF36F8FFEE7000044000020A6
:10518000940D00201CB537480168374A914207D179
:10519000502080F31188BFF34F8FBFF36F8FFEE76E
:1051A00000683149491E884207D1502080F3118898
:1051B000BFF34F8FBFF36F8FFEE72C490878019044
:1051C000FF200870087800909DF800009DF80020EE
:1051D00000F0F000904207D0502080F31188BFF318
:1051E0004F8FBFF36F8FFEE79DF80000204C00F05B
:1051F000500020700720A06006E0A068401EA0605C
:105200009DF80000400000909DF800000006F4D4D6
:10521000A068032807D0502080F31188BFF34F8F78
:10522000BFF36F8FFEE74FF44070A06001980870E5
:105230000C482030016841F470010160016841F0C0
:1052400070410160FFF73AFE00206060FAF7CCFF82
:105250000848016841F040410160FAF7B1FF0020C1
:105260001CBD000000ED00E071C20F4100E400E051
:10527000B800002034EF00E010B5502080F3118812
:10528000BFF34F8FBFF36F8F00F03AFB18B10449A3
:105290004FF080500860002080F3118810BD00009E
:1052A00004ED00E038B5049D002804D05BB102B1E4
:1052B00089B1C2B120E0502080F31188BFF34F8F35
:1052C000BFF36F8FFEE7502080F31188BFF34F8F3D
:1052D000BFF36F8FFEE7502080F31188BFF34F8F2D
:1052E000BFF36F8FFEE739B1502080F31188BFF311
:1052F0004F8FBFF36F8FFEE7502400941C460123AD
:1053000084F846302B460094FFF7EAF9204638BD72
:1053100070B504460D46002C25D0FFF767FDD4E993
:105320000F20216802FB0011A1600021A163216808
:105330006160E06B2268216C401E00FB0121E1608E
:105340004FF0FF3084F8440084F8450004F1100069
:105350008DB1FFF719FD04F12400FFF715FDFFF7EC
:1053600065FD012070BD502080F31188BFF34F8F81
:10537000BFF36F8FFEE721690029F0D000F064FBD6
:105380000028ECD004494FF080500860BFF34F8FE5
:10539000BFF36F8FE3E7000004ED00E02DE9FF4766
:1053A00082B004468A461E460025002C03D0BAF17E
:1053B000000F08D011E0502080F31188BFF34F8F09
:1053C000BFF36F8FFEE7206C38B1502080F3118857
:1053D000BFF34F8FBFF36F8FFEE7022E0AD1E06B52
:1053E000012807D0502080F31188BFF34F8FBFF3FF
:1053F0006F8FFEE700F070FA48B9049838B150207A
:1054000080F31188BFF34F8FBFF36F8FFEE74FF02C
:1054100000094FF08057DFF8E480FFF7E7FCA06B4E
:10542000E16B884205D3022E03D0049808B325B35C
:1054300027E0324651462046FFF7AEF8616A59B17F
:1054400004F1240000F000FB68B1C8F80070BFF35D
:105450004F8FBFF36F8F06E028B1C8F80070BFF31D
:105460004F8FBFF36F8FFFF7E1FC012006B0BDE85F
:10547000F087FFF7DBFC0020F8E76846FFF7B8FD90
:105480000125FFF7D3FCFFF741FEFFF7AFFC94F9CE
:105490004400401C01D184F8449094F94500401C1C
:1054A00001D184F84590FFF7C1FC04A9684600F0DB
:1054B00075F930B12046FFF773FB00F001FB0020C7
:1054C000D4E72046FFF7F5F990B104F110000499F4
:1054D000FFF79CFD2046FFF763FB00F0F1FA002880
:1054E0009BD1C8F80070BFF34F8FBFF36F8F94E765
:1054F0002046FFF755FB00F0E3FA8EE704ED00E0ED
:105500002DE9F0470446894690461F46002C03D0FB
:10551000B9F1000F08D011E0502080F31188BFF3DB
:105520004F8FBFF36F8FFEE7206C38B1502080F3B0
:105530001188BFF34F8FBFF36F8FFEE7022F0AD1A1
:10554000E06B012807D0502080F31188BFF34F8F04
:10555000BFF36F8FFEE7FFF7C3FC5020EFF3118618
:1055600080F31188BFF34F8FBFF36F8FA06BE16B98
:10557000884206D3022F04D0002086F31188BDE8AC
:10558000F08794F94550A06B3A4649462046FFF70C
:1055900003F8681C04D06D1C84F845500120ECE72A
:1055A000606A0028FAD004F1240000F04DFA0028C7
:1055B000F4D0B8F1000FF1D00120C8F80000EDE7F9
:1055C00070B504460E46002C09D0206C78B15020EE
:1055D00080F31188BFF34F8FBFF36F8FFEE750202A
:1055E00080F31188BFF34F8FBFF36F8FFEE7206802
:1055F00048B9A06838B1502080F31188BFF34F8FAD
:10560000BFF36F8FFEE7FFF76BFC5020EFF31185C0
:1056100080F31188BFF34F8FBFF36F8FA26BE06BE6
:10562000904218D994F94500521CA263411C04D041
:10563000401C84F8450001200EE0606A0028FAD082
:1056400004F1240000F000FA0028F4D0002EF2D07B
:1056500001203060EFE7002085F3118870BD000065
:105660002DE9F74783B004468A460026002C03D074
:10567000BAF1000F08D011E0502080F31188BFF379
:105680004F8FBFF36F8FFEE7206C38B1502080F34F
:105690001188BFF34F8FBFF36F8FFEE700F01CF947
:1056A00048B9059838B1502080F31188BFF34F8F67
:1056B000BFF36F8FFEE700274FF08058DFF8D890D8
:1056C000FFF794FBA56BC5B151462046FEF750FF8E
:1056D0006D1EA563206950B104F1100000F0B4F90B
:1056E00028B1C9F80080BFF34F8FBFF36F8FFFF76A
:1056F0009DFB012006B0BDE8F087059808B126B1F2
:1057000007E0FFF793FB0020F4E701A8FFF770FC28
:105710000126FFF78BFBFFF7F9FCFFF767FB94F916
:105720004400401C01D184F8447094F94500401CA9
:1057300001D184F84570FFF779FB05A901A800F0B5
:105740002DF858B12046FFF72BFA00F0B9F92046A2
:10575000FFF7A2F80028B3D00020CBE72046FFF7E0
:105760009BF890B104F124000599FFF74FFC204607
:10577000FFF716FA00F0A4F90028A1D1C9F80080BB
:10578000BFF34F8FBFF36F8F9AE72046FFF708FAFA
:1057900000F096F994E7000004ED00E02DE9F041F7
:1057A00005460C46002D11D0C4B1FFF71FFB194E62
:1057B000F0686B68C11A2268571C17D02F68366AC8
:1057C000B74215D0834213D801241DE0502080F346
:1057D0001188BFF34F8FBFF36F8FFEE7502080F328
:1057E0001188BFF34F8FBFF36F8FFEE700240BE0EC
:1057F0008A4206D9501A20602846FFF7F9FB002498
:1058000002E0002020600124FFF710FB2046BDE8E5
:10581000F0810000440000202DE9FF5F8146DDE9B2
:105820000E788A4616469B46B000FFF7EFF905460C
:1058300028000AD05C20FFF7E9F904460CB1256383
:1058400004E02846FFF708FB00E000249CB100209C
:1058500084F85900CDE90240CDE900785B46324634
:1058600051464846FEF74DFF2046FEF7F3FD012066
:1058700004B0BDE8F09F4FF0FF30F9E7F0B585B018
:105880000746DDE90A600C9C002815D0E4B15C25D0
:1058900003952063022084F85900002004ADCDE96F
:1058A0000240CDE900653846FEF72BFF2046FEF7A3
:1058B000D1FD049805B0F0BD502080F31188BFF3EE
:1058C0004F8FBFF36F8FFEE7502080F31188BFF337
:1058D0004F8FBFF36F8FFEE705484169002903D062
:1058E000006B18B1002070470120704702207047FC
:1058F000440000200148C0687047000044000020B8
:105900002DE9F04100262F4F386B002805D0B869EB
:10591000401CB8613046BDE8F081FD686D1CFD603B
:105920009DB9786B006838B1502080F31188BFF3BF
:105930004F8FBFF36F8FFEE7786BB96B7963B863F6
:10594000386A401C3862FFF7ABF8B86ADFF8788035
:1059500085420DD3786B006838B1786BC068C46835
:105960006068854212D2B86202E04FF0FF30B86240
:105970003868C06A00EB800058F82000012800D980
:105980000126F8690028C5D00126C3E7201DFFF7CE
:10599000D1F9A06A18B104F11800FFF7CBF9E06A59
:1059A0003969884200D9386100EB800008EB80003B
:1059B000211DFFF70FFAE06A3968C96A8842C9D326
:1059C0000126C7E744000020940D002070B504466E
:1059D0000020002C2BD01A4D29688C4207D0502073
:1059E00080F31188BFF34F8FBFF36F8FFEE7216DF8
:1059F000F1B1491E2165E36CE26A9A4217D0002991
:105A000015D1201DFFF796F9E06CE062C0F1380077
:105A1000A061E06A2969884200D92861094900EB40
:105A2000800001EB8000211DFFF7D4F9012070BD3B
:105A3000502080F31188BFF34F8FBFF36F8FFEE7C5
:105A400044000020940D002070B5C068C468002C8C
:105A500014D004F118000646FFF76CF9154D2A6BB7
:105A6000A2B131461448FFF7B5F9E06A2968C96A5E
:105A700088421CD901200121E96170BD502080F3CA
:105A80001188BFF34F8FBFF36F8FFEE7201DFFF725
:105A900051F9E06A2969884200D92861074900EB79
:105AA000800001EB8000211DFFF794F9DDE7002065
:105AB00070BD0000440000201C120020940D002046
:105AC0002DE9F041002400272B4D286B002807D03A
:105AD000FFF78CF9286B401E2863286B40B146E025
