:020000040800F2
:10000000806A00202903000805620008C158000822
:1000100011610008D9070008F5B1000800000000D0
:10002000000000000000000000000000690200085D
:100030002B13000800000000C502000865A5000899
:100040004303000843030008430300084303000878
:100050004303000843030008430300084303000868
:10006000430300084303000843030008811100080C
:10007000430300089111000843030008A111000880
:10008000B1110008C1110008430300084303000830
:100090002508000843030008430300084303000841
:1000A0004303000843030008430300084303000818
:1000B0004303000843030008F1A6000843030008B7
:1000C00043030008430300084303000843030008F8
:1000D000499F000809B00008A1B0000843030008C8
:1000E00043030008430300084303000843030008D8
:1000F000430300084303000843030008D11100082C
:10010000430300084303000801A700084303000855
:1001100071A80008C1A800084303000843030008B1
:1001200043030008E1110008F1110008430300082F
:100130004303000843030008430300084303000887
:100140007D08000843030008430300084303000838
:10015000430300080112000811120008A5B10008AD
:100160004303000843030008430300084303000857
:100170004303000843030008430300080000000095
:10018000430300084303000800F002F800F05CF8A5
:100190000AA090E8000C82448344AAF10107DA45E2
:1001A00001D100F051F8AFF2090EBAE80F0013F0D8
:1001B000010F18BFFB1A43F001031847181901007B
:1001C000381901000A444FF0000C10F8013B13F0FD
:1001D000070408BF10F8014B1D1108BF10F8015BA0
:1001E000641E05D010F8016B641E01F8016BF9D193
:1001F00013F0080F1EBF10F8014BAD1C0C1B09D1EA
:100200006D1E58BF01F801CBFAD505E014F8016B5B
:1002100001F8016B6D1EF9D59142D6D370470000ED
:100220000023002400250026103A28BF78C1FBD8FF
:10023000520728BF30C148BF0B6070471FB511F08F
:1002400070F91FBD10B510BD00F0E4F91146FFF7BD
:10025000F5FF0DF089FB00F002FA03B4FFF7F2FF9F
:1002600003BC00F005FA00002C4B19680868B0E8E0
:10027000F04F80F30988BFF36F8F4FF0000080F3D9
:10028000118870470000000008480068006880F38B
:1002900008884FF0000080F3148862B661B6BFF39F
:1002A0004F8FBFF36F8F00DF00BF00BF08ED00E08E
:1002B000DFF80C00016841F470010160704700BF75
:1002C00088ED00E0EFF30980BFF36F8F134B1A68DE
:1002D0001EF0100F08BF20ED108A20E9F04F1060CB
:1002E00009B44FF0500080F31188BFF34F8FBFF374
:1002F0006F8F0FF087FB4FF0000080F3118809BC6F
:1003000019680868B0E8F04F1EF0100F08BFB0EC95
:10031000108A80F30988BFF36F8F70473C0000207C
:10032000EFF30580704700000948804709480047FF
:10033000FEE7FEE7FEE7FEE7FEE7FEE7FEE7FEE795
:10034000FEE7FEE704480549054A064B70470000F2
:1003500031A600088901000880640020806A00201E
:10036000806600208066002053EA020C00F069805D
:100370002DE9F04B4FF00006002B1FBFB3FA83F5B9
:1003800003FA05F424FA05F65E4012BF1643B2FAEA
:1003900082F502FA05F4C5F120051EBF22FA05FC1C
:1003A00044EA0C04203556EA044C4FEA144418BFC2
:1003B000641C4FF000084FF00009904271EB030CF1
:1003C00039D3002919BFB1FA81F701FA07F6B0FA5B
:1003D00080F700FA07F6C7F120071EBF20FA07FCD6
:1003E00046EA0C062037B6FBF4FCA7EB0507103FE6
:1003F00007F01F0BCBF120060CFA0BFB2CFA06F6CC
:1004000044BFB3460026202FA4BF5E464FF0000B2A
:100410005BEA060C08BF4FF0010B19EB0B09ABFBB5
:10042000027C48EB0608C01B06FB02CC0BFB03CC8E
:1004300071EB0C01C1E70B46024641464846BDE858
:10044000F08B13B54FF000004FF00001AFF30080C8
:10045000BDE81C407047032A40F2308010F0030CC6
:1004600000F0158011F8013BBCF1020F624498BF07
:1004700011F801CB00F8013B38BF11F8013BA2F1A4
:10048000040298BF00F801CB38BF00F8013B11F01F
:10049000030300F02580083AC0F0088051F8043BBF
:1004A000083A51F804CBA0E80810F5E7121D5CBF2C
:1004B00051F8043B40F8043BAFF30080D20724BF5F
:1004C00011F8013B11F801CB48BF11F8012B24BFF3
:1004D00000F8013B00F801CB48BF00F8012B704742
:1004E00010B5203AC0F00B80B1E81850203AA0E8CF
:1004F0001850B1E81850A0E81850BFF4F5AF5FEA03
:10050000027C24BFB1E81850A0E8185044BF18C9B5
:1005100018C0BDE810405FEA827C24BF51F8043B5C
:1005200040F8043B08BF7047D20728BF31F8023BB0
:1005300048BF11F8012B28BF20F8023B48BF00F844
:10054000012B704702F0FF0343EA032242EA024212
:1005500000F002B84FF000020429C0F0128010F041
:10056000030C00F01B80CCF1040CBCF1020F18BF8F
:1005700000F8012BA8BF20F8022BA1EB0C0100F022
:100580000DB85FEAC17C24BF00F8012B00F8012BF5
:1005900048BF00F8012B70474FF0000200B513462A
:1005A00094469646203922BFA0E80C50A0E80C5093
:1005B000B1F12001BFF4F7AF090728BFA0E80C5044
:1005C00048BF0CC05DF804EB890028BF40F8042B3D
:1005D00008BF704748BF20F8022B11F0804F18BFAA
:1005E00000F8012B704770477047704710B500F056
:1005F00009F8006810BD10B5044600F003F8046067
:1006000010BD00000048704720640020004870477B
:10061000206400207546FFF7F9FFAE4605006946E5
:10062000534620F00700854618B020B5FFF78AFE34
:10063000BDE820404FF000064FF000074FF00008E3
:100640004FF0000B21F00701AC46ACE8C009ACE864
:10065000C009ACE8C009ACE8C0098D46704710B5C8
:100660000446AFF300802046BDE81040FFF7F5BD1B
:1006700001491820ABBEFEE726000200704710B506
:10068000026842600160D0E90023D21A82604269A8
:1006900002EBD2748368B3EB640F04DD43698268B4
:1006A000D21A82600BE0426902EBD2735B105B42AC
:1006B0008468A34203DD436982681A448260D0E9FA
:1006C00002321A44C26010BD10B52DED048B3548BE
:1006D00090ED080A344880ED000A324890ED1B0A7C
:1006E000324880ED000A304890ED000ADFED300A14
:1006F00030EEC00A2F4880ED000A2C4890ED000A29
:10070000DFED2D0A30EEC00A2C4880ED000A2948A2
:10071000D0ED000A294890ED000A0BF051F8DFED0A
:10072000280A80EE201A9FED270A31EE400A26485B
:1007300080ED000A19E0244890ED000AB5EEC00AE9
:10074000F1EE10FA08DB90ED000ADFED200A30EE42
:10075000600A80ED000A08E01B4890ED000ADFED1A
:100760001B0A30EE200A80ED000A1748006810F0DE
:1007700067FE41EC190BB0EE490AF0EE690A0BF086
:1007800083FAB0EE408AF0EE608A9FED110B53ECD5
:10079000102B51EC180B10F05BFCCCD9BDEC048B8A
:1007A00010BD000058020020A8060020AC06002062
:1007B0000000C842A006002000002F45A40600202B
:1007C00035FA8E3C0000B442540600200000B443C9
:1007D000000000000080664000BFFEE710B58AB050
:1007E00004460020059006900120079047F6FE7011
:1007F0000090002001900290039004900E20099038
:10080000012008906946064801F052FF044802F0B2
:10081000F2FC0221024801F035FF0AB010BD0000D1
:100820008407002010B5024802F09FF810BD0000B8
:100830008407002010B58AB004460E2005900020E1
:1008400006900120079047F6FE700090002001906E
:100850000290039004901C200990012008906946A2
:10086000054801F025FF044802F0C5FC02210248BA
:1008700001F008FF0AB010BDAC07002010B5024817
:1008800002F073F810BD0000AC07002010B502465E
:100890000020936803F08063B3F1806F00D110E013
:1008A000936803F00063B3F1006F01D1012008E009
:1008B000936803F08053B3F1805F01D1022000E020
:1008C000042004287ED002F5C07303EB00131B68DC
:1008D00003F0010402F5C07303EB00131C600B7AF4
:1008E0007BB94B7A0C8843EA445302F5C07404EB9D
:1008F00000142468234302F5C07404EB0014236041
:1009000010E00B7A4C6843EAC4034C7A234302F5A7
:10091000C07404EB00142468234302F5C07404EB94
:10092000001423608B7A03F00F038B7202F5C073FF
:1009300003EB00135B6823F00F0402F5C07303EBB5
:1009400000135C6002F5C07303EB00135B688C7AE4
:10095000234302F5C07404EB0014636002F5C07316
:1009600003EB00135B6823F4807402F5C07303EBA0
:1009700000135C608B7B1C064B7B44EA03440B7BBF
:1009800044EA0323CC7A234302F5C07404EB001439
:10099000A3608B7C1C064B7C44EA03440B7C44EA3A
:1009A0000323CC7B234302F5C07404EB0014E36003
:1009B00002F5C07303EB00131B6843F0010402F55A
:1009C000C07300E002E003EB00131C6010BD0000E8
:1009D0002DE9F0472DED0C8B8046894614461D46C7
:1009E000149EDDED159A169F9DED17AAB3EE0E0A23
:1009F000F0EE40AAB8F81200A0F6CC0000EE100A03
:100A0000B8EEC00AB0EE409A204610F0D3F941EC9F
:100A10001B0B19EE100A10F013FD41EC1D0BB0EE8C
:100A20004D0AF0EE6D0A0BF02FF9B0EE40CAF0EE71
:100A300060CA53EC1B2B51EC1C0B10F0CFF905D204
:100A40009FED820A824880ED020A30E0B5EEC09A3E
:100A5000F1EE10FA13DD00EE104AB8EE400A79EE1E
:100A6000400A00EE105AB8EEC00A20EE800ADFED10
:100A7000790A80EE201A764880ED021A17E0B5EE6A
:100A8000C09AF1EE10FA12D200EE104AB8EE400A07
:100A900079EE000A00EE105AB8EEC00A20EE800A85
:100AA000DFED6D0A80EE201A694880ED021AB8F871
:100AB0001400A0F2AC7000EE100AB8EEC08A304606
:100AC00010F078F941EC1B0B18EE100A10F0B8FC8E
:100AD00041EC1D0BB0EE4D0AF0EE6D0A0BF0D4F8B0
:100AE000B0EE40CAF0EE60CA53EC1B2B51EC1C0B6D
:100AF00010F074F905D29FED550A584880ED020AAE
:100B00002CE0B5EEC08AF1EE10FA11DD00EE106AAD
:100B1000B8EE400A38EE400AF8EEE90A20EE200A64
:100B2000DFED4F0A80EE201A4C4880ED021A15E0E6
:100B3000B5EEC08AF1EE10FA10D200EE106AB8EEEF
:100B4000400A38EE000AF8EEE90A20EE200ADFED4E
:100B5000450A80EE201A414880ED021AB8F81600C6
:100B6000A0F5076000EE100AF8EEC08A384610F0D3
:100B700021F941EC1B0B18EE900A10F061FC41ECDE
:100B80001D0BB0EE4D0AF0EE6D0A0BF07DF8B0EEE5
:100B900040CAF0EE60CA53EC1B2B51EC1C0B10F05A
:100BA0001DF905D29FED290A2F4880ED020A2CE09D
:100BB000F5EEC08AF1EE10FA11DD00EE107AB8EE13
:100BC000400A38EEC00AF8EECA0A20EE200ADFED2D
:100BD000270A80EE201A244880ED021A15E0F5EE6F
:100BE000C08AF1EE10FA10D200EE107AB8EE400A88
:100BF00038EE800AF8EECA0A20EE200ADFED1C0A61
:100C000080EE201A184880ED021A114804F07EFF89
:100C1000124804F07BFF144804F078FF0C4890ED74
:100C2000010A89ED010A0D4890ED010AB1EE400A72
:100C300089ED020A0C4890ED010AB1EE400A89EDF7
:100C4000030ABDEC0C8BBDE8F0870000000000003B
:100C5000B40600200060E64400600145C80600209C
:100C600000D004450080ED44DC0600200060F14423
:100C70000080FC4491F83425654B1B789A421FDDB7
:100C800001F2E442624B1B7802EB830292ED000A10
:100C9000604AD2ED000AB4EEE00AF1EE10FA0FD885
:100CA0005B4A1278521C5A4B1A700023C0F80C3160
:100CB0009FED590A80ED0B0A9FED570A80ED1E0A41
:100CC00091F83525554B1B789A421BDD01F20C52E9
:100CD000524B1B7802EB830292ED000A504AD2ED90
:100CE000000AB4EEE00AF1EE10FA0BD84B4A127883
:100CF000521C4A4B1A700023C0F814319FED460A6B
:100D000080ED310A91F83425414B1B789A427DD110
:100D1000444A12784AB1434A1278012A76D191F8AE
:100D200035253E4B1B789A4270D13A4A92ED000A23
:100D3000DFED3D0AB4EEE00AF1EE10FA51D2344A8A
:100D40001278521E02EB420201EBC20292ED000A3F
:100D50002F4A1278521E02EB420301F1F00202EB1D
:100D6000C302D2ED000A30EE200A80ED070A284ABD
:100D70001278521E02EB420201EBC20292ED010A0E
:100D8000234A1278521E02EB420301F1F00202EBF9
:100D9000C302D2ED010A30EE200A80ED1A0A1F4A82
:100DA0001278521E01F5707303EB820292ED000A75
:100DB0001A4A1278521E283303EB8202D2ED000A3F
:100DC00030EE200A80ED2D0A9FED130A80ED400AD7
:100DD0009FED110A80ED410A9FED0F0A80ED420A56
:100DE00014E000220A4B1A700C4B1A700023C0F852
:100DF0000C31C0F81431C0F8103101220B4B1A70BD
:100E000002220B4B1A7001220A4B1A707047000025
:100E10005106002024060020000000005206002099
:100E20002806002050060020CDCCCC3D8E030020AB
:100E3000580200208F030020F0EE401AF4EEE01A72
:100E4000F1EE10FA02D2B0EE600A7047F4EEC11A69
:100E5000F1EE10FA02DDB0EE410AF6E7B0EE610AFB
:100E6000F3E7000088B000BF104880781049C870D0
:100E70000E4801790E4801710C4801780C48417107
:100E80000A300C494A6802608A684260C968816019
:100E90001C22074901A8FFF7DEFA1C2201A9064817
:100EA00004F04AFC01200EF0CDFCDDE774030020C5
:100EB0009B030020F85E00200409002070B52DED92
:100EC0000C8B05460C46B0EE408A284600F0A8F888
:100ED000204600F0A5F8B0EE480A0AF02DFED5ED48
:100EE000000A60EE208AB0EE480A0BF065FDD5EDF1
:100EF000010A40EE808AC4ED008AB0EE480A0BF089
:100F00005BFDD5ED000AF1EE600A60EE208AB0EEDE
:100F1000480A0AF011FED5ED010A40EE808AC4EDC0
:100F2000018A94ED000A10EE101A084610F088FAB3
:100F300041EC1D0B9FED1F1BB0EE4D0AF0EE6D0A4C
:100F40000AF0AEFEB0EE40BAF0EE60BA94ED000AE0
:100F500010EE101A084610F073FA41EC1D0B9FEDCD
:100F6000151BB0EE4D0AF0EE6D0A0AF099FEB0EED8
:100F700040CAF0EE60CA53EC1B2B51EC1C0B0FF077
:100F800083FC41EC1A0BB0EE4A0AF0EE6A0A0BF051
:100F9000DBFDB0EE409AF0EE609A51EC190B0FF0C9
:100FA00041FCE06095ED020A84ED020ABDEC0C8B79
:100FB00070BD0000000000000000004000BFDFED39
:100FC000150AB4EEE00AF1EE10FA06DBDFED120AC4
:100FD00070EE600AB0EE600A0CE0DFED100AB4EECD
:100FE000E00AF1EE10FA05D2DFED0B0A70EE200AEE
:100FF000B0EE600ADFED070AB4EEE00AF1EE10FA97
:10100000DDDADFED060AB4EEE00AF1EE10FAD6D32F
:1010100070470000DB0F4940DB0FC940DB0F49C0C0
:1010200010B52DED088B0446207D012820D1D4ED8C
:10103000040A9FED4D1A60EE810AB0EE600A0AF0D4
:101040007BFDD4ED030A20EE200A84ED000AD4EDE6
:10105000040A9FED451A60EE810AB0EE600A0BF0BB
:10106000ABFCD4ED030A20EE200A84ED010A78E0FF
:10107000207D002875D194ED011AF0EE410A94ED1F
:10108000001AB0EE410A01F04BFA84ED030A94ED28
:10109000010A10EE101A084610F0D2F941EC190BB3
:1010A000B0EE490AF0EE690A0AF0EEFDB0EE408AB1
:1010B000F0EE608A9FED2D0B53EC102B51EC180BCA
:1010C0000FF08CFE20D294ED000A10EE101A0846A4
:1010D00010F0B6F941EC190BB0EE490AF0EE690ACE
:1010E0000AF0D2FDB0EE408AF0EE608A9FED1F0B51
:1010F00053EC102B51EC180B0FF070FE04D29FED47
:101100001D0A84ED040A2CE094ED000A10EE101A7A
:10111000084610F095F941EC1A0B94ED010A10EE17
:10112000101A084610F08CF941EC1B0BB0EE4A1A6D
:10113000F0EE6A1AB0EE4B0AF0EE6B0A0AF040FAD3
:10114000B0EE409AF0EE609A9FED0B0B53EC102B33
:1011500051EC190B0FF054FC41EC180B0FF062FB33
:101160002061BDEC088B10BD35FA8E3CF168E38838
:10117000B5F8E43E00000000000000A046DF913F0B
:1011800010B5024802F0D8F810BD00009C0A0020FB
:1011900010B5024802F0D0F810BD0000DC090020B4
:1011A00010B5024802F0C8F810BD00003C0A00204B
:1011B00010B5024802F0C0F810BD00001C0C002061
:1011C00010B5024802F0B8F810BD00007C0C0020F9
:1011D00010B5024802F0B0F810BD0000FC0A002073
:1011E00010B5024802F0A8F810BD0000DC0C002089
:1011F00010B5024802F0A0F810BD00005C0B002002
:1012000010B5024802F098F810BD00003C0D002017
:1012100010B5024802F090F810BD0000BC0B002091
:101220000146087810381823B0FBF3F20848805CB8
:10123000C865032A05D908686FF30900001D886591
:1012400003E008686FF309008865886D7047000047
:101250006C170108014600208A6A8B69CBB932B14C
:10126000012A0DD0022A03D0032A10D10EE000BFBC
:10127000CB6A03F08073B3F1807F00D1012007E0D7
:10128000CB6AB3F1C07F00D1012001E000E000BFD4
:1012900034E08B69B3F5005F1AD132B1012A07D06F
:1012A000022A03D0032A11D10AE000BF01200EE078
:1012B000CB6A03F08073B3F1807F00D1012006E098
:1012C000CB6AB3F1C07F00D1012000E000BF15E080
:1012D00032B1012A05D0022A04D0032A0CD103E03E
:1012E00000BF00BF012008E0CB6A03F08073B3F1B8
:1012F000807F00D1012000E000BF00BF704730B503
:101300000468246824F4802405682C600468636001
:101310008468402C04D10468A2600468E16003E0A2
:101320000468A1600468E26030BD704710B52DED1F
:10133000048BDB48007808287ED2DFE800F0041B2D
:10134000A7FDFCFBFAF99FEDD70AD74880ED000A0C
:101350009FEDD60AD64880ED000AD648006840F0D6
:101360000100D4490860084608F0C2FE0120CC49BB
:10137000087091E1D048007830B902F0D1FACF4935
:1013800008600120CC49087002F0CAFACB4909680C
:10139000401AB0F5966F5BD2C94890ED0A0ADFEDAE
:1013A000C10A30EE600A10EE101A084610F048F834
:1013B00041EC190BB0EE490AF0EE690A0AF064FC40
:1013C000B0EE408AF0EE608A9FEDBE0B53EC102B1E
:1013D00051EC180B0FF002FD57D2BC4890ED0A0AF1
:1013E000DFEDB20A30EE600A10EE101A084610F077
:1013F00027F841EC190BB0EE490AF0EE690A0AF041
:1014000043FCB0EE408AF0EE608A9FEDAE0B53ECE9
:10141000102B51EC180B0FF0E1FC36D202F080FAE1
:10142000A6490968401AB0F5967F2ED9A1480068F0
:1014300020F001009F4900E02DE10860084608F017
:1014400057FE02209649087000209B4908701CE056
:101450009848006820F0010096490860084608F0A6
:1014600047FE9FED9B0A904880ED000A9FED980A89
:101470008F4880ED000A4FF496700EF0E3F90620D5
:101480008749087000208C49087005E18C4890ED70
:101490000A0ADFED840A30EE600A10EE101A0846E0
:1014A0000FF0CEFF41EC190BB0EE490AF0EE690ADD
:1014B0000AF0EAFBB0EE408AF0EE608A9FED850B01
:1014C00053EC102B51EC180B0FF0C2FD20D37F48CA
:1014D00090ED0A0ADFED750A30EE600A10EE101A80
:1014E00008460FF0ADFF41EC190BB0EE490AF0EEE3
:1014F000690A0AF0C9FBB0EE408AF0EE608A9FEDFF
:10150000750B53EC102B51EC180B0FF0A1FD15D2FD
:1015100032200EF097F99FED710A634880ED000AC2
:101520009FED6F0A624880ED000A03205C4904E0E9
:10153000B0E098E096E048E001E00870ACE0604878
:1015400090ED0A0ADFED650A30EE600A10EE101A1F
:1015500008460FF075FF41EC190BB0EE490AF0EEAA
:10156000690A0AF091FBB0EE408AF0EE608A9FEDC6
:101570005D0B53EC102B51EC180B0FF02FFC23D20A
:10158000524890ED0A0ADFED560A30EE600A10EE7E
:10159000101A08460FF054FF41EC190BB0EE490A3F
:1015A000F0EE690A0AF070FBB0EE408AF0EE608A55
:1015B0009FED4C0B53EC102B51EC180B0FF00EFC65
:1015C00002D204203649087066E03B48007830B902
:1015D00002F0A6F93949086001203749087002F085
:1015E0009FF936490968401AB0F5966F20D23F48F6
:1015F0000078012835D178200EF024F92D480068B4
:1016000040F001002B490860084608F071FD9FED8D
:10161000380A254880ED000A9FED350A244880ED00
:10162000000A05201E49087000202349087018E0B0
:101630002048006840F001001E490860084608F094
:1016400057FD9FED2B0A184880ED000A9FED280AF0
:10165000174880ED000A072011490870002016493C
:10166000087019E018E01348006840F001001149C3
:101670000860084608F03CFD9FED1D0A0A4880ED11
:10168000000A9FED1B0A0A4880ED000A0720044962
:10169000087001E000E000BF00BFBDEC048B10BD8E
:1016A000C604002000C0DAC5D80500200060D1C5FE
:1016B000DC050020F80600207C07002080070020C1
:1016C000C80400200000000000C072400405002093
:1016D0000000FAC3000000000000794000007A45D5
:1016E00000806D450000000000408F40E6050020AE
:1016F0000000000010B517480078052827D2DFE861
:1017000000F003040E1B250022E00020124908709F
:1017100000211248817102200E49087018E0FFF77D
:1017200005FE0D480078052805D100200C490870F9
:101730000320084908700BE004F0C4F8084800785A
:10174000032802D104200349087001E000E000BF33
:1017500000BF10BDE3050020C60400209B0300204D
:10176000E205002010B5FE48007800287ED0FD4834
:10177000007814287BD2DFE810F014008400F20017
:101780006001CE015902C70225035F039903D30309
:101790002E046804A504DF04190553058D05C7054B
:1017A0000106F1480078012803D0EF4800780028AE
:1017B00066D1FFF7BBFDED48007805280ED1EC4857
:1017C000007858B94FF4FA700EF03CF80020E74961
:1017D0000870E7480078401CE5490870E348007845
:1017E000072811D1E248007870B90720DD49087058
:1017F0000020DE490870DF490870DF490870DC48C6
:101800000078401CDA490870D848007805281ED1B5
:10181000D748007801281AD19FEDD80AD84880ED22
:10182000000A9FEDD60A80ED010A9FEDD60A80EDF1
:10183000020A012008F070FB64200EF003F801207A
:10184000C84908700020C9490870C9490870C748CC
:101850000078072814D1C6480078012810D1082044
:10186000C04908700020C149087001E0FEE3FEE3B2
:10187000C04908700120C04908700020BC490870A8
:1018800041E2B9480078012803D0B7480078002821
:1018900064D1FFF74BFDB548007805280ED1B44858
:1018A000007858B94FF4FA700DF0CCFF0020AF4922
:1018B0000870AF480078401CAD490870AB4800780C
:1018C000072812D1AA48007878B90920A5490870DC
:1018D0000020A6490870A74908700120A649087091
:1018E000A3480078401CA2490870A0480078052849
:1018F0001ED19F48007801281AD19FEDA00AA04868
:1019000080ED000A9FEDA00A80ED010A9FED9D0A7F
:1019100080ED020A012008F0FFFA64200DF092FF2A
:101920000220904908700020904908709049087082
:101930008E480078072811D18D48007801280DD1F4
:101940000A20884908700020884908708949087071
:1019500002208949087000208549087090E7824874
:101960000078012803D080480078002864D1FFF770
:10197000DDFC7E48007805280ED17D48007858B9F6
:101980004FF4FA700DF05EFF002078490870784837
:101990000078401C7649087074480078072812D1F6
:1019A0007348007878B90B206E49087000206F49A1
:1019B00008707049087002206F4908706C48007800
:1019C000401C6B4908706948007805281ED168489A
:1019D000007801281AD19FED6D0A694880ED000A50
:1019E0009FED690A80ED010A9FED660A80ED020A0B
:1019F000012008F091FA64200DF024FF03205949DA
:101A000008700020594908705949087057480078F3
:101A1000072811D15648007801280DD10C205149D2
:101A2000087000205149087052490870032052493B
:101A3000087000204E49087022E74B4800780128C2
:101A400003D049480078002864D1FFF76FFC47486D
:101A5000007805280ED14648007858B94FF4FA703E
:101A60000DF0F0FE00204149087041480078401C0C
:101A70003F4908703D480078072812D13C4800785B
:101A800078B90D2037490870002038490870394965
:101A9000087003203849087035480078401C3449E4
:101AA00008703248007805281ED131480078012896
:101AB0001AD19FED370A324880ED000A9FED320AB5
:101AC00080ED010A9FED2F0A80ED020A012008F047
:101AD00023FA64200DF0B6FE04202249087000208D
:101AE000224908702249087020480078072811D13F
:101AF0001F48007801280DD10E201A4908700020D7
:101B00001A4908701B49087004201B4908700020FE
:101B100017490870B4E614480078012803D0124829
:101B2000007800287ED1FFF701FC104800780528D6
:101B30000ED10F48007858B94FF4FA700DF082FEBC
:101B400000200A4908700A480078401C08490870BB
:101B50000648007807282DD10548007850BB19E0C9
:101B6000F5050020E00500208E030020C6040020BB
:101B7000BD000020BE000020E105002000002F4431
:101B8000E45D00200000000000001645000096C43F
:101B900000C041C50F20FE4908700020FD490870B3
:101BA000FD4908700420FD490870FD480078401C7C
:101BB000FB490870F748007805281ED1F8480078DE
:101BC00001281AD19FEDF70AF74880ED000A9FED32
:101BD000F70A80ED010A1FED150A80ED020A0120C7
:101BE00008F09AF964200DF02DFE0520E8490870F0
:101BF0000020E8490870EA490870E648007807289C
:101C000013D1E748007801280FD11020E04908706F
:101C10000020E0490870E04908700520DF4908709D
:101C2000002000E001E0DE49087029E6E048007885
:101C3000012803D0DE480078002864D1FFF776FB46
:101C4000D448007805280ED1D548007858B94FF40B
:101C5000FA700DF0F7FD0020CE490870D0480078EA
:101C6000401CCF490870CB480078072812D1CC48D7
:101C7000007878B91120C64908700020C54908705D
:101C8000C54908700520C5490870C5480078401C42
:101C9000C3490870BF48007805281ED1C0480078A5
:101CA00001281AD19FEDC30ABF4880ED000A9FEDBD
:101CB000C20A80ED010A1FED4D0A80ED020A0120E3
:101CC00008F02AF964200DF0BDFD0620B049087027
:101CD0000020B0490870B2490870AE480078072863
:101CE00011D1AF48007801280DD11220A849087001
:101CF0000020A8490870A84908700620A749087064
:101D00000020A749087093E3A9480078012802D071
:101D1000A7480078E8BBFFF709FB9E480078052834
:101D20000ED19F48007858B94FF4FA700DF08AFD33
:101D30000020984908709A480078401C984908701B
:101D400094480078072812D19548007878B9132074
:101D50008F49087000208F4908708F49087006204D
:101D60008E4908708E480078401C8D49087089485B
:101D70000078052803D087480078072821D18848B3
:101D8000007801281DD11FED810A874880ED000AE7
:101D900000E016E01FED850A80ED010A1FED870ABD
:101DA00080ED020A012008F0B7F864200DF04AFD2A
:101DB0000020824908707649087076490870784991
:101DC000087035E37448007890B99FED7D0A764835
:101DD00080ED000A1FED950A80ED010A1FED970ABC
:101DE00080ED020A012008F097F801206A49087086
:101DF0006F48007801281ED16748007801281AD161
:101E000070480078012816D164200DF01BFD1FEDED
:101E1000A30A654880ED000A1FEDA60A80ED010ABD
:101E20001FEDA80A80ED020A012008F075F85B4852
:101E3000007857490870FBE25748007890B99FED49
:101E4000600A594880ED000A1FEDB20A80ED010AD0
:101E50001FEDB40A80ED020A012008F05DF80120B0
:101E60004D4908705248007801281ED14A48007830
:101E700001281AD153480078012816D164200DF0AA
:101E8000E1FC1FEDC20A484880ED000A1FEDC50ABB
:101E900080ED010A1FEDC50A80ED020A012008F05D
:101EA0003BF83E4800783A490870C1E23A48007869
:101EB00090B99FED450A3C4880ED000A1FEDD10A1C
:101EC00080ED010A1FEDD10A80ED020A012008F021
:101ED00023F80120304908703548007801281ED1C8
:101EE0002D48007801281AD136480078012816D1EB
:101EF00064200DF0A7FC1FEDDF0A2B4880ED000ADF
:101F00001FEDE20A80ED010A1FEDE20A80ED020AF0
:101F1000012008F001F8214800781D49087087E287
:101F20001D48007890B99FED280A1F4880ED000AEF
:101F30001FEDEE0A80ED010A1FEDEE0A80ED020AA8
:101F4000012007F0E9FF01201349087018480078C4
:101F500001283FD11048007801283BD1194800786A
:101F6000012837D164200DF06DFC1FEDFC0A0E48EE
:101F700080ED000A1FEDFC0A80ED010A9FED130AB7
:101F800080ED020A012007F0C7FF044800781FE037
:101F9000E0050020C6040020BE000020E10500206E
:101FA000BD000020000048C5E45D00200000FA43A9
:101FB0008E03002000401CC500004843F5050020AA
:101FC0000000AF44E6050020000096440000000039
:101FD000FE4908702CE2FE48007890B91FED060A11
:101FE000FC4880ED000A9FEDFC0A80ED010A1FED20
:101FF000090A80ED020A012007F08EFF0120F44952
:102000000870F648007801281ED1F14800780128B0
:102010001AD1F3480078012816D164200DF012FC83
:102020009FEDF00AEB4880ED000A9FEDEB0A80ED92
:10203000010A1FED1A0A80ED020A012007F06CFF69
:10204000E9480078E1490870F2E1E1480078A8B970
:102050001FED230ADF4880ED000A9FEDDF0A80EDC7
:10206000010A1FED260A80ED020A01E0E1E1DEE14E
:10207000012007F051FF0120D5490870D7480078AA
:1020800001281ED1D248007801281AD1D4480078FE
:10209000012816D164200DF0D5FB9FEDD40ACD4860
:1020A00080ED000A9FEDCC0A80ED010A1FED390A90
:1020B00080ED020A012007F02FFFCB480078C349CA
:1020C0000870B5E1C248007890B99FEDC80AC148D0
:1020D00080ED000A9FEDC60A80ED010A1FED450A5A
:1020E00080ED020A012007F017FF0120B8490870AF
:1020F000BA48007801281ED1B548007801281AD1C5
:10210000B7480078012816D164200DF09BFB9FEDA5
:10211000B70AB04880ED000A9FEDAF0A80ED010AD2
:102120001FED560A80ED020A012007F0F5FEAE48C9
:102130000078A64908707BE1A548007890B99FED2A
:10214000AB0AA44880ED000A9FEDA90A80ED010AC0
:102150001FED620A80ED020A012007F0DDFE01207A
:102160009B4908709D48007801281ED19848007846
:1021700001281AD19A480078012816D164200DF060
:1021800061FB9FED9C0A934880ED000A9FED920A47
:1021900080ED010A1FED730A80ED020A012007F0AD
:1021A000BBFE914800788949087041E18848007871
:1021B00090B99FED910A874880ED000A9FED860A4D
:1021C00080ED010A1FED7F0A80ED020A012007F071
:1021D000A3FE01207E4908708048007801281ED1A6
:1021E0007B48007801281AD17D480078012816D153
:1021F00064200DF027FB9FED7F0A764880ED000AF2
:102200009FED750A80ED010A1FED900A80ED020A2C
:10221000012007F081FE744800786C49087007E1DE
:102220006B48007890B99FED740A6A4880ED000A07
:102230009FED690A80ED010A1FED9C0A80ED020AFC
:10224000012007F069FE01206149087063480078A9
:1022500001281ED15E48007801281AD16048007814
:10226000012816D164200DF0EDFA1FEDB20A59488D
:1022700080ED000A1FEDB30A80ED010A1FEDAD0AE3
:1022800080ED020A012007F047FE574800784F49C9
:102290000870CDE04E48007890B99FED580A4D483F
:1022A00080ED000A1FEDBF0A80ED010A1FEDB90A9B
:1022B00080ED020A012007F02FFE0120444908703A
:1022C0004648007801281ED14148007801281AD1DB
:1022D00043480078012816D164200DF0B3FA1FEDB1
:1022E000CF0A3C4880ED000A1FEDD00A80ED010ABC
:1022F0001FEDCA0A80ED020A012007F00DFE3A48E0
:1023000000783249087093E03148007890B99FED29
:102310003B0A304880ED000A1FEDDC0A80ED010A1F
:102320001FEDD60A80ED020A012007F0F5FD01201D
:10233000274908702948007801281ED124480078D0
:1023400001281AD126480078012816D164200DF002
:1023500079FA1FEDE80A1F4880ED000A9FED280A70
:1023600080ED010A1FEDE70A80ED020A012007F067
:10237000D3FD1D4800781549087059E014480078CD
:1023800090B99FED1E0A134880ED000A9FED1C0ACC
:1023900080ED010A1FEDF30A80ED020A012007F02B
:1023A000BBFD01200A4908700C48007801283DD186
:1023B00007480078012839D109480078012835D12B
:1023C00064200DF03FFA9FED0F0A1DE0E0050020AC
:1023D000BE000020E45D0020000016458E030020B2
:1023E000E605002000002F44E1050020000096C40F
:1023F0000040354500C041C5000061C500C073C53F
:10240000000048C300401CC50A4880ED000A1FEDCB
:10241000040A80ED010A9FED080A80ED020A0120FE
:1024200007F07AFD054800780549087000E000BF14
:1024300000BF10BDE45D002000000000E1050020A9
:10244000E005002072B600BFFEE7F0EE400AF5EEB0
:10245000C00AF1EE10FA02D2B1EE600A7047B0EE97
:10246000600AFBE700BF00F005F801200DF0EAF973
:10247000F9E7000010B524480078062837D2DFE8D5
:1024800000F003040E18222C31E000201F490870D0
:102490001F4908701F4908701F49087027E0002075
:1024A0001E4908701A4908701A4908701A490870BC
:1024B0001DE000201949087014490870154908707A
:1024C0001549087013E00020144908700F4908707E
:1024D0000F4908701049087009E000200F49087082
:1024E0000A4908700A4908700A49087000BF00BF0D
:1024F00007F044F903F0D0FD08F0A8FEFFF732F929
:1025000007F00AFE10BD0000F6050020F2050020CD
:10251000F3050020F4050020F5050020F10500205A
:1025200010B52DED0C8BB0EE408AF0EE608A18EEFF
:10253000900A0EF085FF41EC1D0B9FED1C1BB0EEC9
:102540004D0AF0EE6D0A09F0ABFBB0EE40BAF0EECA
:1025500060BA18EE100A0EF073FF41EC1D0B9FEDF0
:10256000131BB0EE4D0AF0EE6D0A09F099FBB0EEC8
:1025700040CAF0EE60CA53EC1B2B51EC1C0B0EF062
:1025800083F941EC1A0BB0EE4A0AF0EE6A0A0AF03F
:10259000DBFAB0EE409AF0EE609A51EC190B0EF0B7
:1025A00041F900EE100ABDEC0C8B10BD00000000DC
:1025B0000000004008B50A6800929DED000A08BDC1
:1025C0004A780B7842EA032200EE102AB8EEC00ADD
:1025D00080ED070A90ED070A704730B503464FF6C5
:1025E000FF728C7804F080043CB114048D7844EAC6
:1025F0000524CD7844EA050003E0CC788D7844EAE0
:10260000052000EE100AB8EEC00A30BD08B54A68D1
:1026100000929DED000A08BD00BF15480088002803
:1026200012DD1449144A1288881811490A8813497E
:10263000FDF711FF104800880D49098808440E492C
:10264000088000200A4908800B48008800280ADD1D
:102650000948008801B207480AF0BAFF0848408FCD
:10266000401C0749488702200DF0ECF8D5E7000030
:10267000F00600201F620020F20600201F600020EC
:10268000CE57002010B5024692F82030012B01D021
:10269000022B06D11068406908431468606100206D
:1026A00010BD506A40F4802050620120F8E700001D
:1026B000F0B504460A46216894F82050012D01D057
:1026C000022D7ED1424901F50071086840F00100F9
:1026D0000860086820F47C5008600868566A40EA80
:1026E00006200860107D00F01F06012000FA06F3A6
:1026F000C8699843C861A1F50071D069C8B9D1F81B
:102700000C029843C1F80C02908880B2968940EA86
:10271000064601F51070576940F83760108880B29E
:10272000168940EA064601F51070576900EBC700AC
:102730004660D069012819D1D1F80C021843C1F8BC
:102740000C02908880B2168840EA064601F51070A7
:10275000576940F83760908980B2168940EA06468A
:1027600001F51070576900EBC7004660906928B901
:10277000D1F804029843C1F8040204E0D1F804023D
:102780001843C1F80402106928B9D1F8140298431B
:10279000C1F8140204E0D1F814021843C1F814027D
:1027A000106A012804D1D1F81C021843C1F81C0298
:1027B000D1F8000220F00100C1F800020020F0BDB5
:1027C000FFE7606A40F4802060620120F7E70000C4
:1027D00000640040704770B5044694F82050012D05
:1027E00001D0022D7DD151B92068C06800F00300EE
:1027F00080B9606A40F400106062012070BD2068FA
:10280000006900F0030028B9606A40F400106062BB
:102810000120F3E7206800F5D87000EB0110006894
:1028200000F004009060906840B9206800F5D8700E
:1028300000EB01100068400D106007E0206800F513
:10284000D87000EB01100068C0085060206800F5E7
:10285000D87000EB0110006800F00200D060206822
:1028600000F5D87000EB0110406800F00F00082858
:1028700002D30820106108E0206800F5D87000EB52
:102880000110406800F00F001061206800F5D8705A
:1028900000EB0110406800F47F40000A906120685E
:1028A00000F5D87000EB01104068000C5061206802
:1028B00000F5D87000EB011080681870206800F5F2
:1028C000D87000EB0110806800F47F40000A587057
:1028D000206800F5D87000EB0110806800F47F00DC
:1028E00000E03CE0000C9870206800F5D87000EB28
:1028F00001108068000ED870206800F5D87000EBD9
:102900000110C0681871206800F5D87000EB011044
:10291000C06800F47F40000A5871206800F5D87044
:1029200000EB0110C06800F47F00000C9871206873
:1029300000F5D87000EB0110C068000ED87131B9F5
:102940002068C06840F020002668F06005E020683C
:10295000006940F020002668306100204EE7606A80
:1029600040F480206062012048E72DE9F05F0446D2
:102970000025206846692068D0F8049020688768A0
:102980002068D0F80CA02068D0F810B02068D0F8EB
:10299000188006F00100002855D007F00100C0B1F2
:1029A00001202168886007F0020018B1204600F07D
:1029B00052FC0EE007F0040010B145F4006508E099
:1029C00007F0080010B145F4805502E0204600F001
:1029D00041FC07F48070C8B14FF4807021688860B2
:1029E00007F4007018B1204600F037FC0EE007F441
:1029F000806010B145F4005508E007F4006010B1A4
:102A000045F4804502E0204600F026FC07F48030C3
:102A1000C8B14FF480302168886007F4003018B1E5
:102A2000204600F01CFC0EE007F4802010B145F4B5
:102A3000004508E007F4002010B145F4803502E0BD
:102A4000204600F00BFC06F0080038B10AF0100038
:102A500020B145F4007510202168C86006F004001C
:102A600040B10AF0080028B108202168C86020465B
:102A700000F00CFA06F0020038B12068C06800F0DF
:102A8000030010B1204600F003FA06F0400038B110
:102A90000BF0100020B145F480651020216808611A
:102AA00006F0200040B10BF0080028B10820216892
:102AB0000861204600F09CFB06F0100038B1206849
:102AC000006900F0030010B1204600F092FB06F40C
:102AD000003040B109F0100028B110202168486092
:102AE000204600F087FB06F4803040B109F0080072
:102AF00028B1082021684860204600F0B1FB06F4A8
:102B0000004088B309F0040078B306F4807020B167
:102B100008F0010008B145F0010506F4007020B18D
:102B200008F0020008B145F0020506F4806020B10B
:102B300008F0040008B145F0040506F40060A0B1F7
:102B400008F0700088B108F07000402817D006DC4B
:102B500010280BD020280CD0302819D10CE0502898
:102B600010D0602814D110E01DE019E045F00805F0
:102B70000FE045F010050CE045F0200509E045F0B8
:102B8000400506E045F0800503E045F4807500E06F
:102B900000BF00BF2068806920F070002168886154
:102BA0000420216848602DB1606A28436062204695
:102BB000FFF710FEBDE8F09F70B504460CB9012088
:102BC00070BD94F8200010B9204600F0AFF82068DE
:102BD000006840F001002168086000F0A1FE054691
:102BE0000DE000F09DFE401B0A2808D9606A40F401
:102BF00000306062052084F820000120E0E72068B2
:102C0000406800F001000028EBD02068006820F048
:102C100002002168086000F083FE05460DE000F028
:102C20007FFE401B0A2808D9606A40F400306062C9
:102C3000052084F820000120C2E72068406800F0E9
:102C400002000028EBD1207E012806D12068006810
:102C500040F080002168086005E02068006820F0EE
:102C6000800021680860607E012806D12068006825
:102C700040F040002168086005E02068006820F00E
:102C8000400021680860A07E012806D12068006805
:102C900040F020002168086005E02068006820F00E
:102CA000200021680860E07E012806D120680068C5
:102CB00020F010002168086005E02068006840F0FE
:102CC000100021680860207F012806D12068006874
:102CD00040F008002168086005E02068006820F0E6
:102CE000080021680860607F012806D1206800681C
:102CF00040F004002168086005E02068006820F0CA
:102D0000040021680860D4E90201084321690843EE
:102D1000616908436168491E08432168C861002051
:102D20006062012084F82000002049E710B586B0D9
:102D30000446142101A8FDF72FFC4F492068884262
:102D400042D14E480068401C4C4908600846006863
:102D500001280FD100BF002000904948006840F0D2
:102D60000070474908600846006800F00070009055
:102D700000BF00BF00BF002000904148103800682D
:102D800040F002003E49103908600846006800F033
:102D90000200009000BF00BF4FF44070019002207D
:102DA000029001200390032004900920059001A9BE
:102DB000344800F0B5FC00220521142000F078FE14
:102DC000142000F061FE54E02F492068884250D161
:102DD00000BF002000902A48006840F08060284929
:102DE00008600846006800F08060009000BF00BFE7
:102DF00022480068401C21490860084600680128F4
:102E00000FD100BF002000901D48006840F0007006
:102E10001B4908600846006800F00070009000BF81
:102E200000BF00BF0020009015481038006840F037
:102E300002001349103908600846006800F00200DB
:102E4000009000BF00BF602001900220029001208E
:102E50000390032004900920059001A9094800F07F
:102E60005FFC00220521402000F022FE402000F0FF
:102E70000BFE06B010BD00000064004028000020DA
:102E800040380240000402400068004070470000E3
:102E900010B588B00446BD49206888427DD1BC4841
:102EA0000089401CBA490881BA4B01AA002120467A
:102EB000FFF791FC0198A0F2012030B101281DD04C
:102EC000022834D0032865D14AE0B24901A8FFF7AF
:102ED00071FBB14880ED090AAE4901A8FFF796FBE6
:102EE000AD4880ED0A0A90ED0A0AAC4880ED010A6F
:102EF000A748C089401CA649C8814CE0A54901A843
:102F0000FFF758FBA64880ED090AA24901A8FFF780
:102F10007DFBA34880ED0A0A90ED0A0A9F4880EDE8
:102F2000140A9B48408A401C9949488233E09949D9
:102F300001A8FFF73FFB9B4880ED090A954901A8CE
:102F4000FFF764FB974880ED0A0A90ED0A0A934860
:102F500080ED3A0A8E48C08A401C8D49C8821AE02A
:102F60008C4901A8FFF726FB8F4880ED090A8949A3
:102F700001A8FFF74BFB8C4880ED0A0A90ED0A0A86
:102F8000864880ED270A8248408B401C8049488350
:102F900001E002E000BF00BF00BF84492068884212
:102FA0007DD17B484089401C81B279484181804B6A
:102FB00001AA00212046FFF70EFC40F202220198F0
:102FC000811A90423CD006DC202869D0A0F2012072
:102FD00000286FD105E00E296ED0B1F5AA7FF8D197
:102FE0005FE073497348FFF7EBFA724880ED070A18
:102FF0006F4901A8FFF7F1FA6E4880ED080A90EDDD
:10300000070ABCEEC00A10EE101AFDF738FB69483B
:1030100090ED030AB8EEC00ADFED670A80EE201AD1
:103020009FED660A21EE000A80ED090A90ED080A7C
:1030300080ED0A0A5648C08B401C5549C883A1E060
:103040005B495F48FFF7BCFA5D4880ED070A5849C5
:1030500001A8FFF7C2FA5A4880ED080A90ED070A66
:10306000BCEEC00A10EE101AFDF709FB544890EDB3
:10307000030AB8EEC00ADFED500A80EE201A9FED79
:103080004F0A21EE000A80ED090A90ED080A80ED52
:103090000A0A3F48408C401C3D49488472E073E076
:1030A00049E0484842490968016047484049496841
:1030B000016067E065E0FFE710223D494348FDF706
:1030C000CAF942480088424908804048408841493E
:1030D00008803E488088404908803C48C0883F4975
:1030E00008803D48008800EE100AB8EE400A3C48CF
:1030F00080ED000A3748008800EE100AB8EE400A5A
:10310000374880ED010A3248008800EE100AB8EE18
:10311000400A334880ED020A0846008800EE100A93
:10312000B8EE400A2E4880ED030A1948C08C401CB6
:103130001749C88426E02B481D494978017000785A
:1031400000F0010018B101202749087007E0254868
:10315000007800F0010010B90020234908702148D0
:10316000007800F0020018B101202049087007E043
:103170001C48007800F0020010B900201B490870BC
:1031800000E000BF00BF00BF08B010BD00640040F9
:10319000CE570020BF000020D403002024010020CF
:1031A0004C04002088040020100400200068004027
:1031B000C7000020C8040020000000460000B443FF
:1031C00004050020D0000020D4000020C4570020B7
:1031D000DA000020DC000020D8000020DE00002003
:1031E0008058002000070020E5050020E6050020AB
:1031F00070477047704770B5044694F82000012866
:1032000022D1022084F820002068006820F001000C
:103210002168086000F084FB05460DE000F080FBAB
:10322000401B0A2808D9606A40F40030606205201B
:1032300084F82000012070BD2068406800F0010083
:103240000028EBD16062F6E7606A40F4002060621B
:103250000120F0E77047704770477047704770472C
:10326000704770B50446A56D00F05AFB064694F809
:103270003500022808D08020606500BF002084F857
:10328000340000BF012070BD2068006820F01600E7
:10329000216808602068406920F08000216848614A
:1032A000206C08B9A06C28B12068006820F00800E4
:1032B000216808602068006820F00100216808602B
:1032C00010E000F02DFB801B05280BD92020606545
:1032D000032084F8350000BF002084F8340000BFCC
:1032E0000320D0E72068006800F001000028E8D142
:1032F00094F85C103F208840A860012084F83500D5
:1033000000BF002084F8340000BF00BFBBE70146C7
:1033100091F83500022803D08020486501207047CD
:10332000052081F835000868006820F001000A686F
:1033300010600020F3E70000F8B50446002000907C
:103340008C4800684FF41651B0FBF1F7A56D2E685C
:1033500094F85C1008208840304098B120680068DC
:1033600000F0040070B12068006820F004002168BB
:10337000086094F85C1008208840A860606D40F0F8
:103380000100606594F85C1001208840304068B10D
:103390002068406900F0800040B194F85C10012082
:1033A0008840A860606D40F00200606594F85C1091
:1033B00004208840304068B12068006800F00200B6
:1033C00040B194F85C1004208840A860606D40F023
:1033D0000400606594F85C1010208840304078B399
:1033E0002068006800F0080050B394F85C101020CA
:1033F0008840A8602068006800F4802080B12068C0
:10340000006800F4002028B9206CC8B12046216C67
:10341000884715E0A06C98B12046A16C88470FE062
:103420002068006800F4807028B92068006820F0E7
:10343000080021680860206C10B12046216C884784
:1034400094F85C10202088403040002865D0206827
:10345000006800F0100000285FD094F85C10202075
:103460008840A86094F83500052828D120680068B5
:1034700020F01600216808602068406920F0800074
:1034800021684861206C08B9A06C28B120680068E8
:1034900020F008002168086094F85C103F20884004
:1034A000A860012084F8350000BF002084F83400B3
:1034B00000BF206D10B12046216D8847F8BD2068FF
:1034C000006800F4802080B12068006800F40020CB
:1034D00028B9606C10B12046616C88471DE0E06B34
:1034E000D8B12046E16B884717E02068006800F4F7
:1034F000807068B92068006820F0100021680860BA
:10350000012084F8350000BF002084F8340000BF9B
:10351000E06B10B12046E16B8847606D38B3606D99
:1035200000F00100F0B1052084F835002068006843
:1035300020F001002168086000BF0098401C009046
:10354000B84200D905E02068006800F001000028BA
:10355000F3D100BF012084F8350000BF002084F8BB
:10356000340000BFE06C10B12046E16C884700BF1A
:10357000A4E70000380000202DE9F04104460025B2
:1035800000F0CEF9074614B90120BDE8F081606A69
:1035900000B100BF022084F8350000BF002084F88D
:1035A000340000BF2068006820F001002168086036
:1035B0000AE000F0B5F9C01B052805D92020606598
:1035C000032084F83500E0E72068006800F001007F
:1035D0000028EED12068056821480540D4E90101A2
:1035E0000843E16808432169084361690843A16908
:1035F0000843E1690843216A08430543606A0428D7
:1036000003D1D4E90B010843054320680560206815
:10361000456925F00705606A0543606A04280DD1F5
:10362000A06A0543E06A48B12046FDF713FE28B1C1
:1036300040206065012084F83500A6E720684561D8
:103640002046FDF7EDFD064694F85C103F208840CB
:10365000B06000206065012084F83500002094E708
:103660003F8010F02DE9F04704460D4616461F46F0
:103670004FF00008D4F8589000BF94F834000128A7
:1036800002D10220BDE8F087012084F8340000BF99
:1036900094F83500012825D1022084F83500002057
:1036A00060653B46324629462046FDF728FE94F8E1
:1036B0005C103F208840C9F808002068006840F08E
:1036C000160021680860206C28B12068006840F06E
:1036D0000800216808602068006840F00100216847
:1036E000086006E000BF002084F8340000BF4FF0FF
:1036F00002084046C6E7000070B5044600F010F925
:1037000006462546681C10B104480078054400BFF1
:1037100000F006F9801BA842FAD370BD34000020E7
:10372000F8B502460B460025002400200021D6E013
:10373000012606FA01F51E6806EA0504AC4274D1BA
:103740001E7906F00306012E04D01E7906F003064A
:10375000022E13D190684F000326BE40B0434F00A5
:10376000DE68BE4030439060506801268E40B04312
:103770001E79C6F300168E40304350601E7906F065
:103780000306032E09D0D0684F000326BE40B04385
:103790004F009E68BE403043D0601E7906F003069D
:1037A000022E13D1CF0802F1200656F827004E074B
:1037B000F70E0F26BE40B0434F07FF0E1E69BE40F6
:1037C0003043CF0802F1200646F8270010684F006A
:1037D0000326BE40B0431E7906F003064F00BE40EC
:1037E000304310605E6806F44036002E76D000BF8D
:1037F000002600963C4E366846F480463A4F3E60BE
:103800003E46366806F48046009600BF00BF374E3D
:103810008F0856F827008E07370F0F26BE40B0439B
:10382000334EB24202D1002624E057E0314EB2427C
:1038300001D101261EE0304EB24201D1022619E02C
:103840002E4EB24201D1032614E02D4EB24201D1D8
:1038500004260FE02B4EB24201D105260AE02A4E83
:10386000B24201D1062605E0284EB24201D1072618
:1038700000E008268F073F0FBE4030431B4E8F08E5
:1038800046F82700224E3068A0435E6806F4801692
:1038900006B120431E4E3060361D3068A0435E687E
:1038A00006F4001606B12043194E361D3060184E3E
:1038B000361F3068A0435E6806F4003606B1204328
:1038C000134E361F3060361F3068A0435E6806F422
:1038D000803606B120430E4E083E3060491C102948
:1038E000FFF426AFF8BD000044380240083801401C
:1038F000000002400004024000080240000C0240A8
:10390000001002400014024000180240001C024057
:10391000083C01400AB1816101E00B0483617047FA
:1039200001480068704700002C0000200348006830
:103930000349097808440149086070472C000020B9
:103940003400002010B50D48006840F400700B49A9
:1039500008600846006840F4806008600846006817
:1039600040F480700860032000F0E0F80F2000F0C1
:1039700007F800F05FF8002010BD0000003C024096
:103980002DE9F04188B004460027B84600BF00206A
:1039900001902348006840F008002149086008466B
:1039A000006800F00800019000BF00BF02A903A852
:1039B00000F092F9069F1FB900F0B6F9054602E043
:1039C00000F0B2F945001748B5FBF0F0A0F101088E
:1039D00015481649086040F2E7311448C160C0F844
:1039E0000480002101618160816100F043FF06468F
:1039F00096B90E4800F096FF06466EB9322000F0E8
:103A000043F8102C07D200222146322000F050F853
:103A10000748046000E00126304608B0BDE8F081A8
:103A20004038024040420F00000C0040A80E002029
:103A30003000002008B500BF002000901148006849
:103A400040F480400F4908600846006800F4804058
:103A5000009000BF00BF00BF00200090081F00685A
:103A600040F08050091F08600846006800F0805050
:103A7000009000BF00BF00220F21901E00F018F838
:103A800008BD0000443802400146084600280DDB0E
:103A900000BF00BF00F01F0301229A4043099B00B2
:103AA00003F1E023C3F8002100BF00BF00BF70474F
:103AB0002DE9F05F80460D461646002707F0F2FB21
:103AC000074639462A46334601F00700C0F1070A87
:103AD000BAF1040F02D94FF0040A01E0C0F1070A5D
:103AE000D14600F1040ABAF1070F02D24FF0000AE2
:103AF00001E0A0F1030AD4464FF0010A0AFA09FADC
:103B0000AAF1010A0AEA020A0AFA0CFA4FF0010BBA
:103B10000BFA0CFBABF1010B0BEA030B4AEA0B04AB
:103B20002146404607F0C6FBBDE8F09F00BF00F00D
:103B30000702064B19684FF6FF031940044B0B436D
:103B400043EA0221014B196000BF70470CED00E011
:103B50000000FA0570B504460D460CB9012070BD91
:103B60005848006800F00700A84209D255490D7076
:103B70000846006800F00700A84201D00120EEE7E7
:103B8000207800F0020002281DD1207800F0040007
:103B9000042805D14C48006840F4E0504A490860C8
:103BA000207800F00800082805D14748006840F454
:103BB0006040454908604448006820F0F000A16872
:103BC000084341490860207800F00100A8B360680C
:103BD000012807D13C4808380068C0F34040B8B914
:103BE0000120BCE76068022802D06068032807D182
:103BF000354808380068C0F3406048B90120AEE796
:103C0000314808380068C0F3400008B90120A6E731
:103C10002D48006820F00300616808432A490860C5
:103C2000FFF77EFE064609E0FFF77AFE801B41F2B1
:103C30008831884202D9032091E707E022480068D2
:103C400000F00C006168B0EB810FEDD11D480068F9
:103C500000F00700A84209D91A490D70084600680B
:103C600000F00700A84201D0012078E7207800F09A
:103C70000400042807D11448006820F4E050E168EB
:103C8000084311490860207800F00800082808D18E
:103C90000D48006820F46040216940EAC1000A49EB
:103CA000086000F061F808490968C1F30311074A88
:103CB000515CC8400649086006480068FFF760FE8E
:103CC00000204CE7003C024008380240741701080D
:103CD00038000020300000200F2202600D4A1268D8
:103CE00002F0030242600B4A126802F0F0028260A6
:103CF000084A126802F4E052C260064A126802F4EE
:103D00006042D2080261044A126802F007020A60A7
:103D10007047000008380240003C0240014800683B
:103D2000704700003800002000B5FFF7F7FF044996
:103D30000968C1F38221034A515CC84000BD0000FC
:103D4000083802408417010800B5FFF7E7FF04496F
:103D50000968C1F34231034A515CC84000BD00000C
:103D600008380240841701082DE9F0470024002597
:103D70000026A1462548006800F00C0020B1042868
:103D800005D008283AD105E0DFF8849039E0DFF863
:103D9000849036E01D48001F006800F03F041B4877
:103DA000001F006800F4800078B11A481749091F05
:103DB0000968C1F38811A0FB017001462246002367
:103DC0003846FCF7D1FA05460EE011480F49091FA5
:103DD0000968C1F38811A0FB017001462246002347
:103DE0003846FCF7C1FA05460848001F0068C0F3D2
:103DF0000140401C4600B5FBF6F902E0DFF81090E8
:103E000000BF00BF4846BDE8F08700000838024008
:103E10000024F40000127A00F8B504460CB9012021
:103E2000F8BD207800F00100002874D0F94800683F
:103E300000F00C0004280DD0F648006800F00C00DB
:103E4000082813D1F348001F006800F48000B0F583
:103E5000800F0BD1EF4808380068C0F340400028BD
:103E600059D06068002856D10120D9E700BF6068AA
:103E7000B0F5803F08D1E7480838006840F480304A
:103E8000E449083908601EE06068B0F5A02F0DD144
:103E9000E0480838006840F48020DE4908390860AE
:103EA0000846006840F4803008600CE0D9480838C3
:103EB000006820F48030D749083908600846006857
:103EC00020F48020086000BF606890B1FFF728FDF3
:103ED000054606E0FFF724FD401B642801D90320B6
:103EE0009EE7CC4808380068C0F340400028F1D075
:103EF00011E0FFF715FD054606E0FFF711FD401B39
:103F0000642801D903208BE7C24808380068C0F351
:103F100040400028F1D1207800F0020002285FD153
:103F2000BC48006800F00C0058B1BA48006800F0C6
:103F30000C0008281CD1B748001F006800F480005E
:103F4000B0B9B44808380068C0F3400020B1E06858
:103F5000012801D0012063E7AE480838006820F04E
:103F6000F800216940EAC100AA490839086037E031
:103F7000E06800B30120A8490860FFF7D1FC0546BE
:103F800006E0FFF7CDFC401B022801D9032047E7DC
:103F9000A04808380068C0F340000028F1D09D48D0
:103FA0000838006820F0F800216940EAC10099490A
:103FB0000839086014E0002097490860FFF7B0FC5A
:103FC000054606E0FFF7ACFC401B022801D90320A0
:103FD00026E7904808380068C0F340000028F1D177
:103FE000207800F0080008282CD16069A8B10120D1
:103FF0008A490860FFF794FC054606E0FFF790FC4D
:10400000401B022801D903200AE782486C3000686F
:10401000C0F340000028F1D014E000207F49086080
:10402000FFF77EFC054606E0FFF77AFC401B0228FE
:1040300001D90320F4E677486C300068C0F34000F3
:104040000028F1D1207800F00400042870D1002766
:1040500070483830006800F0805090B900BF0020F0
:1040600000906C483830006840F080506949383121
:1040700008600846006800F08050009000BF00BF54
:1040800001276748006800F48070B0B96448006890
:1040900040F4807062490860FFF742FC054606E084
:1040A000FFF73EFC401B022801D90320B8E65C481C
:1040B000006800F480700028F2D000BFA0680128DA
:1040C00008D154486830006840F001005149683117
:1040D00008601DE0A06805280DD14E4868300068D2
:1040E00040F004004B49683108600846006840F021
:1040F000010008600CE047486830006820F00100CB
:104100004449683108600846006820F004000860EF
:1041100000BFA068A8B1FFF703FC054609E0FFF760
:10412000FFFB401B41F28831884202D9032077E629
:1041300026E0384868300068C0F340000028EED020
:1041400013E0FFF7EDFB054608E0FFF7E9FB401B36
:1041500041F28831884201D9032061E62D48683058
:104160000068C0F340000028EFD1012F07D1294893
:104170003830006820F0805026493831086000BF90
:10418000A069002845D02348006800F00C000828EA
:104190005DD0A069022845D100201F490866FFF7BD
:1041A000BFFB054606E0FFF7BBFB401B022801D919
:1041B000032035E6174808380068C0F3406000283F
:1041C000F1D1D4E907010843616A40EA8111012273
:1041D000A06AC2EB500041EA00412C20005D41EA98
:1041E00000600C49091F086001200B490866FFF7B1
:1041F00097FB054606E0FFF793FB401B022801D919
:1042000003200DE6034808380068C0F3406000282A
:10421000F1D049E00838024000004742800E474292
:1042200000700040002021490866FFF779FB054631
:1042300006E0FFF775FB401B022801D90320EFE5DC
:104240001B480068C0F340600028F2D12CE0A06950
:10425000012800D1E4E51648001D0668A069012880
:1042600020D006F48001E06981421BD106F03F01B5
:10427000206A814216D147F6C0703040616AB0EBC7
:10428000811F0FD106F440310122A06AC2EB500019
:10429000B1EB004F06D106F070612C20005DB1EB50
:1042A000006F01D00120BBE50020B9E500004742C6
:1042B0000038024070470000F8B5044620684668A0
:1042C00020688568C5F3801048B905F0010030B159
:1042D000C6F3801018B12046216C8847F8BDC5F39D
:1042E000400030B1C6F3C01018B12046616C884759
:1042F000F4E7C5F3401030B9C5F3801018B9C5F321
:10430000002000287CD0C6F3401000287DD0C5F3E3
:104310008010F0B194F8510003280ED0606D40F089
:104320000400606500BF002000902068C068009015
:1043300020688068009000BF0BE000BF0020009064
:104340002068C068009020688068009000BF00BFAF
:10435000C4E7C5F3401088B1606D40F001006065AE
:1043600000BF0020009020688068009020680068EE
:1043700020F040002168086000BF00BFC5F30020A6
:1043800058B1606D40F00800606500BF00200090EB
:1043900020688068009000BF00BF606D78B320681F
:1043A000406820F0E00021684860012084F8510056
:1043B00006F00200022802D006F0010008B32068CF
:1043C000406820F0030021684860E06C50B110485C
:1043D000E16C0865E06CFEF79AFF18B1606D40F083
:1043E00040006065A06C50B10948A16C0865A06CE4
:1043F000FEF78DFF18B1606D40F04000606503E08E
:1044000003E02046FFF756FF68E700BF66E70000BD
:10441000599F000810B504460CB9012010BD606A10
:1044200038B96068B0F5827F00D105E00021E16114
:1044300002E00021216161610021A16294F8510034
:1044400028B9002084F85000204600F047F80220E8
:1044500084F851002068006820F04000216808605E
:10446000A08800F48270218901F404410843A189E5
:1044700001F400610843217C01F002010843217D21
:1044800001F001010843218B01F400710843217FF1
:1044900001F0380108432021095D01F08001084343
:1044A000218D01F400510843216808600421A069AE
:1044B00001EA104094F8241001F01001084321682B
:1044C00048602068C06920F400602168C86100204D
:1044D0006065012084F8510000209FE710B586B088
:1044E0000446142101A8FCF757F81F4920688842A8
:1044F00038D100BF002000901C48006840F4804084
:104500001A4908600846006800F48040009000BF27
:1045100000BF00BF0020009014481038006840F031
:1045200002001249103908600846006800F00200D5
:10453000009000BF00BF4FF4604001900220029045
:1045400000200390032004900520059001A908484D
:10455000FFF7E6F8002205212420FFF7A9FA24201E
:10456000FFF792FA06B010BD003800404038024014
:10457000000402402DE9FE4F04460F4690461D46BA
:104580000C9E01200190FFF7CBF9814694F851B0C1
:1045900060680290AA46BBF1010F0BD00298B0F5FB
:1045A000827F04D1A06810B9BBF1040F02D00220B1
:1045B000BDE8FE8F1FB1B8F1000F00D00DB901208A
:1045C000F6E700BF94F85000012801D10220EFE780
:1045D000012084F8500000BF94F85100042802D054
:1045E000052084F8510000206065C4F83880E58714
:1045F000A5872763E586A586206460642068006837
:1046000000F04000402805D02068006840F04000DD
:1046100021680860E068B0F5006F52D1606810B1A1
:10462000BAF1010F09D1206B00882168C860206BA6
:10463000801C2063E08E401EE0863BE0206880689E
:1046400000F00200022810D1E08E70B1019801281C
:104650000BD1206B00882168C860206B801C206310
:10466000E08E401EE086002001902068806800F007
:10467000010068B1E08F58B12068C068A16B088064
:10468000A06B801CA063E08F401EE087012001909A
:10469000FFF746F9A0EB0900B0420BD3701C48B1FC
:1046A000012084F8510000BF002084F8500000BFB2
:1046B00003207DE7E08E0028C0D1E08F0028BDD127
:1046C00052E0606810B1BAF1010F09D1206B007897
:1046D00021680873206B401C2063E08E401EE0863A
:1046E0003CE02068806800F00200022810D1E08ED3
:1046F00070B1019801280BD1206B007821680873F4
:10470000206B401C2063E08E401EE086002001905C
:104710002068806800F0010068B1E08F58B120681F
:10472000C068A16B0870A06B401CA063E08F401EA6
:10473000E08701200190FFF7F3F8A0EB0900B042F9
:1047400001D3701C00B94EB9012084F8510000BF9C
:10475000002084F8500000BF032029E7E08E0028E5
:10476000BFD1E08F0028BCD14A463146204605F033
:10477000FDFB40B12020606500BF002084F85000A0
:1047800000BF012014E7A06850B900BF00200090CE
:104790002068C068009020688068009000BF00BF5B
:1047A000012084F8510000BF002084F8500000BFB1
:1047B000606D08B10120FBE60020F9E67047704704
:1047C00030B502460B4600BF92F83C00012801D1EB
:1047D000022030BD012082F83C0000BF022082F898
:1047E0003D00106844681068816824F070041868FF
:1047F000044310684460184D1068A8421BD010682C
:10480000B0F1804F17D0154D1068A84213D0144D49
:104810001068A8420FD0134D1068A8420BD0124D5B
:104820001068A84207D0114D1068A84203D0104D5F
:104830001068A84205D121F0800158680143106832
:104840008160012082F83D0000BF002082F83C001A
:1048500000BF00BFBDE700000000014000040040B1
:1048600000080040000C00400004014000400140EE
:104870000018004010B504460CB9012010BD94F892
:104880003D0028B9002084F83C00204600F026F8BE
:10489000022084F83D00211D206805F039FF012029
:1048A00084F8460000BF84F83E0001213F200155F6
:1048B000402001554120015500BF00BF012084F870
:1048C000420043200155442001554520015500BFB9
:1048D000012084F83D000020D0E7000038B50446F0
:1048E0000E492068884217D100BF002000900C4874
:1048F000006840F004000A4908600846006800F0BB
:104900000400009000BF00BF002205211E20FFF719
:10491000CFF81E20FFF7B8F838BD000000080040AF
:1049200040380240014691F83D00012801D00120A5
:104930007047022081F83D000868C06840F001001F
:104940000B68D8601A4B086898421BD00868B0F111
:10495000804F17D0174B0868984213D0164B086841
:1049600098420FD0154B086898420BD0144B08683A
:10497000984207D0134B0868984203D0124B08683E
:1049800098420CD10868806800F00702062A0CD013
:104990000868006840F001000B68186005E00868CE
:1049A000006840F001000B6818600020C0E70000BC
:1049B000000001400004004000080040000C0040DE
:1049C0000004014000400140001800402DE9F04182
:1049D00004460D46002700BF94F83C00012802D190
:1049E0000220BDE8F081012084F83C0000BF0220D5
:1049F00084F83D002068866826F0770626F47F4616
:104A0000206886602868502833D00CDC202850D0DD
:104A100004DC00284BD0102851D149E0302849D07F
:104A200040284CD139E060282DD0702807D0B0F54F
:104A3000805F03D0B0F5005F41D10DE041E0D5E9E2
:104A400002136A68206805F0D7FE2068866846F081
:104A500077062068866034E0D5E902136A6820682A
:104A600005F0CAFE2068806840F4804021688860B4
:104A700027E0EA686968206805F0D2FE50212068C6
:104A800005F0C5FE1DE0EA686968206805F0DBFEF8
:104A90006021206805F0BBFE13E0EA6869682068C1
:104AA00005F0BEFE4021206805F0B1FE09E000BF20
:104AB00000BF00BF2968206805F0A9FE01E00127BA
:104AC00000BF00BF012084F83D0000BF002084F833
:104AD0003C0000BF384684E7704770B50446206844
:104AE000C5682068066906F00200022819D105F0A1
:104AF0000200022815D1401F21680861012020779B
:104B00002068806900F0030018B12046FFF7E4FF39
:104B100005E0204600F097F8204600F095F80020C8
:104B2000207706F00400042819D105F004000428B9
:104B300015D1C04321680861022020772068806970
:104B400000F4407018B12046FFF7C6FF05E020468C
:104B500000F079F8204600F077F80020207706F082
:104B60000800082819D105F00800082815D1C0430D
:104B700021680861042020772068C06900F00300E4
:104B800018B12046FFF7A8FF05E0204600F05BF8CB
:104B9000204600F059F80020207706F01000102879
:104BA00019D105F01000102815D1C0432168086103
:104BB000082020772068C06900F4407018B12046B2
:104BC000FFF78AFF05E0204600F03DF8204600F0A0
:104BD0003BF80020207706F0010048B105F0010005
:104BE00030B16FF0010021680861204600F02EF816
:104BF00006F08000802809D105F08000802805D1CA
:104C0000C043216808612046FFF7D8FD06F0400048
:104C1000402809D105F04000402805D1C043216853
:104C20000861204600F064F806F02000202809D131
:104C300005F02000202805D1C043216808612046E6
:104C4000FFF7BDFD70BD70477047000010B504460A
:104C500022492068884239D121480078072803D0AA
:104C60001F480078062812D11D48D0F80C01401CBE
:104C70001B49C1F80C010846D0F81401401CC1F8CA
:104C800014010846D0F81001401CC1F81001154865
:104C90000068401C1349086008460068B0F57A7F38
:104CA00014D11148408E10490886002048860846D5
:104CB00040880880002048800846B0F84200A1F8EB
:104CC00040000020A1F8420006490860074920681A
:104CD000884201D1FEF72AFE10BD00000008004006
:104CE0005802002000000020CE570020000C004099
:104CF0007047704708B5014691F8410021280ED150
:104D000000BF00BF0A68143252E8002F42F0800052
:104D10000A68143242E80003002BF3D100BF91F877
:104D20004200222839D100BF0020009008680068A6
:104D3000009008684068009000BF00BF086970B12B
:104D400000BF00BF0A680C3252E8002F42F48070A6
:104D50000A680C3242E80003002BF3D100BF00BF09
:104D600000BF0A68143252E8002F42F001000A68BE
:104D7000143242E80003002BF3D100BF00BF00BF94
:104D80000A68143252E8002F42F040000A681432D8
:104D900042E80003002BF3D100BF002008BD70B52E
:104DA0000446002520684069C0F3C01594F841000E
:104DB000212817D1B5B100BF00BF2168143151E8D7
:104DC000001F21F080002168143141E80002002A10
:104DD000F3D100BFA06B10B1A06BFEF742FA2046E2
:104DE00005F0D7FE20684069C0F3801594F84200B2
:104DF000222817D1B5B100BF00BF2168143151E896
:104E0000001F21F040002168143141E80002002A0F
:104E1000F3D100BFE06B10B1E06BFEF722FA204641
:104E200005F071FE002070BD704700002DE9F84FBD
:104E30000446206805682068C668206847694FF006
:104E40000009CA4605F00F09B9F1000F0AD105F0B3
:104E5000200038B106F0200020B1204605F0ACFE5D
:104E6000BDE8F88FB9F1000F7CD007F0010018B948
:104E700006F49070002875D005F0010030B106F4FA
:104E8000807018B1606C40F00100606405F00400AF
:104E900030B107F0010018B1606C40F002006064AE
:104EA00005F0020030B107F0010018B1606C40F06D
:104EB0000400606405F0080048B106F0200010B955
:104EC00007F0010018B1606C40F008006064606C8D
:104ED000002846D005F0200028B106F0200010B1CF
:104EE000204605F069FE20684069C0F3801A606CB6
:104EF00000F0080010B9BAF1000F2DD0204605F0DF
:104F000002FE2068406900F04000402820D100BF28
:104F100000BF2168143151E8001F21F040002168D2
:104F2000143141E80002002AF3D100BFE06B50B118
:104F30007748E16B0865E06BFEF7E9F988B1E06B53
:104F4000016D88470DE02046FFF76EFF09E009E09C
:104F50002046FFF769FF04E02046FFF765FF0020C9
:104F600060647DE7206B012878D105F010000028EF
:104F700074D006F010000028FAD000BF0020009086
:104F800020680068009020684068009000BF00BF63
:104F90002068406900F04000402860D1E06B006864
:104FA00040681FFA80F8B8F1000F56D0A08D404538
:104FB00053DDA4F82E80E06BC069B0F5807F43D04C
:104FC00000BF00BF21680C3151E8001F21F4807040
:104FD00021680C3141E80002002AF3D100BF00BF74
:104FE00000BF2168143151E8001F21F00100216841
:104FF000143141E80002002AF3D100BF00BF00BF16
:105000002168143151E8001F21F04000216814315B
:1050100041E80002002AF3D100BF202084F84200BA
:105020000020206300BF00BF21680C3151E8001F41
:1050300021F0100021680C3141E80002002AF3D170
:1050400000BFE06BFEF70DF902206063A08DE28DDA
:10505000801A81B22046FFF74CFE01E742E0A08DA6
:10506000E18D401A1FFA80F8E08DD0B3B8F1000F3F
:1050700037D000BF00BF21680C3151E8001F21F478
:10508000907021680C3141E80002002AF3D100BF82
:1050900000BF00BF2168143151E8001F21F001005A
:1050A0002168143141E80002002AF3D100BF20201A
:1050B00084F842000020206300BF00BF21680C314B
:1050C00051E8001F21F0100021680C3141E8000276
:1050D000002AF3D100BF0220606341462046FFF75B
:1050E00008FEBDE605F0800030B106F0800018B182
:1050F000204605F059FFB3E605F0400030B106F058
:10510000400018B1204605F034FDA9E600BFA7E62F
:1051100065A9000810B504460CB9012010BDA069AE
:1051200000B100E000BF94F8410028B9002084F8E5
:105130004000204600F02AF8242084F8410020682E
:10514000C06820F400502168C860204605F0B2FD18
:105150002068006920F49040216808612068406957
:1051600020F02A00216848612068C06840F400509F
:105170002168C86000206064202084F8410084F821
:1051800042000020606300BFC8E7000010B586B091
:105190000446142101A8FBF7FFF9FD492068884265
:1051A00075D100BF00200090FA48006840F400204C
:1051B000F84908600846006800F40020009000BF2D
:1051C00000BF00BF00200090F2481038006840F097
:1051D0000400F049103908600846006800F0040037
:1051E000009000BF00BF4FF4406001900220029089
:1051F00001200390032004900820059001A9E648AF
:10520000FEF78EFAE548E64908604005486000214F
:10521000E3488160C1604FF4806101610021416118
:105220008161C16101624162FEF7A6F908B1FDF733
:1052300009F900BFDA48E063846300BFD748303023
:10524000D84908604FF0006048604021D54881602F
:105250000021C1604FF480610161002141618161E1
:10526000C16101624162FEF787F908B1FDF7EAF812
:1052700000BFCC48A063846300BF00220521342016
:10528000FEF716FC3420FEF7FFFB2DE2FFE7C649D0
:10529000206888427ED100BF00200090BD48006891
:1052A00040F48010BB4908600846006800F4801094
:1052B000009000BF00BF00BF00200090B54810382C
:1052C000006840F00400B3491039086008460068DF
:1052D00000F00400009000BF00BF00BF002000905D
:1052E0000846006840F0080008600846006800F0C2
:1052F0000800009000BF00BF8814019002200290B7
:1053000001200390032004900820059001A9A248E1
:10531000FEF706FA0420019002200290012003907B
:10532000032004900820059001A9A048FEF7F8F991
:105330009A4830389E490860C005486000219C4862
:105340008160C1604FF48061016100214161816130
:10535000C16101624162FEF70FF908B1FDF772F811
:1053600000BF9348E063846300BF8C487830914964
:1053700008604FF00060486040218E488160002145
:10538000C1604FF480610161002141618161C161AF
:10539000016200E013E04162FEF7EEF808B1FDF7AC
:1053A00051F800BF8348A063846300BF0022052139
:1053B0003520FEF77DFB3520FEF766FB94E17E4944
:1053C0002068884278D100BF002000907148001DFD
:1053D000006840F010006F49091D08600846006829
:1053E00000F01000009000BF00BF00BF0020009040
:1053F00068481038006840F00100664910390860BC
:105400000846006800F00100009000BF00BF4FF4A4
:10541000C0600190022002900120039003200490BC
:105420000720059001A96548FEF77AF964486549A7
:1054300008604FF000604860002162488160C160F0
:105440004FF480610161002141618161C1610162AC
:105450004162FEF791F808B1FCF7F4FF00BF59482C
:10546000E063846300BF56487830574908604FF0C6
:10547000006048604021544881600021C1604FF4C1
:1054800080610161002141618161C161016241620C
:10549000FEF772F808B1FCF7D5FF00BF4A48A063D9
:1054A000846300BF002205212520FEF701FB252093
:1054B000FEF7EAFA18E1FFE744492068884266D11E
:1054C00000BF002000903348006840F400303149AC
:1054D00008600846006800F40030009000BF00BF7C
:1054E00000BF002000902B481038006840F00800F2
:1054F0002849103908600846006800F0080000904C
:1055000000BF00BF602001900220029001200390A4
:10551000032004900720059001A92448FEF700F914
:105520001E4848302A4908604FF00060486000215A
:1055300027488160C1604FF48061016100214161B1
:105540008161C16101624162FEF716F808B1FCF7A2
:1055500079FF00BF1E48E063846300BF0F486030DE
:105560001C4908604FF00060486040211948816084
:105570000021C1604FF480610161002141618161BE
:10558000C16101624162FDF7F7FF28B325E034E015
:10559000004C004040380240000802404060024099
:1055A000DC0900203C0A002000500040000C0240B2
:1055B0009C0A0020FC0A002000100140000002406C
:1055C000406402405C0B0020BC0B00200044004003
:1055D0001C0C00207C0C002001E0FCF733FF00BF16
:1055E0004248A063846300BF002205212620FEF705
:1055F0005FFA2620FEF748FA76E03D4920688842A7
:1056000072D100BF002000903A48006840F02000AE
:10561000384908600846006800F02000009000BF8C
:1056200000BF00BF0020009032481438006840F0EE
:1056300004003049143908600846006800F004008E
:10564000009000BF00BFC020019002200290012006
:105650000390032004900820059001A92648FEF736
:105660005FF82648264908608005486000212448E4
:105670008160C1604FF480610161002141618161FD
:10568000C16101624162FDF777FF08B1FCF7DAFE04
:1056900000BF1B48E063846300BF18487830194995
:1056A00008604FF02060486040211648816000216A
:1056B000C1604FF480610161002141618161C1617C
:1056C00001624162FDF758FF08B1FCF7BBFE00BF65
:1056D0000C48A063846300BF002205214720FEF729
:1056E000E7F94720FEF7D0F906B010BD7C0C00208A
:1056F000001401404438024000080240286402407F
:10570000DC0C00203C0D002070B504460D4616460A
:1057100094F8420020280BD105B10EB9012070BDCC
:105720000020206332462946204605F0D9FBF6E7E3
:105730000220F4E770477047F7B50446154694F821
:105740004100202836D1019800B10DB90120FEBDDD
:1057500001982062A584E58400206064212084F8FB
:1057600041001548A16BC8631448A16B0864144834
:10577000A16BC8640020A16B086501AE23681A1DE7
:1057800031682B46A06BFDF76DFF6FF0400021687C
:10579000086000BF00BF2168143151E8001F41F0CC
:1057A00080002168143141E80002002AF3D100BFD3
:1057B0000020CCE70220CAE7A1AA0008F9AA000845
:1057C00079A900087047704770B52DED0C8B044621
:1057D0000D462046FBF724FC2846FBF721FC94ED00
:1057E000040AD5ED040A9FED2F1A70EEC10A30EEBF
:1057F000600ADFED2D0A20EE200A10EE106A304616
:105800000BF01EFE41EC1D0BB0EE4D0AF0EE6D0AE2
:1058100006F02EF9B0EE40CAF0EE60CA94ED030A2D
:10582000B1EE400AF1EE080A20EE200A10EE101A3E
:1058300008460BF005FE41EC1B0B53EC1C2B0BF048
:1058400009FB41EC1A0B9FED190B53EC102B0BF0DD
:10585000D7F841EC190B0AF0E5FF08EE100A18EE34
:10586000100A0BF0EDFD41EC1A0BB0EE4A0AF0EE17
:105870006A0A06F009FAB0EE409AF0EE609A9FEDDF
:105880000D0B53EC102B51EC190B0BF0A7FA03D2B4
:105890009FED0A0AB0EE408AB0EE480ABDEC0C8BD0
:1058A00070BD00000000B44235FA8E3C00000000DC
:1058B00000C04F40F168E388B5F8E43E0000000006
:1058C00000BFFEE710B52DED048B7748007830B1AE
:1058D000012820D0022875D0032872D1DDE00121F3
:1058E000724881719FED720A724880ED000A9FED47
:1058F000700A714880ED000A7048006820F00200CC
:105900006E490860084604F0F3FB67480078401CC5
:1059100065490870C3E06A4890ED0A0ADFED640A41
:1059200030EE600A10EE101A08460BF089FD41ECCB
:10593000190BB0EE490AF0EE690A06F0A5F9B0EECF
:10594000408AF0EE608A9FED5F0B53EC102B51EC18
:10595000180B0BF043FA32D25C4890ED0A0ADFEDE7
:10596000540A30EE600A10EE101A08460BF068FD7B
:1059700041EC190BB0EE490AF0EE690A06F084F921
:10598000B0EE408AF0EE608A9FED4E0B53EC102B88
:1059900051EC180B0BF022FA11D24D48C0780128B7
:1059A0000DD14648006820F00100444908600846CF
:1059B00004F09EFB3C480078401C3B4908706EE0B8
:1059C00000E06BE03E4890ED0A0ADFED390A30EE68
:1059D000600A10EE101A08460BF032FD41EC190B6C
:1059E000B0EE490AF0EE690A06F04EF9B0EE408AD0
:1059F000F0EE608A9FED370B53EC102B51EC180B37
:105A00000BF026FB20D3314890ED0A0ADFED280A7F
:105A100030EE600A10EE101A08460BF011FD41EC52
:105A2000190BB0EE490AF0EE690A06F02DF9B0EE56
:105A3000408AF0EE608A9FED270B53EC102B51EC5F
:105A4000180B0BF005FB27D24FF4FA7009F0FAFEA1
:105A50009FED220A174880ED000A9FED200A1648A4
:105A600080ED000A1548006840F001001349086005
:105A7000084604F03DFB1148006840F002000F4961
:105A80000860084604F034FB02210848817106488A
:105A90000078401C0449087001E000E000BF00BF2E
:105AA000BDEC048B10BD0000E20500209B0300202C
:105AB00000007AC4D8050020DC050020F80600208C
:105AC000C804002000000000000069400405002018
:105AD000B70300200000000000C07240000000007A
