:020000040800F2
:1000000070680020290300081F420008FB3A00081E
:100010000D420008C9060008814E000800000000DB
:10002000000000000000000000000000690200085D
:100030008D0E000800000000C502000853460008AD
:100040004303000843030008430300084303000878
:100050004303000843030008430300084303000868
:100060004303000843030008430300082D0D000864
:1000700043030008390D000843030008450D00083C
:10008000510D00085D0D00084303000843030008FC
:100090000D0700084303000843030008430300085A
:1000A0004303000843030008430300084303000818
:1000B00043030008114700081D47000843030008D8
:1000C00043030008430300084303000843030008F8
:1000D000430300082D4D0008D54D000843030008D8
:1000E00043030008430300084303000843030008D8
:1000F000430300084303000843030008690D000898
:1001000043030008430300084303000843030008B7
:1001100069480008754800084303000843030008C5
:1001200043030008750D0008810D00084303000813
:100130004303000843030008430300084303000887
:100140005D07000843030008430300084303000859
:10015000430300088D0D0008990D0008754E000836
:100160004303000843030008430300084303000857
:100170004303000843030008430300080000000095
:10018000430300084303000800F002F800F05CF8A5
:100190000AA090E8000C82448344AAF10107DA45E2
:1001A00001D100F051F8AFF2090EBAE80F0013F0D8
:1001B000010F18BFFB1A43F001031847B881000074
:1001C000D88100000A444FF0000C10F8013B13F0F6
:1001D000070408BF10F8014B1D1108BF10F8015BA0
:1001E000641E05D010F8016B641E01F8016BF9D193
:1001F00013F0080F1EBF10F8014BAD1C0C1B09D1EA
:100200006D1E58BF01F801CBFAD505E014F8016B5B
:1002100001F8016B6D1EF9D59142D6D370470000ED
:100220000023002400250026103A28BF78C1FBD8FF
:10023000520728BF30C148BF0B6070471FB508F098
:1002400008F81FBD10B510BD00F0E4F91146FFF726
:10025000F5FF05F04BFC00F002FA03B4FFF7F2FFE4
:1002600003BC00F005FA00002C4B19680868B0E8E0
:10027000F04F80F30988BFF36F8F4FF0000080F3D9
:10028000118870470000000008480068006880F38B
:1002900008884FF0000080F3148862B661B6BFF39F
:1002A0004F8FBFF36F8F00DF00BF00BF08ED00E08E
:1002B000DFF80C00016841F470010160704700BF75
:1002C00088ED00E0EFF30980BFF36F8F134B1A68DE
:1002D0001EF0100F08BF20ED108A20E9F04F1060CB
:1002E00009B44FF0500080F31188BFF34F8FBFF374
:1002F0006F8F06F089FD4FF0000080F3118809BC74
:1003000019680868B0E8F04F1EF0100F08BFB0EC95
:10031000108A80F30988BFF36F8F70472400002094
:10032000EFF30580704700000948804709480047FF
:10033000FEE7FEE7FEE7FEE7FEE7FEE7FEE7FEE795
:10034000FEE7FEE704480549054A064B70470000F2
:1003500001470008890100087062002070680020D1
:10036000706400207064002053EA020C00F0698081
:100370002DE9F04B4FF00006002B1FBFB3FA83F5B9
:1003800003FA05F424FA05F65E4012BF1643B2FAEA
:1003900082F502FA05F4C5F120051EBF22FA05FC1C
:1003A00044EA0C04203556EA044C4FEA144418BFC2
:1003B000641C4FF000084FF00009904271EB030CF1
:1003C00039D3002919BFB1FA81F701FA07F6B0FA5B
:1003D00080F700FA07F6C7F120071EBF20FA07FCD6
:1003E00046EA0C062037B6FBF4FCA7EB0507103FE6
:1003F00007F01F0BCBF120060CFA0BFB2CFA06F6CC
:1004000044BFB3460026202FA4BF5E464FF0000B2A
:100410005BEA060C08BF4FF0010B19EB0B09ABFBB5
:10042000027C48EB0608C01B06FB02CC0BFB03CC8E
:1004300071EB0C01C1E70B46024641464846BDE858
:10044000F08B13B54FF000004FF00001AFF30080C8
:10045000BDE81C407047032A40F2308010F0030CC6
:1004600000F0158011F8013BBCF1020F624498BF07
:1004700011F801CB00F8013B38BF11F8013BA2F1A4
:10048000040298BF00F801CB38BF00F8013B11F01F
:10049000030300F08480083AC0F0088051F8043B60
:1004A000083A51F804CBA0E80810F5E7121D5CBF2C
:1004B00051F8043B40F8043BAFF30080D20724BF5F
:1004C00011F8013B11F801CB48BF11F8012B24BFF3
:1004D00000F8013B00F801CB48BF00F8012B704742
:1004E00002F0FF0343EA032242EA024200F002B8AC
:1004F0004FF000020429C0F0128010F0030C00F04D
:100500001B80CCF1040CBCF1020F18BF00F8012BCA
:10051000A8BF20F8022BA1EB0C0100F00DB85FEA98
:10052000C17C24BF00F8012B00F8012B48BF00F864
:10053000012B70474FF0000200B5134694469646D3
:10054000203922BFA0E80C50A0E80C50B1F12001E6
:10055000BFF4F7AF090728BFA0E80C5048BF0CC094
:100560005DF804EB890028BF40F8042B08BF7047F2
:1005700048BF20F8022B11F0804F18BF00F8012B64
:10058000704770477047704710B500F03BF800683F
:1005900010BD10B5044600F035F8046010BD10B56C
:1005A000203AC0F00B80B1E81850203AA0E818506B
:1005B000B1E81850A0E81850BFF4F5AF5FEA027C2C
:1005C00024BFB1E81850A0E8185044BF18C918C09B
:1005D000BDE810405FEA827C24BF51F8043B40F83C
:1005E000043B08BF7047D20728BF31F8023B48BF21
:1005F00011F8012B28BF20F8023B48BF00F8012B5F
:1006000070470000004870471062002000487047A3
:10061000106200207546FFF7F9FFAE4605006946F7
:10062000534620F00700854618B020B5FFF78AFE34
:10063000BDE820404FF000064FF000074FF00008E3
:100640004FF0000B21F00701AC46ACE8C009ACE864
:10065000C009ACE8C009ACE8C0098D46704710B5C8
:100660000446AFF300802046BDE81040FFF7F5BD1B
:1006700001491820ABBEFEE7260002007047026861
:100680004260BDEEC00A10EE101A0160891A816046
:100690004269534203EBD373B1EB630F02DA1144A7
:1006A000816006E002EBD273B1EB630F01DD891AC2
:1006B0008160D0E902211144C160017F012902D18A
:1006C0000021C16001777047FEE7000000B58BB0E4
:1006D0000020069007900121089147F6FE720192D2
:1006E00003900290049005900E200A90099101A9B0
:1006F000054800F04BFE044801F02FFB02210248A0
:1007000000F0C0FD0BB000BD080C0020014800F057
:100710004FBF0000080C002000B58BB00E200690E3
:10072000002007900121089147F6FE720192039084
:100730000290049005901C200A90099101A9064896
:1007400000F024FE044801F008FB0221024800F0FA
:1007500099FD0BB000BD0000300C0020014800F0F6
:1007600027BF0000300C00207CB5DDE90645160AE5
:100770008DF800608DF801201A0A8DF802208DF89E
:100780000330220A8DF804208DF805402A0A8DF8DE
:1007900006208DF8075008236A4600F001F87CBD5A
:1007A00030B587B0044615460191002102910391AE
:1007B0000491059301232A4601A9204600F074FD07
:1007C00000280DD002232A4601A9204600F06CFD26
:1007D000002805D004232A4601A9204600F064FD24
:1007E00007B030BD10B504462DED068B94ED000A20
:1007F000D4ED060A70EE608AC4ED028AD4ED03AA35
:1008000094ED040A2AEE808A20EE08AAD4ED010AAB
:1008100040EE208A18EE900A07F0AAFC41EC100B7B
:1008200004F06CFCB0EE409AB2EE000AF0EE609A72
:100830002AEE800A10EE100A07F09AFC53EC192BEE
:1008400007F0ACF928EE080A41EC190B10EE100A7B
:1008500007F08EFC53EC192B07F058F841EC100B05
:1008600004F01EFD51EC100B07F01EF80AEE900A82
:100870001AEE100A07F07CFC41EC190B18EE900AF6
:1008800007F076FC41EC100B04F038FC53EC192B0C
:1008900051EC100B07F080FA12D2B0EE680A03F0A8
:1008A000C7FE00EE100A7AEEC80AD4ED018AB8EE4F
:1008B000C00A20EE200AF6EE000A40EE208A07E089
:1008C00094ED040AC8EE800A94ED010A70EE808A65
:1008D00018EE100A07F04CFC41EC190B18EE900AC8
:1008E00007F046FC41EC100B04F008FC53EC192B0C
:1008F00051EC100B07F050FA0ED2B0EE680A03F07C
:1009000097FE00EE100AD4ED030AB8EEC00AF1EE2D
:10091000600A20EE200A07E094ED030AB1EE400AD7
:1009200060EE280A80EE880AD4ED001AD4ED050A9C
:1009300094ED011A40EE811AC4ED001A00EE801AFF
:1009400084ED011ABDEC068B10BD000010B52DED35
:10095000068B82B09FED688B9FED699BB7EE00AA76
:10096000DFED69AA694C04F18800D4ED230A94ED07
:10097000220A03F04FFDD4ED010A94ED000A20464F
:1009800003F048FDD4ED120A94ED110A04F144007D
:1009900003F040FDD4ED340A94ED330A04F1CC00A9
:1009A00003F038FDD4F89C0007F0E2FB41EC100B9B
:1009B00004F0A4FB53EC182B51EC100B07F0B2F829
:1009C0000ED9D4F8880007F0D3FB41EC100B04F0EB
:1009D00095FB53EC192B51EC100B07F0A3F803D245
:1009E00084ED27AAC4ED22AA606907F0C1FB41EC9F
:1009F000100B04F083FB53EC182B51EC100B07F099
:100A000091F80DD9206807F0B3FB41EC100B04F00E
:100A100075FB53EC192B51EC100B07F083F803D244
:100A200084ED05AAC4ED00AAA06D07F0A1FB41EC7E
:100A3000100B04F063FB53EC182B51EC100B07F078
:100A400071F80DD9606C07F093FB41EC100B04F0CA
:100A500055FB53EC192B51EC100B07F063F803D244
:100A600084ED16AAC4ED11AAD4F8E00007F080FBCB
:100A700041EC100B04F042FB53EC182B51EC100B23
:100A800007F050F80ED9D4F8CC0007F071FB41EC18
:100A9000100B04F033FB53EC192B51EC100B07F047
:100AA00041F803D284ED38AAC4ED33AA94ED380A94
:100AB000BDEEC00A10EE100A00B2009094ED160AC6
:100AC000BDEEC00A10EE100A94ED050A03B2BDEEA9
:100AD000C00A10EE100A94ED270A02B2BDEEC00A59
:100AE00010EE100A01B24FF4007005F089F802B060
:100AF000BDEC068B10BD0000000000000000F03FC0
:100B0000000000000000084000000000B8000020C5
:100B1000B4EEE00AF1EE10FA02D2B0EE600A7047CD
:100B2000B4EEC10AF1EE10FAF9DDB0EE410A7047F9
:100B3000DFED0C0A0C480D4910EE102A824202DB50
:100B400030EE600A05E010EE102A8A4201D930EE3C
:100B5000200A10EE102A8242EEDA10EE102A8A42A3
:100B6000EAD87047DB0FC940DB0F4940DB0F49C0B3
:100B700070B53A4CDFED3A0A94ED0A0AB5EEC00AB8
:100B8000F1EE10FA02DBC4ED0A0A08E010EE100ADA
:100B90003449884203D39FED340A84ED0A0A94ED68
:100BA0000B0A324910EE100A884204DB9FED300A2E
:100BB00084ED0B0A06E0B5EEC00AF1EE10FA01D89A
:100BC000C4ED0B0A2B4D94ED0A0A85ED060A284662
:100BD000FFF708FE284E94ED0B0A86ED060A304614
:100BE000FFF700FE254C95ED000A84ED250A94EDF3
:100BF0002D0A84ED0D0A94ED0A0A84ED260A94ED7F
:100C00000B0A84ED0E0A1E4D96ED000A85ED250AAD
:100C100095ED2D0A85ED0D0A95ED0A0A85ED260A5A
:100C200095ED0B0A85ED0E0A04F1940003F002FB2A
:100C300004F1340003F0FEFA05F1940003F0FAFA2F
:100C400005F1340003F0F6FA94ED150A84ED0C0A70
:100C500095ED150A85ED0C0A70BD0000D80B00203B
:100C600000000000004024C5004024C50040244589
:100C700000402445240A0020400A00201C080020CF
:100C8000200900201CB51F4C1F492078002804D0E3
:100C9000012807D002280ED109E09FED1C0A81ED42
:100CA000000A08E09FED1A0A81ED000A03E09FEDBB
:100CB000190A81ED000A1848008803F011F8FFF7BF
:100CC00057FF207800281BD0002000900190134887
:100CD0004FF4007190ED0C0ABDEEC00A10EE100A40
:100CE00003B20F4890ED0C0ABDEEC00A10EE100AD8
:100CF00002B20C48FFF738FD0B49C888401CC88079
:100D00001CBD00005C0A0020600A002000000000FA
:100D10000000C8C2004024C5640A00202009002049
:100D20001C080020080C0020DC5C0020014801F0B9
:100D3000A1B80000200F0020014801F09BB800007E
:100D4000600E0020014801F095B80000C00E0020A0
:100D5000014801F08FB80000A0100020014801F008
:100D600089B8000000110020014801F083B800009C
:100D7000800F0020014801F07DB8000060110020C4
:100D8000014801F077B80000E00F0020014801F0B1
:100D900071B80000C0110020014801F06BB80000DC
:100DA000401000200168CAB2103A1823B2FBF3F2D7
:100DB000064B9B5CC3656FF30901032A02D9091D29
:100DC000816500E08165806D70470000F882000851
:100DD00010B5014600208A6A8B694FF0C074002B61
:100DE0000ED0B3F5005F1AD062B3012A2AD0022ACE
:100DF00028D0032A03D1C96AC90100D5012010BD3A
:100E00001AB1012A06D0022AF9D1C96AC901F6D558
:100E1000012010BDC96AA142FBD1012010BD52B111
:100E2000012A0AD0022A06D0032AF7D1C96AA142B0
:100E3000F4D1012010BD012010BDC96AC901FBD544
:100E4000012010BD012010BD30B50468256825F4CF
:100E500080252560046863608368402B04D00368A4
:100E600099600068C26030BD03689A600068C16024
:100E700030BD00000021044A435C5354491C89B230
:100E80000829F9D370470000A4000020704772B60B
:100E9000FEE700002DE9F04106462DED028B0C46E1
:100EA0009FEDC68BDFF81C83C748F2EE040A806B07
:100EB00000EE100A20EE200A88ED000A10EE100A5B
:100EC00007F056F941EC100B04F018F953EC182B0D
:100ED00051EC100B06F060FF03D298ED010A88ED8B
:100EE000000AD8F8000007F043F941EC100B04F0B9
:100EF00005F953EC182B51EC100B07F04FF841ECAF
:100F0000100B04F0FBF89FEDB11B51EC100B53ECF0
:100F1000112B06F041FF1AD298ED000AD8ED010A14
:100F200030EE600A10EE100A07F022F941EC100BC7
:100F300004F0E4F89FEDA71B51EC100B53EC112BC0
:100F400006F02AFF03D298ED010A88ED000AD8EDD9
:100F5000000A98ED010AA14AA14830EEC00A10EE3D
:100F6000101A914203DD0168491E016007E010EE8E
:100F7000101A9C4A914202D90168491C016000681C
:100F80004FF46161484300EE100A9749B8EEC00A79
:100F900030EE800A81ED000A00EE900AF8EEE00AD9
:100FA00030EE600A86ED030ADFED900A20EE200A9B
:100FB000FFF7BEFD8E4D85ED080A8E4890ED000AC4
:100FC000BDEEC00A10EE100A20608B4991ED000AB8
:100FD000BDEEC00A84ED020A6168401A04F04CFEBE
:100FE0004FF47A77B84206DCD4E90201401A04F0E3
:100FF00043FEB84207DD20686060A068E060BDEC99
:10100000028BBDE8F081D4E90001884210DB401A70
:1010100006F05DFD9FED791B53EC112B06F0BEFD34
:1010200006F042FCA8619FED770A85ED050A0FE006
:10103000401A06F04CFD9FED741B53EC112B06F08B
:10104000ADFD06F031FCA8619FED710A85ED050A42
:10105000D4E90201884210DB401A06F038FD9FED0A
:101060006D1B53EC112B06F099FD06F01DFCE86199
:101070009FED6A0A85ED040A0FE0401A06F027FD8D
:101080009FED671B53EC112B06F088FD06F00CFC5E
:10109000E8619FED650A85ED040A95ED050AD5ED39
:1010A000080A30EE200A9FED618A30EE480A04F00B
:1010B0002FF85F4FB1EE400A87ED000A95ED040A64
:1010C000D5ED080A30EE200A04F022F8B1EE400A0D
:1010D00087ED010A95ED050AD5ED080A30EE200AE4
:1010E00030EE480A03F062FF87ED020AD5ED040AEC
:1010F00095ED080A30EE800A03F058FF87ED030AE9
:1011000097ED001AD5ED060A97ED012A61EE201A37
:1011100095ED071A42EE011A94ED042A71EE821A37
:10112000C4ED041AD7ED021A61EEA00A40EE010ADE
:1011300094ED050A30EE800A84ED050A9FED3D8AA4
:10114000B0EE480A03F0E4FF95ED080A03F0E0FF73
:101150003948D4ED040A90ED001A70EE810A70EE61
:10116000C80AC6ED000AB0EE480A03F01FFF95ED6D
:10117000080A03F01BFF314894ED050AD0ED000A80
:1011800030EE200A38EE000A2D48D6ED000A90ED28
:10119000001A70EE810AC6ED000A2A48D0ED000A56
:1011A00030EE200A86ED010A20686060A068E060E9
:1011B00098ED000A88ED010A21E700000000000018
:1011C00000209C402C0600208C5D002000000000C8
:1011D00000002E4000000000000059400000E144E3
:1011E000740A00200000E1C4780A002088C3E43AB1
:1011F000800A00202006002024060020AB02A11651
:1012000005A2CCBF862946BFE3FC3327E4A1CCBFAF
:10121000E0E545BFE78C63EA33BDCCBF1DE615C0F2
:1012200084C364C2D4DBCCBF257515C0DB0F494035
:101230007C5D002000000000A0060020A406002025
:1012400094060020980600204A78097842EA012195
:1012500000EE101AB8EE400A80ED080A7047000050
:101260008878C978020604D5054A42EA0020084376
:1012700001E041EA002000EE100AB8EEC00A704713
:101280000000FFFF90F82020012A07D0022A05D095
:10129000416A41F48021416201207047006842693F
:1012A0000A43426100207047F0B590F8205004686E
:1012B000A468012D07D0022D05D0416A41F4802198
:1012C00041620120F0BD04F0806504F00066354302
:1012D00001D1E50053D5C4F301640125A5401D608B
:1012E0008B684FF4C0759BB1CE6805EB0417334390
:1012F0004E6843EAC6030668F3514FF4C2730768A9
:1013000003EB04130E69FE50097D012909D00DE09D
:101310000E88CB6805EB041743EA46530668F35181
:10132000EBE70168CE5846F48076CE501179D37938
:10133000567941EA036193791B0443EA0623194372
:101340004FF4C676036806EB041699511178D378EA
:1013500041EA0361937852781B0443EA0222114365
:101360004FF4C473026803EB0413D150006805EB1B
:101370000411425842F0010242500020F0BD416A7F
:1013800041F4001141620120F0BD000010B590F859
:101390002020012A07D0022A05D0416A41F4802189
:1013A0004162012010BD3C4800F50070026842F027
:1013B00001020260026822F47C52026002684B6AF9
:1013C00042EA032202600A7D02F01F0301229A40D2
:1013D000C3699343C361A0F50070CB69B3B9D0F87A
:1013E0000C329343C0F80C328C894B6864F31F4372
:1013F0004C6900EBC404C4F840320C890B6864F3F8
:101400001F434C6900EBC404C4F84432CB69012B80
:1014100016D1D0F80C321343C0F80C320C884B684C
:1014200064F31F434C6900EBC404C4F840320C89D8
:10143000CB6864F31F434C6900EBC404C4F8443226
:101440008B697BB1D0F804321343C0F804320B69C6
:1014500073B1D0F814321343C0F81432096A012969
:101460000CD010E0D0F804329343C0F80432EEE719
:10147000D0F814329343C0F81432EFE7D0F81C12BE
:101480001143C0F81C12D0F8001221F00101C0F87D
:101490000012002010BD000000640040704770B5CD
:1014A00090F82040012C07D0022C05D0416A41F46D
:1014B00080214162012070BD21B104682469A40724
:1014C0002AD003E00468E468A4071FD04FF4D8745E
:1014D000056804EB01142D5905F0040595600DB362
:1014E00005682D59ED08556005682C5904F0020473
:1014F000D4604FF4DA74056804EB01142E5906F039
:101500000F06082E13D30825156114E0416A41F433
:1015100000114162012070BD416A41F40011416235
:10152000012070BD05682D596D0D1560DCE72D5942
:1015300005F00F05156105682D59C5F3072595615F
:1015400005682C59240C54614FF4DC72046802EBDA
:101550000112A4581C700468A458240A5C70046822
:10156000A458240C9C700468A258120EDA704FF430
:10157000DE72046802EB0112A4581C710468A458BE
:10158000240A5C710468A458240C9C710468A25855
:10159000120EDA7131B10068016941F02001016178
:1015A000002070BD0068C16841F02001C160F7E70C
:1015B0002DE9F05F0546002428684669D0F80490BC
:1015C0008768D0F80CA0D0F810B0D0F81880F107D8
:1015D00048D0F90714D001218160B80703D5284607
:1015E00000F0E8FB0CE0780702D54FF4006407E058
:1015F000380702D54FF4805402E0284600F0D9FBAA
:10160000F80516D529684FF480708860B80503D5B1
:10161000284600F0D1FB0CE0780502D544F40054D4
:1016200007E0380502D544F4804402E0284600F083
:10163000C2FBF80316D529684FF480308860B803E0
:1016400003D5284600F0BAFB0CE0780302D544F439
:10165000004407E0380302D544F4803402E0284611
:1016600000F0ABFB300707D55FEACA6004D544F44D
:10167000007429681020C86070074FF0080707D56C
:101680005FEA0A7004D52868C760284600F0BAF9F6
:10169000B00706D52868C068800702D0284600F049
:1016A000B3F9700607D55FEACB6004D544F48064D3
:1016B000296810200861B00607D55FEA0B7004D5D1
:1016C00028680761284600F045FBF00606D5286823
:1016D0000069800702D0284600F03DFBB00308D522
:1016E0005FEAC96005D5296810204860284600F0E7
:1016F00033FBF00307D55FEA097004D5286847601B
:10170000284600F05CFB300446D55FEA497040D5BE
:10171000F00504D55FEAC87001D044F00104B005BB
:1017200004D55FEA887001D544F00204700504D541
:101730005FEA487001D544F00404300529D518F05B
:10174000700F26D008F07000402815D006DC102855
:1017500009D020280AD0302816D10AE050280ED00F
:10176000602811D10EE044F008040DE044F01004AC
:101770000AE044F0200407E044F0400404E044F0B0
:10178000800401E044F480742868816921F07001CC
:101790008161296804204860002C05D0686A2043D4
:1017A00068622846FFF77AFEBDE8F09F70B50446F0
:1017B000002C03D094F8200010B104E0012070BD8B
:1017C000204600F09DF82068016841F001010160A9
:1017D00000F0CAFD054605260CE000F0C5FD401BE3
:1017E0000A2807D9606A40F40030606284F82060FB
:1017F000012070BD20684068C007EED020680168F5
:1018000021F00201016000F0AFFD05460CE000F0A0
:10181000ABFD401B0A2807D9606A40F400306062C3
:1018200084F82060012070BD206840688007EED4F5
:10183000207E01283FD02068016821F080010160EE
:10184000607E01283DD02068016821F040010160E0
:10185000A07E01283BD02068016821F020010160B2
:10186000E07E012839D02068016841F01001016054
:10187000207F012837D02068016821F0080101602D
:10188000607F012835D02068016821F004010160E3
:10189000D4E902010843D4E9041211430843616802
:1018A000491E08432168C86100206062012084F855
:1018B0002000002070BD2068016841F080010160B7
:1018C000BEE72068016841F040010160C0E7206880
:1018D000016841F020010160C2E72068016821F041
:1018E00010010160C4E72068016841F0080101604F
:1018F000C6E72068016841F004010160C8E7000004
:101900002DE9F04387B00446142102A8FEF712FE29
:10191000384D2268384C2968DFF8D490364B0227BE
:101920003648491C103400264FF0030C4FF00908CC
:101930004A4529D12960012907D1216841F0007168
:101940002160216801F000710191196841F00201E4
:101950001960196801F0020101914FF44071029180
:1019600003970496CDF814C0CDF8188002A900F0B2
:101970000BFC00220521142000F094FD142000F03F
:1019800083FD07B0BDE8F083DFF874904A45F8D1D5
:10199000226842F080622260226802F08062019236
:1019A0002960012907D1216841F000712160216877
:1019B00001F000710191196841F002011960196884
:1019C00001F0020101916021029103970496CDF884
:1019D00014C0CDF8188002A900F0D6FB0022052122
:1019E000402000F05FFD402000F04EFDC9E7000000
:1019F0000064004010000020303802400004024023
:101A000000680040704700002DE9F04188B00646AC
:101A1000AA483168AA4D81425ED1E889401CE8811C
:101A2000A84B01AA00213046FFF739FD019940F289
:101A30000320A54CA1F2032281420ED006DCA1F5C1
:101A40000071013923D0012946D12DE0012A11D09E
:101A5000A2F58072533A3FD133E09A499B4802F095
:101A6000D6FB9A4890ED3C0A84ED120AE88A401CA5
:101A7000E88231E09349964802F0C9FB944890ED22
:101A80003C0A84ED340A688B401C688324E08D494D
:101A9000904802F0BCFB8F4890ED3C0A84ED230A8D
:101AA000E88B401CE88317E086498B4802F0AFFBC7
:101AB000894890ED3C0A84ED010A688A401C6882DE
:101AC0000AE080488549083882680A608449C0680D
:101AD0000860E88C401CE8848249306888427DD1E7
:101AE000A889401CA881774B01AA083B00213046F9
:101AF000FFF7D5FC0198A0F500700138DFED7A1AE8
:101B00009FED7A1AF3EE030A69D0012868D00F28F6
:101B10007BD16C480838FFF7ADF9754801784278F9
:101B200041EA0221734A11808378C47843EA04248D
:101B300054800379467943EA062696808379C079F2
:101B400043EA0027D780084605F0D8FF9FED6A1BBF
:101B500053EC112B06F022F89FED691B53EC112B6F
:101B600006F01CFA05F086FFDFF89C81A8F800005B
:101B7000204605F0C3FF9FED651B53EC112B06F0CB
:101B80000DF89FED641B53EC112B05F0BFFE05F023
:101B900071FFA8F80200304605F0B0FF9FED5F1B13
:101BA00053EC112B05F0FAFF9FED5E1B53EC112B4C
:101BB00006F0F4F99FED5D1B53EC112B06F0EEF9E6
:101BC00005F058FFA8F80400384605F097FF9FED90
:101BD000591B53EC112B05F0E1FF02E015E017E073
:101BE00041E09FED561B53EC112B06F0D7F99FED0A
:101BF000551B53EC112B06F0D1F905F03BFFA8F86B
:101C0000060035F84A0F401C288008B0BDE8F08176
:101C10002C494E480839FFF717FB4C4C84ED080A55
:101C2000284901A80839FFF71BFB84ED090A94ED48
:101C3000080A2046FEF723FD94ED030AB8EEC00A19
:101C400020EE210A20EE010A80EE201A84ED0A1A05
:101C500094ED090A80EE201A84ED0B1A35F8440F32
:101C6000401C2880D1E7174939480839FFF7ECFABA
:101C7000374C84ED080A134901A80839FFF7F0FA38
:101C800084ED090A94ED080A2046FEF7F8FC94ED6D
:101C9000030AB8EEC00A20EE210A20EE010A80EE07
:101CA000201A84ED0A1A94ED090A80EE201A84EDB8
:101CB0000B1A35F8460F401C2880A6E70068004044
:101CC000DC5C0020AC0A0020B8000020F0030020FB
:101CD00004050020DC020020C801002020060020AE
:101CE0002406002000640040000000390000B443D6
:101CF000A4000020B0060020AE47E17A14AEE73F12
:101D00005C8FC2F528BC3740A80600209318045603
:101D10000E2DE63F355EBA490CD24340355EBA49D6
:101D20000C02F03FB81E85EB5188604000000000B7
:101D30000000334067D5E76A2BF6EF3F295C8FC27E
:101D4000F5D0604000000000000034401C08002076
:101D50002009002070477047704770B5044694F81A
:101D60002000012805D0606A40F400206062012054
:101D700070BD022084F820002068016821F0010174
:101D8000016000F0F1FA05460DE000F0EDFA401BAD
:101D90000A2808D9606A40F400306062052084F89F
:101DA0002000012070BD20684068C007EDD160624E
:101DB00070BD7047704770477047704770477047F5
:101DC0002DE9F0410446A76D00F0CEFA054694F8DF
:101DD00035000026022806D08020606584F8346033
:101DE0000120BDE8F0812068016821F01601016042
:101DF0002068416921F080014161206C08B9A06C24
:101E000020B12068016821F00801016020680168A4
:101E100021F0010101600BE000F0A6FA401B05284B
:101E200006D9202034342062032060702670D8E761
:101E300020680068C007EFD134343F2094F82810A0
:101E40008840B8600120607026700020C9E790F8D3
:101E50003510022903D080214165012070470521FA
:101E600080F835100068016821F001010160002050
:101E7000704700002DE9F84304464FF00009CDF803
:101E800000906F484FF416510068B0FBF1F7A56D54
:101E90002E6894F85C00082202FA00F1314210D05A
:101EA0002068016849070CD5016821F00401016030
:101EB00094F85C0002FA00F1A960606D40F0010046
:101EC000606594F85C104FF0010808FA01F03042A8
:101ED00008D021684969090604D5A860606D40F002
:101EE0000200606594F85C1004208840304208D0FD
:101EF00021680968890704D5A860606D40F0040076
:101F0000606594F85C1010208840304220D0216831
:101F1000096809071CD5A8602068016849030CD529
:101F20000068000304D4216C91B1204688470FE07B
:101F3000A16C69B1204688470AE00168C90503D44D
:101F4000016821F008010160216C09B12046884731
:101F500094F85C102020884030424CD021680968F9
:101F6000C90648D5A86094F8350005280BD020682C
:101F70000168490330D50068000328D4616C51B36F
:101F80002046884737E02068016821F0160101608B
:101F90002068416921F080014161206C08B9A06C82
:101FA00020B12068016821F00801016094F85C10FC
:101FB0003F208840A86084F8358084F83490216DF3
:101FC00000293BD001B02046BDE8F0430847E16B53
:101FD00009B1204688470EE00168C90507D40168A9
:101FE00021F01001016084F8358084F83490E16BB1
:101FF00009B120468847606D00281FD0606DC0077A
:1020000014D0052084F835002068016821F0010112
:1020100001600098401C0090B84203D82068006816
:10202000C007F6D184F8358084F83490E16C00293B
:1020300004D001B02046BDE8F0430847BDE8F8836E
:10204000200000202DE9F041044600F08DF90546FE
:102050005CB1022084F83500002684F834602068E2
:10206000016821F0010101600DE00120BDE8F0816F
:1020700000F07AF9401B052805D92020606503206F
:1020800084F83500F2E720680068C007F0D12168C5
:102090000A6820480240D4E901031843D4E9033513
:1020A0002B43184363691843A3691843E369184332
:1020B000236A18431043626A042A03D1D4E90B232C
:1020C0001A43104308602068406920F00700656AE1
:1020D00029460543012704290DD1A06A0543E06A7A
:1020E00048B12046FEF774FE28B14020606584F8B0
:1020F00035700120BAE7206845612046FEF752FEA0
:1021000094F85C203F2191408160666584F83570C9
:102110000020ABE73F8010F02DE9F0410446002598
:10212000A66D94F8340001280DD0012084F8340005
:1021300094F835700020012F07D084F83400022570
:102140002846BDE8F0810220FBE7022784F83570BD
:1021500060652046FEF778FE94F85C103F208840CA
:10216000B0602068016841F016010160206C20B168
:102170002068016841F0080101602068016841F0B1
:1021800001010160DCE700002DE9F84F0022DFF8D3
:102190009C914FF0010803274FF00F0C09F1040A3E
:1021A000A9F1040B08FA02F50B682B40AB426ED183
:1021B0000C7904F00304012C01D0022C15D186689F
:1021C000540007FA04FE26EA0E06D1F80CE00EFAD7
:1021D00004FE4EEA060EC0F808E04468AC430D79F0
:1021E000C5F300159540254345600C79E443A407E9
:1021F00008D0C568540007FA04F6B5438E68A640B7
:102200002E43C6600C7904F00304022C11D1D408CB
:1022100000EB8406356A5407E40E0CFA04FE25EA46
:102220000E05D1F810E00EFA04FE4EEA050EC6F8CF
:1022300020E00568540007FA04F6B5430E7906F06D
:102240000306A6402E4306604C6814F4403F67D056
:10225000374C256845F480452560246804F48044A3
:102260000094344C22F003052E19D6F80858940730
:102270004FEA147E0CFA0EF4A5432F4CA04201D174
:10228000002424E02D4CA04202D101241FE047E0AD
:102290002B4CA04201D1022419E02A4CA04201D1CA
:1022A000032414E0284CA04201D104240FE0274C61
:1022B000A04201D105240AE0254CA04201D1062408
:1022C00005E0244CA04201D1072400E0082404FAD0
:1022D0000EF42C43C6F80848D9F800409C434D68DA
:1022E000ED0200D51C43C9F80040DAF800409C43D9
:1022F0004D68AD0200D51C43CAF80040DBF8004031
:102300009C434D68AD0300D51C43CBF80040074DFE
:10231000083D2C689C434E68F60300D51C432C6096
:10232000521C102AFFF43EAFBDE8F88F083C014074
:1023300044380240003001400000024000040240E6
:1023400000080240000C024000100240001402404D
:1023500000180240001C0240002A01D08161704731
:1023600009048161704700000148806870470000DF
:10237000140000200248816802781144816070478F
:102380001400002010B50B48016841F40071016091
:10239000016841F480610160016841F4807101606D
:1023A000032000F09FF80F2000F006F800F050F82E
:1023B000002010BD003C024030B587B00546002427
:1023C0001E48016841F004010160006800F004004B
:1023D000009001A902A800F03DF90598A8B100F00D
:1023E0005DF940001649B0FBF1F1491E1648154A47
:1023F000026040F2E732C26041600461846084613F
:1024000000F060FC04461CB115E000F047F9E9E774
:102410000D4800F09BFC04466CB91E2000F034F817
:10242000102D07D2002229461E2000F03BF8074855
:10243000056000E0012407B0204630BD403802406E
:1024400040420F0000080040201200201800002029
:1024500082B00C48016841F480410160006800F4DA
:10246000804001900748001F016841F080510160E1
:10247000006800F08050019000220F21901E02B0F1
:1024800000F010B844380240002809DB00F01F02B9
:10249000012191404009800000F1E020C0F80011C6
:1024A00070470000F0B40D460D4B1B68C3F30223C8
:1024B000C3F10704042C00D90424191D072901D2F3
:1024C000002300E0DB1E012606FA04F1491E294024
:1024D00099409E40761E16403143F0BC02F055BD37
:1024E0000CED00E000F00701054A10684FF6FF030D
:1024F000184040EA0120034908431060704700007B
:102500000CED00E00000FA052DE9F04704460D4609
:10251000002C13D0DFF82891D9F80000EFB200F0BA
:102520000700A8420CD289F80070D9F8000000F02A
:102530000700A84204D00120BDE8F0870120FBE796
:102540002068404E810712D5400703D5306840F41B
:10255000E05030602078000703D5306840F46040D8
:1025600030603068A16820F0F000084330602078C7
:10257000C00731D0334960680839012808D00228E3
:102580000BD0032809D0096889070BD40120D3E7B1
:102590000968890306D40120CEE70968890101D4BE
:1025A0000120C9E7316821F0030101433160FFF7E1
:1025B000DBFE804641F2883A07E0FFF7D5FEA0EB4C
:1025C0000800504501D90320B6E73068616800F083
:1025D0000C00B0EB810FF0D1D9F8000000F007003B
:1025E000A84209D989F80070D9F8000000F0070066
:1025F000A84201D001209FE72078400705D5306828
:10260000E16820F4E050084330602078000706D5E8
:102610003068216920F4604040EAC100306000F079
:102620005DF83168084AC1F30311515CC84007499D
:10263000086007480068FFF7BFFE00207CE7000045
:10264000003C0240083802400083000820000020BF
:10265000180000200F2202600B4A136803F00303E6
:102660004360136803F0F0038360136803F4E053DE
:10267000C360126802F46042D20802610348006835
:1026800000F007000860704708380240003C024034
:1026900001480068704700002000002000B5FFF7E7
:1026A000F7FF04490968044AC1F38221515CC8401C
:1026B00000BD0000083802401083000800B5FFF795
:1026C000E7FF04490968044AC1F34231515CC8403C
:1026D00000BD0000083802401083000810B51748FC
:1026E000006810F00C01164816D04310042912D0CF
:1026F000082911D1114C241F216801F03F022168E3
:1027000049020AD52068C0F38810A0FB030100230A
:10271000FDF72AFE09E0184610BD21680023C1F329
:102720008811A1FB0001FDF71FFE2168C1F30141E3
:10273000491C4900B0FBF1F010BD00000838024010
:102740000024F4002DE9F84F0446002C13D0207823
:10275000DFF8A083C007A8F1040556D008F10400F3
:102760000168C1F3810101290CD00068C0F3810028
:10277000022803D00DE00120BDE8F88FD8F8000052
:10278000400206D5286880033FD5606870BB0120F1
:10279000F2E76068B0F5803F10D0B0F5A02F12D0FE
:1027A000286820F480302860286820F48020286081
:1027B0006068E0B1FFF7D8FD064614E0286840F4F1
:1027C00080302860F4E7286840F48020286028687A
:1027D00040F480302860EBE7FFF7C6FD801B6428DB
:1027E00001D90320C8E728688003F5D50DE0FFF77D
:1027F000BBFD064606E0FFF7B7FD801B642801D944
:102800000320B9E728688003F5D42078BA4F800701
:102810004FF0000948D5B748001D016811F00C0FB2
:1028200008D00068C0F38100022813D1D8F8000056
:1028300040020FD42868800704D5E068012801D041
:10284000012099E72868216920F0F80040EAC100DA
:10285000286029E0E068B8B101203860FFF784FD06
:10286000064606E0FFF780FD801B022801D9032001
:1028700082E728688007F5D52868216920F0F800EC
:1028800040EAC10028600FE0C7F80090FFF76CFD38
:10289000064606E0FFF768FD801B022801D90320E9
:1028A0006AE728688007F5D42078000729D5DFF883
:1028B00044A2924861690AF1700A89B1012101605C
:1028C000FFF752FD064606E0FFF74EFD801B02288B
:1028D00001D9032050E7DAF800008007F4D510E0B2
:1028E000C0F80090FFF740FD064606E0FFF73CFD0C
:1028F000801B022801D903203EE7DAF80000800798
:10290000F4D42078400778D54FF0000A79483C305D
:102910000068C0000BD477483C30016841F080511A
:102920000160006800F0805000904FF0010ADFF86D
:10293000D0B1DBF80000C00514D4DBF8000040F48F
:102940008070CBF80000FFF70FFD064606E0FFF7AA
:102950000BFD801B022801D903200DE7DBF80000E6
:10296000C005F4D5634EA0686C3601280FD0052849
:1029700012D0306820F001003060306820F0040090
:102980003060A068F8B1FFF7EFFC834617E03068CD
:1029900040F001003060F4E7306840F0040030603F
:1029A000306840F001003060EBE7FFF7DDFCA0EBA2
:1029B0000B0141F28830814201D90320DCE6306806
:1029C0008007F2D510E0FFF7CFFC834609E0FFF760
:1029D000CBFCA0EB0B0141F28830814201D90320EE
:1029E000CAE630688007F2D4BAF1010F05D1414838
:1029F0003C30016821F080510160A069C0B33D49BD
:102A0000091D09684FF0FF36C1F38101022946D044
:102A1000022805D0C7F86090FFF7A6FC04463AE00C
:102A2000C7F86090FFF7A0FC814607E0FFF79CFC29
:102A3000A0EB0900022801D903209DE62868800147
:102A4000F4D4D4E907010843616AA26A890106EB5C
:102A5000520241EA0241084394F82C1040EA016016
:102A6000C8F8000001203866FFF77EFC044607E046
:102A70003DE0FFF779FC001B022801D903207BE62B
:102A800028688001F5D532E0FFF76EFC001B0228B4
:102A900001D9032070E628688001F5D427E00128D9
:102AA00023D0D8F80000E26900F4800191421AD1E5
:102AB000226A00F03F01914215D147F6C071626A67
:102AC0000140B1EB821F0ED1A26A00F4403106EB47
:102AD0005202B1EB024F06D194F82C1000F0706056
:102AE000B0EB016F03D0012046E6012044E6002050
:102AF00042E600000438024000004742800E474290
:102B00000070004070B50446002C09D0606A0025B2
:102B100040B125616561A56294F8510040B10CE0B7
:102B2000012070BD6068B0F5827FF4D0E561F2E706
:102B300084F85050204600F045F8022084F85100F7
:102B40002068016821F040010160A088218900F41B
:102B5000827001F404410843A18901F40061084333
:102B6000217C01F002010843217D01F001010843AD
:102B7000218B01F400710843217F01F038010843E3
:102B800094F8201001F080010843218D01F40051D8
:102B9000084321680860A069042101EA104094F804
:102BA000241001F010010843216848602068C169C1
:102BB00021F40061C1616565012084F851000020A5
:102BC00070BD000010B586B00446142101A8FDF7C1
:102BD000B1FC14492068884221D1002112480268C2
:102BE00042F480420260006800F4804000900E4889
:102BF0001038026842F002020260006800F0020031
:102C000000904FF460400190022002900391032055
:102C100004900520059001A90448FFF7B5FA06B015
:102C200010BD00000038004040380240000402405F
:102C30007047704770B590F83C20012A31D00126CA
:102C400080F83C60022280F83D2002685468936856
:102C500024F070050C682C435460134C0268A242A7
:102C600014D0B2F1804F11D0104CA2420ED0104CB3
:102C7000A2420BD00F4CA24208D00F4CA24205D06A
:102C80000E4CA24202D00E4CA24204D123F080038B
:102C90004968194391603C30467000210170002062
:102CA00070BD022070BD0000000001400004004023
:102CB00000080040000C00400004014000400140BA
:102CC0000018004010B50446002C03D094F83D00D5
:102CD00010B107E0012010BD002084F83C00204620
:102CE00000F016F8022084F83D00211D206801F054
:102CF0001BFD01203D3460726070A070E070207197
:102D00006071A071E07120722070002010BD000081
:102D100008B500680B49884212D10B48016841F0A0
:102D200002010160006800F002000090002205210D
:102D30001D20FFF7B7FBBDE808401D20FFF7A4BB2F
:102D400008BD0000000400404038024090F83D10EB
:102D5000012901D001207047022180F83D1001684F
:102D6000CA6842F00102CA6000681449884214D05F
:102D7000B0F1804F11D0124988420ED011498842DB
:102D80000BD01149884208D01049884205D010491B
:102D9000884202D00F49884209D1816801F00701B9
:102DA000062908D0016841F00101016003E00168D3
:102DB00041F0010101600020704700000000014067
:102DC0000004004000080040000C004000040140E6
:102DD000004001400018004070B50446002594F8FA
:102DE0003C00012817D0012684F83C60022084F8BA
:102DF0003D002068826822F0770222F47F428260E0
:102E00000868502838D00DDC202853D005DC90B35A
:102E1000102811D14EE0022070BD30284AD0402841
:102E20000AD13DE0602831D070280CD0B0F5805F29
:102E300003D0B0F5005F12D001253C34667000204D
:102E40002070284670BDCB68D1E90121206801F0CF
:102E5000D5FC2068816841F077018160EDE7CB689F
:102E6000D1E90121206801F0C9FC2068816841F4A2
:102E700080418160E1E71DE0CA684968206801F08F
:102E8000CFFC5021206801F0C3FCD6E7CA6849682E
:102E9000206801F0D6FC6021206801F0B9FCCCE785
:102EA000CA684968206801F0BBFC4021206801F035
:102EB000AFFCC2E722680146104601F0A9FCBCE75E
:102EC00070472DE9F04104462068C56806694FF057
:102ED0000007B10714D5A90712D5F91E0161012019
:102EE000207720688069800703D02046FFF7E8FF3D
:102EF00005E0204600F081F8204600F07FF82777B3
:102F0000700717D5680715D521686FF004000861B0
:102F1000022020772068806910F4407F03D020468B
:102F2000FFF7CEFF05E0204600F067F8204600F0EE
:102F300065F82777300716D5280714D521686FF074
:102F400008000861042020772068C069800703D04A
:102F50002046FFF7B5FF05E0204600F04EF820467A
:102F600000F04CF82777F00617D5E80615D521684C
:102F70006FF010000861082020772068C06910F405
:102F8000407F03D02046FFF79BFF05E0204600F07E
:102F900034F8204600F032F82777F00708D0E80729
:102FA00006D021686FF001000861204600F028F883
:102FB000300608D5280606D521686FF08000086124
:102FC0002046FFF735FE700608D5680606D521684D
:102FD0006FF040000861204600F0B6F8B0060AD550
:102FE000A80608D521686FF0200008612046BDE8DA
:102FF000F041FFF71EBEBDE8F0817047704700004A
:10300000F0B4474A016891427DD1464A11780529BA
:1030100007D0062905D0072903D0082901D009299E
:1030200004D1D2F84811491CC2F848113E4E756DC2
:103030006D1C75653D4A1178491C11703C4A118818
:10304000491C11803B4FF7EE000A97ED000A30EE65
:10305000200A87ED000A10EE101A374A0024914228
:103060004CD13649CA8C8A84CC844A880A804C80E8
:10307000CA888A80CC80002201EB4203B3F80CC0DE
:10308000A3F808C09C81521C022AF5DB4A8A0A82F6
:103090004C82CA8A8A82CC824A8B0A834C83CA8B2E
:1030A0008A83CC834A8C0A844C844A8D0A854C8559
:1030B000CA8D8A85CC854A8E0A864C868A8ECA86B7
:1030C0008C86002201EB4203B3F844C0A3F840C051
:1030D000A3F84440521C022AF4DB38314A880A80A3
:1030E0004C80CA888A80CC804A8A0A824C82CA8AEA
:1030F0008A82CC829FED120A87ED000A192D05DB2A
:103100007465012100E001E086F8581000680D495F
:10311000884202D1F0BCFFF72DB9F0BC7047000027
:1031200000040040B806002038060020B00000204F
:1031300034060020AC00002000007A44DC5C002053
:103140000000000000080040704738B5044694F8BD
:103150004200202801D0022038BD71B16AB101209F
:10316000206300206063204601F05EFD0346206B73
:10317000012804D00123184638BD012038BD20683D
:1031800001684068009020680C3050E8001F41F052
:10319000100140E80012002AF5D1ECE7F8B504462A
:1031A00021680868486800900868486800900868C6
:1031B000486800901B481C4D814213D1688C401C0C
:1031C00068841A4E306840681949C0F114000880BC
:1031D000092218491848FFF7B8FF3168086820F03D
:1031E0000800086015482168814219D11448017807
:1031F00066290AD190F82500992806D1114801F0D6
:1032000067FE35F84E0F401C288026220C490E48D8
:10321000FFF79BFF0D480068016821F0080101607D
:10322000F8BD0000004C0040DC5C0020600E002077
:10323000B2000020D85B0020F80C002000500040B5
:10324000205C0020485C0020400D0020200F002062
:1032500010B5044620684069C0F3C01094F84110CE
:10326000212911D180B12068143050E8001F21F0CD
:10327000800140E80012002AF5D1A06B08B1FEF7EA
:103280009FFD204601F0D4FB20684069C0F3801008
:1032900094F84210222911D180B12068143050E8EE
:1032A000001F21F0400140E80012002AF5D1E06B38
:1032B00008B1FEF785FD204601F086FB002010BD19
:1032C00010B504461B49206888420AD109221A49D0
:1032D0001A48FFF73AFF1A480068016821F0080110
:1032E00001601849206888420AD1262216491748E9
:1032F000FFF72BFF16480068016821F00801016004
:1033000014492068884204D103221349134800F06D
:103310008FFB1349206888420AD1112211491248B3
:10332000FFF713FF11480068016821F008010160F0
:1033300010BD0000004C0040D85B0020F80C0020BD
:10334000600E002000500040205C0020400D002056
:10335000200F00200010014018060020880D0020DA
:1033600000440040685D0020D00D0020A010002027
:10337000F8B5044622681068D168536900F00F065A
:10338000002E08D1850606D58D0604D52046BDE859
:10339000F84001F05BBB0025002E66D003F001066B
:1033A00001F49077374360D0C20705D0CA0503D532
:1033B000626C42F001026264420705D5DA0703D06D
:1033C000626C42F002026264820705D5DA0703D01C
:1033D000626C42F004026264020707D501F0200229
:1033E000324303D0626C42F008026264626C002ACD
:1033F00031D0800604D5880602D5204601F026FB90
:1034000020684069C0F38010616C090700D438B3AC
:10341000204601F0D9FA2068406940061CD5206892
:10342000143050E8001F21F0400140E80012002A4B
:10343000F5D1E06B60B15F490165E06BFEF707FD18
:10344000002808D0E06B016D01B0BDE8F0400847EE
:103450002046FFF735FFF8BD2046FFF731FFF8BDE6
:103460002046FFF72DFF6564F8BD236B012B7DD14E
:10347000C3067BD5CB0679D510685068009050699B
:103480004FF0200340064FF002064FD5E26B106864
:10349000406880B2DF00E8B3A18D81423BD9E0856E
:1034A000D069B8422DD020680C3050E8001F21F4BC
:1034B000807140E80012002AF5D12068143050E8ED
:1034C000001F21F0010140E80012002AF5D1206818
:1034D000143050E8001F21F0400140E80012002A9B
:1034E000F5D184F84230256320680C3050E8001F85
:1034F00021F0100140E80012002AF5D1E06BFEF740
:103500005FFC6663A08DE18D401A81B22046FFF713
:1035100045FEF8BDFFE7A18D8142FAD1D069B842DE
:10352000F7D166632046FFF739FEF2E7A08DE18D03
:10353000401A81B2E08D0028EBD00029E9D0206844
:103540000C3050E8002F22F4907240E80027002F42
:10355000F5D12068143050E8002F22F0010240E835
:103560000027002FF5D184F8423000E00FE02563FA
:1035700020680C3050E8002F22F0100240E80023B1
:10358000002BF5D166632046FFF708FEC1E702066F
:1035900006D50A0604D52046BDE8F84001F096BBE2
:1035A0004006B6D54806B4D52046BDE8F84001F03F
:1035B00032BA00008148000870B50446002C04D0DF
:1035C00094F84100002510B106E0012070BD84F898
:1035D0004050204600F024F8242084F84100206860
:1035E000C16821F40051C160204601F093FA2068BF
:1035F000016921F4904101612068416921F02A01AB
:1036000041612068C16841F40051C16065642020B7
:1036100084F8410084F842006563002070BD00001A
:103620002DE9F04F87B00446142102A8FCF782FF71
:10363000F149F248DFF8BCE3D4F800C0EE4A103993
:1036400001230327002506154FF0020B4FF0080A4F
:103650004FF040084FF00069F44554D1D2F800C053
:103660004CF4002CC2F800C0126802F4002201924F
:103670000A6842F004020A60096801F0040101913D
:10368000B9020291CDF80CB004930597CDF818A0BB
:1036900002A9FEF779FDDB4FD9483860C7F80490DE
:1036A000BD60FD603E617D61BD61FD613D627D6229
:1036B0003846FEF7C7FC08B1FDF7E9FBE763BC63DA
:1036C000CF48D04F303060373860C7F80490C7F823
:1036D0000880FD603E617D61BD61FD613D627D628E
:1036E0003846FEF7AFFC08B1FDF7D1FBA763BC631A
:1036F000002205213420FEF7D5FE3420FEF7C4FE5B
:1037000007B0BDE8F08FDFF800E3F4456AD1D2F8E6
:1037100000C04CF4801CC2F800C0126802F4801291
:1037200001920A6842F004020A600A6802F0040288
:1037300001920A6842F008020A60096801F0080173
:1037400001914FF480510291CDF80CB00121049108
:103750000597CDF818A002A9FEF716FD04200290E7
:10376000CDF80CB0012004900597CDF818A002A95F
:10377000A648FEF709FDA248A24F3038C03738608E
:10378000C7F80490BD60FD603E617D61BD61FD6173
:103790003D627D623846FEF755FC08B1FDF777FBC8
:1037A000E763BC6396489A4F78303860C7F8049056
:1037B000C7F80880FD603E617D61BD61FD613D62CD
:1037C0007D623846FEF73EFC08B1FDF760FBA7635B
:1037D000BC63002205213520FEF764FE3520FEF78C
:1037E00053FE8DE7844BDFF82CE21B1DF44553D1CB
:1037F000186840F010001860186800F01000019080
:10380000086840F001000860086800F001000190BD
:103810004FF4C0600290CDF80CB0049505970720D6
:10382000069002A97C48FEF7AFFC794F7B486037D1
:103830003860C7F80490BD60FD603E617D61BD6188
:10384000FD613D627D623846FEF7FCFB08B1FDF785
:103850001EFBE763BC6371486D4F7830C03738603A
:10386000C7F80490C7F80880FD603E617D61BD61C6
:10387000FD613D627D623846FEF7E4FB08B1FDF76D
:1038800006FBA763BC63002205212520FEF70AFE84
:103890002520FEF7F9FD33E7DFF884E1F44552D146
:1038A000106840F400301060106800F4003001909F
:1038B000086840F008000860086800F008000190FF
:1038C00060200290CDF80CB0049505970720069073
:1038D00002A94E48FEF758FC4948524F483038601C
:1038E000C7F80490BD60FD603E617D61BD61FD6112
:1038F0003D627D623846FEF7A5FB08B1FDF7C7FAC9
:10390000E763BC633E48474F603060373860C7F8B4
:103910000490C7F80880FD603E617D61BD61FD6176
:103920003D627D623846FEF78DFB08B1FDF7AFFAC8
:10393000A763BC63002205212620FEF7B3FD2620E5
:10394000FEF7A2FDDCE6384A9445A4D11A6842F09D
:1039500020021A601A6802F0200201920A6842F0FE
:1039600004020A60096801F004010191C02102917A
:10397000CDF80CB004950597CDF818A002A9FEF774
:1039800003FC2648274F1838C03738604FF02069AD
:10399000C7F80490BD60FD603E617D61BD61FD6161
:1039A0003D627D623846FEF74DFB08B1FDF76FFAC8
:1039B000E763BC6319481D4F60303860C7F8049056
:1039C000C7F80880FD603E617D61BD61FD613D62BB
:1039D0007D623846FEF736FB08B1FDF758FAA7635B
:1039E000BC63002205214720FEF75CFD4720FEF75F
:1039F0004BFD85E6004C0040403802400008024084
:103A000040600240600E002000500040000C024068
:103A1000800F00200010014000000240406402407E
:103A200000440040A010002000140140C0110020FC
:103A300090F84230202B01D00220704721B11AB1FA
:103A40000023036301F0F0B801207047704770470E
:103A500037B5044694F84100202801D002203EBD2D
:103A6000019919B312B32162A284E2840020606438
:103A7000212384F84130A56B154BEB63A56B154BE7
:103A80002B64A56B144BEB64A36B1865206813467D
:103A9000001DA56B02462846FEF73EFB40B11020F4
:103AA0006064202084F8410001203EBD01203EBD1D
:103AB00021686FF0400008602068143050E8001F53
:103AC00041F0800140E80012002AF5D100203EBDFF
:103AD0007D490008BF4900088F4800080068044974
:103AE000884203D10348418F491C41877047000039
:103AF00000100140DC5C00207047FEE7174D184CB9
:103B00004FF440764FF480672A885AB115482188CF
:103B100008441549FCF79FFC208829880844208028
:103B200000202880208818B101B20E4801F0B2FCB4
:103B300001230E4A31460E4800F0CDFC01230D4A08
:103B400039460B4800F0C7FCFCF700FFFDF79AF878
:103B500001F0ECF9012003F099F8D5E7D40B00202F
:103B6000D60B00200F5E00200F600020660A0020A8
:103B7000080C0020690A0020054C06490648FDF79C
:103B800089F9E08D401CE085012003F07FF8F4E71F
:103B9000DC5C0020485D00206C5C00204748484BFE
:103BA000D0ED000AC3ED000A90ED011A83ED051A6D
:103BB000D0ED021AC3ED0A1A90ED032A83ED0F2A05
:103BC0000420411E03EB810193ED143A91ED000AAC
:103BD00003EB800270EEC02A03EE220A82ED000A97
:103BE00091ED050A93ED143A71EE402A03EE220A94
:103BF00082ED050A91ED0A0A93ED143A71EEC02A9E
:103C000003EE220A82ED0A0A91ED0F0A93ED143AAF
:103C100072EE402A03EE220A82ED0F0A401E0028AF
:103C2000CFDC9FED280AF0EE400AB0EE401AF0EE2D
:103C3000401A002003EB800191ED002A32EE000AC9
:103C400091ED052A72EE200A91ED0A2A32EE011A50
:103C500091ED0F2A72EE211A401C0528EADBB1EE25
:103C6000042A1948C0EE022AB3EE0F0A32EE800A87
:103C700080ED000A80EE820ADFED140A30EE200AA1
:103C8000F0EE080A30EE200A80ED010AC1EE020AC9
:103C90009FED0F0A30EEC00A80ED020AC1EE820AE3
:103CA0009FED0C1A60EE810A9FED0B1AC0EE811A8F
:103CB000C0ED031A094880ED020A7047485C0020F5
:103CC0003806002000000000A45C002000D08545DC
:103CD0000080C5430000E144DB0F49406C5C0020DC
:103CE000F0B5374A374C0025D2ED080A94ED000AAA
:103CF00000EB40010127F4EE400AC1EBC010F1EEE9
:103D000010FA4FF6FF71304E01EAC00308D015805B
:103D10009380D6ED0A0AC2ED040A82ED060A978165
:103D2000908990B19088D2ED061A00EE100A1088A2
:103D3000D2ED040AB8EE401A00EE100AB8EE400ABE
:103D400001F030FE82ED0A0A03E092ED060A82EDF0
:103D50000A0A94ED000A82ED080AD2ED090AB1EED2
:103D6000400AF4EE400AF1EE10FA08D05580D380F4
:103D7000D6ED0A0AC2ED050A82ED070AD781D0897D
:103D800090B1D088D2ED071A00EE100A5088D2ED1B
:103D9000050AB8EE401A00EE100AB8EE400A01F02B
:103DA0004DFE82ED0B0A03E092ED070A82ED0B0A4D
:103DB00094ED000AB1EE400A82ED090AF0BD000060
:103DC000D80B0020600A00201C08002010B5104805
:103DD0000E4901600321416000218160C1604FF400
:103DE000002202614FF440124261017601224276C4
:103DF0008276C27601774177FDF7D8FC002803D0A0
:103E0000BDE81040FDF743B810BD0000006400405D
:103E1000080C002010B510480E49016003214160D4
:103E200000218160C1604FF4002202614FF4401212
:103E300042610176012242768276C276017741772D
:103E4000FDF7B4FC002803D0BDE81040FDF71FB813
:103E500010BD000000680040300C002008B531485B
:103E6000016841F480010160016801F48001009162
:103E7000016841F400110160006800F40010009036
:103E8000002205210B20FEF70DFB0B20FEF7FCFAAC
:103E9000002205210D20FEF705FB0D20FEF7F4FAA8
:103EA000002205210F20FEF7FDFA0F20FEF7ECFAA5
:103EB000002205211020FEF7F5FA1020FEF7E4FAA3
:103EC000002205211120FEF7EDFA1120FEF7DCFAA1
:103ED000002205212F20FEF7E5FA2F20FEF7D4FA65
:103EE000002205213920FEF7DDFA3920FEF7CCFA51
:103EF000002205213A20FEF7D5FA3A20FEF7C4FA4F
:103F0000002205214520FEF7CDFA4520FEF7BCFA38
:103F1000002205214620FEF7C5FABDE808404620EC
:103F2000FEF7B2BA3038024010B50E4A00210E48F2
:103F300001F0D6FE0D4C20600A4A002124320C48C4
:103F400001F0CEFE6060074A00214832094801F0C6
:103F5000C7FEA060034A00216C32074801F0C0FE92
:103F6000E06010BD688200081D45000800000020C8
:103F700021420008793B0008FD3A00082DE9F04392
:103F800087B0142102A8FCF7D5FA00272B48016856
:103F900041F080010160016801F080010191016838
:103FA00041F002010160016801F002010191016824
:103FB00041F008010160016801F008010191016808
:103FC00041F004010160016801F004010191016800
:103FD00041F001010160006800F001000190DFF88C
:103FE00060804FF48054002221464046FEF7B4F929
:103FF000DFF850902611002231464846FEF7ACF912
:1040000002940124039404940325059502A94046D3
:10401000FEF7BAF8029603940494059502A948465F
:10402000FEF7B2F8600202900397049402A9484692
:10403000FEF7AAF807B0BDE8F08300003038024070
:1040400000040240000C024010B50F480D49016009
:104050004FF48271416000218160C1600161416162
:104060004FF400728261C1610162416281620A2182
:10407000C162FEF747FD002803D0BDE81040FCF701
:1040800006BF10BD00380040580C002010B586B0A7
:104090000024029403940494059400940194144819
:1040A0001249016040F28F61416084603121C1603A
:1040B00004618461FEF706FE08B1FCF7E8FE4FF4E8
:1040C0008050029002A90A48FEF786FE08B1FCF76C
:1040D000DEFE0094019469460548FEF7ABFD00281A
:1040E00001D0FCF7D4FE06B010BD00000004004073
:1040F000B00C002010B50C480A4901604FF4612152
:10410000416000218160C16001610C2242618161D6
:10411000C161FFF751FA002803D0BDE81040FCF759
:10412000B6BE10BD004C0040F80C002010B50C4885
:104130000A4901604FF46121416000218160C16042
:1041400001610C2242618161C161FFF735FA0028EB
:1041500003D0BDE81040FCF79ABE10BD00500040EF
:10416000400D002010B50C480A4901604FF4612150
:10417000416000218160C16001610C224261816166
:10418000C161FFF719FA002803D0BDE81040FCF721
:104190007EBE10BD00100140880D002010B50C48F7
:1041A0000A4901604FF46121416000218160C160D2
:1041B00001610C2242618161C161FFF7FDF90028B4
:1041C00003D0BDE81040FCF762BE10BD00440040C3
:1041D000D00D002010B50C480A4901604FF4612150
:1041E000416000218160C16001610C2242618161F6
:1041F000C161FFF7E1F9002803D0BDE81040FCF7EA
:1042000046BE10BD00140140180E0020FEE70B68EA
:1042100000F18002C0F8EC30486810677047FEE794
:10422000034C608E401C6086052002F02FFDF8E7ED
:10423000DC5C00202DE9F04104462DED048B9FED60
:104240006F9A00266E4D012794ED020A84ED030A51
:1042500094ED000AD4ED010A70EE609AC4ED029A62
:10426000A06C03F085FF41EC180B19EE900A03F0E7
:104270007FFF41EC100B00F041FF53EC182B51EC89
:10428000100B03F04FFC01D884ED029A206803F074
:104290006FFF41EC100B00F031FF9FED5A1B51EC0A
:1042A000100B53EC112B03F03DFC01D86E7000E0B5
:1042B0006F70206803F05CFF41EC100B00F01EFFF4
:1042C0009FED521B51EC100B53EC112B03F02AFC09
:1042D00001D82E7000E02F7094ED111A94ED020AAF
:1042E000F1EE410AFCF714FC84ED020AF0EE409A6C
:1042F00094ED040A30EE290A84ED040AA87803F04C
:10430000FDFB41EC180B19EE900A03F031FF41EC74
:10431000100B00F0F3FE53EC182B51EC100B03F0D4
:104320003BFD01D884ED049A94ED0F1A94ED040A34
:10433000F1EE410AFCF7ECFB84ED040A94ED050A6A
:10434000D4ED020A94ED0E1A20EE200AF1EE410A95
:10435000FCF7DEFB84ED090A94ED060AD4ED040AAD
:1043600020EE200A84ED0A0A94ED020AD4ED030A35
:1043700094ED101A30EE600AD4ED070A20EE200A00
:10438000F1EE410AFCF7C4FB84ED0B0A94ED000A40
:1043900000F04EF900EE100AD4ED140AD4ED131A11
:1043A000B8EEC00A287820EE201A94ED090AD4ED60
:1043B0000A0A30EE200AD4ED0B0A30EE200AD4EDC2
:1043C000020A60EEA11A00EE900A6878F8EE600A20
:1043D00001EEA00A00EE900AF8EE600A01EE200A53
:1043E00084ED080A94ED0D1AF1EE410AFCF790FBFA
:1043F00084ED080ABDEC048BBDE8F08100000000EC
:10440000B40A00200000000000003E400000000050
:104410000000F83F10B5044694ED001A84ED0E1A22
:1044200084ED000AC4ED010A30EE600A84ED020A50
:1044300094ED0B1AF1EE410AFCF76AFB84ED020AD7
:1044400094ED0C0AD4ED000A94ED0E1A20EE200A29
:1044500070EEC10A94ED0D1A01EE200A84ED0F0AE8
:1044600094ED101AF1EE410AFCF752FB84ED0F0AAD
:1044700094ED030AD4ED020A94ED091A20EE200A05
:10448000F1EE410AFCF744FB84ED060A94ED070ABD
:10449000D4ED040A94ED021A00EE810A84ED070AB5
:1044A00094ED0A1AF1EE410AFCF732FB84ED070A9B
:1044B000D4ED0F0A94ED061A70EE810A30EE800AF0
:1044C00084ED050A94ED081AF1EE410AFCF720FB91
:1044D00084ED050A10BD30B587B00446154601913C
:1044E0000021029103910491059301232A4601A919
:1044F0002046FCF7D9FE00280DD002232A4601A948
:104500002046FCF7D1FE002805D004232A4601A945
:104510002046FCF7C9FE07B030BD0000384E394DCB
:10452000394C3A4FDFF8E890DFF8E880307803281C
:104530000DD13949394801F03FFC394801F02EFCD2
:10454000052237493748FFF783FA002030701A22D6
:1045500035493648FFF77CFA95ED270A84ED000AC5
:1045600095ED050A84ED010A95ED160A84ED020A1F
:1045700095ED380A84ED030A97ED370A84ED040AB5
:1045800097ED380A84ED050A95ED220A84ED060AB6
:1045900095ED230A84ED070A95ED000A84ED080ADB
:1045A00095ED010A84ED090A95ED110A84ED0A0AD8
:1045B00095ED120A84ED0B0A95ED330A84ED0C0A91
:1045C00095ED340A84ED0D0A99ED040A84ED100A84
:1045D000B8F84C0000EE100AB8EE400A84ED110A5B
:1045E000B8F8380000EE100AB8EE400A84ED120A5E
:1045F0001321054800F046FC012002F047FB95E737
:10460000B0000020B80000208C5B0020B80600201D
:10461000485C0020DC5C00202C5D0020D85B002082
:104620006A0A0020F80C0020F85B0020880D0020AA
:10463000B5EEC00AF1EE10FA02D24FF0FF3070472B
:10464000B5EEC00AF1EE10FA01D10020704701204A
:10465000704710B54FF0E020006902F063FF0128B9
:1046600003D0BDE8104002F07DBC10BD30B593B062
:10467000302107A8FBF75EFF142102A8FBF75AFFC1
:1046800000251D48016841F080510160006800F07C
:10469000805001901948016841F480410160006830
:1046A00000F480400190012007900004089002244B
:1046B0000D9480010E9004200F90A8211091119468
:1046C000129007A8FEF73EF808B1FCF7E0FB0F20B8
:1046D0000290039404954FF4A05005904FF480503D
:1046E0000690052102A8FDF70FFF002801D0FCF776
:1046F000CEFB13B030BD00004038024000700040D7
:104700000248016841F470010160704788ED00E0E3
:104710000148FEF7D6BB0000B00C00200148FEF7B0
:10472000D0BB0000201200202DE9F0410268284D86
:10473000284E294FDFF8A4C0294B4FF08048A842EB
:1047400009D0404507D0B04205D0B84203D06045FB
:1047500001D0984203D122F070044A682243A84253
:104760001BD0404519D0B04217D0B84215D0604593
:1047700013D0984211D01B4CA0420ED01A4CA0422C
:104780000BD01A4CA04208D0194CA04205D0194CAD
:10479000A04202D0184CA04203D122F44074CA684F
:1047A00022434C6922F0800222438C68C4620C6868
:1047B0008462A84201D0984201D10969016301686D
:1047C00041F004010160012141610260BDE8F08116
:1047D000000001400004004000080040000C0040C0
:1047E00000040140004001400044014000480140F5
:1047F00000180040001C00400020004010B58468F4
:1048000024F47F4442EA03220A432243826010BD1B
:10481000826822F070020A4342F00701816070470B
:1048200010B5036A046A24F001040462846924F068
:10483000F00444EA021423F00A020A43846102628B
:1048400010BD10B5036A046A24F010040462846980
:1048500024F4704444EA023223F0A00343EA011135
:104860008261016210BD00000148FEF781BD0000B9
:10487000F80C00200148FEF77BBD0000400D002031
:1048800010B5806B0021C185FEF71AFD10BD70B513
:10489000846B20684069C0F3C01094F84110002573
:1048A000212904D118B1E584204600F0C1F8206820
:1048B0004069C0F3801094F84210222904D118B145
:1048C000E585204600F080F8606C40F010006064E0
:1048D0002046FEF7F5FC70BD10B50146886B0968EF
:1048E00009684FF00003C9052ED4C38501680C3157
:1048F00051E8002F22F4807241E80024002CF5D109
:104900000168143151E8002F22F0010241E800242F
:10491000002CF5D10168143151E8002F22F040023B
:1049200041E80024002CF5D1202180F84210016BD1
:10493000012909D101680C3151E8002F22F0100241
:1049400041E80024002CF5D14363016B012902D01A
:10495000FFF77CF810BD818DFEF720FC10BD10B56F
:10496000806B01214163016B012902D0FFF76FF8D1
:1049700010BD818D4908FEF711FC10BD10B5014630
:10498000886B09680968C90516D40021C1840168CB
:10499000143151E8002F22F0800241E80023002B5F
:1049A000F5D101680C3151E8002F42F0400241E896
:1049B0000023002BF5D110BDFFF790F810BD10B506
:1049C000806BFFF799F810BD01680C3151E8002F9A
:1049D00022F4907241E80023002BF5D101681431D4
:1049E00051E8002F22F0010241E80023002BF5D10D
:1049F000016B012909D101680C3151E8002F22F027
:104A0000100241E80023002BF5D1202180F842104C
:104A100000210163704710B50168CA6822F04002A6
:104A2000CA60202180F84110FFF758F8002010BD1F
:104A300001680C3151E8002F22F0C00241E8002348
:104A4000002BF5D1202180F84110704708B590F86F
:104A50004210222901D0022008BD82684FF4805301
:104A60009A4201D1016921B1816A9A421DD052B1A5
:104A70000BE0816A02685268C2F308020A80816A08
:104A8000891C816209E002697AB10268526802F009
:104A90007F020A70816A491C8162C18D491E090426
:104AA000090CC18505D0002008BD026852680A7053
:104AB000F0E70168CA6822F02002CA600168CA688B
:104AC00022F48072CA6001684A6922F001024A61D8
:104AD000202180F8421000214163026B012A03D09B
:104AE000FEF7B4FF002008BD016301680C3151E8F6
:104AF000002F22F0100241E80023002BF5D10168BD
:104B00000A68D20602D50A6849680091818DFEF7CD
:104B100045FBE7E72DE9F041044620680169E268BA
:104B200021F4405111430161A1682069E269014308
:104B30006069104301432068C26849F20C639A43DC
:104B40000A43C26020684169A26921F4407111439F
:104B5000416133492068884202D03249884202D1FB
:104B6000FDF7ACFD01E0FDF799FDE1690023192790
:104B700064253226B1F5004F28D061688B0F8A007A
:104B8000A0FB0701FBF7F0FB0146B0FBF5F07A4212
:104B9000504301EB800006EB0010B0FBF5F000F095
:104BA000F002B1FBF5F002EB0012B1FBF5F07B4235
:104BB000584301EB800006EB0010B0FBF5F02168D4
:104BC00000F00F0010448860BDE8F08161684A1869
:104BD000A0FB07015B41FBF7C7FB0146B0FBF5F00B
:104BE0000201B1FBF5F06FF01803584301EB8000B0
:104BF00006EBC000B0FBF5F000F0F80002EB40025D
:104C0000B1FBF5F0584301EB800006EBC000B0FBB0
:104C1000F5F0216800F0070010448860D4E7000038
:104C2000001001400014014037B582B0044613461D
:104C3000039AA262A38500206064222184F84210B6
:104C4000E56B1F49E963E56B1E492964E56B1E4965
:104C5000E964E16B08652168E06B091DFDF75CFA0A
:104C600038B110206064202084F84200012005B093
:104C700030BD2068016840680190206948B1206813
:104C80000C3050E8001F41F4807140E80012002A07
:104C9000F5D12068143050E8001F41F0010140E8D0
:104CA0000012002AF5D12068143050E8001F41F0AE
:104CB000400140E80012002AF5D10020D7E70000AB
:104CC000D94800085F4900088F48000890F8411053
:104CD000212901D0022070478168B1F5805F01D1A0
:104CE000016961B1016A4A1C026202680978516077
:104CF000C18C491E0904090CC1840AD013E0016A61
:104D000002680988C1F308015160016A891C0162C7
:104D1000EEE70168CA6822F08002CA600068C168D4
:104D200041F04001C16000207047000038B5224CBE
:104D30002068016809070AD501684068009020468C
:104D4000FEF786FA06221D492046FEF771FE20680E
:104D5000016889070AD50168406800901648FEF787
:104D600077FA062215491448FEF762FE20680168AA
:104D7000C9061CD50168406800900F48FEF768FA24
:104D80000F48006840680F49C0F1140008700B48D4
:104D90000D4902780A700D494078087003220749CE
:104DA0000548FEF745FE0A48C18F491CC187BDE88A
:104DB00038400148FEF7DCBA880D002018060020B4
:104DC000E00F00201E060020660A0020690A00206D
:104DD000DC5C002038B52248FEF7CAFA204B186880
:104DE0000168C9063AD50022016840680090D86B76
:104DF0000068016821F001010160186841680068DD
:104E0000D86B01684968174CC1F5007189B22180DF
:104E1000154C6254154C01684FF46062A14203D9ED
:104E200012494C390A600FE0114CA14203D90F49D5
:104E300050390A6008E00E4D0D4C603DB83CA94267
:104E400001D9E26000E0A26000684FF400714160A7
:104E5000D86B0068016841F00101016038BD0000B5
:104E6000D00D0020D40B00200F60002058640240B9
:104E7000B86002400148FEF77BBA0000180E00201F
:104E8000FEE7000010B50C460146A2000C48FBF7F7
:104E9000E2FA0B48002103E000EB84021160641C7D
:104EA000132CF9DB07490968C164502204490648FC
:104EB000FEF7CEFD0549888E401C888610BD000097
:104EC0003C5B002018830008180E0020DC5C0020EA
:104ED00013490A6842604A68026090ED000AB1EE28
:104EE000400A80ED000A8A688260CA68C2600A6966
:104EF00002614A6942618A698261CA69C2610A6A59
:104F0000026208480A6902604A6942608A698260EE
:104F1000CA69C260096A0161034800F015B800005F
:104F2000215C0020FD5B0020B80600200448112110
:104F3000017022218170014603220248FEF788BDDC
:104F40007C0A0020400D002010B5054C94F8580054
:104F5000002804D0FEF722FE002084F8580010BD7F
:104F6000380600204100080218BF04200A0E18BFAE
:104F700040F001004FF07F4232EA010108BF40F0EB
:104F80000200012808BF052070470907090E002804
:104F900004DB00F1E02080F80014704700F00F00FF
:104FA00000F1E02080F8141D7047000010EE101A88
:104FB00008B5444A6846B2EB410F28D94FF0E640A5
:104FC000B0EB410F94BF00204FF0FF3000900098ED
:104FD000002861DB60EE000A10F0010F45D010F0F0
:104FE000020FDFED391A9FED391A00EEE11ADFEDFD
:104FF000381A40EE811A21EEA01AF0EE400A40EE77
:10500000010A08BFF1EE600AB0EE600A08BD314B3C
:1050100021F0004293423CD911F0004FDFED2E0AFF
:1050200020EE201ADFED2D0A19BF31EE601A71EE65
:10503000200A31EE201A71EE600ABDEEE01A11EE80
:10504000100A9FED271A00F0030000EEC10A9FED41
:10505000251A009000EEC10A9FED231A00EEC10A46
:105060009FED221A00EEC10AB1E79FED211A9FEDD4
:10507000210A10F0020F00EE810A9FED1F1A00EEC8
:10508000801AB7EE000A00EE810A18BFB1EE400A9E
:1050900008BD00F055F99AE710EE100A4000B0F193
:1050A0007F4F3CBFB7EE000A08BD07D14FF00100AB
:1050B000FBF76FFABDE8084000F032B9BDE80840E0
:1050C00000F02BB9B61F927E336D4C39DA82083C62
:1050D000A0AA2ABE490E494683F9223F0000004B90
:1050E0000000C93F00A0FD390020A2331A61342C12
:1050F000B93AB2BACA9F2A3DDDFFFFBE2DED020BC1
:10510000019820F0004001909DED000B02B0704727
:1051100000B510EE101A2DED028B81B0524A684690
:10512000B2EB410F2ED94FF0E640B0EB410F94BFE8
:1051300000204FF0FF3000900098B0EE408A002829
:105140006ADB10F0010F4BD068EE080A9FED471A9A
:105150009FED470A00EE810A9FED461A10F0020FFC
:1051600000EE801AB7EE000A00EE810A02BF01B01D
:10517000BDEC028B00BD00BF01B0B1EE400ABDEC3A
:10518000028B00BD3C4B21F00042934241D911F00B
:10519000004FDFED3A0A20EE201ADFED390A19BF81
:1051A00031EE601A71EE200A31EE201A71EE600ABB
:1051B000BDEEE01A11EE100A9FED321A00F0030066
:1051C00000EEC10A9FED301A009000EEC10A9FED7B
:1051D0002F1A00EEC10A9FED2E1A00EEC10AABE7AE
:1051E00028EE080A9FED2B1ADFED2B0A10F0020FB4
:1051F00040EE410A9FED291A00EE201A61EE000AE6
:10520000B0EE480A08EE200AB6D101B0BDEC028B20
:1052100000BD00F095F88FE718EE100A4000B0F1DD
:105220007F4F0DD218EE100AFFF79CFE042808BF2E
:1052300000F07EF8B0EE480A01B0BDEC028B00BD74
:1052400009D10120FBF7A5F901B0BDEC028B5DF897
:1052500004EB00F065B801B0B0EE480ABDEC028B7B
:105260005DF804EB00F059B8B61F927EB93AB2BAB5
:10527000CA9F2A3DDDFFFFBE490E494683F9223F02
:105280000000004B0000C93F00A0FD390020A23300
:105290001A61342C336D4C39DA82083CA0AA2ABE3C
:1052A00000B52DED048BB0EE409AF0EE609A83B01D
:1052B00051EC190B02F0A6FD41EC180B18EE100A88
:1052C00018EE901A8DED008B002818BF01200843BE
:1052D00020F00040C0F17F6000F1E040C00F14D02A
:1052E00019EE101A19EE900A8DED009B002918BFD7
:1052F0000121084320F00040C0F17F6000F1E04050
:10530000C00F04BF0120FBF744F9B0EE480A03B018
:10531000F0EE680ABDEC048B00BD30EE000A704769
:10532000DFED020A80EEA00A7047000000000000D6
:105330009FED020A20EE000A7047000000000010F6
:105340002DE9F0014FF07F42B2EB410F9FBF4FF0CC
:10535000FF310160BDE8F00170474FF0004242EAC2
:105360000123C1F3C752783A551112F01F0C434C78
:10537000CCF120067C44C1F3C752A2F178024FEA77
:10538000621204EB820254F8254008BFD2E90156AC
:1053900012D0556804FA0CF425FA06F73C439768D6
:1053A00005FA0CF527FA06F8D26807FA0CFCF24069
:1053B00045EA08054CEA0206A4FB034CA5FB035290
:1053C000A6FB03631D449D4234BF0126002613192A
:1053D000334416B1934202D903E0934201D2012231
:1053E00000E00022624402F1200C9206DC0C42EA4A
:1053F000443200EE102A5B03DFED210AF8EEC01AFA
:1054000000EE103A4FEA9C1C11F0004FB8EE400A33
:10541000C0F800C020EE201A00EE105ADFED190A85
:10542000B8EE400A20EE200A71EE810A70EE800A82
:1054300010EE902A02F500626FF30B0200EE902A44
:1054400070EEE11A31EEC11ADFED101A30EE411A9A
:105450009FED0D0A20EE800A01EE210A9FED0C1A45
:1054600000EE810A04BFBDE8F0017047CCF1805125
:105470000160BDE8F001B1EE400A7047A42F0000C2
:10548000000000360000802C22AAFD29DB0FC92F66
:105490000000C92F2DE9F8438946002100914E46AE
:1054A000002802D0B9F1000F03DC4FF0FF30BDE857
:1054B000F8836FF00107B9F1070F01DA3846F6E714
:1054C000044608E02078592802D16078532804D097
:1054D000641C761E36B2022EF4DA072E05DAA9EB2A
:1054E000060000F03FFA3846E1E72579E81DB042B2
:1054F00001DD3846DBE7E81C81B26A46A01C00F0FB
:1055000035F86019BDF80010B0F80500884209D0E0
:105510002179A9EB0600C01D084400F023FA6FF0C2
:105520000200C4E705270FE004EB070808F10202B8
:1055300098F8011098F8000000F052F801280CD0FB
:105540007F1CBFB26D1EADB2002DEDD1A9EB0600E0
:10555000C01D00F007FA0020A9E798F80100BF1C61
:10556000C1198FB2281A801E85B2EDE770B50024EC
:105570000025002803D011B10AB1002309E04FF043
:10558000FF3070BDC65C3444E4B22544EDB25B1C10
:105590009BB28B42F6D344EA05201080002070BDF8
:1055A00010B50648FBF792F80448FCF7D6FBBDE8B7
:1055B000104002210148FBF765BE0000080C0020E6
:1055C00010B50648FBF7A8F80448FCF7C6FBBDE891
:1055D000104002210148FBF755BE0000300C0020AE
:1055E00070B515462DED048BFF249FEDD80AD84EDB
:1055F00005F108039FEDD79A412870D00EDC3028C2
:1056000070D006DC01286CD0102814D0202815D1C9
:105610003BE031287DD04028F9D1BCE0522879D038
:1056200004DC502877D05128F1D179E1602873D07B
:105630007028ECD133E10C2901D000247CE1012455
:10564000284600F047FA00EE900AF8EEE00A60EE15
:10565000800A10EE900A3060281D00F03BFA00EE40
:10566000900AF8EEE00A60EE800A10EE900A706090
:10567000184600F02FFA00EE900AF8EEE00A20EE4D
:10568000800A10EE100AB06056E10C2901D0002407
:1056900052E10124284600F01DFA00EE900AF8EECF
:1056A000E00A60EE800A10EE900AF060281D00F01B
:1056B00011FA00EE900AF8EEE00A60EE800A10EEB1
:1056C000900A3061184600F005FA00EE900AF8EEF4
:1056D000E00A20EE800A10EE100A70612CE184E0EE
:1056E00000E0FDE00C2901D0002425E1012428463A
:1056F00000F0F0F900EE900AF8EEE00A60EE800AA1
:1057000010EE900AB061281D00F0E4F900EE900A56
:1057100003E016E00DE1F7E09EE0F8EEE00A60EE4F
:10572000800A10EE900AF061184600F0D3F900EEFE
:10573000900AF8EEE00A20EE800A10EE100A3062BD
:10574000FAE00C2901D00024F6E00124284600F0FC
:10575000C1F900EE100AB8EEC00A20EE090A10EEF8
:10576000100A7062281D00F0B5F900EE100AB8EEBC
:10577000C00A20EE090A10EE100AB062184600F0C6
:10578000A9F900EE100AB8EEC00A20EE090A10EEE0
:10579000100AF062D0E00C2901D00024CCE00124F2
:1057A000284600F097F900EE900AF8EEE00A60EE65
:1057B000800A10EE900A3063281D00F08BF900EE8D
:1057C000900AF8EEE00A60EE800A10EE900A70632C
:1057D000184600F07FF900EE900AF8EEE00A20EE9D
:1057E000800A10EE100AB063A6E0102901D0002450
:1057F000A2E00124284600F06DF900EE900AF8EED0
:10580000E00A60EE800A10EE900AF063281D00F0B6
:1058100061F900EE900AF8EEE00A60EE800A10EE00
:10582000900A3064184600F055F900EE900AF8EE40
:10583000E00A60EE800A10EE900A706405F10C0038
:1058400000F048F900EE900AF8EEE00A20EE800A37
:1058500010EE100AB0646FE00C2901D000246BE058
:105860000124286802F033F99FED3B8B53EC182B91
:1058700002F094F9F0643165686802F028F953EC9D
:10588000182B02F08BF97065B16595ED020AB8EE40
:10589000C00A20EE090A10EE100AF0654CE00C294F
:1058A00001D0002448E0012495ED000AB8EEC00ABA
:1058B00020EE090A10EE100A306695ED010AB8EEE6
:1058C000C00A20EE090A10EE100A706695ED020A71
:1058D000B8EEC00A20EE090A10EE100AB0662BE0FE
:1058E000022901D0002427E00124B5F90000DFEDF2
:1058F0001C0A00EE100AB8EEC00A20EE200A10EED4
:10590000100AC6F87F0017E00B2901D0002413E02D
:1059100001240F480A4629466C30FAF79CFD0BE03B
:10592000042901D0002407E001242868C6F8770084
:1059300002E0042904D00024BDEC048B204670BD95
:1059400001242868C6F87B00F6E70000BD378635DD
:105950008C5D00206F12833A48AFBC9AF2D77A3E32
:105960000AD7233C70B5044621460C48FAF7C0FD1F
:105970000B4D2888A0420ED9001B82B22A80074E08
:1059800031193046FAF767FD288821463044BDE8D2
:105990007040FAF7ADBD0020288070BD0F5E00207A
:1059A000D60B002021490889401C80B2088102EEF4
:1059B000100A71EE402AB8EE422A32EE402A82EEF8
:1059C000220A9FED1B2ADFED1B2A20EE022A60EE41
:1059D000222A22EE002A22EE002A02EE802ADFEDA1
:1059E000162A00EE222A00EE100AB8EE400AB4EEA3
:1059F000C10AF1EE10FA06D831EEE01AB0EE600AF4
:105A000001EE020A704700EE100AB8EE400AB4EE4A
:105A1000C10AF1EE10FA05DD002088810881B0EEA0
:105A2000610A7047B0EE610A70470000D80B002091
:105A30008FC2953FB81E55C0E7FB494021494889B0
:105A4000401C80B2488102EE100A71EE402AB8EE86
:105A5000422A32EE402A82EE220A9FED1B2ADFED17
:105A60001B2A20EE022A60EE222A22EE002A22EED3
:105A7000002A02EE802ADFED162A00EE222A00EE2E
:105A8000100AB8EE400AB4EEC10AF1EE10FA06D8D8
:105A900031EEE01AB0EE600A01EE020A704700EE45
:105AA000100AB8EE400AB4EEC10AF1EE10FA05DDB4
:105AB0000020C8814881B0EE610A7047B0EE610AEB
:105AC00070470000D80B00208FC2953FB81E55C00C
:105AD000E7FB49400178C27841EA02618278407868
